{"src/FundsVault.sol":{"FundsVault":{"abi":[{"inputs":[{"internalType":"address","name":"_multisig","type":"address"}],"stateMutability":"nonpayable","type":"constructor"},{"inputs":[],"name":"ReentrancyGuardReentrantCall","type":"error"},{"inputs":[{"internalType":"address","name":"token","type":"address"}],"name":"SafeERC20FailedOperation","type":"error"},{"anonymous":false,"inputs":[{"indexed":true,"internalType":"address","name":"depositor","type":"address"}],"name":"DepositorAuthorized","type":"event"},{"anonymous":false,"inputs":[{"indexed":true,"internalType":"address","name":"depositor","type":"address"}],"name":"DepositorRevoked","type":"event"},{"anonymous":false,"inputs":[{"indexed":true,"internalType":"address","name":"from","type":"address"},{"indexed":false,"internalType":"uint256","name":"amount","type":"uint256"}],"name":"ETHDeposited","type":"event"},{"anonymous":false,"inputs":[{"indexed":true,"internalType":"address","name":"to","type":"address"},{"indexed":false,"internalType":"uint256","name":"amount","type":"uint256"}],"name":"ETHWithdrawn","type":"event"},{"anonymous":false,"inputs":[{"indexed":true,"internalType":"address","name":"token","type":"address"},{"indexed":true,"internalType":"address","name":"from","type":"address"},{"indexed":false,"internalType":"uint256","name":"amount","type":"uint256"}],"name":"TokenDeposited","type":"event"},{"anonymous":false,"inputs":[{"indexed":true,"internalType":"address","name":"token","type":"address"},{"indexed":true,"internalType":"address","name":"to","type":"address"},{"indexed":false,"internalType":"uint256","name":"amount","type":"uint256"}],"name":"TokenWithdrawn","type":"event"},{"inputs":[{"internalType":"address","name":"depositor","type":"address"}],"name":"authorizeDepositor","outputs":[],"stateMutability":"nonpayable","type":"function"},{"inputs":[{"internalType":"address","name":"","type":"address"}],"name":"authorizedDepositors","outputs":[{"internalType":"bool","name":"","type":"bool"}],"stateMutability":"view","type":"function"},{"inputs":[],"name":"depositETH","outputs":[],"stateMutability":"payable","type":"function"},{"inputs":[{"internalType":"address","name":"token","type":"address"},{"internalType":"uint256","name":"amount","type":"uint256"}],"name":"depositToken","outputs":[],"stateMutability":"nonpayable","type":"function"},{"inputs":[],"name":"getETHBalance","outputs":[{"internalType":"uint256","name":"","type":"uint256"}],"stateMutability":"view","type":"function"},{"inputs":[{"internalType":"address","name":"token","type":"address"}],"name":"getTokenBalance","outputs":[{"internalType":"uint256","name":"","type":"uint256"}],"stateMutability":"view","type":"function"},{"inputs":[],"name":"multisig","outputs":[{"internalType":"address","name":"","type":"address"}],"stateMutability":"view","type":"function"},{"inputs":[{"internalType":"address","name":"depositor","type":"address"}],"name":"revokeDepositor","outputs":[],"stateMutability":"nonpayable","type":"function"},{"inputs":[{"internalType":"address","name":"to","type":"address"},{"internalType":"uint256","name":"amount","type":"uint256"}],"name":"withdrawETH","outputs":[],"stateMutability":"nonpayable","type":"function"},{"inputs":[{"internalType":"address","name":"token","type":"address"},{"internalType":"address","name":"to","type":"address"},{"internalType":"uint256","name":"amount","type":"uint256"}],"name":"withdrawToken","outputs":[],"stateMutability":"nonpayable","type":"function"},{"stateMutability":"payable","type":"receive"}],"evm":{"bytecode":{"linkReferences":{},"object":"60a0346100d657601f610b4b38819003918201601f19168301916001600160401b038311848410176100db578084926020946040528339810103126100d657516001600160a01b0381168082036100d65760016000551561009157608052604051610a5990816100f28239608051818181610160015281816102ad0152818161033b0152818161039801526106b00152f35b60405162461bcd60e51b815260206004820152601860248201527f46756e64735661756c743a207a65726f206164647265737300000000000000006044820152606490fd5b600080fd5b634e487b7160e01b600052604160045260246000fdfe60406080815260048036101561005d575b361561001b57600080fd5b6020606492519162461bcd60e51b8352820152601a60248201527f46756e64735661756c743a20757365206465706f7369744554480000000000006044820152fd5b6000803560e01c806301e3366714610673578063338b5dea146105915780633aecd0e3146104fa5780634782f7791461036a5780634783c35b1461032657806365698573146102835780636e9472981461026857806372402e001461022a578063d9fd42cf146101365763f6326fb3146100d75750610010565b82816003193601126101325733825260016020526100fa60ff82842054166108c8565b61010534151561087c565b513481527f6c703791f399558807424f489ccd811c72b4ff0b74af547264fad7c646776df060203392a280f35b5080fd5b50913461022657602036600319011261022657610151610815565b6001600160a01b0390610187337f0000000000000000000000000000000000000000000000000000000000000000841614610830565b1691610194831515610914565b828452600160205260ff82852054166101e4575081835260016020528220600160ff198254161790557fbb9ef4f0ee2ff5375c566f2669824d1fb9e65a225185d7c060c5ff5576b499918280a280f35b6020606492519162461bcd60e51b8352820152601e60248201527f46756e64735661756c743a20616c726561647920617574686f72697a656400006044820152fd5b8280fd5b5082346101325760203660031901126101325760209160ff9082906001600160a01b03610255610815565b1681526001855220541690519015158152f35b50823461013257816003193601126101325751478152602090f35b5082346101325760203660031901126101325761029e610815565b6001600160a01b03906102d4337f0000000000000000000000000000000000000000000000000000000000000000841614610830565b169081835260016020526102ed60ff82852054166108c8565b81835260016020528220805460ff191690557f81b1f5b021742e2c18738c490e740cc533e459c7e0084d33ca75860e677a21e18280a280f35b508234610132578160031936011261013257517f00000000000000000000000000000000000000000000000000000000000000006001600160a01b03168152602090f35b50919034610226578160031936011261022657610385610815565b91602435916001600160a01b036103bf337f0000000000000000000000000000000000000000000000000000000000000000831614610830565b6103c7610998565b8416936103d5851515610914565b6103e084151561087c565b8347106104b7578580808681945af13d156104b2573d67ffffffffffffffff811161049f5783519061041c601f8201601f191660200183610960565b81528660203d92013e5b1561045d57507f94b2de810873337ed265c5f8cf98c9cffefa06b8607f9a2f1fbaebdfbcfbef1c9160209151908152a26001815580f35b6020606492519162461bcd60e51b8352820152601f60248201527f46756e64735661756c743a20455448207472616e73666572206661696c6564006044820152fd5b634e487b7160e01b875260418352602487fd5b610426565b506020606492519162461bcd60e51b8352820152602060248201527f46756e64735661756c743a20696e73756666696369656e742062616c616e63656044820152fd5b508234610132576020928360031936011261022657836001600160a01b03610520610815565b169160248451809481936370a0823160e01b835230908301525afa928315610586578093610551575b505051908152f35b909192508382813d831161057f575b61056a8183610960565b8101031261057c575051908380610549565b80fd5b503d610560565b8251903d90823e3d90fd5b509190346102265781600319360112610226576105ac610815565b916024359233855260016020526105c860ff83872054166108c8565b6001600160a01b0316916105dd831515610914565b6105e884151561087c565b81516323b872dd60e01b6020820152336024820152306044820152606480820186905281529060a082019067ffffffffffffffff8211838310176106605750825261063390836109bb565b519182527ff1444b5cad7ce70cb018d1b8edc8618fe303f3c7f034d8d572a6e27facbf2bef60203393a380f35b634e487b7160e01b875260419052602486fd5b509190346102265760603660031901126102265761068f610815565b6024356001600160a01b03818116949185900361081157604435926106d7827f0000000000000000000000000000000000000000000000000000000000000000163314610830565b6106df610998565b169283156107cf578415610782576106f883151561087c565b81519063a9059cbb60e01b602083015285602483015283604483015260448252608082019082821067ffffffffffffffff83111761076f5750916107637f8210728e7c071f615b840ee026032693858fbcd5e5359e67e438c890f59e562094926020948352866109bb565b51908152a36001815580f35b634e487b7160e01b885260419052602487fd5b6020608492519162461bcd60e51b8352820152602260248201527f46756e64735661756c743a207a65726f20726563697069656e74206164647265604482015261737360f01b6064820152fd5b6020606492519162461bcd60e51b8352820152601e60248201527f46756e64735661756c743a207a65726f20746f6b656e206164647265737300006044820152fd5b8580fd5b600435906001600160a01b038216820361082b57565b600080fd5b1561083757565b60405162461bcd60e51b815260206004820152601860248201527f46756e64735661756c743a206e6f74206d756c746973696700000000000000006044820152606490fd5b1561088357565b60405162461bcd60e51b815260206004820152601760248201527f46756e64735661756c743a207a65726f20616d6f756e740000000000000000006044820152606490fd5b156108cf57565b60405162461bcd60e51b815260206004820152601a60248201527f46756e64735661756c743a206e6f7420617574686f72697a65640000000000006044820152606490fd5b1561091b57565b60405162461bcd60e51b815260206004820152601860248201527f46756e64735661756c743a207a65726f206164647265737300000000000000006044820152606490fd5b90601f8019910116810190811067ffffffffffffffff82111761098257604052565b634e487b7160e01b600052604160045260246000fd5b6002600054146109a9576002600055565b604051633ee5aeb560e01b8152600490fd5b906000602091828151910182855af115610a17576000513d610a0e57506001600160a01b0381163b155b6109ec5750565b604051635274afe760e01b81526001600160a01b039091166004820152602490fd5b600114156109e5565b6040513d6000823e3d90fdfea26469706673582212203b79ccf2d2bbb90389d6e80c18bd2f5a609ee4c467a5d37b1b382c88eb3e2c7a64736f6c63430008180033","opcodes":"PUSH1 0xA0 CALLVALUE PUSH2 0xD6 JUMPI PUSH1 0x1F PUSH2 0xB4B CODESIZE DUP2 SWAP1 SUB SWAP2 DUP3 ADD PUSH1 0x1F NOT AND DUP4 ADD SWAP2 PUSH1 0x1 PUSH1 0x1 PUSH1 0x40 SHL SUB DUP4 GT DUP5 DUP5 LT OR PUSH2 0xDB JUMPI DUP1 DUP5 SWAP3 PUSH1 0x20 SWAP5 PUSH1 0x40 MSTORE DUP4 CODECOPY DUP2 ADD SUB SLT PUSH2 0xD6 JUMPI MLOAD PUSH1 0x1 PUSH1 0x1 PUSH1 0xA0 SHL SUB DUP2 AND DUP1 DUP3 SUB PUSH2 0xD6 JUMPI PUSH1 0x1 PUSH1 0x0 SSTORE ISZERO PUSH2 0x91 JUMPI PUSH1 0x80 MSTORE PUSH1 0x40 MLOAD PUSH2 0xA59 SWAP1 DUP2 PUSH2 0xF2 DUP3 CODECOPY PUSH1 0x80 MLOAD DUP2 DUP2 DUP2 PUSH2 0x160 ADD MSTORE DUP2 DUP2 PUSH2 0x2AD ADD MSTORE DUP2 DUP2 PUSH2 0x33B ADD MSTORE DUP2 DUP2 PUSH2 0x398 ADD MSTORE PUSH2 0x6B0 ADD MSTORE RETURN JUMPDEST PUSH1 0x40 MLOAD PUSH3 0x461BCD PUSH1 0xE5 SHL DUP2 MSTORE PUSH1 0x20 PUSH1 0x4 DUP3 ADD MSTORE PUSH1 0x18 PUSH1 0x24 DUP3 ADD MSTORE PUSH32 0x46756E64735661756C743A207A65726F20616464726573730000000000000000 PUSH1 0x44 DUP3 ADD MSTORE PUSH1 0x64 SWAP1 REVERT JUMPDEST PUSH1 0x0 DUP1 REVERT JUMPDEST PUSH4 0x4E487B71 PUSH1 0xE0 SHL PUSH1 0x0 MSTORE PUSH1 0x41 PUSH1 0x4 MSTORE PUSH1 0x24 PUSH1 0x0 REVERT INVALID PUSH1 0x40 PUSH1 0x80 DUP2 MSTORE PUSH1 0x4 DUP1 CALLDATASIZE LT ISZERO PUSH2 0x5D JUMPI JUMPDEST CALLDATASIZE ISZERO PUSH2 0x1B JUMPI PUSH1 0x0 DUP1 REVERT JUMPDEST PUSH1 0x20 PUSH1 0x64 SWAP3 MLOAD SWAP2 PUSH3 0x461BCD PUSH1 0xE5 SHL DUP4 MSTORE DUP3 ADD MSTORE PUSH1 0x1A PUSH1 0x24 DUP3 ADD MSTORE PUSH32 0x46756E64735661756C743A20757365206465706F736974455448000000000000 PUSH1 0x44 DUP3 ADD MSTORE REVERT JUMPDEST PUSH1 0x0 DUP1 CALLDATALOAD PUSH1 0xE0 SHR DUP1 PUSH4 0x1E33667 EQ PUSH2 0x673 JUMPI DUP1 PUSH4 0x338B5DEA EQ PUSH2 0x591 JUMPI DUP1 PUSH4 0x3AECD0E3 EQ PUSH2 0x4FA JUMPI DUP1 PUSH4 0x4782F779 EQ PUSH2 0x36A JUMPI DUP1 PUSH4 0x4783C35B EQ PUSH2 0x326 JUMPI DUP1 PUSH4 0x65698573 EQ PUSH2 0x283 JUMPI DUP1 PUSH4 0x6E947298 EQ PUSH2 0x268 JUMPI DUP1 PUSH4 0x72402E00 EQ PUSH2 0x22A JUMPI DUP1 PUSH4 0xD9FD42CF EQ PUSH2 0x136 JUMPI PUSH4 0xF6326FB3 EQ PUSH2 0xD7 JUMPI POP PUSH2 0x10 JUMP JUMPDEST DUP3 DUP2 PUSH1 0x3 NOT CALLDATASIZE ADD SLT PUSH2 0x132 JUMPI CALLER DUP3 MSTORE PUSH1 0x1 PUSH1 0x20 MSTORE PUSH2 0xFA PUSH1 0xFF DUP3 DUP5 KECCAK256 SLOAD AND PUSH2 0x8C8 JUMP JUMPDEST PUSH2 0x105 CALLVALUE ISZERO ISZERO PUSH2 0x87C JUMP JUMPDEST MLOAD CALLVALUE DUP2 MSTORE PUSH32 0x6C703791F399558807424F489CCD811C72B4FF0B74AF547264FAD7C646776DF0 PUSH1 0x20 CALLER SWAP3 LOG2 DUP1 RETURN JUMPDEST POP DUP1 REVERT JUMPDEST POP SWAP2 CALLVALUE PUSH2 0x226 JUMPI PUSH1 0x20 CALLDATASIZE PUSH1 0x3 NOT ADD SLT PUSH2 0x226 JUMPI PUSH2 0x151 PUSH2 0x815 JUMP JUMPDEST PUSH1 0x1 PUSH1 0x1 PUSH1 0xA0 SHL SUB SWAP1 PUSH2 0x187 CALLER PUSH32 0x0 DUP5 AND EQ PUSH2 0x830 JUMP JUMPDEST AND SWAP2 PUSH2 0x194 DUP4 ISZERO ISZERO PUSH2 0x914 JUMP JUMPDEST DUP3 DUP5 MSTORE PUSH1 0x1 PUSH1 0x20 MSTORE PUSH1 0xFF DUP3 DUP6 KECCAK256 SLOAD AND PUSH2 0x1E4 JUMPI POP DUP2 DUP4 MSTORE PUSH1 0x1 PUSH1 0x20 MSTORE DUP3 KECCAK256 PUSH1 0x1 PUSH1 0xFF NOT DUP3 SLOAD AND OR SWAP1 SSTORE PUSH32 0xBB9EF4F0EE2FF5375C566F2669824D1FB9E65A225185D7C060C5FF5576B49991 DUP3 DUP1 LOG2 DUP1 RETURN JUMPDEST PUSH1 0x20 PUSH1 0x64 SWAP3 MLOAD SWAP2 PUSH3 0x461BCD PUSH1 0xE5 SHL DUP4 MSTORE DUP3 ADD MSTORE PUSH1 0x1E PUSH1 0x24 DUP3 ADD MSTORE PUSH32 0x46756E64735661756C743A20616C726561647920617574686F72697A65640000 PUSH1 0x44 DUP3 ADD MSTORE REVERT JUMPDEST DUP3 DUP1 REVERT JUMPDEST POP DUP3 CALLVALUE PUSH2 0x132 JUMPI PUSH1 0x20 CALLDATASIZE PUSH1 0x3 NOT ADD SLT PUSH2 0x132 JUMPI PUSH1 0x20 SWAP2 PUSH1 0xFF SWAP1 DUP3 SWAP1 PUSH1 0x1 PUSH1 0x1 PUSH1 0xA0 SHL SUB PUSH2 0x255 PUSH2 0x815 JUMP JUMPDEST AND DUP2 MSTORE PUSH1 0x1 DUP6 MSTORE KECCAK256 SLOAD AND SWAP1 MLOAD SWAP1 ISZERO ISZERO DUP2 MSTORE RETURN JUMPDEST POP DUP3 CALLVALUE PUSH2 0x132 JUMPI DUP2 PUSH1 0x3 NOT CALLDATASIZE ADD SLT PUSH2 0x132 JUMPI MLOAD SELFBALANCE DUP2 MSTORE PUSH1 0x20 SWAP1 RETURN JUMPDEST POP DUP3 CALLVALUE PUSH2 0x132 JUMPI PUSH1 0x20 CALLDATASIZE PUSH1 0x3 NOT ADD SLT PUSH2 0x132 JUMPI PUSH2 0x29E PUSH2 0x815 JUMP JUMPDEST PUSH1 0x1 PUSH1 0x1 PUSH1 0xA0 SHL SUB SWAP1 PUSH2 0x2D4 CALLER PUSH32 0x0 DUP5 AND EQ PUSH2 0x830 JUMP JUMPDEST AND SWAP1 DUP2 DUP4 MSTORE PUSH1 0x1 PUSH1 0x20 MSTORE PUSH2 0x2ED PUSH1 0xFF DUP3 DUP6 KECCAK256 SLOAD AND PUSH2 0x8C8 JUMP JUMPDEST DUP2 DUP4 MSTORE PUSH1 0x1 PUSH1 0x20 MSTORE DUP3 KECCAK256 DUP1 SLOAD PUSH1 0xFF NOT AND SWAP1 SSTORE PUSH32 0x81B1F5B021742E2C18738C490E740CC533E459C7E0084D33CA75860E677A21E1 DUP3 DUP1 LOG2 DUP1 RETURN JUMPDEST POP DUP3 CALLVALUE PUSH2 0x132 JUMPI DUP2 PUSH1 0x3 NOT CALLDATASIZE ADD SLT PUSH2 0x132 JUMPI MLOAD PUSH32 0x0 PUSH1 0x1 PUSH1 0x1 PUSH1 0xA0 SHL SUB AND DUP2 MSTORE PUSH1 0x20 SWAP1 RETURN JUMPDEST POP SWAP2 SWAP1 CALLVALUE PUSH2 0x226 JUMPI DUP2 PUSH1 0x3 NOT CALLDATASIZE ADD SLT PUSH2 0x226 JUMPI PUSH2 0x385 PUSH2 0x815 JUMP JUMPDEST SWAP2 PUSH1 0x24 CALLDATALOAD SWAP2 PUSH1 0x1 PUSH1 0x1 PUSH1 0xA0 SHL SUB PUSH2 0x3BF CALLER PUSH32 0x0 DUP4 AND EQ PUSH2 0x830 JUMP JUMPDEST PUSH2 0x3C7 PUSH2 0x998 JUMP JUMPDEST DUP5 AND SWAP4 PUSH2 0x3D5 DUP6 ISZERO ISZERO PUSH2 0x914 JUMP JUMPDEST PUSH2 0x3E0 DUP5 ISZERO ISZERO PUSH2 0x87C JUMP JUMPDEST DUP4 SELFBALANCE LT PUSH2 0x4B7 JUMPI DUP6 DUP1 DUP1 DUP7 DUP2 SWAP5 GAS CALL RETURNDATASIZE ISZERO PUSH2 0x4B2 JUMPI RETURNDATASIZE PUSH8 0xFFFFFFFFFFFFFFFF DUP2 GT PUSH2 0x49F JUMPI DUP4 MLOAD SWAP1 PUSH2 0x41C PUSH1 0x1F DUP3 ADD PUSH1 0x1F NOT AND PUSH1 0x20 ADD DUP4 PUSH2 0x960 JUMP JUMPDEST DUP2 MSTORE DUP7 PUSH1 0x20 RETURNDATASIZE SWAP3 ADD RETURNDATACOPY JUMPDEST ISZERO PUSH2 0x45D JUMPI POP PUSH32 0x94B2DE810873337ED265C5F8CF98C9CFFEFA06B8607F9A2F1FBAEBDFBCFBEF1C SWAP2 PUSH1 0x20 SWAP2 MLOAD SWAP1 DUP2 MSTORE LOG2 PUSH1 0x1 DUP2 SSTORE DUP1 RETURN JUMPDEST PUSH1 0x20 PUSH1 0x64 SWAP3 MLOAD SWAP2 PUSH3 0x461BCD PUSH1 0xE5 SHL DUP4 MSTORE DUP3 ADD MSTORE PUSH1 0x1F PUSH1 0x24 DUP3 ADD MSTORE PUSH32 0x46756E64735661756C743A20455448207472616E73666572206661696C656400 PUSH1 0x44 DUP3 ADD MSTORE REVERT JUMPDEST PUSH4 0x4E487B71 PUSH1 0xE0 SHL DUP8 MSTORE PUSH1 0x41 DUP4 MSTORE PUSH1 0x24 DUP8 REVERT JUMPDEST PUSH2 0x426 JUMP JUMPDEST POP PUSH1 0x20 PUSH1 0x64 SWAP3 MLOAD SWAP2 PUSH3 0x461BCD PUSH1 0xE5 SHL DUP4 MSTORE DUP3 ADD MSTORE PUSH1 0x20 PUSH1 0x24 DUP3 ADD MSTORE PUSH32 0x46756E64735661756C743A20696E73756666696369656E742062616C616E6365 PUSH1 0x44 DUP3 ADD MSTORE REVERT JUMPDEST POP DUP3 CALLVALUE PUSH2 0x132 JUMPI PUSH1 0x20 SWAP3 DUP4 PUSH1 0x3 NOT CALLDATASIZE ADD SLT PUSH2 0x226 JUMPI DUP4 PUSH1 0x1 PUSH1 0x1 PUSH1 0xA0 SHL SUB PUSH2 0x520 PUSH2 0x815 JUMP JUMPDEST AND SWAP2 PUSH1 0x24 DUP5 MLOAD DUP1 SWAP5 DUP2 SWAP4 PUSH4 0x70A08231 PUSH1 0xE0 SHL DUP4 MSTORE ADDRESS SWAP1 DUP4 ADD MSTORE GAS STATICCALL SWAP3 DUP4 ISZERO PUSH2 0x586 JUMPI DUP1 SWAP4 PUSH2 0x551 JUMPI JUMPDEST POP POP MLOAD SWAP1 DUP2 MSTORE RETURN JUMPDEST SWAP1 SWAP2 SWAP3 POP DUP4 DUP3 DUP2 RETURNDATASIZE DUP4 GT PUSH2 0x57F JUMPI JUMPDEST PUSH2 0x56A DUP2 DUP4 PUSH2 0x960 JUMP JUMPDEST DUP2 ADD SUB SLT PUSH2 0x57C JUMPI POP MLOAD SWAP1 DUP4 DUP1 PUSH2 0x549 JUMP JUMPDEST DUP1 REVERT JUMPDEST POP RETURNDATASIZE PUSH2 0x560 JUMP JUMPDEST DUP3 MLOAD SWAP1 RETURNDATASIZE SWAP1 DUP3 RETURNDATACOPY RETURNDATASIZE SWAP1 REVERT JUMPDEST POP SWAP2 SWAP1 CALLVALUE PUSH2 0x226 JUMPI DUP2 PUSH1 0x3 NOT CALLDATASIZE ADD SLT PUSH2 0x226 JUMPI PUSH2 0x5AC PUSH2 0x815 JUMP JUMPDEST SWAP2 PUSH1 0x24 CALLDATALOAD SWAP3 CALLER DUP6 MSTORE PUSH1 0x1 PUSH1 0x20 MSTORE PUSH2 0x5C8 PUSH1 0xFF DUP4 DUP8 KECCAK256 SLOAD AND PUSH2 0x8C8 JUMP JUMPDEST PUSH1 0x1 PUSH1 0x1 PUSH1 0xA0 SHL SUB AND SWAP2 PUSH2 0x5DD DUP4 ISZERO ISZERO PUSH2 0x914 JUMP JUMPDEST PUSH2 0x5E8 DUP5 ISZERO ISZERO PUSH2 0x87C JUMP JUMPDEST DUP2 MLOAD PUSH4 0x23B872DD PUSH1 0xE0 SHL PUSH1 0x20 DUP3 ADD MSTORE CALLER PUSH1 0x24 DUP3 ADD MSTORE ADDRESS PUSH1 0x44 DUP3 ADD MSTORE PUSH1 0x64 DUP1 DUP3 ADD DUP7 SWAP1 MSTORE DUP2 MSTORE SWAP1 PUSH1 0xA0 DUP3 ADD SWAP1 PUSH8 0xFFFFFFFFFFFFFFFF DUP3 GT DUP4 DUP4 LT OR PUSH2 0x660 JUMPI POP DUP3 MSTORE PUSH2 0x633 SWAP1 DUP4 PUSH2 0x9BB JUMP JUMPDEST MLOAD SWAP2 DUP3 MSTORE PUSH32 0xF1444B5CAD7CE70CB018D1B8EDC8618FE303F3C7F034D8D572A6E27FACBF2BEF PUSH1 0x20 CALLER SWAP4 LOG3 DUP1 RETURN JUMPDEST PUSH4 0x4E487B71 PUSH1 0xE0 SHL DUP8 MSTORE PUSH1 0x41 SWAP1 MSTORE PUSH1 0x24 DUP7 REVERT JUMPDEST POP SWAP2 SWAP1 CALLVALUE PUSH2 0x226 JUMPI PUSH1 0x60 CALLDATASIZE PUSH1 0x3 NOT ADD SLT PUSH2 0x226 JUMPI PUSH2 0x68F PUSH2 0x815 JUMP JUMPDEST PUSH1 0x24 CALLDATALOAD PUSH1 0x1 PUSH1 0x1 PUSH1 0xA0 SHL SUB DUP2 DUP2 AND SWAP5 SWAP2 DUP6 SWAP1 SUB PUSH2 0x811 JUMPI PUSH1 0x44 CALLDATALOAD SWAP3 PUSH2 0x6D7 DUP3 PUSH32 0x0 AND CALLER EQ PUSH2 0x830 JUMP JUMPDEST PUSH2 0x6DF PUSH2 0x998 JUMP JUMPDEST AND SWAP3 DUP4 ISZERO PUSH2 0x7CF JUMPI DUP5 ISZERO PUSH2 0x782 JUMPI PUSH2 0x6F8 DUP4 ISZERO ISZERO PUSH2 0x87C JUMP JUMPDEST DUP2 MLOAD SWAP1 PUSH4 0xA9059CBB PUSH1 0xE0 SHL PUSH1 0x20 DUP4 ADD MSTORE DUP6 PUSH1 0x24 DUP4 ADD MSTORE DUP4 PUSH1 0x44 DUP4 ADD MSTORE PUSH1 0x44 DUP3 MSTORE PUSH1 0x80 DUP3 ADD SWAP1 DUP3 DUP3 LT PUSH8 0xFFFFFFFFFFFFFFFF DUP4 GT OR PUSH2 0x76F JUMPI POP SWAP2 PUSH2 0x763 PUSH32 0x8210728E7C071F615B840EE026032693858FBCD5E5359E67E438C890F59E5620 SWAP5 SWAP3 PUSH1 0x20 SWAP5 DUP4 MSTORE DUP7 PUSH2 0x9BB JUMP JUMPDEST MLOAD SWAP1 DUP2 MSTORE LOG3 PUSH1 0x1 DUP2 SSTORE DUP1 RETURN JUMPDEST PUSH4 0x4E487B71 PUSH1 0xE0 SHL DUP9 MSTORE PUSH1 0x41 SWAP1 MSTORE PUSH1 0x24 DUP8 REVERT JUMPDEST PUSH1 0x20 PUSH1 0x84 SWAP3 MLOAD SWAP2 PUSH3 0x461BCD PUSH1 0xE5 SHL DUP4 MSTORE DUP3 ADD MSTORE PUSH1 0x22 PUSH1 0x24 DUP3 ADD MSTORE PUSH32 0x46756E64735661756C743A207A65726F20726563697069656E74206164647265 PUSH1 0x44 DUP3 ADD MSTORE PUSH2 0x7373 PUSH1 0xF0 SHL PUSH1 0x64 DUP3 ADD MSTORE REVERT JUMPDEST PUSH1 0x20 PUSH1 0x64 SWAP3 MLOAD SWAP2 PUSH3 0x461BCD PUSH1 0xE5 SHL DUP4 MSTORE DUP3 ADD MSTORE PUSH1 0x1E PUSH1 0x24 DUP3 ADD MSTORE PUSH32 0x46756E64735661756C743A207A65726F20746F6B656E20616464726573730000 PUSH1 0x44 DUP3 ADD MSTORE REVERT JUMPDEST DUP6 DUP1 REVERT JUMPDEST PUSH1 0x4 CALLDATALOAD SWAP1 PUSH1 0x1 PUSH1 0x1 PUSH1 0xA0 SHL SUB DUP3 AND DUP3 SUB PUSH2 0x82B JUMPI JUMP JUMPDEST PUSH1 0x0 DUP1 REVERT JUMPDEST ISZERO PUSH2 0x837 JUMPI JUMP JUMPDEST PUSH1 0x40 MLOAD PUSH3 0x461BCD PUSH1 0xE5 SHL DUP2 MSTORE PUSH1 0x20 PUSH1 0x4 DUP3 ADD MSTORE PUSH1 0x18 PUSH1 0x24 DUP3 ADD MSTORE PUSH32 0x46756E64735661756C743A206E6F74206D756C74697369670000000000000000 PUSH1 0x44 DUP3 ADD MSTORE PUSH1 0x64 SWAP1 REVERT JUMPDEST ISZERO PUSH2 0x883 JUMPI JUMP JUMPDEST PUSH1 0x40 MLOAD PUSH3 0x461BCD PUSH1 0xE5 SHL DUP2 MSTORE PUSH1 0x20 PUSH1 0x4 DUP3 ADD MSTORE PUSH1 0x17 PUSH1 0x24 DUP3 ADD MSTORE PUSH32 0x46756E64735661756C743A207A65726F20616D6F756E74000000000000000000 PUSH1 0x44 DUP3 ADD MSTORE PUSH1 0x64 SWAP1 REVERT JUMPDEST ISZERO PUSH2 0x8CF JUMPI JUMP JUMPDEST PUSH1 0x40 MLOAD PUSH3 0x461BCD PUSH1 0xE5 SHL DUP2 MSTORE PUSH1 0x20 PUSH1 0x4 DUP3 ADD MSTORE PUSH1 0x1A PUSH1 0x24 DUP3 ADD MSTORE PUSH32 0x46756E64735661756C743A206E6F7420617574686F72697A6564000000000000 PUSH1 0x44 DUP3 ADD MSTORE PUSH1 0x64 SWAP1 REVERT JUMPDEST ISZERO PUSH2 0x91B JUMPI JUMP JUMPDEST PUSH1 0x40 MLOAD PUSH3 0x461BCD PUSH1 0xE5 SHL DUP2 MSTORE PUSH1 0x20 PUSH1 0x4 DUP3 ADD MSTORE PUSH1 0x18 PUSH1 0x24 DUP3 ADD MSTORE PUSH32 0x46756E64735661756C743A207A65726F20616464726573730000000000000000 PUSH1 0x44 DUP3 ADD MSTORE PUSH1 0x64 SWAP1 REVERT JUMPDEST SWAP1 PUSH1 0x1F DUP1 NOT SWAP2 ADD AND DUP2 ADD SWAP1 DUP2 LT PUSH8 0xFFFFFFFFFFFFFFFF DUP3 GT OR PUSH2 0x982 JUMPI PUSH1 0x40 MSTORE JUMP JUMPDEST PUSH4 0x4E487B71 PUSH1 0xE0 SHL PUSH1 0x0 MSTORE PUSH1 0x41 PUSH1 0x4 MSTORE PUSH1 0x24 PUSH1 0x0 REVERT JUMPDEST PUSH1 0x2 PUSH1 0x0 SLOAD EQ PUSH2 0x9A9 JUMPI PUSH1 0x2 PUSH1 0x0 SSTORE JUMP JUMPDEST PUSH1 0x40 MLOAD PUSH4 0x3EE5AEB5 PUSH1 0xE0 SHL DUP2 MSTORE PUSH1 0x4 SWAP1 REVERT JUMPDEST SWAP1 PUSH1 0x0 PUSH1 0x20 SWAP2 DUP3 DUP2 MLOAD SWAP2 ADD DUP3 DUP6 GAS CALL ISZERO PUSH2 0xA17 JUMPI PUSH1 0x0 MLOAD RETURNDATASIZE PUSH2 0xA0E JUMPI POP PUSH1 0x1 PUSH1 0x1 PUSH1 0xA0 SHL SUB DUP2 AND EXTCODESIZE ISZERO JUMPDEST PUSH2 0x9EC JUMPI POP JUMP JUMPDEST PUSH1 0x40 MLOAD PUSH4 0x5274AFE7 PUSH1 0xE0 SHL DUP2 MSTORE PUSH1 0x1 PUSH1 0x1 PUSH1 0xA0 SHL SUB SWAP1 SWAP2 AND PUSH1 0x4 DUP3 ADD MSTORE PUSH1 0x24 SWAP1 REVERT JUMPDEST PUSH1 0x1 EQ ISZERO PUSH2 0x9E5 JUMP JUMPDEST PUSH1 0x40 MLOAD RETURNDATASIZE PUSH1 0x0 DUP3 RETURNDATACOPY RETURNDATASIZE SWAP1 REVERT INVALID LOG2 PUSH5 0x6970667358 0x22 SLT KECCAK256 EXTCODESIZE PUSH26 0xCCF2D2BBB90389D6E80C18BD2F5A609EE4C467A5D37B1B382C88 0xEB RETURNDATACOPY 0x2C PUSH27 0x64736F6C6343000818003300000000000000000000000000000000 "},"methodIdentifiers":{"authorizeDepositor(address)":"d9fd42cf","authorizedDepositors(address)":"72402e00","depositETH()":"f6326fb3","depositToken(address,uint256)":"338b5dea","getETHBalance()":"6e947298","getTokenBalance(address)":"3aecd0e3","multisig()":"4783c35b","revokeDepositor(address)":"65698573","withdrawETH(address,uint256)":"4782f779","withdrawToken(address,address,uint256)":"01e33667"}}}}}