{"src/VestingVault.sol":{"VestingVault":{"abi":[{"inputs":[{"internalType":"address","name":"_token","type":"address"}],"stateMutability":"nonpayable","type":"constructor"},{"inputs":[],"name":"AccessControlBadConfirmation","type":"error"},{"inputs":[{"internalType":"address","name":"account","type":"address"},{"internalType":"bytes32","name":"neededRole","type":"bytes32"}],"name":"AccessControlUnauthorizedAccount","type":"error"},{"inputs":[],"name":"ReentrancyGuardReentrantCall","type":"error"},{"inputs":[{"internalType":"address","name":"token","type":"address"}],"name":"SafeERC20FailedOperation","type":"error"},{"anonymous":false,"inputs":[{"indexed":true,"internalType":"bytes32","name":"role","type":"bytes32"},{"indexed":true,"internalType":"bytes32","name":"previousAdminRole","type":"bytes32"},{"indexed":true,"internalType":"bytes32","name":"newAdminRole","type":"bytes32"}],"name":"RoleAdminChanged","type":"event"},{"anonymous":false,"inputs":[{"indexed":true,"internalType":"bytes32","name":"role","type":"bytes32"},{"indexed":true,"internalType":"address","name":"account","type":"address"},{"indexed":true,"internalType":"address","name":"sender","type":"address"}],"name":"RoleGranted","type":"event"},{"anonymous":false,"inputs":[{"indexed":true,"internalType":"bytes32","name":"role","type":"bytes32"},{"indexed":true,"internalType":"address","name":"account","type":"address"},{"indexed":true,"internalType":"address","name":"sender","type":"address"}],"name":"RoleRevoked","type":"event"},{"anonymous":false,"inputs":[{"indexed":true,"internalType":"address","name":"saleRound","type":"address"}],"name":"SaleRoundAuthorized","type":"event"},{"anonymous":false,"inputs":[{"indexed":true,"internalType":"address","name":"beneficiary","type":"address"},{"indexed":false,"internalType":"uint256","name":"amount","type":"uint256"}],"name":"TokensClaimed","type":"event"},{"anonymous":false,"inputs":[{"indexed":true,"internalType":"address","name":"beneficiary","type":"address"},{"indexed":true,"internalType":"uint256","name":"scheduleId","type":"uint256"},{"indexed":false,"internalType":"uint256","name":"amount","type":"uint256"},{"indexed":false,"internalType":"uint256","name":"cliffEnd","type":"uint256"},{"indexed":false,"internalType":"uint256","name":"vestingEnd","type":"uint256"}],"name":"VestingCreated","type":"event"},{"inputs":[],"name":"DEFAULT_ADMIN_ROLE","outputs":[{"internalType":"bytes32","name":"","type":"bytes32"}],"stateMutability":"view","type":"function"},{"inputs":[],"name":"SALE_ROUND_ROLE","outputs":[{"internalType":"bytes32","name":"","type":"bytes32"}],"stateMutability":"view","type":"function"},{"inputs":[],"name":"claimVested","outputs":[],"stateMutability":"nonpayable","type":"function"},{"inputs":[{"internalType":"address","name":"beneficiary","type":"address"},{"internalType":"uint256","name":"amount","type":"uint256"},{"internalType":"uint256","name":"cliffDuration","type":"uint256"},{"internalType":"uint256","name":"vestingDuration","type":"uint256"},{"internalType":"uint256","name":"startTime","type":"uint256"}],"name":"createVesting","outputs":[],"stateMutability":"nonpayable","type":"function"},{"inputs":[{"internalType":"address","name":"beneficiary","type":"address"}],"name":"getClaimableAmount","outputs":[{"internalType":"uint256","name":"","type":"uint256"}],"stateMutability":"view","type":"function"},{"inputs":[{"internalType":"bytes32","name":"role","type":"bytes32"}],"name":"getRoleAdmin","outputs":[{"internalType":"bytes32","name":"","type":"bytes32"}],"stateMutability":"view","type":"function"},{"inputs":[{"internalType":"address","name":"beneficiary","type":"address"}],"name":"getVestedAmount","outputs":[{"internalType":"uint256","name":"","type":"uint256"}],"stateMutability":"view","type":"function"},{"inputs":[{"internalType":"address","name":"beneficiary","type":"address"},{"internalType":"uint256","name":"index","type":"uint256"}],"name":"getVestingSchedule","outputs":[{"components":[{"internalType":"uint256","name":"totalAmount","type":"uint256"},{"internalType":"uint256","name":"claimedAmount","type":"uint256"},{"internalType":"uint256","name":"startTime","type":"uint256"},{"internalType":"uint256","name":"cliffEnd","type":"uint256"},{"internalType":"uint256","name":"vestingEnd","type":"uint256"}],"internalType":"struct VestingVault.VestingSchedule","name":"schedule","type":"tuple"}],"stateMutability":"view","type":"function"},{"inputs":[{"internalType":"address","name":"beneficiary","type":"address"}],"name":"getVestingScheduleCount","outputs":[{"internalType":"uint256","name":"","type":"uint256"}],"stateMutability":"view","type":"function"},{"inputs":[{"internalType":"bytes32","name":"role","type":"bytes32"},{"internalType":"address","name":"account","type":"address"}],"name":"grantRole","outputs":[],"stateMutability":"nonpayable","type":"function"},{"inputs":[{"internalType":"bytes32","name":"role","type":"bytes32"},{"internalType":"address","name":"account","type":"address"}],"name":"hasRole","outputs":[{"internalType":"bool","name":"","type":"bool"}],"stateMutability":"view","type":"function"},{"inputs":[{"internalType":"address","name":"_saleManager","type":"address"}],"name":"initialize","outputs":[],"stateMutability":"nonpayable","type":"function"},{"inputs":[{"internalType":"bytes32","name":"role","type":"bytes32"},{"internalType":"address","name":"callerConfirmation","type":"address"}],"name":"renounceRole","outputs":[],"stateMutability":"nonpayable","type":"function"},{"inputs":[{"internalType":"bytes32","name":"role","type":"bytes32"},{"internalType":"address","name":"account","type":"address"}],"name":"revokeRole","outputs":[],"stateMutability":"nonpayable","type":"function"},{"inputs":[],"name":"saleManager","outputs":[{"internalType":"address","name":"","type":"address"}],"stateMutability":"view","type":"function"},{"inputs":[{"internalType":"bytes4","name":"interfaceId","type":"bytes4"}],"name":"supportsInterface","outputs":[{"internalType":"bool","name":"","type":"bool"}],"stateMutability":"view","type":"function"},{"inputs":[],"name":"token","outputs":[{"internalType":"contract IERC20","name":"","type":"address"}],"stateMutability":"view","type":"function"}],"evm":{"bytecode":{"linkReferences":{},"object":"60a0346100cb57601f61132138819003918201601f19168301916001600160401b038311848410176100d0578084926020946040528339810103126100cb57516001600160a01b038116908190036100cb576001600055801561008757608052610068336100e6565b506040516111a99081610178823960805181818160f301526106200152f35b606460405162461bcd60e51b815260206004820152602060248201527f56657374696e675661756c743a207a65726f20746f6b656e20616464726573736044820152fd5b600080fd5b634e487b7160e01b600052604160045260246000fd5b6001600160a01b031660008181527fa6eef7e35abe7026729641147f7915573c7e97b47efa546f5f6e3230263bcb49602052604081205490919060ff166101735781805260016020526040822081835260205260408220600160ff1982541617905533917f2f8788117e7eff1d82e926ec794901d17c78024a50270940304540a733656f0d8180a4600190565b509056fe608060408181526004918236101561001657600080fd5b600092833560e01c91826301ffc9a714610c675750816307d0d91614610c2f5781630b90fca114610bf4578163248a9ca314610bca5781632f2ff15d14610ba057816336568abe14610b5a578163746e60b514610b3157816391d1485414610aea578163a217fddf14610acf578163bed9757e146109dd578163c4d66de814610886578163d01c44cd146105dd578163d547741f1461059e578163d5a73fdd1461049e578163e12f3a6114610471578163eab23abe14610126575063fc0c546a146100e057600080fd5b34610122578160031936011261012257517f00000000000000000000000000000000000000000000000000000000000000006001600160a01b03168152602090f35b5080fd5b9190503461046d5760a036600319011261046d57610142610cba565b6002546044926024803593608435936064803593928835926001600160a01b03919082163314801561042f575b156103ef57169788156103b0578715610371578415610332578483116102f3574287106102b55750506101a56101ac9186610dd0565b9285610dd0565b938351906101b982610ceb565b86825260208201908a8252858301908152606083019085825260808401928884528a8d526003602052878d20805490680100000000000000008210156102a2579061020991600182018155610d3f565b95909561029157908c9493929151865551600186015551600285015551600384015551910155858852600360205282882054966000198801978811610280575050815193845260208401528201527f0ef11fd80fff9cb633beabeab03e30cd8c01b8f7f20493f9644fc85b9cd5bc7890606090a380f35b634e487b7160e01b89526011905287fd5b634e487b7160e01b8e528d8d52868efd5b50634e487b7160e01b8e5260418d52868efd5b7f56657374696e675661756c743a20696e76616c69642073746172742074696d658a91602086818a519562461bcd60e51b8752860152840152820152fd5b7f56657374696e675661756c743a20636c696666203e206475726174696f6e00008a91601e8660208a519562461bcd60e51b8752860152840152820152fd5b7f56657374696e675661756c743a207a65726f206475726174696f6e00000000008a91601b8660208a519562461bcd60e51b8752860152840152820152fd5b7f56657374696e675661756c743a207a65726f20616d6f756e74000000000000008a9160198660208a519562461bcd60e51b8752860152840152820152fd5b7f56657374696e675661756c743a207a65726f20616464726573730000000000008a91601a8660208a519562461bcd60e51b8752860152840152820152fd5b865162461bcd60e51b81526020818d0152601c818701527f56657374696e675661756c743a206e6f7420617574686f72697a656400000000818c01528390fd5b507fdb9284895a7211bfd1c970298a1ed435786c5e0cd6ec4810e5f98b0ac05f46348c526001602052868c20338d5260205260ff878d20541661016f565b8280fd5b50503461012257602036600319011261012257602090610497610492610cba565b610df1565b9051908152f35b90503461046d576020928360031936011261059b576001600160a01b036104c3610cba565b168152600384528281209182549067ffffffffffffffff8211610588575060058451936104f5878460051b0186610d1d565b82855283528583208390878087015b85841061056a5750878787805b82518110156105615760606105268285610ddd565b510151421015610539575b600101610511565b9061055960019161055361054d8587610ddd565b51611101565b90610dd0565b919050610531565b84828551908152f35b600191859161057885610d71565b8152019201920191908890610504565b634e487b7160e01b835260419052602482fd5b80fd5b9190503461046d578060031936011261046d576105d991356105d460016105c3610cd5565b938387528160205286200154610f35565b61108a565b5080f35b839150346101225781600319360112610122576002825414610878576002825561060633610df1565b9182156108355783516370a0823160e01b815230838201527f00000000000000000000000000000000000000000000000000000000000000006001600160a01b038116959094916020919082816024818b5afa908115610793578591610804575b5083116107b0573384526003946003835281852097855b89548110156106e957806106946001928c610d3f565b508981015442106106e357826106b16106ac83610d71565b611101565b9101906106c082548092610dad565b806106d0575b5050505b0161067e565b6106d991610dd0565b90558b80806106c6565b506106ca565b508783518581019063a9059cbb60e01b8252336024820152876044820152604481526080810181811067ffffffffffffffff82111761079d57865251869289929083905af1156107935785513d61078a5750803b155b610776575050907f896e034966eaaf1adc54acc0f257056febbd300c9e47182cf761982cf1f5e43091519283523392a26001815580f35b6024925191635274afe760e01b8352820152fd5b6001141561073f565b82513d87823e3d90fd5b634e487b7160e01b8a526041865260248afd5b5162461bcd60e51b815280850191909152602860248201527f56657374696e675661756c743a20696e73756666696369656e74207661756c746044820152672062616c616e636560c01b6064820152608490fd5b90508281813d831161082e575b61081b8183610d1d565b8101031261082a575188610667565b8480fd5b503d610811565b835162461bcd60e51b8152602081840152601e60248201527f56657374696e675661756c743a206e6f7468696e6720746f20636c61696d00006044820152606490fd5b8251633ee5aeb560e01b8152fd5b83915034610122576020366003190112610122576108a2610cba565b828052600160205283832033845260205260ff8484205416156109c05760025460ff8160a01c16610973576001600160a01b03821692831561092557506001600160a81b0319168217600160a01b176002556108fd90610f79565b507fadff7df86b8dc467f3929512ab26ba6a6ecc855ad5d5eacbce8ba5b5ff9be0a78280a280f35b608490602087519162461bcd60e51b8352820152602260248201527f56657374696e675661756c743a207a65726f206d616e61676572206164647265604482015261737360f01b6064820152fd5b845162461bcd60e51b8152602081850152602160248201527f56657374696e675661756c743a20616c726561647920696e697469616c697a656044820152601960fa1b6064820152608490fd5b5090604492519163e2517d3f60e01b835233908301526024820152fd5b839150346101225782600319360112610122576109f8610cba565b9160243591845193610a0985610ceb565b82855282608060209682888201528289820152826060820152015260018060a01b0316908183526003855285832054841015610a8c5750610a5b6080938684610a619460a09996526003885220610d3f565b50610d71565b9080519382518552808301519085015280820151908401526060810151606084015201516080820152f35b855162461bcd60e51b8152908101859052601b60248201527f56657374696e675661756c743a20696e76616c696420696e64657800000000006044820152606490fd5b50503461012257816003193601126101225751908152602090f35b90503461046d578160031936011261046d578160209360ff92610b0b610cd5565b90358252600186528282206001600160a01b039091168252855220549151911615158152f35b50503461012257816003193601126101225760025490516001600160a01b039091168152602090f35b838334610122578060031936011261012257610b74610cd5565b90336001600160a01b03831603610b9157506105d991923561108a565b5163334bd91960e11b81528390fd5b9190503461046d578060031936011261046d576105d99135610bc560016105c3610cd5565b61100a565b90503461046d57602036600319011261046d57816020936001923581528285522001549051908152f35b505034610122578160031936011261012257602090517fdb9284895a7211bfd1c970298a1ed435786c5e0cd6ec4810e5f98b0ac05f46348152f35b5050346101225760203660031901126101225760209181906001600160a01b03610c57610cba565b1681526003845220549051908152f35b84913461046d57602036600319011261046d573563ffffffff60e01b811680910361046d5760209250637965db0b60e01b8114908115610ca9575b5015158152f35b6301ffc9a760e01b14905083610ca2565b600435906001600160a01b0382168203610cd057565b600080fd5b602435906001600160a01b0382168203610cd057565b60a0810190811067ffffffffffffffff821117610d0757604052565b634e487b7160e01b600052604160045260246000fd5b90601f8019910116810190811067ffffffffffffffff821117610d0757604052565b8054821015610d5b576000526005602060002091020190600090565b634e487b7160e01b600052603260045260246000fd5b90604051610d7e81610ceb565b608060048294805484526001810154602085015260028101546040850152600381015460608501520154910152565b91908203918211610dba57565b634e487b7160e01b600052601160045260246000fd5b91908201809211610dba57565b8051821015610d5b5760209160051b010190565b60009060018060a01b031681526020600381526040906040832092835467ffffffffffffffff8111610f2157600560405195610e32858460051b0188610d1d565b82875283528383208390858089015b858410610f0357505050505050809481955b8551871015610efa57610e668787610ddd565b5160608101514210610eef57610e7b81611101565b9080518211610ea05791610553610e989287600195015190610dad565b960195610e53565b865162461bcd60e51b815260048101879052602260248201527f56657374696e675661756c743a2063616c63756c6174696f6e206f766572666c6044820152616f7760f01b6064820152608490fd5b505094509250505090565b95509350505050565b6001918591610f1185610d71565b8152019201920191908690610e41565b634e487b7160e01b82526041600452602482fd5b80600052600160205260406000203360005260205260ff6040600020541615610f5b5750565b6044906040519063e2517d3f60e01b82523360048301526024820152fd5b6001600160a01b031660008181527fa6eef7e35abe7026729641147f7915573c7e97b47efa546f5f6e3230263bcb49602052604081205490919060ff166110065781805260016020526040822081835260205260408220600160ff1982541617905533917f2f8788117e7eff1d82e926ec794901d17c78024a50270940304540a733656f0d8180a4600190565b5090565b906000918083526001602052604083209160018060a01b03169182845260205260ff604084205416156000146110855780835260016020526040832082845260205260408320600160ff198254161790557f2f8788117e7eff1d82e926ec794901d17c78024a50270940304540a733656f0d339380a4600190565b505090565b906000918083526001602052604083209160018060a01b03169182845260205260ff604084205416600014611085578083526001602052604083208284526020526040832060ff1981541690557ff6391f5c32d9c69d2a47ea670b442974b53935d1edc7fd64eb21e047a839171b339380a4600190565b6060810151421061116d57608081015190814210156111675761113561112d6040830193845190610dad565b925142610dad565b9051818102918183041490151715610dba578115611151570490565b634e487b7160e01b600052601260045260246000fd5b90505190565b5060009056fea264697066735822122023be9bceac92dbb1edef75352918061f143af931ada6d17622a1b5b2f4505d5c64736f6c63430008180033","opcodes":"PUSH1 0xA0 CALLVALUE PUSH2 0xCB JUMPI PUSH1 0x1F PUSH2 0x1321 CODESIZE DUP2 SWAP1 SUB SWAP2 DUP3 ADD PUSH1 0x1F NOT AND DUP4 ADD SWAP2 PUSH1 0x1 PUSH1 0x1 PUSH1 0x40 SHL SUB DUP4 GT DUP5 DUP5 LT OR PUSH2 0xD0 JUMPI DUP1 DUP5 SWAP3 PUSH1 0x20 SWAP5 PUSH1 0x40 MSTORE DUP4 CODECOPY DUP2 ADD SUB SLT PUSH2 0xCB JUMPI MLOAD PUSH1 0x1 PUSH1 0x1 PUSH1 0xA0 SHL SUB DUP2 AND SWAP1 DUP2 SWAP1 SUB PUSH2 0xCB JUMPI PUSH1 0x1 PUSH1 0x0 SSTORE DUP1 ISZERO PUSH2 0x87 JUMPI PUSH1 0x80 MSTORE PUSH2 0x68 CALLER PUSH2 0xE6 JUMP JUMPDEST POP PUSH1 0x40 MLOAD PUSH2 0x11A9 SWAP1 DUP2 PUSH2 0x178 DUP3 CODECOPY PUSH1 0x80 MLOAD DUP2 DUP2 DUP2 PUSH1 0xF3 ADD MSTORE PUSH2 0x620 ADD MSTORE RETURN JUMPDEST PUSH1 0x64 PUSH1 0x40 MLOAD PUSH3 0x461BCD PUSH1 0xE5 SHL DUP2 MSTORE PUSH1 0x20 PUSH1 0x4 DUP3 ADD MSTORE PUSH1 0x20 PUSH1 0x24 DUP3 ADD MSTORE PUSH32 0x56657374696E675661756C743A207A65726F20746F6B656E2061646472657373 PUSH1 0x44 DUP3 ADD MSTORE REVERT JUMPDEST PUSH1 0x0 DUP1 REVERT JUMPDEST PUSH4 0x4E487B71 PUSH1 0xE0 SHL PUSH1 0x0 MSTORE PUSH1 0x41 PUSH1 0x4 MSTORE PUSH1 0x24 PUSH1 0x0 REVERT JUMPDEST PUSH1 0x1 PUSH1 0x1 PUSH1 0xA0 SHL SUB AND PUSH1 0x0 DUP2 DUP2 MSTORE PUSH32 0xA6EEF7E35ABE7026729641147F7915573C7E97B47EFA546F5F6E3230263BCB49 PUSH1 0x20 MSTORE PUSH1 0x40 DUP2 KECCAK256 SLOAD SWAP1 SWAP2 SWAP1 PUSH1 0xFF AND PUSH2 0x173 JUMPI DUP2 DUP1 MSTORE PUSH1 0x1 PUSH1 0x20 MSTORE PUSH1 0x40 DUP3 KECCAK256 DUP2 DUP4 MSTORE PUSH1 0x20 MSTORE PUSH1 0x40 DUP3 KECCAK256 PUSH1 0x1 PUSH1 0xFF NOT DUP3 SLOAD AND OR SWAP1 SSTORE CALLER SWAP2 PUSH32 0x2F8788117E7EFF1D82E926EC794901D17C78024A50270940304540A733656F0D DUP2 DUP1 LOG4 PUSH1 0x1 SWAP1 JUMP JUMPDEST POP SWAP1 JUMP INVALID PUSH1 0x80 PUSH1 0x40 DUP2 DUP2 MSTORE PUSH1 0x4 SWAP2 DUP3 CALLDATASIZE LT ISZERO PUSH2 0x16 JUMPI PUSH1 0x0 DUP1 REVERT JUMPDEST PUSH1 0x0 SWAP3 DUP4 CALLDATALOAD PUSH1 0xE0 SHR SWAP2 DUP3 PUSH4 0x1FFC9A7 EQ PUSH2 0xC67 JUMPI POP DUP2 PUSH4 0x7D0D916 EQ PUSH2 0xC2F JUMPI DUP2 PUSH4 0xB90FCA1 EQ PUSH2 0xBF4 JUMPI DUP2 PUSH4 0x248A9CA3 EQ PUSH2 0xBCA JUMPI DUP2 PUSH4 0x2F2FF15D EQ PUSH2 0xBA0 JUMPI DUP2 PUSH4 0x36568ABE EQ PUSH2 0xB5A JUMPI DUP2 PUSH4 0x746E60B5 EQ PUSH2 0xB31 JUMPI DUP2 PUSH4 0x91D14854 EQ PUSH2 0xAEA JUMPI DUP2 PUSH4 0xA217FDDF EQ PUSH2 0xACF JUMPI DUP2 PUSH4 0xBED9757E EQ PUSH2 0x9DD JUMPI DUP2 PUSH4 0xC4D66DE8 EQ PUSH2 0x886 JUMPI DUP2 PUSH4 0xD01C44CD EQ PUSH2 0x5DD JUMPI DUP2 PUSH4 0xD547741F EQ PUSH2 0x59E JUMPI DUP2 PUSH4 0xD5A73FDD EQ PUSH2 0x49E JUMPI DUP2 PUSH4 0xE12F3A61 EQ PUSH2 0x471 JUMPI DUP2 PUSH4 0xEAB23ABE EQ PUSH2 0x126 JUMPI POP PUSH4 0xFC0C546A EQ PUSH2 0xE0 JUMPI PUSH1 0x0 DUP1 REVERT JUMPDEST CALLVALUE PUSH2 0x122 JUMPI DUP2 PUSH1 0x3 NOT CALLDATASIZE ADD SLT PUSH2 0x122 JUMPI MLOAD PUSH32 0x0 PUSH1 0x1 PUSH1 0x1 PUSH1 0xA0 SHL SUB AND DUP2 MSTORE PUSH1 0x20 SWAP1 RETURN JUMPDEST POP DUP1 REVERT JUMPDEST SWAP2 SWAP1 POP CALLVALUE PUSH2 0x46D JUMPI PUSH1 0xA0 CALLDATASIZE PUSH1 0x3 NOT ADD SLT PUSH2 0x46D JUMPI PUSH2 0x142 PUSH2 0xCBA JUMP JUMPDEST PUSH1 0x2 SLOAD PUSH1 0x44 SWAP3 PUSH1 0x24 DUP1 CALLDATALOAD SWAP4 PUSH1 0x84 CALLDATALOAD SWAP4 PUSH1 0x64 DUP1 CALLDATALOAD SWAP4 SWAP3 DUP9 CALLDATALOAD SWAP3 PUSH1 0x1 PUSH1 0x1 PUSH1 0xA0 SHL SUB SWAP2 SWAP1 DUP3 AND CALLER EQ DUP1 ISZERO PUSH2 0x42F JUMPI JUMPDEST ISZERO PUSH2 0x3EF JUMPI AND SWAP8 DUP9 ISZERO PUSH2 0x3B0 JUMPI DUP8 ISZERO PUSH2 0x371 JUMPI DUP5 ISZERO PUSH2 0x332 JUMPI DUP5 DUP4 GT PUSH2 0x2F3 JUMPI TIMESTAMP DUP8 LT PUSH2 0x2B5 JUMPI POP POP PUSH2 0x1A5 PUSH2 0x1AC SWAP2 DUP7 PUSH2 0xDD0 JUMP JUMPDEST SWAP3 DUP6 PUSH2 0xDD0 JUMP JUMPDEST SWAP4 DUP4 MLOAD SWAP1 PUSH2 0x1B9 DUP3 PUSH2 0xCEB JUMP JUMPDEST DUP7 DUP3 MSTORE PUSH1 0x20 DUP3 ADD SWAP1 DUP11 DUP3 MSTORE DUP6 DUP4 ADD SWAP1 DUP2 MSTORE PUSH1 0x60 DUP4 ADD SWAP1 DUP6 DUP3 MSTORE PUSH1 0x80 DUP5 ADD SWAP3 DUP9 DUP5 MSTORE DUP11 DUP14 MSTORE PUSH1 0x3 PUSH1 0x20 MSTORE DUP8 DUP14 KECCAK256 DUP1 SLOAD SWAP1 PUSH9 0x10000000000000000 DUP3 LT ISZERO PUSH2 0x2A2 JUMPI SWAP1 PUSH2 0x209 SWAP2 PUSH1 0x1 DUP3 ADD DUP2 SSTORE PUSH2 0xD3F JUMP JUMPDEST SWAP6 SWAP1 SWAP6 PUSH2 0x291 JUMPI SWAP1 DUP13 SWAP5 SWAP4 SWAP3 SWAP2 MLOAD DUP7 SSTORE MLOAD PUSH1 0x1 DUP7 ADD SSTORE MLOAD PUSH1 0x2 DUP6 ADD SSTORE MLOAD PUSH1 0x3 DUP5 ADD SSTORE MLOAD SWAP2 ADD SSTORE DUP6 DUP9 MSTORE PUSH1 0x3 PUSH1 0x20 MSTORE DUP3 DUP9 KECCAK256 SLOAD SWAP7 PUSH1 0x0 NOT DUP9 ADD SWAP8 DUP9 GT PUSH2 0x280 JUMPI POP POP DUP2 MLOAD SWAP4 DUP5 MSTORE PUSH1 0x20 DUP5 ADD MSTORE DUP3 ADD MSTORE PUSH32 0xEF11FD80FFF9CB633BEABEAB03E30CD8C01B8F7F20493F9644FC85B9CD5BC78 SWAP1 PUSH1 0x60 SWAP1 LOG3 DUP1 RETURN JUMPDEST PUSH4 0x4E487B71 PUSH1 0xE0 SHL DUP10 MSTORE PUSH1 0x11 SWAP1 MSTORE DUP8 REVERT JUMPDEST PUSH4 0x4E487B71 PUSH1 0xE0 SHL DUP15 MSTORE DUP14 DUP14 MSTORE DUP7 DUP15 REVERT JUMPDEST POP PUSH4 0x4E487B71 PUSH1 0xE0 SHL DUP15 MSTORE PUSH1 0x41 DUP14 MSTORE DUP7 DUP15 REVERT JUMPDEST PUSH32 0x56657374696E675661756C743A20696E76616C69642073746172742074696D65 DUP11 SWAP2 PUSH1 0x20 DUP7 DUP2 DUP11 MLOAD SWAP6 PUSH3 0x461BCD PUSH1 0xE5 SHL DUP8 MSTORE DUP7 ADD MSTORE DUP5 ADD MSTORE DUP3 ADD MSTORE REVERT JUMPDEST PUSH32 0x56657374696E675661756C743A20636C696666203E206475726174696F6E0000 DUP11 SWAP2 PUSH1 0x1E DUP7 PUSH1 0x20 DUP11 MLOAD SWAP6 PUSH3 0x461BCD PUSH1 0xE5 SHL DUP8 MSTORE DUP7 ADD MSTORE DUP5 ADD MSTORE DUP3 ADD MSTORE REVERT JUMPDEST PUSH32 0x56657374696E675661756C743A207A65726F206475726174696F6E0000000000 DUP11 SWAP2 PUSH1 0x1B DUP7 PUSH1 0x20 DUP11 MLOAD SWAP6 PUSH3 0x461BCD PUSH1 0xE5 SHL DUP8 MSTORE DUP7 ADD MSTORE DUP5 ADD MSTORE DUP3 ADD MSTORE REVERT JUMPDEST PUSH32 0x56657374696E675661756C743A207A65726F20616D6F756E7400000000000000 DUP11 SWAP2 PUSH1 0x19 DUP7 PUSH1 0x20 DUP11 MLOAD SWAP6 PUSH3 0x461BCD PUSH1 0xE5 SHL DUP8 MSTORE DUP7 ADD MSTORE DUP5 ADD MSTORE DUP3 ADD MSTORE REVERT JUMPDEST PUSH32 0x56657374696E675661756C743A207A65726F2061646472657373000000000000 DUP11 SWAP2 PUSH1 0x1A DUP7 PUSH1 0x20 DUP11 MLOAD SWAP6 PUSH3 0x461BCD PUSH1 0xE5 SHL DUP8 MSTORE DUP7 ADD MSTORE DUP5 ADD MSTORE DUP3 ADD MSTORE REVERT JUMPDEST DUP7 MLOAD PUSH3 0x461BCD PUSH1 0xE5 SHL DUP2 MSTORE PUSH1 0x20 DUP2 DUP14 ADD MSTORE PUSH1 0x1C DUP2 DUP8 ADD MSTORE PUSH32 0x56657374696E675661756C743A206E6F7420617574686F72697A656400000000 DUP2 DUP13 ADD MSTORE DUP4 SWAP1 REVERT JUMPDEST POP PUSH32 0xDB9284895A7211BFD1C970298A1ED435786C5E0CD6EC4810E5F98B0AC05F4634 DUP13 MSTORE PUSH1 0x1 PUSH1 0x20 MSTORE DUP7 DUP13 KECCAK256 CALLER DUP14 MSTORE PUSH1 0x20 MSTORE PUSH1 0xFF DUP8 DUP14 KECCAK256 SLOAD AND PUSH2 0x16F JUMP JUMPDEST DUP3 DUP1 REVERT JUMPDEST POP POP CALLVALUE PUSH2 0x122 JUMPI PUSH1 0x20 CALLDATASIZE PUSH1 0x3 NOT ADD SLT PUSH2 0x122 JUMPI PUSH1 0x20 SWAP1 PUSH2 0x497 PUSH2 0x492 PUSH2 0xCBA JUMP JUMPDEST PUSH2 0xDF1 JUMP JUMPDEST SWAP1 MLOAD SWAP1 DUP2 MSTORE RETURN JUMPDEST SWAP1 POP CALLVALUE PUSH2 0x46D JUMPI PUSH1 0x20 SWAP3 DUP4 PUSH1 0x3 NOT CALLDATASIZE ADD SLT PUSH2 0x59B JUMPI PUSH1 0x1 PUSH1 0x1 PUSH1 0xA0 SHL SUB PUSH2 0x4C3 PUSH2 0xCBA JUMP JUMPDEST AND DUP2 MSTORE PUSH1 0x3 DUP5 MSTORE DUP3 DUP2 KECCAK256 SWAP2 DUP3 SLOAD SWAP1 PUSH8 0xFFFFFFFFFFFFFFFF DUP3 GT PUSH2 0x588 JUMPI POP PUSH1 0x5 DUP5 MLOAD SWAP4 PUSH2 0x4F5 DUP8 DUP5 PUSH1 0x5 SHL ADD DUP7 PUSH2 0xD1D JUMP JUMPDEST DUP3 DUP6 MSTORE DUP4 MSTORE DUP6 DUP4 KECCAK256 DUP4 SWAP1 DUP8 DUP1 DUP8 ADD JUMPDEST DUP6 DUP5 LT PUSH2 0x56A JUMPI POP DUP8 DUP8 DUP8 DUP1 JUMPDEST DUP3 MLOAD DUP2 LT ISZERO PUSH2 0x561 JUMPI PUSH1 0x60 PUSH2 0x526 DUP3 DUP6 PUSH2 0xDDD JUMP JUMPDEST MLOAD ADD MLOAD TIMESTAMP LT ISZERO PUSH2 0x539 JUMPI JUMPDEST PUSH1 0x1 ADD PUSH2 0x511 JUMP JUMPDEST SWAP1 PUSH2 0x559 PUSH1 0x1 SWAP2 PUSH2 0x553 PUSH2 0x54D DUP6 DUP8 PUSH2 0xDDD JUMP JUMPDEST MLOAD PUSH2 0x1101 JUMP JUMPDEST SWAP1 PUSH2 0xDD0 JUMP JUMPDEST SWAP2 SWAP1 POP PUSH2 0x531 JUMP JUMPDEST DUP5 DUP3 DUP6 MLOAD SWAP1 DUP2 MSTORE RETURN JUMPDEST PUSH1 0x1 SWAP2 DUP6 SWAP2 PUSH2 0x578 DUP6 PUSH2 0xD71 JUMP JUMPDEST DUP2 MSTORE ADD SWAP3 ADD SWAP3 ADD SWAP2 SWAP1 DUP9 SWAP1 PUSH2 0x504 JUMP JUMPDEST PUSH4 0x4E487B71 PUSH1 0xE0 SHL DUP4 MSTORE PUSH1 0x41 SWAP1 MSTORE PUSH1 0x24 DUP3 REVERT JUMPDEST DUP1 REVERT JUMPDEST SWAP2 SWAP1 POP CALLVALUE PUSH2 0x46D JUMPI DUP1 PUSH1 0x3 NOT CALLDATASIZE ADD SLT PUSH2 0x46D JUMPI PUSH2 0x5D9 SWAP2 CALLDATALOAD PUSH2 0x5D4 PUSH1 0x1 PUSH2 0x5C3 PUSH2 0xCD5 JUMP JUMPDEST SWAP4 DUP4 DUP8 MSTORE DUP2 PUSH1 0x20 MSTORE DUP7 KECCAK256 ADD SLOAD PUSH2 0xF35 JUMP JUMPDEST PUSH2 0x108A JUMP JUMPDEST POP DUP1 RETURN JUMPDEST DUP4 SWAP2 POP CALLVALUE PUSH2 0x122 JUMPI DUP2 PUSH1 0x3 NOT CALLDATASIZE ADD SLT PUSH2 0x122 JUMPI PUSH1 0x2 DUP3 SLOAD EQ PUSH2 0x878 JUMPI PUSH1 0x2 DUP3 SSTORE PUSH2 0x606 CALLER PUSH2 0xDF1 JUMP JUMPDEST SWAP2 DUP3 ISZERO PUSH2 0x835 JUMPI DUP4 MLOAD PUSH4 0x70A08231 PUSH1 0xE0 SHL DUP2 MSTORE ADDRESS DUP4 DUP3 ADD MSTORE PUSH32 0x0 PUSH1 0x1 PUSH1 0x1 PUSH1 0xA0 SHL SUB DUP2 AND SWAP6 SWAP1 SWAP5 SWAP2 PUSH1 0x20 SWAP2 SWAP1 DUP3 DUP2 PUSH1 0x24 DUP2 DUP12 GAS STATICCALL SWAP1 DUP2 ISZERO PUSH2 0x793 JUMPI DUP6 SWAP2 PUSH2 0x804 JUMPI JUMPDEST POP DUP4 GT PUSH2 0x7B0 JUMPI CALLER DUP5 MSTORE PUSH1 0x3 SWAP5 PUSH1 0x3 DUP4 MSTORE DUP2 DUP6 KECCAK256 SWAP8 DUP6 JUMPDEST DUP10 SLOAD DUP2 LT ISZERO PUSH2 0x6E9 JUMPI DUP1 PUSH2 0x694 PUSH1 0x1 SWAP3 DUP13 PUSH2 0xD3F JUMP JUMPDEST POP DUP10 DUP2 ADD SLOAD TIMESTAMP LT PUSH2 0x6E3 JUMPI DUP3 PUSH2 0x6B1 PUSH2 0x6AC DUP4 PUSH2 0xD71 JUMP JUMPDEST PUSH2 0x1101 JUMP JUMPDEST SWAP2 ADD SWAP1 PUSH2 0x6C0 DUP3 SLOAD DUP1 SWAP3 PUSH2 0xDAD JUMP JUMPDEST DUP1 PUSH2 0x6D0 JUMPI JUMPDEST POP POP POP JUMPDEST ADD PUSH2 0x67E JUMP JUMPDEST PUSH2 0x6D9 SWAP2 PUSH2 0xDD0 JUMP JUMPDEST SWAP1 SSTORE DUP12 DUP1 DUP1 PUSH2 0x6C6 JUMP JUMPDEST POP PUSH2 0x6CA JUMP JUMPDEST POP DUP8 DUP4 MLOAD DUP6 DUP2 ADD SWAP1 PUSH4 0xA9059CBB PUSH1 0xE0 SHL DUP3 MSTORE CALLER PUSH1 0x24 DUP3 ADD MSTORE DUP8 PUSH1 0x44 DUP3 ADD MSTORE PUSH1 0x44 DUP2 MSTORE PUSH1 0x80 DUP2 ADD DUP2 DUP2 LT PUSH8 0xFFFFFFFFFFFFFFFF DUP3 GT OR PUSH2 0x79D JUMPI DUP7 MSTORE MLOAD DUP7 SWAP3 DUP10 SWAP3 SWAP1 DUP4 SWAP1 GAS CALL ISZERO PUSH2 0x793 JUMPI DUP6 MLOAD RETURNDATASIZE PUSH2 0x78A JUMPI POP DUP1 EXTCODESIZE ISZERO JUMPDEST PUSH2 0x776 JUMPI POP POP SWAP1 PUSH32 0x896E034966EAAF1ADC54ACC0F257056FEBBD300C9E47182CF761982CF1F5E430 SWAP2 MLOAD SWAP3 DUP4 MSTORE CALLER SWAP3 LOG2 PUSH1 0x1 DUP2 SSTORE DUP1 RETURN JUMPDEST PUSH1 0x24 SWAP3 MLOAD SWAP2 PUSH4 0x5274AFE7 PUSH1 0xE0 SHL DUP4 MSTORE DUP3 ADD MSTORE REVERT JUMPDEST PUSH1 0x1 EQ ISZERO PUSH2 0x73F JUMP JUMPDEST DUP3 MLOAD RETURNDATASIZE DUP8 DUP3 RETURNDATACOPY RETURNDATASIZE SWAP1 REVERT JUMPDEST PUSH4 0x4E487B71 PUSH1 0xE0 SHL DUP11 MSTORE PUSH1 0x41 DUP7 MSTORE PUSH1 0x24 DUP11 REVERT JUMPDEST MLOAD PUSH3 0x461BCD PUSH1 0xE5 SHL DUP2 MSTORE DUP1 DUP6 ADD SWAP2 SWAP1 SWAP2 MSTORE PUSH1 0x28 PUSH1 0x24 DUP3 ADD MSTORE PUSH32 0x56657374696E675661756C743A20696E73756666696369656E74207661756C74 PUSH1 0x44 DUP3 ADD MSTORE PUSH8 0x2062616C616E6365 PUSH1 0xC0 SHL PUSH1 0x64 DUP3 ADD MSTORE PUSH1 0x84 SWAP1 REVERT JUMPDEST SWAP1 POP DUP3 DUP2 DUP2 RETURNDATASIZE DUP4 GT PUSH2 0x82E JUMPI JUMPDEST PUSH2 0x81B DUP2 DUP4 PUSH2 0xD1D JUMP JUMPDEST DUP2 ADD SUB SLT PUSH2 0x82A JUMPI MLOAD DUP9 PUSH2 0x667 JUMP JUMPDEST DUP5 DUP1 REVERT JUMPDEST POP RETURNDATASIZE PUSH2 0x811 JUMP JUMPDEST DUP4 MLOAD PUSH3 0x461BCD PUSH1 0xE5 SHL DUP2 MSTORE PUSH1 0x20 DUP2 DUP5 ADD MSTORE PUSH1 0x1E PUSH1 0x24 DUP3 ADD MSTORE PUSH32 0x56657374696E675661756C743A206E6F7468696E6720746F20636C61696D0000 PUSH1 0x44 DUP3 ADD MSTORE PUSH1 0x64 SWAP1 REVERT JUMPDEST DUP3 MLOAD PUSH4 0x3EE5AEB5 PUSH1 0xE0 SHL DUP2 MSTORE REVERT JUMPDEST DUP4 SWAP2 POP CALLVALUE PUSH2 0x122 JUMPI PUSH1 0x20 CALLDATASIZE PUSH1 0x3 NOT ADD SLT PUSH2 0x122 JUMPI PUSH2 0x8A2 PUSH2 0xCBA JUMP JUMPDEST DUP3 DUP1 MSTORE PUSH1 0x1 PUSH1 0x20 MSTORE DUP4 DUP4 KECCAK256 CALLER DUP5 MSTORE PUSH1 0x20 MSTORE PUSH1 0xFF DUP5 DUP5 KECCAK256 SLOAD AND ISZERO PUSH2 0x9C0 JUMPI PUSH1 0x2 SLOAD PUSH1 0xFF DUP2 PUSH1 0xA0 SHR AND PUSH2 0x973 JUMPI PUSH1 0x1 PUSH1 0x1 PUSH1 0xA0 SHL SUB DUP3 AND SWAP3 DUP4 ISZERO PUSH2 0x925 JUMPI POP PUSH1 0x1 PUSH1 0x1 PUSH1 0xA8 SHL SUB NOT AND DUP3 OR PUSH1 0x1 PUSH1 0xA0 SHL OR PUSH1 0x2 SSTORE PUSH2 0x8FD SWAP1 PUSH2 0xF79 JUMP JUMPDEST POP PUSH32 0xADFF7DF86B8DC467F3929512AB26BA6A6ECC855AD5D5EACBCE8BA5B5FF9BE0A7 DUP3 DUP1 LOG2 DUP1 RETURN JUMPDEST PUSH1 0x84 SWAP1 PUSH1 0x20 DUP8 MLOAD SWAP2 PUSH3 0x461BCD PUSH1 0xE5 SHL DUP4 MSTORE DUP3 ADD MSTORE PUSH1 0x22 PUSH1 0x24 DUP3 ADD MSTORE PUSH32 0x56657374696E675661756C743A207A65726F206D616E61676572206164647265 PUSH1 0x44 DUP3 ADD MSTORE PUSH2 0x7373 PUSH1 0xF0 SHL PUSH1 0x64 DUP3 ADD MSTORE REVERT JUMPDEST DUP5 MLOAD PUSH3 0x461BCD PUSH1 0xE5 SHL DUP2 MSTORE PUSH1 0x20 DUP2 DUP6 ADD MSTORE PUSH1 0x21 PUSH1 0x24 DUP3 ADD MSTORE PUSH32 0x56657374696E675661756C743A20616C726561647920696E697469616C697A65 PUSH1 0x44 DUP3 ADD MSTORE PUSH1 0x19 PUSH1 0xFA SHL PUSH1 0x64 DUP3 ADD MSTORE PUSH1 0x84 SWAP1 REVERT JUMPDEST POP SWAP1 PUSH1 0x44 SWAP3 MLOAD SWAP2 PUSH4 0xE2517D3F PUSH1 0xE0 SHL DUP4 MSTORE CALLER SWAP1 DUP4 ADD MSTORE PUSH1 0x24 DUP3 ADD MSTORE REVERT JUMPDEST DUP4 SWAP2 POP CALLVALUE PUSH2 0x122 JUMPI DUP3 PUSH1 0x3 NOT CALLDATASIZE ADD SLT PUSH2 0x122 JUMPI PUSH2 0x9F8 PUSH2 0xCBA JUMP JUMPDEST SWAP2 PUSH1 0x24 CALLDATALOAD SWAP2 DUP5 MLOAD SWAP4 PUSH2 0xA09 DUP6 PUSH2 0xCEB JUMP JUMPDEST DUP3 DUP6 MSTORE DUP3 PUSH1 0x80 PUSH1 0x20 SWAP7 DUP3 DUP9 DUP3 ADD MSTORE DUP3 DUP10 DUP3 ADD MSTORE DUP3 PUSH1 0x60 DUP3 ADD MSTORE ADD MSTORE PUSH1 0x1 DUP1 PUSH1 0xA0 SHL SUB AND SWAP1 DUP2 DUP4 MSTORE PUSH1 0x3 DUP6 MSTORE DUP6 DUP4 KECCAK256 SLOAD DUP5 LT ISZERO PUSH2 0xA8C JUMPI POP PUSH2 0xA5B PUSH1 0x80 SWAP4 DUP7 DUP5 PUSH2 0xA61 SWAP5 PUSH1 0xA0 SWAP10 SWAP7 MSTORE PUSH1 0x3 DUP9 MSTORE KECCAK256 PUSH2 0xD3F JUMP JUMPDEST POP PUSH2 0xD71 JUMP JUMPDEST SWAP1 DUP1 MLOAD SWAP4 DUP3 MLOAD DUP6 MSTORE DUP1 DUP4 ADD MLOAD SWAP1 DUP6 ADD MSTORE DUP1 DUP3 ADD MLOAD SWAP1 DUP5 ADD MSTORE PUSH1 0x60 DUP2 ADD MLOAD PUSH1 0x60 DUP5 ADD MSTORE ADD MLOAD PUSH1 0x80 DUP3 ADD MSTORE RETURN JUMPDEST DUP6 MLOAD PUSH3 0x461BCD PUSH1 0xE5 SHL DUP2 MSTORE SWAP1 DUP2 ADD DUP6 SWAP1 MSTORE PUSH1 0x1B PUSH1 0x24 DUP3 ADD MSTORE PUSH32 0x56657374696E675661756C743A20696E76616C696420696E6465780000000000 PUSH1 0x44 DUP3 ADD MSTORE PUSH1 0x64 SWAP1 REVERT JUMPDEST POP POP CALLVALUE PUSH2 0x122 JUMPI DUP2 PUSH1 0x3 NOT CALLDATASIZE ADD SLT PUSH2 0x122 JUMPI MLOAD SWAP1 DUP2 MSTORE PUSH1 0x20 SWAP1 RETURN JUMPDEST SWAP1 POP CALLVALUE PUSH2 0x46D JUMPI DUP2 PUSH1 0x3 NOT CALLDATASIZE ADD SLT PUSH2 0x46D JUMPI DUP2 PUSH1 0x20 SWAP4 PUSH1 0xFF SWAP3 PUSH2 0xB0B PUSH2 0xCD5 JUMP JUMPDEST SWAP1 CALLDATALOAD DUP3 MSTORE PUSH1 0x1 DUP7 MSTORE DUP3 DUP3 KECCAK256 PUSH1 0x1 PUSH1 0x1 PUSH1 0xA0 SHL SUB SWAP1 SWAP2 AND DUP3 MSTORE DUP6 MSTORE KECCAK256 SLOAD SWAP2 MLOAD SWAP2 AND ISZERO ISZERO DUP2 MSTORE RETURN JUMPDEST POP POP CALLVALUE PUSH2 0x122 JUMPI DUP2 PUSH1 0x3 NOT CALLDATASIZE ADD SLT PUSH2 0x122 JUMPI PUSH1 0x2 SLOAD SWAP1 MLOAD PUSH1 0x1 PUSH1 0x1 PUSH1 0xA0 SHL SUB SWAP1 SWAP2 AND DUP2 MSTORE PUSH1 0x20 SWAP1 RETURN JUMPDEST DUP4 DUP4 CALLVALUE PUSH2 0x122 JUMPI DUP1 PUSH1 0x3 NOT CALLDATASIZE ADD SLT PUSH2 0x122 JUMPI PUSH2 0xB74 PUSH2 0xCD5 JUMP JUMPDEST SWAP1 CALLER PUSH1 0x1 PUSH1 0x1 PUSH1 0xA0 SHL SUB DUP4 AND SUB PUSH2 0xB91 JUMPI POP PUSH2 0x5D9 SWAP2 SWAP3 CALLDATALOAD PUSH2 0x108A JUMP JUMPDEST MLOAD PUSH4 0x334BD919 PUSH1 0xE1 SHL DUP2 MSTORE DUP4 SWAP1 REVERT JUMPDEST SWAP2 SWAP1 POP CALLVALUE PUSH2 0x46D JUMPI DUP1 PUSH1 0x3 NOT CALLDATASIZE ADD SLT PUSH2 0x46D JUMPI PUSH2 0x5D9 SWAP2 CALLDATALOAD PUSH2 0xBC5 PUSH1 0x1 PUSH2 0x5C3 PUSH2 0xCD5 JUMP JUMPDEST PUSH2 0x100A JUMP JUMPDEST SWAP1 POP CALLVALUE PUSH2 0x46D JUMPI PUSH1 0x20 CALLDATASIZE PUSH1 0x3 NOT ADD SLT PUSH2 0x46D JUMPI DUP2 PUSH1 0x20 SWAP4 PUSH1 0x1 SWAP3 CALLDATALOAD DUP2 MSTORE DUP3 DUP6 MSTORE KECCAK256 ADD SLOAD SWAP1 MLOAD SWAP1 DUP2 MSTORE RETURN JUMPDEST POP POP CALLVALUE PUSH2 0x122 JUMPI DUP2 PUSH1 0x3 NOT CALLDATASIZE ADD SLT PUSH2 0x122 JUMPI PUSH1 0x20 SWAP1 MLOAD PUSH32 0xDB9284895A7211BFD1C970298A1ED435786C5E0CD6EC4810E5F98B0AC05F4634 DUP2 MSTORE RETURN JUMPDEST POP POP CALLVALUE PUSH2 0x122 JUMPI PUSH1 0x20 CALLDATASIZE PUSH1 0x3 NOT ADD SLT PUSH2 0x122 JUMPI PUSH1 0x20 SWAP2 DUP2 SWAP1 PUSH1 0x1 PUSH1 0x1 PUSH1 0xA0 SHL SUB PUSH2 0xC57 PUSH2 0xCBA JUMP JUMPDEST AND DUP2 MSTORE PUSH1 0x3 DUP5 MSTORE KECCAK256 SLOAD SWAP1 MLOAD SWAP1 DUP2 MSTORE RETURN JUMPDEST DUP5 SWAP2 CALLVALUE PUSH2 0x46D JUMPI PUSH1 0x20 CALLDATASIZE PUSH1 0x3 NOT ADD SLT PUSH2 0x46D JUMPI CALLDATALOAD PUSH4 0xFFFFFFFF PUSH1 0xE0 SHL DUP2 AND DUP1 SWAP2 SUB PUSH2 0x46D JUMPI PUSH1 0x20 SWAP3 POP PUSH4 0x7965DB0B PUSH1 0xE0 SHL DUP2 EQ SWAP1 DUP2 ISZERO PUSH2 0xCA9 JUMPI JUMPDEST POP ISZERO ISZERO DUP2 MSTORE RETURN JUMPDEST PUSH4 0x1FFC9A7 PUSH1 0xE0 SHL EQ SWAP1 POP DUP4 PUSH2 0xCA2 JUMP JUMPDEST PUSH1 0x4 CALLDATALOAD SWAP1 PUSH1 0x1 PUSH1 0x1 PUSH1 0xA0 SHL SUB DUP3 AND DUP3 SUB PUSH2 0xCD0 JUMPI JUMP JUMPDEST PUSH1 0x0 DUP1 REVERT JUMPDEST PUSH1 0x24 CALLDATALOAD SWAP1 PUSH1 0x1 PUSH1 0x1 PUSH1 0xA0 SHL SUB DUP3 AND DUP3 SUB PUSH2 0xCD0 JUMPI JUMP JUMPDEST PUSH1 0xA0 DUP2 ADD SWAP1 DUP2 LT PUSH8 0xFFFFFFFFFFFFFFFF DUP3 GT OR PUSH2 0xD07 JUMPI PUSH1 0x40 MSTORE JUMP JUMPDEST PUSH4 0x4E487B71 PUSH1 0xE0 SHL PUSH1 0x0 MSTORE PUSH1 0x41 PUSH1 0x4 MSTORE PUSH1 0x24 PUSH1 0x0 REVERT JUMPDEST SWAP1 PUSH1 0x1F DUP1 NOT SWAP2 ADD AND DUP2 ADD SWAP1 DUP2 LT PUSH8 0xFFFFFFFFFFFFFFFF DUP3 GT OR PUSH2 0xD07 JUMPI PUSH1 0x40 MSTORE JUMP JUMPDEST DUP1 SLOAD DUP3 LT ISZERO PUSH2 0xD5B JUMPI PUSH1 0x0 MSTORE PUSH1 0x5 PUSH1 0x20 PUSH1 0x0 KECCAK256 SWAP2 MUL ADD SWAP1 PUSH1 0x0 SWAP1 JUMP JUMPDEST PUSH4 0x4E487B71 PUSH1 0xE0 SHL PUSH1 0x0 MSTORE PUSH1 0x32 PUSH1 0x4 MSTORE PUSH1 0x24 PUSH1 0x0 REVERT JUMPDEST SWAP1 PUSH1 0x40 MLOAD PUSH2 0xD7E DUP2 PUSH2 0xCEB JUMP JUMPDEST PUSH1 0x80 PUSH1 0x4 DUP3 SWAP5 DUP1 SLOAD DUP5 MSTORE PUSH1 0x1 DUP2 ADD SLOAD PUSH1 0x20 DUP6 ADD MSTORE PUSH1 0x2 DUP2 ADD SLOAD PUSH1 0x40 DUP6 ADD MSTORE PUSH1 0x3 DUP2 ADD SLOAD PUSH1 0x60 DUP6 ADD MSTORE ADD SLOAD SWAP2 ADD MSTORE JUMP JUMPDEST SWAP2 SWAP1 DUP3 SUB SWAP2 DUP3 GT PUSH2 0xDBA JUMPI JUMP JUMPDEST PUSH4 0x4E487B71 PUSH1 0xE0 SHL PUSH1 0x0 MSTORE PUSH1 0x11 PUSH1 0x4 MSTORE PUSH1 0x24 PUSH1 0x0 REVERT JUMPDEST SWAP2 SWAP1 DUP3 ADD DUP1 SWAP3 GT PUSH2 0xDBA JUMPI JUMP JUMPDEST DUP1 MLOAD DUP3 LT ISZERO PUSH2 0xD5B JUMPI PUSH1 0x20 SWAP2 PUSH1 0x5 SHL ADD ADD SWAP1 JUMP JUMPDEST PUSH1 0x0 SWAP1 PUSH1 0x1 DUP1 PUSH1 0xA0 SHL SUB AND DUP2 MSTORE PUSH1 0x20 PUSH1 0x3 DUP2 MSTORE PUSH1 0x40 SWAP1 PUSH1 0x40 DUP4 KECCAK256 SWAP3 DUP4 SLOAD PUSH8 0xFFFFFFFFFFFFFFFF DUP2 GT PUSH2 0xF21 JUMPI PUSH1 0x5 PUSH1 0x40 MLOAD SWAP6 PUSH2 0xE32 DUP6 DUP5 PUSH1 0x5 SHL ADD DUP9 PUSH2 0xD1D JUMP JUMPDEST DUP3 DUP8 MSTORE DUP4 MSTORE DUP4 DUP4 KECCAK256 DUP4 SWAP1 DUP6 DUP1 DUP10 ADD JUMPDEST DUP6 DUP5 LT PUSH2 0xF03 JUMPI POP POP POP POP POP POP DUP1 SWAP5 DUP2 SWAP6 JUMPDEST DUP6 MLOAD DUP8 LT ISZERO PUSH2 0xEFA JUMPI PUSH2 0xE66 DUP8 DUP8 PUSH2 0xDDD JUMP JUMPDEST MLOAD PUSH1 0x60 DUP2 ADD MLOAD TIMESTAMP LT PUSH2 0xEEF JUMPI PUSH2 0xE7B DUP2 PUSH2 0x1101 JUMP JUMPDEST SWAP1 DUP1 MLOAD DUP3 GT PUSH2 0xEA0 JUMPI SWAP2 PUSH2 0x553 PUSH2 0xE98 SWAP3 DUP8 PUSH1 0x1 SWAP6 ADD MLOAD SWAP1 PUSH2 0xDAD JUMP JUMPDEST SWAP7 ADD SWAP6 PUSH2 0xE53 JUMP JUMPDEST DUP7 MLOAD PUSH3 0x461BCD PUSH1 0xE5 SHL DUP2 MSTORE PUSH1 0x4 DUP2 ADD DUP8 SWAP1 MSTORE PUSH1 0x22 PUSH1 0x24 DUP3 ADD MSTORE PUSH32 0x56657374696E675661756C743A2063616C63756C6174696F6E206F766572666C PUSH1 0x44 DUP3 ADD MSTORE PUSH2 0x6F77 PUSH1 0xF0 SHL PUSH1 0x64 DUP3 ADD MSTORE PUSH1 0x84 SWAP1 REVERT JUMPDEST POP POP SWAP5 POP SWAP3 POP POP POP SWAP1 JUMP JUMPDEST SWAP6 POP SWAP4 POP POP POP POP JUMP JUMPDEST PUSH1 0x1 SWAP2 DUP6 SWAP2 PUSH2 0xF11 DUP6 PUSH2 0xD71 JUMP JUMPDEST DUP2 MSTORE ADD SWAP3 ADD SWAP3 ADD SWAP2 SWAP1 DUP7 SWAP1 PUSH2 0xE41 JUMP JUMPDEST PUSH4 0x4E487B71 PUSH1 0xE0 SHL DUP3 MSTORE PUSH1 0x41 PUSH1 0x4 MSTORE PUSH1 0x24 DUP3 REVERT JUMPDEST DUP1 PUSH1 0x0 MSTORE PUSH1 0x1 PUSH1 0x20 MSTORE PUSH1 0x40 PUSH1 0x0 KECCAK256 CALLER PUSH1 0x0 MSTORE PUSH1 0x20 MSTORE PUSH1 0xFF PUSH1 0x40 PUSH1 0x0 KECCAK256 SLOAD AND ISZERO PUSH2 0xF5B JUMPI POP JUMP JUMPDEST PUSH1 0x44 SWAP1 PUSH1 0x40 MLOAD SWAP1 PUSH4 0xE2517D3F PUSH1 0xE0 SHL DUP3 MSTORE CALLER PUSH1 0x4 DUP4 ADD MSTORE PUSH1 0x24 DUP3 ADD MSTORE REVERT JUMPDEST PUSH1 0x1 PUSH1 0x1 PUSH1 0xA0 SHL SUB AND PUSH1 0x0 DUP2 DUP2 MSTORE PUSH32 0xA6EEF7E35ABE7026729641147F7915573C7E97B47EFA546F5F6E3230263BCB49 PUSH1 0x20 MSTORE PUSH1 0x40 DUP2 KECCAK256 SLOAD SWAP1 SWAP2 SWAP1 PUSH1 0xFF AND PUSH2 0x1006 JUMPI DUP2 DUP1 MSTORE PUSH1 0x1 PUSH1 0x20 MSTORE PUSH1 0x40 DUP3 KECCAK256 DUP2 DUP4 MSTORE PUSH1 0x20 MSTORE PUSH1 0x40 DUP3 KECCAK256 PUSH1 0x1 PUSH1 0xFF NOT DUP3 SLOAD AND OR SWAP1 SSTORE CALLER SWAP2 PUSH32 0x2F8788117E7EFF1D82E926EC794901D17C78024A50270940304540A733656F0D DUP2 DUP1 LOG4 PUSH1 0x1 SWAP1 JUMP JUMPDEST POP SWAP1 JUMP JUMPDEST SWAP1 PUSH1 0x0 SWAP2 DUP1 DUP4 MSTORE PUSH1 0x1 PUSH1 0x20 MSTORE PUSH1 0x40 DUP4 KECCAK256 SWAP2 PUSH1 0x1 DUP1 PUSH1 0xA0 SHL SUB AND SWAP2 DUP3 DUP5 MSTORE PUSH1 0x20 MSTORE PUSH1 0xFF PUSH1 0x40 DUP5 KECCAK256 SLOAD AND ISZERO PUSH1 0x0 EQ PUSH2 0x1085 JUMPI DUP1 DUP4 MSTORE PUSH1 0x1 PUSH1 0x20 MSTORE PUSH1 0x40 DUP4 KECCAK256 DUP3 DUP5 MSTORE PUSH1 0x20 MSTORE PUSH1 0x40 DUP4 KECCAK256 PUSH1 0x1 PUSH1 0xFF NOT DUP3 SLOAD AND OR SWAP1 SSTORE PUSH32 0x2F8788117E7EFF1D82E926EC794901D17C78024A50270940304540A733656F0D CALLER SWAP4 DUP1 LOG4 PUSH1 0x1 SWAP1 JUMP JUMPDEST POP POP SWAP1 JUMP JUMPDEST SWAP1 PUSH1 0x0 SWAP2 DUP1 DUP4 MSTORE PUSH1 0x1 PUSH1 0x20 MSTORE PUSH1 0x40 DUP4 KECCAK256 SWAP2 PUSH1 0x1 DUP1 PUSH1 0xA0 SHL SUB AND SWAP2 DUP3 DUP5 MSTORE PUSH1 0x20 MSTORE PUSH1 0xFF PUSH1 0x40 DUP5 KECCAK256 SLOAD AND PUSH1 0x0 EQ PUSH2 0x1085 JUMPI DUP1 DUP4 MSTORE PUSH1 0x1 PUSH1 0x20 MSTORE PUSH1 0x40 DUP4 KECCAK256 DUP3 DUP5 MSTORE PUSH1 0x20 MSTORE PUSH1 0x40 DUP4 KECCAK256 PUSH1 0xFF NOT DUP2 SLOAD AND SWAP1 SSTORE PUSH32 0xF6391F5C32D9C69D2A47EA670B442974B53935D1EDC7FD64EB21E047A839171B CALLER SWAP4 DUP1 LOG4 PUSH1 0x1 SWAP1 JUMP JUMPDEST PUSH1 0x60 DUP2 ADD MLOAD TIMESTAMP LT PUSH2 0x116D JUMPI PUSH1 0x80 DUP2 ADD MLOAD SWAP1 DUP2 TIMESTAMP LT ISZERO PUSH2 0x1167 JUMPI PUSH2 0x1135 PUSH2 0x112D PUSH1 0x40 DUP4 ADD SWAP4 DUP5 MLOAD SWAP1 PUSH2 0xDAD JUMP JUMPDEST SWAP3 MLOAD TIMESTAMP PUSH2 0xDAD JUMP JUMPDEST SWAP1 MLOAD DUP2 DUP2 MUL SWAP2 DUP2 DUP4 DIV EQ SWAP1 ISZERO OR ISZERO PUSH2 0xDBA JUMPI DUP2 ISZERO PUSH2 0x1151 JUMPI DIV SWAP1 JUMP JUMPDEST PUSH4 0x4E487B71 PUSH1 0xE0 SHL PUSH1 0x0 MSTORE PUSH1 0x12 PUSH1 0x4 MSTORE PUSH1 0x24 PUSH1 0x0 REVERT JUMPDEST SWAP1 POP MLOAD SWAP1 JUMP JUMPDEST POP PUSH1 0x0 SWAP1 JUMP INVALID LOG2 PUSH5 0x6970667358 0x22 SLT KECCAK256 0x23 0xBE SWAP12 0xCE 0xAC SWAP3 0xDB 0xB1 0xED 0xEF PUSH22 0x352918061F143AF931ADA6D17622A1B5B2F4505D5C64 PUSH20 0x6F6C634300081800330000000000000000000000 "},"methodIdentifiers":{"DEFAULT_ADMIN_ROLE()":"a217fddf","SALE_ROUND_ROLE()":"0b90fca1","claimVested()":"d01c44cd","createVesting(address,uint256,uint256,uint256,uint256)":"eab23abe","getClaimableAmount(address)":"e12f3a61","getRoleAdmin(bytes32)":"248a9ca3","getVestedAmount(address)":"d5a73fdd","getVestingSchedule(address,uint256)":"bed9757e","getVestingScheduleCount(address)":"07d0d916","grantRole(bytes32,address)":"2f2ff15d","hasRole(bytes32,address)":"91d14854","initialize(address)":"c4d66de8","renounceRole(bytes32,address)":"36568abe","revokeRole(bytes32,address)":"d547741f","saleManager()":"746e60b5","supportsInterface(bytes4)":"01ffc9a7","token()":"fc0c546a"}}}}}