{"src/RateLimiter.sol":{"RateLimiter":{"abi":[{"inputs":[{"internalType":"address","name":"admin","type":"address"}],"stateMutability":"nonpayable","type":"constructor"},{"inputs":[],"name":"AccessControlBadConfirmation","type":"error"},{"inputs":[{"internalType":"address","name":"account","type":"address"},{"internalType":"bytes32","name":"neededRole","type":"bytes32"}],"name":"AccessControlUnauthorizedAccount","type":"error"},{"anonymous":false,"inputs":[{"indexed":true,"internalType":"address","name":"account","type":"address"}],"name":"LimitReset","type":"event"},{"anonymous":false,"inputs":[{"indexed":true,"internalType":"address","name":"user","type":"address"},{"indexed":false,"internalType":"uint256","name":"amountUSD","type":"uint256"},{"indexed":false,"internalType":"uint256","name":"txCount","type":"uint256"}],"name":"RateLimitCheck","type":"event"},{"anonymous":false,"inputs":[{"indexed":true,"internalType":"address","name":"account","type":"address"},{"indexed":false,"internalType":"string","name":"reason","type":"string"}],"name":"RateLimitExceeded","type":"event"},{"anonymous":false,"inputs":[{"indexed":false,"internalType":"uint256","name":"minTimeBetweenTx","type":"uint256"},{"indexed":false,"internalType":"uint256","name":"maxTxPerPeriod","type":"uint256"},{"indexed":false,"internalType":"uint256","name":"period","type":"uint256"}],"name":"RateLimitUpdated","type":"event"},{"anonymous":false,"inputs":[{"indexed":true,"internalType":"bytes32","name":"role","type":"bytes32"},{"indexed":true,"internalType":"bytes32","name":"previousAdminRole","type":"bytes32"},{"indexed":true,"internalType":"bytes32","name":"newAdminRole","type":"bytes32"}],"name":"RoleAdminChanged","type":"event"},{"anonymous":false,"inputs":[{"indexed":true,"internalType":"bytes32","name":"role","type":"bytes32"},{"indexed":true,"internalType":"address","name":"account","type":"address"},{"indexed":true,"internalType":"address","name":"sender","type":"address"}],"name":"RoleGranted","type":"event"},{"anonymous":false,"inputs":[{"indexed":true,"internalType":"bytes32","name":"role","type":"bytes32"},{"indexed":true,"internalType":"address","name":"account","type":"address"},{"indexed":true,"internalType":"address","name":"sender","type":"address"}],"name":"RoleRevoked","type":"event"},{"inputs":[],"name":"DEFAULT_ADMIN_ROLE","outputs":[{"internalType":"bytes32","name":"","type":"bytes32"}],"stateMutability":"view","type":"function"},{"inputs":[],"name":"RATE_ADMIN_ROLE","outputs":[{"internalType":"bytes32","name":"","type":"bytes32"}],"stateMutability":"view","type":"function"},{"inputs":[],"name":"SALE_ROUND_ROLE","outputs":[{"internalType":"bytes32","name":"","type":"bytes32"}],"stateMutability":"view","type":"function"},{"inputs":[{"internalType":"address","name":"account","type":"address"},{"internalType":"uint256","name":"usdAmount","type":"uint256"}],"name":"checkAndUpdateLimit","outputs":[],"stateMutability":"nonpayable","type":"function"},{"inputs":[{"internalType":"address","name":"account","type":"address"}],"name":"getRateLimitInfo","outputs":[{"internalType":"uint256","name":"lastTxTime","type":"uint256"},{"internalType":"uint256","name":"txCount","type":"uint256"},{"internalType":"uint256","name":"periodStart","type":"uint256"},{"internalType":"uint256","name":"dailySpentUSD","type":"uint256"},{"internalType":"uint256","name":"dailyPeriodStart","type":"uint256"},{"internalType":"uint256","name":"totalVolume","type":"uint256"}],"stateMutability":"view","type":"function"},{"inputs":[{"internalType":"bytes32","name":"role","type":"bytes32"}],"name":"getRoleAdmin","outputs":[{"internalType":"bytes32","name":"","type":"bytes32"}],"stateMutability":"view","type":"function"},{"inputs":[{"internalType":"bytes32","name":"role","type":"bytes32"},{"internalType":"address","name":"account","type":"address"}],"name":"grantRole","outputs":[],"stateMutability":"nonpayable","type":"function"},{"inputs":[{"internalType":"bytes32","name":"role","type":"bytes32"},{"internalType":"address","name":"account","type":"address"}],"name":"hasRole","outputs":[{"internalType":"bool","name":"","type":"bool"}],"stateMutability":"view","type":"function"},{"inputs":[],"name":"maxPurchaseAmount","outputs":[{"internalType":"uint256","name":"","type":"uint256"}],"stateMutability":"view","type":"function"},{"inputs":[],"name":"maxTxPerPeriod","outputs":[{"internalType":"uint256","name":"","type":"uint256"}],"stateMutability":"view","type":"function"},{"inputs":[],"name":"minPurchaseAmount","outputs":[{"internalType":"uint256","name":"","type":"uint256"}],"stateMutability":"view","type":"function"},{"inputs":[],"name":"minTimeBetweenTx","outputs":[{"internalType":"uint256","name":"","type":"uint256"}],"stateMutability":"view","type":"function"},{"inputs":[],"name":"period","outputs":[{"internalType":"uint256","name":"","type":"uint256"}],"stateMutability":"view","type":"function"},{"inputs":[{"internalType":"bytes32","name":"role","type":"bytes32"},{"internalType":"address","name":"callerConfirmation","type":"address"}],"name":"renounceRole","outputs":[],"stateMutability":"nonpayable","type":"function"},{"inputs":[{"internalType":"address","name":"account","type":"address"}],"name":"resetLimit","outputs":[],"stateMutability":"nonpayable","type":"function"},{"inputs":[{"internalType":"bytes32","name":"role","type":"bytes32"},{"internalType":"address","name":"account","type":"address"}],"name":"revokeRole","outputs":[],"stateMutability":"nonpayable","type":"function"},{"inputs":[{"internalType":"bytes4","name":"interfaceId","type":"bytes4"}],"name":"supportsInterface","outputs":[{"internalType":"bool","name":"","type":"bool"}],"stateMutability":"view","type":"function"},{"inputs":[{"internalType":"uint256","name":"_minTimeBetweenTx","type":"uint256"},{"internalType":"uint256","name":"_maxTxPerPeriod","type":"uint256"},{"internalType":"uint256","name":"_period","type":"uint256"}],"name":"updateRateLimitConfig","outputs":[],"stateMutability":"nonpayable","type":"function"}],"evm":{"bytecode":{"linkReferences":{},"object":"6080346100df57601f610cb538819003918201601f19168301916001600160401b038311848410176100e4578084926020946040528339810103126100df57516001600160a01b0381168082036100df57603c6002556005600355620151806004556305f5e100600555640ba43b74006006551561009a578061008461008a926100fa565b50610178565b50604051610a7c90816102198239f35b60405162461bcd60e51b815260206004820152601960248201527f526174654c696d697465723a207a65726f2061646472657373000000000000006044820152606490fd5b600080fd5b634e487b7160e01b600052604160045260246000fd5b6001600160a01b031660008181527fad3228b676f7d3cd4284a5443f17f1962b36e491b30a40b2405849e597ba5fb5602052604081205490919060ff1661017457818052816020526040822081835260205260408220600160ff198254161790553391600080516020610c958339815191528180a4600190565b5090565b6001600160a01b031660008181527fd1cffbcb8677e3b29c52070b4a0633f7d94697ecef1ed61fbb165c4a58c54bd360205260408120549091907faf977a80e23262c8ff5f86cefbb6a4f6250c151974ee28fb039b0005ddf0d2cd9060ff1661021357808352826020526040832082845260205260408320600160ff19825416179055600080516020610c95833981519152339380a4600190565b50509056fe608060408181526004918236101561001657600080fd5b600092833560e01c91826301ffc9a71461080c575081630b90fca1146107d157816313723801146107b2578163248a9ca3146107885781632f2ff15d1461075e57816336568abe146107185781636222f79b146105d557816391d148541461058f578163a217fddf14610574578163b3ad5c9c146104b0578163b47dbf221461049157838263ccc518041461041557508163d547741f146103d6578163dfe444b01461039b578163e35c9e241461014f578163ebefce0c14610130578163ef78d4fd1461010e575063f952fcad146100ed57600080fd5b3461010a578160031936011261010a576020906006549051908152f35b5080fd5b90503461012c578260031936011261012c5760209250549051908152f35b8280fd5b50503461010a578160031936011261010a576020906002549051908152f35b83833461010a578060031936011261010a5761016961087a565b9060248035907fdb9284895a7211bfd1c970298a1ed435786c5e0cd6ec4810e5f98b0ac05f463493848652602094868652848720338852865260ff85882054161561037e575060018060a01b03169384865260018152838620966101d1885460025490610890565b42106103305760055484101580610324575b156102da57600288016101f98154835490610890565b4210156102c5575b50600188019283549160035483101561027a57428a5560001983146102695750507f6a9138abbe87cba22f7b50815bc865cbd6468f4282dc23e491c1d1ec957cf7ed9596976001600592018094550161025b848254610890565b90558351928352820152a280f35b634e487b7160e01b89526011905287fd5b60226084928589519362461bcd60e51b85528401528201527f526174654c696d697465723a20746f6f206d616e79207472616e73616374696f6044820152616e7360f01b6064820152fd5b42905586600189015586600589015588610201565b60218360849387519362461bcd60e51b85528401528201527f526174654c696d697465723a20616d6f756e74206f7574206f6620626f756e646044820152607360f81b6064820152fd5b506006548411156101e3565b60258360849387519362461bcd60e51b85528401528201527f526174654c696d697465723a207472616e73616374696f6e20746f6f206672656044820152641c5d595b9d60da1b6064820152fd5b845163e2517d3f60e01b815233818a015280840191909152604490fd5b50503461010a578160031936011261010a57602090517faf977a80e23262c8ff5f86cefbb6a4f6250c151974ee28fb039b0005ddf0d2cd8152f35b9190503461012c578060031936011261012c57610411913561040c60016103fb61085f565b93838752866020528620015461092d565b6109d1565b5080f35b91503461010a57602036600319011261010a576005908261043461087a565b61043c6108b3565b60018060a01b031694858252600160205281209181835581600184015581600284015581600384015582015501557fe8f74cba1bb73341afa43a5e5822294322161afaddee159514d739235577da828280a280f35b50503461010a578160031936011261010a576020906005549051908152f35b828434610571576020366003190112610571576001600160a01b036104d361087a565b16815260016020528181209082519060c082019082821067ffffffffffffffff83111761055e57509360a0929160c09585528254948582526001840154806020840152600285015492838382015260056003870154958660608401528701549687608084015201549687910152815196875260208701528501526060840152608083015260a0820152f35b634e487b7160e01b815260418652602490fd5b80fd5b50503461010a578160031936011261010a5751908152602090f35b90503461012c578160031936011261012c578160209360ff926105b061085f565b903582528186528282206001600160a01b039091168252855220549151911615158152f35b90503461012c57606036600319011261012c57803591602435604435926105fa6108b3565b84156106d557811561069257831561064f5791839160609486947fb08dc25d6f70fb9b42325a265866d58941c3c44ce9a15af6977c63f048c03edc97600255826003555581519384526020840152820152a180f35b606490602084519162461bcd60e51b8352820152601b60248201527f526174654c696d697465723a20696e76616c696420706572696f6400000000006044820152fd5b606490602084519162461bcd60e51b8352820152601b60248201527f526174654c696d697465723a20696e76616c6964206d617820747800000000006044820152fd5b606490602084519162461bcd60e51b8352820152601d60248201527f526174654c696d697465723a20696e76616c6964206d696e2074696d650000006044820152fd5b83833461010a578060031936011261010a5761073261085f565b90336001600160a01b0383160361074f57506104119192356109d1565b5163334bd91960e11b81528390fd5b9190503461012c578060031936011261012c57610411913561078360016103fb61085f565b610953565b90503461012c57602036600319011261012c57816020936001923581528085522001549051908152f35b50503461010a578160031936011261010a576020906003549051908152f35b50503461010a578160031936011261010a57602090517fdb9284895a7211bfd1c970298a1ed435786c5e0cd6ec4810e5f98b0ac05f46348152f35b84913461012c57602036600319011261012c573563ffffffff60e01b811680910361012c5760209250637965db0b60e01b811490811561084e575b5015158152f35b6301ffc9a760e01b14905083610847565b602435906001600160a01b038216820361087557565b600080fd5b600435906001600160a01b038216820361087557565b9190820180921161089d57565b634e487b7160e01b600052601160045260246000fd5b3360009081527fd1cffbcb8677e3b29c52070b4a0633f7d94697ecef1ed61fbb165c4a58c54bd360205260409020547faf977a80e23262c8ff5f86cefbb6a4f6250c151974ee28fb039b0005ddf0d2cd9060ff161561090f5750565b6044906040519063e2517d3f60e01b82523360048301526024820152fd5b80600052600060205260406000203360005260205260ff604060002054161561090f5750565b9060009180835282602052604083209160018060a01b03169182845260205260ff604084205416156000146109cc57808352826020526040832082845260205260408320600160ff198254161790557f2f8788117e7eff1d82e926ec794901d17c78024a50270940304540a733656f0d339380a4600190565b505090565b9060009180835282602052604083209160018060a01b03169182845260205260ff6040842054166000146109cc5780835282602052604083208284526020526040832060ff1981541690557ff6391f5c32d9c69d2a47ea670b442974b53935d1edc7fd64eb21e047a839171b339380a460019056fea2646970667358221220cba3f65fe6f6f35f22f5b4f5d35c6a15685c1715c5453514a4217cffd6ad374964736f6c634300081800332f8788117e7eff1d82e926ec794901d17c78024a50270940304540a733656f0d","opcodes":"PUSH1 0x80 CALLVALUE PUSH2 0xDF JUMPI PUSH1 0x1F PUSH2 0xCB5 CODESIZE DUP2 SWAP1 SUB SWAP2 DUP3 ADD PUSH1 0x1F NOT AND DUP4 ADD SWAP2 PUSH1 0x1 PUSH1 0x1 PUSH1 0x40 SHL SUB DUP4 GT DUP5 DUP5 LT OR PUSH2 0xE4 JUMPI DUP1 DUP5 SWAP3 PUSH1 0x20 SWAP5 PUSH1 0x40 MSTORE DUP4 CODECOPY DUP2 ADD SUB SLT PUSH2 0xDF JUMPI MLOAD PUSH1 0x1 PUSH1 0x1 PUSH1 0xA0 SHL SUB DUP2 AND DUP1 DUP3 SUB PUSH2 0xDF JUMPI PUSH1 0x3C PUSH1 0x2 SSTORE PUSH1 0x5 PUSH1 0x3 SSTORE PUSH3 0x15180 PUSH1 0x4 SSTORE PUSH4 0x5F5E100 PUSH1 0x5 SSTORE PUSH5 0xBA43B7400 PUSH1 0x6 SSTORE ISZERO PUSH2 0x9A JUMPI DUP1 PUSH2 0x84 PUSH2 0x8A SWAP3 PUSH2 0xFA JUMP JUMPDEST POP PUSH2 0x178 JUMP JUMPDEST POP PUSH1 0x40 MLOAD PUSH2 0xA7C SWAP1 DUP2 PUSH2 0x219 DUP3 CODECOPY RETURN JUMPDEST PUSH1 0x40 MLOAD PUSH3 0x461BCD PUSH1 0xE5 SHL DUP2 MSTORE PUSH1 0x20 PUSH1 0x4 DUP3 ADD MSTORE PUSH1 0x19 PUSH1 0x24 DUP3 ADD MSTORE PUSH32 0x526174654C696D697465723A207A65726F206164647265737300000000000000 PUSH1 0x44 DUP3 ADD MSTORE PUSH1 0x64 SWAP1 REVERT JUMPDEST PUSH1 0x0 DUP1 REVERT JUMPDEST PUSH4 0x4E487B71 PUSH1 0xE0 SHL PUSH1 0x0 MSTORE PUSH1 0x41 PUSH1 0x4 MSTORE PUSH1 0x24 PUSH1 0x0 REVERT JUMPDEST PUSH1 0x1 PUSH1 0x1 PUSH1 0xA0 SHL SUB AND PUSH1 0x0 DUP2 DUP2 MSTORE PUSH32 0xAD3228B676F7D3CD4284A5443F17F1962B36E491B30A40B2405849E597BA5FB5 PUSH1 0x20 MSTORE PUSH1 0x40 DUP2 KECCAK256 SLOAD SWAP1 SWAP2 SWAP1 PUSH1 0xFF AND PUSH2 0x174 JUMPI DUP2 DUP1 MSTORE DUP2 PUSH1 0x20 MSTORE PUSH1 0x40 DUP3 KECCAK256 DUP2 DUP4 MSTORE PUSH1 0x20 MSTORE PUSH1 0x40 DUP3 KECCAK256 PUSH1 0x1 PUSH1 0xFF NOT DUP3 SLOAD AND OR SWAP1 SSTORE CALLER SWAP2 PUSH1 0x0 DUP1 MLOAD PUSH1 0x20 PUSH2 0xC95 DUP4 CODECOPY DUP2 MLOAD SWAP2 MSTORE DUP2 DUP1 LOG4 PUSH1 0x1 SWAP1 JUMP JUMPDEST POP SWAP1 JUMP JUMPDEST PUSH1 0x1 PUSH1 0x1 PUSH1 0xA0 SHL SUB AND PUSH1 0x0 DUP2 DUP2 MSTORE PUSH32 0xD1CFFBCB8677E3B29C52070B4A0633F7D94697ECEF1ED61FBB165C4A58C54BD3 PUSH1 0x20 MSTORE PUSH1 0x40 DUP2 KECCAK256 SLOAD SWAP1 SWAP2 SWAP1 PUSH32 0xAF977A80E23262C8FF5F86CEFBB6A4F6250C151974EE28FB039B0005DDF0D2CD SWAP1 PUSH1 0xFF AND PUSH2 0x213 JUMPI DUP1 DUP4 MSTORE DUP3 PUSH1 0x20 MSTORE PUSH1 0x40 DUP4 KECCAK256 DUP3 DUP5 MSTORE PUSH1 0x20 MSTORE PUSH1 0x40 DUP4 KECCAK256 PUSH1 0x1 PUSH1 0xFF NOT DUP3 SLOAD AND OR SWAP1 SSTORE PUSH1 0x0 DUP1 MLOAD PUSH1 0x20 PUSH2 0xC95 DUP4 CODECOPY DUP2 MLOAD SWAP2 MSTORE CALLER SWAP4 DUP1 LOG4 PUSH1 0x1 SWAP1 JUMP JUMPDEST POP POP SWAP1 JUMP INVALID PUSH1 0x80 PUSH1 0x40 DUP2 DUP2 MSTORE PUSH1 0x4 SWAP2 DUP3 CALLDATASIZE LT ISZERO PUSH2 0x16 JUMPI PUSH1 0x0 DUP1 REVERT JUMPDEST PUSH1 0x0 SWAP3 DUP4 CALLDATALOAD PUSH1 0xE0 SHR SWAP2 DUP3 PUSH4 0x1FFC9A7 EQ PUSH2 0x80C JUMPI POP DUP2 PUSH4 0xB90FCA1 EQ PUSH2 0x7D1 JUMPI DUP2 PUSH4 0x13723801 EQ PUSH2 0x7B2 JUMPI DUP2 PUSH4 0x248A9CA3 EQ PUSH2 0x788 JUMPI DUP2 PUSH4 0x2F2FF15D EQ PUSH2 0x75E JUMPI DUP2 PUSH4 0x36568ABE EQ PUSH2 0x718 JUMPI DUP2 PUSH4 0x6222F79B EQ PUSH2 0x5D5 JUMPI DUP2 PUSH4 0x91D14854 EQ PUSH2 0x58F JUMPI DUP2 PUSH4 0xA217FDDF EQ PUSH2 0x574 JUMPI DUP2 PUSH4 0xB3AD5C9C EQ PUSH2 0x4B0 JUMPI DUP2 PUSH4 0xB47DBF22 EQ PUSH2 0x491 JUMPI DUP4 DUP3 PUSH4 0xCCC51804 EQ PUSH2 0x415 JUMPI POP DUP2 PUSH4 0xD547741F EQ PUSH2 0x3D6 JUMPI DUP2 PUSH4 0xDFE444B0 EQ PUSH2 0x39B JUMPI DUP2 PUSH4 0xE35C9E24 EQ PUSH2 0x14F JUMPI DUP2 PUSH4 0xEBEFCE0C EQ PUSH2 0x130 JUMPI DUP2 PUSH4 0xEF78D4FD EQ PUSH2 0x10E JUMPI POP PUSH4 0xF952FCAD EQ PUSH2 0xED JUMPI PUSH1 0x0 DUP1 REVERT JUMPDEST CALLVALUE PUSH2 0x10A JUMPI DUP2 PUSH1 0x3 NOT CALLDATASIZE ADD SLT PUSH2 0x10A JUMPI PUSH1 0x20 SWAP1 PUSH1 0x6 SLOAD SWAP1 MLOAD SWAP1 DUP2 MSTORE RETURN JUMPDEST POP DUP1 REVERT JUMPDEST SWAP1 POP CALLVALUE PUSH2 0x12C JUMPI DUP3 PUSH1 0x3 NOT CALLDATASIZE ADD SLT PUSH2 0x12C JUMPI PUSH1 0x20 SWAP3 POP SLOAD SWAP1 MLOAD SWAP1 DUP2 MSTORE RETURN JUMPDEST DUP3 DUP1 REVERT JUMPDEST POP POP CALLVALUE PUSH2 0x10A JUMPI DUP2 PUSH1 0x3 NOT CALLDATASIZE ADD SLT PUSH2 0x10A JUMPI PUSH1 0x20 SWAP1 PUSH1 0x2 SLOAD SWAP1 MLOAD SWAP1 DUP2 MSTORE RETURN JUMPDEST DUP4 DUP4 CALLVALUE PUSH2 0x10A JUMPI DUP1 PUSH1 0x3 NOT CALLDATASIZE ADD SLT PUSH2 0x10A JUMPI PUSH2 0x169 PUSH2 0x87A JUMP JUMPDEST SWAP1 PUSH1 0x24 DUP1 CALLDATALOAD SWAP1 PUSH32 0xDB9284895A7211BFD1C970298A1ED435786C5E0CD6EC4810E5F98B0AC05F4634 SWAP4 DUP5 DUP7 MSTORE PUSH1 0x20 SWAP5 DUP7 DUP7 MSTORE DUP5 DUP8 KECCAK256 CALLER DUP9 MSTORE DUP7 MSTORE PUSH1 0xFF DUP6 DUP9 KECCAK256 SLOAD AND ISZERO PUSH2 0x37E JUMPI POP PUSH1 0x1 DUP1 PUSH1 0xA0 SHL SUB AND SWAP4 DUP5 DUP7 MSTORE PUSH1 0x1 DUP2 MSTORE DUP4 DUP7 KECCAK256 SWAP7 PUSH2 0x1D1 DUP9 SLOAD PUSH1 0x2 SLOAD SWAP1 PUSH2 0x890 JUMP JUMPDEST TIMESTAMP LT PUSH2 0x330 JUMPI PUSH1 0x5 SLOAD DUP5 LT ISZERO DUP1 PUSH2 0x324 JUMPI JUMPDEST ISZERO PUSH2 0x2DA JUMPI PUSH1 0x2 DUP9 ADD PUSH2 0x1F9 DUP2 SLOAD DUP4 SLOAD SWAP1 PUSH2 0x890 JUMP JUMPDEST TIMESTAMP LT ISZERO PUSH2 0x2C5 JUMPI JUMPDEST POP PUSH1 0x1 DUP9 ADD SWAP3 DUP4 SLOAD SWAP2 PUSH1 0x3 SLOAD DUP4 LT ISZERO PUSH2 0x27A JUMPI TIMESTAMP DUP11 SSTORE PUSH1 0x0 NOT DUP4 EQ PUSH2 0x269 JUMPI POP POP PUSH32 0x6A9138ABBE87CBA22F7B50815BC865CBD6468F4282DC23E491C1D1EC957CF7ED SWAP6 SWAP7 SWAP8 PUSH1 0x1 PUSH1 0x5 SWAP3 ADD DUP1 SWAP5 SSTORE ADD PUSH2 0x25B DUP5 DUP3 SLOAD PUSH2 0x890 JUMP JUMPDEST SWAP1 SSTORE DUP4 MLOAD SWAP3 DUP4 MSTORE DUP3 ADD MSTORE LOG2 DUP1 RETURN JUMPDEST PUSH4 0x4E487B71 PUSH1 0xE0 SHL DUP10 MSTORE PUSH1 0x11 SWAP1 MSTORE DUP8 REVERT JUMPDEST PUSH1 0x22 PUSH1 0x84 SWAP3 DUP6 DUP10 MLOAD SWAP4 PUSH3 0x461BCD PUSH1 0xE5 SHL DUP6 MSTORE DUP5 ADD MSTORE DUP3 ADD MSTORE PUSH32 0x526174654C696D697465723A20746F6F206D616E79207472616E73616374696F PUSH1 0x44 DUP3 ADD MSTORE PUSH2 0x6E73 PUSH1 0xF0 SHL PUSH1 0x64 DUP3 ADD MSTORE REVERT JUMPDEST TIMESTAMP SWAP1 SSTORE DUP7 PUSH1 0x1 DUP10 ADD SSTORE DUP7 PUSH1 0x5 DUP10 ADD SSTORE DUP9 PUSH2 0x201 JUMP JUMPDEST PUSH1 0x21 DUP4 PUSH1 0x84 SWAP4 DUP8 MLOAD SWAP4 PUSH3 0x461BCD PUSH1 0xE5 SHL DUP6 MSTORE DUP5 ADD MSTORE DUP3 ADD MSTORE PUSH32 0x526174654C696D697465723A20616D6F756E74206F7574206F6620626F756E64 PUSH1 0x44 DUP3 ADD MSTORE PUSH1 0x73 PUSH1 0xF8 SHL PUSH1 0x64 DUP3 ADD MSTORE REVERT JUMPDEST POP PUSH1 0x6 SLOAD DUP5 GT ISZERO PUSH2 0x1E3 JUMP JUMPDEST PUSH1 0x25 DUP4 PUSH1 0x84 SWAP4 DUP8 MLOAD SWAP4 PUSH3 0x461BCD PUSH1 0xE5 SHL DUP6 MSTORE DUP5 ADD MSTORE DUP3 ADD MSTORE PUSH32 0x526174654C696D697465723A207472616E73616374696F6E20746F6F20667265 PUSH1 0x44 DUP3 ADD MSTORE PUSH5 0x1C5D595B9D PUSH1 0xDA SHL PUSH1 0x64 DUP3 ADD MSTORE REVERT JUMPDEST DUP5 MLOAD PUSH4 0xE2517D3F PUSH1 0xE0 SHL DUP2 MSTORE CALLER DUP2 DUP11 ADD MSTORE DUP1 DUP5 ADD SWAP2 SWAP1 SWAP2 MSTORE PUSH1 0x44 SWAP1 REVERT JUMPDEST POP POP CALLVALUE PUSH2 0x10A JUMPI DUP2 PUSH1 0x3 NOT CALLDATASIZE ADD SLT PUSH2 0x10A JUMPI PUSH1 0x20 SWAP1 MLOAD PUSH32 0xAF977A80E23262C8FF5F86CEFBB6A4F6250C151974EE28FB039B0005DDF0D2CD DUP2 MSTORE RETURN JUMPDEST SWAP2 SWAP1 POP CALLVALUE PUSH2 0x12C JUMPI DUP1 PUSH1 0x3 NOT CALLDATASIZE ADD SLT PUSH2 0x12C JUMPI PUSH2 0x411 SWAP2 CALLDATALOAD PUSH2 0x40C PUSH1 0x1 PUSH2 0x3FB PUSH2 0x85F JUMP JUMPDEST SWAP4 DUP4 DUP8 MSTORE DUP7 PUSH1 0x20 MSTORE DUP7 KECCAK256 ADD SLOAD PUSH2 0x92D JUMP JUMPDEST PUSH2 0x9D1 JUMP JUMPDEST POP DUP1 RETURN JUMPDEST SWAP2 POP CALLVALUE PUSH2 0x10A JUMPI PUSH1 0x20 CALLDATASIZE PUSH1 0x3 NOT ADD SLT PUSH2 0x10A JUMPI PUSH1 0x5 SWAP1 DUP3 PUSH2 0x434 PUSH2 0x87A JUMP JUMPDEST PUSH2 0x43C PUSH2 0x8B3 JUMP JUMPDEST PUSH1 0x1 DUP1 PUSH1 0xA0 SHL SUB AND SWAP5 DUP6 DUP3 MSTORE PUSH1 0x1 PUSH1 0x20 MSTORE DUP2 KECCAK256 SWAP2 DUP2 DUP4 SSTORE DUP2 PUSH1 0x1 DUP5 ADD SSTORE DUP2 PUSH1 0x2 DUP5 ADD SSTORE DUP2 PUSH1 0x3 DUP5 ADD SSTORE DUP3 ADD SSTORE ADD SSTORE PUSH32 0xE8F74CBA1BB73341AFA43A5E5822294322161AFADDEE159514D739235577DA82 DUP3 DUP1 LOG2 DUP1 RETURN JUMPDEST POP POP CALLVALUE PUSH2 0x10A JUMPI DUP2 PUSH1 0x3 NOT CALLDATASIZE ADD SLT PUSH2 0x10A JUMPI PUSH1 0x20 SWAP1 PUSH1 0x5 SLOAD SWAP1 MLOAD SWAP1 DUP2 MSTORE RETURN JUMPDEST DUP3 DUP5 CALLVALUE PUSH2 0x571 JUMPI PUSH1 0x20 CALLDATASIZE PUSH1 0x3 NOT ADD SLT PUSH2 0x571 JUMPI PUSH1 0x1 PUSH1 0x1 PUSH1 0xA0 SHL SUB PUSH2 0x4D3 PUSH2 0x87A JUMP JUMPDEST AND DUP2 MSTORE PUSH1 0x1 PUSH1 0x20 MSTORE DUP2 DUP2 KECCAK256 SWAP1 DUP3 MLOAD SWAP1 PUSH1 0xC0 DUP3 ADD SWAP1 DUP3 DUP3 LT PUSH8 0xFFFFFFFFFFFFFFFF DUP4 GT OR PUSH2 0x55E JUMPI POP SWAP4 PUSH1 0xA0 SWAP3 SWAP2 PUSH1 0xC0 SWAP6 DUP6 MSTORE DUP3 SLOAD SWAP5 DUP6 DUP3 MSTORE PUSH1 0x1 DUP5 ADD SLOAD DUP1 PUSH1 0x20 DUP5 ADD MSTORE PUSH1 0x2 DUP6 ADD SLOAD SWAP3 DUP4 DUP4 DUP3 ADD MSTORE PUSH1 0x5 PUSH1 0x3 DUP8 ADD SLOAD SWAP6 DUP7 PUSH1 0x60 DUP5 ADD MSTORE DUP8 ADD SLOAD SWAP7 DUP8 PUSH1 0x80 DUP5 ADD MSTORE ADD SLOAD SWAP7 DUP8 SWAP2 ADD MSTORE DUP2 MLOAD SWAP7 DUP8 MSTORE PUSH1 0x20 DUP8 ADD MSTORE DUP6 ADD MSTORE PUSH1 0x60 DUP5 ADD MSTORE PUSH1 0x80 DUP4 ADD MSTORE PUSH1 0xA0 DUP3 ADD MSTORE RETURN JUMPDEST PUSH4 0x4E487B71 PUSH1 0xE0 SHL DUP2 MSTORE PUSH1 0x41 DUP7 MSTORE PUSH1 0x24 SWAP1 REVERT JUMPDEST DUP1 REVERT JUMPDEST POP POP CALLVALUE PUSH2 0x10A JUMPI DUP2 PUSH1 0x3 NOT CALLDATASIZE ADD SLT PUSH2 0x10A JUMPI MLOAD SWAP1 DUP2 MSTORE PUSH1 0x20 SWAP1 RETURN JUMPDEST SWAP1 POP CALLVALUE PUSH2 0x12C JUMPI DUP2 PUSH1 0x3 NOT CALLDATASIZE ADD SLT PUSH2 0x12C JUMPI DUP2 PUSH1 0x20 SWAP4 PUSH1 0xFF SWAP3 PUSH2 0x5B0 PUSH2 0x85F JUMP JUMPDEST SWAP1 CALLDATALOAD DUP3 MSTORE DUP2 DUP7 MSTORE DUP3 DUP3 KECCAK256 PUSH1 0x1 PUSH1 0x1 PUSH1 0xA0 SHL SUB SWAP1 SWAP2 AND DUP3 MSTORE DUP6 MSTORE KECCAK256 SLOAD SWAP2 MLOAD SWAP2 AND ISZERO ISZERO DUP2 MSTORE RETURN JUMPDEST SWAP1 POP CALLVALUE PUSH2 0x12C JUMPI PUSH1 0x60 CALLDATASIZE PUSH1 0x3 NOT ADD SLT PUSH2 0x12C JUMPI DUP1 CALLDATALOAD SWAP2 PUSH1 0x24 CALLDATALOAD PUSH1 0x44 CALLDATALOAD SWAP3 PUSH2 0x5FA PUSH2 0x8B3 JUMP JUMPDEST DUP5 ISZERO PUSH2 0x6D5 JUMPI DUP2 ISZERO PUSH2 0x692 JUMPI DUP4 ISZERO PUSH2 0x64F JUMPI SWAP2 DUP4 SWAP2 PUSH1 0x60 SWAP5 DUP7 SWAP5 PUSH32 0xB08DC25D6F70FB9B42325A265866D58941C3C44CE9A15AF6977C63F048C03EDC SWAP8 PUSH1 0x2 SSTORE DUP3 PUSH1 0x3 SSTORE SSTORE DUP2 MLOAD SWAP4 DUP5 MSTORE PUSH1 0x20 DUP5 ADD MSTORE DUP3 ADD MSTORE LOG1 DUP1 RETURN JUMPDEST PUSH1 0x64 SWAP1 PUSH1 0x20 DUP5 MLOAD SWAP2 PUSH3 0x461BCD PUSH1 0xE5 SHL DUP4 MSTORE DUP3 ADD MSTORE PUSH1 0x1B PUSH1 0x24 DUP3 ADD MSTORE PUSH32 0x526174654C696D697465723A20696E76616C696420706572696F640000000000 PUSH1 0x44 DUP3 ADD MSTORE REVERT JUMPDEST PUSH1 0x64 SWAP1 PUSH1 0x20 DUP5 MLOAD SWAP2 PUSH3 0x461BCD PUSH1 0xE5 SHL DUP4 MSTORE DUP3 ADD MSTORE PUSH1 0x1B PUSH1 0x24 DUP3 ADD MSTORE PUSH32 0x526174654C696D697465723A20696E76616C6964206D61782074780000000000 PUSH1 0x44 DUP3 ADD MSTORE REVERT JUMPDEST PUSH1 0x64 SWAP1 PUSH1 0x20 DUP5 MLOAD SWAP2 PUSH3 0x461BCD PUSH1 0xE5 SHL DUP4 MSTORE DUP3 ADD MSTORE PUSH1 0x1D PUSH1 0x24 DUP3 ADD MSTORE PUSH32 0x526174654C696D697465723A20696E76616C6964206D696E2074696D65000000 PUSH1 0x44 DUP3 ADD MSTORE REVERT JUMPDEST DUP4 DUP4 CALLVALUE PUSH2 0x10A JUMPI DUP1 PUSH1 0x3 NOT CALLDATASIZE ADD SLT PUSH2 0x10A JUMPI PUSH2 0x732 PUSH2 0x85F JUMP JUMPDEST SWAP1 CALLER PUSH1 0x1 PUSH1 0x1 PUSH1 0xA0 SHL SUB DUP4 AND SUB PUSH2 0x74F JUMPI POP PUSH2 0x411 SWAP2 SWAP3 CALLDATALOAD PUSH2 0x9D1 JUMP JUMPDEST MLOAD PUSH4 0x334BD919 PUSH1 0xE1 SHL DUP2 MSTORE DUP4 SWAP1 REVERT JUMPDEST SWAP2 SWAP1 POP CALLVALUE PUSH2 0x12C JUMPI DUP1 PUSH1 0x3 NOT CALLDATASIZE ADD SLT PUSH2 0x12C JUMPI PUSH2 0x411 SWAP2 CALLDATALOAD PUSH2 0x783 PUSH1 0x1 PUSH2 0x3FB PUSH2 0x85F JUMP JUMPDEST PUSH2 0x953 JUMP JUMPDEST SWAP1 POP CALLVALUE PUSH2 0x12C JUMPI PUSH1 0x20 CALLDATASIZE PUSH1 0x3 NOT ADD SLT PUSH2 0x12C JUMPI DUP2 PUSH1 0x20 SWAP4 PUSH1 0x1 SWAP3 CALLDATALOAD DUP2 MSTORE DUP1 DUP6 MSTORE KECCAK256 ADD SLOAD SWAP1 MLOAD SWAP1 DUP2 MSTORE RETURN JUMPDEST POP POP CALLVALUE PUSH2 0x10A JUMPI DUP2 PUSH1 0x3 NOT CALLDATASIZE ADD SLT PUSH2 0x10A JUMPI PUSH1 0x20 SWAP1 PUSH1 0x3 SLOAD SWAP1 MLOAD SWAP1 DUP2 MSTORE RETURN JUMPDEST POP POP CALLVALUE PUSH2 0x10A JUMPI DUP2 PUSH1 0x3 NOT CALLDATASIZE ADD SLT PUSH2 0x10A JUMPI PUSH1 0x20 SWAP1 MLOAD PUSH32 0xDB9284895A7211BFD1C970298A1ED435786C5E0CD6EC4810E5F98B0AC05F4634 DUP2 MSTORE RETURN JUMPDEST DUP5 SWAP2 CALLVALUE PUSH2 0x12C JUMPI PUSH1 0x20 CALLDATASIZE PUSH1 0x3 NOT ADD SLT PUSH2 0x12C JUMPI CALLDATALOAD PUSH4 0xFFFFFFFF PUSH1 0xE0 SHL DUP2 AND DUP1 SWAP2 SUB PUSH2 0x12C JUMPI PUSH1 0x20 SWAP3 POP PUSH4 0x7965DB0B PUSH1 0xE0 SHL DUP2 EQ SWAP1 DUP2 ISZERO PUSH2 0x84E JUMPI JUMPDEST POP ISZERO ISZERO DUP2 MSTORE RETURN JUMPDEST PUSH4 0x1FFC9A7 PUSH1 0xE0 SHL EQ SWAP1 POP DUP4 PUSH2 0x847 JUMP JUMPDEST PUSH1 0x24 CALLDATALOAD SWAP1 PUSH1 0x1 PUSH1 0x1 PUSH1 0xA0 SHL SUB DUP3 AND DUP3 SUB PUSH2 0x875 JUMPI JUMP JUMPDEST PUSH1 0x0 DUP1 REVERT JUMPDEST PUSH1 0x4 CALLDATALOAD SWAP1 PUSH1 0x1 PUSH1 0x1 PUSH1 0xA0 SHL SUB DUP3 AND DUP3 SUB PUSH2 0x875 JUMPI JUMP JUMPDEST SWAP2 SWAP1 DUP3 ADD DUP1 SWAP3 GT PUSH2 0x89D JUMPI JUMP JUMPDEST PUSH4 0x4E487B71 PUSH1 0xE0 SHL PUSH1 0x0 MSTORE PUSH1 0x11 PUSH1 0x4 MSTORE PUSH1 0x24 PUSH1 0x0 REVERT JUMPDEST CALLER PUSH1 0x0 SWAP1 DUP2 MSTORE PUSH32 0xD1CFFBCB8677E3B29C52070B4A0633F7D94697ECEF1ED61FBB165C4A58C54BD3 PUSH1 0x20 MSTORE PUSH1 0x40 SWAP1 KECCAK256 SLOAD PUSH32 0xAF977A80E23262C8FF5F86CEFBB6A4F6250C151974EE28FB039B0005DDF0D2CD SWAP1 PUSH1 0xFF AND ISZERO PUSH2 0x90F JUMPI POP JUMP JUMPDEST PUSH1 0x44 SWAP1 PUSH1 0x40 MLOAD SWAP1 PUSH4 0xE2517D3F PUSH1 0xE0 SHL DUP3 MSTORE CALLER PUSH1 0x4 DUP4 ADD MSTORE PUSH1 0x24 DUP3 ADD MSTORE REVERT JUMPDEST DUP1 PUSH1 0x0 MSTORE PUSH1 0x0 PUSH1 0x20 MSTORE PUSH1 0x40 PUSH1 0x0 KECCAK256 CALLER PUSH1 0x0 MSTORE PUSH1 0x20 MSTORE PUSH1 0xFF PUSH1 0x40 PUSH1 0x0 KECCAK256 SLOAD AND ISZERO PUSH2 0x90F JUMPI POP JUMP JUMPDEST SWAP1 PUSH1 0x0 SWAP2 DUP1 DUP4 MSTORE DUP3 PUSH1 0x20 MSTORE PUSH1 0x40 DUP4 KECCAK256 SWAP2 PUSH1 0x1 DUP1 PUSH1 0xA0 SHL SUB AND SWAP2 DUP3 DUP5 MSTORE PUSH1 0x20 MSTORE PUSH1 0xFF PUSH1 0x40 DUP5 KECCAK256 SLOAD AND ISZERO PUSH1 0x0 EQ PUSH2 0x9CC JUMPI DUP1 DUP4 MSTORE DUP3 PUSH1 0x20 MSTORE PUSH1 0x40 DUP4 KECCAK256 DUP3 DUP5 MSTORE PUSH1 0x20 MSTORE PUSH1 0x40 DUP4 KECCAK256 PUSH1 0x1 PUSH1 0xFF NOT DUP3 SLOAD AND OR SWAP1 SSTORE PUSH32 0x2F8788117E7EFF1D82E926EC794901D17C78024A50270940304540A733656F0D CALLER SWAP4 DUP1 LOG4 PUSH1 0x1 SWAP1 JUMP JUMPDEST POP POP SWAP1 JUMP JUMPDEST SWAP1 PUSH1 0x0 SWAP2 DUP1 DUP4 MSTORE DUP3 PUSH1 0x20 MSTORE PUSH1 0x40 DUP4 KECCAK256 SWAP2 PUSH1 0x1 DUP1 PUSH1 0xA0 SHL SUB AND SWAP2 DUP3 DUP5 MSTORE PUSH1 0x20 MSTORE PUSH1 0xFF PUSH1 0x40 DUP5 KECCAK256 SLOAD AND PUSH1 0x0 EQ PUSH2 0x9CC JUMPI DUP1 DUP4 MSTORE DUP3 PUSH1 0x20 MSTORE PUSH1 0x40 DUP4 KECCAK256 DUP3 DUP5 MSTORE PUSH1 0x20 MSTORE PUSH1 0x40 DUP4 KECCAK256 PUSH1 0xFF NOT DUP2 SLOAD AND SWAP1 SSTORE PUSH32 0xF6391F5C32D9C69D2A47EA670B442974B53935D1EDC7FD64EB21E047A839171B CALLER SWAP4 DUP1 LOG4 PUSH1 0x1 SWAP1 JUMP INVALID LOG2 PUSH5 0x6970667358 0x22 SLT KECCAK256 0xCB LOG3 0xF6 PUSH0 0xE6 0xF6 RETURN PUSH0 0x22 CREATE2 0xB4 CREATE2 0xD3 TLOAD PUSH11 0x15685C1715C5453514A421 PUSH29 0xFFD6AD374964736F6C634300081800332F8788117E7EFF1D82E926EC79 BLOBHASH ADD 0xD1 PUSH29 0x78024A50270940304540A733656F0D0000000000000000000000000000 "},"methodIdentifiers":{"DEFAULT_ADMIN_ROLE()":"a217fddf","RATE_ADMIN_ROLE()":"dfe444b0","SALE_ROUND_ROLE()":"0b90fca1","checkAndUpdateLimit(address,uint256)":"e35c9e24","getRateLimitInfo(address)":"b3ad5c9c","getRoleAdmin(bytes32)":"248a9ca3","grantRole(bytes32,address)":"2f2ff15d","hasRole(bytes32,address)":"91d14854","maxPurchaseAmount()":"f952fcad","maxTxPerPeriod()":"13723801","minPurchaseAmount()":"b47dbf22","minTimeBetweenTx()":"ebefce0c","period()":"ef78d4fd","renounceRole(bytes32,address)":"36568abe","resetLimit(address)":"ccc51804","revokeRole(bytes32,address)":"d547741f","supportsInterface(bytes4)":"01ffc9a7","updateRateLimitConfig(uint256,uint256,uint256)":"6222f79b"}}}}}