{"src/SaleManager.sol":{"SaleManager":{"abi":[{"inputs":[{"internalType":"address","name":"_nebaToken","type":"address"},{"internalType":"address","name":"_kycRegistry","type":"address"},{"internalType":"address","name":"_rateLimiter","type":"address"},{"internalType":"address","name":"_vestingVault","type":"address"},{"internalType":"address","name":"_fundsVault","type":"address"},{"internalType":"address","name":"_usdc","type":"address"},{"internalType":"address","name":"_usdt","type":"address"},{"internalType":"address","name":"_ethUSDOracle","type":"address"},{"internalType":"address","name":"initialOwner","type":"address"}],"stateMutability":"nonpayable","type":"constructor"},{"inputs":[],"name":"EnforcedPause","type":"error"},{"inputs":[],"name":"ExpectedPause","type":"error"},{"inputs":[{"internalType":"address","name":"owner","type":"address"}],"name":"OwnableInvalidOwner","type":"error"},{"inputs":[{"internalType":"address","name":"account","type":"address"}],"name":"OwnableUnauthorizedAccount","type":"error"},{"anonymous":false,"inputs":[{"indexed":true,"internalType":"address","name":"caller","type":"address"},{"indexed":false,"internalType":"uint256","name":"timestamp","type":"uint256"}],"name":"EmergencyPause","type":"event"},{"anonymous":false,"inputs":[{"indexed":true,"internalType":"bytes32","name":"operationId","type":"bytes32"}],"name":"OperationCancelled","type":"event"},{"anonymous":false,"inputs":[{"indexed":true,"internalType":"bytes32","name":"operationId","type":"bytes32"}],"name":"OperationExecuted","type":"event"},{"anonymous":false,"inputs":[{"indexed":true,"internalType":"bytes32","name":"operationId","type":"bytes32"},{"indexed":true,"internalType":"address","name":"target","type":"address"},{"indexed":false,"internalType":"uint256","name":"executeTime","type":"uint256"}],"name":"OperationScheduled","type":"event"},{"anonymous":false,"inputs":[{"indexed":true,"internalType":"address","name":"previousOwner","type":"address"},{"indexed":true,"internalType":"address","name":"newOwner","type":"address"}],"name":"OwnershipTransferred","type":"event"},{"anonymous":false,"inputs":[{"indexed":false,"internalType":"address","name":"account","type":"address"}],"name":"Paused","type":"event"},{"anonymous":false,"inputs":[{"indexed":true,"internalType":"address","name":"roundAddress","type":"address"},{"indexed":true,"internalType":"uint256","name":"roundId","type":"uint256"},{"indexed":false,"internalType":"string","name":"name","type":"string"}],"name":"RoundCreated","type":"event"},{"anonymous":false,"inputs":[{"indexed":false,"internalType":"uint256","name":"newDelay","type":"uint256"}],"name":"TimelockDelayUpdated","type":"event"},{"anonymous":false,"inputs":[{"indexed":true,"internalType":"address","name":"caller","type":"address"},{"indexed":false,"internalType":"uint256","name":"timestamp","type":"uint256"}],"name":"Unpause","type":"event"},{"anonymous":false,"inputs":[{"indexed":false,"internalType":"address","name":"account","type":"address"}],"name":"Unpaused","type":"event"},{"inputs":[{"internalType":"uint256","name":"roundIndex","type":"uint256"}],"name":"authorizeSaleRound","outputs":[],"stateMutability":"nonpayable","type":"function"},{"inputs":[{"internalType":"bytes32","name":"operationId","type":"bytes32"}],"name":"cancelOperation","outputs":[],"stateMutability":"nonpayable","type":"function"},{"inputs":[{"components":[{"internalType":"string","name":"name","type":"string"},{"internalType":"uint256","name":"tokenPriceUSD","type":"uint256"},{"internalType":"uint256","name":"hardCapUSD","type":"uint256"},{"internalType":"uint256","name":"startTime","type":"uint256"},{"internalType":"uint256","name":"endTime","type":"uint256"},{"internalType":"uint256","name":"cliffDuration","type":"uint256"},{"internalType":"uint256","name":"vestingDuration","type":"uint256"},{"internalType":"bool","name":"isActive","type":"bool"}],"internalType":"struct SaleRound.RoundConfig","name":"config","type":"tuple"}],"name":"createRound","outputs":[{"internalType":"address","name":"","type":"address"}],"stateMutability":"nonpayable","type":"function"},{"inputs":[],"name":"emergencyPause","outputs":[],"stateMutability":"nonpayable","type":"function"},{"inputs":[],"name":"ethUSDOracle","outputs":[{"internalType":"address","name":"","type":"address"}],"stateMutability":"view","type":"function"},{"inputs":[{"internalType":"bytes32","name":"operationId","type":"bytes32"}],"name":"executeOperation","outputs":[],"stateMutability":"nonpayable","type":"function"},{"inputs":[],"name":"fundsVault","outputs":[{"internalType":"address","name":"","type":"address"}],"stateMutability":"view","type":"function"},{"inputs":[],"name":"getAllRounds","outputs":[{"internalType":"address[]","name":"","type":"address[]"}],"stateMutability":"view","type":"function"},{"inputs":[{"internalType":"uint256","name":"index","type":"uint256"}],"name":"getRound","outputs":[{"internalType":"address","name":"","type":"address"}],"stateMutability":"view","type":"function"},{"inputs":[],"name":"getRoundCount","outputs":[{"internalType":"uint256","name":"","type":"uint256"}],"stateMutability":"view","type":"function"},{"inputs":[],"name":"kycRegistry","outputs":[{"internalType":"address","name":"","type":"address"}],"stateMutability":"view","type":"function"},{"inputs":[],"name":"nebaToken","outputs":[{"internalType":"contract IERC20","name":"","type":"address"}],"stateMutability":"view","type":"function"},{"inputs":[],"name":"owner","outputs":[{"internalType":"address","name":"","type":"address"}],"stateMutability":"view","type":"function"},{"inputs":[{"internalType":"uint256","name":"roundIndex","type":"uint256"}],"name":"pauseRound","outputs":[],"stateMutability":"nonpayable","type":"function"},{"inputs":[],"name":"paused","outputs":[{"internalType":"bool","name":"","type":"bool"}],"stateMutability":"view","type":"function"},{"inputs":[],"name":"rateLimiter","outputs":[{"internalType":"address","name":"","type":"address"}],"stateMutability":"view","type":"function"},{"inputs":[],"name":"referralSystem","outputs":[{"internalType":"contract ReferralSystem","name":"","type":"address"}],"stateMutability":"view","type":"function"},{"inputs":[],"name":"renounceOwnership","outputs":[],"stateMutability":"nonpayable","type":"function"},{"inputs":[{"internalType":"uint256","name":"","type":"uint256"}],"name":"rounds","outputs":[{"internalType":"contract SaleRound","name":"","type":"address"}],"stateMutability":"view","type":"function"},{"inputs":[{"internalType":"address","name":"target","type":"address"},{"internalType":"bytes","name":"data","type":"bytes"}],"name":"scheduleOperation","outputs":[{"internalType":"bytes32","name":"","type":"bytes32"}],"stateMutability":"nonpayable","type":"function"},{"inputs":[],"name":"timelockDelay","outputs":[{"internalType":"uint256","name":"","type":"uint256"}],"stateMutability":"view","type":"function"},{"inputs":[{"internalType":"bytes32","name":"","type":"bytes32"}],"name":"timelockOperations","outputs":[{"internalType":"bytes32","name":"operationId","type":"bytes32"},{"internalType":"address","name":"target","type":"address"},{"internalType":"bytes","name":"data","type":"bytes"},{"internalType":"uint256","name":"executeTime","type":"uint256"},{"internalType":"bool","name":"executed","type":"bool"}],"stateMutability":"view","type":"function"},{"inputs":[{"internalType":"address","name":"newOwner","type":"address"}],"name":"transferOwnership","outputs":[],"stateMutability":"nonpayable","type":"function"},{"inputs":[],"name":"unpause","outputs":[],"stateMutability":"nonpayable","type":"function"},{"inputs":[{"internalType":"uint256","name":"roundIndex","type":"uint256"}],"name":"unpauseRound","outputs":[],"stateMutability":"nonpayable","type":"function"},{"inputs":[{"internalType":"uint256","name":"newDelay","type":"uint256"}],"name":"updateTimelockDelay","outputs":[],"stateMutability":"nonpayable","type":"function"},{"inputs":[],"name":"usdc","outputs":[{"internalType":"address","name":"","type":"address"}],"stateMutability":"view","type":"function"},{"inputs":[],"name":"usdt","outputs":[{"internalType":"address","name":"","type":"address"}],"stateMutability":"view","type":"function"},{"inputs":[],"name":"vestingVault","outputs":[{"internalType":"address","name":"","type":"address"}],"stateMutability":"view","type":"function"}],"evm":{"bytecode":{"linkReferences":{},"object":"6101a06040818152346200038d578190600062006037803803809162000026828762000671565b8539610120938491810103126200034e57620000428462000695565b6020926200005284870162000695565b926200006082880162000695565b936200006f6060890162000695565b936200007e60808a0162000695565b6200008c60a08b0162000695565b906200009b60c08c0162000695565b96620000aa60e08d0162000695565b98620000bb610100809e0162000695565b956001600160a01b03958688169081156200062f5789546001600160a01b0319811683178b558b519289929183167f8be0079c531659141344cd1fd0a4f28419497f9722a3daafe3b4186f6b6457e08d80a36202a30060015516908115620005ed575086821615620005a95786831615620005655786841615620005215786851615620004dd57868616156200049957868b16156200045557868c1615620004115760805260a05260c05260e0528a528852610140948552610160958652835161105d808201906001600160401b03821183831017620003fd578991839162004fda833930815203019084f0968715620003f3578161018098808a52169185519263a217fddf60e01b84528284600481845afa9384156200039a578694620003be575b50803b15620003ba578651632f2ff15d60e01b80825260048201959095526001600160a01b03861660248201529086908290604490829084905af180156200039a57620003a4575b5088511691855163388e0a3760e21b81528281600481875afa9283156200039a5786936200035f575b5050823b156200035b57855190815260048101919091526001600160a01b0392909216602483015282908290604490829084905af18015620003515762000336575b5050519361492f9586620006ab873960805186818161092901526114fc015260a051868181610d550152611524015260c051868181610c7b015261154c015260e05186818161031b0152818161097001526115740152518581816108e2015261159c01525184818161134201526115ec0152518381816113890152611614015251828181610bed0152611641015251818181610292015281816109b701526115c40152f35b62000342829162000647565b6200034e578062000291565b80fd5b83513d84823e3d90fd5b8480fd5b9080929350813d831162000392575b6200037a818362000671565b810103126200038d57519038806200024f565b600080fd5b503d6200036e565b87513d88823e3d90fd5b620003b29095919562000647565b933862000226565b8580fd5b9093508281813d8311620003eb575b620003d9818362000671565b81010312620003ba57519238620001de565b503d620003cd565b84513d85823e3d90fd5b634e487b7160e01b86526041600452602486fd5b895162461bcd60e51b8152600481018e9052601860248201527f53616c654d616e616765723a207a65726f206f7261636c6500000000000000006044820152606490fd5b895162461bcd60e51b8152600481018e9052601660248201527f53616c654d616e616765723a207a65726f2075736474000000000000000000006044820152606490fd5b895162461bcd60e51b8152600481018e9052601660248201527f53616c654d616e616765723a207a65726f2075736463000000000000000000006044820152606490fd5b895162461bcd60e51b8152600481018e9052601760248201527f53616c654d616e616765723a207a65726f2066756e64730000000000000000006044820152606490fd5b895162461bcd60e51b8152600481018e9052601960248201527f53616c654d616e616765723a207a65726f2076657374696e67000000000000006044820152606490fd5b895162461bcd60e51b8152600481018e9052601960248201527f53616c654d616e616765723a207a65726f206c696d69746572000000000000006044820152606490fd5b895162461bcd60e51b8152600481018e9052601560248201527f53616c654d616e616765723a207a65726f206b796300000000000000000000006044820152606490fd5b62461bcd60e51b8152600481018e9052601760248201527f53616c654d616e616765723a207a65726f20746f6b656e0000000000000000006044820152606490fd5b8a51631e4fbdf760e01b8152600481018b9052602490fd5b6001600160401b0381116200065b57604052565b634e487b7160e01b600052604160045260246000fd5b601f909101601f19168101906001600160401b038211908210176200065b57604052565b51906001600160a01b03821682036200038d5756fe608060405260043610156200001357600080fd5b6000803560e01c80631803237a14620018b4578063263f4d9514620013b85780632f48ab7d14620013715780633e413bee146200132a5780633f4ba83a14620012555780634006d46a146200113657806347cd47b61462000d845780634b155b971462000d3d57806351858e271462000caa57806353d4fe331462000c635780635c975abb1462000c3c5780636de7da781462000c1c578063706eb3ab1462000bd5578063715018a61462000b775780638c65c81f1462000b475780638da5cb5b1462000b1e5780638e52d9d31462000a2b5780638f1327c014620009e6578063a04e876c146200099f578063a5917baf1462000958578063ac76a9081462000911578063b6cb7f4114620008ca578063beadf95714620007d0578063cbaf2fa714620005d0578063e3d0cc271462000569578063e5066bbf146200046e578063e700ea1c146200022e578063eef09bad146200020e5763f2fde38b146200017a57600080fd5b346200020b5760203660031901126200020b576200019762001a43565b620001a162001bc0565b6001600160a01b03908116908115620001f257600054826001600160601b0360a01b821617600055167f8be0079c531659141344cd1fd0a4f28419497f9722a3daafe3b4186f6b6457e0600080a380f35b604051631e4fbdf760e01b815260048101849052602490fd5b80fd5b50346200020b57806003193601126200020b576020600154604051908152f35b50346200020b57806020806003193601126200046b576200026a6004356200025562001bc0565b62000264600254821062001aa8565b62001a5a565b9054604051630b90fca160e01b808252909260031b9190911c6001600160a01b0390811691907f000000000000000000000000000000000000000000000000000000000000000081168585600481845afa9485156200042457879562000433575b50803b156200042f57604051632f2ff15d60e01b80825260048201969096526001600160a01b03851660248201529087908290604490829084905af19081156200042457879162000408575b50507f000000000000000000000000000000000000000000000000000000000000000016906040519081528481600481855afa948515620003fd578695620003bf575b5050803b15620003bb5760405192835260048301939093526001600160a01b031660248201529082908290604490829084905af18015620003b0576200039d5750f35b620003a89062001929565b6200020b5780f35b6040513d84823e3d90fd5b8480fd5b819650809295503d8311620003f5575b620003db81836200193e565b81010312620003f0578493519238806200035a565b600080fd5b503d620003cf565b6040513d88823e3d90fd5b620004139062001929565b6200042057853862000317565b8580fd5b6040513d89823e3d90fd5b8680fd5b965093508486813d811162000463575b6200044f81836200193e565b81010312620003f0578695519338620002cb565b503d62000443565b50fd5b50346200020b57806003193601126200020b576002546200048f8162001ba7565b916200049f60405193846200193e565b818352620004ad8262001ba7565b6020928484019291601f1901368437815b8181106200051157505060405193838594850191818652518092526040850193925b828110620004f057505050500390f35b83516001600160a01b031685528695509381019392810192600101620004e0565b6200052181969495939662001a5a565b90548551831015620005555760039190911b1c6001600160a01b0316600582901b85018401529294919392600101620004be565b634e487b7160e01b88526032600452602488fd5b50346200020b5760203660031901126200020b57806200058f6004356200025562001bc0565b905460039190911b1c6001600160a01b0316803b156200046b57818091600460405180948193631fa5d41d60e11b83525af18015620003b0576200039d5750f35b50346200020b57602080600319360112620007cc5760043590620005f362001bc0565b81835260038152604083206003810154906200061182151562001b0e565b600481018054926200062760ff85161562001b5a565b42106200077d57908591600190600160ff19809616179055600260018060a01b0360018401541692019360405191849580546200066481620019ba565b9360018216918215620007665750506001146200072b575b5050508281819503925af13d1562000725573d6200069a8162001961565b90620006aa60405192836200193e565b815284833d92013e5b15620006e157507f1277662f4b42b8a4069e99fb5e41ce8919d3c621156090ac08fb11adbcec66f98280a280f35b6064906040519062461bcd60e51b82526004820152601d60248201527f53616c654d616e616765723a20657865637574696f6e206661696c65640000006044820152fd5b620006b3565b87965085528585209085915b8383106200074f57505050810193508281816200067c565b80548386015288978b975090920191810162000737565b16855250505080151502810193508281816200067c565b60405162461bcd60e51b815260048101859052602160248201527f53616c654d616e616765723a2074696d656c6f636b206e6f74206578706972656044820152601960fa1b6064820152608490fd5b5080fd5b50346200020b5760203660031901126200020b57600435620007f162001bc0565b80825260036020526200082060ff600460408520620008166003820154151562001b0e565b0154161562001b5a565b8082526003602052816004604082206000815582600182015582600282016200084a8154620019ba565b8062000884575b5050506000600382015501557fcf0f63b97f3387253cbc0bde884f975df77e39184dc3280c2c81be495f58eef48280a280f35b601f8111600114620008a0575060009150555b82388062000851565b90806000918452620008c2601f60208620940160051c84016001850162001af5565b555562000897565b50346200020b57806003193601126200020b576040517f00000000000000000000000000000000000000000000000000000000000000006001600160a01b03168152602090f35b50346200020b57806003193601126200020b576040517f00000000000000000000000000000000000000000000000000000000000000006001600160a01b03168152602090f35b50346200020b57806003193601126200020b576040517f00000000000000000000000000000000000000000000000000000000000000006001600160a01b03168152602090f35b50346200020b57806003193601126200020b576040517f00000000000000000000000000000000000000000000000000000000000000006001600160a01b03168152602090f35b50346200020b5760203660031901126200020b57602062000a1260043562000264600254821062001aa8565b905460405160039290921b1c6001600160a01b03168152f35b50346200020b5760203660031901126200020b5760043562000a4c62001bc0565b62015180811062000ad95762093a80811162000a94576020817fedd2c15cb1225ce15cf67efa55cea2672bfea32d9d9cbf34716bd04b76194b5392600155604051908152a180f35b60405162461bcd60e51b815260206004820152601b60248201527f53616c654d616e616765723a2064656c617920746f6f206c6f6e6700000000006044820152606490fd5b60405162461bcd60e51b815260206004820152601c60248201527f53616c654d616e616765723a2064656c617920746f6f2073686f7274000000006044820152606490fd5b50346200020b57806003193601126200020b57546040516001600160a01b039091168152602090f35b50346200020b5760203660031901126200020b57600435906002548210156200020b57602062000a128362001a5a565b50346200020b57806003193601126200020b5762000b9462001bc0565b600080546001600160a01b0319811682556001600160a01b03167f8be0079c531659141344cd1fd0a4f28419497f9722a3daafe3b4186f6b6457e08280a380f35b50346200020b57806003193601126200020b576040517f00000000000000000000000000000000000000000000000000000000000000006001600160a01b03168152602090f35b50346200020b57806003193601126200020b576020600254604051908152f35b50346200020b57806003193601126200020b5760ff6020915460a01c166040519015158152f35b50346200020b57806003193601126200020b576040517f00000000000000000000000000000000000000000000000000000000000000006001600160a01b03168152602090f35b50346200020b57806003193601126200020b5762000cc762001bc0565b62000cd162001bed565b805460ff60a01b1916600160a01b1781556040513381527f62e78cea01bee320cd4e420270b5ea74000d11b0c9f74754ebdbfc544b05a25890602090a16040514281527f6eae7d8f48015fddc9502717696ac737bec3d20c703c3958a689f8f48574718360203392a280f35b50346200020b57806003193601126200020b576040517f00000000000000000000000000000000000000000000000000000000000000006001600160a01b03168152602090f35b50346200020b5760403660031901126200020b5762000da262001a43565b60249167ffffffffffffffff918335838111620011325736602382011215620011325762000dda90369086816004013591016200197e565b9362000de562001bc0565b6001600160a01b039482861615620010ee5760405160208101906001600160601b03198560601b16825262000e42605482855162000e2b816034840160208a01620019f7565b81014260348201520360348101845201826200193e565b519020948585526003908160205281604087200154620010aa576001805442019687421162001097576040519560a0870187811085821117620010825760405289875260208701958b89168752604088019081528960608901528260808901528a8352856020526040832096885188558c8589019151166001600160601b0360a01b825416179055519081519485116200107057509185939160209b97959362000ef260028d9b990154620019ba565b601f81116200102e575b508c91601f851160011462000f91579380808f9a9894956004967f991e9b0e2f98c3989f4541ce66e9aca44e8bfb1c75bcf862d80f800369e6c6a39d9b99956080999462000f85575b50501b9160001990841b1c19161760028301555b60608501519082015501910151151560ff801983541691161790556040519586521693a3604051908152f35b01519250388062000f45565b91906002879594950183528d8320925b601f198516811062001015575093838e9997937f991e9b0e2f98c3989f4541ce66e9aca44e8bfb1c75bcf862d80f800369e6c6a39b999793608097600497601f1981161062000ffc575b505050811b01600283015562000f59565b015160001983861b60f8161c1916905538808062000feb565b8282015184558d9b5092850192918e01918e0162000fa1565b6200105e906002880184528e8420601f870160051c8101916020881062001065575b601f0160051c019062001af5565b3862000efc565b909150819062001050565b634e487b7160e01b8352604160045282fd5b50634e487b7160e01b60009081526041600452fd5b634e487b7160e01b815260116004528590fd5b60405162461bcd60e51b815260206004820152601d818601527f53616c654d616e616765723a206f7065726174696f6e206578697374730000006044820152606490fd5b60405162461bcd60e51b8152602060048201526018818401527f53616c654d616e616765723a207a65726f2074617267657400000000000000006044820152606490fd5b8280fd5b50346200020b57602090816003193601126200020b57600435815260038252604081208054916001808060a01b0360018401541691856002850160405193838254926200118384620019ba565b80885293600181169081156200122e5750600114620011f1575b505050505090620011b581620011e09303826200193e565b60ff600460038601549501541692604051968796875286015260a0604086015260a085019062001a1c565b916060840152151560808301520390f35b9080949550528383205b8284106200121a575050508201018582620011e0620011b5386200119d565b8054868501860152928401928101620011fb565b60ff19168689015250505050151560051b83010190508582620011e0620011b5386200119d565b50346200020b57806003193601126200020b576200127262001bc0565b805460ff8160a01c1615620012e55760ff60a01b191681556040513381527f5db9ee0a495bf2e6ff9c91a7834c1ba4fdd244a5e8aa4e537bd38aeae4b073aa90602090a16040514281527fe3338c1c649986dbdcc0a34160c789b50eda42615d8768c5b7518b40af6a80b260203392a280f35b60405162461bcd60e51b815260206004820152601760248201527f53616c654d616e616765723a206e6f74207061757365640000000000000000006044820152606490fd5b50346200020b57806003193601126200020b576040517f00000000000000000000000000000000000000000000000000000000000000006001600160a01b03168152602090f35b50346200020b57806003193601126200020b576040517f00000000000000000000000000000000000000000000000000000000000000006001600160a01b03168152602090f35b50346200020b57600319906020368301126200020b576004359167ffffffffffffffff908184116200113257610100908436030112620007cc57604051926101008401848110838211176200189e5760405280600401358281116200189a578101366023820112156200189a57906200143e60e49236906024600482013591016200197e565b85526024810135602086015260448101356040860152606481013560608601526084810135608086015260a481013560a086015260c481013560c086015201358015158103620011325760e08401526200149762001bc0565b620014a162001bed565b60208301511562001855576040830151156200181057608083015160608401511015620017cb576040519081612cea81011090612cea83011117620017ab57612cea62001c10823930612cea82019081526001600160a01b037f0000000000000000000000000000000000000000000000000000000000000000811660208301527f0000000000000000000000000000000000000000000000000000000000000000811660408301527f0000000000000000000000000000000000000000000000000000000000000000811660608301527f0000000000000000000000000000000000000000000000000000000000000000811660808301527f0000000000000000000000000000000000000000000000000000000000000000811660a08301527f0000000000000000000000000000000000000000000000000000000000000000811660c08301527f0000000000000000000000000000000000000000000000000000000000000000811660e08301527f00000000000000000000000000000000000000000000000000000000000000008116610100808401919091527f00000000000000000000000000000000000000000000000000000000000000009091166101208301526101606101408301819052855190830191909152829162001691916102609091019062001a1c565b6020850151612cea830161018081019190915260408601516101a082015260608601516101c082015260808601516101e082015260a086015161020082015260c086015161022082015260e0860151151561024090910152039082f0908115620017bf5760025468010000000000000000811015620017ab578060016200171c920160025562001a5a565b81546001600160a01b0394851660039290921b82811b95901b1916939093179055600254600019810191908211620017975750817fa98bd13e2a1784a8b1fad5a350965eabeb5d68decd86b4c1bf8ec7c5bf3e08906200178c602095516040519182918883528883019062001a1c565b0390a3604051908152f35b634e487b7160e01b81526011600452602490fd5b634e487b7160e01b82526041600452602482fd5b604051903d90823e3d90fd5b60405162461bcd60e51b815260206004820152601f60248201527f53616c654d616e616765723a20696e76616c69642074696d652072616e6765006044820152606490fd5b60405162461bcd60e51b815260206004820152601d60248201527f53616c654d616e616765723a20696e76616c69642068617264206361700000006044820152606490fd5b60405162461bcd60e51b815260206004820152601a60248201527f53616c654d616e616765723a20696e76616c69642070726963650000000000006044820152606490fd5b8380fd5b634e487b7160e01b600052604160045260246000fd5b50346200020b5760203660031901126200020b5780620018da6004356200025562001bc0565b905460039190911b1c6001600160a01b0316803b156200046b578190600460405180948193638456cb5960e01b83525af18015620003b0576200191b575080f35b620019269062001929565b80f35b67ffffffffffffffff81116200189e57604052565b90601f8019910116810190811067ffffffffffffffff8211176200189e57604052565b67ffffffffffffffff81116200189e57601f01601f191660200190565b9291926200198c8262001961565b916200199c60405193846200193e565b829481845281830111620003f0578281602093846000960137010152565b90600182811c92168015620019ec575b6020831014620019d657565b634e487b7160e01b600052602260045260246000fd5b91607f1691620019ca565b60005b83811062001a0b5750506000910152565b8181015183820152602001620019fa565b9060209162001a3781518092818552858086019101620019f7565b601f01601f1916010190565b600435906001600160a01b0382168203620003f057565b60025481101562001a925760026000527f405787fa12a823e0f2b7631cc41b3ba8828b3321ca811111fa75cd3aa3bb5ace0190600090565b634e487b7160e01b600052603260045260246000fd5b1562001ab057565b60405162461bcd60e51b815260206004820152601a60248201527f53616c654d616e616765723a20696e76616c696420696e6465780000000000006044820152606490fd5b81811062001b01575050565b6000815560010162001af5565b1562001b1657565b606460405162461bcd60e51b815260206004820152602060248201527f53616c654d616e616765723a206f7065726174696f6e206e6f7420666f756e646044820152fd5b1562001b6257565b60405162461bcd60e51b815260206004820152601d60248201527f53616c654d616e616765723a20616c72656164792065786563757465640000006044820152606490fd5b67ffffffffffffffff81116200189e5760051b60200190565b6000546001600160a01b0316330362001bd557565b60405163118cdaa760e01b8152336004820152602490fd5b60ff60005460a01c1662001bfd57565b60405163d93c066560e01b8152600490fdfe6101c0604052346200086c5762002cea803803806200001e816200088b565b9283396101608282810103126200086c576200003a82620008b1565b6200004860208401620008b1565b6200005660408501620008b1565b6200006460608601620008b1565b6200007260808701620008b1565b906200008160a08801620008b1565b926200009060c08901620008b1565b946200009f60e08a01620008b1565b96620000af6101008b01620008b1565b98620000bf6101208c01620008b1565b6101408c0151909b90916001600160401b0383116200086c5761010083830182840103126200086c576040516101a081905261010081019081106001600160401b03821117620005a457604052818301516001600160401b0381116200086c57818301601f82868601010112156200086c57828401810151906001600160401b038211620005a4576200015c601f8301601f19166020016200088b565b92828452840160208383888801010101116200086c5760005b82811062000871575050906000602060e0959493830101526101a051526020828201015160206101a05101526040828201015160406101a05101526060828201015160606101a05101526080828201015160806101a051015260a0828201015160a06101a051015260c0828201015160c06101a051015201015180151581036200086c576101a05160e0015260016000556001600160a01b0381161562000827576001600160a01b03821615620007e2576001600160a01b038316156200079d576001600160a01b0384161562000758576001600160a01b0385161562000713576001600160a01b03861615620006ce576001600160a01b0387161562000689576001600160a01b0388161562000644576001600160a01b03891615620005ff576001600160a01b038a1615620005ba576080526001600160a01b0390811660a05290811660c05290811660e0529081166101005290811661012052908116610140529081166101605290811661018052600a80546001600160a01b031916929091169190911790556101a0515180516001600160401b038111620005a457600254600181811c9116801562000599575b60208210146200058357601f811162000519575b50602091601f8211600114620004af57918192600092620004a3575b50508160011b916000199060031b1c1916176002555b60206101a051015160035560406101a051015160045560606101a051015160055560806101a051015160065560a06101a051015160075560c06101a051015160085560e06101a0510151151560ff8019600954169116176009556040516124239081620008c78239608051818181610619015281816108390152818161111401528181611366015261155b015260a051816103c0015260c0518181816107f50152611d1b015260e0518181816107b10152611d5501526101005181818161040401528181610a6301528181610cd201528181611f2f015261212f0152610120518181816102650152818161037c0152610b2501526101405181818161044801528181610bc60152818161125901526120130152610160518181816104f801526111a701526101805181818161020f01526111eb0152f35b01519050388062000356565b601f19821692600260005260206000209160005b8581106200050057508360019510620004e6575b505050811b016002556200036c565b015160001960f88460031b161c19169055388080620004d7565b91926020600181928685015181550194019201620004c3565b60026000527f405787fa12a823e0f2b7631cc41b3ba8828b3321ca811111fa75cd3aa3bb5ace601f830160051c8101916020841062000578575b601f0160051c01905b8181106200056b57506200033a565b600081556001016200055c565b909150819062000553565b634e487b7160e01b600052602260045260246000fd5b90607f169062000326565b634e487b7160e01b600052604160045260246000fd5b60405162461bcd60e51b815260206004820152601660248201527f53616c65526f756e643a207a65726f206f7261636c65000000000000000000006044820152606490fd5b60405162461bcd60e51b815260206004820152601460248201527f53616c65526f756e643a207a65726f20757364740000000000000000000000006044820152606490fd5b60405162461bcd60e51b815260206004820152601460248201527f53616c65526f756e643a207a65726f20757364630000000000000000000000006044820152606490fd5b60405162461bcd60e51b815260206004820152601860248201527f53616c65526f756e643a207a65726f20726566657272616c00000000000000006044820152606490fd5b60405162461bcd60e51b815260206004820152601560248201527f53616c65526f756e643a207a65726f2066756e647300000000000000000000006044820152606490fd5b60405162461bcd60e51b815260206004820152601760248201527f53616c65526f756e643a207a65726f2076657374696e670000000000000000006044820152606490fd5b60405162461bcd60e51b815260206004820152601760248201527f53616c65526f756e643a207a65726f206c696d697465720000000000000000006044820152606490fd5b60405162461bcd60e51b815260206004820152601360248201527f53616c65526f756e643a207a65726f206b7963000000000000000000000000006044820152606490fd5b60405162461bcd60e51b815260206004820152601560248201527f53616c65526f756e643a207a65726f20746f6b656e00000000000000000000006044820152606490fd5b60405162461bcd60e51b815260206004820152601760248201527f53616c65526f756e643a207a65726f206d616e616765720000000000000000006044820152606490fd5b600080fd5b806020809284898901010101518282870101520162000175565b6040519190601f01601f191682016001600160401b03811183821017620005a457604052565b51906001600160a01b03821682036200086c5756fe60806040908082526004908136101561001757600080fd5b600091823560e01c91826307b6859a1461146a575081630b6d621c146114325781631252af75146114135781631cb44dfc1461133b57816321874ae21461121a5781632f48ab7d146111d65781633e413bee146111925781633f4ba83a146110fb57816342e94c90146110c3578163444aa92f1461086857918093928263481c6a75146108245782634b155b97146107e057826353d4fe331461079c5782635c975abb146107785782636386c1c71461072057826363b2011714610701578263706eb3ab146106d857826379502c55146106635782638456cb59146105dc57826384bc76a61461052f5782638c28c31a14610477578263a04e876c14610433578263a5917baf146103ef578263ac76a908146103ab578263b6cb7f4114610367578263d095362f1461018e57505063ff5bc5a61461015457600080fd5b3461018a57602036600319011261018a5760209181906001600160a01b0361017a6118f5565b168152600f845220549051908152f35b5080fd5b915091346103635780600319360112610363578135916101ac611910565b926101b5611c9d565b6101bd611cc0565b6101cb60ff60095416611b89565b6101d9600554421015611bcd565b6101e7600654421115611c12565b6101f5600b54835411611c51565b6101ff8133611cf5565b61020881611e35565b9361024f827f000000000000000000000000000000000000000000000000000000000000000061024660018060a01b03948583169984808c33611e96565b3090339061234e565b835163095ea7b360e01b81526001600160a01b037f0000000000000000000000000000000000000000000000000000000000000000929092169182168482019081526020818101859052908290819060400103818a8a5af180156103595761032a575b50803b156103265783516319c5aef560e11b81526001600160a01b039095169285019283526020830191909152849184919082908490829060400103925af190811561031d5750610306575b506001905580f35b61030f906118a3565b61031a5780386102fe565b80fd5b513d84823e3d90fd5b8580fd5b61034b9060203d602011610352575b61034381836118b7565b810190611b71565b50386102b2565b503d610339565b85513d89823e3d90fd5b5050fd5b50823461018a578160031936011261018a57517f00000000000000000000000000000000000000000000000000000000000000006001600160a01b03168152602090f35b50823461018a578160031936011261018a57517f00000000000000000000000000000000000000000000000000000000000000006001600160a01b03168152602090f35b50823461018a578160031936011261018a57517f00000000000000000000000000000000000000000000000000000000000000006001600160a01b03168152602090f35b50823461018a578160031936011261018a57517f00000000000000000000000000000000000000000000000000000000000000006001600160a01b03168152602090f35b91509134610363578060031936011261036357813591610495611910565b9261049e611c9d565b6104a6611cc0565b6104b460ff60095416611b89565b6104c2600554421015611bcd565b6104d0600654421115611c12565b6104de600b54835411611c51565b6104e88133611cf5565b6104f181611e35565b9361024f827f000000000000000000000000000000000000000000000000000000000000000061024660018060a01b03948583169984808c33611e96565b83346105d857826003193601126105d8576105d49260e0825161055181611870565b6060815282602082015282848201528260608201528260808201528260a08201528260c0820152015280519161058683611870565b61058e611960565b8352600354602084015254818301526005546060830152600654608083015260075460a083015260085460c083015260ff60095416151560e08301525191829182611a66565b0390f35b8280fd5b50823461018a578160031936011261018a577f62e78cea01bee320cd4e420270b5ea74000d11b0c9f74754ebdbfc544b05a25890602090610647337f00000000000000000000000000000000000000000000000000000000000000006001600160a01b031614611acc565b61064f611cc0565b600160ff198154161760015551338152a180f35b8390346105d857826003193601126105d8576106b09250610682611960565b916003549154600554600654600754916008549360ff60095416958051998a99610100808c528b0190611a26565b9760208a01528801526060870152608086015260a085015260c0840152151560e08301520390f35b50823461018a578160031936011261018a57600a5490516001600160a01b039091168152602090f35b50823461018a578160031936011261018a57602090600c549051908152f35b50823461018a57602036600319011261018a576001600160a01b036107436118f5565b168252600d602090815281832054600e825282842054600f835293839020549251908152908101929092526040820152606090f35b50823461018a578160031936011261018a5760209060ff6001541690519015158152f35b50823461018a578160031936011261018a57517f00000000000000000000000000000000000000000000000000000000000000006001600160a01b03168152602090f35b50823461018a578160031936011261018a57517f00000000000000000000000000000000000000000000000000000000000000006001600160a01b03168152602090f35b50823461018a578160031936011261018a57517f00000000000000000000000000000000000000000000000000000000000000006001600160a01b03168152602090f35b9050602092836003193601126105d8576108806118f5565b93610889611c9d565b610891611cc0565b61089f60ff60095416611b89565b6108ad600554421015611bcd565b6108bb600654421115611c12565b6108c9600b54845411611c51565b341561108c57600a548251633fabe5a360e21b8184019081528582526001600160a01b03939284169180860167ffffffffffffffff8111828210176110795786525187928392905afa3d15611071573d90610923826118d9565b91610930865193846118b7565b82523d878484013e5b1561102e5760a08180518101031261032657610956828201611cde565b90848101519161096d60a060808401519301611cde565b91610979898513611b11565b8015610feb574203428111610fd857610e1010610f955769ffffffffffffffffffff809116911610610f525764174876e80081101580610f43575b15610f0057606490048034029034820403610eed57670de0b6b3a764000090046109de8133611cf5565b6109e781611e35565b86926109f583600b54611e89565b875410610eab57338852600d8152858820610a11848254611e89565b9055338852600e8152858820610a28838254611e89565b9055610a3683600b54611e89565b600b55610a4582600c54611e89565b600c558482991680151580610ea1575b610bb3575b505060065497847f00000000000000000000000000000000000000000000000000000000000000001660075460085492823b15610baf5788516375591d5f60e11b815233818c01908152602081019290925260408201929092526060810193909352608083019a909a5284918a919082908490829060a00103925af1978815610ba557879897959697610b85575b5085513481526020810192909252604082015233907f8f7a55179307cea51948432d653dbd53a23fedc388bcb3e04e311f8220d8786490606090a37f000000000000000000000000000000000000000000000000000000000000000016803b1561018a57825163f6326fb360e01b8152938491829034905af190811561031d5750610b76575b506001815580f35b610b7f906118a3565b38610b6e565b83949550610b9690939192936118a3565b6105d857908693929138610ae8565b85513d85823e3d90fd5b8680fd5b8651630308a59b60e31b815233898201527f0000000000000000000000000000000000000000000000000000000000000000871691908381602481865afa908115610e975790859392918c91610e7a575b5015610e13575b50875163d8abfee560e01b815233818b019081526020810193909352929160609184918290899082906040015b03925af1918215610e0957859286918791610dbe575b508784169283610c61575b505050610a5a565b90919280949c508752600e8152888720610c7c848254611e89565b9055838752600f8152888720610c93848254611e89565b9055338752600f8152888720610caa838254611e89565b9055610cc1610cb98385611e89565b600c54611e89565b600c55610cce8286611e89565b9b887f0000000000000000000000000000000000000000000000000000000000000000166007549160085460065490833b15610dba57918b8f8f8296948b96610d519251998a98899788966375591d5f60e11b885287019192608093969594919660a084019760018060a01b031684526020840152604083015260608201520152565b03925af18015610db057908891610d9c575b505088519283528201527f8a888a9ac1098c12b38ade27d5d5b51ce092d9271475e3024a084bfc73fd5798873392a33880808080610c59565b610da5906118a3565b610baf578638610d63565b8a513d8a823e3d90fd5b8b80fd5b935050506060823d606011610e01575b81610ddb606093836118b7565b81010312610dfd57610dec82611b5d565b878284015193015190929038610c4e565b8480fd5b3d9150610dce565b87513d87823e3d90fd5b908092503b15610e7657875190635603b9f960e01b8252338a8301526024820152898160448183865af18015610e6c57610e50575b908391610c0b565b610c3892919550610e60906118a3565b88949091506060610e48565b88513d8c823e3d90fd5b8980fd5b610e919150853d87116103525761034381836118b7565b38610c04565b89513d8d823e3d90fd5b5033811415610a55565b8660649187519162461bcd60e51b8352820152601b60248201527f53616c65526f756e643a206578636565647320686172642063617000000000006044820152fd5b634e487b7160e01b865260118552602486fd5b835162461bcd60e51b8152808601839052601e60248201527f53616c65526f756e643a207072696365206f7574206f6620626f756e647300006044820152606490fd5b5064e8d4a510008111156109b4565b835162461bcd60e51b8152808601839052601b60248201527f53616c65526f756e643a207374616c6520726f756e64206461746100000000006044820152606490fd5b855162461bcd60e51b8152808801859052601b60248201527f53616c65526f756e643a207374616c65207072696365206461746100000000006044820152606490fd5b634e487b7160e01b895260118852602489fd5b865162461bcd60e51b8152808901869052601c60248201527f53616c65526f756e643a20696e76616c69642074696d657374616d70000000006044820152606490fd5b835162461bcd60e51b8152808601839052601d60248201527f53616c65526f756e643a206f7261636c652063616c6c206661696c65640000006044820152606490fd5b606090610939565b634e487b7160e01b895260418852602489fd5b905162461bcd60e51b81529182015260136024820152720a6c2d8caa4deeadcc87440f4cae4de408aa89606b1b6044820152606490fd5b82843461018a57602036600319011261018a5760209181906001600160a01b036110eb6118f5565b168152600d845220549051908152f35b839150346105d857826003193601126105d857611142337f00000000000000000000000000000000000000000000000000000000000000006001600160a01b031614611acc565b6001549060ff821615611184575060ff1916600155513381527f5db9ee0a495bf2e6ff9c91a7834c1ba4fdd244a5e8aa4e537bd38aeae4b073aa90602090a180f35b8251638dfc202b60e01b8152fd5b82843461018a578160031936011261018a57517f00000000000000000000000000000000000000000000000000000000000000006001600160a01b03168152602090f35b82843461018a578160031936011261018a57517f00000000000000000000000000000000000000000000000000000000000000006001600160a01b03168152602090f35b9190503461031a576020908160031936011261031a576112386118f5565b8451634a9fefc760e01b81526001600160a01b0391821681860181905290947f0000000000000000000000000000000000000000000000000000000000000000831691908587602481865afa9687156113315785976112f4575b50906024869289519485938492630308a59b60e31b84528301525afa9283156112e957926112ca575b50845193168352151590820152f35b6112e2919250833d85116103525761034381836118b7565b90386112bb565b8651903d90823e3d90fd5b9096508581813d831161132a575b61130c81836118b7565b81010312610dfd579060246113218793611b5d565b97919250611292565b503d611302565b88513d87823e3d90fd5b839150346105d85760203660031901126105d8576113576118f5565b6001600160a01b039061138d337f0000000000000000000000000000000000000000000000000000000000000000841614611acc565b169182156113d0575050600a80546001600160a01b031916821790557f3df77beb5db05fcdd70a30fc8adf3f83f9501b68579455adbd100b81809403948280a280f35b906020606492519162461bcd60e51b8352820152601760248201527f53616c65526f756e643a207a65726f20616464726573730000000000000000006044820152fd5b82843461018a578160031936011261018a57602090600b549051908152f35b82843461018a57602036600319011261018a5760209181906001600160a01b0361145a6118f5565b168152600e845220549051908152f35b8484923461186c5760031990602036830181136103265781359267ffffffffffffffff9081851161186857610100908536030112610baf576114ab86611870565b8383013581811161186857840192366023850112156118685780840135886024956114d5836118d9565b926114e28a5194856118b7565b808452368882840101116105d857808888930183860137830101528752828701848601358152868801906044870135825260608901936064880135855260808a01956084890135875260a08b019760a48a0135895260e460c08d019a60c48101358c52013580151581036118645760e08d0152611589337f00000000000000000000000000000000000000000000000000000000000000006001600160a01b031614611acc565b61159584511515611b11565b845115611823578751875110156117e25789518951116117a1578b5190815193841161179057506115c7600254611926565b8d601f821161172a575b9050508c82601f85116001146116775750927fca5e88616919440603f1ae53082dab032daf45557362fafd80a4852bd6cdad859c9a9896949281926116669d9b9997959261166c575b50508160011b916000199060031b1c1916176002555b516003555190555160055551600655516007555160085560e0820151151560ff8019600954169116176009555191829182611a66565b0390a180f35b015190508e8061161a565b600282527f405787fa12a823e0f2b7631cc41b3ba8828b3321ca811111fa75cd3aa3bb5ace939291601f198616915b8282106117125750509260019285927fca5e88616919440603f1ae53082dab032daf45557362fafd80a4852bd6cdad859f9d9b999795966116669f9d9b9997106116f9575b505050811b01600255611630565b015160001960f88460031b161c191690558e80806116eb565b806001869782949787015181550196019401906116a6565b600290527f405787fa12a823e0f2b7631cc41b3ba8828b3321ca811111fa75cd3aa3bb5ace601f850160051c810191848610611786575b601f0160051c01908e905b82811061177957506115d1565b6001918155018e9061176c565b9091508190611761565b634e487b7160e01b8e52604187528dfd5b601a86916064938d519362461bcd60e51b85528401528201527f53616c65526f756e643a20696e76616c69642076657374696e670000000000006044820152fd5b601d86916064938d519362461bcd60e51b85528401528201527f53616c65526f756e643a20696e76616c69642074696d652072616e67650000006044820152fd5b601b86916064938d519362461bcd60e51b85528401528201527f53616c65526f756e643a20696e76616c696420686172642063617000000000006044820152fd5b8d80fd5b8780fd5b8380fd5b610100810190811067ffffffffffffffff82111761188d57604052565b634e487b7160e01b600052604160045260246000fd5b67ffffffffffffffff811161188d57604052565b90601f8019910116810190811067ffffffffffffffff82111761188d57604052565b67ffffffffffffffff811161188d57601f01601f191660200190565b600435906001600160a01b038216820361190b57565b600080fd5b602435906001600160a01b038216820361190b57565b90600182811c92168015611956575b602083101461194057565b634e487b7160e01b600052602260045260246000fd5b91607f1691611935565b604051906000826002549161197483611926565b80835292602090600190818116908115611a0257506001146119a1575b505061199f925003836118b7565b565b91509260026000527f405787fa12a823e0f2b7631cc41b3ba8828b3321ca811111fa75cd3aa3bb5ace936000925b8284106119ea575061199f9450505081016020013880611991565b855488850183015294850194879450928101926119cf565b9150506020925061199f94915060ff191682840152151560051b8201013880611991565b919082519283825260005b848110611a52575050826000602080949584010152601f8019910116010190565b602081830181015184830182015201611a31565b60208152815160e0611a8661010092836020860152610120850190611a26565b93602081015160408501526040810151606085015260608101516080850152608081015160a085015260a081015160c085015260c0810151828501520151151591015290565b15611ad357565b60405162461bcd60e51b815260206004820152601660248201527529b0b632a937bab7321d103737ba1036b0b730b3b2b960511b6044820152606490fd5b15611b1857565b60405162461bcd60e51b815260206004820152601860248201527f53616c65526f756e643a20696e76616c696420707269636500000000000000006044820152606490fd5b51906001600160a01b038216820361190b57565b9081602091031261190b5751801515810361190b5790565b15611b9057565b60405162461bcd60e51b815260206004820152601560248201527453616c65526f756e643a206e6f742061637469766560581b6044820152606490fd5b15611bd457565b60405162461bcd60e51b815260206004820152601660248201527514d85b19549bdd5b990e881b9bdd081cdd185c9d195960521b6044820152606490fd5b15611c1957565b60405162461bcd60e51b815260206004820152601060248201526f14d85b19549bdd5b990e88195b99195960821b6044820152606490fd5b15611c5857565b60405162461bcd60e51b815260206004820152601b60248201527f53616c65526f756e643a206861726420636170207265616368656400000000006044820152606490fd5b600260005414611cae576002600055565b604051633ee5aeb560e01b8152600490fd5b60ff60015416611ccc57565b60405163d93c066560e01b8152600490fd5b519069ffffffffffffffffffff8216820361190b57565b6040516373bed91960e11b81526001600160a01b038281166004830152906020816024817f000000000000000000000000000000000000000000000000000000000000000086165afa908115611dc557600091611e16575b5015611dd1577f00000000000000000000000000000000000000000000000000000000000000001691823b1561190b576040516338d7278960e21b81526001600160a01b039290921660048301526024820152906000908290604490829084905af18015611dc557611dbc5750565b61199f906118a3565b6040513d6000823e3d90fd5b60405162461bcd60e51b815260206004820152601b60248201527f53616c65526f756e643a206e6f74204b594320617070726f76656400000000006044820152606490fd5b611e2f915060203d6020116103525761034381836118b7565b38611d4d565b670de0b6b3a764000090818102918183041490151715611e7357600354908115611e5d570490565b634e487b7160e01b600052601260045260246000fd5b634e487b7160e01b600052601160045260246000fd5b91908201809211611e7357565b929493909194600b54611eab82600092611e89565b9060049182541061230a5760018060a01b039586811697888352602093600d8552604094858520611edd888254611e89565b90558a8552600e8152858520611ef4898254611e89565b9055611f0287600b54611e89565b600b55611f1188600c54611e89565b600c558988931680151580612300575b612010575b505060065492897f0000000000000000000000000000000000000000000000000000000000000000169160075494600854843b156118685788516375591d5f60e11b81526001600160a01b039094169284019283526020830195909552604082019590955260608101939093526080830193909352839183919082908490829060a00103925af1801561200657611ff2575b5050519586526020860152604085015216917f8f7a55179307cea51948432d653dbd53a23fedc388bcb3e04e311f8220d8786490606090a3565b611ffc82916118a3565b61031a5780611fb8565b83513d84823e3d90fd5b8a7f000000000000000000000000000000000000000000000000000000000000000016908751630308a59b60e31b81528d858201528381602481865afa9081156122f65790889493929185916122d9575b5015612274575b50875163d8abfee560e01b81526001600160a01b038716858201908152602081018c9052909360609285929091839182906040015b03925af190811561226a57869287908893612222575b508c841692836120c6575b505050611f26565b909192809496508852600e83528888206120e1838254611e89565b9055838852600f83528888206120f8838254611e89565b90558d8852600f835288882061210f828254611e89565b905561211e610cb98284611e89565b600c5561212b818c611e89565b958d7f0000000000000000000000000000000000000000000000000000000000000000166007549160085460065490833b1561221e578d516375591d5f60e11b81526001600160a01b03909316838b0190815260208101889052604081019590955260608501526080840152918a91839182908490829060a00103925af1801561221457918f93918a908c946121f4575b50507f8a888a9ac1098c12b38ade27d5d5b51ce092d9271475e3024a084bfc73fd579893948351928352820152a338808080806120be565b90929593506122049194506118a3565b611868579188908e9289386121bc565b8a513d8b823e3d90fd5b8c80fd5b93505090506060823d606011612262575b81612240606093836118b7565b810103126103265761225182611b5d565b9087818401519301519192386120b3565b3d9150612233565b87513d88823e3d90fd5b90809293503b15610baf57875190635603b9f960e01b82528d858301526024820152868160448183865af180156122cf576122b3575b90869291612068565b61209d966122c56060929493946118a3565b96509190916122aa565b88513d89823e3d90fd5b6122f09150843d86116103525761034381836118b7565b38612061565b89513d8a823e3d90fd5b508b811415611f21565b60405162461bcd60e51b8152602081840152601b60248201527f53616c65526f756e643a206578636565647320686172642063617000000000006044820152606490fd5b6040516323b872dd60e01b602082019081526001600160a01b039384166024830152938316604482015260648082019590955293845292909160a082019067ffffffffffffffff82118383101761188d57602092600092604052519082865af115611dc5576000513d6123e457508082163b155b6123ca575050565b604051635274afe760e01b81529116600482015260249150fd5b600114156123c256fea26469706673582212204a553842d5a35f8df962cf89760aebc7934cc89eb1e952c922104bf1fbe7a9f064736f6c63430008180033a2646970667358221220654ceeed78bd46e705a868f287983a8249435f4c8ce34ed9c6a6ef78fb1e815f64736f6c634300081800336080346100c757601f61105d38819003918201601f19168301916001600160401b038311848410176100cc578084926020946040528339810103126100c757516001600160a01b0381168082036100c7576101f48060015560025515610082578061006c610072926100e2565b50610160565b50604051610e3c90816102018239f35b60405162461bcd60e51b815260206004820152601c60248201527f526566657272616c53797374656d3a207a65726f2061646472657373000000006044820152606490fd5b600080fd5b634e487b7160e01b600052604160045260246000fd5b6001600160a01b031660008181527fad3228b676f7d3cd4284a5443f17f1962b36e491b30a40b2405849e597ba5fb5602052604081205490919060ff1661015c57818052816020526040822081835260205260408220600160ff19825416179055339160008051602061103d8339815191528180a4600190565b5090565b6001600160a01b031660008181527f610416528cfef961f6c8fc91bef56087ef3281212584daef4b7fa0e6036047c260205260408120549091907fe15a7dd79e49684a2a3fd5c689ae377eab58931a852ffed7fca24bd23555aa299060ff166101fb57808352826020526040832082845260205260408320600160ff1982541617905560008051602061103d833981519152339380a4600190565b50509056fe608060408181526004918236101561001657600080fd5b600090813560e01c90816301ffc9a714610a9c57508063067fda6b14610a7d5780630b90fca114610a4257806318452cd814610a01578063196f4914146109e257806321bade131461092c578063248a9ca31461090257806324acbd69146108cc5780632f2ff15d146108a257806332e5b6d8146107ca57806336568abe146107845780634a9fefc7146107495780635603b9f9146105215780638d736ed31461050257806391d14854146104bc578063a217fddf146104a1578063ab11417f14610482578063c9c6b55614610407578063d547741f146103c4578063d8abfee514610379578063deb3269f146101bc578063e23828dc1461017d5763e92820e61461012157600080fd5b3461017a578160031936011261017a57610139610af0565b6001600160a01b039081168252602093909352818120805460243594929085101561017a575060209361016b91610b21565b92905490519260031b1c168152f35b80fd5b5090346101b857816003193601126101b857602090517fe15a7dd79e49684a2a3fd5c689ae377eab58931a852ffed7fca24bd23555aa298152f35b5080fd5b5090346101b857806003193601126101b85782356024938435907fe15a7dd79e49684a2a3fd5c689ae377eab58931a852ffed7fca24bd23555aa2990818652602091868352858720338852835260ff86882054161561035d57506103e880851161030c5783116102bd576107d06102338486610b87565b1161027157507f2b0c09f5443bc5628e317c9e8ef97edc0667f2b69e9400cdc2eaae6c9b1de93d94955082600155816002558351928352820152a180f35b8660849286519262461bcd60e51b8452830152808201527f526566657272616c53797374656d3a20746f74616c20626f6e757320746f6f206044820152630d0d2ced60e31b6064820152fd5b60268760849387519362461bcd60e51b85528401528201527f526566657272616c53797374656d3a207265666572656520626f6e757320746f6044820152650de40d0d2ced60d31b6064820152fd5b5060278760849387519362461bcd60e51b85528401528201527f526566657272616c53797374656d3a20726566657272657220626f6e757320746044820152660dede40d0d2ced60cb1b6064820152fd5b604492508786519263e2517d3f60e01b84523390840152820152fd5b5090346101b857806003193601126101b8576060906103aa610399610af0565b6103a1610c73565b60243590610b94565b91929081519360018060a01b031684526020840152820152f35b509190346104035780600319360112610403576103ff91356103fa60016103e9610b0b565b938387528660205286200154610ced565b610d91565b5080f35b8280fd5b5090346101b85760203660031901126101b8576001600160a01b039161047e90829084610432610af0565b16815260036020818152929091208054600182015460028301549290930154955196166001600160a01b0316865291850152604084015260ff9091161515606083015281906080820190565b0390f35b5090346101b857816003193601126101b8576020906006549051908152f35b5090346101b857816003193601126101b85751908152602090f35b5091346104035781600319360112610403578160209360ff926104dd610b0b565b903582528186528282206001600160a01b039091168252855220549151911615158152f35b5090346101b857816003193601126101b8576020906002549051908152f35b50913461040357816003193601126104035761053b610af0565b610543610b0b565b9161054c610c73565b6001600160a01b039182169283156107065782169384156106c35784841461068057838652600360205260ff600382882001541661063d5783865260036020526003818720866bffffffffffffffffffffffff60a01b82541617815501600160ff198254161790558486528160205285208054916801000000000000000083101561062a5750906105e291600182018155610b21565b819291549060031b9184831b921b1916179055610600600554610b4f565b6005557f5f1ca2fcc108b751843a763e60d2201f593516109d7dbb1b700468f2d4190bb78380a380f35b634e487b7160e01b875260419052602486fd5b906020606492519162461bcd60e51b8352820152602060248201527f526566657272616c53797374656d3a20616c72656164792072656665727265646044820152fd5b906020606492519162461bcd60e51b8352820152601d60248201527f526566657272616c53797374656d3a2073656c662d726566657272616c0000006044820152fd5b906020606492519162461bcd60e51b8352820152601d60248201527f526566657272616c53797374656d3a207a65726f2072656665727265720000006044820152fd5b845162461bcd60e51b8152602081840152601c60248201527f526566657272616c53797374656d3a207a65726f2072656665726565000000006044820152606490fd5b5090346101b85760203660031901126101b8576020916001600160a01b0390829082610773610af0565b168152600385522054169051908152f35b5090346101b857806003193601126101b85761079e610b0b565b90336001600160a01b038316036107bb57506103ff919235610d91565b5163334bd91960e11b81528390fd5b5082903461017a57602092836003193601126101b8576001600160a01b0393846107f2610af0565b16835283815281832092825192838386549182815201908196845284842090845b8682821061088c5750505050849003601f01601f191684019567ffffffffffffffff87118588101761087957508581528286529251828601819052928501939291905b8281106108635785850386f35b8351871685529381019392810192600101610856565b634e487b7160e01b835260419052602482fd5b83548c1685529093019260019283019201610813565b509190346104035780600319360112610403576103ff91356108c760016103e9610b0b565b610d13565b5091346104035760203660031901126104035760209282916001600160a01b036108f4610af0565b168252845220549051908152f35b50913461040357602036600319011261040357816020936001923581528085522001549051908152f35b509134610403576020366003190112610403576001600160a01b0380610950610af0565b168452600360205282842091835194608086019186831067ffffffffffffffff8411176109cf575050835281541680845260018201546020808601829052600284015486860181905260039094015460ff161515606096870181905294516001600160a01b039093168352820152604081019190915291820152608090f35b634e487b7160e01b825260419052602490fd5b5090346101b857816003193601126101b8576020906005549051908152f35b5090346101b85760203660031901126101b85760209160ff9060039083906001600160a01b03610a2f610af0565b1681528286522001541690519015158152f35b5090346101b857816003193601126101b857602090517fdb9284895a7211bfd1c970298a1ed435786c5e0cd6ec4810e5f98b0ac05f46348152f35b5090346101b857816003193601126101b8576020906001549051908152f35b90508334610403576020366003190112610403573563ffffffff60e01b81168091036104035760209250637965db0b60e01b8114908115610adf575b5015158152f35b6301ffc9a760e01b14905083610ad8565b600435906001600160a01b0382168203610b0657565b600080fd5b602435906001600160a01b0382168203610b0657565b8054821015610b395760005260206000200190600090565b634e487b7160e01b600052603260045260246000fd5b6000198114610b5e5760010190565b634e487b7160e01b600052601160045260246000fd5b81810292918115918404141715610b5e57565b91908201809211610b5e57565b909160018060a01b0380921660009281845260036020526040842060ff60038201541615610c6857541680917f97a731ce2af675e0a2502525558d9bdb33cb114efcf7e9c0ae4c86a36058dd5a606061271097600260408a610bf860015485610b74565b049a610c05835485610b74565b04998781526003602052600182822001610c1f8154610b4f565b905587815260036020522001610c368a8254610b87565b9055610c4d610c45898b610b87565b600654610b87565b600655604051908152886020820152876040820152a3929190565b505050915080918190565b3360009081527f309885961c5c462e01d0f6cb432454eb474f04fa3318496f3172f0decfa9b43760205260409020547fdb9284895a7211bfd1c970298a1ed435786c5e0cd6ec4810e5f98b0ac05f46349060ff1615610ccf5750565b6044906040519063e2517d3f60e01b82523360048301526024820152fd5b80600052600060205260406000203360005260205260ff6040600020541615610ccf5750565b9060009180835282602052604083209160018060a01b03169182845260205260ff60408420541615600014610d8c57808352826020526040832082845260205260408320600160ff198254161790557f2f8788117e7eff1d82e926ec794901d17c78024a50270940304540a733656f0d339380a4600190565b505090565b9060009180835282602052604083209160018060a01b03169182845260205260ff604084205416600014610d8c5780835282602052604083208284526020526040832060ff1981541690557ff6391f5c32d9c69d2a47ea670b442974b53935d1edc7fd64eb21e047a839171b339380a460019056fea26469706673582212204a90bbf70114b6aeebd7d1c58a86709d035b0359633027604529471f6c92a0aa64736f6c634300081800332f8788117e7eff1d82e926ec794901d17c78024a50270940304540a733656f0d","opcodes":"PUSH2 0x1A0 PUSH1 0x40 DUP2 DUP2 MSTORE CALLVALUE PUSH3 0x38D JUMPI DUP2 SWAP1 PUSH1 0x0 PUSH3 0x6037 DUP1 CODESIZE SUB DUP1 SWAP2 PUSH3 0x26 DUP3 DUP8 PUSH3 0x671 JUMP JUMPDEST DUP6 CODECOPY PUSH2 0x120 SWAP4 DUP5 SWAP2 DUP2 ADD SUB SLT PUSH3 0x34E JUMPI PUSH3 0x42 DUP5 PUSH3 0x695 JUMP JUMPDEST PUSH1 0x20 SWAP3 PUSH3 0x52 DUP5 DUP8 ADD PUSH3 0x695 JUMP JUMPDEST SWAP3 PUSH3 0x60 DUP3 DUP9 ADD PUSH3 0x695 JUMP JUMPDEST SWAP4 PUSH3 0x6F PUSH1 0x60 DUP10 ADD PUSH3 0x695 JUMP JUMPDEST SWAP4 PUSH3 0x7E PUSH1 0x80 DUP11 ADD PUSH3 0x695 JUMP JUMPDEST PUSH3 0x8C PUSH1 0xA0 DUP12 ADD PUSH3 0x695 JUMP JUMPDEST SWAP1 PUSH3 0x9B PUSH1 0xC0 DUP13 ADD PUSH3 0x695 JUMP JUMPDEST SWAP7 PUSH3 0xAA PUSH1 0xE0 DUP14 ADD PUSH3 0x695 JUMP JUMPDEST SWAP9 PUSH3 0xBB PUSH2 0x100 DUP1 SWAP15 ADD PUSH3 0x695 JUMP JUMPDEST SWAP6 PUSH1 0x1 PUSH1 0x1 PUSH1 0xA0 SHL SUB SWAP6 DUP7 DUP9 AND SWAP1 DUP2 ISZERO PUSH3 0x62F JUMPI DUP10 SLOAD PUSH1 0x1 PUSH1 0x1 PUSH1 0xA0 SHL SUB NOT DUP2 AND DUP4 OR DUP12 SSTORE DUP12 MLOAD SWAP3 DUP10 SWAP3 SWAP2 DUP4 AND PUSH32 0x8BE0079C531659141344CD1FD0A4F28419497F9722A3DAAFE3B4186F6B6457E0 DUP14 DUP1 LOG3 PUSH3 0x2A300 PUSH1 0x1 SSTORE AND SWAP1 DUP2 ISZERO PUSH3 0x5ED JUMPI POP DUP7 DUP3 AND ISZERO PUSH3 0x5A9 JUMPI DUP7 DUP4 AND ISZERO PUSH3 0x565 JUMPI DUP7 DUP5 AND ISZERO PUSH3 0x521 JUMPI DUP7 DUP6 AND ISZERO PUSH3 0x4DD JUMPI DUP7 DUP7 AND ISZERO PUSH3 0x499 JUMPI DUP7 DUP12 AND ISZERO PUSH3 0x455 JUMPI DUP7 DUP13 AND ISZERO PUSH3 0x411 JUMPI PUSH1 0x80 MSTORE PUSH1 0xA0 MSTORE PUSH1 0xC0 MSTORE PUSH1 0xE0 MSTORE DUP11 MSTORE DUP9 MSTORE PUSH2 0x140 SWAP5 DUP6 MSTORE PUSH2 0x160 SWAP6 DUP7 MSTORE DUP4 MLOAD PUSH2 0x105D DUP1 DUP3 ADD SWAP1 PUSH1 0x1 PUSH1 0x1 PUSH1 0x40 SHL SUB DUP3 GT DUP4 DUP4 LT OR PUSH3 0x3FD JUMPI DUP10 SWAP2 DUP4 SWAP2 PUSH3 0x4FDA DUP4 CODECOPY ADDRESS DUP2 MSTORE SUB ADD SWAP1 DUP5 CREATE SWAP7 DUP8 ISZERO PUSH3 0x3F3 JUMPI DUP2 PUSH2 0x180 SWAP9 DUP1 DUP11 MSTORE AND SWAP2 DUP6 MLOAD SWAP3 PUSH4 0xA217FDDF PUSH1 0xE0 SHL DUP5 MSTORE DUP3 DUP5 PUSH1 0x4 DUP2 DUP5 GAS STATICCALL SWAP4 DUP5 ISZERO PUSH3 0x39A JUMPI DUP7 SWAP5 PUSH3 0x3BE JUMPI JUMPDEST POP DUP1 EXTCODESIZE ISZERO PUSH3 0x3BA JUMPI DUP7 MLOAD PUSH4 0x2F2FF15D PUSH1 0xE0 SHL DUP1 DUP3 MSTORE PUSH1 0x4 DUP3 ADD SWAP6 SWAP1 SWAP6 MSTORE PUSH1 0x1 PUSH1 0x1 PUSH1 0xA0 SHL SUB DUP7 AND PUSH1 0x24 DUP3 ADD MSTORE SWAP1 DUP7 SWAP1 DUP3 SWAP1 PUSH1 0x44 SWAP1 DUP3 SWAP1 DUP5 SWAP1 GAS CALL DUP1 ISZERO PUSH3 0x39A JUMPI PUSH3 0x3A4 JUMPI JUMPDEST POP DUP9 MLOAD AND SWAP2 DUP6 MLOAD PUSH4 0x388E0A37 PUSH1 0xE2 SHL DUP2 MSTORE DUP3 DUP2 PUSH1 0x4 DUP2 DUP8 GAS STATICCALL SWAP3 DUP4 ISZERO PUSH3 0x39A JUMPI DUP7 SWAP4 PUSH3 0x35F JUMPI JUMPDEST POP POP DUP3 EXTCODESIZE ISZERO PUSH3 0x35B JUMPI DUP6 MLOAD SWAP1 DUP2 MSTORE PUSH1 0x4 DUP2 ADD SWAP2 SWAP1 SWAP2 MSTORE PUSH1 0x1 PUSH1 0x1 PUSH1 0xA0 SHL SUB SWAP3 SWAP1 SWAP3 AND PUSH1 0x24 DUP4 ADD MSTORE DUP3 SWAP1 DUP3 SWAP1 PUSH1 0x44 SWAP1 DUP3 SWAP1 DUP5 SWAP1 GAS CALL DUP1 ISZERO PUSH3 0x351 JUMPI PUSH3 0x336 JUMPI JUMPDEST POP POP MLOAD SWAP4 PUSH2 0x492F SWAP6 DUP7 PUSH3 0x6AB DUP8 CODECOPY PUSH1 0x80 MLOAD DUP7 DUP2 DUP2 PUSH2 0x929 ADD MSTORE PUSH2 0x14FC ADD MSTORE PUSH1 0xA0 MLOAD DUP7 DUP2 DUP2 PUSH2 0xD55 ADD MSTORE PUSH2 0x1524 ADD MSTORE PUSH1 0xC0 MLOAD DUP7 DUP2 DUP2 PUSH2 0xC7B ADD MSTORE PUSH2 0x154C ADD MSTORE PUSH1 0xE0 MLOAD DUP7 DUP2 DUP2 PUSH2 0x31B ADD MSTORE DUP2 DUP2 PUSH2 0x970 ADD MSTORE PUSH2 0x1574 ADD MSTORE MLOAD DUP6 DUP2 DUP2 PUSH2 0x8E2 ADD MSTORE PUSH2 0x159C ADD MSTORE MLOAD DUP5 DUP2 DUP2 PUSH2 0x1342 ADD MSTORE PUSH2 0x15EC ADD MSTORE MLOAD DUP4 DUP2 DUP2 PUSH2 0x1389 ADD MSTORE PUSH2 0x1614 ADD MSTORE MLOAD DUP3 DUP2 DUP2 PUSH2 0xBED ADD MSTORE PUSH2 0x1641 ADD MSTORE MLOAD DUP2 DUP2 DUP2 PUSH2 0x292 ADD MSTORE DUP2 DUP2 PUSH2 0x9B7 ADD MSTORE PUSH2 0x15C4 ADD MSTORE RETURN JUMPDEST PUSH3 0x342 DUP3 SWAP2 PUSH3 0x647 JUMP JUMPDEST PUSH3 0x34E JUMPI DUP1 PUSH3 0x291 JUMP JUMPDEST DUP1 REVERT JUMPDEST DUP4 MLOAD RETURNDATASIZE DUP5 DUP3 RETURNDATACOPY RETURNDATASIZE SWAP1 REVERT JUMPDEST DUP5 DUP1 REVERT JUMPDEST SWAP1 DUP1 SWAP3 SWAP4 POP DUP2 RETURNDATASIZE DUP4 GT PUSH3 0x392 JUMPI JUMPDEST PUSH3 0x37A DUP2 DUP4 PUSH3 0x671 JUMP JUMPDEST DUP2 ADD SUB SLT PUSH3 0x38D JUMPI MLOAD SWAP1 CODESIZE DUP1 PUSH3 0x24F JUMP JUMPDEST PUSH1 0x0 DUP1 REVERT JUMPDEST POP RETURNDATASIZE PUSH3 0x36E JUMP JUMPDEST DUP8 MLOAD RETURNDATASIZE DUP9 DUP3 RETURNDATACOPY RETURNDATASIZE SWAP1 REVERT JUMPDEST PUSH3 0x3B2 SWAP1 SWAP6 SWAP2 SWAP6 PUSH3 0x647 JUMP JUMPDEST SWAP4 CODESIZE PUSH3 0x226 JUMP JUMPDEST DUP6 DUP1 REVERT JUMPDEST SWAP1 SWAP4 POP DUP3 DUP2 DUP2 RETURNDATASIZE DUP4 GT PUSH3 0x3EB JUMPI JUMPDEST PUSH3 0x3D9 DUP2 DUP4 PUSH3 0x671 JUMP JUMPDEST DUP2 ADD SUB SLT PUSH3 0x3BA JUMPI MLOAD SWAP3 CODESIZE PUSH3 0x1DE JUMP JUMPDEST POP RETURNDATASIZE PUSH3 0x3CD JUMP JUMPDEST DUP5 MLOAD RETURNDATASIZE DUP6 DUP3 RETURNDATACOPY RETURNDATASIZE SWAP1 REVERT JUMPDEST PUSH4 0x4E487B71 PUSH1 0xE0 SHL DUP7 MSTORE PUSH1 0x41 PUSH1 0x4 MSTORE PUSH1 0x24 DUP7 REVERT JUMPDEST DUP10 MLOAD PUSH3 0x461BCD PUSH1 0xE5 SHL DUP2 MSTORE PUSH1 0x4 DUP2 ADD DUP15 SWAP1 MSTORE PUSH1 0x18 PUSH1 0x24 DUP3 ADD MSTORE PUSH32 0x53616C654D616E616765723A207A65726F206F7261636C650000000000000000 PUSH1 0x44 DUP3 ADD MSTORE PUSH1 0x64 SWAP1 REVERT JUMPDEST DUP10 MLOAD PUSH3 0x461BCD PUSH1 0xE5 SHL DUP2 MSTORE PUSH1 0x4 DUP2 ADD DUP15 SWAP1 MSTORE PUSH1 0x16 PUSH1 0x24 DUP3 ADD MSTORE PUSH32 0x53616C654D616E616765723A207A65726F207573647400000000000000000000 PUSH1 0x44 DUP3 ADD MSTORE PUSH1 0x64 SWAP1 REVERT JUMPDEST DUP10 MLOAD PUSH3 0x461BCD PUSH1 0xE5 SHL DUP2 MSTORE PUSH1 0x4 DUP2 ADD DUP15 SWAP1 MSTORE PUSH1 0x16 PUSH1 0x24 DUP3 ADD MSTORE PUSH32 0x53616C654D616E616765723A207A65726F207573646300000000000000000000 PUSH1 0x44 DUP3 ADD MSTORE PUSH1 0x64 SWAP1 REVERT JUMPDEST DUP10 MLOAD PUSH3 0x461BCD PUSH1 0xE5 SHL DUP2 MSTORE PUSH1 0x4 DUP2 ADD DUP15 SWAP1 MSTORE PUSH1 0x17 PUSH1 0x24 DUP3 ADD MSTORE PUSH32 0x53616C654D616E616765723A207A65726F2066756E6473000000000000000000 PUSH1 0x44 DUP3 ADD MSTORE PUSH1 0x64 SWAP1 REVERT JUMPDEST DUP10 MLOAD PUSH3 0x461BCD PUSH1 0xE5 SHL DUP2 MSTORE PUSH1 0x4 DUP2 ADD DUP15 SWAP1 MSTORE PUSH1 0x19 PUSH1 0x24 DUP3 ADD MSTORE PUSH32 0x53616C654D616E616765723A207A65726F2076657374696E6700000000000000 PUSH1 0x44 DUP3 ADD MSTORE PUSH1 0x64 SWAP1 REVERT JUMPDEST DUP10 MLOAD PUSH3 0x461BCD PUSH1 0xE5 SHL DUP2 MSTORE PUSH1 0x4 DUP2 ADD DUP15 SWAP1 MSTORE PUSH1 0x19 PUSH1 0x24 DUP3 ADD MSTORE PUSH32 0x53616C654D616E616765723A207A65726F206C696D6974657200000000000000 PUSH1 0x44 DUP3 ADD MSTORE PUSH1 0x64 SWAP1 REVERT JUMPDEST DUP10 MLOAD PUSH3 0x461BCD PUSH1 0xE5 SHL DUP2 MSTORE PUSH1 0x4 DUP2 ADD DUP15 SWAP1 MSTORE PUSH1 0x15 PUSH1 0x24 DUP3 ADD MSTORE PUSH32 0x53616C654D616E616765723A207A65726F206B79630000000000000000000000 PUSH1 0x44 DUP3 ADD MSTORE PUSH1 0x64 SWAP1 REVERT JUMPDEST PUSH3 0x461BCD PUSH1 0xE5 SHL DUP2 MSTORE PUSH1 0x4 DUP2 ADD DUP15 SWAP1 MSTORE PUSH1 0x17 PUSH1 0x24 DUP3 ADD MSTORE PUSH32 0x53616C654D616E616765723A207A65726F20746F6B656E000000000000000000 PUSH1 0x44 DUP3 ADD MSTORE PUSH1 0x64 SWAP1 REVERT JUMPDEST DUP11 MLOAD PUSH4 0x1E4FBDF7 PUSH1 0xE0 SHL DUP2 MSTORE PUSH1 0x4 DUP2 ADD DUP12 SWAP1 MSTORE PUSH1 0x24 SWAP1 REVERT JUMPDEST PUSH1 0x1 PUSH1 0x1 PUSH1 0x40 SHL SUB DUP2 GT PUSH3 0x65B JUMPI PUSH1 0x40 MSTORE JUMP JUMPDEST PUSH4 0x4E487B71 PUSH1 0xE0 SHL PUSH1 0x0 MSTORE PUSH1 0x41 PUSH1 0x4 MSTORE PUSH1 0x24 PUSH1 0x0 REVERT JUMPDEST PUSH1 0x1F SWAP1 SWAP2 ADD PUSH1 0x1F NOT AND DUP2 ADD SWAP1 PUSH1 0x1 PUSH1 0x1 PUSH1 0x40 SHL SUB DUP3 GT SWAP1 DUP3 LT OR PUSH3 0x65B JUMPI PUSH1 0x40 MSTORE JUMP JUMPDEST MLOAD SWAP1 PUSH1 0x1 PUSH1 0x1 PUSH1 0xA0 SHL SUB DUP3 AND DUP3 SUB PUSH3 0x38D JUMPI JUMP INVALID PUSH1 0x80 PUSH1 0x40 MSTORE PUSH1 0x4 CALLDATASIZE LT ISZERO PUSH3 0x13 JUMPI PUSH1 0x0 DUP1 REVERT JUMPDEST PUSH1 0x0 DUP1 CALLDATALOAD PUSH1 0xE0 SHR DUP1 PUSH4 0x1803237A EQ PUSH3 0x18B4 JUMPI DUP1 PUSH4 0x263F4D95 EQ PUSH3 0x13B8 JUMPI DUP1 PUSH4 0x2F48AB7D EQ PUSH3 0x1371 JUMPI DUP1 PUSH4 0x3E413BEE EQ PUSH3 0x132A JUMPI DUP1 PUSH4 0x3F4BA83A EQ PUSH3 0x1255 JUMPI DUP1 PUSH4 0x4006D46A EQ PUSH3 0x1136 JUMPI DUP1 PUSH4 0x47CD47B6 EQ PUSH3 0xD84 JUMPI DUP1 PUSH4 0x4B155B97 EQ PUSH3 0xD3D JUMPI DUP1 PUSH4 0x51858E27 EQ PUSH3 0xCAA JUMPI DUP1 PUSH4 0x53D4FE33 EQ PUSH3 0xC63 JUMPI DUP1 PUSH4 0x5C975ABB EQ PUSH3 0xC3C JUMPI DUP1 PUSH4 0x6DE7DA78 EQ PUSH3 0xC1C JUMPI DUP1 PUSH4 0x706EB3AB EQ PUSH3 0xBD5 JUMPI DUP1 PUSH4 0x715018A6 EQ PUSH3 0xB77 JUMPI DUP1 PUSH4 0x8C65C81F EQ PUSH3 0xB47 JUMPI DUP1 PUSH4 0x8DA5CB5B EQ PUSH3 0xB1E JUMPI DUP1 PUSH4 0x8E52D9D3 EQ PUSH3 0xA2B JUMPI DUP1 PUSH4 0x8F1327C0 EQ PUSH3 0x9E6 JUMPI DUP1 PUSH4 0xA04E876C EQ PUSH3 0x99F JUMPI DUP1 PUSH4 0xA5917BAF EQ PUSH3 0x958 JUMPI DUP1 PUSH4 0xAC76A908 EQ PUSH3 0x911 JUMPI DUP1 PUSH4 0xB6CB7F41 EQ PUSH3 0x8CA JUMPI DUP1 PUSH4 0xBEADF957 EQ PUSH3 0x7D0 JUMPI DUP1 PUSH4 0xCBAF2FA7 EQ PUSH3 0x5D0 JUMPI DUP1 PUSH4 0xE3D0CC27 EQ PUSH3 0x569 JUMPI DUP1 PUSH4 0xE5066BBF EQ PUSH3 0x46E JUMPI DUP1 PUSH4 0xE700EA1C EQ PUSH3 0x22E JUMPI DUP1 PUSH4 0xEEF09BAD EQ PUSH3 0x20E JUMPI PUSH4 0xF2FDE38B EQ PUSH3 0x17A JUMPI PUSH1 0x0 DUP1 REVERT JUMPDEST CALLVALUE PUSH3 0x20B JUMPI PUSH1 0x20 CALLDATASIZE PUSH1 0x3 NOT ADD SLT PUSH3 0x20B JUMPI PUSH3 0x197 PUSH3 0x1A43 JUMP JUMPDEST PUSH3 0x1A1 PUSH3 0x1BC0 JUMP JUMPDEST PUSH1 0x1 PUSH1 0x1 PUSH1 0xA0 SHL SUB SWAP1 DUP2 AND SWAP1 DUP2 ISZERO PUSH3 0x1F2 JUMPI PUSH1 0x0 SLOAD DUP3 PUSH1 0x1 PUSH1 0x1 PUSH1 0x60 SHL SUB PUSH1 0xA0 SHL DUP3 AND OR PUSH1 0x0 SSTORE AND PUSH32 0x8BE0079C531659141344CD1FD0A4F28419497F9722A3DAAFE3B4186F6B6457E0 PUSH1 0x0 DUP1 LOG3 DUP1 RETURN JUMPDEST PUSH1 0x40 MLOAD PUSH4 0x1E4FBDF7 PUSH1 0xE0 SHL DUP2 MSTORE PUSH1 0x4 DUP2 ADD DUP5 SWAP1 MSTORE PUSH1 0x24 SWAP1 REVERT JUMPDEST DUP1 REVERT JUMPDEST POP CALLVALUE PUSH3 0x20B JUMPI DUP1 PUSH1 0x3 NOT CALLDATASIZE ADD SLT PUSH3 0x20B JUMPI PUSH1 0x20 PUSH1 0x1 SLOAD PUSH1 0x40 MLOAD SWAP1 DUP2 MSTORE RETURN JUMPDEST POP CALLVALUE PUSH3 0x20B JUMPI DUP1 PUSH1 0x20 DUP1 PUSH1 0x3 NOT CALLDATASIZE ADD SLT PUSH3 0x46B JUMPI PUSH3 0x26A PUSH1 0x4 CALLDATALOAD PUSH3 0x255 PUSH3 0x1BC0 JUMP JUMPDEST PUSH3 0x264 PUSH1 0x2 SLOAD DUP3 LT PUSH3 0x1AA8 JUMP JUMPDEST PUSH3 0x1A5A JUMP JUMPDEST SWAP1 SLOAD PUSH1 0x40 MLOAD PUSH4 0xB90FCA1 PUSH1 0xE0 SHL DUP1 DUP3 MSTORE SWAP1 SWAP3 PUSH1 0x3 SHL SWAP2 SWAP1 SWAP2 SHR PUSH1 0x1 PUSH1 0x1 PUSH1 0xA0 SHL SUB SWAP1 DUP2 AND SWAP2 SWAP1 PUSH32 0x0 DUP2 AND DUP6 DUP6 PUSH1 0x4 DUP2 DUP5 GAS STATICCALL SWAP5 DUP6 ISZERO PUSH3 0x424 JUMPI DUP8 SWAP6 PUSH3 0x433 JUMPI JUMPDEST POP DUP1 EXTCODESIZE ISZERO PUSH3 0x42F JUMPI PUSH1 0x40 MLOAD PUSH4 0x2F2FF15D PUSH1 0xE0 SHL DUP1 DUP3 MSTORE PUSH1 0x4 DUP3 ADD SWAP7 SWAP1 SWAP7 MSTORE PUSH1 0x1 PUSH1 0x1 PUSH1 0xA0 SHL SUB DUP6 AND PUSH1 0x24 DUP3 ADD MSTORE SWAP1 DUP8 SWAP1 DUP3 SWAP1 PUSH1 0x44 SWAP1 DUP3 SWAP1 DUP5 SWAP1 GAS CALL SWAP1 DUP2 ISZERO PUSH3 0x424 JUMPI DUP8 SWAP2 PUSH3 0x408 JUMPI JUMPDEST POP POP PUSH32 0x0 AND SWAP1 PUSH1 0x40 MLOAD SWAP1 DUP2 MSTORE DUP5 DUP2 PUSH1 0x4 DUP2 DUP6 GAS STATICCALL SWAP5 DUP6 ISZERO PUSH3 0x3FD JUMPI DUP7 SWAP6 PUSH3 0x3BF JUMPI JUMPDEST POP POP DUP1 EXTCODESIZE ISZERO PUSH3 0x3BB JUMPI PUSH1 0x40 MLOAD SWAP3 DUP4 MSTORE PUSH1 0x4 DUP4 ADD SWAP4 SWAP1 SWAP4 MSTORE PUSH1 0x1 PUSH1 0x1 PUSH1 0xA0 SHL SUB AND PUSH1 0x24 DUP3 ADD MSTORE SWAP1 DUP3 SWAP1 DUP3 SWAP1 PUSH1 0x44 SWAP1 DUP3 SWAP1 DUP5 SWAP1 GAS CALL DUP1 ISZERO PUSH3 0x3B0 JUMPI PUSH3 0x39D JUMPI POP RETURN JUMPDEST PUSH3 0x3A8 SWAP1 PUSH3 0x1929 JUMP JUMPDEST PUSH3 0x20B JUMPI DUP1 RETURN JUMPDEST PUSH1 0x40 MLOAD RETURNDATASIZE DUP5 DUP3 RETURNDATACOPY RETURNDATASIZE SWAP1 REVERT JUMPDEST DUP5 DUP1 REVERT JUMPDEST DUP2 SWAP7 POP DUP1 SWAP3 SWAP6 POP RETURNDATASIZE DUP4 GT PUSH3 0x3F5 JUMPI JUMPDEST PUSH3 0x3DB DUP2 DUP4 PUSH3 0x193E JUMP JUMPDEST DUP2 ADD SUB SLT PUSH3 0x3F0 JUMPI DUP5 SWAP4 MLOAD SWAP3 CODESIZE DUP1 PUSH3 0x35A JUMP JUMPDEST PUSH1 0x0 DUP1 REVERT JUMPDEST POP RETURNDATASIZE PUSH3 0x3CF JUMP JUMPDEST PUSH1 0x40 MLOAD RETURNDATASIZE DUP9 DUP3 RETURNDATACOPY RETURNDATASIZE SWAP1 REVERT JUMPDEST PUSH3 0x413 SWAP1 PUSH3 0x1929 JUMP JUMPDEST PUSH3 0x420 JUMPI DUP6 CODESIZE PUSH3 0x317 JUMP JUMPDEST DUP6 DUP1 REVERT JUMPDEST PUSH1 0x40 MLOAD RETURNDATASIZE DUP10 DUP3 RETURNDATACOPY RETURNDATASIZE SWAP1 REVERT JUMPDEST DUP7 DUP1 REVERT JUMPDEST SWAP7 POP SWAP4 POP DUP5 DUP7 DUP2 RETURNDATASIZE DUP2 GT PUSH3 0x463 JUMPI JUMPDEST PUSH3 0x44F DUP2 DUP4 PUSH3 0x193E JUMP JUMPDEST DUP2 ADD SUB SLT PUSH3 0x3F0 JUMPI DUP7 SWAP6 MLOAD SWAP4 CODESIZE PUSH3 0x2CB JUMP JUMPDEST POP RETURNDATASIZE PUSH3 0x443 JUMP JUMPDEST POP REVERT JUMPDEST POP CALLVALUE PUSH3 0x20B JUMPI DUP1 PUSH1 0x3 NOT CALLDATASIZE ADD SLT PUSH3 0x20B JUMPI PUSH1 0x2 SLOAD PUSH3 0x48F DUP2 PUSH3 0x1BA7 JUMP JUMPDEST SWAP2 PUSH3 0x49F PUSH1 0x40 MLOAD SWAP4 DUP5 PUSH3 0x193E JUMP JUMPDEST DUP2 DUP4 MSTORE PUSH3 0x4AD DUP3 PUSH3 0x1BA7 JUMP JUMPDEST PUSH1 0x20 SWAP3 DUP5 DUP5 ADD SWAP3 SWAP2 PUSH1 0x1F NOT ADD CALLDATASIZE DUP5 CALLDATACOPY DUP2 JUMPDEST DUP2 DUP2 LT PUSH3 0x511 JUMPI POP POP PUSH1 0x40 MLOAD SWAP4 DUP4 DUP6 SWAP5 DUP6 ADD SWAP2 DUP2 DUP7 MSTORE MLOAD DUP1 SWAP3 MSTORE PUSH1 0x40 DUP6 ADD SWAP4 SWAP3 JUMPDEST DUP3 DUP2 LT PUSH3 0x4F0 JUMPI POP POP POP POP SUB SWAP1 RETURN JUMPDEST DUP4 MLOAD PUSH1 0x1 PUSH1 0x1 PUSH1 0xA0 SHL SUB AND DUP6 MSTORE DUP7 SWAP6 POP SWAP4 DUP2 ADD SWAP4 SWAP3 DUP2 ADD SWAP3 PUSH1 0x1 ADD PUSH3 0x4E0 JUMP JUMPDEST PUSH3 0x521 DUP2 SWAP7 SWAP5 SWAP6 SWAP4 SWAP7 PUSH3 0x1A5A JUMP JUMPDEST SWAP1 SLOAD DUP6 MLOAD DUP4 LT ISZERO PUSH3 0x555 JUMPI PUSH1 0x3 SWAP2 SWAP1 SWAP2 SHL SHR PUSH1 0x1 PUSH1 0x1 PUSH1 0xA0 SHL SUB AND PUSH1 0x5 DUP3 SWAP1 SHL DUP6 ADD DUP5 ADD MSTORE SWAP3 SWAP5 SWAP2 SWAP4 SWAP3 PUSH1 0x1 ADD PUSH3 0x4BE JUMP JUMPDEST PUSH4 0x4E487B71 PUSH1 0xE0 SHL DUP9 MSTORE PUSH1 0x32 PUSH1 0x4 MSTORE PUSH1 0x24 DUP9 REVERT JUMPDEST POP CALLVALUE PUSH3 0x20B JUMPI PUSH1 0x20 CALLDATASIZE PUSH1 0x3 NOT ADD SLT PUSH3 0x20B JUMPI DUP1 PUSH3 0x58F PUSH1 0x4 CALLDATALOAD PUSH3 0x255 PUSH3 0x1BC0 JUMP JUMPDEST SWAP1 SLOAD PUSH1 0x3 SWAP2 SWAP1 SWAP2 SHL SHR PUSH1 0x1 PUSH1 0x1 PUSH1 0xA0 SHL SUB AND DUP1 EXTCODESIZE ISZERO PUSH3 0x46B JUMPI DUP2 DUP1 SWAP2 PUSH1 0x4 PUSH1 0x40 MLOAD DUP1 SWAP5 DUP2 SWAP4 PUSH4 0x1FA5D41D PUSH1 0xE1 SHL DUP4 MSTORE GAS CALL DUP1 ISZERO PUSH3 0x3B0 JUMPI PUSH3 0x39D JUMPI POP RETURN JUMPDEST POP CALLVALUE PUSH3 0x20B JUMPI PUSH1 0x20 DUP1 PUSH1 0x3 NOT CALLDATASIZE ADD SLT PUSH3 0x7CC JUMPI PUSH1 0x4 CALLDATALOAD SWAP1 PUSH3 0x5F3 PUSH3 0x1BC0 JUMP JUMPDEST DUP2 DUP4 MSTORE PUSH1 0x3 DUP2 MSTORE PUSH1 0x40 DUP4 KECCAK256 PUSH1 0x3 DUP2 ADD SLOAD SWAP1 PUSH3 0x611 DUP3 ISZERO ISZERO PUSH3 0x1B0E JUMP JUMPDEST PUSH1 0x4 DUP2 ADD DUP1 SLOAD SWAP3 PUSH3 0x627 PUSH1 0xFF DUP6 AND ISZERO PUSH3 0x1B5A JUMP JUMPDEST TIMESTAMP LT PUSH3 0x77D JUMPI SWAP1 DUP6 SWAP2 PUSH1 0x1 SWAP1 PUSH1 0x1 PUSH1 0xFF NOT DUP1 SWAP7 AND OR SWAP1 SSTORE PUSH1 0x2 PUSH1 0x1 DUP1 PUSH1 0xA0 SHL SUB PUSH1 0x1 DUP5 ADD SLOAD AND SWAP3 ADD SWAP4 PUSH1 0x40 MLOAD SWAP2 DUP5 SWAP6 DUP1 SLOAD PUSH3 0x664 DUP2 PUSH3 0x19BA JUMP JUMPDEST SWAP4 PUSH1 0x1 DUP3 AND SWAP2 DUP3 ISZERO PUSH3 0x766 JUMPI POP POP PUSH1 0x1 EQ PUSH3 0x72B JUMPI JUMPDEST POP POP POP DUP3 DUP2 DUP2 SWAP6 SUB SWAP3 GAS CALL RETURNDATASIZE ISZERO PUSH3 0x725 JUMPI RETURNDATASIZE PUSH3 0x69A DUP2 PUSH3 0x1961 JUMP JUMPDEST SWAP1 PUSH3 0x6AA PUSH1 0x40 MLOAD SWAP3 DUP4 PUSH3 0x193E JUMP JUMPDEST DUP2 MSTORE DUP5 DUP4 RETURNDATASIZE SWAP3 ADD RETURNDATACOPY JUMPDEST ISZERO PUSH3 0x6E1 JUMPI POP PUSH32 0x1277662F4B42B8A4069E99FB5E41CE8919D3C621156090AC08FB11ADBCEC66F9 DUP3 DUP1 LOG2 DUP1 RETURN JUMPDEST PUSH1 0x64 SWAP1 PUSH1 0x40 MLOAD SWAP1 PUSH3 0x461BCD PUSH1 0xE5 SHL DUP3 MSTORE PUSH1 0x4 DUP3 ADD MSTORE PUSH1 0x1D PUSH1 0x24 DUP3 ADD MSTORE PUSH32 0x53616C654D616E616765723A20657865637574696F6E206661696C6564000000 PUSH1 0x44 DUP3 ADD MSTORE REVERT JUMPDEST PUSH3 0x6B3 JUMP JUMPDEST DUP8 SWAP7 POP DUP6 MSTORE DUP6 DUP6 KECCAK256 SWAP1 DUP6 SWAP2 JUMPDEST DUP4 DUP4 LT PUSH3 0x74F JUMPI POP POP POP DUP2 ADD SWAP4 POP DUP3 DUP2 DUP2 PUSH3 0x67C JUMP JUMPDEST DUP1 SLOAD DUP4 DUP7 ADD MSTORE DUP9 SWAP8 DUP12 SWAP8 POP SWAP1 SWAP3 ADD SWAP2 DUP2 ADD PUSH3 0x737 JUMP JUMPDEST AND DUP6 MSTORE POP POP POP DUP1 ISZERO ISZERO MUL DUP2 ADD SWAP4 POP DUP3 DUP2 DUP2 PUSH3 0x67C JUMP JUMPDEST PUSH1 0x40 MLOAD PUSH3 0x461BCD PUSH1 0xE5 SHL DUP2 MSTORE PUSH1 0x4 DUP2 ADD DUP6 SWAP1 MSTORE PUSH1 0x21 PUSH1 0x24 DUP3 ADD MSTORE PUSH32 0x53616C654D616E616765723A2074696D656C6F636B206E6F7420657870697265 PUSH1 0x44 DUP3 ADD MSTORE PUSH1 0x19 PUSH1 0xFA SHL PUSH1 0x64 DUP3 ADD MSTORE PUSH1 0x84 SWAP1 REVERT JUMPDEST POP DUP1 REVERT JUMPDEST POP CALLVALUE PUSH3 0x20B JUMPI PUSH1 0x20 CALLDATASIZE PUSH1 0x3 NOT ADD SLT PUSH3 0x20B JUMPI PUSH1 0x4 CALLDATALOAD PUSH3 0x7F1 PUSH3 0x1BC0 JUMP JUMPDEST DUP1 DUP3 MSTORE PUSH1 0x3 PUSH1 0x20 MSTORE PUSH3 0x820 PUSH1 0xFF PUSH1 0x4 PUSH1 0x40 DUP6 KECCAK256 PUSH3 0x816 PUSH1 0x3 DUP3 ADD SLOAD ISZERO ISZERO PUSH3 0x1B0E JUMP JUMPDEST ADD SLOAD AND ISZERO PUSH3 0x1B5A JUMP JUMPDEST DUP1 DUP3 MSTORE PUSH1 0x3 PUSH1 0x20 MSTORE DUP2 PUSH1 0x4 PUSH1 0x40 DUP3 KECCAK256 PUSH1 0x0 DUP2 SSTORE DUP3 PUSH1 0x1 DUP3 ADD SSTORE DUP3 PUSH1 0x2 DUP3 ADD PUSH3 0x84A DUP2 SLOAD PUSH3 0x19BA JUMP JUMPDEST DUP1 PUSH3 0x884 JUMPI JUMPDEST POP POP POP PUSH1 0x0 PUSH1 0x3 DUP3 ADD SSTORE ADD SSTORE PUSH32 0xCF0F63B97F3387253CBC0BDE884F975DF77E39184DC3280C2C81BE495F58EEF4 DUP3 DUP1 LOG2 DUP1 RETURN JUMPDEST PUSH1 0x1F DUP2 GT PUSH1 0x1 EQ PUSH3 0x8A0 JUMPI POP PUSH1 0x0 SWAP2 POP SSTORE JUMPDEST DUP3 CODESIZE DUP1 PUSH3 0x851 JUMP JUMPDEST SWAP1 DUP1 PUSH1 0x0 SWAP2 DUP5 MSTORE PUSH3 0x8C2 PUSH1 0x1F PUSH1 0x20 DUP7 KECCAK256 SWAP5 ADD PUSH1 0x5 SHR DUP5 ADD PUSH1 0x1 DUP6 ADD PUSH3 0x1AF5 JUMP JUMPDEST SSTORE SSTORE PUSH3 0x897 JUMP JUMPDEST POP CALLVALUE PUSH3 0x20B JUMPI DUP1 PUSH1 0x3 NOT CALLDATASIZE ADD SLT PUSH3 0x20B JUMPI PUSH1 0x40 MLOAD PUSH32 0x0 PUSH1 0x1 PUSH1 0x1 PUSH1 0xA0 SHL SUB AND DUP2 MSTORE PUSH1 0x20 SWAP1 RETURN JUMPDEST POP CALLVALUE PUSH3 0x20B JUMPI DUP1 PUSH1 0x3 NOT CALLDATASIZE ADD SLT PUSH3 0x20B JUMPI PUSH1 0x40 MLOAD PUSH32 0x0 PUSH1 0x1 PUSH1 0x1 PUSH1 0xA0 SHL SUB AND DUP2 MSTORE PUSH1 0x20 SWAP1 RETURN JUMPDEST POP CALLVALUE PUSH3 0x20B JUMPI DUP1 PUSH1 0x3 NOT CALLDATASIZE ADD SLT PUSH3 0x20B JUMPI PUSH1 0x40 MLOAD PUSH32 0x0 PUSH1 0x1 PUSH1 0x1 PUSH1 0xA0 SHL SUB AND DUP2 MSTORE PUSH1 0x20 SWAP1 RETURN JUMPDEST POP CALLVALUE PUSH3 0x20B JUMPI DUP1 PUSH1 0x3 NOT CALLDATASIZE ADD SLT PUSH3 0x20B JUMPI PUSH1 0x40 MLOAD PUSH32 0x0 PUSH1 0x1 PUSH1 0x1 PUSH1 0xA0 SHL SUB AND DUP2 MSTORE PUSH1 0x20 SWAP1 RETURN JUMPDEST POP CALLVALUE PUSH3 0x20B JUMPI PUSH1 0x20 CALLDATASIZE PUSH1 0x3 NOT ADD SLT PUSH3 0x20B JUMPI PUSH1 0x20 PUSH3 0xA12 PUSH1 0x4 CALLDATALOAD PUSH3 0x264 PUSH1 0x2 SLOAD DUP3 LT PUSH3 0x1AA8 JUMP JUMPDEST SWAP1 SLOAD PUSH1 0x40 MLOAD PUSH1 0x3 SWAP3 SWAP1 SWAP3 SHL SHR PUSH1 0x1 PUSH1 0x1 PUSH1 0xA0 SHL SUB AND DUP2 MSTORE RETURN JUMPDEST POP CALLVALUE PUSH3 0x20B JUMPI PUSH1 0x20 CALLDATASIZE PUSH1 0x3 NOT ADD SLT PUSH3 0x20B JUMPI PUSH1 0x4 CALLDATALOAD PUSH3 0xA4C PUSH3 0x1BC0 JUMP JUMPDEST PUSH3 0x15180 DUP2 LT PUSH3 0xAD9 JUMPI PUSH3 0x93A80 DUP2 GT PUSH3 0xA94 JUMPI PUSH1 0x20 DUP2 PUSH32 0xEDD2C15CB1225CE15CF67EFA55CEA2672BFEA32D9D9CBF34716BD04B76194B53 SWAP3 PUSH1 0x1 SSTORE PUSH1 0x40 MLOAD SWAP1 DUP2 MSTORE LOG1 DUP1 RETURN JUMPDEST PUSH1 0x40 MLOAD PUSH3 0x461BCD PUSH1 0xE5 SHL DUP2 MSTORE PUSH1 0x20 PUSH1 0x4 DUP3 ADD MSTORE PUSH1 0x1B PUSH1 0x24 DUP3 ADD MSTORE PUSH32 0x53616C654D616E616765723A2064656C617920746F6F206C6F6E670000000000 PUSH1 0x44 DUP3 ADD MSTORE PUSH1 0x64 SWAP1 REVERT JUMPDEST PUSH1 0x40 MLOAD PUSH3 0x461BCD PUSH1 0xE5 SHL DUP2 MSTORE PUSH1 0x20 PUSH1 0x4 DUP3 ADD MSTORE PUSH1 0x1C PUSH1 0x24 DUP3 ADD MSTORE PUSH32 0x53616C654D616E616765723A2064656C617920746F6F2073686F727400000000 PUSH1 0x44 DUP3 ADD MSTORE PUSH1 0x64 SWAP1 REVERT JUMPDEST POP CALLVALUE PUSH3 0x20B JUMPI DUP1 PUSH1 0x3 NOT CALLDATASIZE ADD SLT PUSH3 0x20B JUMPI SLOAD PUSH1 0x40 MLOAD PUSH1 0x1 PUSH1 0x1 PUSH1 0xA0 SHL SUB SWAP1 SWAP2 AND DUP2 MSTORE PUSH1 0x20 SWAP1 RETURN JUMPDEST POP CALLVALUE PUSH3 0x20B JUMPI PUSH1 0x20 CALLDATASIZE PUSH1 0x3 NOT ADD SLT PUSH3 0x20B JUMPI PUSH1 0x4 CALLDATALOAD SWAP1 PUSH1 0x2 SLOAD DUP3 LT ISZERO PUSH3 0x20B JUMPI PUSH1 0x20 PUSH3 0xA12 DUP4 PUSH3 0x1A5A JUMP JUMPDEST POP CALLVALUE PUSH3 0x20B JUMPI DUP1 PUSH1 0x3 NOT CALLDATASIZE ADD SLT PUSH3 0x20B JUMPI PUSH3 0xB94 PUSH3 0x1BC0 JUMP JUMPDEST PUSH1 0x0 DUP1 SLOAD PUSH1 0x1 PUSH1 0x1 PUSH1 0xA0 SHL SUB NOT DUP2 AND DUP3 SSTORE PUSH1 0x1 PUSH1 0x1 PUSH1 0xA0 SHL SUB AND PUSH32 0x8BE0079C531659141344CD1FD0A4F28419497F9722A3DAAFE3B4186F6B6457E0 DUP3 DUP1 LOG3 DUP1 RETURN JUMPDEST POP CALLVALUE PUSH3 0x20B JUMPI DUP1 PUSH1 0x3 NOT CALLDATASIZE ADD SLT PUSH3 0x20B JUMPI PUSH1 0x40 MLOAD PUSH32 0x0 PUSH1 0x1 PUSH1 0x1 PUSH1 0xA0 SHL SUB AND DUP2 MSTORE PUSH1 0x20 SWAP1 RETURN JUMPDEST POP CALLVALUE PUSH3 0x20B JUMPI DUP1 PUSH1 0x3 NOT CALLDATASIZE ADD SLT PUSH3 0x20B JUMPI PUSH1 0x20 PUSH1 0x2 SLOAD PUSH1 0x40 MLOAD SWAP1 DUP2 MSTORE RETURN JUMPDEST POP CALLVALUE PUSH3 0x20B JUMPI DUP1 PUSH1 0x3 NOT CALLDATASIZE ADD SLT PUSH3 0x20B JUMPI PUSH1 0xFF PUSH1 0x20 SWAP2 SLOAD PUSH1 0xA0 SHR AND PUSH1 0x40 MLOAD SWAP1 ISZERO ISZERO DUP2 MSTORE RETURN JUMPDEST POP CALLVALUE PUSH3 0x20B JUMPI DUP1 PUSH1 0x3 NOT CALLDATASIZE ADD SLT PUSH3 0x20B JUMPI PUSH1 0x40 MLOAD PUSH32 0x0 PUSH1 0x1 PUSH1 0x1 PUSH1 0xA0 SHL SUB AND DUP2 MSTORE PUSH1 0x20 SWAP1 RETURN JUMPDEST POP CALLVALUE PUSH3 0x20B JUMPI DUP1 PUSH1 0x3 NOT CALLDATASIZE ADD SLT PUSH3 0x20B JUMPI PUSH3 0xCC7 PUSH3 0x1BC0 JUMP JUMPDEST PUSH3 0xCD1 PUSH3 0x1BED JUMP JUMPDEST DUP1 SLOAD PUSH1 0xFF PUSH1 0xA0 SHL NOT AND PUSH1 0x1 PUSH1 0xA0 SHL OR DUP2 SSTORE PUSH1 0x40 MLOAD CALLER DUP2 MSTORE PUSH32 0x62E78CEA01BEE320CD4E420270B5EA74000D11B0C9F74754EBDBFC544B05A258 SWAP1 PUSH1 0x20 SWAP1 LOG1 PUSH1 0x40 MLOAD TIMESTAMP DUP2 MSTORE PUSH32 0x6EAE7D8F48015FDDC9502717696AC737BEC3D20C703C3958A689F8F485747183 PUSH1 0x20 CALLER SWAP3 LOG2 DUP1 RETURN JUMPDEST POP CALLVALUE PUSH3 0x20B JUMPI DUP1 PUSH1 0x3 NOT CALLDATASIZE ADD SLT PUSH3 0x20B JUMPI PUSH1 0x40 MLOAD PUSH32 0x0 PUSH1 0x1 PUSH1 0x1 PUSH1 0xA0 SHL SUB AND DUP2 MSTORE PUSH1 0x20 SWAP1 RETURN JUMPDEST POP CALLVALUE PUSH3 0x20B JUMPI PUSH1 0x40 CALLDATASIZE PUSH1 0x3 NOT ADD SLT PUSH3 0x20B JUMPI PUSH3 0xDA2 PUSH3 0x1A43 JUMP JUMPDEST PUSH1 0x24 SWAP2 PUSH8 0xFFFFFFFFFFFFFFFF SWAP2 DUP4 CALLDATALOAD DUP4 DUP2 GT PUSH3 0x1132 JUMPI CALLDATASIZE PUSH1 0x23 DUP3 ADD SLT ISZERO PUSH3 0x1132 JUMPI PUSH3 0xDDA SWAP1 CALLDATASIZE SWAP1 DUP7 DUP2 PUSH1 0x4 ADD CALLDATALOAD SWAP2 ADD PUSH3 0x197E JUMP JUMPDEST SWAP4 PUSH3 0xDE5 PUSH3 0x1BC0 JUMP JUMPDEST PUSH1 0x1 PUSH1 0x1 PUSH1 0xA0 SHL SUB SWAP5 DUP3 DUP7 AND ISZERO PUSH3 0x10EE JUMPI PUSH1 0x40 MLOAD PUSH1 0x20 DUP2 ADD SWAP1 PUSH1 0x1 PUSH1 0x1 PUSH1 0x60 SHL SUB NOT DUP6 PUSH1 0x60 SHL AND DUP3 MSTORE PUSH3 0xE42 PUSH1 0x54 DUP3 DUP6 MLOAD PUSH3 0xE2B DUP2 PUSH1 0x34 DUP5 ADD PUSH1 0x20 DUP11 ADD PUSH3 0x19F7 JUMP JUMPDEST DUP2 ADD TIMESTAMP PUSH1 0x34 DUP3 ADD MSTORE SUB PUSH1 0x34 DUP2 ADD DUP5 MSTORE ADD DUP3 PUSH3 0x193E JUMP JUMPDEST MLOAD SWAP1 KECCAK256 SWAP5 DUP6 DUP6 MSTORE PUSH1 0x3 SWAP1 DUP2 PUSH1 0x20 MSTORE DUP2 PUSH1 0x40 DUP8 KECCAK256 ADD SLOAD PUSH3 0x10AA JUMPI PUSH1 0x1 DUP1 SLOAD TIMESTAMP ADD SWAP7 DUP8 TIMESTAMP GT PUSH3 0x1097 JUMPI PUSH1 0x40 MLOAD SWAP6 PUSH1 0xA0 DUP8 ADD DUP8 DUP2 LT DUP6 DUP3 GT OR PUSH3 0x1082 JUMPI PUSH1 0x40 MSTORE DUP10 DUP8 MSTORE PUSH1 0x20 DUP8 ADD SWAP6 DUP12 DUP10 AND DUP8 MSTORE PUSH1 0x40 DUP9 ADD SWAP1 DUP2 MSTORE DUP10 PUSH1 0x60 DUP10 ADD MSTORE DUP3 PUSH1 0x80 DUP10 ADD MSTORE DUP11 DUP4 MSTORE DUP6 PUSH1 0x20 MSTORE PUSH1 0x40 DUP4 KECCAK256 SWAP7 DUP9 MLOAD DUP9 SSTORE DUP13 DUP6 DUP10 ADD SWAP2 MLOAD AND PUSH1 0x1 PUSH1 0x1 PUSH1 0x60 SHL SUB PUSH1 0xA0 SHL DUP3 SLOAD AND OR SWAP1 SSTORE MLOAD SWAP1 DUP2 MLOAD SWAP5 DUP6 GT PUSH3 0x1070 JUMPI POP SWAP2 DUP6 SWAP4 SWAP2 PUSH1 0x20 SWAP12 SWAP8 SWAP6 SWAP4 PUSH3 0xEF2 PUSH1 0x2 DUP14 SWAP12 SWAP10 ADD SLOAD PUSH3 0x19BA JUMP JUMPDEST PUSH1 0x1F DUP2 GT PUSH3 0x102E JUMPI JUMPDEST POP DUP13 SWAP2 PUSH1 0x1F DUP6 GT PUSH1 0x1 EQ PUSH3 0xF91 JUMPI SWAP4 DUP1 DUP1 DUP16 SWAP11 SWAP9 SWAP5 SWAP6 PUSH1 0x4 SWAP7 PUSH32 0x991E9B0E2F98C3989F4541CE66E9ACA44E8BFB1C75BCF862D80F800369E6C6A3 SWAP14 SWAP12 SWAP10 SWAP6 PUSH1 0x80 SWAP10 SWAP5 PUSH3 0xF85 JUMPI JUMPDEST POP POP SHL SWAP2 PUSH1 0x0 NOT SWAP1 DUP5 SHL SHR NOT AND OR PUSH1 0x2 DUP4 ADD SSTORE JUMPDEST PUSH1 0x60 DUP6 ADD MLOAD SWAP1 DUP3 ADD SSTORE ADD SWAP2 ADD MLOAD ISZERO ISZERO PUSH1 0xFF DUP1 NOT DUP4 SLOAD AND SWAP2 AND OR SWAP1 SSTORE PUSH1 0x40 MLOAD SWAP6 DUP7 MSTORE AND SWAP4 LOG3 PUSH1 0x40 MLOAD SWAP1 DUP2 MSTORE RETURN JUMPDEST ADD MLOAD SWAP3 POP CODESIZE DUP1 PUSH3 0xF45 JUMP JUMPDEST SWAP2 SWAP1 PUSH1 0x2 DUP8 SWAP6 SWAP5 SWAP6 ADD DUP4 MSTORE DUP14 DUP4 KECCAK256 SWAP3 JUMPDEST PUSH1 0x1F NOT DUP6 AND DUP2 LT PUSH3 0x1015 JUMPI POP SWAP4 DUP4 DUP15 SWAP10 SWAP8 SWAP4 PUSH32 0x991E9B0E2F98C3989F4541CE66E9ACA44E8BFB1C75BCF862D80F800369E6C6A3 SWAP12 SWAP10 SWAP8 SWAP4 PUSH1 0x80 SWAP8 PUSH1 0x4 SWAP8 PUSH1 0x1F NOT DUP2 AND LT PUSH3 0xFFC JUMPI JUMPDEST POP POP POP DUP2 SHL ADD PUSH1 0x2 DUP4 ADD SSTORE PUSH3 0xF59 JUMP JUMPDEST ADD MLOAD PUSH1 0x0 NOT DUP4 DUP7 SHL PUSH1 0xF8 AND SHR NOT AND SWAP1 SSTORE CODESIZE DUP1 DUP1 PUSH3 0xFEB JUMP JUMPDEST DUP3 DUP3 ADD MLOAD DUP5 SSTORE DUP14 SWAP12 POP SWAP3 DUP6 ADD SWAP3 SWAP2 DUP15 ADD SWAP2 DUP15 ADD PUSH3 0xFA1 JUMP JUMPDEST PUSH3 0x105E SWAP1 PUSH1 0x2 DUP9 ADD DUP5 MSTORE DUP15 DUP5 KECCAK256 PUSH1 0x1F DUP8 ADD PUSH1 0x5 SHR DUP2 ADD SWAP2 PUSH1 0x20 DUP9 LT PUSH3 0x1065 JUMPI JUMPDEST PUSH1 0x1F ADD PUSH1 0x5 SHR ADD SWAP1 PUSH3 0x1AF5 JUMP JUMPDEST CODESIZE PUSH3 0xEFC JUMP JUMPDEST SWAP1 SWAP2 POP DUP2 SWAP1 PUSH3 0x1050 JUMP JUMPDEST PUSH4 0x4E487B71 PUSH1 0xE0 SHL DUP4 MSTORE PUSH1 0x41 PUSH1 0x4 MSTORE DUP3 REVERT JUMPDEST POP PUSH4 0x4E487B71 PUSH1 0xE0 SHL PUSH1 0x0 SWAP1 DUP2 MSTORE PUSH1 0x41 PUSH1 0x4 MSTORE REVERT JUMPDEST PUSH4 0x4E487B71 PUSH1 0xE0 SHL DUP2 MSTORE PUSH1 0x11 PUSH1 0x4 MSTORE DUP6 SWAP1 REVERT JUMPDEST PUSH1 0x40 MLOAD PUSH3 0x461BCD PUSH1 0xE5 SHL DUP2 MSTORE PUSH1 0x20 PUSH1 0x4 DUP3 ADD MSTORE PUSH1 0x1D DUP2 DUP7 ADD MSTORE PUSH32 0x53616C654D616E616765723A206F7065726174696F6E20657869737473000000 PUSH1 0x44 DUP3 ADD MSTORE PUSH1 0x64 SWAP1 REVERT JUMPDEST PUSH1 0x40 MLOAD PUSH3 0x461BCD PUSH1 0xE5 SHL DUP2 MSTORE PUSH1 0x20 PUSH1 0x4 DUP3 ADD MSTORE PUSH1 0x18 DUP2 DUP5 ADD MSTORE PUSH32 0x53616C654D616E616765723A207A65726F207461726765740000000000000000 PUSH1 0x44 DUP3 ADD MSTORE PUSH1 0x64 SWAP1 REVERT JUMPDEST DUP3 DUP1 REVERT JUMPDEST POP CALLVALUE PUSH3 0x20B JUMPI PUSH1 0x20 SWAP1 DUP2 PUSH1 0x3 NOT CALLDATASIZE ADD SLT PUSH3 0x20B JUMPI PUSH1 0x4 CALLDATALOAD DUP2 MSTORE PUSH1 0x3 DUP3 MSTORE PUSH1 0x40 DUP2 KECCAK256 DUP1 SLOAD SWAP2 PUSH1 0x1 DUP1 DUP1 PUSH1 0xA0 SHL SUB PUSH1 0x1 DUP5 ADD SLOAD AND SWAP2 DUP6 PUSH1 0x2 DUP6 ADD PUSH1 0x40 MLOAD SWAP4 DUP4 DUP3 SLOAD SWAP3 PUSH3 0x1183 DUP5 PUSH3 0x19BA JUMP JUMPDEST DUP1 DUP9 MSTORE SWAP4 PUSH1 0x1 DUP2 AND SWAP1 DUP2 ISZERO PUSH3 0x122E JUMPI POP PUSH1 0x1 EQ PUSH3 0x11F1 JUMPI JUMPDEST POP POP POP POP POP SWAP1 PUSH3 0x11B5 DUP2 PUSH3 0x11E0 SWAP4 SUB DUP3 PUSH3 0x193E JUMP JUMPDEST PUSH1 0xFF PUSH1 0x4 PUSH1 0x3 DUP7 ADD SLOAD SWAP6 ADD SLOAD AND SWAP3 PUSH1 0x40 MLOAD SWAP7 DUP8 SWAP7 DUP8 MSTORE DUP7 ADD MSTORE PUSH1 0xA0 PUSH1 0x40 DUP7 ADD MSTORE PUSH1 0xA0 DUP6 ADD SWAP1 PUSH3 0x1A1C JUMP JUMPDEST SWAP2 PUSH1 0x60 DUP5 ADD MSTORE ISZERO ISZERO PUSH1 0x80 DUP4 ADD MSTORE SUB SWAP1 RETURN JUMPDEST SWAP1 DUP1 SWAP5 SWAP6 POP MSTORE DUP4 DUP4 KECCAK256 JUMPDEST DUP3 DUP5 LT PUSH3 0x121A JUMPI POP POP POP DUP3 ADD ADD DUP6 DUP3 PUSH3 0x11E0 PUSH3 0x11B5 CODESIZE PUSH3 0x119D JUMP JUMPDEST DUP1 SLOAD DUP7 DUP6 ADD DUP7 ADD MSTORE SWAP3 DUP5 ADD SWAP3 DUP2 ADD PUSH3 0x11FB JUMP JUMPDEST PUSH1 0xFF NOT AND DUP7 DUP10 ADD MSTORE POP POP POP POP ISZERO ISZERO PUSH1 0x5 SHL DUP4 ADD ADD SWAP1 POP DUP6 DUP3 PUSH3 0x11E0 PUSH3 0x11B5 CODESIZE PUSH3 0x119D JUMP JUMPDEST POP CALLVALUE PUSH3 0x20B JUMPI DUP1 PUSH1 0x3 NOT CALLDATASIZE ADD SLT PUSH3 0x20B JUMPI PUSH3 0x1272 PUSH3 0x1BC0 JUMP JUMPDEST DUP1 SLOAD PUSH1 0xFF DUP2 PUSH1 0xA0 SHR AND ISZERO PUSH3 0x12E5 JUMPI PUSH1 0xFF PUSH1 0xA0 SHL NOT AND DUP2 SSTORE PUSH1 0x40 MLOAD CALLER DUP2 MSTORE PUSH32 0x5DB9EE0A495BF2E6FF9C91A7834C1BA4FDD244A5E8AA4E537BD38AEAE4B073AA SWAP1 PUSH1 0x20 SWAP1 LOG1 PUSH1 0x40 MLOAD TIMESTAMP DUP2 MSTORE PUSH32 0xE3338C1C649986DBDCC0A34160C789B50EDA42615D8768C5B7518B40AF6A80B2 PUSH1 0x20 CALLER SWAP3 LOG2 DUP1 RETURN JUMPDEST PUSH1 0x40 MLOAD PUSH3 0x461BCD PUSH1 0xE5 SHL DUP2 MSTORE PUSH1 0x20 PUSH1 0x4 DUP3 ADD MSTORE PUSH1 0x17 PUSH1 0x24 DUP3 ADD MSTORE PUSH32 0x53616C654D616E616765723A206E6F7420706175736564000000000000000000 PUSH1 0x44 DUP3 ADD MSTORE PUSH1 0x64 SWAP1 REVERT JUMPDEST POP CALLVALUE PUSH3 0x20B JUMPI DUP1 PUSH1 0x3 NOT CALLDATASIZE ADD SLT PUSH3 0x20B JUMPI PUSH1 0x40 MLOAD PUSH32 0x0 PUSH1 0x1 PUSH1 0x1 PUSH1 0xA0 SHL SUB AND DUP2 MSTORE PUSH1 0x20 SWAP1 RETURN JUMPDEST POP CALLVALUE PUSH3 0x20B JUMPI DUP1 PUSH1 0x3 NOT CALLDATASIZE ADD SLT PUSH3 0x20B JUMPI PUSH1 0x40 MLOAD PUSH32 0x0 PUSH1 0x1 PUSH1 0x1 PUSH1 0xA0 SHL SUB AND DUP2 MSTORE PUSH1 0x20 SWAP1 RETURN JUMPDEST POP CALLVALUE PUSH3 0x20B JUMPI PUSH1 0x3 NOT SWAP1 PUSH1 0x20 CALLDATASIZE DUP4 ADD SLT PUSH3 0x20B JUMPI PUSH1 0x4 CALLDATALOAD SWAP2 PUSH8 0xFFFFFFFFFFFFFFFF SWAP1 DUP2 DUP5 GT PUSH3 0x1132 JUMPI PUSH2 0x100 SWAP1 DUP5 CALLDATASIZE SUB ADD SLT PUSH3 0x7CC JUMPI PUSH1 0x40 MLOAD SWAP3 PUSH2 0x100 DUP5 ADD DUP5 DUP2 LT DUP4 DUP3 GT OR PUSH3 0x189E JUMPI PUSH1 0x40 MSTORE DUP1 PUSH1 0x4 ADD CALLDATALOAD DUP3 DUP2 GT PUSH3 0x189A JUMPI DUP2 ADD CALLDATASIZE PUSH1 0x23 DUP3 ADD SLT ISZERO PUSH3 0x189A JUMPI SWAP1 PUSH3 0x143E PUSH1 0xE4 SWAP3 CALLDATASIZE SWAP1 PUSH1 0x24 PUSH1 0x4 DUP3 ADD CALLDATALOAD SWAP2 ADD PUSH3 0x197E JUMP JUMPDEST DUP6 MSTORE PUSH1 0x24 DUP2 ADD CALLDATALOAD PUSH1 0x20 DUP7 ADD MSTORE PUSH1 0x44 DUP2 ADD CALLDATALOAD PUSH1 0x40 DUP7 ADD MSTORE PUSH1 0x64 DUP2 ADD CALLDATALOAD PUSH1 0x60 DUP7 ADD MSTORE PUSH1 0x84 DUP2 ADD CALLDATALOAD PUSH1 0x80 DUP7 ADD MSTORE PUSH1 0xA4 DUP2 ADD CALLDATALOAD PUSH1 0xA0 DUP7 ADD MSTORE PUSH1 0xC4 DUP2 ADD CALLDATALOAD PUSH1 0xC0 DUP7 ADD MSTORE ADD CALLDATALOAD DUP1 ISZERO ISZERO DUP2 SUB PUSH3 0x1132 JUMPI PUSH1 0xE0 DUP5 ADD MSTORE PUSH3 0x1497 PUSH3 0x1BC0 JUMP JUMPDEST PUSH3 0x14A1 PUSH3 0x1BED JUMP JUMPDEST PUSH1 0x20 DUP4 ADD MLOAD ISZERO PUSH3 0x1855 JUMPI PUSH1 0x40 DUP4 ADD MLOAD ISZERO PUSH3 0x1810 JUMPI PUSH1 0x80 DUP4 ADD MLOAD PUSH1 0x60 DUP5 ADD MLOAD LT ISZERO PUSH3 0x17CB JUMPI PUSH1 0x40 MLOAD SWAP1 DUP2 PUSH2 0x2CEA DUP2 ADD LT SWAP1 PUSH2 0x2CEA DUP4 ADD GT OR PUSH3 0x17AB JUMPI PUSH2 0x2CEA PUSH3 0x1C10 DUP3 CODECOPY ADDRESS PUSH2 0x2CEA DUP3 ADD SWAP1 DUP2 MSTORE PUSH1 0x1 PUSH1 0x1 PUSH1 0xA0 SHL SUB PUSH32 0x0 DUP2 AND PUSH1 0x20 DUP4 ADD MSTORE PUSH32 0x0 DUP2 AND PUSH1 0x40 DUP4 ADD MSTORE PUSH32 0x0 DUP2 AND PUSH1 0x60 DUP4 ADD MSTORE PUSH32 0x0 DUP2 AND PUSH1 0x80 DUP4 ADD MSTORE PUSH32 0x0 DUP2 AND PUSH1 0xA0 DUP4 ADD MSTORE PUSH32 0x0 DUP2 AND PUSH1 0xC0 DUP4 ADD MSTORE PUSH32 0x0 DUP2 AND PUSH1 0xE0 DUP4 ADD MSTORE PUSH32 0x0 DUP2 AND PUSH2 0x100 DUP1 DUP5 ADD SWAP2 SWAP1 SWAP2 MSTORE PUSH32 0x0 SWAP1 SWAP2 AND PUSH2 0x120 DUP4 ADD MSTORE PUSH2 0x160 PUSH2 0x140 DUP4 ADD DUP2 SWAP1 MSTORE DUP6 MLOAD SWAP1 DUP4 ADD SWAP2 SWAP1 SWAP2 MSTORE DUP3 SWAP2 PUSH3 0x1691 SWAP2 PUSH2 0x260 SWAP1 SWAP2 ADD SWAP1 PUSH3 0x1A1C JUMP JUMPDEST PUSH1 0x20 DUP6 ADD MLOAD PUSH2 0x2CEA DUP4 ADD PUSH2 0x180 DUP2 ADD SWAP2 SWAP1 SWAP2 MSTORE PUSH1 0x40 DUP7 ADD MLOAD PUSH2 0x1A0 DUP3 ADD MSTORE PUSH1 0x60 DUP7 ADD MLOAD PUSH2 0x1C0 DUP3 ADD MSTORE PUSH1 0x80 DUP7 ADD MLOAD PUSH2 0x1E0 DUP3 ADD MSTORE PUSH1 0xA0 DUP7 ADD MLOAD PUSH2 0x200 DUP3 ADD MSTORE PUSH1 0xC0 DUP7 ADD MLOAD PUSH2 0x220 DUP3 ADD MSTORE PUSH1 0xE0 DUP7 ADD MLOAD ISZERO ISZERO PUSH2 0x240 SWAP1 SWAP2 ADD MSTORE SUB SWAP1 DUP3 CREATE SWAP1 DUP2 ISZERO PUSH3 0x17BF JUMPI PUSH1 0x2 SLOAD PUSH9 0x10000000000000000 DUP2 LT ISZERO PUSH3 0x17AB JUMPI DUP1 PUSH1 0x1 PUSH3 0x171C SWAP3 ADD PUSH1 0x2 SSTORE PUSH3 0x1A5A JUMP JUMPDEST DUP2 SLOAD PUSH1 0x1 PUSH1 0x1 PUSH1 0xA0 SHL SUB SWAP5 DUP6 AND PUSH1 0x3 SWAP3 SWAP1 SWAP3 SHL DUP3 DUP2 SHL SWAP6 SWAP1 SHL NOT AND SWAP4 SWAP1 SWAP4 OR SWAP1 SSTORE PUSH1 0x2 SLOAD PUSH1 0x0 NOT DUP2 ADD SWAP2 SWAP1 DUP3 GT PUSH3 0x1797 JUMPI POP DUP2 PUSH32 0xA98BD13E2A1784A8B1FAD5A350965EABEB5D68DECD86B4C1BF8EC7C5BF3E0890 PUSH3 0x178C PUSH1 0x20 SWAP6 MLOAD PUSH1 0x40 MLOAD SWAP2 DUP3 SWAP2 DUP9 DUP4 MSTORE DUP9 DUP4 ADD SWAP1 PUSH3 0x1A1C JUMP JUMPDEST SUB SWAP1 LOG3 PUSH1 0x40 MLOAD SWAP1 DUP2 MSTORE RETURN JUMPDEST PUSH4 0x4E487B71 PUSH1 0xE0 SHL DUP2 MSTORE PUSH1 0x11 PUSH1 0x4 MSTORE PUSH1 0x24 SWAP1 REVERT JUMPDEST PUSH4 0x4E487B71 PUSH1 0xE0 SHL DUP3 MSTORE PUSH1 0x41 PUSH1 0x4 MSTORE PUSH1 0x24 DUP3 REVERT JUMPDEST PUSH1 0x40 MLOAD SWAP1 RETURNDATASIZE SWAP1 DUP3 RETURNDATACOPY RETURNDATASIZE SWAP1 REVERT JUMPDEST PUSH1 0x40 MLOAD PUSH3 0x461BCD PUSH1 0xE5 SHL DUP2 MSTORE PUSH1 0x20 PUSH1 0x4 DUP3 ADD MSTORE PUSH1 0x1F PUSH1 0x24 DUP3 ADD MSTORE PUSH32 0x53616C654D616E616765723A20696E76616C69642074696D652072616E676500 PUSH1 0x44 DUP3 ADD MSTORE PUSH1 0x64 SWAP1 REVERT JUMPDEST PUSH1 0x40 MLOAD PUSH3 0x461BCD PUSH1 0xE5 SHL DUP2 MSTORE PUSH1 0x20 PUSH1 0x4 DUP3 ADD MSTORE PUSH1 0x1D PUSH1 0x24 DUP3 ADD MSTORE PUSH32 0x53616C654D616E616765723A20696E76616C6964206861726420636170000000 PUSH1 0x44 DUP3 ADD MSTORE PUSH1 0x64 SWAP1 REVERT JUMPDEST PUSH1 0x40 MLOAD PUSH3 0x461BCD PUSH1 0xE5 SHL DUP2 MSTORE PUSH1 0x20 PUSH1 0x4 DUP3 ADD MSTORE PUSH1 0x1A PUSH1 0x24 DUP3 ADD MSTORE PUSH32 0x53616C654D616E616765723A20696E76616C6964207072696365000000000000 PUSH1 0x44 DUP3 ADD MSTORE PUSH1 0x64 SWAP1 REVERT JUMPDEST DUP4 DUP1 REVERT JUMPDEST PUSH4 0x4E487B71 PUSH1 0xE0 SHL PUSH1 0x0 MSTORE PUSH1 0x41 PUSH1 0x4 MSTORE PUSH1 0x24 PUSH1 0x0 REVERT JUMPDEST POP CALLVALUE PUSH3 0x20B JUMPI PUSH1 0x20 CALLDATASIZE PUSH1 0x3 NOT ADD SLT PUSH3 0x20B JUMPI DUP1 PUSH3 0x18DA PUSH1 0x4 CALLDATALOAD PUSH3 0x255 PUSH3 0x1BC0 JUMP JUMPDEST SWAP1 SLOAD PUSH1 0x3 SWAP2 SWAP1 SWAP2 SHL SHR PUSH1 0x1 PUSH1 0x1 PUSH1 0xA0 SHL SUB AND DUP1 EXTCODESIZE ISZERO PUSH3 0x46B JUMPI DUP2 SWAP1 PUSH1 0x4 PUSH1 0x40 MLOAD DUP1 SWAP5 DUP2 SWAP4 PUSH4 0x8456CB59 PUSH1 0xE0 SHL DUP4 MSTORE GAS CALL DUP1 ISZERO PUSH3 0x3B0 JUMPI PUSH3 0x191B JUMPI POP DUP1 RETURN JUMPDEST PUSH3 0x1926 SWAP1 PUSH3 0x1929 JUMP JUMPDEST DUP1 RETURN JUMPDEST PUSH8 0xFFFFFFFFFFFFFFFF DUP2 GT PUSH3 0x189E JUMPI PUSH1 0x40 MSTORE JUMP JUMPDEST SWAP1 PUSH1 0x1F DUP1 NOT SWAP2 ADD AND DUP2 ADD SWAP1 DUP2 LT PUSH8 0xFFFFFFFFFFFFFFFF DUP3 GT OR PUSH3 0x189E JUMPI PUSH1 0x40 MSTORE JUMP JUMPDEST PUSH8 0xFFFFFFFFFFFFFFFF DUP2 GT PUSH3 0x189E JUMPI PUSH1 0x1F ADD PUSH1 0x1F NOT AND PUSH1 0x20 ADD SWAP1 JUMP JUMPDEST SWAP3 SWAP2 SWAP3 PUSH3 0x198C DUP3 PUSH3 0x1961 JUMP JUMPDEST SWAP2 PUSH3 0x199C PUSH1 0x40 MLOAD SWAP4 DUP5 PUSH3 0x193E JUMP JUMPDEST DUP3 SWAP5 DUP2 DUP5 MSTORE DUP2 DUP4 ADD GT PUSH3 0x3F0 JUMPI DUP3 DUP2 PUSH1 0x20 SWAP4 DUP5 PUSH1 0x0 SWAP7 ADD CALLDATACOPY ADD ADD MSTORE JUMP JUMPDEST SWAP1 PUSH1 0x1 DUP3 DUP2 SHR SWAP3 AND DUP1 ISZERO PUSH3 0x19EC JUMPI JUMPDEST PUSH1 0x20 DUP4 LT EQ PUSH3 0x19D6 JUMPI JUMP JUMPDEST PUSH4 0x4E487B71 PUSH1 0xE0 SHL PUSH1 0x0 MSTORE PUSH1 0x22 PUSH1 0x4 MSTORE PUSH1 0x24 PUSH1 0x0 REVERT JUMPDEST SWAP2 PUSH1 0x7F AND SWAP2 PUSH3 0x19CA JUMP JUMPDEST PUSH1 0x0 JUMPDEST DUP4 DUP2 LT PUSH3 0x1A0B JUMPI POP POP PUSH1 0x0 SWAP2 ADD MSTORE JUMP JUMPDEST DUP2 DUP2 ADD MLOAD DUP4 DUP3 ADD MSTORE PUSH1 0x20 ADD PUSH3 0x19FA JUMP JUMPDEST SWAP1 PUSH1 0x20 SWAP2 PUSH3 0x1A37 DUP2 MLOAD DUP1 SWAP3 DUP2 DUP6 MSTORE DUP6 DUP1 DUP7 ADD SWAP2 ADD PUSH3 0x19F7 JUMP JUMPDEST PUSH1 0x1F ADD PUSH1 0x1F NOT AND ADD ADD SWAP1 JUMP JUMPDEST PUSH1 0x4 CALLDATALOAD SWAP1 PUSH1 0x1 PUSH1 0x1 PUSH1 0xA0 SHL SUB DUP3 AND DUP3 SUB PUSH3 0x3F0 JUMPI JUMP JUMPDEST PUSH1 0x2 SLOAD DUP2 LT ISZERO PUSH3 0x1A92 JUMPI PUSH1 0x2 PUSH1 0x0 MSTORE PUSH32 0x405787FA12A823E0F2B7631CC41B3BA8828B3321CA811111FA75CD3AA3BB5ACE ADD SWAP1 PUSH1 0x0 SWAP1 JUMP JUMPDEST PUSH4 0x4E487B71 PUSH1 0xE0 SHL PUSH1 0x0 MSTORE PUSH1 0x32 PUSH1 0x4 MSTORE PUSH1 0x24 PUSH1 0x0 REVERT JUMPDEST ISZERO PUSH3 0x1AB0 JUMPI JUMP JUMPDEST PUSH1 0x40 MLOAD PUSH3 0x461BCD PUSH1 0xE5 SHL DUP2 MSTORE PUSH1 0x20 PUSH1 0x4 DUP3 ADD MSTORE PUSH1 0x1A PUSH1 0x24 DUP3 ADD MSTORE PUSH32 0x53616C654D616E616765723A20696E76616C696420696E646578000000000000 PUSH1 0x44 DUP3 ADD MSTORE PUSH1 0x64 SWAP1 REVERT JUMPDEST DUP2 DUP2 LT PUSH3 0x1B01 JUMPI POP POP JUMP JUMPDEST PUSH1 0x0 DUP2 SSTORE PUSH1 0x1 ADD PUSH3 0x1AF5 JUMP JUMPDEST ISZERO PUSH3 0x1B16 JUMPI JUMP JUMPDEST PUSH1 0x64 PUSH1 0x40 MLOAD PUSH3 0x461BCD PUSH1 0xE5 SHL DUP2 MSTORE PUSH1 0x20 PUSH1 0x4 DUP3 ADD MSTORE PUSH1 0x20 PUSH1 0x24 DUP3 ADD MSTORE PUSH32 0x53616C654D616E616765723A206F7065726174696F6E206E6F7420666F756E64 PUSH1 0x44 DUP3 ADD MSTORE REVERT JUMPDEST ISZERO PUSH3 0x1B62 JUMPI JUMP JUMPDEST PUSH1 0x40 MLOAD PUSH3 0x461BCD PUSH1 0xE5 SHL DUP2 MSTORE PUSH1 0x20 PUSH1 0x4 DUP3 ADD MSTORE PUSH1 0x1D PUSH1 0x24 DUP3 ADD MSTORE PUSH32 0x53616C654D616E616765723A20616C7265616479206578656375746564000000 PUSH1 0x44 DUP3 ADD MSTORE PUSH1 0x64 SWAP1 REVERT JUMPDEST PUSH8 0xFFFFFFFFFFFFFFFF DUP2 GT PUSH3 0x189E JUMPI PUSH1 0x5 SHL PUSH1 0x20 ADD SWAP1 JUMP JUMPDEST PUSH1 0x0 SLOAD PUSH1 0x1 PUSH1 0x1 PUSH1 0xA0 SHL SUB AND CALLER SUB PUSH3 0x1BD5 JUMPI JUMP JUMPDEST PUSH1 0x40 MLOAD PUSH4 0x118CDAA7 PUSH1 0xE0 SHL DUP2 MSTORE CALLER PUSH1 0x4 DUP3 ADD MSTORE PUSH1 0x24 SWAP1 REVERT JUMPDEST PUSH1 0xFF PUSH1 0x0 SLOAD PUSH1 0xA0 SHR AND PUSH3 0x1BFD JUMPI JUMP JUMPDEST PUSH1 0x40 MLOAD PUSH4 0xD93C0665 PUSH1 0xE0 SHL DUP2 MSTORE PUSH1 0x4 SWAP1 REVERT INVALID PUSH2 0x1C0 PUSH1 0x40 MSTORE CALLVALUE PUSH3 0x86C JUMPI PUSH3 0x2CEA DUP1 CODESIZE SUB DUP1 PUSH3 0x1E DUP2 PUSH3 0x88B JUMP JUMPDEST SWAP3 DUP4 CODECOPY PUSH2 0x160 DUP3 DUP3 DUP2 ADD SUB SLT PUSH3 0x86C JUMPI PUSH3 0x3A DUP3 PUSH3 0x8B1 JUMP JUMPDEST PUSH3 0x48 PUSH1 0x20 DUP5 ADD PUSH3 0x8B1 JUMP JUMPDEST PUSH3 0x56 PUSH1 0x40 DUP6 ADD PUSH3 0x8B1 JUMP JUMPDEST PUSH3 0x64 PUSH1 0x60 DUP7 ADD PUSH3 0x8B1 JUMP JUMPDEST PUSH3 0x72 PUSH1 0x80 DUP8 ADD PUSH3 0x8B1 JUMP JUMPDEST SWAP1 PUSH3 0x81 PUSH1 0xA0 DUP9 ADD PUSH3 0x8B1 JUMP JUMPDEST SWAP3 PUSH3 0x90 PUSH1 0xC0 DUP10 ADD PUSH3 0x8B1 JUMP JUMPDEST SWAP5 PUSH3 0x9F PUSH1 0xE0 DUP11 ADD PUSH3 0x8B1 JUMP JUMPDEST SWAP7 PUSH3 0xAF PUSH2 0x100 DUP12 ADD PUSH3 0x8B1 JUMP JUMPDEST SWAP9 PUSH3 0xBF PUSH2 0x120 DUP13 ADD PUSH3 0x8B1 JUMP JUMPDEST PUSH2 0x140 DUP13 ADD MLOAD SWAP1 SWAP12 SWAP1 SWAP2 PUSH1 0x1 PUSH1 0x1 PUSH1 0x40 SHL SUB DUP4 GT PUSH3 0x86C JUMPI PUSH2 0x100 DUP4 DUP4 ADD DUP3 DUP5 ADD SUB SLT PUSH3 0x86C JUMPI PUSH1 0x40 MLOAD PUSH2 0x1A0 DUP2 SWAP1 MSTORE PUSH2 0x100 DUP2 ADD SWAP1 DUP2 LT PUSH1 0x1 PUSH1 0x1 PUSH1 0x40 SHL SUB DUP3 GT OR PUSH3 0x5A4 JUMPI PUSH1 0x40 MSTORE DUP2 DUP4 ADD MLOAD PUSH1 0x1 PUSH1 0x1 PUSH1 0x40 SHL SUB DUP2 GT PUSH3 0x86C JUMPI DUP2 DUP4 ADD PUSH1 0x1F DUP3 DUP7 DUP7 ADD ADD ADD SLT ISZERO PUSH3 0x86C JUMPI DUP3 DUP5 ADD DUP2 ADD MLOAD SWAP1 PUSH1 0x1 PUSH1 0x1 PUSH1 0x40 SHL SUB DUP3 GT PUSH3 0x5A4 JUMPI PUSH3 0x15C PUSH1 0x1F DUP4 ADD PUSH1 0x1F NOT AND PUSH1 0x20 ADD PUSH3 0x88B JUMP JUMPDEST SWAP3 DUP3 DUP5 MSTORE DUP5 ADD PUSH1 0x20 DUP4 DUP4 DUP9 DUP9 ADD ADD ADD ADD GT PUSH3 0x86C JUMPI PUSH1 0x0 JUMPDEST DUP3 DUP2 LT PUSH3 0x871 JUMPI POP POP SWAP1 PUSH1 0x0 PUSH1 0x20 PUSH1 0xE0 SWAP6 SWAP5 SWAP4 DUP4 ADD ADD MSTORE PUSH2 0x1A0 MLOAD MSTORE PUSH1 0x20 DUP3 DUP3 ADD ADD MLOAD PUSH1 0x20 PUSH2 0x1A0 MLOAD ADD MSTORE PUSH1 0x40 DUP3 DUP3 ADD ADD MLOAD PUSH1 0x40 PUSH2 0x1A0 MLOAD ADD MSTORE PUSH1 0x60 DUP3 DUP3 ADD ADD MLOAD PUSH1 0x60 PUSH2 0x1A0 MLOAD ADD MSTORE PUSH1 0x80 DUP3 DUP3 ADD ADD MLOAD PUSH1 0x80 PUSH2 0x1A0 MLOAD ADD MSTORE PUSH1 0xA0 DUP3 DUP3 ADD ADD MLOAD PUSH1 0xA0 PUSH2 0x1A0 MLOAD ADD MSTORE PUSH1 0xC0 DUP3 DUP3 ADD ADD MLOAD PUSH1 0xC0 PUSH2 0x1A0 MLOAD ADD MSTORE ADD ADD MLOAD DUP1 ISZERO ISZERO DUP2 SUB PUSH3 0x86C JUMPI PUSH2 0x1A0 MLOAD PUSH1 0xE0 ADD MSTORE PUSH1 0x1 PUSH1 0x0 SSTORE PUSH1 0x1 PUSH1 0x1 PUSH1 0xA0 SHL SUB DUP2 AND ISZERO PUSH3 0x827 JUMPI PUSH1 0x1 PUSH1 0x1 PUSH1 0xA0 SHL SUB DUP3 AND ISZERO PUSH3 0x7E2 JUMPI PUSH1 0x1 PUSH1 0x1 PUSH1 0xA0 SHL SUB DUP4 AND ISZERO PUSH3 0x79D JUMPI PUSH1 0x1 PUSH1 0x1 PUSH1 0xA0 SHL SUB DUP5 AND ISZERO PUSH3 0x758 JUMPI PUSH1 0x1 PUSH1 0x1 PUSH1 0xA0 SHL SUB DUP6 AND ISZERO PUSH3 0x713 JUMPI PUSH1 0x1 PUSH1 0x1 PUSH1 0xA0 SHL SUB DUP7 AND ISZERO PUSH3 0x6CE JUMPI PUSH1 0x1 PUSH1 0x1 PUSH1 0xA0 SHL SUB DUP8 AND ISZERO PUSH3 0x689 JUMPI PUSH1 0x1 PUSH1 0x1 PUSH1 0xA0 SHL SUB DUP9 AND ISZERO PUSH3 0x644 JUMPI PUSH1 0x1 PUSH1 0x1 PUSH1 0xA0 SHL SUB DUP10 AND ISZERO PUSH3 0x5FF JUMPI PUSH1 0x1 PUSH1 0x1 PUSH1 0xA0 SHL SUB DUP11 AND ISZERO PUSH3 0x5BA JUMPI PUSH1 0x80 MSTORE PUSH1 0x1 PUSH1 0x1 PUSH1 0xA0 SHL SUB SWAP1 DUP2 AND PUSH1 0xA0 MSTORE SWAP1 DUP2 AND PUSH1 0xC0 MSTORE SWAP1 DUP2 AND PUSH1 0xE0 MSTORE SWAP1 DUP2 AND PUSH2 0x100 MSTORE SWAP1 DUP2 AND PUSH2 0x120 MSTORE SWAP1 DUP2 AND PUSH2 0x140 MSTORE SWAP1 DUP2 AND PUSH2 0x160 MSTORE SWAP1 DUP2 AND PUSH2 0x180 MSTORE PUSH1 0xA DUP1 SLOAD PUSH1 0x1 PUSH1 0x1 PUSH1 0xA0 SHL SUB NOT AND SWAP3 SWAP1 SWAP2 AND SWAP2 SWAP1 SWAP2 OR SWAP1 SSTORE PUSH2 0x1A0 MLOAD MLOAD DUP1 MLOAD PUSH1 0x1 PUSH1 0x1 PUSH1 0x40 SHL SUB DUP2 GT PUSH3 0x5A4 JUMPI PUSH1 0x2 SLOAD PUSH1 0x1 DUP2 DUP2 SHR SWAP2 AND DUP1 ISZERO PUSH3 0x599 JUMPI JUMPDEST PUSH1 0x20 DUP3 LT EQ PUSH3 0x583 JUMPI PUSH1 0x1F DUP2 GT PUSH3 0x519 JUMPI JUMPDEST POP PUSH1 0x20 SWAP2 PUSH1 0x1F DUP3 GT PUSH1 0x1 EQ PUSH3 0x4AF JUMPI SWAP2 DUP2 SWAP3 PUSH1 0x0 SWAP3 PUSH3 0x4A3 JUMPI JUMPDEST POP POP DUP2 PUSH1 0x1 SHL SWAP2 PUSH1 0x0 NOT SWAP1 PUSH1 0x3 SHL SHR NOT AND OR PUSH1 0x2 SSTORE JUMPDEST PUSH1 0x20 PUSH2 0x1A0 MLOAD ADD MLOAD PUSH1 0x3 SSTORE PUSH1 0x40 PUSH2 0x1A0 MLOAD ADD MLOAD PUSH1 0x4 SSTORE PUSH1 0x60 PUSH2 0x1A0 MLOAD ADD MLOAD PUSH1 0x5 SSTORE PUSH1 0x80 PUSH2 0x1A0 MLOAD ADD MLOAD PUSH1 0x6 SSTORE PUSH1 0xA0 PUSH2 0x1A0 MLOAD ADD MLOAD PUSH1 0x7 SSTORE PUSH1 0xC0 PUSH2 0x1A0 MLOAD ADD MLOAD PUSH1 0x8 SSTORE PUSH1 0xE0 PUSH2 0x1A0 MLOAD ADD MLOAD ISZERO ISZERO PUSH1 0xFF DUP1 NOT PUSH1 0x9 SLOAD AND SWAP2 AND OR PUSH1 0x9 SSTORE PUSH1 0x40 MLOAD PUSH2 0x2423 SWAP1 DUP2 PUSH3 0x8C7 DUP3 CODECOPY PUSH1 0x80 MLOAD DUP2 DUP2 DUP2 PUSH2 0x619 ADD MSTORE DUP2 DUP2 PUSH2 0x839 ADD MSTORE DUP2 DUP2 PUSH2 0x1114 ADD MSTORE DUP2 DUP2 PUSH2 0x1366 ADD MSTORE PUSH2 0x155B ADD MSTORE PUSH1 0xA0 MLOAD DUP2 PUSH2 0x3C0 ADD MSTORE PUSH1 0xC0 MLOAD DUP2 DUP2 DUP2 PUSH2 0x7F5 ADD MSTORE PUSH2 0x1D1B ADD MSTORE PUSH1 0xE0 MLOAD DUP2 DUP2 DUP2 PUSH2 0x7B1 ADD MSTORE PUSH2 0x1D55 ADD MSTORE PUSH2 0x100 MLOAD DUP2 DUP2 DUP2 PUSH2 0x404 ADD MSTORE DUP2 DUP2 PUSH2 0xA63 ADD MSTORE DUP2 DUP2 PUSH2 0xCD2 ADD MSTORE DUP2 DUP2 PUSH2 0x1F2F ADD MSTORE PUSH2 0x212F ADD MSTORE PUSH2 0x120 MLOAD DUP2 DUP2 DUP2 PUSH2 0x265 ADD MSTORE DUP2 DUP2 PUSH2 0x37C ADD MSTORE PUSH2 0xB25 ADD MSTORE PUSH2 0x140 MLOAD DUP2 DUP2 DUP2 PUSH2 0x448 ADD MSTORE DUP2 DUP2 PUSH2 0xBC6 ADD MSTORE DUP2 DUP2 PUSH2 0x1259 ADD MSTORE PUSH2 0x2013 ADD MSTORE PUSH2 0x160 MLOAD DUP2 DUP2 DUP2 PUSH2 0x4F8 ADD MSTORE PUSH2 0x11A7 ADD MSTORE PUSH2 0x180 MLOAD DUP2 DUP2 DUP2 PUSH2 0x20F ADD MSTORE PUSH2 0x11EB ADD MSTORE RETURN JUMPDEST ADD MLOAD SWAP1 POP CODESIZE DUP1 PUSH3 0x356 JUMP JUMPDEST PUSH1 0x1F NOT DUP3 AND SWAP3 PUSH1 0x2 PUSH1 0x0 MSTORE PUSH1 0x20 PUSH1 0x0 KECCAK256 SWAP2 PUSH1 0x0 JUMPDEST DUP6 DUP2 LT PUSH3 0x500 JUMPI POP DUP4 PUSH1 0x1 SWAP6 LT PUSH3 0x4E6 JUMPI JUMPDEST POP POP POP DUP2 SHL ADD PUSH1 0x2 SSTORE PUSH3 0x36C JUMP JUMPDEST ADD MLOAD PUSH1 0x0 NOT PUSH1 0xF8 DUP5 PUSH1 0x3 SHL AND SHR NOT AND SWAP1 SSTORE CODESIZE DUP1 DUP1 PUSH3 0x4D7 JUMP JUMPDEST SWAP2 SWAP3 PUSH1 0x20 PUSH1 0x1 DUP2 SWAP3 DUP7 DUP6 ADD MLOAD DUP2 SSTORE ADD SWAP5 ADD SWAP3 ADD PUSH3 0x4C3 JUMP JUMPDEST PUSH1 0x2 PUSH1 0x0 MSTORE PUSH32 0x405787FA12A823E0F2B7631CC41B3BA8828B3321CA811111FA75CD3AA3BB5ACE PUSH1 0x1F DUP4 ADD PUSH1 0x5 SHR DUP2 ADD SWAP2 PUSH1 0x20 DUP5 LT PUSH3 0x578 JUMPI JUMPDEST PUSH1 0x1F ADD PUSH1 0x5 SHR ADD SWAP1 JUMPDEST DUP2 DUP2 LT PUSH3 0x56B JUMPI POP PUSH3 0x33A JUMP JUMPDEST PUSH1 0x0 DUP2 SSTORE PUSH1 0x1 ADD PUSH3 0x55C JUMP JUMPDEST SWAP1 SWAP2 POP DUP2 SWAP1 PUSH3 0x553 JUMP JUMPDEST PUSH4 0x4E487B71 PUSH1 0xE0 SHL PUSH1 0x0 MSTORE PUSH1 0x22 PUSH1 0x4 MSTORE PUSH1 0x24 PUSH1 0x0 REVERT JUMPDEST SWAP1 PUSH1 0x7F AND SWAP1 PUSH3 0x326 JUMP JUMPDEST PUSH4 0x4E487B71 PUSH1 0xE0 SHL PUSH1 0x0 MSTORE PUSH1 0x41 PUSH1 0x4 MSTORE PUSH1 0x24 PUSH1 0x0 REVERT JUMPDEST PUSH1 0x40 MLOAD PUSH3 0x461BCD PUSH1 0xE5 SHL DUP2 MSTORE PUSH1 0x20 PUSH1 0x4 DUP3 ADD MSTORE PUSH1 0x16 PUSH1 0x24 DUP3 ADD MSTORE PUSH32 0x53616C65526F756E643A207A65726F206F7261636C6500000000000000000000 PUSH1 0x44 DUP3 ADD MSTORE PUSH1 0x64 SWAP1 REVERT JUMPDEST PUSH1 0x40 MLOAD PUSH3 0x461BCD PUSH1 0xE5 SHL DUP2 MSTORE PUSH1 0x20 PUSH1 0x4 DUP3 ADD MSTORE PUSH1 0x14 PUSH1 0x24 DUP3 ADD MSTORE PUSH32 0x53616C65526F756E643A207A65726F2075736474000000000000000000000000 PUSH1 0x44 DUP3 ADD MSTORE PUSH1 0x64 SWAP1 REVERT JUMPDEST PUSH1 0x40 MLOAD PUSH3 0x461BCD PUSH1 0xE5 SHL DUP2 MSTORE PUSH1 0x20 PUSH1 0x4 DUP3 ADD MSTORE PUSH1 0x14 PUSH1 0x24 DUP3 ADD MSTORE PUSH32 0x53616C65526F756E643A207A65726F2075736463000000000000000000000000 PUSH1 0x44 DUP3 ADD MSTORE PUSH1 0x64 SWAP1 REVERT JUMPDEST PUSH1 0x40 MLOAD PUSH3 0x461BCD PUSH1 0xE5 SHL DUP2 MSTORE PUSH1 0x20 PUSH1 0x4 DUP3 ADD MSTORE PUSH1 0x18 PUSH1 0x24 DUP3 ADD MSTORE PUSH32 0x53616C65526F756E643A207A65726F20726566657272616C0000000000000000 PUSH1 0x44 DUP3 ADD MSTORE PUSH1 0x64 SWAP1 REVERT JUMPDEST PUSH1 0x40 MLOAD PUSH3 0x461BCD PUSH1 0xE5 SHL DUP2 MSTORE PUSH1 0x20 PUSH1 0x4 DUP3 ADD MSTORE PUSH1 0x15 PUSH1 0x24 DUP3 ADD MSTORE PUSH32 0x53616C65526F756E643A207A65726F2066756E64730000000000000000000000 PUSH1 0x44 DUP3 ADD MSTORE PUSH1 0x64 SWAP1 REVERT JUMPDEST PUSH1 0x40 MLOAD PUSH3 0x461BCD PUSH1 0xE5 SHL DUP2 MSTORE PUSH1 0x20 PUSH1 0x4 DUP3 ADD MSTORE PUSH1 0x17 PUSH1 0x24 DUP3 ADD MSTORE PUSH32 0x53616C65526F756E643A207A65726F2076657374696E67000000000000000000 PUSH1 0x44 DUP3 ADD MSTORE PUSH1 0x64 SWAP1 REVERT JUMPDEST PUSH1 0x40 MLOAD PUSH3 0x461BCD PUSH1 0xE5 SHL DUP2 MSTORE PUSH1 0x20 PUSH1 0x4 DUP3 ADD MSTORE PUSH1 0x17 PUSH1 0x24 DUP3 ADD MSTORE PUSH32 0x53616C65526F756E643A207A65726F206C696D69746572000000000000000000 PUSH1 0x44 DUP3 ADD MSTORE PUSH1 0x64 SWAP1 REVERT JUMPDEST PUSH1 0x40 MLOAD PUSH3 0x461BCD PUSH1 0xE5 SHL DUP2 MSTORE PUSH1 0x20 PUSH1 0x4 DUP3 ADD MSTORE PUSH1 0x13 PUSH1 0x24 DUP3 ADD MSTORE PUSH32 0x53616C65526F756E643A207A65726F206B796300000000000000000000000000 PUSH1 0x44 DUP3 ADD MSTORE PUSH1 0x64 SWAP1 REVERT JUMPDEST PUSH1 0x40 MLOAD PUSH3 0x461BCD PUSH1 0xE5 SHL DUP2 MSTORE PUSH1 0x20 PUSH1 0x4 DUP3 ADD MSTORE PUSH1 0x15 PUSH1 0x24 DUP3 ADD MSTORE PUSH32 0x53616C65526F756E643A207A65726F20746F6B656E0000000000000000000000 PUSH1 0x44 DUP3 ADD MSTORE PUSH1 0x64 SWAP1 REVERT JUMPDEST PUSH1 0x40 MLOAD PUSH3 0x461BCD PUSH1 0xE5 SHL DUP2 MSTORE PUSH1 0x20 PUSH1 0x4 DUP3 ADD MSTORE PUSH1 0x17 PUSH1 0x24 DUP3 ADD MSTORE PUSH32 0x53616C65526F756E643A207A65726F206D616E61676572000000000000000000 PUSH1 0x44 DUP3 ADD MSTORE PUSH1 0x64 SWAP1 REVERT JUMPDEST PUSH1 0x0 DUP1 REVERT JUMPDEST DUP1 PUSH1 0x20 DUP1 SWAP3 DUP5 DUP10 DUP10 ADD ADD ADD ADD MLOAD DUP3 DUP3 DUP8 ADD ADD MSTORE ADD PUSH3 0x175 JUMP JUMPDEST PUSH1 0x40 MLOAD SWAP2 SWAP1 PUSH1 0x1F ADD PUSH1 0x1F NOT AND DUP3 ADD PUSH1 0x1 PUSH1 0x1 PUSH1 0x40 SHL SUB DUP2 GT DUP4 DUP3 LT OR PUSH3 0x5A4 JUMPI PUSH1 0x40 MSTORE JUMP JUMPDEST MLOAD SWAP1 PUSH1 0x1 PUSH1 0x1 PUSH1 0xA0 SHL SUB DUP3 AND DUP3 SUB PUSH3 0x86C JUMPI JUMP INVALID PUSH1 0x80 PUSH1 0x40 SWAP1 DUP1 DUP3 MSTORE PUSH1 0x4 SWAP1 DUP2 CALLDATASIZE LT ISZERO PUSH2 0x17 JUMPI PUSH1 0x0 DUP1 REVERT JUMPDEST PUSH1 0x0 SWAP2 DUP3 CALLDATALOAD PUSH1 0xE0 SHR SWAP2 DUP3 PUSH4 0x7B6859A EQ PUSH2 0x146A JUMPI POP DUP2 PUSH4 0xB6D621C EQ PUSH2 0x1432 JUMPI DUP2 PUSH4 0x1252AF75 EQ PUSH2 0x1413 JUMPI DUP2 PUSH4 0x1CB44DFC EQ PUSH2 0x133B JUMPI DUP2 PUSH4 0x21874AE2 EQ PUSH2 0x121A JUMPI DUP2 PUSH4 0x2F48AB7D EQ PUSH2 0x11D6 JUMPI DUP2 PUSH4 0x3E413BEE EQ PUSH2 0x1192 JUMPI DUP2 PUSH4 0x3F4BA83A EQ PUSH2 0x10FB JUMPI DUP2 PUSH4 0x42E94C90 EQ PUSH2 0x10C3 JUMPI DUP2 PUSH4 0x444AA92F EQ PUSH2 0x868 JUMPI SWAP2 DUP1 SWAP4 SWAP3 DUP3 PUSH4 0x481C6A75 EQ PUSH2 0x824 JUMPI DUP3 PUSH4 0x4B155B97 EQ PUSH2 0x7E0 JUMPI DUP3 PUSH4 0x53D4FE33 EQ PUSH2 0x79C JUMPI DUP3 PUSH4 0x5C975ABB EQ PUSH2 0x778 JUMPI DUP3 PUSH4 0x6386C1C7 EQ PUSH2 0x720 JUMPI DUP3 PUSH4 0x63B20117 EQ PUSH2 0x701 JUMPI DUP3 PUSH4 0x706EB3AB EQ PUSH2 0x6D8 JUMPI DUP3 PUSH4 0x79502C55 EQ PUSH2 0x663 JUMPI DUP3 PUSH4 0x8456CB59 EQ PUSH2 0x5DC JUMPI DUP3 PUSH4 0x84BC76A6 EQ PUSH2 0x52F JUMPI DUP3 PUSH4 0x8C28C31A EQ PUSH2 0x477 JUMPI DUP3 PUSH4 0xA04E876C EQ PUSH2 0x433 JUMPI DUP3 PUSH4 0xA5917BAF EQ PUSH2 0x3EF JUMPI DUP3 PUSH4 0xAC76A908 EQ PUSH2 0x3AB JUMPI DUP3 PUSH4 0xB6CB7F41 EQ PUSH2 0x367 JUMPI DUP3 PUSH4 0xD095362F EQ PUSH2 0x18E JUMPI POP POP PUSH4 0xFF5BC5A6 EQ PUSH2 0x154 JUMPI PUSH1 0x0 DUP1 REVERT JUMPDEST CALLVALUE PUSH2 0x18A JUMPI PUSH1 0x20 CALLDATASIZE PUSH1 0x3 NOT ADD SLT PUSH2 0x18A JUMPI PUSH1 0x20 SWAP2 DUP2 SWAP1 PUSH1 0x1 PUSH1 0x1 PUSH1 0xA0 SHL SUB PUSH2 0x17A PUSH2 0x18F5 JUMP JUMPDEST AND DUP2 MSTORE PUSH1 0xF DUP5 MSTORE KECCAK256 SLOAD SWAP1 MLOAD SWAP1 DUP2 MSTORE RETURN JUMPDEST POP DUP1 REVERT JUMPDEST SWAP2 POP SWAP2 CALLVALUE PUSH2 0x363 JUMPI DUP1 PUSH1 0x3 NOT CALLDATASIZE ADD SLT PUSH2 0x363 JUMPI DUP2 CALLDATALOAD SWAP2 PUSH2 0x1AC PUSH2 0x1910 JUMP JUMPDEST SWAP3 PUSH2 0x1B5 PUSH2 0x1C9D JUMP JUMPDEST PUSH2 0x1BD PUSH2 0x1CC0 JUMP JUMPDEST PUSH2 0x1CB PUSH1 0xFF PUSH1 0x9 SLOAD AND PUSH2 0x1B89 JUMP JUMPDEST PUSH2 0x1D9 PUSH1 0x5 SLOAD TIMESTAMP LT ISZERO PUSH2 0x1BCD JUMP JUMPDEST PUSH2 0x1E7 PUSH1 0x6 SLOAD TIMESTAMP GT ISZERO PUSH2 0x1C12 JUMP JUMPDEST PUSH2 0x1F5 PUSH1 0xB SLOAD DUP4 SLOAD GT PUSH2 0x1C51 JUMP JUMPDEST PUSH2 0x1FF DUP2 CALLER PUSH2 0x1CF5 JUMP JUMPDEST PUSH2 0x208 DUP2 PUSH2 0x1E35 JUMP JUMPDEST SWAP4 PUSH2 0x24F DUP3 PUSH32 0x0 PUSH2 0x246 PUSH1 0x1 DUP1 PUSH1 0xA0 SHL SUB SWAP5 DUP6 DUP4 AND SWAP10 DUP5 DUP1 DUP13 CALLER PUSH2 0x1E96 JUMP JUMPDEST ADDRESS SWAP1 CALLER SWAP1 PUSH2 0x234E JUMP JUMPDEST DUP4 MLOAD PUSH4 0x95EA7B3 PUSH1 0xE0 SHL DUP2 MSTORE PUSH1 0x1 PUSH1 0x1 PUSH1 0xA0 SHL SUB PUSH32 0x0 SWAP3 SWAP1 SWAP3 AND SWAP2 DUP3 AND DUP5 DUP3 ADD SWAP1 DUP2 MSTORE PUSH1 0x20 DUP2 DUP2 ADD DUP6 SWAP1 MSTORE SWAP1 DUP3 SWAP1 DUP2 SWAP1 PUSH1 0x40 ADD SUB DUP2 DUP11 DUP11 GAS CALL DUP1 ISZERO PUSH2 0x359 JUMPI PUSH2 0x32A JUMPI JUMPDEST POP DUP1 EXTCODESIZE ISZERO PUSH2 0x326 JUMPI DUP4 MLOAD PUSH4 0x19C5AEF5 PUSH1 0xE1 SHL DUP2 MSTORE PUSH1 0x1 PUSH1 0x1 PUSH1 0xA0 SHL SUB SWAP1 SWAP6 AND SWAP3 DUP6 ADD SWAP3 DUP4 MSTORE PUSH1 0x20 DUP4 ADD SWAP2 SWAP1 SWAP2 MSTORE DUP5 SWAP2 DUP5 SWAP2 SWAP1 DUP3 SWAP1 DUP5 SWAP1 DUP3 SWAP1 PUSH1 0x40 ADD SUB SWAP3 GAS CALL SWAP1 DUP2 ISZERO PUSH2 0x31D JUMPI POP PUSH2 0x306 JUMPI JUMPDEST POP PUSH1 0x1 SWAP1 SSTORE DUP1 RETURN JUMPDEST PUSH2 0x30F SWAP1 PUSH2 0x18A3 JUMP JUMPDEST PUSH2 0x31A JUMPI DUP1 CODESIZE PUSH2 0x2FE JUMP JUMPDEST DUP1 REVERT JUMPDEST MLOAD RETURNDATASIZE DUP5 DUP3 RETURNDATACOPY RETURNDATASIZE SWAP1 REVERT JUMPDEST DUP6 DUP1 REVERT JUMPDEST PUSH2 0x34B SWAP1 PUSH1 0x20 RETURNDATASIZE PUSH1 0x20 GT PUSH2 0x352 JUMPI JUMPDEST PUSH2 0x343 DUP2 DUP4 PUSH2 0x18B7 JUMP JUMPDEST DUP2 ADD SWAP1 PUSH2 0x1B71 JUMP JUMPDEST POP CODESIZE PUSH2 0x2B2 JUMP JUMPDEST POP RETURNDATASIZE PUSH2 0x339 JUMP JUMPDEST DUP6 MLOAD RETURNDATASIZE DUP10 DUP3 RETURNDATACOPY RETURNDATASIZE SWAP1 REVERT JUMPDEST POP POP REVERT JUMPDEST POP DUP3 CALLVALUE PUSH2 0x18A JUMPI DUP2 PUSH1 0x3 NOT CALLDATASIZE ADD SLT PUSH2 0x18A JUMPI MLOAD PUSH32 0x0 PUSH1 0x1 PUSH1 0x1 PUSH1 0xA0 SHL SUB AND DUP2 MSTORE PUSH1 0x20 SWAP1 RETURN JUMPDEST POP DUP3 CALLVALUE PUSH2 0x18A JUMPI DUP2 PUSH1 0x3 NOT CALLDATASIZE ADD SLT PUSH2 0x18A JUMPI MLOAD PUSH32 0x0 PUSH1 0x1 PUSH1 0x1 PUSH1 0xA0 SHL SUB AND DUP2 MSTORE PUSH1 0x20 SWAP1 RETURN JUMPDEST POP DUP3 CALLVALUE PUSH2 0x18A JUMPI DUP2 PUSH1 0x3 NOT CALLDATASIZE ADD SLT PUSH2 0x18A JUMPI MLOAD PUSH32 0x0 PUSH1 0x1 PUSH1 0x1 PUSH1 0xA0 SHL SUB AND DUP2 MSTORE PUSH1 0x20 SWAP1 RETURN JUMPDEST POP DUP3 CALLVALUE PUSH2 0x18A JUMPI DUP2 PUSH1 0x3 NOT CALLDATASIZE ADD SLT PUSH2 0x18A JUMPI MLOAD PUSH32 0x0 PUSH1 0x1 PUSH1 0x1 PUSH1 0xA0 SHL SUB AND DUP2 MSTORE PUSH1 0x20 SWAP1 RETURN JUMPDEST SWAP2 POP SWAP2 CALLVALUE PUSH2 0x363 JUMPI DUP1 PUSH1 0x3 NOT CALLDATASIZE ADD SLT PUSH2 0x363 JUMPI DUP2 CALLDATALOAD SWAP2 PUSH2 0x495 PUSH2 0x1910 JUMP JUMPDEST SWAP3 PUSH2 0x49E PUSH2 0x1C9D JUMP JUMPDEST PUSH2 0x4A6 PUSH2 0x1CC0 JUMP JUMPDEST PUSH2 0x4B4 PUSH1 0xFF PUSH1 0x9 SLOAD AND PUSH2 0x1B89 JUMP JUMPDEST PUSH2 0x4C2 PUSH1 0x5 SLOAD TIMESTAMP LT ISZERO PUSH2 0x1BCD JUMP JUMPDEST PUSH2 0x4D0 PUSH1 0x6 SLOAD TIMESTAMP GT ISZERO PUSH2 0x1C12 JUMP JUMPDEST PUSH2 0x4DE PUSH1 0xB SLOAD DUP4 SLOAD GT PUSH2 0x1C51 JUMP JUMPDEST PUSH2 0x4E8 DUP2 CALLER PUSH2 0x1CF5 JUMP JUMPDEST PUSH2 0x4F1 DUP2 PUSH2 0x1E35 JUMP JUMPDEST SWAP4 PUSH2 0x24F DUP3 PUSH32 0x0 PUSH2 0x246 PUSH1 0x1 DUP1 PUSH1 0xA0 SHL SUB SWAP5 DUP6 DUP4 AND SWAP10 DUP5 DUP1 DUP13 CALLER PUSH2 0x1E96 JUMP JUMPDEST DUP4 CALLVALUE PUSH2 0x5D8 JUMPI DUP3 PUSH1 0x3 NOT CALLDATASIZE ADD SLT PUSH2 0x5D8 JUMPI PUSH2 0x5D4 SWAP3 PUSH1 0xE0 DUP3 MLOAD PUSH2 0x551 DUP2 PUSH2 0x1870 JUMP JUMPDEST PUSH1 0x60 DUP2 MSTORE DUP3 PUSH1 0x20 DUP3 ADD MSTORE DUP3 DUP5 DUP3 ADD MSTORE DUP3 PUSH1 0x60 DUP3 ADD MSTORE DUP3 PUSH1 0x80 DUP3 ADD MSTORE DUP3 PUSH1 0xA0 DUP3 ADD MSTORE DUP3 PUSH1 0xC0 DUP3 ADD MSTORE ADD MSTORE DUP1 MLOAD SWAP2 PUSH2 0x586 DUP4 PUSH2 0x1870 JUMP JUMPDEST PUSH2 0x58E PUSH2 0x1960 JUMP JUMPDEST DUP4 MSTORE PUSH1 0x3 SLOAD PUSH1 0x20 DUP5 ADD MSTORE SLOAD DUP2 DUP4 ADD MSTORE PUSH1 0x5 SLOAD PUSH1 0x60 DUP4 ADD MSTORE PUSH1 0x6 SLOAD PUSH1 0x80 DUP4 ADD MSTORE PUSH1 0x7 SLOAD PUSH1 0xA0 DUP4 ADD MSTORE PUSH1 0x8 SLOAD PUSH1 0xC0 DUP4 ADD MSTORE PUSH1 0xFF PUSH1 0x9 SLOAD AND ISZERO ISZERO PUSH1 0xE0 DUP4 ADD MSTORE MLOAD SWAP2 DUP3 SWAP2 DUP3 PUSH2 0x1A66 JUMP JUMPDEST SUB SWAP1 RETURN JUMPDEST DUP3 DUP1 REVERT JUMPDEST POP DUP3 CALLVALUE PUSH2 0x18A JUMPI DUP2 PUSH1 0x3 NOT CALLDATASIZE ADD SLT PUSH2 0x18A JUMPI PUSH32 0x62E78CEA01BEE320CD4E420270B5EA74000D11B0C9F74754EBDBFC544B05A258 SWAP1 PUSH1 0x20 SWAP1 PUSH2 0x647 CALLER PUSH32 0x0 PUSH1 0x1 PUSH1 0x1 PUSH1 0xA0 SHL SUB AND EQ PUSH2 0x1ACC JUMP JUMPDEST PUSH2 0x64F PUSH2 0x1CC0 JUMP JUMPDEST PUSH1 0x1 PUSH1 0xFF NOT DUP2 SLOAD AND OR PUSH1 0x1 SSTORE MLOAD CALLER DUP2 MSTORE LOG1 DUP1 RETURN JUMPDEST DUP4 SWAP1 CALLVALUE PUSH2 0x5D8 JUMPI DUP3 PUSH1 0x3 NOT CALLDATASIZE ADD SLT PUSH2 0x5D8 JUMPI PUSH2 0x6B0 SWAP3 POP PUSH2 0x682 PUSH2 0x1960 JUMP JUMPDEST SWAP2 PUSH1 0x3 SLOAD SWAP2 SLOAD PUSH1 0x5 SLOAD PUSH1 0x6 SLOAD PUSH1 0x7 SLOAD SWAP2 PUSH1 0x8 SLOAD SWAP4 PUSH1 0xFF PUSH1 0x9 SLOAD AND SWAP6 DUP1 MLOAD SWAP10 DUP11 SWAP10 PUSH2 0x100 DUP1 DUP13 MSTORE DUP12 ADD SWAP1 PUSH2 0x1A26 JUMP JUMPDEST SWAP8 PUSH1 0x20 DUP11 ADD MSTORE DUP9 ADD MSTORE PUSH1 0x60 DUP8 ADD MSTORE PUSH1 0x80 DUP7 ADD MSTORE PUSH1 0xA0 DUP6 ADD MSTORE PUSH1 0xC0 DUP5 ADD MSTORE ISZERO ISZERO PUSH1 0xE0 DUP4 ADD MSTORE SUB SWAP1 RETURN JUMPDEST POP DUP3 CALLVALUE PUSH2 0x18A JUMPI DUP2 PUSH1 0x3 NOT CALLDATASIZE ADD SLT PUSH2 0x18A JUMPI PUSH1 0xA SLOAD SWAP1 MLOAD PUSH1 0x1 PUSH1 0x1 PUSH1 0xA0 SHL SUB SWAP1 SWAP2 AND DUP2 MSTORE PUSH1 0x20 SWAP1 RETURN JUMPDEST POP DUP3 CALLVALUE PUSH2 0x18A JUMPI DUP2 PUSH1 0x3 NOT CALLDATASIZE ADD SLT PUSH2 0x18A JUMPI PUSH1 0x20 SWAP1 PUSH1 0xC SLOAD SWAP1 MLOAD SWAP1 DUP2 MSTORE RETURN JUMPDEST POP DUP3 CALLVALUE PUSH2 0x18A JUMPI PUSH1 0x20 CALLDATASIZE PUSH1 0x3 NOT ADD SLT PUSH2 0x18A JUMPI PUSH1 0x1 PUSH1 0x1 PUSH1 0xA0 SHL SUB PUSH2 0x743 PUSH2 0x18F5 JUMP JUMPDEST AND DUP3 MSTORE PUSH1 0xD PUSH1 0x20 SWAP1 DUP2 MSTORE DUP2 DUP4 KECCAK256 SLOAD PUSH1 0xE DUP3 MSTORE DUP3 DUP5 KECCAK256 SLOAD PUSH1 0xF DUP4 MSTORE SWAP4 DUP4 SWAP1 KECCAK256 SLOAD SWAP3 MLOAD SWAP1 DUP2 MSTORE SWAP1 DUP2 ADD SWAP3 SWAP1 SWAP3 MSTORE PUSH1 0x40 DUP3 ADD MSTORE PUSH1 0x60 SWAP1 RETURN JUMPDEST POP DUP3 CALLVALUE PUSH2 0x18A JUMPI DUP2 PUSH1 0x3 NOT CALLDATASIZE ADD SLT PUSH2 0x18A JUMPI PUSH1 0x20 SWAP1 PUSH1 0xFF PUSH1 0x1 SLOAD AND SWAP1 MLOAD SWAP1 ISZERO ISZERO DUP2 MSTORE RETURN JUMPDEST POP DUP3 CALLVALUE PUSH2 0x18A JUMPI DUP2 PUSH1 0x3 NOT CALLDATASIZE ADD SLT PUSH2 0x18A JUMPI MLOAD PUSH32 0x0 PUSH1 0x1 PUSH1 0x1 PUSH1 0xA0 SHL SUB AND DUP2 MSTORE PUSH1 0x20 SWAP1 RETURN JUMPDEST POP DUP3 CALLVALUE PUSH2 0x18A JUMPI DUP2 PUSH1 0x3 NOT CALLDATASIZE ADD SLT PUSH2 0x18A JUMPI MLOAD PUSH32 0x0 PUSH1 0x1 PUSH1 0x1 PUSH1 0xA0 SHL SUB AND DUP2 MSTORE PUSH1 0x20 SWAP1 RETURN JUMPDEST POP DUP3 CALLVALUE PUSH2 0x18A JUMPI DUP2 PUSH1 0x3 NOT CALLDATASIZE ADD SLT PUSH2 0x18A JUMPI MLOAD PUSH32 0x0 PUSH1 0x1 PUSH1 0x1 PUSH1 0xA0 SHL SUB AND DUP2 MSTORE PUSH1 0x20 SWAP1 RETURN JUMPDEST SWAP1 POP PUSH1 0x20 SWAP3 DUP4 PUSH1 0x3 NOT CALLDATASIZE ADD SLT PUSH2 0x5D8 JUMPI PUSH2 0x880 PUSH2 0x18F5 JUMP JUMPDEST SWAP4 PUSH2 0x889 PUSH2 0x1C9D JUMP JUMPDEST PUSH2 0x891 PUSH2 0x1CC0 JUMP JUMPDEST PUSH2 0x89F PUSH1 0xFF PUSH1 0x9 SLOAD AND PUSH2 0x1B89 JUMP JUMPDEST PUSH2 0x8AD PUSH1 0x5 SLOAD TIMESTAMP LT ISZERO PUSH2 0x1BCD JUMP JUMPDEST PUSH2 0x8BB PUSH1 0x6 SLOAD TIMESTAMP GT ISZERO PUSH2 0x1C12 JUMP JUMPDEST PUSH2 0x8C9 PUSH1 0xB SLOAD DUP5 SLOAD GT PUSH2 0x1C51 JUMP JUMPDEST CALLVALUE ISZERO PUSH2 0x108C JUMPI PUSH1 0xA SLOAD DUP3 MLOAD PUSH4 0x3FABE5A3 PUSH1 0xE2 SHL DUP2 DUP5 ADD SWAP1 DUP2 MSTORE DUP6 DUP3 MSTORE PUSH1 0x1 PUSH1 0x1 PUSH1 0xA0 SHL SUB SWAP4 SWAP3 DUP5 AND SWAP2 DUP1 DUP7 ADD PUSH8 0xFFFFFFFFFFFFFFFF DUP2 GT DUP3 DUP3 LT OR PUSH2 0x1079 JUMPI DUP7 MSTORE MLOAD DUP8 SWAP3 DUP4 SWAP3 SWAP1 GAS STATICCALL RETURNDATASIZE ISZERO PUSH2 0x1071 JUMPI RETURNDATASIZE SWAP1 PUSH2 0x923 DUP3 PUSH2 0x18D9 JUMP JUMPDEST SWAP2 PUSH2 0x930 DUP7 MLOAD SWAP4 DUP5 PUSH2 0x18B7 JUMP JUMPDEST DUP3 MSTORE RETURNDATASIZE DUP8 DUP5 DUP5 ADD RETURNDATACOPY JUMPDEST ISZERO PUSH2 0x102E JUMPI PUSH1 0xA0 DUP2 DUP1 MLOAD DUP2 ADD SUB SLT PUSH2 0x326 JUMPI PUSH2 0x956 DUP3 DUP3 ADD PUSH2 0x1CDE JUMP JUMPDEST SWAP1 DUP5 DUP2 ADD MLOAD SWAP2 PUSH2 0x96D PUSH1 0xA0 PUSH1 0x80 DUP5 ADD MLOAD SWAP4 ADD PUSH2 0x1CDE JUMP JUMPDEST SWAP2 PUSH2 0x979 DUP10 DUP6 SGT PUSH2 0x1B11 JUMP JUMPDEST DUP1 ISZERO PUSH2 0xFEB JUMPI TIMESTAMP SUB TIMESTAMP DUP2 GT PUSH2 0xFD8 JUMPI PUSH2 0xE10 LT PUSH2 0xF95 JUMPI PUSH10 0xFFFFFFFFFFFFFFFFFFFF DUP1 SWAP2 AND SWAP2 AND LT PUSH2 0xF52 JUMPI PUSH5 0x174876E800 DUP2 LT ISZERO DUP1 PUSH2 0xF43 JUMPI JUMPDEST ISZERO PUSH2 0xF00 JUMPI PUSH1 0x64 SWAP1 DIV DUP1 CALLVALUE MUL SWAP1 CALLVALUE DUP3 DIV SUB PUSH2 0xEED JUMPI PUSH8 0xDE0B6B3A7640000 SWAP1 DIV PUSH2 0x9DE DUP2 CALLER PUSH2 0x1CF5 JUMP JUMPDEST PUSH2 0x9E7 DUP2 PUSH2 0x1E35 JUMP JUMPDEST DUP7 SWAP3 PUSH2 0x9F5 DUP4 PUSH1 0xB SLOAD PUSH2 0x1E89 JUMP JUMPDEST DUP8 SLOAD LT PUSH2 0xEAB JUMPI CALLER DUP9 MSTORE PUSH1 0xD DUP2 MSTORE DUP6 DUP9 KECCAK256 PUSH2 0xA11 DUP5 DUP3 SLOAD PUSH2 0x1E89 JUMP JUMPDEST SWAP1 SSTORE CALLER DUP9 MSTORE PUSH1 0xE DUP2 MSTORE DUP6 DUP9 KECCAK256 PUSH2 0xA28 DUP4 DUP3 SLOAD PUSH2 0x1E89 JUMP JUMPDEST SWAP1 SSTORE PUSH2 0xA36 DUP4 PUSH1 0xB SLOAD PUSH2 0x1E89 JUMP JUMPDEST PUSH1 0xB SSTORE PUSH2 0xA45 DUP3 PUSH1 0xC SLOAD PUSH2 0x1E89 JUMP JUMPDEST PUSH1 0xC SSTORE DUP5 DUP3 SWAP10 AND DUP1 ISZERO ISZERO DUP1 PUSH2 0xEA1 JUMPI JUMPDEST PUSH2 0xBB3 JUMPI JUMPDEST POP POP PUSH1 0x6 SLOAD SWAP8 DUP5 PUSH32 0x0 AND PUSH1 0x7 SLOAD PUSH1 0x8 SLOAD SWAP3 DUP3 EXTCODESIZE ISZERO PUSH2 0xBAF JUMPI DUP9 MLOAD PUSH4 0x75591D5F PUSH1 0xE1 SHL DUP2 MSTORE CALLER DUP2 DUP13 ADD SWAP1 DUP2 MSTORE PUSH1 0x20 DUP2 ADD SWAP3 SWAP1 SWAP3 MSTORE PUSH1 0x40 DUP3 ADD SWAP3 SWAP1 SWAP3 MSTORE PUSH1 0x60 DUP2 ADD SWAP4 SWAP1 SWAP4 MSTORE PUSH1 0x80 DUP4 ADD SWAP11 SWAP1 SWAP11 MSTORE DUP5 SWAP2 DUP11 SWAP2 SWAP1 DUP3 SWAP1 DUP5 SWAP1 DUP3 SWAP1 PUSH1 0xA0 ADD SUB SWAP3 GAS CALL SWAP8 DUP9 ISZERO PUSH2 0xBA5 JUMPI DUP8 SWAP9 SWAP8 SWAP6 SWAP7 SWAP8 PUSH2 0xB85 JUMPI JUMPDEST POP DUP6 MLOAD CALLVALUE DUP2 MSTORE PUSH1 0x20 DUP2 ADD SWAP3 SWAP1 SWAP3 MSTORE PUSH1 0x40 DUP3 ADD MSTORE CALLER SWAP1 PUSH32 0x8F7A55179307CEA51948432D653DBD53A23FEDC388BCB3E04E311F8220D87864 SWAP1 PUSH1 0x60 SWAP1 LOG3 PUSH32 0x0 AND DUP1 EXTCODESIZE ISZERO PUSH2 0x18A JUMPI DUP3 MLOAD PUSH4 0xF6326FB3 PUSH1 0xE0 SHL DUP2 MSTORE SWAP4 DUP5 SWAP2 DUP3 SWAP1 CALLVALUE SWAP1 GAS CALL SWAP1 DUP2 ISZERO PUSH2 0x31D JUMPI POP PUSH2 0xB76 JUMPI JUMPDEST POP PUSH1 0x1 DUP2 SSTORE DUP1 RETURN JUMPDEST PUSH2 0xB7F SWAP1 PUSH2 0x18A3 JUMP JUMPDEST CODESIZE PUSH2 0xB6E JUMP JUMPDEST DUP4 SWAP5 SWAP6 POP PUSH2 0xB96 SWAP1 SWAP4 SWAP2 SWAP3 SWAP4 PUSH2 0x18A3 JUMP JUMPDEST PUSH2 0x5D8 JUMPI SWAP1 DUP7 SWAP4 SWAP3 SWAP2 CODESIZE PUSH2 0xAE8 JUMP JUMPDEST DUP6 MLOAD RETURNDATASIZE DUP6 DUP3 RETURNDATACOPY RETURNDATASIZE SWAP1 REVERT JUMPDEST DUP7 DUP1 REVERT JUMPDEST DUP7 MLOAD PUSH4 0x308A59B PUSH1 0xE3 SHL DUP2 MSTORE CALLER DUP10 DUP3 ADD MSTORE PUSH32 0x0 DUP8 AND SWAP2 SWAP1 DUP4 DUP2 PUSH1 0x24 DUP2 DUP7 GAS STATICCALL SWAP1 DUP2 ISZERO PUSH2 0xE97 JUMPI SWAP1 DUP6 SWAP4 SWAP3 SWAP2 DUP13 SWAP2 PUSH2 0xE7A JUMPI JUMPDEST POP ISZERO PUSH2 0xE13 JUMPI JUMPDEST POP DUP8 MLOAD PUSH4 0xD8ABFEE5 PUSH1 0xE0 SHL DUP2 MSTORE CALLER DUP2 DUP12 ADD SWAP1 DUP2 MSTORE PUSH1 0x20 DUP2 ADD SWAP4 SWAP1 SWAP4 MSTORE SWAP3 SWAP2 PUSH1 0x60 SWAP2 DUP5 SWAP2 DUP3 SWAP1 DUP10 SWAP1 DUP3 SWAP1 PUSH1 0x40 ADD JUMPDEST SUB SWAP3 GAS CALL SWAP2 DUP3 ISZERO PUSH2 0xE09 JUMPI DUP6 SWAP3 DUP7 SWAP2 DUP8 SWAP2 PUSH2 0xDBE JUMPI JUMPDEST POP DUP8 DUP5 AND SWAP3 DUP4 PUSH2 0xC61 JUMPI JUMPDEST POP POP POP PUSH2 0xA5A JUMP JUMPDEST SWAP1 SWAP2 SWAP3 DUP1 SWAP5 SWAP13 POP DUP8 MSTORE PUSH1 0xE DUP2 MSTORE DUP9 DUP8 KECCAK256 PUSH2 0xC7C DUP5 DUP3 SLOAD PUSH2 0x1E89 JUMP JUMPDEST SWAP1 SSTORE DUP4 DUP8 MSTORE PUSH1 0xF DUP2 MSTORE DUP9 DUP8 KECCAK256 PUSH2 0xC93 DUP5 DUP3 SLOAD PUSH2 0x1E89 JUMP JUMPDEST SWAP1 SSTORE CALLER DUP8 MSTORE PUSH1 0xF DUP2 MSTORE DUP9 DUP8 KECCAK256 PUSH2 0xCAA DUP4 DUP3 SLOAD PUSH2 0x1E89 JUMP JUMPDEST SWAP1 SSTORE PUSH2 0xCC1 PUSH2 0xCB9 DUP4 DUP6 PUSH2 0x1E89 JUMP JUMPDEST PUSH1 0xC SLOAD PUSH2 0x1E89 JUMP JUMPDEST PUSH1 0xC SSTORE PUSH2 0xCCE DUP3 DUP7 PUSH2 0x1E89 JUMP JUMPDEST SWAP12 DUP9 PUSH32 0x0 AND PUSH1 0x7 SLOAD SWAP2 PUSH1 0x8 SLOAD PUSH1 0x6 SLOAD SWAP1 DUP4 EXTCODESIZE ISZERO PUSH2 0xDBA JUMPI SWAP2 DUP12 DUP16 DUP16 DUP3 SWAP7 SWAP5 DUP12 SWAP7 PUSH2 0xD51 SWAP3 MLOAD SWAP10 DUP11 SWAP9 DUP10 SWAP8 DUP9 SWAP7 PUSH4 0x75591D5F PUSH1 0xE1 SHL DUP9 MSTORE DUP8 ADD SWAP2 SWAP3 PUSH1 0x80 SWAP4 SWAP7 SWAP6 SWAP5 SWAP2 SWAP7 PUSH1 0xA0 DUP5 ADD SWAP8 PUSH1 0x1 DUP1 PUSH1 0xA0 SHL SUB AND DUP5 MSTORE PUSH1 0x20 DUP5 ADD MSTORE PUSH1 0x40 DUP4 ADD MSTORE PUSH1 0x60 DUP3 ADD MSTORE ADD MSTORE JUMP JUMPDEST SUB SWAP3 GAS CALL DUP1 ISZERO PUSH2 0xDB0 JUMPI SWAP1 DUP9 SWAP2 PUSH2 0xD9C JUMPI JUMPDEST POP POP DUP9 MLOAD SWAP3 DUP4 MSTORE DUP3 ADD MSTORE PUSH32 0x8A888A9AC1098C12B38ADE27D5D5B51CE092D9271475E3024A084BFC73FD5798 DUP8 CALLER SWAP3 LOG3 CODESIZE DUP1 DUP1 DUP1 DUP1 PUSH2 0xC59 JUMP JUMPDEST PUSH2 0xDA5 SWAP1 PUSH2 0x18A3 JUMP JUMPDEST PUSH2 0xBAF JUMPI DUP7 CODESIZE PUSH2 0xD63 JUMP JUMPDEST DUP11 MLOAD RETURNDATASIZE DUP11 DUP3 RETURNDATACOPY RETURNDATASIZE SWAP1 REVERT JUMPDEST DUP12 DUP1 REVERT JUMPDEST SWAP4 POP POP POP PUSH1 0x60 DUP3 RETURNDATASIZE PUSH1 0x60 GT PUSH2 0xE01 JUMPI JUMPDEST DUP2 PUSH2 0xDDB PUSH1 0x60 SWAP4 DUP4 PUSH2 0x18B7 JUMP JUMPDEST DUP2 ADD SUB SLT PUSH2 0xDFD JUMPI PUSH2 0xDEC DUP3 PUSH2 0x1B5D JUMP JUMPDEST DUP8 DUP3 DUP5 ADD MLOAD SWAP4 ADD MLOAD SWAP1 SWAP3 SWAP1 CODESIZE PUSH2 0xC4E JUMP JUMPDEST DUP5 DUP1 REVERT JUMPDEST RETURNDATASIZE SWAP2 POP PUSH2 0xDCE JUMP JUMPDEST DUP8 MLOAD RETURNDATASIZE DUP8 DUP3 RETURNDATACOPY RETURNDATASIZE SWAP1 REVERT JUMPDEST SWAP1 DUP1 SWAP3 POP EXTCODESIZE ISZERO PUSH2 0xE76 JUMPI DUP8 MLOAD SWAP1 PUSH4 0x5603B9F9 PUSH1 0xE0 SHL DUP3 MSTORE CALLER DUP11 DUP4 ADD MSTORE PUSH1 0x24 DUP3 ADD MSTORE DUP10 DUP2 PUSH1 0x44 DUP2 DUP4 DUP7 GAS CALL DUP1 ISZERO PUSH2 0xE6C JUMPI PUSH2 0xE50 JUMPI JUMPDEST SWAP1 DUP4 SWAP2 PUSH2 0xC0B JUMP JUMPDEST PUSH2 0xC38 SWAP3 SWAP2 SWAP6 POP PUSH2 0xE60 SWAP1 PUSH2 0x18A3 JUMP JUMPDEST DUP9 SWAP5 SWAP1 SWAP2 POP PUSH1 0x60 PUSH2 0xE48 JUMP JUMPDEST DUP9 MLOAD RETURNDATASIZE DUP13 DUP3 RETURNDATACOPY RETURNDATASIZE SWAP1 REVERT JUMPDEST DUP10 DUP1 REVERT JUMPDEST PUSH2 0xE91 SWAP2 POP DUP6 RETURNDATASIZE DUP8 GT PUSH2 0x352 JUMPI PUSH2 0x343 DUP2 DUP4 PUSH2 0x18B7 JUMP JUMPDEST CODESIZE PUSH2 0xC04 JUMP JUMPDEST DUP10 MLOAD RETURNDATASIZE DUP14 DUP3 RETURNDATACOPY RETURNDATASIZE SWAP1 REVERT JUMPDEST POP CALLER DUP2 EQ ISZERO PUSH2 0xA55 JUMP JUMPDEST DUP7 PUSH1 0x64 SWAP2 DUP8 MLOAD SWAP2 PUSH3 0x461BCD PUSH1 0xE5 SHL DUP4 MSTORE DUP3 ADD MSTORE PUSH1 0x1B PUSH1 0x24 DUP3 ADD MSTORE PUSH32 0x53616C65526F756E643A20657863656564732068617264206361700000000000 PUSH1 0x44 DUP3 ADD MSTORE REVERT JUMPDEST PUSH4 0x4E487B71 PUSH1 0xE0 SHL DUP7 MSTORE PUSH1 0x11 DUP6 MSTORE PUSH1 0x24 DUP7 REVERT JUMPDEST DUP4 MLOAD PUSH3 0x461BCD PUSH1 0xE5 SHL DUP2 MSTORE DUP1 DUP7 ADD DUP4 SWAP1 MSTORE PUSH1 0x1E PUSH1 0x24 DUP3 ADD MSTORE PUSH32 0x53616C65526F756E643A207072696365206F7574206F6620626F756E64730000 PUSH1 0x44 DUP3 ADD MSTORE PUSH1 0x64 SWAP1 REVERT JUMPDEST POP PUSH5 0xE8D4A51000 DUP2 GT ISZERO PUSH2 0x9B4 JUMP JUMPDEST DUP4 MLOAD PUSH3 0x461BCD PUSH1 0xE5 SHL DUP2 MSTORE DUP1 DUP7 ADD DUP4 SWAP1 MSTORE PUSH1 0x1B PUSH1 0x24 DUP3 ADD MSTORE PUSH32 0x53616C65526F756E643A207374616C6520726F756E6420646174610000000000 PUSH1 0x44 DUP3 ADD MSTORE PUSH1 0x64 SWAP1 REVERT JUMPDEST DUP6 MLOAD PUSH3 0x461BCD PUSH1 0xE5 SHL DUP2 MSTORE DUP1 DUP9 ADD DUP6 SWAP1 MSTORE PUSH1 0x1B PUSH1 0x24 DUP3 ADD MSTORE PUSH32 0x53616C65526F756E643A207374616C6520707269636520646174610000000000 PUSH1 0x44 DUP3 ADD MSTORE PUSH1 0x64 SWAP1 REVERT JUMPDEST PUSH4 0x4E487B71 PUSH1 0xE0 SHL DUP10 MSTORE PUSH1 0x11 DUP9 MSTORE PUSH1 0x24 DUP10 REVERT JUMPDEST DUP7 MLOAD PUSH3 0x461BCD PUSH1 0xE5 SHL DUP2 MSTORE DUP1 DUP10 ADD DUP7 SWAP1 MSTORE PUSH1 0x1C PUSH1 0x24 DUP3 ADD MSTORE PUSH32 0x53616C65526F756E643A20696E76616C69642074696D657374616D7000000000 PUSH1 0x44 DUP3 ADD MSTORE PUSH1 0x64 SWAP1 REVERT JUMPDEST DUP4 MLOAD PUSH3 0x461BCD PUSH1 0xE5 SHL DUP2 MSTORE DUP1 DUP7 ADD DUP4 SWAP1 MSTORE PUSH1 0x1D PUSH1 0x24 DUP3 ADD MSTORE PUSH32 0x53616C65526F756E643A206F7261636C652063616C6C206661696C6564000000 PUSH1 0x44 DUP3 ADD MSTORE PUSH1 0x64 SWAP1 REVERT JUMPDEST PUSH1 0x60 SWAP1 PUSH2 0x939 JUMP JUMPDEST PUSH4 0x4E487B71 PUSH1 0xE0 SHL DUP10 MSTORE PUSH1 0x41 DUP9 MSTORE PUSH1 0x24 DUP10 REVERT JUMPDEST SWAP1 MLOAD PUSH3 0x461BCD PUSH1 0xE5 SHL DUP2 MSTORE SWAP2 DUP3 ADD MSTORE PUSH1 0x13 PUSH1 0x24 DUP3 ADD MSTORE PUSH19 0xA6C2D8CAA4DEEADCC87440F4CAE4DE408AA89 PUSH1 0x6B SHL PUSH1 0x44 DUP3 ADD MSTORE PUSH1 0x64 SWAP1 REVERT JUMPDEST DUP3 DUP5 CALLVALUE PUSH2 0x18A JUMPI PUSH1 0x20 CALLDATASIZE PUSH1 0x3 NOT ADD SLT PUSH2 0x18A JUMPI PUSH1 0x20 SWAP2 DUP2 SWAP1 PUSH1 0x1 PUSH1 0x1 PUSH1 0xA0 SHL SUB PUSH2 0x10EB PUSH2 0x18F5 JUMP JUMPDEST AND DUP2 MSTORE PUSH1 0xD DUP5 MSTORE KECCAK256 SLOAD SWAP1 MLOAD SWAP1 DUP2 MSTORE RETURN JUMPDEST DUP4 SWAP2 POP CALLVALUE PUSH2 0x5D8 JUMPI DUP3 PUSH1 0x3 NOT CALLDATASIZE ADD SLT PUSH2 0x5D8 JUMPI PUSH2 0x1142 CALLER PUSH32 0x0 PUSH1 0x1 PUSH1 0x1 PUSH1 0xA0 SHL SUB AND EQ PUSH2 0x1ACC JUMP JUMPDEST PUSH1 0x1 SLOAD SWAP1 PUSH1 0xFF DUP3 AND ISZERO PUSH2 0x1184 JUMPI POP PUSH1 0xFF NOT AND PUSH1 0x1 SSTORE MLOAD CALLER DUP2 MSTORE PUSH32 0x5DB9EE0A495BF2E6FF9C91A7834C1BA4FDD244A5E8AA4E537BD38AEAE4B073AA SWAP1 PUSH1 0x20 SWAP1 LOG1 DUP1 RETURN JUMPDEST DUP3 MLOAD PUSH4 0x8DFC202B PUSH1 0xE0 SHL DUP2 MSTORE REVERT JUMPDEST DUP3 DUP5 CALLVALUE PUSH2 0x18A JUMPI DUP2 PUSH1 0x3 NOT CALLDATASIZE ADD SLT PUSH2 0x18A JUMPI MLOAD PUSH32 0x0 PUSH1 0x1 PUSH1 0x1 PUSH1 0xA0 SHL SUB AND DUP2 MSTORE PUSH1 0x20 SWAP1 RETURN JUMPDEST DUP3 DUP5 CALLVALUE PUSH2 0x18A JUMPI DUP2 PUSH1 0x3 NOT CALLDATASIZE ADD SLT PUSH2 0x18A JUMPI MLOAD PUSH32 0x0 PUSH1 0x1 PUSH1 0x1 PUSH1 0xA0 SHL SUB AND DUP2 MSTORE PUSH1 0x20 SWAP1 RETURN JUMPDEST SWAP2 SWAP1 POP CALLVALUE PUSH2 0x31A JUMPI PUSH1 0x20 SWAP1 DUP2 PUSH1 0x3 NOT CALLDATASIZE ADD SLT PUSH2 0x31A JUMPI PUSH2 0x1238 PUSH2 0x18F5 JUMP JUMPDEST DUP5 MLOAD PUSH4 0x4A9FEFC7 PUSH1 0xE0 SHL DUP2 MSTORE PUSH1 0x1 PUSH1 0x1 PUSH1 0xA0 SHL SUB SWAP2 DUP3 AND DUP2 DUP7 ADD DUP2 SWAP1 MSTORE SWAP1 SWAP5 PUSH32 0x0 DUP4 AND SWAP2 SWAP1 DUP6 DUP8 PUSH1 0x24 DUP2 DUP7 GAS STATICCALL SWAP7 DUP8 ISZERO PUSH2 0x1331 JUMPI DUP6 SWAP8 PUSH2 0x12F4 JUMPI JUMPDEST POP SWAP1 PUSH1 0x24 DUP7 SWAP3 DUP10 MLOAD SWAP5 DUP6 SWAP4 DUP5 SWAP3 PUSH4 0x308A59B PUSH1 0xE3 SHL DUP5 MSTORE DUP4 ADD MSTORE GAS STATICCALL SWAP3 DUP4 ISZERO PUSH2 0x12E9 JUMPI SWAP3 PUSH2 0x12CA JUMPI JUMPDEST POP DUP5 MLOAD SWAP4 AND DUP4 MSTORE ISZERO ISZERO SWAP1 DUP3 ADD MSTORE RETURN JUMPDEST PUSH2 0x12E2 SWAP2 SWAP3 POP DUP4 RETURNDATASIZE DUP6 GT PUSH2 0x352 JUMPI PUSH2 0x343 DUP2 DUP4 PUSH2 0x18B7 JUMP JUMPDEST SWAP1 CODESIZE PUSH2 0x12BB JUMP JUMPDEST DUP7 MLOAD SWAP1 RETURNDATASIZE SWAP1 DUP3 RETURNDATACOPY RETURNDATASIZE SWAP1 REVERT JUMPDEST SWAP1 SWAP7 POP DUP6 DUP2 DUP2 RETURNDATASIZE DUP4 GT PUSH2 0x132A JUMPI JUMPDEST PUSH2 0x130C DUP2 DUP4 PUSH2 0x18B7 JUMP JUMPDEST DUP2 ADD SUB SLT PUSH2 0xDFD JUMPI SWAP1 PUSH1 0x24 PUSH2 0x1321 DUP8 SWAP4 PUSH2 0x1B5D JUMP JUMPDEST SWAP8 SWAP2 SWAP3 POP PUSH2 0x1292 JUMP JUMPDEST POP RETURNDATASIZE PUSH2 0x1302 JUMP JUMPDEST DUP9 MLOAD RETURNDATASIZE DUP8 DUP3 RETURNDATACOPY RETURNDATASIZE SWAP1 REVERT JUMPDEST DUP4 SWAP2 POP CALLVALUE PUSH2 0x5D8 JUMPI PUSH1 0x20 CALLDATASIZE PUSH1 0x3 NOT ADD SLT PUSH2 0x5D8 JUMPI PUSH2 0x1357 PUSH2 0x18F5 JUMP JUMPDEST PUSH1 0x1 PUSH1 0x1 PUSH1 0xA0 SHL SUB SWAP1 PUSH2 0x138D CALLER PUSH32 0x0 DUP5 AND EQ PUSH2 0x1ACC JUMP JUMPDEST AND SWAP2 DUP3 ISZERO PUSH2 0x13D0 JUMPI POP POP PUSH1 0xA DUP1 SLOAD PUSH1 0x1 PUSH1 0x1 PUSH1 0xA0 SHL SUB NOT AND DUP3 OR SWAP1 SSTORE PUSH32 0x3DF77BEB5DB05FCDD70A30FC8ADF3F83F9501B68579455ADBD100B8180940394 DUP3 DUP1 LOG2 DUP1 RETURN JUMPDEST SWAP1 PUSH1 0x20 PUSH1 0x64 SWAP3 MLOAD SWAP2 PUSH3 0x461BCD PUSH1 0xE5 SHL DUP4 MSTORE DUP3 ADD MSTORE PUSH1 0x17 PUSH1 0x24 DUP3 ADD MSTORE PUSH32 0x53616C65526F756E643A207A65726F2061646472657373000000000000000000 PUSH1 0x44 DUP3 ADD MSTORE REVERT JUMPDEST DUP3 DUP5 CALLVALUE PUSH2 0x18A JUMPI DUP2 PUSH1 0x3 NOT CALLDATASIZE ADD SLT PUSH2 0x18A JUMPI PUSH1 0x20 SWAP1 PUSH1 0xB SLOAD SWAP1 MLOAD SWAP1 DUP2 MSTORE RETURN JUMPDEST DUP3 DUP5 CALLVALUE PUSH2 0x18A JUMPI PUSH1 0x20 CALLDATASIZE PUSH1 0x3 NOT ADD SLT PUSH2 0x18A JUMPI PUSH1 0x20 SWAP2 DUP2 SWAP1 PUSH1 0x1 PUSH1 0x1 PUSH1 0xA0 SHL SUB PUSH2 0x145A PUSH2 0x18F5 JUMP JUMPDEST AND DUP2 MSTORE PUSH1 0xE DUP5 MSTORE KECCAK256 SLOAD SWAP1 MLOAD SWAP1 DUP2 MSTORE RETURN JUMPDEST DUP5 DUP5 SWAP3 CALLVALUE PUSH2 0x186C JUMPI PUSH1 0x3 NOT SWAP1 PUSH1 0x20 CALLDATASIZE DUP4 ADD DUP2 SGT PUSH2 0x326 JUMPI DUP2 CALLDATALOAD SWAP3 PUSH8 0xFFFFFFFFFFFFFFFF SWAP1 DUP2 DUP6 GT PUSH2 0x1868 JUMPI PUSH2 0x100 SWAP1 DUP6 CALLDATASIZE SUB ADD SLT PUSH2 0xBAF JUMPI PUSH2 0x14AB DUP7 PUSH2 0x1870 JUMP JUMPDEST DUP4 DUP4 ADD CALLDATALOAD DUP2 DUP2 GT PUSH2 0x1868 JUMPI DUP5 ADD SWAP3 CALLDATASIZE PUSH1 0x23 DUP6 ADD SLT ISZERO PUSH2 0x1868 JUMPI DUP1 DUP5 ADD CALLDATALOAD DUP9 PUSH1 0x24 SWAP6 PUSH2 0x14D5 DUP4 PUSH2 0x18D9 JUMP JUMPDEST SWAP3 PUSH2 0x14E2 DUP11 MLOAD SWAP5 DUP6 PUSH2 0x18B7 JUMP JUMPDEST DUP1 DUP5 MSTORE CALLDATASIZE DUP9 DUP3 DUP5 ADD ADD GT PUSH2 0x5D8 JUMPI DUP1 DUP9 DUP9 SWAP4 ADD DUP4 DUP7 ADD CALLDATACOPY DUP4 ADD ADD MSTORE DUP8 MSTORE DUP3 DUP8 ADD DUP5 DUP7 ADD CALLDATALOAD DUP2 MSTORE DUP7 DUP9 ADD SWAP1 PUSH1 0x44 DUP8 ADD CALLDATALOAD DUP3 MSTORE PUSH1 0x60 DUP10 ADD SWAP4 PUSH1 0x64 DUP9 ADD CALLDATALOAD DUP6 MSTORE PUSH1 0x80 DUP11 ADD SWAP6 PUSH1 0x84 DUP10 ADD CALLDATALOAD DUP8 MSTORE PUSH1 0xA0 DUP12 ADD SWAP8 PUSH1 0xA4 DUP11 ADD CALLDATALOAD DUP10 MSTORE PUSH1 0xE4 PUSH1 0xC0 DUP14 ADD SWAP11 PUSH1 0xC4 DUP2 ADD CALLDATALOAD DUP13 MSTORE ADD CALLDATALOAD DUP1 ISZERO ISZERO DUP2 SUB PUSH2 0x1864 JUMPI PUSH1 0xE0 DUP14 ADD MSTORE PUSH2 0x1589 CALLER PUSH32 0x0 PUSH1 0x1 PUSH1 0x1 PUSH1 0xA0 SHL SUB AND EQ PUSH2 0x1ACC JUMP JUMPDEST PUSH2 0x1595 DUP5 MLOAD ISZERO ISZERO PUSH2 0x1B11 JUMP JUMPDEST DUP5 MLOAD ISZERO PUSH2 0x1823 JUMPI DUP8 MLOAD DUP8 MLOAD LT ISZERO PUSH2 0x17E2 JUMPI DUP10 MLOAD DUP10 MLOAD GT PUSH2 0x17A1 JUMPI DUP12 MLOAD SWAP1 DUP2 MLOAD SWAP4 DUP5 GT PUSH2 0x1790 JUMPI POP PUSH2 0x15C7 PUSH1 0x2 SLOAD PUSH2 0x1926 JUMP JUMPDEST DUP14 PUSH1 0x1F DUP3 GT PUSH2 0x172A JUMPI JUMPDEST SWAP1 POP POP DUP13 DUP3 PUSH1 0x1F DUP6 GT PUSH1 0x1 EQ PUSH2 0x1677 JUMPI POP SWAP3 PUSH32 0xCA5E88616919440603F1AE53082DAB032DAF45557362FAFD80A4852BD6CDAD85 SWAP13 SWAP11 SWAP9 SWAP7 SWAP5 SWAP3 DUP2 SWAP3 PUSH2 0x1666 SWAP14 SWAP12 SWAP10 SWAP8 SWAP6 SWAP3 PUSH2 0x166C JUMPI JUMPDEST POP POP DUP2 PUSH1 0x1 SHL SWAP2 PUSH1 0x0 NOT SWAP1 PUSH1 0x3 SHL SHR NOT AND OR PUSH1 0x2 SSTORE JUMPDEST MLOAD PUSH1 0x3 SSTORE MLOAD SWAP1 SSTORE MLOAD PUSH1 0x5 SSTORE MLOAD PUSH1 0x6 SSTORE MLOAD PUSH1 0x7 SSTORE MLOAD PUSH1 0x8 SSTORE PUSH1 0xE0 DUP3 ADD MLOAD ISZERO ISZERO PUSH1 0xFF DUP1 NOT PUSH1 0x9 SLOAD AND SWAP2 AND OR PUSH1 0x9 SSTORE MLOAD SWAP2 DUP3 SWAP2 DUP3 PUSH2 0x1A66 JUMP JUMPDEST SUB SWAP1 LOG1 DUP1 RETURN JUMPDEST ADD MLOAD SWAP1 POP DUP15 DUP1 PUSH2 0x161A JUMP JUMPDEST PUSH1 0x2 DUP3 MSTORE PUSH32 0x405787FA12A823E0F2B7631CC41B3BA8828B3321CA811111FA75CD3AA3BB5ACE SWAP4 SWAP3 SWAP2 PUSH1 0x1F NOT DUP7 AND SWAP2 JUMPDEST DUP3 DUP3 LT PUSH2 0x1712 JUMPI POP POP SWAP3 PUSH1 0x1 SWAP3 DUP6 SWAP3 PUSH32 0xCA5E88616919440603F1AE53082DAB032DAF45557362FAFD80A4852BD6CDAD85 SWAP16 SWAP14 SWAP12 SWAP10 SWAP8 SWAP6 SWAP7 PUSH2 0x1666 SWAP16 SWAP14 SWAP12 SWAP10 SWAP8 LT PUSH2 0x16F9 JUMPI JUMPDEST POP POP POP DUP2 SHL ADD PUSH1 0x2 SSTORE PUSH2 0x1630 JUMP JUMPDEST ADD MLOAD PUSH1 0x0 NOT PUSH1 0xF8 DUP5 PUSH1 0x3 SHL AND SHR NOT AND SWAP1 SSTORE DUP15 DUP1 DUP1 PUSH2 0x16EB JUMP JUMPDEST DUP1 PUSH1 0x1 DUP7 SWAP8 DUP3 SWAP5 SWAP8 DUP8 ADD MLOAD DUP2 SSTORE ADD SWAP7 ADD SWAP5 ADD SWAP1 PUSH2 0x16A6 JUMP JUMPDEST PUSH1 0x2 SWAP1 MSTORE PUSH32 0x405787FA12A823E0F2B7631CC41B3BA8828B3321CA811111FA75CD3AA3BB5ACE PUSH1 0x1F DUP6 ADD PUSH1 0x5 SHR DUP2 ADD SWAP2 DUP5 DUP7 LT PUSH2 0x1786 JUMPI JUMPDEST PUSH1 0x1F ADD PUSH1 0x5 SHR ADD SWAP1 DUP15 SWAP1 JUMPDEST DUP3 DUP2 LT PUSH2 0x1779 JUMPI POP PUSH2 0x15D1 JUMP JUMPDEST PUSH1 0x1 SWAP2 DUP2 SSTORE ADD DUP15 SWAP1 PUSH2 0x176C JUMP JUMPDEST SWAP1 SWAP2 POP DUP2 SWAP1 PUSH2 0x1761 JUMP JUMPDEST PUSH4 0x4E487B71 PUSH1 0xE0 SHL DUP15 MSTORE PUSH1 0x41 DUP8 MSTORE DUP14 REVERT JUMPDEST PUSH1 0x1A DUP7 SWAP2 PUSH1 0x64 SWAP4 DUP14 MLOAD SWAP4 PUSH3 0x461BCD PUSH1 0xE5 SHL DUP6 MSTORE DUP5 ADD MSTORE DUP3 ADD MSTORE PUSH32 0x53616C65526F756E643A20696E76616C69642076657374696E67000000000000 PUSH1 0x44 DUP3 ADD MSTORE REVERT JUMPDEST PUSH1 0x1D DUP7 SWAP2 PUSH1 0x64 SWAP4 DUP14 MLOAD SWAP4 PUSH3 0x461BCD PUSH1 0xE5 SHL DUP6 MSTORE DUP5 ADD MSTORE DUP3 ADD MSTORE PUSH32 0x53616C65526F756E643A20696E76616C69642074696D652072616E6765000000 PUSH1 0x44 DUP3 ADD MSTORE REVERT JUMPDEST PUSH1 0x1B DUP7 SWAP2 PUSH1 0x64 SWAP4 DUP14 MLOAD SWAP4 PUSH3 0x461BCD PUSH1 0xE5 SHL DUP6 MSTORE DUP5 ADD MSTORE DUP3 ADD MSTORE PUSH32 0x53616C65526F756E643A20696E76616C69642068617264206361700000000000 PUSH1 0x44 DUP3 ADD MSTORE REVERT JUMPDEST DUP14 DUP1 REVERT JUMPDEST DUP8 DUP1 REVERT JUMPDEST DUP4 DUP1 REVERT JUMPDEST PUSH2 0x100 DUP2 ADD SWAP1 DUP2 LT PUSH8 0xFFFFFFFFFFFFFFFF DUP3 GT OR PUSH2 0x188D JUMPI PUSH1 0x40 MSTORE JUMP JUMPDEST PUSH4 0x4E487B71 PUSH1 0xE0 SHL PUSH1 0x0 MSTORE PUSH1 0x41 PUSH1 0x4 MSTORE PUSH1 0x24 PUSH1 0x0 REVERT JUMPDEST PUSH8 0xFFFFFFFFFFFFFFFF DUP2 GT PUSH2 0x188D JUMPI PUSH1 0x40 MSTORE JUMP JUMPDEST SWAP1 PUSH1 0x1F DUP1 NOT SWAP2 ADD AND DUP2 ADD SWAP1 DUP2 LT PUSH8 0xFFFFFFFFFFFFFFFF DUP3 GT OR PUSH2 0x188D JUMPI PUSH1 0x40 MSTORE JUMP JUMPDEST PUSH8 0xFFFFFFFFFFFFFFFF DUP2 GT PUSH2 0x188D JUMPI PUSH1 0x1F ADD PUSH1 0x1F NOT AND PUSH1 0x20 ADD SWAP1 JUMP JUMPDEST PUSH1 0x4 CALLDATALOAD SWAP1 PUSH1 0x1 PUSH1 0x1 PUSH1 0xA0 SHL SUB DUP3 AND DUP3 SUB PUSH2 0x190B JUMPI JUMP JUMPDEST PUSH1 0x0 DUP1 REVERT JUMPDEST PUSH1 0x24 CALLDATALOAD SWAP1 PUSH1 0x1 PUSH1 0x1 PUSH1 0xA0 SHL SUB DUP3 AND DUP3 SUB PUSH2 0x190B JUMPI JUMP JUMPDEST SWAP1 PUSH1 0x1 DUP3 DUP2 SHR SWAP3 AND DUP1 ISZERO PUSH2 0x1956 JUMPI JUMPDEST PUSH1 0x20 DUP4 LT EQ PUSH2 0x1940 JUMPI JUMP JUMPDEST PUSH4 0x4E487B71 PUSH1 0xE0 SHL PUSH1 0x0 MSTORE PUSH1 0x22 PUSH1 0x4 MSTORE PUSH1 0x24 PUSH1 0x0 REVERT JUMPDEST SWAP2 PUSH1 0x7F AND SWAP2 PUSH2 0x1935 JUMP JUMPDEST PUSH1 0x40 MLOAD SWAP1 PUSH1 0x0 DUP3 PUSH1 0x2 SLOAD SWAP2 PUSH2 0x1974 DUP4 PUSH2 0x1926 JUMP JUMPDEST DUP1 DUP4 MSTORE SWAP3 PUSH1 0x20 SWAP1 PUSH1 0x1 SWAP1 DUP2 DUP2 AND SWAP1 DUP2 ISZERO PUSH2 0x1A02 JUMPI POP PUSH1 0x1 EQ PUSH2 0x19A1 JUMPI JUMPDEST POP POP PUSH2 0x199F SWAP3 POP SUB DUP4 PUSH2 0x18B7 JUMP JUMPDEST JUMP JUMPDEST SWAP2 POP SWAP3 PUSH1 0x2 PUSH1 0x0 MSTORE PUSH32 0x405787FA12A823E0F2B7631CC41B3BA8828B3321CA811111FA75CD3AA3BB5ACE SWAP4 PUSH1 0x0 SWAP3 JUMPDEST DUP3 DUP5 LT PUSH2 0x19EA JUMPI POP PUSH2 0x199F SWAP5 POP POP POP DUP2 ADD PUSH1 0x20 ADD CODESIZE DUP1 PUSH2 0x1991 JUMP JUMPDEST DUP6 SLOAD DUP9 DUP6 ADD DUP4 ADD MSTORE SWAP5 DUP6 ADD SWAP5 DUP8 SWAP5 POP SWAP3 DUP2 ADD SWAP3 PUSH2 0x19CF JUMP JUMPDEST SWAP2 POP POP PUSH1 0x20 SWAP3 POP PUSH2 0x199F SWAP5 SWAP2 POP PUSH1 0xFF NOT AND DUP3 DUP5 ADD MSTORE ISZERO ISZERO PUSH1 0x5 SHL DUP3 ADD ADD CODESIZE DUP1 PUSH2 0x1991 JUMP JUMPDEST SWAP2 SWAP1 DUP3 MLOAD SWAP3 DUP4 DUP3 MSTORE PUSH1 0x0 JUMPDEST DUP5 DUP2 LT PUSH2 0x1A52 JUMPI POP POP DUP3 PUSH1 0x0 PUSH1 0x20 DUP1 SWAP5 SWAP6 DUP5 ADD ADD MSTORE PUSH1 0x1F DUP1 NOT SWAP2 ADD AND ADD ADD SWAP1 JUMP JUMPDEST PUSH1 0x20 DUP2 DUP4 ADD DUP2 ADD MLOAD DUP5 DUP4 ADD DUP3 ADD MSTORE ADD PUSH2 0x1A31 JUMP JUMPDEST PUSH1 0x20 DUP2 MSTORE DUP2 MLOAD PUSH1 0xE0 PUSH2 0x1A86 PUSH2 0x100 SWAP3 DUP4 PUSH1 0x20 DUP7 ADD MSTORE PUSH2 0x120 DUP6 ADD SWAP1 PUSH2 0x1A26 JUMP JUMPDEST SWAP4 PUSH1 0x20 DUP2 ADD MLOAD PUSH1 0x40 DUP6 ADD MSTORE PUSH1 0x40 DUP2 ADD MLOAD PUSH1 0x60 DUP6 ADD MSTORE PUSH1 0x60 DUP2 ADD MLOAD PUSH1 0x80 DUP6 ADD MSTORE PUSH1 0x80 DUP2 ADD MLOAD PUSH1 0xA0 DUP6 ADD MSTORE PUSH1 0xA0 DUP2 ADD MLOAD PUSH1 0xC0 DUP6 ADD MSTORE PUSH1 0xC0 DUP2 ADD MLOAD DUP3 DUP6 ADD MSTORE ADD MLOAD ISZERO ISZERO SWAP2 ADD MSTORE SWAP1 JUMP JUMPDEST ISZERO PUSH2 0x1AD3 JUMPI JUMP JUMPDEST PUSH1 0x40 MLOAD PUSH3 0x461BCD PUSH1 0xE5 SHL DUP2 MSTORE PUSH1 0x20 PUSH1 0x4 DUP3 ADD MSTORE PUSH1 0x16 PUSH1 0x24 DUP3 ADD MSTORE PUSH22 0x29B0B632A937BAB7321D103737BA1036B0B730B3B2B9 PUSH1 0x51 SHL PUSH1 0x44 DUP3 ADD MSTORE PUSH1 0x64 SWAP1 REVERT JUMPDEST ISZERO PUSH2 0x1B18 JUMPI JUMP JUMPDEST PUSH1 0x40 MLOAD PUSH3 0x461BCD PUSH1 0xE5 SHL DUP2 MSTORE PUSH1 0x20 PUSH1 0x4 DUP3 ADD MSTORE PUSH1 0x18 PUSH1 0x24 DUP3 ADD MSTORE PUSH32 0x53616C65526F756E643A20696E76616C69642070726963650000000000000000 PUSH1 0x44 DUP3 ADD MSTORE PUSH1 0x64 SWAP1 REVERT JUMPDEST MLOAD SWAP1 PUSH1 0x1 PUSH1 0x1 PUSH1 0xA0 SHL SUB DUP3 AND DUP3 SUB PUSH2 0x190B JUMPI JUMP JUMPDEST SWAP1 DUP2 PUSH1 0x20 SWAP2 SUB SLT PUSH2 0x190B JUMPI MLOAD DUP1 ISZERO ISZERO DUP2 SUB PUSH2 0x190B JUMPI SWAP1 JUMP JUMPDEST ISZERO PUSH2 0x1B90 JUMPI JUMP JUMPDEST PUSH1 0x40 MLOAD PUSH3 0x461BCD PUSH1 0xE5 SHL DUP2 MSTORE PUSH1 0x20 PUSH1 0x4 DUP3 ADD MSTORE PUSH1 0x15 PUSH1 0x24 DUP3 ADD MSTORE PUSH21 0x53616C65526F756E643A206E6F7420616374697665 PUSH1 0x58 SHL PUSH1 0x44 DUP3 ADD MSTORE PUSH1 0x64 SWAP1 REVERT JUMPDEST ISZERO PUSH2 0x1BD4 JUMPI JUMP JUMPDEST PUSH1 0x40 MLOAD PUSH3 0x461BCD PUSH1 0xE5 SHL DUP2 MSTORE PUSH1 0x20 PUSH1 0x4 DUP3 ADD MSTORE PUSH1 0x16 PUSH1 0x24 DUP3 ADD MSTORE PUSH22 0x14D85B19549BDD5B990E881B9BDD081CDD185C9D1959 PUSH1 0x52 SHL PUSH1 0x44 DUP3 ADD MSTORE PUSH1 0x64 SWAP1 REVERT JUMPDEST ISZERO PUSH2 0x1C19 JUMPI JUMP JUMPDEST PUSH1 0x40 MLOAD PUSH3 0x461BCD PUSH1 0xE5 SHL DUP2 MSTORE PUSH1 0x20 PUSH1 0x4 DUP3 ADD MSTORE PUSH1 0x10 PUSH1 0x24 DUP3 ADD MSTORE PUSH16 0x14D85B19549BDD5B990E88195B991959 PUSH1 0x82 SHL PUSH1 0x44 DUP3 ADD MSTORE PUSH1 0x64 SWAP1 REVERT JUMPDEST ISZERO PUSH2 0x1C58 JUMPI JUMP JUMPDEST PUSH1 0x40 MLOAD PUSH3 0x461BCD PUSH1 0xE5 SHL DUP2 MSTORE PUSH1 0x20 PUSH1 0x4 DUP3 ADD MSTORE PUSH1 0x1B PUSH1 0x24 DUP3 ADD MSTORE PUSH32 0x53616C65526F756E643A20686172642063617020726561636865640000000000 PUSH1 0x44 DUP3 ADD MSTORE PUSH1 0x64 SWAP1 REVERT JUMPDEST PUSH1 0x2 PUSH1 0x0 SLOAD EQ PUSH2 0x1CAE JUMPI PUSH1 0x2 PUSH1 0x0 SSTORE JUMP JUMPDEST PUSH1 0x40 MLOAD PUSH4 0x3EE5AEB5 PUSH1 0xE0 SHL DUP2 MSTORE PUSH1 0x4 SWAP1 REVERT JUMPDEST PUSH1 0xFF PUSH1 0x1 SLOAD AND PUSH2 0x1CCC JUMPI JUMP JUMPDEST PUSH1 0x40 MLOAD PUSH4 0xD93C0665 PUSH1 0xE0 SHL DUP2 MSTORE PUSH1 0x4 SWAP1 REVERT JUMPDEST MLOAD SWAP1 PUSH10 0xFFFFFFFFFFFFFFFFFFFF DUP3 AND DUP3 SUB PUSH2 0x190B JUMPI JUMP JUMPDEST PUSH1 0x40 MLOAD PUSH4 0x73BED919 PUSH1 0xE1 SHL DUP2 MSTORE PUSH1 0x1 PUSH1 0x1 PUSH1 0xA0 SHL SUB DUP3 DUP2 AND PUSH1 0x4 DUP4 ADD MSTORE SWAP1 PUSH1 0x20 DUP2 PUSH1 0x24 DUP2 PUSH32 0x0 DUP7 AND GAS STATICCALL SWAP1 DUP2 ISZERO PUSH2 0x1DC5 JUMPI PUSH1 0x0 SWAP2 PUSH2 0x1E16 JUMPI JUMPDEST POP ISZERO PUSH2 0x1DD1 JUMPI PUSH32 0x0 AND SWAP2 DUP3 EXTCODESIZE ISZERO PUSH2 0x190B JUMPI PUSH1 0x40 MLOAD PUSH4 0x38D72789 PUSH1 0xE2 SHL DUP2 MSTORE PUSH1 0x1 PUSH1 0x1 PUSH1 0xA0 SHL SUB SWAP3 SWAP1 SWAP3 AND PUSH1 0x4 DUP4 ADD MSTORE PUSH1 0x24 DUP3 ADD MSTORE SWAP1 PUSH1 0x0 SWAP1 DUP3 SWAP1 PUSH1 0x44 SWAP1 DUP3 SWAP1 DUP5 SWAP1 GAS CALL DUP1 ISZERO PUSH2 0x1DC5 JUMPI PUSH2 0x1DBC JUMPI POP JUMP JUMPDEST PUSH2 0x199F SWAP1 PUSH2 0x18A3 JUMP JUMPDEST PUSH1 0x40 MLOAD RETURNDATASIZE PUSH1 0x0 DUP3 RETURNDATACOPY RETURNDATASIZE SWAP1 REVERT JUMPDEST PUSH1 0x40 MLOAD PUSH3 0x461BCD PUSH1 0xE5 SHL DUP2 MSTORE PUSH1 0x20 PUSH1 0x4 DUP3 ADD MSTORE PUSH1 0x1B PUSH1 0x24 DUP3 ADD MSTORE PUSH32 0x53616C65526F756E643A206E6F74204B594320617070726F7665640000000000 PUSH1 0x44 DUP3 ADD MSTORE PUSH1 0x64 SWAP1 REVERT JUMPDEST PUSH2 0x1E2F SWAP2 POP PUSH1 0x20 RETURNDATASIZE PUSH1 0x20 GT PUSH2 0x352 JUMPI PUSH2 0x343 DUP2 DUP4 PUSH2 0x18B7 JUMP JUMPDEST CODESIZE PUSH2 0x1D4D JUMP JUMPDEST PUSH8 0xDE0B6B3A7640000 SWAP1 DUP2 DUP2 MUL SWAP2 DUP2 DUP4 DIV EQ SWAP1 ISZERO OR ISZERO PUSH2 0x1E73 JUMPI PUSH1 0x3 SLOAD SWAP1 DUP2 ISZERO PUSH2 0x1E5D JUMPI DIV SWAP1 JUMP JUMPDEST PUSH4 0x4E487B71 PUSH1 0xE0 SHL PUSH1 0x0 MSTORE PUSH1 0x12 PUSH1 0x4 MSTORE PUSH1 0x24 PUSH1 0x0 REVERT JUMPDEST PUSH4 0x4E487B71 PUSH1 0xE0 SHL PUSH1 0x0 MSTORE PUSH1 0x11 PUSH1 0x4 MSTORE PUSH1 0x24 PUSH1 0x0 REVERT JUMPDEST SWAP2 SWAP1 DUP3 ADD DUP1 SWAP3 GT PUSH2 0x1E73 JUMPI JUMP JUMPDEST SWAP3 SWAP5 SWAP4 SWAP1 SWAP2 SWAP5 PUSH1 0xB SLOAD PUSH2 0x1EAB DUP3 PUSH1 0x0 SWAP3 PUSH2 0x1E89 JUMP JUMPDEST SWAP1 PUSH1 0x4 SWAP2 DUP3 SLOAD LT PUSH2 0x230A JUMPI PUSH1 0x1 DUP1 PUSH1 0xA0 SHL SUB SWAP6 DUP7 DUP2 AND SWAP8 DUP9 DUP4 MSTORE PUSH1 0x20 SWAP4 PUSH1 0xD DUP6 MSTORE PUSH1 0x40 SWAP5 DUP6 DUP6 KECCAK256 PUSH2 0x1EDD DUP9 DUP3 SLOAD PUSH2 0x1E89 JUMP JUMPDEST SWAP1 SSTORE DUP11 DUP6 MSTORE PUSH1 0xE DUP2 MSTORE DUP6 DUP6 KECCAK256 PUSH2 0x1EF4 DUP10 DUP3 SLOAD PUSH2 0x1E89 JUMP JUMPDEST SWAP1 SSTORE PUSH2 0x1F02 DUP8 PUSH1 0xB SLOAD PUSH2 0x1E89 JUMP JUMPDEST PUSH1 0xB SSTORE PUSH2 0x1F11 DUP9 PUSH1 0xC SLOAD PUSH2 0x1E89 JUMP JUMPDEST PUSH1 0xC SSTORE DUP10 DUP9 SWAP4 AND DUP1 ISZERO ISZERO DUP1 PUSH2 0x2300 JUMPI JUMPDEST PUSH2 0x2010 JUMPI JUMPDEST POP POP PUSH1 0x6 SLOAD SWAP3 DUP10 PUSH32 0x0 AND SWAP2 PUSH1 0x7 SLOAD SWAP5 PUSH1 0x8 SLOAD DUP5 EXTCODESIZE ISZERO PUSH2 0x1868 JUMPI DUP9 MLOAD PUSH4 0x75591D5F PUSH1 0xE1 SHL DUP2 MSTORE PUSH1 0x1 PUSH1 0x1 PUSH1 0xA0 SHL SUB SWAP1 SWAP5 AND SWAP3 DUP5 ADD SWAP3 DUP4 MSTORE PUSH1 0x20 DUP4 ADD SWAP6 SWAP1 SWAP6 MSTORE PUSH1 0x40 DUP3 ADD SWAP6 SWAP1 SWAP6 MSTORE PUSH1 0x60 DUP2 ADD SWAP4 SWAP1 SWAP4 MSTORE PUSH1 0x80 DUP4 ADD SWAP4 SWAP1 SWAP4 MSTORE DUP4 SWAP2 DUP4 SWAP2 SWAP1 DUP3 SWAP1 DUP5 SWAP1 DUP3 SWAP1 PUSH1 0xA0 ADD SUB SWAP3 GAS CALL DUP1 ISZERO PUSH2 0x2006 JUMPI PUSH2 0x1FF2 JUMPI JUMPDEST POP POP MLOAD SWAP6 DUP7 MSTORE PUSH1 0x20 DUP7 ADD MSTORE PUSH1 0x40 DUP6 ADD MSTORE AND SWAP2 PUSH32 0x8F7A55179307CEA51948432D653DBD53A23FEDC388BCB3E04E311F8220D87864 SWAP1 PUSH1 0x60 SWAP1 LOG3 JUMP JUMPDEST PUSH2 0x1FFC DUP3 SWAP2 PUSH2 0x18A3 JUMP JUMPDEST PUSH2 0x31A JUMPI DUP1 PUSH2 0x1FB8 JUMP JUMPDEST DUP4 MLOAD RETURNDATASIZE DUP5 DUP3 RETURNDATACOPY RETURNDATASIZE SWAP1 REVERT JUMPDEST DUP11 PUSH32 0x0 AND SWAP1 DUP8 MLOAD PUSH4 0x308A59B PUSH1 0xE3 SHL DUP2 MSTORE DUP14 DUP6 DUP3 ADD MSTORE DUP4 DUP2 PUSH1 0x24 DUP2 DUP7 GAS STATICCALL SWAP1 DUP2 ISZERO PUSH2 0x22F6 JUMPI SWAP1 DUP9 SWAP5 SWAP4 SWAP3 SWAP2 DUP6 SWAP2 PUSH2 0x22D9 JUMPI JUMPDEST POP ISZERO PUSH2 0x2274 JUMPI JUMPDEST POP DUP8 MLOAD PUSH4 0xD8ABFEE5 PUSH1 0xE0 SHL DUP2 MSTORE PUSH1 0x1 PUSH1 0x1 PUSH1 0xA0 SHL SUB DUP8 AND DUP6 DUP3 ADD SWAP1 DUP2 MSTORE PUSH1 0x20 DUP2 ADD DUP13 SWAP1 MSTORE SWAP1 SWAP4 PUSH1 0x60 SWAP3 DUP6 SWAP3 SWAP1 SWAP2 DUP4 SWAP2 DUP3 SWAP1 PUSH1 0x40 ADD JUMPDEST SUB SWAP3 GAS CALL SWAP1 DUP2 ISZERO PUSH2 0x226A JUMPI DUP7 SWAP3 DUP8 SWAP1 DUP9 SWAP4 PUSH2 0x2222 JUMPI JUMPDEST POP DUP13 DUP5 AND SWAP3 DUP4 PUSH2 0x20C6 JUMPI JUMPDEST POP POP POP PUSH2 0x1F26 JUMP JUMPDEST SWAP1 SWAP2 SWAP3 DUP1 SWAP5 SWAP7 POP DUP9 MSTORE PUSH1 0xE DUP4 MSTORE DUP9 DUP9 KECCAK256 PUSH2 0x20E1 DUP4 DUP3 SLOAD PUSH2 0x1E89 JUMP JUMPDEST SWAP1 SSTORE DUP4 DUP9 MSTORE PUSH1 0xF DUP4 MSTORE DUP9 DUP9 KECCAK256 PUSH2 0x20F8 DUP4 DUP3 SLOAD PUSH2 0x1E89 JUMP JUMPDEST SWAP1 SSTORE DUP14 DUP9 MSTORE PUSH1 0xF DUP4 MSTORE DUP9 DUP9 KECCAK256 PUSH2 0x210F DUP3 DUP3 SLOAD PUSH2 0x1E89 JUMP JUMPDEST SWAP1 SSTORE PUSH2 0x211E PUSH2 0xCB9 DUP3 DUP5 PUSH2 0x1E89 JUMP JUMPDEST PUSH1 0xC SSTORE PUSH2 0x212B DUP2 DUP13 PUSH2 0x1E89 JUMP JUMPDEST SWAP6 DUP14 PUSH32 0x0 AND PUSH1 0x7 SLOAD SWAP2 PUSH1 0x8 SLOAD PUSH1 0x6 SLOAD SWAP1 DUP4 EXTCODESIZE ISZERO PUSH2 0x221E JUMPI DUP14 MLOAD PUSH4 0x75591D5F PUSH1 0xE1 SHL DUP2 MSTORE PUSH1 0x1 PUSH1 0x1 PUSH1 0xA0 SHL SUB SWAP1 SWAP4 AND DUP4 DUP12 ADD SWAP1 DUP2 MSTORE PUSH1 0x20 DUP2 ADD DUP9 SWAP1 MSTORE PUSH1 0x40 DUP2 ADD SWAP6 SWAP1 SWAP6 MSTORE PUSH1 0x60 DUP6 ADD MSTORE PUSH1 0x80 DUP5 ADD MSTORE SWAP2 DUP11 SWAP2 DUP4 SWAP2 DUP3 SWAP1 DUP5 SWAP1 DUP3 SWAP1 PUSH1 0xA0 ADD SUB SWAP3 GAS CALL DUP1 ISZERO PUSH2 0x2214 JUMPI SWAP2 DUP16 SWAP4 SWAP2 DUP11 SWAP1 DUP13 SWAP5 PUSH2 0x21F4 JUMPI JUMPDEST POP POP PUSH32 0x8A888A9AC1098C12B38ADE27D5D5B51CE092D9271475E3024A084BFC73FD5798 SWAP4 SWAP5 DUP4 MLOAD SWAP3 DUP4 MSTORE DUP3 ADD MSTORE LOG3 CODESIZE DUP1 DUP1 DUP1 DUP1 PUSH2 0x20BE JUMP JUMPDEST SWAP1 SWAP3 SWAP6 SWAP4 POP PUSH2 0x2204 SWAP2 SWAP5 POP PUSH2 0x18A3 JUMP JUMPDEST PUSH2 0x1868 JUMPI SWAP2 DUP9 SWAP1 DUP15 SWAP3 DUP10 CODESIZE PUSH2 0x21BC JUMP JUMPDEST DUP11 MLOAD RETURNDATASIZE DUP12 DUP3 RETURNDATACOPY RETURNDATASIZE SWAP1 REVERT JUMPDEST DUP13 DUP1 REVERT JUMPDEST SWAP4 POP POP SWAP1 POP PUSH1 0x60 DUP3 RETURNDATASIZE PUSH1 0x60 GT PUSH2 0x2262 JUMPI JUMPDEST DUP2 PUSH2 0x2240 PUSH1 0x60 SWAP4 DUP4 PUSH2 0x18B7 JUMP JUMPDEST DUP2 ADD SUB SLT PUSH2 0x326 JUMPI PUSH2 0x2251 DUP3 PUSH2 0x1B5D JUMP JUMPDEST SWAP1 DUP8 DUP2 DUP5 ADD MLOAD SWAP4 ADD MLOAD SWAP2 SWAP3 CODESIZE PUSH2 0x20B3 JUMP JUMPDEST RETURNDATASIZE SWAP2 POP PUSH2 0x2233 JUMP JUMPDEST DUP8 MLOAD RETURNDATASIZE DUP9 DUP3 RETURNDATACOPY RETURNDATASIZE SWAP1 REVERT JUMPDEST SWAP1 DUP1 SWAP3 SWAP4 POP EXTCODESIZE ISZERO PUSH2 0xBAF JUMPI DUP8 MLOAD SWAP1 PUSH4 0x5603B9F9 PUSH1 0xE0 SHL DUP3 MSTORE DUP14 DUP6 DUP4 ADD MSTORE PUSH1 0x24 DUP3 ADD MSTORE DUP7 DUP2 PUSH1 0x44 DUP2 DUP4 DUP7 GAS CALL DUP1 ISZERO PUSH2 0x22CF JUMPI PUSH2 0x22B3 JUMPI JUMPDEST SWAP1 DUP7 SWAP3 SWAP2 PUSH2 0x2068 JUMP JUMPDEST PUSH2 0x209D SWAP7 PUSH2 0x22C5 PUSH1 0x60 SWAP3 SWAP5 SWAP4 SWAP5 PUSH2 0x18A3 JUMP JUMPDEST SWAP7 POP SWAP2 SWAP1 SWAP2 PUSH2 0x22AA JUMP JUMPDEST DUP9 MLOAD RETURNDATASIZE DUP10 DUP3 RETURNDATACOPY RETURNDATASIZE SWAP1 REVERT JUMPDEST PUSH2 0x22F0 SWAP2 POP DUP5 RETURNDATASIZE DUP7 GT PUSH2 0x352 JUMPI PUSH2 0x343 DUP2 DUP4 PUSH2 0x18B7 JUMP JUMPDEST CODESIZE PUSH2 0x2061 JUMP JUMPDEST DUP10 MLOAD RETURNDATASIZE DUP11 DUP3 RETURNDATACOPY RETURNDATASIZE SWAP1 REVERT JUMPDEST POP DUP12 DUP2 EQ ISZERO PUSH2 0x1F21 JUMP JUMPDEST PUSH1 0x40 MLOAD PUSH3 0x461BCD PUSH1 0xE5 SHL DUP2 MSTORE PUSH1 0x20 DUP2 DUP5 ADD MSTORE PUSH1 0x1B PUSH1 0x24 DUP3 ADD MSTORE PUSH32 0x53616C65526F756E643A20657863656564732068617264206361700000000000 PUSH1 0x44 DUP3 ADD MSTORE PUSH1 0x64 SWAP1 REVERT JUMPDEST PUSH1 0x40 MLOAD PUSH4 0x23B872DD PUSH1 0xE0 SHL PUSH1 0x20 DUP3 ADD SWAP1 DUP2 MSTORE PUSH1 0x1 PUSH1 0x1 PUSH1 0xA0 SHL SUB SWAP4 DUP5 AND PUSH1 0x24 DUP4 ADD MSTORE SWAP4 DUP4 AND PUSH1 0x44 DUP3 ADD MSTORE PUSH1 0x64 DUP1 DUP3 ADD SWAP6 SWAP1 SWAP6 MSTORE SWAP4 DUP5 MSTORE SWAP3 SWAP1 SWAP2 PUSH1 0xA0 DUP3 ADD SWAP1 PUSH8 0xFFFFFFFFFFFFFFFF DUP3 GT DUP4 DUP4 LT OR PUSH2 0x188D JUMPI PUSH1 0x20 SWAP3 PUSH1 0x0 SWAP3 PUSH1 0x40 MSTORE MLOAD SWAP1 DUP3 DUP7 GAS CALL ISZERO PUSH2 0x1DC5 JUMPI PUSH1 0x0 MLOAD RETURNDATASIZE PUSH2 0x23E4 JUMPI POP DUP1 DUP3 AND EXTCODESIZE ISZERO JUMPDEST PUSH2 0x23CA JUMPI POP POP JUMP JUMPDEST PUSH1 0x40 MLOAD PUSH4 0x5274AFE7 PUSH1 0xE0 SHL DUP2 MSTORE SWAP2 AND PUSH1 0x4 DUP3 ADD MSTORE PUSH1 0x24 SWAP2 POP REVERT JUMPDEST PUSH1 0x1 EQ ISZERO PUSH2 0x23C2 JUMP INVALID LOG2 PUSH5 0x6970667358 0x22 SLT KECCAK256 BLOBBASEFEE SSTORE CODESIZE TIMESTAMP 0xD5 LOG3 PUSH0 DUP14 0xF9 PUSH3 0xCF8976 EXP 0xEB 0xC7 SWAP4 0x4C 0xC8 SWAP15 0xB1 0xE9 MSTORE 0xC9 0x22 LT 0x4B CALL 0xFB 0xE7 0xA9 CREATE PUSH5 0x736F6C6343 STOP ADDMOD XOR STOP CALLER LOG2 PUSH5 0x6970667358 0x22 SLT KECCAK256 PUSH6 0x4CEEED78BD46 0xE7 SDIV 0xA8 PUSH9 0xF287983A8249435F4C DUP13 0xE3 0x4E 0xD9 0xC6 0xA6 0xEF PUSH25 0xFB1E815F64736F6C634300081800336080346100C757601F61 LT TSTORE CODESIZE DUP2 SWAP1 SUB SWAP2 DUP3 ADD PUSH1 0x1F NOT AND DUP4 ADD SWAP2 PUSH1 0x1 PUSH1 0x1 PUSH1 0x40 SHL SUB DUP4 GT DUP5 DUP5 LT OR PUSH2 0xCC JUMPI DUP1 DUP5 SWAP3 PUSH1 0x20 SWAP5 PUSH1 0x40 MSTORE DUP4 CODECOPY DUP2 ADD SUB SLT PUSH2 0xC7 JUMPI MLOAD PUSH1 0x1 PUSH1 0x1 PUSH1 0xA0 SHL SUB DUP2 AND DUP1 DUP3 SUB PUSH2 0xC7 JUMPI PUSH2 0x1F4 DUP1 PUSH1 0x1 SSTORE PUSH1 0x2 SSTORE ISZERO PUSH2 0x82 JUMPI DUP1 PUSH2 0x6C PUSH2 0x72 SWAP3 PUSH2 0xE2 JUMP JUMPDEST POP PUSH2 0x160 JUMP JUMPDEST POP PUSH1 0x40 MLOAD PUSH2 0xE3C SWAP1 DUP2 PUSH2 0x201 DUP3 CODECOPY RETURN JUMPDEST PUSH1 0x40 MLOAD PUSH3 0x461BCD PUSH1 0xE5 SHL DUP2 MSTORE PUSH1 0x20 PUSH1 0x4 DUP3 ADD MSTORE PUSH1 0x1C PUSH1 0x24 DUP3 ADD MSTORE PUSH32 0x526566657272616C53797374656D3A207A65726F206164647265737300000000 PUSH1 0x44 DUP3 ADD MSTORE PUSH1 0x64 SWAP1 REVERT JUMPDEST PUSH1 0x0 DUP1 REVERT JUMPDEST PUSH4 0x4E487B71 PUSH1 0xE0 SHL PUSH1 0x0 MSTORE PUSH1 0x41 PUSH1 0x4 MSTORE PUSH1 0x24 PUSH1 0x0 REVERT JUMPDEST PUSH1 0x1 PUSH1 0x1 PUSH1 0xA0 SHL SUB AND PUSH1 0x0 DUP2 DUP2 MSTORE PUSH32 0xAD3228B676F7D3CD4284A5443F17F1962B36E491B30A40B2405849E597BA5FB5 PUSH1 0x20 MSTORE PUSH1 0x40 DUP2 KECCAK256 SLOAD SWAP1 SWAP2 SWAP1 PUSH1 0xFF AND PUSH2 0x15C JUMPI DUP2 DUP1 MSTORE DUP2 PUSH1 0x20 MSTORE PUSH1 0x40 DUP3 KECCAK256 DUP2 DUP4 MSTORE PUSH1 0x20 MSTORE PUSH1 0x40 DUP3 KECCAK256 PUSH1 0x1 PUSH1 0xFF NOT DUP3 SLOAD AND OR SWAP1 SSTORE CALLER SWAP2 PUSH1 0x0 DUP1 MLOAD PUSH1 0x20 PUSH2 0x103D DUP4 CODECOPY DUP2 MLOAD SWAP2 MSTORE DUP2 DUP1 LOG4 PUSH1 0x1 SWAP1 JUMP JUMPDEST POP SWAP1 JUMP JUMPDEST PUSH1 0x1 PUSH1 0x1 PUSH1 0xA0 SHL SUB AND PUSH1 0x0 DUP2 DUP2 MSTORE PUSH32 0x610416528CFEF961F6C8FC91BEF56087EF3281212584DAEF4B7FA0E6036047C2 PUSH1 0x20 MSTORE PUSH1 0x40 DUP2 KECCAK256 SLOAD SWAP1 SWAP2 SWAP1 PUSH32 0xE15A7DD79E49684A2A3FD5C689AE377EAB58931A852FFED7FCA24BD23555AA29 SWAP1 PUSH1 0xFF AND PUSH2 0x1FB JUMPI DUP1 DUP4 MSTORE DUP3 PUSH1 0x20 MSTORE PUSH1 0x40 DUP4 KECCAK256 DUP3 DUP5 MSTORE PUSH1 0x20 MSTORE PUSH1 0x40 DUP4 KECCAK256 PUSH1 0x1 PUSH1 0xFF NOT DUP3 SLOAD AND OR SWAP1 SSTORE PUSH1 0x0 DUP1 MLOAD PUSH1 0x20 PUSH2 0x103D DUP4 CODECOPY DUP2 MLOAD SWAP2 MSTORE CALLER SWAP4 DUP1 LOG4 PUSH1 0x1 SWAP1 JUMP JUMPDEST POP POP SWAP1 JUMP INVALID PUSH1 0x80 PUSH1 0x40 DUP2 DUP2 MSTORE PUSH1 0x4 SWAP2 DUP3 CALLDATASIZE LT ISZERO PUSH2 0x16 JUMPI PUSH1 0x0 DUP1 REVERT JUMPDEST PUSH1 0x0 SWAP1 DUP2 CALLDATALOAD PUSH1 0xE0 SHR SWAP1 DUP2 PUSH4 0x1FFC9A7 EQ PUSH2 0xA9C JUMPI POP DUP1 PUSH4 0x67FDA6B EQ PUSH2 0xA7D JUMPI DUP1 PUSH4 0xB90FCA1 EQ PUSH2 0xA42 JUMPI DUP1 PUSH4 0x18452CD8 EQ PUSH2 0xA01 JUMPI DUP1 PUSH4 0x196F4914 EQ PUSH2 0x9E2 JUMPI DUP1 PUSH4 0x21BADE13 EQ PUSH2 0x92C JUMPI DUP1 PUSH4 0x248A9CA3 EQ PUSH2 0x902 JUMPI DUP1 PUSH4 0x24ACBD69 EQ PUSH2 0x8CC JUMPI DUP1 PUSH4 0x2F2FF15D EQ PUSH2 0x8A2 JUMPI DUP1 PUSH4 0x32E5B6D8 EQ PUSH2 0x7CA JUMPI DUP1 PUSH4 0x36568ABE EQ PUSH2 0x784 JUMPI DUP1 PUSH4 0x4A9FEFC7 EQ PUSH2 0x749 JUMPI DUP1 PUSH4 0x5603B9F9 EQ PUSH2 0x521 JUMPI DUP1 PUSH4 0x8D736ED3 EQ PUSH2 0x502 JUMPI DUP1 PUSH4 0x91D14854 EQ PUSH2 0x4BC JUMPI DUP1 PUSH4 0xA217FDDF EQ PUSH2 0x4A1 JUMPI DUP1 PUSH4 0xAB11417F EQ PUSH2 0x482 JUMPI DUP1 PUSH4 0xC9C6B556 EQ PUSH2 0x407 JUMPI DUP1 PUSH4 0xD547741F EQ PUSH2 0x3C4 JUMPI DUP1 PUSH4 0xD8ABFEE5 EQ PUSH2 0x379 JUMPI DUP1 PUSH4 0xDEB3269F EQ PUSH2 0x1BC JUMPI DUP1 PUSH4 0xE23828DC EQ PUSH2 0x17D JUMPI PUSH4 0xE92820E6 EQ PUSH2 0x121 JUMPI PUSH1 0x0 DUP1 REVERT JUMPDEST CALLVALUE PUSH2 0x17A JUMPI DUP2 PUSH1 0x3 NOT CALLDATASIZE ADD SLT PUSH2 0x17A JUMPI PUSH2 0x139 PUSH2 0xAF0 JUMP JUMPDEST PUSH1 0x1 PUSH1 0x1 PUSH1 0xA0 SHL SUB SWAP1 DUP2 AND DUP3 MSTORE PUSH1 0x20 SWAP4 SWAP1 SWAP4 MSTORE DUP2 DUP2 KECCAK256 DUP1 SLOAD PUSH1 0x24 CALLDATALOAD SWAP5 SWAP3 SWAP1 DUP6 LT ISZERO PUSH2 0x17A JUMPI POP PUSH1 0x20 SWAP4 PUSH2 0x16B SWAP2 PUSH2 0xB21 JUMP JUMPDEST SWAP3 SWAP1 SLOAD SWAP1 MLOAD SWAP3 PUSH1 0x3 SHL SHR AND DUP2 MSTORE RETURN JUMPDEST DUP1 REVERT JUMPDEST POP SWAP1 CALLVALUE PUSH2 0x1B8 JUMPI DUP2 PUSH1 0x3 NOT CALLDATASIZE ADD SLT PUSH2 0x1B8 JUMPI PUSH1 0x20 SWAP1 MLOAD PUSH32 0xE15A7DD79E49684A2A3FD5C689AE377EAB58931A852FFED7FCA24BD23555AA29 DUP2 MSTORE RETURN JUMPDEST POP DUP1 REVERT JUMPDEST POP SWAP1 CALLVALUE PUSH2 0x1B8 JUMPI DUP1 PUSH1 0x3 NOT CALLDATASIZE ADD SLT PUSH2 0x1B8 JUMPI DUP3 CALLDATALOAD PUSH1 0x24 SWAP4 DUP5 CALLDATALOAD SWAP1 PUSH32 0xE15A7DD79E49684A2A3FD5C689AE377EAB58931A852FFED7FCA24BD23555AA29 SWAP1 DUP2 DUP7 MSTORE PUSH1 0x20 SWAP2 DUP7 DUP4 MSTORE DUP6 DUP8 KECCAK256 CALLER DUP9 MSTORE DUP4 MSTORE PUSH1 0xFF DUP7 DUP9 KECCAK256 SLOAD AND ISZERO PUSH2 0x35D JUMPI POP PUSH2 0x3E8 DUP1 DUP6 GT PUSH2 0x30C JUMPI DUP4 GT PUSH2 0x2BD JUMPI PUSH2 0x7D0 PUSH2 0x233 DUP5 DUP7 PUSH2 0xB87 JUMP JUMPDEST GT PUSH2 0x271 JUMPI POP PUSH32 0x2B0C09F5443BC5628E317C9E8EF97EDC0667F2B69E9400CDC2EAAE6C9B1DE93D SWAP5 SWAP6 POP DUP3 PUSH1 0x1 SSTORE DUP2 PUSH1 0x2 SSTORE DUP4 MLOAD SWAP3 DUP4 MSTORE DUP3 ADD MSTORE LOG1 DUP1 RETURN JUMPDEST DUP7 PUSH1 0x84 SWAP3 DUP7 MLOAD SWAP3 PUSH3 0x461BCD PUSH1 0xE5 SHL DUP5 MSTORE DUP4 ADD MSTORE DUP1 DUP3 ADD MSTORE PUSH32 0x526566657272616C53797374656D3A20746F74616C20626F6E757320746F6F20 PUSH1 0x44 DUP3 ADD MSTORE PUSH4 0xD0D2CED PUSH1 0xE3 SHL PUSH1 0x64 DUP3 ADD MSTORE REVERT JUMPDEST PUSH1 0x26 DUP8 PUSH1 0x84 SWAP4 DUP8 MLOAD SWAP4 PUSH3 0x461BCD PUSH1 0xE5 SHL DUP6 MSTORE DUP5 ADD MSTORE DUP3 ADD MSTORE PUSH32 0x526566657272616C53797374656D3A207265666572656520626F6E757320746F PUSH1 0x44 DUP3 ADD MSTORE PUSH6 0xDE40D0D2CED PUSH1 0xD3 SHL PUSH1 0x64 DUP3 ADD MSTORE REVERT JUMPDEST POP PUSH1 0x27 DUP8 PUSH1 0x84 SWAP4 DUP8 MLOAD SWAP4 PUSH3 0x461BCD PUSH1 0xE5 SHL DUP6 MSTORE DUP5 ADD MSTORE DUP3 ADD MSTORE PUSH32 0x526566657272616C53797374656D3A20726566657272657220626F6E75732074 PUSH1 0x44 DUP3 ADD MSTORE PUSH7 0xDEDE40D0D2CED PUSH1 0xCB SHL PUSH1 0x64 DUP3 ADD MSTORE REVERT JUMPDEST PUSH1 0x44 SWAP3 POP DUP8 DUP7 MLOAD SWAP3 PUSH4 0xE2517D3F PUSH1 0xE0 SHL DUP5 MSTORE CALLER SWAP1 DUP5 ADD MSTORE DUP3 ADD MSTORE REVERT JUMPDEST POP SWAP1 CALLVALUE PUSH2 0x1B8 JUMPI DUP1 PUSH1 0x3 NOT CALLDATASIZE ADD SLT PUSH2 0x1B8 JUMPI PUSH1 0x60 SWAP1 PUSH2 0x3AA PUSH2 0x399 PUSH2 0xAF0 JUMP JUMPDEST PUSH2 0x3A1 PUSH2 0xC73 JUMP JUMPDEST PUSH1 0x24 CALLDATALOAD SWAP1 PUSH2 0xB94 JUMP JUMPDEST SWAP2 SWAP3 SWAP1 DUP2 MLOAD SWAP4 PUSH1 0x1 DUP1 PUSH1 0xA0 SHL SUB AND DUP5 MSTORE PUSH1 0x20 DUP5 ADD MSTORE DUP3 ADD MSTORE RETURN JUMPDEST POP SWAP2 SWAP1 CALLVALUE PUSH2 0x403 JUMPI DUP1 PUSH1 0x3 NOT CALLDATASIZE ADD SLT PUSH2 0x403 JUMPI PUSH2 0x3FF SWAP2 CALLDATALOAD PUSH2 0x3FA PUSH1 0x1 PUSH2 0x3E9 PUSH2 0xB0B JUMP JUMPDEST SWAP4 DUP4 DUP8 MSTORE DUP7 PUSH1 0x20 MSTORE DUP7 KECCAK256 ADD SLOAD PUSH2 0xCED JUMP JUMPDEST PUSH2 0xD91 JUMP JUMPDEST POP DUP1 RETURN JUMPDEST DUP3 DUP1 REVERT JUMPDEST POP SWAP1 CALLVALUE PUSH2 0x1B8 JUMPI PUSH1 0x20 CALLDATASIZE PUSH1 0x3 NOT ADD SLT PUSH2 0x1B8 JUMPI PUSH1 0x1 PUSH1 0x1 PUSH1 0xA0 SHL SUB SWAP2 PUSH2 0x47E SWAP1 DUP3 SWAP1 DUP5 PUSH2 0x432 PUSH2 0xAF0 JUMP JUMPDEST AND DUP2 MSTORE PUSH1 0x3 PUSH1 0x20 DUP2 DUP2 MSTORE SWAP3 SWAP1 SWAP2 KECCAK256 DUP1 SLOAD PUSH1 0x1 DUP3 ADD SLOAD PUSH1 0x2 DUP4 ADD SLOAD SWAP3 SWAP1 SWAP4 ADD SLOAD SWAP6 MLOAD SWAP7 AND PUSH1 0x1 PUSH1 0x1 PUSH1 0xA0 SHL SUB AND DUP7 MSTORE SWAP2 DUP6 ADD MSTORE PUSH1 0x40 DUP5 ADD MSTORE PUSH1 0xFF SWAP1 SWAP2 AND ISZERO ISZERO PUSH1 0x60 DUP4 ADD MSTORE DUP2 SWAP1 PUSH1 0x80 DUP3 ADD SWAP1 JUMP JUMPDEST SUB SWAP1 RETURN JUMPDEST POP SWAP1 CALLVALUE PUSH2 0x1B8 JUMPI DUP2 PUSH1 0x3 NOT CALLDATASIZE ADD SLT PUSH2 0x1B8 JUMPI PUSH1 0x20 SWAP1 PUSH1 0x6 SLOAD SWAP1 MLOAD SWAP1 DUP2 MSTORE RETURN JUMPDEST POP SWAP1 CALLVALUE PUSH2 0x1B8 JUMPI DUP2 PUSH1 0x3 NOT CALLDATASIZE ADD SLT PUSH2 0x1B8 JUMPI MLOAD SWAP1 DUP2 MSTORE PUSH1 0x20 SWAP1 RETURN JUMPDEST POP SWAP2 CALLVALUE PUSH2 0x403 JUMPI DUP2 PUSH1 0x3 NOT CALLDATASIZE ADD SLT PUSH2 0x403 JUMPI DUP2 PUSH1 0x20 SWAP4 PUSH1 0xFF SWAP3 PUSH2 0x4DD PUSH2 0xB0B JUMP JUMPDEST SWAP1 CALLDATALOAD DUP3 MSTORE DUP2 DUP7 MSTORE DUP3 DUP3 KECCAK256 PUSH1 0x1 PUSH1 0x1 PUSH1 0xA0 SHL SUB SWAP1 SWAP2 AND DUP3 MSTORE DUP6 MSTORE KECCAK256 SLOAD SWAP2 MLOAD SWAP2 AND ISZERO ISZERO DUP2 MSTORE RETURN JUMPDEST POP SWAP1 CALLVALUE PUSH2 0x1B8 JUMPI DUP2 PUSH1 0x3 NOT CALLDATASIZE ADD SLT PUSH2 0x1B8 JUMPI PUSH1 0x20 SWAP1 PUSH1 0x2 SLOAD SWAP1 MLOAD SWAP1 DUP2 MSTORE RETURN JUMPDEST POP SWAP2 CALLVALUE PUSH2 0x403 JUMPI DUP2 PUSH1 0x3 NOT CALLDATASIZE ADD SLT PUSH2 0x403 JUMPI PUSH2 0x53B PUSH2 0xAF0 JUMP JUMPDEST PUSH2 0x543 PUSH2 0xB0B JUMP JUMPDEST SWAP2 PUSH2 0x54C PUSH2 0xC73 JUMP JUMPDEST PUSH1 0x1 PUSH1 0x1 PUSH1 0xA0 SHL SUB SWAP2 DUP3 AND SWAP3 DUP4 ISZERO PUSH2 0x706 JUMPI DUP3 AND SWAP4 DUP5 ISZERO PUSH2 0x6C3 JUMPI DUP5 DUP5 EQ PUSH2 0x680 JUMPI DUP4 DUP7 MSTORE PUSH1 0x3 PUSH1 0x20 MSTORE PUSH1 0xFF PUSH1 0x3 DUP3 DUP9 KECCAK256 ADD SLOAD AND PUSH2 0x63D JUMPI DUP4 DUP7 MSTORE PUSH1 0x3 PUSH1 0x20 MSTORE PUSH1 0x3 DUP2 DUP8 KECCAK256 DUP7 PUSH12 0xFFFFFFFFFFFFFFFFFFFFFFFF PUSH1 0xA0 SHL DUP3 SLOAD AND OR DUP2 SSTORE ADD PUSH1 0x1 PUSH1 0xFF NOT DUP3 SLOAD AND OR SWAP1 SSTORE DUP5 DUP7 MSTORE DUP2 PUSH1 0x20 MSTORE DUP6 KECCAK256 DUP1 SLOAD SWAP2 PUSH9 0x10000000000000000 DUP4 LT ISZERO PUSH2 0x62A JUMPI POP SWAP1 PUSH2 0x5E2 SWAP2 PUSH1 0x1 DUP3 ADD DUP2 SSTORE PUSH2 0xB21 JUMP JUMPDEST DUP2 SWAP3 SWAP2 SLOAD SWAP1 PUSH1 0x3 SHL SWAP2 DUP5 DUP4 SHL SWAP3 SHL NOT AND OR SWAP1 SSTORE PUSH2 0x600 PUSH1 0x5 SLOAD PUSH2 0xB4F JUMP JUMPDEST PUSH1 0x5 SSTORE PUSH32 0x5F1CA2FCC108B751843A763E60D2201F593516109D7DBB1B700468F2D4190BB7 DUP4 DUP1 LOG3 DUP1 RETURN JUMPDEST PUSH4 0x4E487B71 PUSH1 0xE0 SHL DUP8 MSTORE PUSH1 0x41 SWAP1 MSTORE PUSH1 0x24 DUP7 REVERT JUMPDEST SWAP1 PUSH1 0x20 PUSH1 0x64 SWAP3 MLOAD SWAP2 PUSH3 0x461BCD PUSH1 0xE5 SHL DUP4 MSTORE DUP3 ADD MSTORE PUSH1 0x20 PUSH1 0x24 DUP3 ADD MSTORE PUSH32 0x526566657272616C53797374656D3A20616C7265616479207265666572726564 PUSH1 0x44 DUP3 ADD MSTORE REVERT JUMPDEST SWAP1 PUSH1 0x20 PUSH1 0x64 SWAP3 MLOAD SWAP2 PUSH3 0x461BCD PUSH1 0xE5 SHL DUP4 MSTORE DUP3 ADD MSTORE PUSH1 0x1D PUSH1 0x24 DUP3 ADD MSTORE PUSH32 0x526566657272616C53797374656D3A2073656C662D726566657272616C000000 PUSH1 0x44 DUP3 ADD MSTORE REVERT JUMPDEST SWAP1 PUSH1 0x20 PUSH1 0x64 SWAP3 MLOAD SWAP2 PUSH3 0x461BCD PUSH1 0xE5 SHL DUP4 MSTORE DUP3 ADD MSTORE PUSH1 0x1D PUSH1 0x24 DUP3 ADD MSTORE PUSH32 0x526566657272616C53797374656D3A207A65726F207265666572726572000000 PUSH1 0x44 DUP3 ADD MSTORE REVERT JUMPDEST DUP5 MLOAD PUSH3 0x461BCD PUSH1 0xE5 SHL DUP2 MSTORE PUSH1 0x20 DUP2 DUP5 ADD MSTORE PUSH1 0x1C PUSH1 0x24 DUP3 ADD MSTORE PUSH32 0x526566657272616C53797374656D3A207A65726F207265666572656500000000 PUSH1 0x44 DUP3 ADD MSTORE PUSH1 0x64 SWAP1 REVERT JUMPDEST POP SWAP1 CALLVALUE PUSH2 0x1B8 JUMPI PUSH1 0x20 CALLDATASIZE PUSH1 0x3 NOT ADD SLT PUSH2 0x1B8 JUMPI PUSH1 0x20 SWAP2 PUSH1 0x1 PUSH1 0x1 PUSH1 0xA0 SHL SUB SWAP1 DUP3 SWAP1 DUP3 PUSH2 0x773 PUSH2 0xAF0 JUMP JUMPDEST AND DUP2 MSTORE PUSH1 0x3 DUP6 MSTORE KECCAK256 SLOAD AND SWAP1 MLOAD SWAP1 DUP2 MSTORE RETURN JUMPDEST POP SWAP1 CALLVALUE PUSH2 0x1B8 JUMPI DUP1 PUSH1 0x3 NOT CALLDATASIZE ADD SLT PUSH2 0x1B8 JUMPI PUSH2 0x79E PUSH2 0xB0B JUMP JUMPDEST SWAP1 CALLER PUSH1 0x1 PUSH1 0x1 PUSH1 0xA0 SHL SUB DUP4 AND SUB PUSH2 0x7BB JUMPI POP PUSH2 0x3FF SWAP2 SWAP3 CALLDATALOAD PUSH2 0xD91 JUMP JUMPDEST MLOAD PUSH4 0x334BD919 PUSH1 0xE1 SHL DUP2 MSTORE DUP4 SWAP1 REVERT JUMPDEST POP DUP3 SWAP1 CALLVALUE PUSH2 0x17A JUMPI PUSH1 0x20 SWAP3 DUP4 PUSH1 0x3 NOT CALLDATASIZE ADD SLT PUSH2 0x1B8 JUMPI PUSH1 0x1 PUSH1 0x1 PUSH1 0xA0 SHL SUB SWAP4 DUP5 PUSH2 0x7F2 PUSH2 0xAF0 JUMP JUMPDEST AND DUP4 MSTORE DUP4 DUP2 MSTORE DUP2 DUP4 KECCAK256 SWAP3 DUP3 MLOAD SWAP3 DUP4 DUP4 DUP7 SLOAD SWAP2 DUP3 DUP2 MSTORE ADD SWAP1 DUP2 SWAP7 DUP5 MSTORE DUP5 DUP5 KECCAK256 SWAP1 DUP5 JUMPDEST DUP7 DUP3 DUP3 LT PUSH2 0x88C JUMPI POP POP POP POP DUP5 SWAP1 SUB PUSH1 0x1F ADD PUSH1 0x1F NOT AND DUP5 ADD SWAP6 PUSH8 0xFFFFFFFFFFFFFFFF DUP8 GT DUP6 DUP9 LT OR PUSH2 0x879 JUMPI POP DUP6 DUP2 MSTORE DUP3 DUP7 MSTORE SWAP3 MLOAD DUP3 DUP7 ADD DUP2 SWAP1 MSTORE SWAP3 DUP6 ADD SWAP4 SWAP3 SWAP2 SWAP1 JUMPDEST DUP3 DUP2 LT PUSH2 0x863 JUMPI DUP6 DUP6 SUB DUP7 RETURN JUMPDEST DUP4 MLOAD DUP8 AND DUP6 MSTORE SWAP4 DUP2 ADD SWAP4 SWAP3 DUP2 ADD SWAP3 PUSH1 0x1 ADD PUSH2 0x856 JUMP JUMPDEST PUSH4 0x4E487B71 PUSH1 0xE0 SHL DUP4 MSTORE PUSH1 0x41 SWAP1 MSTORE PUSH1 0x24 DUP3 REVERT JUMPDEST DUP4 SLOAD DUP13 AND DUP6 MSTORE SWAP1 SWAP4 ADD SWAP3 PUSH1 0x1 SWAP3 DUP4 ADD SWAP3 ADD PUSH2 0x813 JUMP JUMPDEST POP SWAP2 SWAP1 CALLVALUE PUSH2 0x403 JUMPI DUP1 PUSH1 0x3 NOT CALLDATASIZE ADD SLT PUSH2 0x403 JUMPI PUSH2 0x3FF SWAP2 CALLDATALOAD PUSH2 0x8C7 PUSH1 0x1 PUSH2 0x3E9 PUSH2 0xB0B JUMP JUMPDEST PUSH2 0xD13 JUMP JUMPDEST POP SWAP2 CALLVALUE PUSH2 0x403 JUMPI PUSH1 0x20 CALLDATASIZE PUSH1 0x3 NOT ADD SLT PUSH2 0x403 JUMPI PUSH1 0x20 SWAP3 DUP3 SWAP2 PUSH1 0x1 PUSH1 0x1 PUSH1 0xA0 SHL SUB PUSH2 0x8F4 PUSH2 0xAF0 JUMP JUMPDEST AND DUP3 MSTORE DUP5 MSTORE KECCAK256 SLOAD SWAP1 MLOAD SWAP1 DUP2 MSTORE RETURN JUMPDEST POP SWAP2 CALLVALUE PUSH2 0x403 JUMPI PUSH1 0x20 CALLDATASIZE PUSH1 0x3 NOT ADD SLT PUSH2 0x403 JUMPI DUP2 PUSH1 0x20 SWAP4 PUSH1 0x1 SWAP3 CALLDATALOAD DUP2 MSTORE DUP1 DUP6 MSTORE KECCAK256 ADD SLOAD SWAP1 MLOAD SWAP1 DUP2 MSTORE RETURN JUMPDEST POP SWAP2 CALLVALUE PUSH2 0x403 JUMPI PUSH1 0x20 CALLDATASIZE PUSH1 0x3 NOT ADD SLT PUSH2 0x403 JUMPI PUSH1 0x1 PUSH1 0x1 PUSH1 0xA0 SHL SUB DUP1 PUSH2 0x950 PUSH2 0xAF0 JUMP JUMPDEST AND DUP5 MSTORE PUSH1 0x3 PUSH1 0x20 MSTORE DUP3 DUP5 KECCAK256 SWAP2 DUP4 MLOAD SWAP5 PUSH1 0x80 DUP7 ADD SWAP2 DUP7 DUP4 LT PUSH8 0xFFFFFFFFFFFFFFFF DUP5 GT OR PUSH2 0x9CF JUMPI POP POP DUP4 MSTORE DUP2 SLOAD AND DUP1 DUP5 MSTORE PUSH1 0x1 DUP3 ADD SLOAD PUSH1 0x20 DUP1 DUP7 ADD DUP3 SWAP1 MSTORE PUSH1 0x2 DUP5 ADD SLOAD DUP7 DUP7 ADD DUP2 SWAP1 MSTORE PUSH1 0x3 SWAP1 SWAP5 ADD SLOAD PUSH1 0xFF AND ISZERO ISZERO PUSH1 0x60 SWAP7 DUP8 ADD DUP2 SWAP1 MSTORE SWAP5 MLOAD PUSH1 0x1 PUSH1 0x1 PUSH1 0xA0 SHL SUB SWAP1 SWAP4 AND DUP4 MSTORE DUP3 ADD MSTORE PUSH1 0x40 DUP2 ADD SWAP2 SWAP1 SWAP2 MSTORE SWAP2 DUP3 ADD MSTORE PUSH1 0x80 SWAP1 RETURN JUMPDEST PUSH4 0x4E487B71 PUSH1 0xE0 SHL DUP3 MSTORE PUSH1 0x41 SWAP1 MSTORE PUSH1 0x24 SWAP1 REVERT JUMPDEST POP SWAP1 CALLVALUE PUSH2 0x1B8 JUMPI DUP2 PUSH1 0x3 NOT CALLDATASIZE ADD SLT PUSH2 0x1B8 JUMPI PUSH1 0x20 SWAP1 PUSH1 0x5 SLOAD SWAP1 MLOAD SWAP1 DUP2 MSTORE RETURN JUMPDEST POP SWAP1 CALLVALUE PUSH2 0x1B8 JUMPI PUSH1 0x20 CALLDATASIZE PUSH1 0x3 NOT ADD SLT PUSH2 0x1B8 JUMPI PUSH1 0x20 SWAP2 PUSH1 0xFF SWAP1 PUSH1 0x3 SWAP1 DUP4 SWAP1 PUSH1 0x1 PUSH1 0x1 PUSH1 0xA0 SHL SUB PUSH2 0xA2F PUSH2 0xAF0 JUMP JUMPDEST AND DUP2 MSTORE DUP3 DUP7 MSTORE KECCAK256 ADD SLOAD AND SWAP1 MLOAD SWAP1 ISZERO ISZERO DUP2 MSTORE RETURN JUMPDEST POP SWAP1 CALLVALUE PUSH2 0x1B8 JUMPI DUP2 PUSH1 0x3 NOT CALLDATASIZE ADD SLT PUSH2 0x1B8 JUMPI PUSH1 0x20 SWAP1 MLOAD PUSH32 0xDB9284895A7211BFD1C970298A1ED435786C5E0CD6EC4810E5F98B0AC05F4634 DUP2 MSTORE RETURN JUMPDEST POP SWAP1 CALLVALUE PUSH2 0x1B8 JUMPI DUP2 PUSH1 0x3 NOT CALLDATASIZE ADD SLT PUSH2 0x1B8 JUMPI PUSH1 0x20 SWAP1 PUSH1 0x1 SLOAD SWAP1 MLOAD SWAP1 DUP2 MSTORE RETURN JUMPDEST SWAP1 POP DUP4 CALLVALUE PUSH2 0x403 JUMPI PUSH1 0x20 CALLDATASIZE PUSH1 0x3 NOT ADD SLT PUSH2 0x403 JUMPI CALLDATALOAD PUSH4 0xFFFFFFFF PUSH1 0xE0 SHL DUP2 AND DUP1 SWAP2 SUB PUSH2 0x403 JUMPI PUSH1 0x20 SWAP3 POP PUSH4 0x7965DB0B PUSH1 0xE0 SHL DUP2 EQ SWAP1 DUP2 ISZERO PUSH2 0xADF JUMPI JUMPDEST POP ISZERO ISZERO DUP2 MSTORE RETURN JUMPDEST PUSH4 0x1FFC9A7 PUSH1 0xE0 SHL EQ SWAP1 POP DUP4 PUSH2 0xAD8 JUMP JUMPDEST PUSH1 0x4 CALLDATALOAD SWAP1 PUSH1 0x1 PUSH1 0x1 PUSH1 0xA0 SHL SUB DUP3 AND DUP3 SUB PUSH2 0xB06 JUMPI JUMP JUMPDEST PUSH1 0x0 DUP1 REVERT JUMPDEST PUSH1 0x24 CALLDATALOAD SWAP1 PUSH1 0x1 PUSH1 0x1 PUSH1 0xA0 SHL SUB DUP3 AND DUP3 SUB PUSH2 0xB06 JUMPI JUMP JUMPDEST DUP1 SLOAD DUP3 LT ISZERO PUSH2 0xB39 JUMPI PUSH1 0x0 MSTORE PUSH1 0x20 PUSH1 0x0 KECCAK256 ADD SWAP1 PUSH1 0x0 SWAP1 JUMP JUMPDEST PUSH4 0x4E487B71 PUSH1 0xE0 SHL PUSH1 0x0 MSTORE PUSH1 0x32 PUSH1 0x4 MSTORE PUSH1 0x24 PUSH1 0x0 REVERT JUMPDEST PUSH1 0x0 NOT DUP2 EQ PUSH2 0xB5E JUMPI PUSH1 0x1 ADD SWAP1 JUMP JUMPDEST PUSH4 0x4E487B71 PUSH1 0xE0 SHL PUSH1 0x0 MSTORE PUSH1 0x11 PUSH1 0x4 MSTORE PUSH1 0x24 PUSH1 0x0 REVERT JUMPDEST DUP2 DUP2 MUL SWAP3 SWAP2 DUP2 ISZERO SWAP2 DUP5 DIV EQ OR ISZERO PUSH2 0xB5E JUMPI JUMP JUMPDEST SWAP2 SWAP1 DUP3 ADD DUP1 SWAP3 GT PUSH2 0xB5E JUMPI JUMP JUMPDEST SWAP1 SWAP2 PUSH1 0x1 DUP1 PUSH1 0xA0 SHL SUB DUP1 SWAP3 AND PUSH1 0x0 SWAP3 DUP2 DUP5 MSTORE PUSH1 0x3 PUSH1 0x20 MSTORE PUSH1 0x40 DUP5 KECCAK256 PUSH1 0xFF PUSH1 0x3 DUP3 ADD SLOAD AND ISZERO PUSH2 0xC68 JUMPI SLOAD AND DUP1 SWAP2 PUSH32 0x97A731CE2AF675E0A2502525558D9BDB33CB114EFCF7E9C0AE4C86A36058DD5A PUSH1 0x60 PUSH2 0x2710 SWAP8 PUSH1 0x2 PUSH1 0x40 DUP11 PUSH2 0xBF8 PUSH1 0x1 SLOAD DUP6 PUSH2 0xB74 JUMP JUMPDEST DIV SWAP11 PUSH2 0xC05 DUP4 SLOAD DUP6 PUSH2 0xB74 JUMP JUMPDEST DIV SWAP10 DUP8 DUP2 MSTORE PUSH1 0x3 PUSH1 0x20 MSTORE PUSH1 0x1 DUP3 DUP3 KECCAK256 ADD PUSH2 0xC1F DUP2 SLOAD PUSH2 0xB4F JUMP JUMPDEST SWAP1 SSTORE DUP8 DUP2 MSTORE PUSH1 0x3 PUSH1 0x20 MSTORE KECCAK256 ADD PUSH2 0xC36 DUP11 DUP3 SLOAD PUSH2 0xB87 JUMP JUMPDEST SWAP1 SSTORE PUSH2 0xC4D PUSH2 0xC45 DUP10 DUP12 PUSH2 0xB87 JUMP JUMPDEST PUSH1 0x6 SLOAD PUSH2 0xB87 JUMP JUMPDEST PUSH1 0x6 SSTORE PUSH1 0x40 MLOAD SWAP1 DUP2 MSTORE DUP9 PUSH1 0x20 DUP3 ADD MSTORE DUP8 PUSH1 0x40 DUP3 ADD MSTORE LOG3 SWAP3 SWAP2 SWAP1 JUMP JUMPDEST POP POP POP SWAP2 POP DUP1 SWAP2 DUP2 SWAP1 JUMP JUMPDEST CALLER PUSH1 0x0 SWAP1 DUP2 MSTORE PUSH32 0x309885961C5C462E01D0F6CB432454EB474F04FA3318496F3172F0DECFA9B437 PUSH1 0x20 MSTORE PUSH1 0x40 SWAP1 KECCAK256 SLOAD PUSH32 0xDB9284895A7211BFD1C970298A1ED435786C5E0CD6EC4810E5F98B0AC05F4634 SWAP1 PUSH1 0xFF AND ISZERO PUSH2 0xCCF JUMPI POP JUMP JUMPDEST PUSH1 0x44 SWAP1 PUSH1 0x40 MLOAD SWAP1 PUSH4 0xE2517D3F PUSH1 0xE0 SHL DUP3 MSTORE CALLER PUSH1 0x4 DUP4 ADD MSTORE PUSH1 0x24 DUP3 ADD MSTORE REVERT JUMPDEST DUP1 PUSH1 0x0 MSTORE PUSH1 0x0 PUSH1 0x20 MSTORE PUSH1 0x40 PUSH1 0x0 KECCAK256 CALLER PUSH1 0x0 MSTORE PUSH1 0x20 MSTORE PUSH1 0xFF PUSH1 0x40 PUSH1 0x0 KECCAK256 SLOAD AND ISZERO PUSH2 0xCCF JUMPI POP JUMP JUMPDEST SWAP1 PUSH1 0x0 SWAP2 DUP1 DUP4 MSTORE DUP3 PUSH1 0x20 MSTORE PUSH1 0x40 DUP4 KECCAK256 SWAP2 PUSH1 0x1 DUP1 PUSH1 0xA0 SHL SUB AND SWAP2 DUP3 DUP5 MSTORE PUSH1 0x20 MSTORE PUSH1 0xFF PUSH1 0x40 DUP5 KECCAK256 SLOAD AND ISZERO PUSH1 0x0 EQ PUSH2 0xD8C JUMPI DUP1 DUP4 MSTORE DUP3 PUSH1 0x20 MSTORE PUSH1 0x40 DUP4 KECCAK256 DUP3 DUP5 MSTORE PUSH1 0x20 MSTORE PUSH1 0x40 DUP4 KECCAK256 PUSH1 0x1 PUSH1 0xFF NOT DUP3 SLOAD AND OR SWAP1 SSTORE PUSH32 0x2F8788117E7EFF1D82E926EC794901D17C78024A50270940304540A733656F0D CALLER SWAP4 DUP1 LOG4 PUSH1 0x1 SWAP1 JUMP JUMPDEST POP POP SWAP1 JUMP JUMPDEST SWAP1 PUSH1 0x0 SWAP2 DUP1 DUP4 MSTORE DUP3 PUSH1 0x20 MSTORE PUSH1 0x40 DUP4 KECCAK256 SWAP2 PUSH1 0x1 DUP1 PUSH1 0xA0 SHL SUB AND SWAP2 DUP3 DUP5 MSTORE PUSH1 0x20 MSTORE PUSH1 0xFF PUSH1 0x40 DUP5 KECCAK256 SLOAD AND PUSH1 0x0 EQ PUSH2 0xD8C JUMPI DUP1 DUP4 MSTORE DUP3 PUSH1 0x20 MSTORE PUSH1 0x40 DUP4 KECCAK256 DUP3 DUP5 MSTORE PUSH1 0x20 MSTORE PUSH1 0x40 DUP4 KECCAK256 PUSH1 0xFF NOT DUP2 SLOAD AND SWAP1 SSTORE PUSH32 0xF6391F5C32D9C69D2A47EA670B442974B53935D1EDC7FD64EB21E047A839171B CALLER SWAP4 DUP1 LOG4 PUSH1 0x1 SWAP1 JUMP INVALID LOG2 PUSH5 0x6970667358 0x22 SLT KECCAK256 BLOBBASEFEE SWAP1 0xBB 0xF7 ADD EQ 0xB6 0xAE 0xEB 0xD7 0xD1 0xC5 DUP11 DUP7 PUSH17 0x9D035B0359633027604529471F6C92A0AA PUSH5 0x736F6C6343 STOP ADDMOD XOR STOP CALLER 0x2F DUP8 DUP9 GT PUSH31 0x7EFF1D82E926EC794901D17C78024A50270940304540A733656F0D00000000 "},"methodIdentifiers":{"authorizeSaleRound(uint256)":"e700ea1c","cancelOperation(bytes32)":"beadf957","createRound((string,uint256,uint256,uint256,uint256,uint256,uint256,bool))":"263f4d95","emergencyPause()":"51858e27","ethUSDOracle()":"706eb3ab","executeOperation(bytes32)":"cbaf2fa7","fundsVault()":"b6cb7f41","getAllRounds()":"e5066bbf","getRound(uint256)":"8f1327c0","getRoundCount()":"6de7da78","kycRegistry()":"4b155b97","nebaToken()":"ac76a908","owner()":"8da5cb5b","pauseRound(uint256)":"1803237a","paused()":"5c975abb","rateLimiter()":"53d4fe33","referralSystem()":"a04e876c","renounceOwnership()":"715018a6","rounds(uint256)":"8c65c81f","scheduleOperation(address,bytes)":"47cd47b6","timelockDelay()":"eef09bad","timelockOperations(bytes32)":"4006d46a","transferOwnership(address)":"f2fde38b","unpause()":"3f4ba83a","unpauseRound(uint256)":"e3d0cc27","updateTimelockDelay(uint256)":"8e52d9d3","usdc()":"3e413bee","usdt()":"2f48ab7d","vestingVault()":"a5917baf"}}}}}