{"src/SaleRound.sol":{"SaleRound":{"abi":[{"inputs":[{"internalType":"address","name":"_manager","type":"address"},{"internalType":"address","name":"_nebaToken","type":"address"},{"internalType":"address","name":"_kycRegistry","type":"address"},{"internalType":"address","name":"_rateLimiter","type":"address"},{"internalType":"address","name":"_vestingVault","type":"address"},{"internalType":"address","name":"_fundsVault","type":"address"},{"internalType":"address","name":"_referralSystem","type":"address"},{"internalType":"address","name":"_usdc","type":"address"},{"internalType":"address","name":"_usdt","type":"address"},{"internalType":"address","name":"_ethUSDOracle","type":"address"},{"components":[{"internalType":"string","name":"name","type":"string"},{"internalType":"uint256","name":"tokenPriceUSD","type":"uint256"},{"internalType":"uint256","name":"hardCapUSD","type":"uint256"},{"internalType":"uint256","name":"startTime","type":"uint256"},{"internalType":"uint256","name":"endTime","type":"uint256"},{"internalType":"uint256","name":"cliffDuration","type":"uint256"},{"internalType":"uint256","name":"vestingDuration","type":"uint256"},{"internalType":"bool","name":"isActive","type":"bool"}],"internalType":"struct SaleRound.RoundConfig","name":"_config","type":"tuple"}],"stateMutability":"nonpayable","type":"constructor"},{"inputs":[],"name":"EnforcedPause","type":"error"},{"inputs":[],"name":"ExpectedPause","type":"error"},{"inputs":[],"name":"ReentrancyGuardReentrantCall","type":"error"},{"inputs":[{"internalType":"address","name":"token","type":"address"}],"name":"SafeERC20FailedOperation","type":"error"},{"anonymous":false,"inputs":[{"components":[{"internalType":"string","name":"name","type":"string"},{"internalType":"uint256","name":"tokenPriceUSD","type":"uint256"},{"internalType":"uint256","name":"hardCapUSD","type":"uint256"},{"internalType":"uint256","name":"startTime","type":"uint256"},{"internalType":"uint256","name":"endTime","type":"uint256"},{"internalType":"uint256","name":"cliffDuration","type":"uint256"},{"internalType":"uint256","name":"vestingDuration","type":"uint256"},{"internalType":"bool","name":"isActive","type":"bool"}],"indexed":false,"internalType":"struct SaleRound.RoundConfig","name":"config","type":"tuple"}],"name":"ConfigUpdated","type":"event"},{"anonymous":false,"inputs":[{"indexed":true,"internalType":"address","name":"oracle","type":"address"}],"name":"OracleUpdated","type":"event"},{"anonymous":false,"inputs":[{"indexed":false,"internalType":"address","name":"account","type":"address"}],"name":"Paused","type":"event"},{"anonymous":false,"inputs":[{"indexed":true,"internalType":"address","name":"buyer","type":"address"},{"indexed":true,"internalType":"address","name":"paymentToken","type":"address"},{"indexed":false,"internalType":"uint256","name":"paymentAmount","type":"uint256"},{"indexed":false,"internalType":"uint256","name":"usdValue","type":"uint256"},{"indexed":false,"internalType":"uint256","name":"tokenAmount","type":"uint256"}],"name":"Purchase","type":"event"},{"anonymous":false,"inputs":[{"indexed":true,"internalType":"address","name":"referee","type":"address"},{"indexed":true,"internalType":"address","name":"referrer","type":"address"},{"indexed":false,"internalType":"uint256","name":"referrerBonus","type":"uint256"},{"indexed":false,"internalType":"uint256","name":"refereeBonus","type":"uint256"}],"name":"ReferralBonusDistributed","type":"event"},{"anonymous":false,"inputs":[{"indexed":false,"internalType":"address","name":"account","type":"address"}],"name":"Unpaused","type":"event"},{"inputs":[{"internalType":"address","name":"","type":"address"}],"name":"bonusTokens","outputs":[{"internalType":"uint256","name":"","type":"uint256"}],"stateMutability":"view","type":"function"},{"inputs":[{"internalType":"address","name":"referrer","type":"address"}],"name":"buyWithETH","outputs":[],"stateMutability":"payable","type":"function"},{"inputs":[{"internalType":"uint256","name":"usdcAmount","type":"uint256"},{"internalType":"address","name":"referrer","type":"address"}],"name":"buyWithUSDC","outputs":[],"stateMutability":"nonpayable","type":"function"},{"inputs":[{"internalType":"uint256","name":"usdtAmount","type":"uint256"},{"internalType":"address","name":"referrer","type":"address"}],"name":"buyWithUSDT","outputs":[],"stateMutability":"nonpayable","type":"function"},{"inputs":[],"name":"config","outputs":[{"internalType":"string","name":"name","type":"string"},{"internalType":"uint256","name":"tokenPriceUSD","type":"uint256"},{"internalType":"uint256","name":"hardCapUSD","type":"uint256"},{"internalType":"uint256","name":"startTime","type":"uint256"},{"internalType":"uint256","name":"endTime","type":"uint256"},{"internalType":"uint256","name":"cliffDuration","type":"uint256"},{"internalType":"uint256","name":"vestingDuration","type":"uint256"},{"internalType":"bool","name":"isActive","type":"bool"}],"stateMutability":"view","type":"function"},{"inputs":[{"internalType":"address","name":"","type":"address"}],"name":"contributions","outputs":[{"internalType":"uint256","name":"","type":"uint256"}],"stateMutability":"view","type":"function"},{"inputs":[],"name":"ethUSDOracle","outputs":[{"internalType":"address","name":"","type":"address"}],"stateMutability":"view","type":"function"},{"inputs":[],"name":"fundsVault","outputs":[{"internalType":"contract IFundsVault","name":"","type":"address"}],"stateMutability":"view","type":"function"},{"inputs":[{"internalType":"address","name":"user","type":"address"}],"name":"getReferralInfo","outputs":[{"internalType":"address","name":"referrer","type":"address"},{"internalType":"bool","name":"hasReferrer","type":"bool"}],"stateMutability":"view","type":"function"},{"inputs":[],"name":"getRoundInfo","outputs":[{"components":[{"internalType":"string","name":"name","type":"string"},{"internalType":"uint256","name":"tokenPriceUSD","type":"uint256"},{"internalType":"uint256","name":"hardCapUSD","type":"uint256"},{"internalType":"uint256","name":"startTime","type":"uint256"},{"internalType":"uint256","name":"endTime","type":"uint256"},{"internalType":"uint256","name":"cliffDuration","type":"uint256"},{"internalType":"uint256","name":"vestingDuration","type":"uint256"},{"internalType":"bool","name":"isActive","type":"bool"}],"internalType":"struct SaleRound.RoundConfig","name":"","type":"tuple"}],"stateMutability":"view","type":"function"},{"inputs":[{"internalType":"address","name":"user","type":"address"}],"name":"getUserInfo","outputs":[{"internalType":"uint256","name":"contribution","type":"uint256"},{"internalType":"uint256","name":"allocation","type":"uint256"},{"internalType":"uint256","name":"bonus","type":"uint256"}],"stateMutability":"view","type":"function"},{"inputs":[],"name":"kycRegistry","outputs":[{"internalType":"contract IKYCRegistry","name":"","type":"address"}],"stateMutability":"view","type":"function"},{"inputs":[],"name":"manager","outputs":[{"internalType":"address","name":"","type":"address"}],"stateMutability":"view","type":"function"},{"inputs":[],"name":"nebaToken","outputs":[{"internalType":"contract IERC20","name":"","type":"address"}],"stateMutability":"view","type":"function"},{"inputs":[],"name":"pause","outputs":[],"stateMutability":"nonpayable","type":"function"},{"inputs":[],"name":"paused","outputs":[{"internalType":"bool","name":"","type":"bool"}],"stateMutability":"view","type":"function"},{"inputs":[],"name":"rateLimiter","outputs":[{"internalType":"contract IRateLimiter","name":"","type":"address"}],"stateMutability":"view","type":"function"},{"inputs":[],"name":"referralSystem","outputs":[{"internalType":"contract ReferralSystem","name":"","type":"address"}],"stateMutability":"view","type":"function"},{"inputs":[{"internalType":"address","name":"","type":"address"}],"name":"tokenAllocations","outputs":[{"internalType":"uint256","name":"","type":"uint256"}],"stateMutability":"view","type":"function"},{"inputs":[],"name":"totalRaisedUSD","outputs":[{"internalType":"uint256","name":"","type":"uint256"}],"stateMutability":"view","type":"function"},{"inputs":[],"name":"totalTokensSold","outputs":[{"internalType":"uint256","name":"","type":"uint256"}],"stateMutability":"view","type":"function"},{"inputs":[],"name":"unpause","outputs":[],"stateMutability":"nonpayable","type":"function"},{"inputs":[{"components":[{"internalType":"string","name":"name","type":"string"},{"internalType":"uint256","name":"tokenPriceUSD","type":"uint256"},{"internalType":"uint256","name":"hardCapUSD","type":"uint256"},{"internalType":"uint256","name":"startTime","type":"uint256"},{"internalType":"uint256","name":"endTime","type":"uint256"},{"internalType":"uint256","name":"cliffDuration","type":"uint256"},{"internalType":"uint256","name":"vestingDuration","type":"uint256"},{"internalType":"bool","name":"isActive","type":"bool"}],"internalType":"struct SaleRound.RoundConfig","name":"_config","type":"tuple"}],"name":"updateConfig","outputs":[],"stateMutability":"nonpayable","type":"function"},{"inputs":[{"internalType":"address","name":"_oracle","type":"address"}],"name":"updateOracle","outputs":[],"stateMutability":"nonpayable","type":"function"},{"inputs":[],"name":"usdc","outputs":[{"internalType":"contract IERC20","name":"","type":"address"}],"stateMutability":"view","type":"function"},{"inputs":[],"name":"usdt","outputs":[{"internalType":"contract IERC20","name":"","type":"address"}],"stateMutability":"view","type":"function"},{"inputs":[],"name":"vestingVault","outputs":[{"internalType":"contract IVestingVault","name":"","type":"address"}],"stateMutability":"view","type":"function"}],"evm":{"bytecode":{"linkReferences":{},"object":"6101c0604052346200086c5762002cea803803806200001e816200088b565b9283396101608282810103126200086c576200003a82620008b1565b6200004860208401620008b1565b6200005660408501620008b1565b6200006460608601620008b1565b6200007260808701620008b1565b906200008160a08801620008b1565b926200009060c08901620008b1565b946200009f60e08a01620008b1565b96620000af6101008b01620008b1565b98620000bf6101208c01620008b1565b6101408c0151909b90916001600160401b0383116200086c5761010083830182840103126200086c576040516101a081905261010081019081106001600160401b03821117620005a457604052818301516001600160401b0381116200086c57818301601f82868601010112156200086c57828401810151906001600160401b038211620005a4576200015c601f8301601f19166020016200088b565b92828452840160208383888801010101116200086c5760005b82811062000871575050906000602060e0959493830101526101a051526020828201015160206101a05101526040828201015160406101a05101526060828201015160606101a05101526080828201015160806101a051015260a0828201015160a06101a051015260c0828201015160c06101a051015201015180151581036200086c576101a05160e0015260016000556001600160a01b0381161562000827576001600160a01b03821615620007e2576001600160a01b038316156200079d576001600160a01b0384161562000758576001600160a01b0385161562000713576001600160a01b03861615620006ce576001600160a01b0387161562000689576001600160a01b0388161562000644576001600160a01b03891615620005ff576001600160a01b038a1615620005ba576080526001600160a01b0390811660a05290811660c05290811660e0529081166101005290811661012052908116610140529081166101605290811661018052600a80546001600160a01b031916929091169190911790556101a0515180516001600160401b038111620005a457600254600181811c9116801562000599575b60208210146200058357601f811162000519575b50602091601f8211600114620004af57918192600092620004a3575b50508160011b916000199060031b1c1916176002555b60206101a051015160035560406101a051015160045560606101a051015160055560806101a051015160065560a06101a051015160075560c06101a051015160085560e06101a0510151151560ff8019600954169116176009556040516124239081620008c78239608051818181610619015281816108390152818161111401528181611366015261155b015260a051816103c0015260c0518181816107f50152611d1b015260e0518181816107b10152611d5501526101005181818161040401528181610a6301528181610cd201528181611f2f015261212f0152610120518181816102650152818161037c0152610b2501526101405181818161044801528181610bc60152818161125901526120130152610160518181816104f801526111a701526101805181818161020f01526111eb0152f35b01519050388062000356565b601f19821692600260005260206000209160005b8581106200050057508360019510620004e6575b505050811b016002556200036c565b015160001960f88460031b161c19169055388080620004d7565b91926020600181928685015181550194019201620004c3565b60026000527f405787fa12a823e0f2b7631cc41b3ba8828b3321ca811111fa75cd3aa3bb5ace601f830160051c8101916020841062000578575b601f0160051c01905b8181106200056b57506200033a565b600081556001016200055c565b909150819062000553565b634e487b7160e01b600052602260045260246000fd5b90607f169062000326565b634e487b7160e01b600052604160045260246000fd5b60405162461bcd60e51b815260206004820152601660248201527f53616c65526f756e643a207a65726f206f7261636c65000000000000000000006044820152606490fd5b60405162461bcd60e51b815260206004820152601460248201527f53616c65526f756e643a207a65726f20757364740000000000000000000000006044820152606490fd5b60405162461bcd60e51b815260206004820152601460248201527f53616c65526f756e643a207a65726f20757364630000000000000000000000006044820152606490fd5b60405162461bcd60e51b815260206004820152601860248201527f53616c65526f756e643a207a65726f20726566657272616c00000000000000006044820152606490fd5b60405162461bcd60e51b815260206004820152601560248201527f53616c65526f756e643a207a65726f2066756e647300000000000000000000006044820152606490fd5b60405162461bcd60e51b815260206004820152601760248201527f53616c65526f756e643a207a65726f2076657374696e670000000000000000006044820152606490fd5b60405162461bcd60e51b815260206004820152601760248201527f53616c65526f756e643a207a65726f206c696d697465720000000000000000006044820152606490fd5b60405162461bcd60e51b815260206004820152601360248201527f53616c65526f756e643a207a65726f206b7963000000000000000000000000006044820152606490fd5b60405162461bcd60e51b815260206004820152601560248201527f53616c65526f756e643a207a65726f20746f6b656e00000000000000000000006044820152606490fd5b60405162461bcd60e51b815260206004820152601760248201527f53616c65526f756e643a207a65726f206d616e616765720000000000000000006044820152606490fd5b600080fd5b806020809284898901010101518282870101520162000175565b6040519190601f01601f191682016001600160401b03811183821017620005a457604052565b51906001600160a01b03821682036200086c5756fe60806040908082526004908136101561001757600080fd5b600091823560e01c91826307b6859a1461146a575081630b6d621c146114325781631252af75146114135781631cb44dfc1461133b57816321874ae21461121a5781632f48ab7d146111d65781633e413bee146111925781633f4ba83a146110fb57816342e94c90146110c3578163444aa92f1461086857918093928263481c6a75146108245782634b155b97146107e057826353d4fe331461079c5782635c975abb146107785782636386c1c71461072057826363b2011714610701578263706eb3ab146106d857826379502c55146106635782638456cb59146105dc57826384bc76a61461052f5782638c28c31a14610477578263a04e876c14610433578263a5917baf146103ef578263ac76a908146103ab578263b6cb7f4114610367578263d095362f1461018e57505063ff5bc5a61461015457600080fd5b3461018a57602036600319011261018a5760209181906001600160a01b0361017a6118f5565b168152600f845220549051908152f35b5080fd5b915091346103635780600319360112610363578135916101ac611910565b926101b5611c9d565b6101bd611cc0565b6101cb60ff60095416611b89565b6101d9600554421015611bcd565b6101e7600654421115611c12565b6101f5600b54835411611c51565b6101ff8133611cf5565b61020881611e35565b9361024f827f000000000000000000000000000000000000000000000000000000000000000061024660018060a01b03948583169984808c33611e96565b3090339061234e565b835163095ea7b360e01b81526001600160a01b037f0000000000000000000000000000000000000000000000000000000000000000929092169182168482019081526020818101859052908290819060400103818a8a5af180156103595761032a575b50803b156103265783516319c5aef560e11b81526001600160a01b039095169285019283526020830191909152849184919082908490829060400103925af190811561031d5750610306575b506001905580f35b61030f906118a3565b61031a5780386102fe565b80fd5b513d84823e3d90fd5b8580fd5b61034b9060203d602011610352575b61034381836118b7565b810190611b71565b50386102b2565b503d610339565b85513d89823e3d90fd5b5050fd5b50823461018a578160031936011261018a57517f00000000000000000000000000000000000000000000000000000000000000006001600160a01b03168152602090f35b50823461018a578160031936011261018a57517f00000000000000000000000000000000000000000000000000000000000000006001600160a01b03168152602090f35b50823461018a578160031936011261018a57517f00000000000000000000000000000000000000000000000000000000000000006001600160a01b03168152602090f35b50823461018a578160031936011261018a57517f00000000000000000000000000000000000000000000000000000000000000006001600160a01b03168152602090f35b91509134610363578060031936011261036357813591610495611910565b9261049e611c9d565b6104a6611cc0565b6104b460ff60095416611b89565b6104c2600554421015611bcd565b6104d0600654421115611c12565b6104de600b54835411611c51565b6104e88133611cf5565b6104f181611e35565b9361024f827f000000000000000000000000000000000000000000000000000000000000000061024660018060a01b03948583169984808c33611e96565b83346105d857826003193601126105d8576105d49260e0825161055181611870565b6060815282602082015282848201528260608201528260808201528260a08201528260c0820152015280519161058683611870565b61058e611960565b8352600354602084015254818301526005546060830152600654608083015260075460a083015260085460c083015260ff60095416151560e08301525191829182611a66565b0390f35b8280fd5b50823461018a578160031936011261018a577f62e78cea01bee320cd4e420270b5ea74000d11b0c9f74754ebdbfc544b05a25890602090610647337f00000000000000000000000000000000000000000000000000000000000000006001600160a01b031614611acc565b61064f611cc0565b600160ff198154161760015551338152a180f35b8390346105d857826003193601126105d8576106b09250610682611960565b916003549154600554600654600754916008549360ff60095416958051998a99610100808c528b0190611a26565b9760208a01528801526060870152608086015260a085015260c0840152151560e08301520390f35b50823461018a578160031936011261018a57600a5490516001600160a01b039091168152602090f35b50823461018a578160031936011261018a57602090600c549051908152f35b50823461018a57602036600319011261018a576001600160a01b036107436118f5565b168252600d602090815281832054600e825282842054600f835293839020549251908152908101929092526040820152606090f35b50823461018a578160031936011261018a5760209060ff6001541690519015158152f35b50823461018a578160031936011261018a57517f00000000000000000000000000000000000000000000000000000000000000006001600160a01b03168152602090f35b50823461018a578160031936011261018a57517f00000000000000000000000000000000000000000000000000000000000000006001600160a01b03168152602090f35b50823461018a578160031936011261018a57517f00000000000000000000000000000000000000000000000000000000000000006001600160a01b03168152602090f35b9050602092836003193601126105d8576108806118f5565b93610889611c9d565b610891611cc0565b61089f60ff60095416611b89565b6108ad600554421015611bcd565b6108bb600654421115611c12565b6108c9600b54845411611c51565b341561108c57600a548251633fabe5a360e21b8184019081528582526001600160a01b03939284169180860167ffffffffffffffff8111828210176110795786525187928392905afa3d15611071573d90610923826118d9565b91610930865193846118b7565b82523d878484013e5b1561102e5760a08180518101031261032657610956828201611cde565b90848101519161096d60a060808401519301611cde565b91610979898513611b11565b8015610feb574203428111610fd857610e1010610f955769ffffffffffffffffffff809116911610610f525764174876e80081101580610f43575b15610f0057606490048034029034820403610eed57670de0b6b3a764000090046109de8133611cf5565b6109e781611e35565b86926109f583600b54611e89565b875410610eab57338852600d8152858820610a11848254611e89565b9055338852600e8152858820610a28838254611e89565b9055610a3683600b54611e89565b600b55610a4582600c54611e89565b600c558482991680151580610ea1575b610bb3575b505060065497847f00000000000000000000000000000000000000000000000000000000000000001660075460085492823b15610baf5788516375591d5f60e11b815233818c01908152602081019290925260408201929092526060810193909352608083019a909a5284918a919082908490829060a00103925af1978815610ba557879897959697610b85575b5085513481526020810192909252604082015233907f8f7a55179307cea51948432d653dbd53a23fedc388bcb3e04e311f8220d8786490606090a37f000000000000000000000000000000000000000000000000000000000000000016803b1561018a57825163f6326fb360e01b8152938491829034905af190811561031d5750610b76575b506001815580f35b610b7f906118a3565b38610b6e565b83949550610b9690939192936118a3565b6105d857908693929138610ae8565b85513d85823e3d90fd5b8680fd5b8651630308a59b60e31b815233898201527f0000000000000000000000000000000000000000000000000000000000000000871691908381602481865afa908115610e975790859392918c91610e7a575b5015610e13575b50875163d8abfee560e01b815233818b019081526020810193909352929160609184918290899082906040015b03925af1918215610e0957859286918791610dbe575b508784169283610c61575b505050610a5a565b90919280949c508752600e8152888720610c7c848254611e89565b9055838752600f8152888720610c93848254611e89565b9055338752600f8152888720610caa838254611e89565b9055610cc1610cb98385611e89565b600c54611e89565b600c55610cce8286611e89565b9b887f0000000000000000000000000000000000000000000000000000000000000000166007549160085460065490833b15610dba57918b8f8f8296948b96610d519251998a98899788966375591d5f60e11b885287019192608093969594919660a084019760018060a01b031684526020840152604083015260608201520152565b03925af18015610db057908891610d9c575b505088519283528201527f8a888a9ac1098c12b38ade27d5d5b51ce092d9271475e3024a084bfc73fd5798873392a33880808080610c59565b610da5906118a3565b610baf578638610d63565b8a513d8a823e3d90fd5b8b80fd5b935050506060823d606011610e01575b81610ddb606093836118b7565b81010312610dfd57610dec82611b5d565b878284015193015190929038610c4e565b8480fd5b3d9150610dce565b87513d87823e3d90fd5b908092503b15610e7657875190635603b9f960e01b8252338a8301526024820152898160448183865af18015610e6c57610e50575b908391610c0b565b610c3892919550610e60906118a3565b88949091506060610e48565b88513d8c823e3d90fd5b8980fd5b610e919150853d87116103525761034381836118b7565b38610c04565b89513d8d823e3d90fd5b5033811415610a55565b8660649187519162461bcd60e51b8352820152601b60248201527f53616c65526f756e643a206578636565647320686172642063617000000000006044820152fd5b634e487b7160e01b865260118552602486fd5b835162461bcd60e51b8152808601839052601e60248201527f53616c65526f756e643a207072696365206f7574206f6620626f756e647300006044820152606490fd5b5064e8d4a510008111156109b4565b835162461bcd60e51b8152808601839052601b60248201527f53616c65526f756e643a207374616c6520726f756e64206461746100000000006044820152606490fd5b855162461bcd60e51b8152808801859052601b60248201527f53616c65526f756e643a207374616c65207072696365206461746100000000006044820152606490fd5b634e487b7160e01b895260118852602489fd5b865162461bcd60e51b8152808901869052601c60248201527f53616c65526f756e643a20696e76616c69642074696d657374616d70000000006044820152606490fd5b835162461bcd60e51b8152808601839052601d60248201527f53616c65526f756e643a206f7261636c652063616c6c206661696c65640000006044820152606490fd5b606090610939565b634e487b7160e01b895260418852602489fd5b905162461bcd60e51b81529182015260136024820152720a6c2d8caa4deeadcc87440f4cae4de408aa89606b1b6044820152606490fd5b82843461018a57602036600319011261018a5760209181906001600160a01b036110eb6118f5565b168152600d845220549051908152f35b839150346105d857826003193601126105d857611142337f00000000000000000000000000000000000000000000000000000000000000006001600160a01b031614611acc565b6001549060ff821615611184575060ff1916600155513381527f5db9ee0a495bf2e6ff9c91a7834c1ba4fdd244a5e8aa4e537bd38aeae4b073aa90602090a180f35b8251638dfc202b60e01b8152fd5b82843461018a578160031936011261018a57517f00000000000000000000000000000000000000000000000000000000000000006001600160a01b03168152602090f35b82843461018a578160031936011261018a57517f00000000000000000000000000000000000000000000000000000000000000006001600160a01b03168152602090f35b9190503461031a576020908160031936011261031a576112386118f5565b8451634a9fefc760e01b81526001600160a01b0391821681860181905290947f0000000000000000000000000000000000000000000000000000000000000000831691908587602481865afa9687156113315785976112f4575b50906024869289519485938492630308a59b60e31b84528301525afa9283156112e957926112ca575b50845193168352151590820152f35b6112e2919250833d85116103525761034381836118b7565b90386112bb565b8651903d90823e3d90fd5b9096508581813d831161132a575b61130c81836118b7565b81010312610dfd579060246113218793611b5d565b97919250611292565b503d611302565b88513d87823e3d90fd5b839150346105d85760203660031901126105d8576113576118f5565b6001600160a01b039061138d337f0000000000000000000000000000000000000000000000000000000000000000841614611acc565b169182156113d0575050600a80546001600160a01b031916821790557f3df77beb5db05fcdd70a30fc8adf3f83f9501b68579455adbd100b81809403948280a280f35b906020606492519162461bcd60e51b8352820152601760248201527f53616c65526f756e643a207a65726f20616464726573730000000000000000006044820152fd5b82843461018a578160031936011261018a57602090600b549051908152f35b82843461018a57602036600319011261018a5760209181906001600160a01b0361145a6118f5565b168152600e845220549051908152f35b8484923461186c5760031990602036830181136103265781359267ffffffffffffffff9081851161186857610100908536030112610baf576114ab86611870565b8383013581811161186857840192366023850112156118685780840135886024956114d5836118d9565b926114e28a5194856118b7565b808452368882840101116105d857808888930183860137830101528752828701848601358152868801906044870135825260608901936064880135855260808a01956084890135875260a08b019760a48a0135895260e460c08d019a60c48101358c52013580151581036118645760e08d0152611589337f00000000000000000000000000000000000000000000000000000000000000006001600160a01b031614611acc565b61159584511515611b11565b845115611823578751875110156117e25789518951116117a1578b5190815193841161179057506115c7600254611926565b8d601f821161172a575b9050508c82601f85116001146116775750927fca5e88616919440603f1ae53082dab032daf45557362fafd80a4852bd6cdad859c9a9896949281926116669d9b9997959261166c575b50508160011b916000199060031b1c1916176002555b516003555190555160055551600655516007555160085560e0820151151560ff8019600954169116176009555191829182611a66565b0390a180f35b015190508e8061161a565b600282527f405787fa12a823e0f2b7631cc41b3ba8828b3321ca811111fa75cd3aa3bb5ace939291601f198616915b8282106117125750509260019285927fca5e88616919440603f1ae53082dab032daf45557362fafd80a4852bd6cdad859f9d9b999795966116669f9d9b9997106116f9575b505050811b01600255611630565b015160001960f88460031b161c191690558e80806116eb565b806001869782949787015181550196019401906116a6565b600290527f405787fa12a823e0f2b7631cc41b3ba8828b3321ca811111fa75cd3aa3bb5ace601f850160051c810191848610611786575b601f0160051c01908e905b82811061177957506115d1565b6001918155018e9061176c565b9091508190611761565b634e487b7160e01b8e52604187528dfd5b601a86916064938d519362461bcd60e51b85528401528201527f53616c65526f756e643a20696e76616c69642076657374696e670000000000006044820152fd5b601d86916064938d519362461bcd60e51b85528401528201527f53616c65526f756e643a20696e76616c69642074696d652072616e67650000006044820152fd5b601b86916064938d519362461bcd60e51b85528401528201527f53616c65526f756e643a20696e76616c696420686172642063617000000000006044820152fd5b8d80fd5b8780fd5b8380fd5b610100810190811067ffffffffffffffff82111761188d57604052565b634e487b7160e01b600052604160045260246000fd5b67ffffffffffffffff811161188d57604052565b90601f8019910116810190811067ffffffffffffffff82111761188d57604052565b67ffffffffffffffff811161188d57601f01601f191660200190565b600435906001600160a01b038216820361190b57565b600080fd5b602435906001600160a01b038216820361190b57565b90600182811c92168015611956575b602083101461194057565b634e487b7160e01b600052602260045260246000fd5b91607f1691611935565b604051906000826002549161197483611926565b80835292602090600190818116908115611a0257506001146119a1575b505061199f925003836118b7565b565b91509260026000527f405787fa12a823e0f2b7631cc41b3ba8828b3321ca811111fa75cd3aa3bb5ace936000925b8284106119ea575061199f9450505081016020013880611991565b855488850183015294850194879450928101926119cf565b9150506020925061199f94915060ff191682840152151560051b8201013880611991565b919082519283825260005b848110611a52575050826000602080949584010152601f8019910116010190565b602081830181015184830182015201611a31565b60208152815160e0611a8661010092836020860152610120850190611a26565b93602081015160408501526040810151606085015260608101516080850152608081015160a085015260a081015160c085015260c0810151828501520151151591015290565b15611ad357565b60405162461bcd60e51b815260206004820152601660248201527529b0b632a937bab7321d103737ba1036b0b730b3b2b960511b6044820152606490fd5b15611b1857565b60405162461bcd60e51b815260206004820152601860248201527f53616c65526f756e643a20696e76616c696420707269636500000000000000006044820152606490fd5b51906001600160a01b038216820361190b57565b9081602091031261190b5751801515810361190b5790565b15611b9057565b60405162461bcd60e51b815260206004820152601560248201527453616c65526f756e643a206e6f742061637469766560581b6044820152606490fd5b15611bd457565b60405162461bcd60e51b815260206004820152601660248201527514d85b19549bdd5b990e881b9bdd081cdd185c9d195960521b6044820152606490fd5b15611c1957565b60405162461bcd60e51b815260206004820152601060248201526f14d85b19549bdd5b990e88195b99195960821b6044820152606490fd5b15611c5857565b60405162461bcd60e51b815260206004820152601b60248201527f53616c65526f756e643a206861726420636170207265616368656400000000006044820152606490fd5b600260005414611cae576002600055565b604051633ee5aeb560e01b8152600490fd5b60ff60015416611ccc57565b60405163d93c066560e01b8152600490fd5b519069ffffffffffffffffffff8216820361190b57565b6040516373bed91960e11b81526001600160a01b038281166004830152906020816024817f000000000000000000000000000000000000000000000000000000000000000086165afa908115611dc557600091611e16575b5015611dd1577f00000000000000000000000000000000000000000000000000000000000000001691823b1561190b576040516338d7278960e21b81526001600160a01b039290921660048301526024820152906000908290604490829084905af18015611dc557611dbc5750565b61199f906118a3565b6040513d6000823e3d90fd5b60405162461bcd60e51b815260206004820152601b60248201527f53616c65526f756e643a206e6f74204b594320617070726f76656400000000006044820152606490fd5b611e2f915060203d6020116103525761034381836118b7565b38611d4d565b670de0b6b3a764000090818102918183041490151715611e7357600354908115611e5d570490565b634e487b7160e01b600052601260045260246000fd5b634e487b7160e01b600052601160045260246000fd5b91908201809211611e7357565b929493909194600b54611eab82600092611e89565b9060049182541061230a5760018060a01b039586811697888352602093600d8552604094858520611edd888254611e89565b90558a8552600e8152858520611ef4898254611e89565b9055611f0287600b54611e89565b600b55611f1188600c54611e89565b600c558988931680151580612300575b612010575b505060065492897f0000000000000000000000000000000000000000000000000000000000000000169160075494600854843b156118685788516375591d5f60e11b81526001600160a01b039094169284019283526020830195909552604082019590955260608101939093526080830193909352839183919082908490829060a00103925af1801561200657611ff2575b5050519586526020860152604085015216917f8f7a55179307cea51948432d653dbd53a23fedc388bcb3e04e311f8220d8786490606090a3565b611ffc82916118a3565b61031a5780611fb8565b83513d84823e3d90fd5b8a7f000000000000000000000000000000000000000000000000000000000000000016908751630308a59b60e31b81528d858201528381602481865afa9081156122f65790889493929185916122d9575b5015612274575b50875163d8abfee560e01b81526001600160a01b038716858201908152602081018c9052909360609285929091839182906040015b03925af190811561226a57869287908893612222575b508c841692836120c6575b505050611f26565b909192809496508852600e83528888206120e1838254611e89565b9055838852600f83528888206120f8838254611e89565b90558d8852600f835288882061210f828254611e89565b905561211e610cb98284611e89565b600c5561212b818c611e89565b958d7f0000000000000000000000000000000000000000000000000000000000000000166007549160085460065490833b1561221e578d516375591d5f60e11b81526001600160a01b03909316838b0190815260208101889052604081019590955260608501526080840152918a91839182908490829060a00103925af1801561221457918f93918a908c946121f4575b50507f8a888a9ac1098c12b38ade27d5d5b51ce092d9271475e3024a084bfc73fd579893948351928352820152a338808080806120be565b90929593506122049194506118a3565b611868579188908e9289386121bc565b8a513d8b823e3d90fd5b8c80fd5b93505090506060823d606011612262575b81612240606093836118b7565b810103126103265761225182611b5d565b9087818401519301519192386120b3565b3d9150612233565b87513d88823e3d90fd5b90809293503b15610baf57875190635603b9f960e01b82528d858301526024820152868160448183865af180156122cf576122b3575b90869291612068565b61209d966122c56060929493946118a3565b96509190916122aa565b88513d89823e3d90fd5b6122f09150843d86116103525761034381836118b7565b38612061565b89513d8a823e3d90fd5b508b811415611f21565b60405162461bcd60e51b8152602081840152601b60248201527f53616c65526f756e643a206578636565647320686172642063617000000000006044820152606490fd5b6040516323b872dd60e01b602082019081526001600160a01b039384166024830152938316604482015260648082019590955293845292909160a082019067ffffffffffffffff82118383101761188d57602092600092604052519082865af115611dc5576000513d6123e457508082163b155b6123ca575050565b604051635274afe760e01b81529116600482015260249150fd5b600114156123c256fea264697066735822122046f52b2a82b3fb3428d39b7f10add121ecb54aaeb7163bce28d7274e3d2c391764736f6c63430008180033","opcodes":"PUSH2 0x1C0 PUSH1 0x40 MSTORE CALLVALUE PUSH3 0x86C JUMPI PUSH3 0x2CEA DUP1 CODESIZE SUB DUP1 PUSH3 0x1E DUP2 PUSH3 0x88B JUMP JUMPDEST SWAP3 DUP4 CODECOPY PUSH2 0x160 DUP3 DUP3 DUP2 ADD SUB SLT PUSH3 0x86C JUMPI PUSH3 0x3A DUP3 PUSH3 0x8B1 JUMP JUMPDEST PUSH3 0x48 PUSH1 0x20 DUP5 ADD PUSH3 0x8B1 JUMP JUMPDEST PUSH3 0x56 PUSH1 0x40 DUP6 ADD PUSH3 0x8B1 JUMP JUMPDEST PUSH3 0x64 PUSH1 0x60 DUP7 ADD PUSH3 0x8B1 JUMP JUMPDEST PUSH3 0x72 PUSH1 0x80 DUP8 ADD PUSH3 0x8B1 JUMP JUMPDEST SWAP1 PUSH3 0x81 PUSH1 0xA0 DUP9 ADD PUSH3 0x8B1 JUMP JUMPDEST SWAP3 PUSH3 0x90 PUSH1 0xC0 DUP10 ADD PUSH3 0x8B1 JUMP JUMPDEST SWAP5 PUSH3 0x9F PUSH1 0xE0 DUP11 ADD PUSH3 0x8B1 JUMP JUMPDEST SWAP7 PUSH3 0xAF PUSH2 0x100 DUP12 ADD PUSH3 0x8B1 JUMP JUMPDEST SWAP9 PUSH3 0xBF PUSH2 0x120 DUP13 ADD PUSH3 0x8B1 JUMP JUMPDEST PUSH2 0x140 DUP13 ADD MLOAD SWAP1 SWAP12 SWAP1 SWAP2 PUSH1 0x1 PUSH1 0x1 PUSH1 0x40 SHL SUB DUP4 GT PUSH3 0x86C JUMPI PUSH2 0x100 DUP4 DUP4 ADD DUP3 DUP5 ADD SUB SLT PUSH3 0x86C JUMPI PUSH1 0x40 MLOAD PUSH2 0x1A0 DUP2 SWAP1 MSTORE PUSH2 0x100 DUP2 ADD SWAP1 DUP2 LT PUSH1 0x1 PUSH1 0x1 PUSH1 0x40 SHL SUB DUP3 GT OR PUSH3 0x5A4 JUMPI PUSH1 0x40 MSTORE DUP2 DUP4 ADD MLOAD PUSH1 0x1 PUSH1 0x1 PUSH1 0x40 SHL SUB DUP2 GT PUSH3 0x86C JUMPI DUP2 DUP4 ADD PUSH1 0x1F DUP3 DUP7 DUP7 ADD ADD ADD SLT ISZERO PUSH3 0x86C JUMPI DUP3 DUP5 ADD DUP2 ADD MLOAD SWAP1 PUSH1 0x1 PUSH1 0x1 PUSH1 0x40 SHL SUB DUP3 GT PUSH3 0x5A4 JUMPI PUSH3 0x15C PUSH1 0x1F DUP4 ADD PUSH1 0x1F NOT AND PUSH1 0x20 ADD PUSH3 0x88B JUMP JUMPDEST SWAP3 DUP3 DUP5 MSTORE DUP5 ADD PUSH1 0x20 DUP4 DUP4 DUP9 DUP9 ADD ADD ADD ADD GT PUSH3 0x86C JUMPI PUSH1 0x0 JUMPDEST DUP3 DUP2 LT PUSH3 0x871 JUMPI POP POP SWAP1 PUSH1 0x0 PUSH1 0x20 PUSH1 0xE0 SWAP6 SWAP5 SWAP4 DUP4 ADD ADD MSTORE PUSH2 0x1A0 MLOAD MSTORE PUSH1 0x20 DUP3 DUP3 ADD ADD MLOAD PUSH1 0x20 PUSH2 0x1A0 MLOAD ADD MSTORE PUSH1 0x40 DUP3 DUP3 ADD ADD MLOAD PUSH1 0x40 PUSH2 0x1A0 MLOAD ADD MSTORE PUSH1 0x60 DUP3 DUP3 ADD ADD MLOAD PUSH1 0x60 PUSH2 0x1A0 MLOAD ADD MSTORE PUSH1 0x80 DUP3 DUP3 ADD ADD MLOAD PUSH1 0x80 PUSH2 0x1A0 MLOAD ADD MSTORE PUSH1 0xA0 DUP3 DUP3 ADD ADD MLOAD PUSH1 0xA0 PUSH2 0x1A0 MLOAD ADD MSTORE PUSH1 0xC0 DUP3 DUP3 ADD ADD MLOAD PUSH1 0xC0 PUSH2 0x1A0 MLOAD ADD MSTORE ADD ADD MLOAD DUP1 ISZERO ISZERO DUP2 SUB PUSH3 0x86C JUMPI PUSH2 0x1A0 MLOAD PUSH1 0xE0 ADD MSTORE PUSH1 0x1 PUSH1 0x0 SSTORE PUSH1 0x1 PUSH1 0x1 PUSH1 0xA0 SHL SUB DUP2 AND ISZERO PUSH3 0x827 JUMPI PUSH1 0x1 PUSH1 0x1 PUSH1 0xA0 SHL SUB DUP3 AND ISZERO PUSH3 0x7E2 JUMPI PUSH1 0x1 PUSH1 0x1 PUSH1 0xA0 SHL SUB DUP4 AND ISZERO PUSH3 0x79D JUMPI PUSH1 0x1 PUSH1 0x1 PUSH1 0xA0 SHL SUB DUP5 AND ISZERO PUSH3 0x758 JUMPI PUSH1 0x1 PUSH1 0x1 PUSH1 0xA0 SHL SUB DUP6 AND ISZERO PUSH3 0x713 JUMPI PUSH1 0x1 PUSH1 0x1 PUSH1 0xA0 SHL SUB DUP7 AND ISZERO PUSH3 0x6CE JUMPI PUSH1 0x1 PUSH1 0x1 PUSH1 0xA0 SHL SUB DUP8 AND ISZERO PUSH3 0x689 JUMPI PUSH1 0x1 PUSH1 0x1 PUSH1 0xA0 SHL SUB DUP9 AND ISZERO PUSH3 0x644 JUMPI PUSH1 0x1 PUSH1 0x1 PUSH1 0xA0 SHL SUB DUP10 AND ISZERO PUSH3 0x5FF JUMPI PUSH1 0x1 PUSH1 0x1 PUSH1 0xA0 SHL SUB DUP11 AND ISZERO PUSH3 0x5BA JUMPI PUSH1 0x80 MSTORE PUSH1 0x1 PUSH1 0x1 PUSH1 0xA0 SHL SUB SWAP1 DUP2 AND PUSH1 0xA0 MSTORE SWAP1 DUP2 AND PUSH1 0xC0 MSTORE SWAP1 DUP2 AND PUSH1 0xE0 MSTORE SWAP1 DUP2 AND PUSH2 0x100 MSTORE SWAP1 DUP2 AND PUSH2 0x120 MSTORE SWAP1 DUP2 AND PUSH2 0x140 MSTORE SWAP1 DUP2 AND PUSH2 0x160 MSTORE SWAP1 DUP2 AND PUSH2 0x180 MSTORE PUSH1 0xA DUP1 SLOAD PUSH1 0x1 PUSH1 0x1 PUSH1 0xA0 SHL SUB NOT AND SWAP3 SWAP1 SWAP2 AND SWAP2 SWAP1 SWAP2 OR SWAP1 SSTORE PUSH2 0x1A0 MLOAD MLOAD DUP1 MLOAD PUSH1 0x1 PUSH1 0x1 PUSH1 0x40 SHL SUB DUP2 GT PUSH3 0x5A4 JUMPI PUSH1 0x2 SLOAD PUSH1 0x1 DUP2 DUP2 SHR SWAP2 AND DUP1 ISZERO PUSH3 0x599 JUMPI JUMPDEST PUSH1 0x20 DUP3 LT EQ PUSH3 0x583 JUMPI PUSH1 0x1F DUP2 GT PUSH3 0x519 JUMPI JUMPDEST POP PUSH1 0x20 SWAP2 PUSH1 0x1F DUP3 GT PUSH1 0x1 EQ PUSH3 0x4AF JUMPI SWAP2 DUP2 SWAP3 PUSH1 0x0 SWAP3 PUSH3 0x4A3 JUMPI JUMPDEST POP POP DUP2 PUSH1 0x1 SHL SWAP2 PUSH1 0x0 NOT SWAP1 PUSH1 0x3 SHL SHR NOT AND OR PUSH1 0x2 SSTORE JUMPDEST PUSH1 0x20 PUSH2 0x1A0 MLOAD ADD MLOAD PUSH1 0x3 SSTORE PUSH1 0x40 PUSH2 0x1A0 MLOAD ADD MLOAD PUSH1 0x4 SSTORE PUSH1 0x60 PUSH2 0x1A0 MLOAD ADD MLOAD PUSH1 0x5 SSTORE PUSH1 0x80 PUSH2 0x1A0 MLOAD ADD MLOAD PUSH1 0x6 SSTORE PUSH1 0xA0 PUSH2 0x1A0 MLOAD ADD MLOAD PUSH1 0x7 SSTORE PUSH1 0xC0 PUSH2 0x1A0 MLOAD ADD MLOAD PUSH1 0x8 SSTORE PUSH1 0xE0 PUSH2 0x1A0 MLOAD ADD MLOAD ISZERO ISZERO PUSH1 0xFF DUP1 NOT PUSH1 0x9 SLOAD AND SWAP2 AND OR PUSH1 0x9 SSTORE PUSH1 0x40 MLOAD PUSH2 0x2423 SWAP1 DUP2 PUSH3 0x8C7 DUP3 CODECOPY PUSH1 0x80 MLOAD DUP2 DUP2 DUP2 PUSH2 0x619 ADD MSTORE DUP2 DUP2 PUSH2 0x839 ADD MSTORE DUP2 DUP2 PUSH2 0x1114 ADD MSTORE DUP2 DUP2 PUSH2 0x1366 ADD MSTORE PUSH2 0x155B ADD MSTORE PUSH1 0xA0 MLOAD DUP2 PUSH2 0x3C0 ADD MSTORE PUSH1 0xC0 MLOAD DUP2 DUP2 DUP2 PUSH2 0x7F5 ADD MSTORE PUSH2 0x1D1B ADD MSTORE PUSH1 0xE0 MLOAD DUP2 DUP2 DUP2 PUSH2 0x7B1 ADD MSTORE PUSH2 0x1D55 ADD MSTORE PUSH2 0x100 MLOAD DUP2 DUP2 DUP2 PUSH2 0x404 ADD MSTORE DUP2 DUP2 PUSH2 0xA63 ADD MSTORE DUP2 DUP2 PUSH2 0xCD2 ADD MSTORE DUP2 DUP2 PUSH2 0x1F2F ADD MSTORE PUSH2 0x212F ADD MSTORE PUSH2 0x120 MLOAD DUP2 DUP2 DUP2 PUSH2 0x265 ADD MSTORE DUP2 DUP2 PUSH2 0x37C ADD MSTORE PUSH2 0xB25 ADD MSTORE PUSH2 0x140 MLOAD DUP2 DUP2 DUP2 PUSH2 0x448 ADD MSTORE DUP2 DUP2 PUSH2 0xBC6 ADD MSTORE DUP2 DUP2 PUSH2 0x1259 ADD MSTORE PUSH2 0x2013 ADD MSTORE PUSH2 0x160 MLOAD DUP2 DUP2 DUP2 PUSH2 0x4F8 ADD MSTORE PUSH2 0x11A7 ADD MSTORE PUSH2 0x180 MLOAD DUP2 DUP2 DUP2 PUSH2 0x20F ADD MSTORE PUSH2 0x11EB ADD MSTORE RETURN JUMPDEST ADD MLOAD SWAP1 POP CODESIZE DUP1 PUSH3 0x356 JUMP JUMPDEST PUSH1 0x1F NOT DUP3 AND SWAP3 PUSH1 0x2 PUSH1 0x0 MSTORE PUSH1 0x20 PUSH1 0x0 KECCAK256 SWAP2 PUSH1 0x0 JUMPDEST DUP6 DUP2 LT PUSH3 0x500 JUMPI POP DUP4 PUSH1 0x1 SWAP6 LT PUSH3 0x4E6 JUMPI JUMPDEST POP POP POP DUP2 SHL ADD PUSH1 0x2 SSTORE PUSH3 0x36C JUMP JUMPDEST ADD MLOAD PUSH1 0x0 NOT PUSH1 0xF8 DUP5 PUSH1 0x3 SHL AND SHR NOT AND SWAP1 SSTORE CODESIZE DUP1 DUP1 PUSH3 0x4D7 JUMP JUMPDEST SWAP2 SWAP3 PUSH1 0x20 PUSH1 0x1 DUP2 SWAP3 DUP7 DUP6 ADD MLOAD DUP2 SSTORE ADD SWAP5 ADD SWAP3 ADD PUSH3 0x4C3 JUMP JUMPDEST PUSH1 0x2 PUSH1 0x0 MSTORE PUSH32 0x405787FA12A823E0F2B7631CC41B3BA8828B3321CA811111FA75CD3AA3BB5ACE PUSH1 0x1F DUP4 ADD PUSH1 0x5 SHR DUP2 ADD SWAP2 PUSH1 0x20 DUP5 LT PUSH3 0x578 JUMPI JUMPDEST PUSH1 0x1F ADD PUSH1 0x5 SHR ADD SWAP1 JUMPDEST DUP2 DUP2 LT PUSH3 0x56B JUMPI POP PUSH3 0x33A JUMP JUMPDEST PUSH1 0x0 DUP2 SSTORE PUSH1 0x1 ADD PUSH3 0x55C JUMP JUMPDEST SWAP1 SWAP2 POP DUP2 SWAP1 PUSH3 0x553 JUMP JUMPDEST PUSH4 0x4E487B71 PUSH1 0xE0 SHL PUSH1 0x0 MSTORE PUSH1 0x22 PUSH1 0x4 MSTORE PUSH1 0x24 PUSH1 0x0 REVERT JUMPDEST SWAP1 PUSH1 0x7F AND SWAP1 PUSH3 0x326 JUMP JUMPDEST PUSH4 0x4E487B71 PUSH1 0xE0 SHL PUSH1 0x0 MSTORE PUSH1 0x41 PUSH1 0x4 MSTORE PUSH1 0x24 PUSH1 0x0 REVERT JUMPDEST PUSH1 0x40 MLOAD PUSH3 0x461BCD PUSH1 0xE5 SHL DUP2 MSTORE PUSH1 0x20 PUSH1 0x4 DUP3 ADD MSTORE PUSH1 0x16 PUSH1 0x24 DUP3 ADD MSTORE PUSH32 0x53616C65526F756E643A207A65726F206F7261636C6500000000000000000000 PUSH1 0x44 DUP3 ADD MSTORE PUSH1 0x64 SWAP1 REVERT JUMPDEST PUSH1 0x40 MLOAD PUSH3 0x461BCD PUSH1 0xE5 SHL DUP2 MSTORE PUSH1 0x20 PUSH1 0x4 DUP3 ADD MSTORE PUSH1 0x14 PUSH1 0x24 DUP3 ADD MSTORE PUSH32 0x53616C65526F756E643A207A65726F2075736474000000000000000000000000 PUSH1 0x44 DUP3 ADD MSTORE PUSH1 0x64 SWAP1 REVERT JUMPDEST PUSH1 0x40 MLOAD PUSH3 0x461BCD PUSH1 0xE5 SHL DUP2 MSTORE PUSH1 0x20 PUSH1 0x4 DUP3 ADD MSTORE PUSH1 0x14 PUSH1 0x24 DUP3 ADD MSTORE PUSH32 0x53616C65526F756E643A207A65726F2075736463000000000000000000000000 PUSH1 0x44 DUP3 ADD MSTORE PUSH1 0x64 SWAP1 REVERT JUMPDEST PUSH1 0x40 MLOAD PUSH3 0x461BCD PUSH1 0xE5 SHL DUP2 MSTORE PUSH1 0x20 PUSH1 0x4 DUP3 ADD MSTORE PUSH1 0x18 PUSH1 0x24 DUP3 ADD MSTORE PUSH32 0x53616C65526F756E643A207A65726F20726566657272616C0000000000000000 PUSH1 0x44 DUP3 ADD MSTORE PUSH1 0x64 SWAP1 REVERT JUMPDEST PUSH1 0x40 MLOAD PUSH3 0x461BCD PUSH1 0xE5 SHL DUP2 MSTORE PUSH1 0x20 PUSH1 0x4 DUP3 ADD MSTORE PUSH1 0x15 PUSH1 0x24 DUP3 ADD MSTORE PUSH32 0x53616C65526F756E643A207A65726F2066756E64730000000000000000000000 PUSH1 0x44 DUP3 ADD MSTORE PUSH1 0x64 SWAP1 REVERT JUMPDEST PUSH1 0x40 MLOAD PUSH3 0x461BCD PUSH1 0xE5 SHL DUP2 MSTORE PUSH1 0x20 PUSH1 0x4 DUP3 ADD MSTORE PUSH1 0x17 PUSH1 0x24 DUP3 ADD MSTORE PUSH32 0x53616C65526F756E643A207A65726F2076657374696E67000000000000000000 PUSH1 0x44 DUP3 ADD MSTORE PUSH1 0x64 SWAP1 REVERT JUMPDEST PUSH1 0x40 MLOAD PUSH3 0x461BCD PUSH1 0xE5 SHL DUP2 MSTORE PUSH1 0x20 PUSH1 0x4 DUP3 ADD MSTORE PUSH1 0x17 PUSH1 0x24 DUP3 ADD MSTORE PUSH32 0x53616C65526F756E643A207A65726F206C696D69746572000000000000000000 PUSH1 0x44 DUP3 ADD MSTORE PUSH1 0x64 SWAP1 REVERT JUMPDEST PUSH1 0x40 MLOAD PUSH3 0x461BCD PUSH1 0xE5 SHL DUP2 MSTORE PUSH1 0x20 PUSH1 0x4 DUP3 ADD MSTORE PUSH1 0x13 PUSH1 0x24 DUP3 ADD MSTORE PUSH32 0x53616C65526F756E643A207A65726F206B796300000000000000000000000000 PUSH1 0x44 DUP3 ADD MSTORE PUSH1 0x64 SWAP1 REVERT JUMPDEST PUSH1 0x40 MLOAD PUSH3 0x461BCD PUSH1 0xE5 SHL DUP2 MSTORE PUSH1 0x20 PUSH1 0x4 DUP3 ADD MSTORE PUSH1 0x15 PUSH1 0x24 DUP3 ADD MSTORE PUSH32 0x53616C65526F756E643A207A65726F20746F6B656E0000000000000000000000 PUSH1 0x44 DUP3 ADD MSTORE PUSH1 0x64 SWAP1 REVERT JUMPDEST PUSH1 0x40 MLOAD PUSH3 0x461BCD PUSH1 0xE5 SHL DUP2 MSTORE PUSH1 0x20 PUSH1 0x4 DUP3 ADD MSTORE PUSH1 0x17 PUSH1 0x24 DUP3 ADD MSTORE PUSH32 0x53616C65526F756E643A207A65726F206D616E61676572000000000000000000 PUSH1 0x44 DUP3 ADD MSTORE PUSH1 0x64 SWAP1 REVERT JUMPDEST PUSH1 0x0 DUP1 REVERT JUMPDEST DUP1 PUSH1 0x20 DUP1 SWAP3 DUP5 DUP10 DUP10 ADD ADD ADD ADD MLOAD DUP3 DUP3 DUP8 ADD ADD MSTORE ADD PUSH3 0x175 JUMP JUMPDEST PUSH1 0x40 MLOAD SWAP2 SWAP1 PUSH1 0x1F ADD PUSH1 0x1F NOT AND DUP3 ADD PUSH1 0x1 PUSH1 0x1 PUSH1 0x40 SHL SUB DUP2 GT DUP4 DUP3 LT OR PUSH3 0x5A4 JUMPI PUSH1 0x40 MSTORE JUMP JUMPDEST MLOAD SWAP1 PUSH1 0x1 PUSH1 0x1 PUSH1 0xA0 SHL SUB DUP3 AND DUP3 SUB PUSH3 0x86C JUMPI JUMP INVALID PUSH1 0x80 PUSH1 0x40 SWAP1 DUP1 DUP3 MSTORE PUSH1 0x4 SWAP1 DUP2 CALLDATASIZE LT ISZERO PUSH2 0x17 JUMPI PUSH1 0x0 DUP1 REVERT JUMPDEST PUSH1 0x0 SWAP2 DUP3 CALLDATALOAD PUSH1 0xE0 SHR SWAP2 DUP3 PUSH4 0x7B6859A EQ PUSH2 0x146A JUMPI POP DUP2 PUSH4 0xB6D621C EQ PUSH2 0x1432 JUMPI DUP2 PUSH4 0x1252AF75 EQ PUSH2 0x1413 JUMPI DUP2 PUSH4 0x1CB44DFC EQ PUSH2 0x133B JUMPI DUP2 PUSH4 0x21874AE2 EQ PUSH2 0x121A JUMPI DUP2 PUSH4 0x2F48AB7D EQ PUSH2 0x11D6 JUMPI DUP2 PUSH4 0x3E413BEE EQ PUSH2 0x1192 JUMPI DUP2 PUSH4 0x3F4BA83A EQ PUSH2 0x10FB JUMPI DUP2 PUSH4 0x42E94C90 EQ PUSH2 0x10C3 JUMPI DUP2 PUSH4 0x444AA92F EQ PUSH2 0x868 JUMPI SWAP2 DUP1 SWAP4 SWAP3 DUP3 PUSH4 0x481C6A75 EQ PUSH2 0x824 JUMPI DUP3 PUSH4 0x4B155B97 EQ PUSH2 0x7E0 JUMPI DUP3 PUSH4 0x53D4FE33 EQ PUSH2 0x79C JUMPI DUP3 PUSH4 0x5C975ABB EQ PUSH2 0x778 JUMPI DUP3 PUSH4 0x6386C1C7 EQ PUSH2 0x720 JUMPI DUP3 PUSH4 0x63B20117 EQ PUSH2 0x701 JUMPI DUP3 PUSH4 0x706EB3AB EQ PUSH2 0x6D8 JUMPI DUP3 PUSH4 0x79502C55 EQ PUSH2 0x663 JUMPI DUP3 PUSH4 0x8456CB59 EQ PUSH2 0x5DC JUMPI DUP3 PUSH4 0x84BC76A6 EQ PUSH2 0x52F JUMPI DUP3 PUSH4 0x8C28C31A EQ PUSH2 0x477 JUMPI DUP3 PUSH4 0xA04E876C EQ PUSH2 0x433 JUMPI DUP3 PUSH4 0xA5917BAF EQ PUSH2 0x3EF JUMPI DUP3 PUSH4 0xAC76A908 EQ PUSH2 0x3AB JUMPI DUP3 PUSH4 0xB6CB7F41 EQ PUSH2 0x367 JUMPI DUP3 PUSH4 0xD095362F EQ PUSH2 0x18E JUMPI POP POP PUSH4 0xFF5BC5A6 EQ PUSH2 0x154 JUMPI PUSH1 0x0 DUP1 REVERT JUMPDEST CALLVALUE PUSH2 0x18A JUMPI PUSH1 0x20 CALLDATASIZE PUSH1 0x3 NOT ADD SLT PUSH2 0x18A JUMPI PUSH1 0x20 SWAP2 DUP2 SWAP1 PUSH1 0x1 PUSH1 0x1 PUSH1 0xA0 SHL SUB PUSH2 0x17A PUSH2 0x18F5 JUMP JUMPDEST AND DUP2 MSTORE PUSH1 0xF DUP5 MSTORE KECCAK256 SLOAD SWAP1 MLOAD SWAP1 DUP2 MSTORE RETURN JUMPDEST POP DUP1 REVERT JUMPDEST SWAP2 POP SWAP2 CALLVALUE PUSH2 0x363 JUMPI DUP1 PUSH1 0x3 NOT CALLDATASIZE ADD SLT PUSH2 0x363 JUMPI DUP2 CALLDATALOAD SWAP2 PUSH2 0x1AC PUSH2 0x1910 JUMP JUMPDEST SWAP3 PUSH2 0x1B5 PUSH2 0x1C9D JUMP JUMPDEST PUSH2 0x1BD PUSH2 0x1CC0 JUMP JUMPDEST PUSH2 0x1CB PUSH1 0xFF PUSH1 0x9 SLOAD AND PUSH2 0x1B89 JUMP JUMPDEST PUSH2 0x1D9 PUSH1 0x5 SLOAD TIMESTAMP LT ISZERO PUSH2 0x1BCD JUMP JUMPDEST PUSH2 0x1E7 PUSH1 0x6 SLOAD TIMESTAMP GT ISZERO PUSH2 0x1C12 JUMP JUMPDEST PUSH2 0x1F5 PUSH1 0xB SLOAD DUP4 SLOAD GT PUSH2 0x1C51 JUMP JUMPDEST PUSH2 0x1FF DUP2 CALLER PUSH2 0x1CF5 JUMP JUMPDEST PUSH2 0x208 DUP2 PUSH2 0x1E35 JUMP JUMPDEST SWAP4 PUSH2 0x24F DUP3 PUSH32 0x0 PUSH2 0x246 PUSH1 0x1 DUP1 PUSH1 0xA0 SHL SUB SWAP5 DUP6 DUP4 AND SWAP10 DUP5 DUP1 DUP13 CALLER PUSH2 0x1E96 JUMP JUMPDEST ADDRESS SWAP1 CALLER SWAP1 PUSH2 0x234E JUMP JUMPDEST DUP4 MLOAD PUSH4 0x95EA7B3 PUSH1 0xE0 SHL DUP2 MSTORE PUSH1 0x1 PUSH1 0x1 PUSH1 0xA0 SHL SUB PUSH32 0x0 SWAP3 SWAP1 SWAP3 AND SWAP2 DUP3 AND DUP5 DUP3 ADD SWAP1 DUP2 MSTORE PUSH1 0x20 DUP2 DUP2 ADD DUP6 SWAP1 MSTORE SWAP1 DUP3 SWAP1 DUP2 SWAP1 PUSH1 0x40 ADD SUB DUP2 DUP11 DUP11 GAS CALL DUP1 ISZERO PUSH2 0x359 JUMPI PUSH2 0x32A JUMPI JUMPDEST POP DUP1 EXTCODESIZE ISZERO PUSH2 0x326 JUMPI DUP4 MLOAD PUSH4 0x19C5AEF5 PUSH1 0xE1 SHL DUP2 MSTORE PUSH1 0x1 PUSH1 0x1 PUSH1 0xA0 SHL SUB SWAP1 SWAP6 AND SWAP3 DUP6 ADD SWAP3 DUP4 MSTORE PUSH1 0x20 DUP4 ADD SWAP2 SWAP1 SWAP2 MSTORE DUP5 SWAP2 DUP5 SWAP2 SWAP1 DUP3 SWAP1 DUP5 SWAP1 DUP3 SWAP1 PUSH1 0x40 ADD SUB SWAP3 GAS CALL SWAP1 DUP2 ISZERO PUSH2 0x31D JUMPI POP PUSH2 0x306 JUMPI JUMPDEST POP PUSH1 0x1 SWAP1 SSTORE DUP1 RETURN JUMPDEST PUSH2 0x30F SWAP1 PUSH2 0x18A3 JUMP JUMPDEST PUSH2 0x31A JUMPI DUP1 CODESIZE PUSH2 0x2FE JUMP JUMPDEST DUP1 REVERT JUMPDEST MLOAD RETURNDATASIZE DUP5 DUP3 RETURNDATACOPY RETURNDATASIZE SWAP1 REVERT JUMPDEST DUP6 DUP1 REVERT JUMPDEST PUSH2 0x34B SWAP1 PUSH1 0x20 RETURNDATASIZE PUSH1 0x20 GT PUSH2 0x352 JUMPI JUMPDEST PUSH2 0x343 DUP2 DUP4 PUSH2 0x18B7 JUMP JUMPDEST DUP2 ADD SWAP1 PUSH2 0x1B71 JUMP JUMPDEST POP CODESIZE PUSH2 0x2B2 JUMP JUMPDEST POP RETURNDATASIZE PUSH2 0x339 JUMP JUMPDEST DUP6 MLOAD RETURNDATASIZE DUP10 DUP3 RETURNDATACOPY RETURNDATASIZE SWAP1 REVERT JUMPDEST POP POP REVERT JUMPDEST POP DUP3 CALLVALUE PUSH2 0x18A JUMPI DUP2 PUSH1 0x3 NOT CALLDATASIZE ADD SLT PUSH2 0x18A JUMPI MLOAD PUSH32 0x0 PUSH1 0x1 PUSH1 0x1 PUSH1 0xA0 SHL SUB AND DUP2 MSTORE PUSH1 0x20 SWAP1 RETURN JUMPDEST POP DUP3 CALLVALUE PUSH2 0x18A JUMPI DUP2 PUSH1 0x3 NOT CALLDATASIZE ADD SLT PUSH2 0x18A JUMPI MLOAD PUSH32 0x0 PUSH1 0x1 PUSH1 0x1 PUSH1 0xA0 SHL SUB AND DUP2 MSTORE PUSH1 0x20 SWAP1 RETURN JUMPDEST POP DUP3 CALLVALUE PUSH2 0x18A JUMPI DUP2 PUSH1 0x3 NOT CALLDATASIZE ADD SLT PUSH2 0x18A JUMPI MLOAD PUSH32 0x0 PUSH1 0x1 PUSH1 0x1 PUSH1 0xA0 SHL SUB AND DUP2 MSTORE PUSH1 0x20 SWAP1 RETURN JUMPDEST POP DUP3 CALLVALUE PUSH2 0x18A JUMPI DUP2 PUSH1 0x3 NOT CALLDATASIZE ADD SLT PUSH2 0x18A JUMPI MLOAD PUSH32 0x0 PUSH1 0x1 PUSH1 0x1 PUSH1 0xA0 SHL SUB AND DUP2 MSTORE PUSH1 0x20 SWAP1 RETURN JUMPDEST SWAP2 POP SWAP2 CALLVALUE PUSH2 0x363 JUMPI DUP1 PUSH1 0x3 NOT CALLDATASIZE ADD SLT PUSH2 0x363 JUMPI DUP2 CALLDATALOAD SWAP2 PUSH2 0x495 PUSH2 0x1910 JUMP JUMPDEST SWAP3 PUSH2 0x49E PUSH2 0x1C9D JUMP JUMPDEST PUSH2 0x4A6 PUSH2 0x1CC0 JUMP JUMPDEST PUSH2 0x4B4 PUSH1 0xFF PUSH1 0x9 SLOAD AND PUSH2 0x1B89 JUMP JUMPDEST PUSH2 0x4C2 PUSH1 0x5 SLOAD TIMESTAMP LT ISZERO PUSH2 0x1BCD JUMP JUMPDEST PUSH2 0x4D0 PUSH1 0x6 SLOAD TIMESTAMP GT ISZERO PUSH2 0x1C12 JUMP JUMPDEST PUSH2 0x4DE PUSH1 0xB SLOAD DUP4 SLOAD GT PUSH2 0x1C51 JUMP JUMPDEST PUSH2 0x4E8 DUP2 CALLER PUSH2 0x1CF5 JUMP JUMPDEST PUSH2 0x4F1 DUP2 PUSH2 0x1E35 JUMP JUMPDEST SWAP4 PUSH2 0x24F DUP3 PUSH32 0x0 PUSH2 0x246 PUSH1 0x1 DUP1 PUSH1 0xA0 SHL SUB SWAP5 DUP6 DUP4 AND SWAP10 DUP5 DUP1 DUP13 CALLER PUSH2 0x1E96 JUMP JUMPDEST DUP4 CALLVALUE PUSH2 0x5D8 JUMPI DUP3 PUSH1 0x3 NOT CALLDATASIZE ADD SLT PUSH2 0x5D8 JUMPI PUSH2 0x5D4 SWAP3 PUSH1 0xE0 DUP3 MLOAD PUSH2 0x551 DUP2 PUSH2 0x1870 JUMP JUMPDEST PUSH1 0x60 DUP2 MSTORE DUP3 PUSH1 0x20 DUP3 ADD MSTORE DUP3 DUP5 DUP3 ADD MSTORE DUP3 PUSH1 0x60 DUP3 ADD MSTORE DUP3 PUSH1 0x80 DUP3 ADD MSTORE DUP3 PUSH1 0xA0 DUP3 ADD MSTORE DUP3 PUSH1 0xC0 DUP3 ADD MSTORE ADD MSTORE DUP1 MLOAD SWAP2 PUSH2 0x586 DUP4 PUSH2 0x1870 JUMP JUMPDEST PUSH2 0x58E PUSH2 0x1960 JUMP JUMPDEST DUP4 MSTORE PUSH1 0x3 SLOAD PUSH1 0x20 DUP5 ADD MSTORE SLOAD DUP2 DUP4 ADD MSTORE PUSH1 0x5 SLOAD PUSH1 0x60 DUP4 ADD MSTORE PUSH1 0x6 SLOAD PUSH1 0x80 DUP4 ADD MSTORE PUSH1 0x7 SLOAD PUSH1 0xA0 DUP4 ADD MSTORE PUSH1 0x8 SLOAD PUSH1 0xC0 DUP4 ADD MSTORE PUSH1 0xFF PUSH1 0x9 SLOAD AND ISZERO ISZERO PUSH1 0xE0 DUP4 ADD MSTORE MLOAD SWAP2 DUP3 SWAP2 DUP3 PUSH2 0x1A66 JUMP JUMPDEST SUB SWAP1 RETURN JUMPDEST DUP3 DUP1 REVERT JUMPDEST POP DUP3 CALLVALUE PUSH2 0x18A JUMPI DUP2 PUSH1 0x3 NOT CALLDATASIZE ADD SLT PUSH2 0x18A JUMPI PUSH32 0x62E78CEA01BEE320CD4E420270B5EA74000D11B0C9F74754EBDBFC544B05A258 SWAP1 PUSH1 0x20 SWAP1 PUSH2 0x647 CALLER PUSH32 0x0 PUSH1 0x1 PUSH1 0x1 PUSH1 0xA0 SHL SUB AND EQ PUSH2 0x1ACC JUMP JUMPDEST PUSH2 0x64F PUSH2 0x1CC0 JUMP JUMPDEST PUSH1 0x1 PUSH1 0xFF NOT DUP2 SLOAD AND OR PUSH1 0x1 SSTORE MLOAD CALLER DUP2 MSTORE LOG1 DUP1 RETURN JUMPDEST DUP4 SWAP1 CALLVALUE PUSH2 0x5D8 JUMPI DUP3 PUSH1 0x3 NOT CALLDATASIZE ADD SLT PUSH2 0x5D8 JUMPI PUSH2 0x6B0 SWAP3 POP PUSH2 0x682 PUSH2 0x1960 JUMP JUMPDEST SWAP2 PUSH1 0x3 SLOAD SWAP2 SLOAD PUSH1 0x5 SLOAD PUSH1 0x6 SLOAD PUSH1 0x7 SLOAD SWAP2 PUSH1 0x8 SLOAD SWAP4 PUSH1 0xFF PUSH1 0x9 SLOAD AND SWAP6 DUP1 MLOAD SWAP10 DUP11 SWAP10 PUSH2 0x100 DUP1 DUP13 MSTORE DUP12 ADD SWAP1 PUSH2 0x1A26 JUMP JUMPDEST SWAP8 PUSH1 0x20 DUP11 ADD MSTORE DUP9 ADD MSTORE PUSH1 0x60 DUP8 ADD MSTORE PUSH1 0x80 DUP7 ADD MSTORE PUSH1 0xA0 DUP6 ADD MSTORE PUSH1 0xC0 DUP5 ADD MSTORE ISZERO ISZERO PUSH1 0xE0 DUP4 ADD MSTORE SUB SWAP1 RETURN JUMPDEST POP DUP3 CALLVALUE PUSH2 0x18A JUMPI DUP2 PUSH1 0x3 NOT CALLDATASIZE ADD SLT PUSH2 0x18A JUMPI PUSH1 0xA SLOAD SWAP1 MLOAD PUSH1 0x1 PUSH1 0x1 PUSH1 0xA0 SHL SUB SWAP1 SWAP2 AND DUP2 MSTORE PUSH1 0x20 SWAP1 RETURN JUMPDEST POP DUP3 CALLVALUE PUSH2 0x18A JUMPI DUP2 PUSH1 0x3 NOT CALLDATASIZE ADD SLT PUSH2 0x18A JUMPI PUSH1 0x20 SWAP1 PUSH1 0xC SLOAD SWAP1 MLOAD SWAP1 DUP2 MSTORE RETURN JUMPDEST POP DUP3 CALLVALUE PUSH2 0x18A JUMPI PUSH1 0x20 CALLDATASIZE PUSH1 0x3 NOT ADD SLT PUSH2 0x18A JUMPI PUSH1 0x1 PUSH1 0x1 PUSH1 0xA0 SHL SUB PUSH2 0x743 PUSH2 0x18F5 JUMP JUMPDEST AND DUP3 MSTORE PUSH1 0xD PUSH1 0x20 SWAP1 DUP2 MSTORE DUP2 DUP4 KECCAK256 SLOAD PUSH1 0xE DUP3 MSTORE DUP3 DUP5 KECCAK256 SLOAD PUSH1 0xF DUP4 MSTORE SWAP4 DUP4 SWAP1 KECCAK256 SLOAD SWAP3 MLOAD SWAP1 DUP2 MSTORE SWAP1 DUP2 ADD SWAP3 SWAP1 SWAP3 MSTORE PUSH1 0x40 DUP3 ADD MSTORE PUSH1 0x60 SWAP1 RETURN JUMPDEST POP DUP3 CALLVALUE PUSH2 0x18A JUMPI DUP2 PUSH1 0x3 NOT CALLDATASIZE ADD SLT PUSH2 0x18A JUMPI PUSH1 0x20 SWAP1 PUSH1 0xFF PUSH1 0x1 SLOAD AND SWAP1 MLOAD SWAP1 ISZERO ISZERO DUP2 MSTORE RETURN JUMPDEST POP DUP3 CALLVALUE PUSH2 0x18A JUMPI DUP2 PUSH1 0x3 NOT CALLDATASIZE ADD SLT PUSH2 0x18A JUMPI MLOAD PUSH32 0x0 PUSH1 0x1 PUSH1 0x1 PUSH1 0xA0 SHL SUB AND DUP2 MSTORE PUSH1 0x20 SWAP1 RETURN JUMPDEST POP DUP3 CALLVALUE PUSH2 0x18A JUMPI DUP2 PUSH1 0x3 NOT CALLDATASIZE ADD SLT PUSH2 0x18A JUMPI MLOAD PUSH32 0x0 PUSH1 0x1 PUSH1 0x1 PUSH1 0xA0 SHL SUB AND DUP2 MSTORE PUSH1 0x20 SWAP1 RETURN JUMPDEST POP DUP3 CALLVALUE PUSH2 0x18A JUMPI DUP2 PUSH1 0x3 NOT CALLDATASIZE ADD SLT PUSH2 0x18A JUMPI MLOAD PUSH32 0x0 PUSH1 0x1 PUSH1 0x1 PUSH1 0xA0 SHL SUB AND DUP2 MSTORE PUSH1 0x20 SWAP1 RETURN JUMPDEST SWAP1 POP PUSH1 0x20 SWAP3 DUP4 PUSH1 0x3 NOT CALLDATASIZE ADD SLT PUSH2 0x5D8 JUMPI PUSH2 0x880 PUSH2 0x18F5 JUMP JUMPDEST SWAP4 PUSH2 0x889 PUSH2 0x1C9D JUMP JUMPDEST PUSH2 0x891 PUSH2 0x1CC0 JUMP JUMPDEST PUSH2 0x89F PUSH1 0xFF PUSH1 0x9 SLOAD AND PUSH2 0x1B89 JUMP JUMPDEST PUSH2 0x8AD PUSH1 0x5 SLOAD TIMESTAMP LT ISZERO PUSH2 0x1BCD JUMP JUMPDEST PUSH2 0x8BB PUSH1 0x6 SLOAD TIMESTAMP GT ISZERO PUSH2 0x1C12 JUMP JUMPDEST PUSH2 0x8C9 PUSH1 0xB SLOAD DUP5 SLOAD GT PUSH2 0x1C51 JUMP JUMPDEST CALLVALUE ISZERO PUSH2 0x108C JUMPI PUSH1 0xA SLOAD DUP3 MLOAD PUSH4 0x3FABE5A3 PUSH1 0xE2 SHL DUP2 DUP5 ADD SWAP1 DUP2 MSTORE DUP6 DUP3 MSTORE PUSH1 0x1 PUSH1 0x1 PUSH1 0xA0 SHL SUB SWAP4 SWAP3 DUP5 AND SWAP2 DUP1 DUP7 ADD PUSH8 0xFFFFFFFFFFFFFFFF DUP2 GT DUP3 DUP3 LT OR PUSH2 0x1079 JUMPI DUP7 MSTORE MLOAD DUP8 SWAP3 DUP4 SWAP3 SWAP1 GAS STATICCALL RETURNDATASIZE ISZERO PUSH2 0x1071 JUMPI RETURNDATASIZE SWAP1 PUSH2 0x923 DUP3 PUSH2 0x18D9 JUMP JUMPDEST SWAP2 PUSH2 0x930 DUP7 MLOAD SWAP4 DUP5 PUSH2 0x18B7 JUMP JUMPDEST DUP3 MSTORE RETURNDATASIZE DUP8 DUP5 DUP5 ADD RETURNDATACOPY JUMPDEST ISZERO PUSH2 0x102E JUMPI PUSH1 0xA0 DUP2 DUP1 MLOAD DUP2 ADD SUB SLT PUSH2 0x326 JUMPI PUSH2 0x956 DUP3 DUP3 ADD PUSH2 0x1CDE JUMP JUMPDEST SWAP1 DUP5 DUP2 ADD MLOAD SWAP2 PUSH2 0x96D PUSH1 0xA0 PUSH1 0x80 DUP5 ADD MLOAD SWAP4 ADD PUSH2 0x1CDE JUMP JUMPDEST SWAP2 PUSH2 0x979 DUP10 DUP6 SGT PUSH2 0x1B11 JUMP JUMPDEST DUP1 ISZERO PUSH2 0xFEB JUMPI TIMESTAMP SUB TIMESTAMP DUP2 GT PUSH2 0xFD8 JUMPI PUSH2 0xE10 LT PUSH2 0xF95 JUMPI PUSH10 0xFFFFFFFFFFFFFFFFFFFF DUP1 SWAP2 AND SWAP2 AND LT PUSH2 0xF52 JUMPI PUSH5 0x174876E800 DUP2 LT ISZERO DUP1 PUSH2 0xF43 JUMPI JUMPDEST ISZERO PUSH2 0xF00 JUMPI PUSH1 0x64 SWAP1 DIV DUP1 CALLVALUE MUL SWAP1 CALLVALUE DUP3 DIV SUB PUSH2 0xEED JUMPI PUSH8 0xDE0B6B3A7640000 SWAP1 DIV PUSH2 0x9DE DUP2 CALLER PUSH2 0x1CF5 JUMP JUMPDEST PUSH2 0x9E7 DUP2 PUSH2 0x1E35 JUMP JUMPDEST DUP7 SWAP3 PUSH2 0x9F5 DUP4 PUSH1 0xB SLOAD PUSH2 0x1E89 JUMP JUMPDEST DUP8 SLOAD LT PUSH2 0xEAB JUMPI CALLER DUP9 MSTORE PUSH1 0xD DUP2 MSTORE DUP6 DUP9 KECCAK256 PUSH2 0xA11 DUP5 DUP3 SLOAD PUSH2 0x1E89 JUMP JUMPDEST SWAP1 SSTORE CALLER DUP9 MSTORE PUSH1 0xE DUP2 MSTORE DUP6 DUP9 KECCAK256 PUSH2 0xA28 DUP4 DUP3 SLOAD PUSH2 0x1E89 JUMP JUMPDEST SWAP1 SSTORE PUSH2 0xA36 DUP4 PUSH1 0xB SLOAD PUSH2 0x1E89 JUMP JUMPDEST PUSH1 0xB SSTORE PUSH2 0xA45 DUP3 PUSH1 0xC SLOAD PUSH2 0x1E89 JUMP JUMPDEST PUSH1 0xC SSTORE DUP5 DUP3 SWAP10 AND DUP1 ISZERO ISZERO DUP1 PUSH2 0xEA1 JUMPI JUMPDEST PUSH2 0xBB3 JUMPI JUMPDEST POP POP PUSH1 0x6 SLOAD SWAP8 DUP5 PUSH32 0x0 AND PUSH1 0x7 SLOAD PUSH1 0x8 SLOAD SWAP3 DUP3 EXTCODESIZE ISZERO PUSH2 0xBAF JUMPI DUP9 MLOAD PUSH4 0x75591D5F PUSH1 0xE1 SHL DUP2 MSTORE CALLER DUP2 DUP13 ADD SWAP1 DUP2 MSTORE PUSH1 0x20 DUP2 ADD SWAP3 SWAP1 SWAP3 MSTORE PUSH1 0x40 DUP3 ADD SWAP3 SWAP1 SWAP3 MSTORE PUSH1 0x60 DUP2 ADD SWAP4 SWAP1 SWAP4 MSTORE PUSH1 0x80 DUP4 ADD SWAP11 SWAP1 SWAP11 MSTORE DUP5 SWAP2 DUP11 SWAP2 SWAP1 DUP3 SWAP1 DUP5 SWAP1 DUP3 SWAP1 PUSH1 0xA0 ADD SUB SWAP3 GAS CALL SWAP8 DUP9 ISZERO PUSH2 0xBA5 JUMPI DUP8 SWAP9 SWAP8 SWAP6 SWAP7 SWAP8 PUSH2 0xB85 JUMPI JUMPDEST POP DUP6 MLOAD CALLVALUE DUP2 MSTORE PUSH1 0x20 DUP2 ADD SWAP3 SWAP1 SWAP3 MSTORE PUSH1 0x40 DUP3 ADD MSTORE CALLER SWAP1 PUSH32 0x8F7A55179307CEA51948432D653DBD53A23FEDC388BCB3E04E311F8220D87864 SWAP1 PUSH1 0x60 SWAP1 LOG3 PUSH32 0x0 AND DUP1 EXTCODESIZE ISZERO PUSH2 0x18A JUMPI DUP3 MLOAD PUSH4 0xF6326FB3 PUSH1 0xE0 SHL DUP2 MSTORE SWAP4 DUP5 SWAP2 DUP3 SWAP1 CALLVALUE SWAP1 GAS CALL SWAP1 DUP2 ISZERO PUSH2 0x31D JUMPI POP PUSH2 0xB76 JUMPI JUMPDEST POP PUSH1 0x1 DUP2 SSTORE DUP1 RETURN JUMPDEST PUSH2 0xB7F SWAP1 PUSH2 0x18A3 JUMP JUMPDEST CODESIZE PUSH2 0xB6E JUMP JUMPDEST DUP4 SWAP5 SWAP6 POP PUSH2 0xB96 SWAP1 SWAP4 SWAP2 SWAP3 SWAP4 PUSH2 0x18A3 JUMP JUMPDEST PUSH2 0x5D8 JUMPI SWAP1 DUP7 SWAP4 SWAP3 SWAP2 CODESIZE PUSH2 0xAE8 JUMP JUMPDEST DUP6 MLOAD RETURNDATASIZE DUP6 DUP3 RETURNDATACOPY RETURNDATASIZE SWAP1 REVERT JUMPDEST DUP7 DUP1 REVERT JUMPDEST DUP7 MLOAD PUSH4 0x308A59B PUSH1 0xE3 SHL DUP2 MSTORE CALLER DUP10 DUP3 ADD MSTORE PUSH32 0x0 DUP8 AND SWAP2 SWAP1 DUP4 DUP2 PUSH1 0x24 DUP2 DUP7 GAS STATICCALL SWAP1 DUP2 ISZERO PUSH2 0xE97 JUMPI SWAP1 DUP6 SWAP4 SWAP3 SWAP2 DUP13 SWAP2 PUSH2 0xE7A JUMPI JUMPDEST POP ISZERO PUSH2 0xE13 JUMPI JUMPDEST POP DUP8 MLOAD PUSH4 0xD8ABFEE5 PUSH1 0xE0 SHL DUP2 MSTORE CALLER DUP2 DUP12 ADD SWAP1 DUP2 MSTORE PUSH1 0x20 DUP2 ADD SWAP4 SWAP1 SWAP4 MSTORE SWAP3 SWAP2 PUSH1 0x60 SWAP2 DUP5 SWAP2 DUP3 SWAP1 DUP10 SWAP1 DUP3 SWAP1 PUSH1 0x40 ADD JUMPDEST SUB SWAP3 GAS CALL SWAP2 DUP3 ISZERO PUSH2 0xE09 JUMPI DUP6 SWAP3 DUP7 SWAP2 DUP8 SWAP2 PUSH2 0xDBE JUMPI JUMPDEST POP DUP8 DUP5 AND SWAP3 DUP4 PUSH2 0xC61 JUMPI JUMPDEST POP POP POP PUSH2 0xA5A JUMP JUMPDEST SWAP1 SWAP2 SWAP3 DUP1 SWAP5 SWAP13 POP DUP8 MSTORE PUSH1 0xE DUP2 MSTORE DUP9 DUP8 KECCAK256 PUSH2 0xC7C DUP5 DUP3 SLOAD PUSH2 0x1E89 JUMP JUMPDEST SWAP1 SSTORE DUP4 DUP8 MSTORE PUSH1 0xF DUP2 MSTORE DUP9 DUP8 KECCAK256 PUSH2 0xC93 DUP5 DUP3 SLOAD PUSH2 0x1E89 JUMP JUMPDEST SWAP1 SSTORE CALLER DUP8 MSTORE PUSH1 0xF DUP2 MSTORE DUP9 DUP8 KECCAK256 PUSH2 0xCAA DUP4 DUP3 SLOAD PUSH2 0x1E89 JUMP JUMPDEST SWAP1 SSTORE PUSH2 0xCC1 PUSH2 0xCB9 DUP4 DUP6 PUSH2 0x1E89 JUMP JUMPDEST PUSH1 0xC SLOAD PUSH2 0x1E89 JUMP JUMPDEST PUSH1 0xC SSTORE PUSH2 0xCCE DUP3 DUP7 PUSH2 0x1E89 JUMP JUMPDEST SWAP12 DUP9 PUSH32 0x0 AND PUSH1 0x7 SLOAD SWAP2 PUSH1 0x8 SLOAD PUSH1 0x6 SLOAD SWAP1 DUP4 EXTCODESIZE ISZERO PUSH2 0xDBA JUMPI SWAP2 DUP12 DUP16 DUP16 DUP3 SWAP7 SWAP5 DUP12 SWAP7 PUSH2 0xD51 SWAP3 MLOAD SWAP10 DUP11 SWAP9 DUP10 SWAP8 DUP9 SWAP7 PUSH4 0x75591D5F PUSH1 0xE1 SHL DUP9 MSTORE DUP8 ADD SWAP2 SWAP3 PUSH1 0x80 SWAP4 SWAP7 SWAP6 SWAP5 SWAP2 SWAP7 PUSH1 0xA0 DUP5 ADD SWAP8 PUSH1 0x1 DUP1 PUSH1 0xA0 SHL SUB AND DUP5 MSTORE PUSH1 0x20 DUP5 ADD MSTORE PUSH1 0x40 DUP4 ADD MSTORE PUSH1 0x60 DUP3 ADD MSTORE ADD MSTORE JUMP JUMPDEST SUB SWAP3 GAS CALL DUP1 ISZERO PUSH2 0xDB0 JUMPI SWAP1 DUP9 SWAP2 PUSH2 0xD9C JUMPI JUMPDEST POP POP DUP9 MLOAD SWAP3 DUP4 MSTORE DUP3 ADD MSTORE PUSH32 0x8A888A9AC1098C12B38ADE27D5D5B51CE092D9271475E3024A084BFC73FD5798 DUP8 CALLER SWAP3 LOG3 CODESIZE DUP1 DUP1 DUP1 DUP1 PUSH2 0xC59 JUMP JUMPDEST PUSH2 0xDA5 SWAP1 PUSH2 0x18A3 JUMP JUMPDEST PUSH2 0xBAF JUMPI DUP7 CODESIZE PUSH2 0xD63 JUMP JUMPDEST DUP11 MLOAD RETURNDATASIZE DUP11 DUP3 RETURNDATACOPY RETURNDATASIZE SWAP1 REVERT JUMPDEST DUP12 DUP1 REVERT JUMPDEST SWAP4 POP POP POP PUSH1 0x60 DUP3 RETURNDATASIZE PUSH1 0x60 GT PUSH2 0xE01 JUMPI JUMPDEST DUP2 PUSH2 0xDDB PUSH1 0x60 SWAP4 DUP4 PUSH2 0x18B7 JUMP JUMPDEST DUP2 ADD SUB SLT PUSH2 0xDFD JUMPI PUSH2 0xDEC DUP3 PUSH2 0x1B5D JUMP JUMPDEST DUP8 DUP3 DUP5 ADD MLOAD SWAP4 ADD MLOAD SWAP1 SWAP3 SWAP1 CODESIZE PUSH2 0xC4E JUMP JUMPDEST DUP5 DUP1 REVERT JUMPDEST RETURNDATASIZE SWAP2 POP PUSH2 0xDCE JUMP JUMPDEST DUP8 MLOAD RETURNDATASIZE DUP8 DUP3 RETURNDATACOPY RETURNDATASIZE SWAP1 REVERT JUMPDEST SWAP1 DUP1 SWAP3 POP EXTCODESIZE ISZERO PUSH2 0xE76 JUMPI DUP8 MLOAD SWAP1 PUSH4 0x5603B9F9 PUSH1 0xE0 SHL DUP3 MSTORE CALLER DUP11 DUP4 ADD MSTORE PUSH1 0x24 DUP3 ADD MSTORE DUP10 DUP2 PUSH1 0x44 DUP2 DUP4 DUP7 GAS CALL DUP1 ISZERO PUSH2 0xE6C JUMPI PUSH2 0xE50 JUMPI JUMPDEST SWAP1 DUP4 SWAP2 PUSH2 0xC0B JUMP JUMPDEST PUSH2 0xC38 SWAP3 SWAP2 SWAP6 POP PUSH2 0xE60 SWAP1 PUSH2 0x18A3 JUMP JUMPDEST DUP9 SWAP5 SWAP1 SWAP2 POP PUSH1 0x60 PUSH2 0xE48 JUMP JUMPDEST DUP9 MLOAD RETURNDATASIZE DUP13 DUP3 RETURNDATACOPY RETURNDATASIZE SWAP1 REVERT JUMPDEST DUP10 DUP1 REVERT JUMPDEST PUSH2 0xE91 SWAP2 POP DUP6 RETURNDATASIZE DUP8 GT PUSH2 0x352 JUMPI PUSH2 0x343 DUP2 DUP4 PUSH2 0x18B7 JUMP JUMPDEST CODESIZE PUSH2 0xC04 JUMP JUMPDEST DUP10 MLOAD RETURNDATASIZE DUP14 DUP3 RETURNDATACOPY RETURNDATASIZE SWAP1 REVERT JUMPDEST POP CALLER DUP2 EQ ISZERO PUSH2 0xA55 JUMP JUMPDEST DUP7 PUSH1 0x64 SWAP2 DUP8 MLOAD SWAP2 PUSH3 0x461BCD PUSH1 0xE5 SHL DUP4 MSTORE DUP3 ADD MSTORE PUSH1 0x1B PUSH1 0x24 DUP3 ADD MSTORE PUSH32 0x53616C65526F756E643A20657863656564732068617264206361700000000000 PUSH1 0x44 DUP3 ADD MSTORE REVERT JUMPDEST PUSH4 0x4E487B71 PUSH1 0xE0 SHL DUP7 MSTORE PUSH1 0x11 DUP6 MSTORE PUSH1 0x24 DUP7 REVERT JUMPDEST DUP4 MLOAD PUSH3 0x461BCD PUSH1 0xE5 SHL DUP2 MSTORE DUP1 DUP7 ADD DUP4 SWAP1 MSTORE PUSH1 0x1E PUSH1 0x24 DUP3 ADD MSTORE PUSH32 0x53616C65526F756E643A207072696365206F7574206F6620626F756E64730000 PUSH1 0x44 DUP3 ADD MSTORE PUSH1 0x64 SWAP1 REVERT JUMPDEST POP PUSH5 0xE8D4A51000 DUP2 GT ISZERO PUSH2 0x9B4 JUMP JUMPDEST DUP4 MLOAD PUSH3 0x461BCD PUSH1 0xE5 SHL DUP2 MSTORE DUP1 DUP7 ADD DUP4 SWAP1 MSTORE PUSH1 0x1B PUSH1 0x24 DUP3 ADD MSTORE PUSH32 0x53616C65526F756E643A207374616C6520726F756E6420646174610000000000 PUSH1 0x44 DUP3 ADD MSTORE PUSH1 0x64 SWAP1 REVERT JUMPDEST DUP6 MLOAD PUSH3 0x461BCD PUSH1 0xE5 SHL DUP2 MSTORE DUP1 DUP9 ADD DUP6 SWAP1 MSTORE PUSH1 0x1B PUSH1 0x24 DUP3 ADD MSTORE PUSH32 0x53616C65526F756E643A207374616C6520707269636520646174610000000000 PUSH1 0x44 DUP3 ADD MSTORE PUSH1 0x64 SWAP1 REVERT JUMPDEST PUSH4 0x4E487B71 PUSH1 0xE0 SHL DUP10 MSTORE PUSH1 0x11 DUP9 MSTORE PUSH1 0x24 DUP10 REVERT JUMPDEST DUP7 MLOAD PUSH3 0x461BCD PUSH1 0xE5 SHL DUP2 MSTORE DUP1 DUP10 ADD DUP7 SWAP1 MSTORE PUSH1 0x1C PUSH1 0x24 DUP3 ADD MSTORE PUSH32 0x53616C65526F756E643A20696E76616C69642074696D657374616D7000000000 PUSH1 0x44 DUP3 ADD MSTORE PUSH1 0x64 SWAP1 REVERT JUMPDEST DUP4 MLOAD PUSH3 0x461BCD PUSH1 0xE5 SHL DUP2 MSTORE DUP1 DUP7 ADD DUP4 SWAP1 MSTORE PUSH1 0x1D PUSH1 0x24 DUP3 ADD MSTORE PUSH32 0x53616C65526F756E643A206F7261636C652063616C6C206661696C6564000000 PUSH1 0x44 DUP3 ADD MSTORE PUSH1 0x64 SWAP1 REVERT JUMPDEST PUSH1 0x60 SWAP1 PUSH2 0x939 JUMP JUMPDEST PUSH4 0x4E487B71 PUSH1 0xE0 SHL DUP10 MSTORE PUSH1 0x41 DUP9 MSTORE PUSH1 0x24 DUP10 REVERT JUMPDEST SWAP1 MLOAD PUSH3 0x461BCD PUSH1 0xE5 SHL DUP2 MSTORE SWAP2 DUP3 ADD MSTORE PUSH1 0x13 PUSH1 0x24 DUP3 ADD MSTORE PUSH19 0xA6C2D8CAA4DEEADCC87440F4CAE4DE408AA89 PUSH1 0x6B SHL PUSH1 0x44 DUP3 ADD MSTORE PUSH1 0x64 SWAP1 REVERT JUMPDEST DUP3 DUP5 CALLVALUE PUSH2 0x18A JUMPI PUSH1 0x20 CALLDATASIZE PUSH1 0x3 NOT ADD SLT PUSH2 0x18A JUMPI PUSH1 0x20 SWAP2 DUP2 SWAP1 PUSH1 0x1 PUSH1 0x1 PUSH1 0xA0 SHL SUB PUSH2 0x10EB PUSH2 0x18F5 JUMP JUMPDEST AND DUP2 MSTORE PUSH1 0xD DUP5 MSTORE KECCAK256 SLOAD SWAP1 MLOAD SWAP1 DUP2 MSTORE RETURN JUMPDEST DUP4 SWAP2 POP CALLVALUE PUSH2 0x5D8 JUMPI DUP3 PUSH1 0x3 NOT CALLDATASIZE ADD SLT PUSH2 0x5D8 JUMPI PUSH2 0x1142 CALLER PUSH32 0x0 PUSH1 0x1 PUSH1 0x1 PUSH1 0xA0 SHL SUB AND EQ PUSH2 0x1ACC JUMP JUMPDEST PUSH1 0x1 SLOAD SWAP1 PUSH1 0xFF DUP3 AND ISZERO PUSH2 0x1184 JUMPI POP PUSH1 0xFF NOT AND PUSH1 0x1 SSTORE MLOAD CALLER DUP2 MSTORE PUSH32 0x5DB9EE0A495BF2E6FF9C91A7834C1BA4FDD244A5E8AA4E537BD38AEAE4B073AA SWAP1 PUSH1 0x20 SWAP1 LOG1 DUP1 RETURN JUMPDEST DUP3 MLOAD PUSH4 0x8DFC202B PUSH1 0xE0 SHL DUP2 MSTORE REVERT JUMPDEST DUP3 DUP5 CALLVALUE PUSH2 0x18A JUMPI DUP2 PUSH1 0x3 NOT CALLDATASIZE ADD SLT PUSH2 0x18A JUMPI MLOAD PUSH32 0x0 PUSH1 0x1 PUSH1 0x1 PUSH1 0xA0 SHL SUB AND DUP2 MSTORE PUSH1 0x20 SWAP1 RETURN JUMPDEST DUP3 DUP5 CALLVALUE PUSH2 0x18A JUMPI DUP2 PUSH1 0x3 NOT CALLDATASIZE ADD SLT PUSH2 0x18A JUMPI MLOAD PUSH32 0x0 PUSH1 0x1 PUSH1 0x1 PUSH1 0xA0 SHL SUB AND DUP2 MSTORE PUSH1 0x20 SWAP1 RETURN JUMPDEST SWAP2 SWAP1 POP CALLVALUE PUSH2 0x31A JUMPI PUSH1 0x20 SWAP1 DUP2 PUSH1 0x3 NOT CALLDATASIZE ADD SLT PUSH2 0x31A JUMPI PUSH2 0x1238 PUSH2 0x18F5 JUMP JUMPDEST DUP5 MLOAD PUSH4 0x4A9FEFC7 PUSH1 0xE0 SHL DUP2 MSTORE PUSH1 0x1 PUSH1 0x1 PUSH1 0xA0 SHL SUB SWAP2 DUP3 AND DUP2 DUP7 ADD DUP2 SWAP1 MSTORE SWAP1 SWAP5 PUSH32 0x0 DUP4 AND SWAP2 SWAP1 DUP6 DUP8 PUSH1 0x24 DUP2 DUP7 GAS STATICCALL SWAP7 DUP8 ISZERO PUSH2 0x1331 JUMPI DUP6 SWAP8 PUSH2 0x12F4 JUMPI JUMPDEST POP SWAP1 PUSH1 0x24 DUP7 SWAP3 DUP10 MLOAD SWAP5 DUP6 SWAP4 DUP5 SWAP3 PUSH4 0x308A59B PUSH1 0xE3 SHL DUP5 MSTORE DUP4 ADD MSTORE GAS STATICCALL SWAP3 DUP4 ISZERO PUSH2 0x12E9 JUMPI SWAP3 PUSH2 0x12CA JUMPI JUMPDEST POP DUP5 MLOAD SWAP4 AND DUP4 MSTORE ISZERO ISZERO SWAP1 DUP3 ADD MSTORE RETURN JUMPDEST PUSH2 0x12E2 SWAP2 SWAP3 POP DUP4 RETURNDATASIZE DUP6 GT PUSH2 0x352 JUMPI PUSH2 0x343 DUP2 DUP4 PUSH2 0x18B7 JUMP JUMPDEST SWAP1 CODESIZE PUSH2 0x12BB JUMP JUMPDEST DUP7 MLOAD SWAP1 RETURNDATASIZE SWAP1 DUP3 RETURNDATACOPY RETURNDATASIZE SWAP1 REVERT JUMPDEST SWAP1 SWAP7 POP DUP6 DUP2 DUP2 RETURNDATASIZE DUP4 GT PUSH2 0x132A JUMPI JUMPDEST PUSH2 0x130C DUP2 DUP4 PUSH2 0x18B7 JUMP JUMPDEST DUP2 ADD SUB SLT PUSH2 0xDFD JUMPI SWAP1 PUSH1 0x24 PUSH2 0x1321 DUP8 SWAP4 PUSH2 0x1B5D JUMP JUMPDEST SWAP8 SWAP2 SWAP3 POP PUSH2 0x1292 JUMP JUMPDEST POP RETURNDATASIZE PUSH2 0x1302 JUMP JUMPDEST DUP9 MLOAD RETURNDATASIZE DUP8 DUP3 RETURNDATACOPY RETURNDATASIZE SWAP1 REVERT JUMPDEST DUP4 SWAP2 POP CALLVALUE PUSH2 0x5D8 JUMPI PUSH1 0x20 CALLDATASIZE PUSH1 0x3 NOT ADD SLT PUSH2 0x5D8 JUMPI PUSH2 0x1357 PUSH2 0x18F5 JUMP JUMPDEST PUSH1 0x1 PUSH1 0x1 PUSH1 0xA0 SHL SUB SWAP1 PUSH2 0x138D CALLER PUSH32 0x0 DUP5 AND EQ PUSH2 0x1ACC JUMP JUMPDEST AND SWAP2 DUP3 ISZERO PUSH2 0x13D0 JUMPI POP POP PUSH1 0xA DUP1 SLOAD PUSH1 0x1 PUSH1 0x1 PUSH1 0xA0 SHL SUB NOT AND DUP3 OR SWAP1 SSTORE PUSH32 0x3DF77BEB5DB05FCDD70A30FC8ADF3F83F9501B68579455ADBD100B8180940394 DUP3 DUP1 LOG2 DUP1 RETURN JUMPDEST SWAP1 PUSH1 0x20 PUSH1 0x64 SWAP3 MLOAD SWAP2 PUSH3 0x461BCD PUSH1 0xE5 SHL DUP4 MSTORE DUP3 ADD MSTORE PUSH1 0x17 PUSH1 0x24 DUP3 ADD MSTORE PUSH32 0x53616C65526F756E643A207A65726F2061646472657373000000000000000000 PUSH1 0x44 DUP3 ADD MSTORE REVERT JUMPDEST DUP3 DUP5 CALLVALUE PUSH2 0x18A JUMPI DUP2 PUSH1 0x3 NOT CALLDATASIZE ADD SLT PUSH2 0x18A JUMPI PUSH1 0x20 SWAP1 PUSH1 0xB SLOAD SWAP1 MLOAD SWAP1 DUP2 MSTORE RETURN JUMPDEST DUP3 DUP5 CALLVALUE PUSH2 0x18A JUMPI PUSH1 0x20 CALLDATASIZE PUSH1 0x3 NOT ADD SLT PUSH2 0x18A JUMPI PUSH1 0x20 SWAP2 DUP2 SWAP1 PUSH1 0x1 PUSH1 0x1 PUSH1 0xA0 SHL SUB PUSH2 0x145A PUSH2 0x18F5 JUMP JUMPDEST AND DUP2 MSTORE PUSH1 0xE DUP5 MSTORE KECCAK256 SLOAD SWAP1 MLOAD SWAP1 DUP2 MSTORE RETURN JUMPDEST DUP5 DUP5 SWAP3 CALLVALUE PUSH2 0x186C JUMPI PUSH1 0x3 NOT SWAP1 PUSH1 0x20 CALLDATASIZE DUP4 ADD DUP2 SGT PUSH2 0x326 JUMPI DUP2 CALLDATALOAD SWAP3 PUSH8 0xFFFFFFFFFFFFFFFF SWAP1 DUP2 DUP6 GT PUSH2 0x1868 JUMPI PUSH2 0x100 SWAP1 DUP6 CALLDATASIZE SUB ADD SLT PUSH2 0xBAF JUMPI PUSH2 0x14AB DUP7 PUSH2 0x1870 JUMP JUMPDEST DUP4 DUP4 ADD CALLDATALOAD DUP2 DUP2 GT PUSH2 0x1868 JUMPI DUP5 ADD SWAP3 CALLDATASIZE PUSH1 0x23 DUP6 ADD SLT ISZERO PUSH2 0x1868 JUMPI DUP1 DUP5 ADD CALLDATALOAD DUP9 PUSH1 0x24 SWAP6 PUSH2 0x14D5 DUP4 PUSH2 0x18D9 JUMP JUMPDEST SWAP3 PUSH2 0x14E2 DUP11 MLOAD SWAP5 DUP6 PUSH2 0x18B7 JUMP JUMPDEST DUP1 DUP5 MSTORE CALLDATASIZE DUP9 DUP3 DUP5 ADD ADD GT PUSH2 0x5D8 JUMPI DUP1 DUP9 DUP9 SWAP4 ADD DUP4 DUP7 ADD CALLDATACOPY DUP4 ADD ADD MSTORE DUP8 MSTORE DUP3 DUP8 ADD DUP5 DUP7 ADD CALLDATALOAD DUP2 MSTORE DUP7 DUP9 ADD SWAP1 PUSH1 0x44 DUP8 ADD CALLDATALOAD DUP3 MSTORE PUSH1 0x60 DUP10 ADD SWAP4 PUSH1 0x64 DUP9 ADD CALLDATALOAD DUP6 MSTORE PUSH1 0x80 DUP11 ADD SWAP6 PUSH1 0x84 DUP10 ADD CALLDATALOAD DUP8 MSTORE PUSH1 0xA0 DUP12 ADD SWAP8 PUSH1 0xA4 DUP11 ADD CALLDATALOAD DUP10 MSTORE PUSH1 0xE4 PUSH1 0xC0 DUP14 ADD SWAP11 PUSH1 0xC4 DUP2 ADD CALLDATALOAD DUP13 MSTORE ADD CALLDATALOAD DUP1 ISZERO ISZERO DUP2 SUB PUSH2 0x1864 JUMPI PUSH1 0xE0 DUP14 ADD MSTORE PUSH2 0x1589 CALLER PUSH32 0x0 PUSH1 0x1 PUSH1 0x1 PUSH1 0xA0 SHL SUB AND EQ PUSH2 0x1ACC JUMP JUMPDEST PUSH2 0x1595 DUP5 MLOAD ISZERO ISZERO PUSH2 0x1B11 JUMP JUMPDEST DUP5 MLOAD ISZERO PUSH2 0x1823 JUMPI DUP8 MLOAD DUP8 MLOAD LT ISZERO PUSH2 0x17E2 JUMPI DUP10 MLOAD DUP10 MLOAD GT PUSH2 0x17A1 JUMPI DUP12 MLOAD SWAP1 DUP2 MLOAD SWAP4 DUP5 GT PUSH2 0x1790 JUMPI POP PUSH2 0x15C7 PUSH1 0x2 SLOAD PUSH2 0x1926 JUMP JUMPDEST DUP14 PUSH1 0x1F DUP3 GT PUSH2 0x172A JUMPI JUMPDEST SWAP1 POP POP DUP13 DUP3 PUSH1 0x1F DUP6 GT PUSH1 0x1 EQ PUSH2 0x1677 JUMPI POP SWAP3 PUSH32 0xCA5E88616919440603F1AE53082DAB032DAF45557362FAFD80A4852BD6CDAD85 SWAP13 SWAP11 SWAP9 SWAP7 SWAP5 SWAP3 DUP2 SWAP3 PUSH2 0x1666 SWAP14 SWAP12 SWAP10 SWAP8 SWAP6 SWAP3 PUSH2 0x166C JUMPI JUMPDEST POP POP DUP2 PUSH1 0x1 SHL SWAP2 PUSH1 0x0 NOT SWAP1 PUSH1 0x3 SHL SHR NOT AND OR PUSH1 0x2 SSTORE JUMPDEST MLOAD PUSH1 0x3 SSTORE MLOAD SWAP1 SSTORE MLOAD PUSH1 0x5 SSTORE MLOAD PUSH1 0x6 SSTORE MLOAD PUSH1 0x7 SSTORE MLOAD PUSH1 0x8 SSTORE PUSH1 0xE0 DUP3 ADD MLOAD ISZERO ISZERO PUSH1 0xFF DUP1 NOT PUSH1 0x9 SLOAD AND SWAP2 AND OR PUSH1 0x9 SSTORE MLOAD SWAP2 DUP3 SWAP2 DUP3 PUSH2 0x1A66 JUMP JUMPDEST SUB SWAP1 LOG1 DUP1 RETURN JUMPDEST ADD MLOAD SWAP1 POP DUP15 DUP1 PUSH2 0x161A JUMP JUMPDEST PUSH1 0x2 DUP3 MSTORE PUSH32 0x405787FA12A823E0F2B7631CC41B3BA8828B3321CA811111FA75CD3AA3BB5ACE SWAP4 SWAP3 SWAP2 PUSH1 0x1F NOT DUP7 AND SWAP2 JUMPDEST DUP3 DUP3 LT PUSH2 0x1712 JUMPI POP POP SWAP3 PUSH1 0x1 SWAP3 DUP6 SWAP3 PUSH32 0xCA5E88616919440603F1AE53082DAB032DAF45557362FAFD80A4852BD6CDAD85 SWAP16 SWAP14 SWAP12 SWAP10 SWAP8 SWAP6 SWAP7 PUSH2 0x1666 SWAP16 SWAP14 SWAP12 SWAP10 SWAP8 LT PUSH2 0x16F9 JUMPI JUMPDEST POP POP POP DUP2 SHL ADD PUSH1 0x2 SSTORE PUSH2 0x1630 JUMP JUMPDEST ADD MLOAD PUSH1 0x0 NOT PUSH1 0xF8 DUP5 PUSH1 0x3 SHL AND SHR NOT AND SWAP1 SSTORE DUP15 DUP1 DUP1 PUSH2 0x16EB JUMP JUMPDEST DUP1 PUSH1 0x1 DUP7 SWAP8 DUP3 SWAP5 SWAP8 DUP8 ADD MLOAD DUP2 SSTORE ADD SWAP7 ADD SWAP5 ADD SWAP1 PUSH2 0x16A6 JUMP JUMPDEST PUSH1 0x2 SWAP1 MSTORE PUSH32 0x405787FA12A823E0F2B7631CC41B3BA8828B3321CA811111FA75CD3AA3BB5ACE PUSH1 0x1F DUP6 ADD PUSH1 0x5 SHR DUP2 ADD SWAP2 DUP5 DUP7 LT PUSH2 0x1786 JUMPI JUMPDEST PUSH1 0x1F ADD PUSH1 0x5 SHR ADD SWAP1 DUP15 SWAP1 JUMPDEST DUP3 DUP2 LT PUSH2 0x1779 JUMPI POP PUSH2 0x15D1 JUMP JUMPDEST PUSH1 0x1 SWAP2 DUP2 SSTORE ADD DUP15 SWAP1 PUSH2 0x176C JUMP JUMPDEST SWAP1 SWAP2 POP DUP2 SWAP1 PUSH2 0x1761 JUMP JUMPDEST PUSH4 0x4E487B71 PUSH1 0xE0 SHL DUP15 MSTORE PUSH1 0x41 DUP8 MSTORE DUP14 REVERT JUMPDEST PUSH1 0x1A DUP7 SWAP2 PUSH1 0x64 SWAP4 DUP14 MLOAD SWAP4 PUSH3 0x461BCD PUSH1 0xE5 SHL DUP6 MSTORE DUP5 ADD MSTORE DUP3 ADD MSTORE PUSH32 0x53616C65526F756E643A20696E76616C69642076657374696E67000000000000 PUSH1 0x44 DUP3 ADD MSTORE REVERT JUMPDEST PUSH1 0x1D DUP7 SWAP2 PUSH1 0x64 SWAP4 DUP14 MLOAD SWAP4 PUSH3 0x461BCD PUSH1 0xE5 SHL DUP6 MSTORE DUP5 ADD MSTORE DUP3 ADD MSTORE PUSH32 0x53616C65526F756E643A20696E76616C69642074696D652072616E6765000000 PUSH1 0x44 DUP3 ADD MSTORE REVERT JUMPDEST PUSH1 0x1B DUP7 SWAP2 PUSH1 0x64 SWAP4 DUP14 MLOAD SWAP4 PUSH3 0x461BCD PUSH1 0xE5 SHL DUP6 MSTORE DUP5 ADD MSTORE DUP3 ADD MSTORE PUSH32 0x53616C65526F756E643A20696E76616C69642068617264206361700000000000 PUSH1 0x44 DUP3 ADD MSTORE REVERT JUMPDEST DUP14 DUP1 REVERT JUMPDEST DUP8 DUP1 REVERT JUMPDEST DUP4 DUP1 REVERT JUMPDEST PUSH2 0x100 DUP2 ADD SWAP1 DUP2 LT PUSH8 0xFFFFFFFFFFFFFFFF DUP3 GT OR PUSH2 0x188D JUMPI PUSH1 0x40 MSTORE JUMP JUMPDEST PUSH4 0x4E487B71 PUSH1 0xE0 SHL PUSH1 0x0 MSTORE PUSH1 0x41 PUSH1 0x4 MSTORE PUSH1 0x24 PUSH1 0x0 REVERT JUMPDEST PUSH8 0xFFFFFFFFFFFFFFFF DUP2 GT PUSH2 0x188D JUMPI PUSH1 0x40 MSTORE JUMP JUMPDEST SWAP1 PUSH1 0x1F DUP1 NOT SWAP2 ADD AND DUP2 ADD SWAP1 DUP2 LT PUSH8 0xFFFFFFFFFFFFFFFF DUP3 GT OR PUSH2 0x188D JUMPI PUSH1 0x40 MSTORE JUMP JUMPDEST PUSH8 0xFFFFFFFFFFFFFFFF DUP2 GT PUSH2 0x188D JUMPI PUSH1 0x1F ADD PUSH1 0x1F NOT AND PUSH1 0x20 ADD SWAP1 JUMP JUMPDEST PUSH1 0x4 CALLDATALOAD SWAP1 PUSH1 0x1 PUSH1 0x1 PUSH1 0xA0 SHL SUB DUP3 AND DUP3 SUB PUSH2 0x190B JUMPI JUMP JUMPDEST PUSH1 0x0 DUP1 REVERT JUMPDEST PUSH1 0x24 CALLDATALOAD SWAP1 PUSH1 0x1 PUSH1 0x1 PUSH1 0xA0 SHL SUB DUP3 AND DUP3 SUB PUSH2 0x190B JUMPI JUMP JUMPDEST SWAP1 PUSH1 0x1 DUP3 DUP2 SHR SWAP3 AND DUP1 ISZERO PUSH2 0x1956 JUMPI JUMPDEST PUSH1 0x20 DUP4 LT EQ PUSH2 0x1940 JUMPI JUMP JUMPDEST PUSH4 0x4E487B71 PUSH1 0xE0 SHL PUSH1 0x0 MSTORE PUSH1 0x22 PUSH1 0x4 MSTORE PUSH1 0x24 PUSH1 0x0 REVERT JUMPDEST SWAP2 PUSH1 0x7F AND SWAP2 PUSH2 0x1935 JUMP JUMPDEST PUSH1 0x40 MLOAD SWAP1 PUSH1 0x0 DUP3 PUSH1 0x2 SLOAD SWAP2 PUSH2 0x1974 DUP4 PUSH2 0x1926 JUMP JUMPDEST DUP1 DUP4 MSTORE SWAP3 PUSH1 0x20 SWAP1 PUSH1 0x1 SWAP1 DUP2 DUP2 AND SWAP1 DUP2 ISZERO PUSH2 0x1A02 JUMPI POP PUSH1 0x1 EQ PUSH2 0x19A1 JUMPI JUMPDEST POP POP PUSH2 0x199F SWAP3 POP SUB DUP4 PUSH2 0x18B7 JUMP JUMPDEST JUMP JUMPDEST SWAP2 POP SWAP3 PUSH1 0x2 PUSH1 0x0 MSTORE PUSH32 0x405787FA12A823E0F2B7631CC41B3BA8828B3321CA811111FA75CD3AA3BB5ACE SWAP4 PUSH1 0x0 SWAP3 JUMPDEST DUP3 DUP5 LT PUSH2 0x19EA JUMPI POP PUSH2 0x199F SWAP5 POP POP POP DUP2 ADD PUSH1 0x20 ADD CODESIZE DUP1 PUSH2 0x1991 JUMP JUMPDEST DUP6 SLOAD DUP9 DUP6 ADD DUP4 ADD MSTORE SWAP5 DUP6 ADD SWAP5 DUP8 SWAP5 POP SWAP3 DUP2 ADD SWAP3 PUSH2 0x19CF JUMP JUMPDEST SWAP2 POP POP PUSH1 0x20 SWAP3 POP PUSH2 0x199F SWAP5 SWAP2 POP PUSH1 0xFF NOT AND DUP3 DUP5 ADD MSTORE ISZERO ISZERO PUSH1 0x5 SHL DUP3 ADD ADD CODESIZE DUP1 PUSH2 0x1991 JUMP JUMPDEST SWAP2 SWAP1 DUP3 MLOAD SWAP3 DUP4 DUP3 MSTORE PUSH1 0x0 JUMPDEST DUP5 DUP2 LT PUSH2 0x1A52 JUMPI POP POP DUP3 PUSH1 0x0 PUSH1 0x20 DUP1 SWAP5 SWAP6 DUP5 ADD ADD MSTORE PUSH1 0x1F DUP1 NOT SWAP2 ADD AND ADD ADD SWAP1 JUMP JUMPDEST PUSH1 0x20 DUP2 DUP4 ADD DUP2 ADD MLOAD DUP5 DUP4 ADD DUP3 ADD MSTORE ADD PUSH2 0x1A31 JUMP JUMPDEST PUSH1 0x20 DUP2 MSTORE DUP2 MLOAD PUSH1 0xE0 PUSH2 0x1A86 PUSH2 0x100 SWAP3 DUP4 PUSH1 0x20 DUP7 ADD MSTORE PUSH2 0x120 DUP6 ADD SWAP1 PUSH2 0x1A26 JUMP JUMPDEST SWAP4 PUSH1 0x20 DUP2 ADD MLOAD PUSH1 0x40 DUP6 ADD MSTORE PUSH1 0x40 DUP2 ADD MLOAD PUSH1 0x60 DUP6 ADD MSTORE PUSH1 0x60 DUP2 ADD MLOAD PUSH1 0x80 DUP6 ADD MSTORE PUSH1 0x80 DUP2 ADD MLOAD PUSH1 0xA0 DUP6 ADD MSTORE PUSH1 0xA0 DUP2 ADD MLOAD PUSH1 0xC0 DUP6 ADD MSTORE PUSH1 0xC0 DUP2 ADD MLOAD DUP3 DUP6 ADD MSTORE ADD MLOAD ISZERO ISZERO SWAP2 ADD MSTORE SWAP1 JUMP JUMPDEST ISZERO PUSH2 0x1AD3 JUMPI JUMP JUMPDEST PUSH1 0x40 MLOAD PUSH3 0x461BCD PUSH1 0xE5 SHL DUP2 MSTORE PUSH1 0x20 PUSH1 0x4 DUP3 ADD MSTORE PUSH1 0x16 PUSH1 0x24 DUP3 ADD MSTORE PUSH22 0x29B0B632A937BAB7321D103737BA1036B0B730B3B2B9 PUSH1 0x51 SHL PUSH1 0x44 DUP3 ADD MSTORE PUSH1 0x64 SWAP1 REVERT JUMPDEST ISZERO PUSH2 0x1B18 JUMPI JUMP JUMPDEST PUSH1 0x40 MLOAD PUSH3 0x461BCD PUSH1 0xE5 SHL DUP2 MSTORE PUSH1 0x20 PUSH1 0x4 DUP3 ADD MSTORE PUSH1 0x18 PUSH1 0x24 DUP3 ADD MSTORE PUSH32 0x53616C65526F756E643A20696E76616C69642070726963650000000000000000 PUSH1 0x44 DUP3 ADD MSTORE PUSH1 0x64 SWAP1 REVERT JUMPDEST MLOAD SWAP1 PUSH1 0x1 PUSH1 0x1 PUSH1 0xA0 SHL SUB DUP3 AND DUP3 SUB PUSH2 0x190B JUMPI JUMP JUMPDEST SWAP1 DUP2 PUSH1 0x20 SWAP2 SUB SLT PUSH2 0x190B JUMPI MLOAD DUP1 ISZERO ISZERO DUP2 SUB PUSH2 0x190B JUMPI SWAP1 JUMP JUMPDEST ISZERO PUSH2 0x1B90 JUMPI JUMP JUMPDEST PUSH1 0x40 MLOAD PUSH3 0x461BCD PUSH1 0xE5 SHL DUP2 MSTORE PUSH1 0x20 PUSH1 0x4 DUP3 ADD MSTORE PUSH1 0x15 PUSH1 0x24 DUP3 ADD MSTORE PUSH21 0x53616C65526F756E643A206E6F7420616374697665 PUSH1 0x58 SHL PUSH1 0x44 DUP3 ADD MSTORE PUSH1 0x64 SWAP1 REVERT JUMPDEST ISZERO PUSH2 0x1BD4 JUMPI JUMP JUMPDEST PUSH1 0x40 MLOAD PUSH3 0x461BCD PUSH1 0xE5 SHL DUP2 MSTORE PUSH1 0x20 PUSH1 0x4 DUP3 ADD MSTORE PUSH1 0x16 PUSH1 0x24 DUP3 ADD MSTORE PUSH22 0x14D85B19549BDD5B990E881B9BDD081CDD185C9D1959 PUSH1 0x52 SHL PUSH1 0x44 DUP3 ADD MSTORE PUSH1 0x64 SWAP1 REVERT JUMPDEST ISZERO PUSH2 0x1C19 JUMPI JUMP JUMPDEST PUSH1 0x40 MLOAD PUSH3 0x461BCD PUSH1 0xE5 SHL DUP2 MSTORE PUSH1 0x20 PUSH1 0x4 DUP3 ADD MSTORE PUSH1 0x10 PUSH1 0x24 DUP3 ADD MSTORE PUSH16 0x14D85B19549BDD5B990E88195B991959 PUSH1 0x82 SHL PUSH1 0x44 DUP3 ADD MSTORE PUSH1 0x64 SWAP1 REVERT JUMPDEST ISZERO PUSH2 0x1C58 JUMPI JUMP JUMPDEST PUSH1 0x40 MLOAD PUSH3 0x461BCD PUSH1 0xE5 SHL DUP2 MSTORE PUSH1 0x20 PUSH1 0x4 DUP3 ADD MSTORE PUSH1 0x1B PUSH1 0x24 DUP3 ADD MSTORE PUSH32 0x53616C65526F756E643A20686172642063617020726561636865640000000000 PUSH1 0x44 DUP3 ADD MSTORE PUSH1 0x64 SWAP1 REVERT JUMPDEST PUSH1 0x2 PUSH1 0x0 SLOAD EQ PUSH2 0x1CAE JUMPI PUSH1 0x2 PUSH1 0x0 SSTORE JUMP JUMPDEST PUSH1 0x40 MLOAD PUSH4 0x3EE5AEB5 PUSH1 0xE0 SHL DUP2 MSTORE PUSH1 0x4 SWAP1 REVERT JUMPDEST PUSH1 0xFF PUSH1 0x1 SLOAD AND PUSH2 0x1CCC JUMPI JUMP JUMPDEST PUSH1 0x40 MLOAD PUSH4 0xD93C0665 PUSH1 0xE0 SHL DUP2 MSTORE PUSH1 0x4 SWAP1 REVERT JUMPDEST MLOAD SWAP1 PUSH10 0xFFFFFFFFFFFFFFFFFFFF DUP3 AND DUP3 SUB PUSH2 0x190B JUMPI JUMP JUMPDEST PUSH1 0x40 MLOAD PUSH4 0x73BED919 PUSH1 0xE1 SHL DUP2 MSTORE PUSH1 0x1 PUSH1 0x1 PUSH1 0xA0 SHL SUB DUP3 DUP2 AND PUSH1 0x4 DUP4 ADD MSTORE SWAP1 PUSH1 0x20 DUP2 PUSH1 0x24 DUP2 PUSH32 0x0 DUP7 AND GAS STATICCALL SWAP1 DUP2 ISZERO PUSH2 0x1DC5 JUMPI PUSH1 0x0 SWAP2 PUSH2 0x1E16 JUMPI JUMPDEST POP ISZERO PUSH2 0x1DD1 JUMPI PUSH32 0x0 AND SWAP2 DUP3 EXTCODESIZE ISZERO PUSH2 0x190B JUMPI PUSH1 0x40 MLOAD PUSH4 0x38D72789 PUSH1 0xE2 SHL DUP2 MSTORE PUSH1 0x1 PUSH1 0x1 PUSH1 0xA0 SHL SUB SWAP3 SWAP1 SWAP3 AND PUSH1 0x4 DUP4 ADD MSTORE PUSH1 0x24 DUP3 ADD MSTORE SWAP1 PUSH1 0x0 SWAP1 DUP3 SWAP1 PUSH1 0x44 SWAP1 DUP3 SWAP1 DUP5 SWAP1 GAS CALL DUP1 ISZERO PUSH2 0x1DC5 JUMPI PUSH2 0x1DBC JUMPI POP JUMP JUMPDEST PUSH2 0x199F SWAP1 PUSH2 0x18A3 JUMP JUMPDEST PUSH1 0x40 MLOAD RETURNDATASIZE PUSH1 0x0 DUP3 RETURNDATACOPY RETURNDATASIZE SWAP1 REVERT JUMPDEST PUSH1 0x40 MLOAD PUSH3 0x461BCD PUSH1 0xE5 SHL DUP2 MSTORE PUSH1 0x20 PUSH1 0x4 DUP3 ADD MSTORE PUSH1 0x1B PUSH1 0x24 DUP3 ADD MSTORE PUSH32 0x53616C65526F756E643A206E6F74204B594320617070726F7665640000000000 PUSH1 0x44 DUP3 ADD MSTORE PUSH1 0x64 SWAP1 REVERT JUMPDEST PUSH2 0x1E2F SWAP2 POP PUSH1 0x20 RETURNDATASIZE PUSH1 0x20 GT PUSH2 0x352 JUMPI PUSH2 0x343 DUP2 DUP4 PUSH2 0x18B7 JUMP JUMPDEST CODESIZE PUSH2 0x1D4D JUMP JUMPDEST PUSH8 0xDE0B6B3A7640000 SWAP1 DUP2 DUP2 MUL SWAP2 DUP2 DUP4 DIV EQ SWAP1 ISZERO OR ISZERO PUSH2 0x1E73 JUMPI PUSH1 0x3 SLOAD SWAP1 DUP2 ISZERO PUSH2 0x1E5D JUMPI DIV SWAP1 JUMP JUMPDEST PUSH4 0x4E487B71 PUSH1 0xE0 SHL PUSH1 0x0 MSTORE PUSH1 0x12 PUSH1 0x4 MSTORE PUSH1 0x24 PUSH1 0x0 REVERT JUMPDEST PUSH4 0x4E487B71 PUSH1 0xE0 SHL PUSH1 0x0 MSTORE PUSH1 0x11 PUSH1 0x4 MSTORE PUSH1 0x24 PUSH1 0x0 REVERT JUMPDEST SWAP2 SWAP1 DUP3 ADD DUP1 SWAP3 GT PUSH2 0x1E73 JUMPI JUMP JUMPDEST SWAP3 SWAP5 SWAP4 SWAP1 SWAP2 SWAP5 PUSH1 0xB SLOAD PUSH2 0x1EAB DUP3 PUSH1 0x0 SWAP3 PUSH2 0x1E89 JUMP JUMPDEST SWAP1 PUSH1 0x4 SWAP2 DUP3 SLOAD LT PUSH2 0x230A JUMPI PUSH1 0x1 DUP1 PUSH1 0xA0 SHL SUB SWAP6 DUP7 DUP2 AND SWAP8 DUP9 DUP4 MSTORE PUSH1 0x20 SWAP4 PUSH1 0xD DUP6 MSTORE PUSH1 0x40 SWAP5 DUP6 DUP6 KECCAK256 PUSH2 0x1EDD DUP9 DUP3 SLOAD PUSH2 0x1E89 JUMP JUMPDEST SWAP1 SSTORE DUP11 DUP6 MSTORE PUSH1 0xE DUP2 MSTORE DUP6 DUP6 KECCAK256 PUSH2 0x1EF4 DUP10 DUP3 SLOAD PUSH2 0x1E89 JUMP JUMPDEST SWAP1 SSTORE PUSH2 0x1F02 DUP8 PUSH1 0xB SLOAD PUSH2 0x1E89 JUMP JUMPDEST PUSH1 0xB SSTORE PUSH2 0x1F11 DUP9 PUSH1 0xC SLOAD PUSH2 0x1E89 JUMP JUMPDEST PUSH1 0xC SSTORE DUP10 DUP9 SWAP4 AND DUP1 ISZERO ISZERO DUP1 PUSH2 0x2300 JUMPI JUMPDEST PUSH2 0x2010 JUMPI JUMPDEST POP POP PUSH1 0x6 SLOAD SWAP3 DUP10 PUSH32 0x0 AND SWAP2 PUSH1 0x7 SLOAD SWAP5 PUSH1 0x8 SLOAD DUP5 EXTCODESIZE ISZERO PUSH2 0x1868 JUMPI DUP9 MLOAD PUSH4 0x75591D5F PUSH1 0xE1 SHL DUP2 MSTORE PUSH1 0x1 PUSH1 0x1 PUSH1 0xA0 SHL SUB SWAP1 SWAP5 AND SWAP3 DUP5 ADD SWAP3 DUP4 MSTORE PUSH1 0x20 DUP4 ADD SWAP6 SWAP1 SWAP6 MSTORE PUSH1 0x40 DUP3 ADD SWAP6 SWAP1 SWAP6 MSTORE PUSH1 0x60 DUP2 ADD SWAP4 SWAP1 SWAP4 MSTORE PUSH1 0x80 DUP4 ADD SWAP4 SWAP1 SWAP4 MSTORE DUP4 SWAP2 DUP4 SWAP2 SWAP1 DUP3 SWAP1 DUP5 SWAP1 DUP3 SWAP1 PUSH1 0xA0 ADD SUB SWAP3 GAS CALL DUP1 ISZERO PUSH2 0x2006 JUMPI PUSH2 0x1FF2 JUMPI JUMPDEST POP POP MLOAD SWAP6 DUP7 MSTORE PUSH1 0x20 DUP7 ADD MSTORE PUSH1 0x40 DUP6 ADD MSTORE AND SWAP2 PUSH32 0x8F7A55179307CEA51948432D653DBD53A23FEDC388BCB3E04E311F8220D87864 SWAP1 PUSH1 0x60 SWAP1 LOG3 JUMP JUMPDEST PUSH2 0x1FFC DUP3 SWAP2 PUSH2 0x18A3 JUMP JUMPDEST PUSH2 0x31A JUMPI DUP1 PUSH2 0x1FB8 JUMP JUMPDEST DUP4 MLOAD RETURNDATASIZE DUP5 DUP3 RETURNDATACOPY RETURNDATASIZE SWAP1 REVERT JUMPDEST DUP11 PUSH32 0x0 AND SWAP1 DUP8 MLOAD PUSH4 0x308A59B PUSH1 0xE3 SHL DUP2 MSTORE DUP14 DUP6 DUP3 ADD MSTORE DUP4 DUP2 PUSH1 0x24 DUP2 DUP7 GAS STATICCALL SWAP1 DUP2 ISZERO PUSH2 0x22F6 JUMPI SWAP1 DUP9 SWAP5 SWAP4 SWAP3 SWAP2 DUP6 SWAP2 PUSH2 0x22D9 JUMPI JUMPDEST POP ISZERO PUSH2 0x2274 JUMPI JUMPDEST POP DUP8 MLOAD PUSH4 0xD8ABFEE5 PUSH1 0xE0 SHL DUP2 MSTORE PUSH1 0x1 PUSH1 0x1 PUSH1 0xA0 SHL SUB DUP8 AND DUP6 DUP3 ADD SWAP1 DUP2 MSTORE PUSH1 0x20 DUP2 ADD DUP13 SWAP1 MSTORE SWAP1 SWAP4 PUSH1 0x60 SWAP3 DUP6 SWAP3 SWAP1 SWAP2 DUP4 SWAP2 DUP3 SWAP1 PUSH1 0x40 ADD JUMPDEST SUB SWAP3 GAS CALL SWAP1 DUP2 ISZERO PUSH2 0x226A JUMPI DUP7 SWAP3 DUP8 SWAP1 DUP9 SWAP4 PUSH2 0x2222 JUMPI JUMPDEST POP DUP13 DUP5 AND SWAP3 DUP4 PUSH2 0x20C6 JUMPI JUMPDEST POP POP POP PUSH2 0x1F26 JUMP JUMPDEST SWAP1 SWAP2 SWAP3 DUP1 SWAP5 SWAP7 POP DUP9 MSTORE PUSH1 0xE DUP4 MSTORE DUP9 DUP9 KECCAK256 PUSH2 0x20E1 DUP4 DUP3 SLOAD PUSH2 0x1E89 JUMP JUMPDEST SWAP1 SSTORE DUP4 DUP9 MSTORE PUSH1 0xF DUP4 MSTORE DUP9 DUP9 KECCAK256 PUSH2 0x20F8 DUP4 DUP3 SLOAD PUSH2 0x1E89 JUMP JUMPDEST SWAP1 SSTORE DUP14 DUP9 MSTORE PUSH1 0xF DUP4 MSTORE DUP9 DUP9 KECCAK256 PUSH2 0x210F DUP3 DUP3 SLOAD PUSH2 0x1E89 JUMP JUMPDEST SWAP1 SSTORE PUSH2 0x211E PUSH2 0xCB9 DUP3 DUP5 PUSH2 0x1E89 JUMP JUMPDEST PUSH1 0xC SSTORE PUSH2 0x212B DUP2 DUP13 PUSH2 0x1E89 JUMP JUMPDEST SWAP6 DUP14 PUSH32 0x0 AND PUSH1 0x7 SLOAD SWAP2 PUSH1 0x8 SLOAD PUSH1 0x6 SLOAD SWAP1 DUP4 EXTCODESIZE ISZERO PUSH2 0x221E JUMPI DUP14 MLOAD PUSH4 0x75591D5F PUSH1 0xE1 SHL DUP2 MSTORE PUSH1 0x1 PUSH1 0x1 PUSH1 0xA0 SHL SUB SWAP1 SWAP4 AND DUP4 DUP12 ADD SWAP1 DUP2 MSTORE PUSH1 0x20 DUP2 ADD DUP9 SWAP1 MSTORE PUSH1 0x40 DUP2 ADD SWAP6 SWAP1 SWAP6 MSTORE PUSH1 0x60 DUP6 ADD MSTORE PUSH1 0x80 DUP5 ADD MSTORE SWAP2 DUP11 SWAP2 DUP4 SWAP2 DUP3 SWAP1 DUP5 SWAP1 DUP3 SWAP1 PUSH1 0xA0 ADD SUB SWAP3 GAS CALL DUP1 ISZERO PUSH2 0x2214 JUMPI SWAP2 DUP16 SWAP4 SWAP2 DUP11 SWAP1 DUP13 SWAP5 PUSH2 0x21F4 JUMPI JUMPDEST POP POP PUSH32 0x8A888A9AC1098C12B38ADE27D5D5B51CE092D9271475E3024A084BFC73FD5798 SWAP4 SWAP5 DUP4 MLOAD SWAP3 DUP4 MSTORE DUP3 ADD MSTORE LOG3 CODESIZE DUP1 DUP1 DUP1 DUP1 PUSH2 0x20BE JUMP JUMPDEST SWAP1 SWAP3 SWAP6 SWAP4 POP PUSH2 0x2204 SWAP2 SWAP5 POP PUSH2 0x18A3 JUMP JUMPDEST PUSH2 0x1868 JUMPI SWAP2 DUP9 SWAP1 DUP15 SWAP3 DUP10 CODESIZE PUSH2 0x21BC JUMP JUMPDEST DUP11 MLOAD RETURNDATASIZE DUP12 DUP3 RETURNDATACOPY RETURNDATASIZE SWAP1 REVERT JUMPDEST DUP13 DUP1 REVERT JUMPDEST SWAP4 POP POP SWAP1 POP PUSH1 0x60 DUP3 RETURNDATASIZE PUSH1 0x60 GT PUSH2 0x2262 JUMPI JUMPDEST DUP2 PUSH2 0x2240 PUSH1 0x60 SWAP4 DUP4 PUSH2 0x18B7 JUMP JUMPDEST DUP2 ADD SUB SLT PUSH2 0x326 JUMPI PUSH2 0x2251 DUP3 PUSH2 0x1B5D JUMP JUMPDEST SWAP1 DUP8 DUP2 DUP5 ADD MLOAD SWAP4 ADD MLOAD SWAP2 SWAP3 CODESIZE PUSH2 0x20B3 JUMP JUMPDEST RETURNDATASIZE SWAP2 POP PUSH2 0x2233 JUMP JUMPDEST DUP8 MLOAD RETURNDATASIZE DUP9 DUP3 RETURNDATACOPY RETURNDATASIZE SWAP1 REVERT JUMPDEST SWAP1 DUP1 SWAP3 SWAP4 POP EXTCODESIZE ISZERO PUSH2 0xBAF JUMPI DUP8 MLOAD SWAP1 PUSH4 0x5603B9F9 PUSH1 0xE0 SHL DUP3 MSTORE DUP14 DUP6 DUP4 ADD MSTORE PUSH1 0x24 DUP3 ADD MSTORE DUP7 DUP2 PUSH1 0x44 DUP2 DUP4 DUP7 GAS CALL DUP1 ISZERO PUSH2 0x22CF JUMPI PUSH2 0x22B3 JUMPI JUMPDEST SWAP1 DUP7 SWAP3 SWAP2 PUSH2 0x2068 JUMP JUMPDEST PUSH2 0x209D SWAP7 PUSH2 0x22C5 PUSH1 0x60 SWAP3 SWAP5 SWAP4 SWAP5 PUSH2 0x18A3 JUMP JUMPDEST SWAP7 POP SWAP2 SWAP1 SWAP2 PUSH2 0x22AA JUMP JUMPDEST DUP9 MLOAD RETURNDATASIZE DUP10 DUP3 RETURNDATACOPY RETURNDATASIZE SWAP1 REVERT JUMPDEST PUSH2 0x22F0 SWAP2 POP DUP5 RETURNDATASIZE DUP7 GT PUSH2 0x352 JUMPI PUSH2 0x343 DUP2 DUP4 PUSH2 0x18B7 JUMP JUMPDEST CODESIZE PUSH2 0x2061 JUMP JUMPDEST DUP10 MLOAD RETURNDATASIZE DUP11 DUP3 RETURNDATACOPY RETURNDATASIZE SWAP1 REVERT JUMPDEST POP DUP12 DUP2 EQ ISZERO PUSH2 0x1F21 JUMP JUMPDEST PUSH1 0x40 MLOAD PUSH3 0x461BCD PUSH1 0xE5 SHL DUP2 MSTORE PUSH1 0x20 DUP2 DUP5 ADD MSTORE PUSH1 0x1B PUSH1 0x24 DUP3 ADD MSTORE PUSH32 0x53616C65526F756E643A20657863656564732068617264206361700000000000 PUSH1 0x44 DUP3 ADD MSTORE PUSH1 0x64 SWAP1 REVERT JUMPDEST PUSH1 0x40 MLOAD PUSH4 0x23B872DD PUSH1 0xE0 SHL PUSH1 0x20 DUP3 ADD SWAP1 DUP2 MSTORE PUSH1 0x1 PUSH1 0x1 PUSH1 0xA0 SHL SUB SWAP4 DUP5 AND PUSH1 0x24 DUP4 ADD MSTORE SWAP4 DUP4 AND PUSH1 0x44 DUP3 ADD MSTORE PUSH1 0x64 DUP1 DUP3 ADD SWAP6 SWAP1 SWAP6 MSTORE SWAP4 DUP5 MSTORE SWAP3 SWAP1 SWAP2 PUSH1 0xA0 DUP3 ADD SWAP1 PUSH8 0xFFFFFFFFFFFFFFFF DUP3 GT DUP4 DUP4 LT OR PUSH2 0x188D JUMPI PUSH1 0x20 SWAP3 PUSH1 0x0 SWAP3 PUSH1 0x40 MSTORE MLOAD SWAP1 DUP3 DUP7 GAS CALL ISZERO PUSH2 0x1DC5 JUMPI PUSH1 0x0 MLOAD RETURNDATASIZE PUSH2 0x23E4 JUMPI POP DUP1 DUP3 AND EXTCODESIZE ISZERO JUMPDEST PUSH2 0x23CA JUMPI POP POP JUMP JUMPDEST PUSH1 0x40 MLOAD PUSH4 0x5274AFE7 PUSH1 0xE0 SHL DUP2 MSTORE SWAP2 AND PUSH1 0x4 DUP3 ADD MSTORE PUSH1 0x24 SWAP2 POP REVERT JUMPDEST PUSH1 0x1 EQ ISZERO PUSH2 0x23C2 JUMP INVALID LOG2 PUSH5 0x6970667358 0x22 SLT KECCAK256 CHAINID CREATE2 0x2B 0x2A DUP3 0xB3 0xFB CALLVALUE 0x28 0xD3 SWAP12 PUSH32 0x10ADD121ECB54AAEB7163BCE28D7274E3D2C391764736F6C6343000818003300 "},"methodIdentifiers":{"bonusTokens(address)":"ff5bc5a6","buyWithETH(address)":"444aa92f","buyWithUSDC(uint256,address)":"8c28c31a","buyWithUSDT(uint256,address)":"d095362f","config()":"79502c55","contributions(address)":"42e94c90","ethUSDOracle()":"706eb3ab","fundsVault()":"b6cb7f41","getReferralInfo(address)":"21874ae2","getRoundInfo()":"84bc76a6","getUserInfo(address)":"6386c1c7","kycRegistry()":"4b155b97","manager()":"481c6a75","nebaToken()":"ac76a908","pause()":"8456cb59","paused()":"5c975abb","rateLimiter()":"53d4fe33","referralSystem()":"a04e876c","tokenAllocations(address)":"0b6d621c","totalRaisedUSD()":"1252af75","totalTokensSold()":"63b20117","unpause()":"3f4ba83a","updateConfig((string,uint256,uint256,uint256,uint256,uint256,uint256,bool))":"07b6859a","updateOracle(address)":"1cb44dfc","usdc()":"3e413bee","usdt()":"2f48ab7d","vestingVault()":"a5917baf"}}}}}