{"src/VestingVault.sol":{"VestingVault":{"abi":[{"inputs":[{"internalType":"address","name":"_token","type":"address"}],"stateMutability":"nonpayable","type":"constructor"},{"inputs":[],"name":"AccessControlBadConfirmation","type":"error"},{"inputs":[{"internalType":"address","name":"account","type":"address"},{"internalType":"bytes32","name":"neededRole","type":"bytes32"}],"name":"AccessControlUnauthorizedAccount","type":"error"},{"inputs":[],"name":"ReentrancyGuardReentrantCall","type":"error"},{"inputs":[{"internalType":"address","name":"token","type":"address"}],"name":"SafeERC20FailedOperation","type":"error"},{"anonymous":false,"inputs":[{"indexed":true,"internalType":"bytes32","name":"role","type":"bytes32"},{"indexed":true,"internalType":"bytes32","name":"previousAdminRole","type":"bytes32"},{"indexed":true,"internalType":"bytes32","name":"newAdminRole","type":"bytes32"}],"name":"RoleAdminChanged","type":"event"},{"anonymous":false,"inputs":[{"indexed":true,"internalType":"bytes32","name":"role","type":"bytes32"},{"indexed":true,"internalType":"address","name":"account","type":"address"},{"indexed":true,"internalType":"address","name":"sender","type":"address"}],"name":"RoleGranted","type":"event"},{"anonymous":false,"inputs":[{"indexed":true,"internalType":"bytes32","name":"role","type":"bytes32"},{"indexed":true,"internalType":"address","name":"account","type":"address"},{"indexed":true,"internalType":"address","name":"sender","type":"address"}],"name":"RoleRevoked","type":"event"},{"anonymous":false,"inputs":[{"indexed":true,"internalType":"address","name":"saleRound","type":"address"}],"name":"SaleRoundAuthorized","type":"event"},{"anonymous":false,"inputs":[{"indexed":true,"internalType":"address","name":"beneficiary","type":"address"},{"indexed":false,"internalType":"uint256","name":"amount","type":"uint256"}],"name":"TokensClaimed","type":"event"},{"anonymous":false,"inputs":[{"indexed":true,"internalType":"address","name":"beneficiary","type":"address"},{"indexed":true,"internalType":"uint256","name":"scheduleId","type":"uint256"},{"indexed":false,"internalType":"uint256","name":"amount","type":"uint256"},{"indexed":false,"internalType":"uint256","name":"cliffEnd","type":"uint256"},{"indexed":false,"internalType":"uint256","name":"vestingEnd","type":"uint256"}],"name":"VestingCreated","type":"event"},{"inputs":[],"name":"DEFAULT_ADMIN_ROLE","outputs":[{"internalType":"bytes32","name":"","type":"bytes32"}],"stateMutability":"view","type":"function"},{"inputs":[],"name":"SALE_ROUND_ROLE","outputs":[{"internalType":"bytes32","name":"","type":"bytes32"}],"stateMutability":"view","type":"function"},{"inputs":[],"name":"claimVested","outputs":[],"stateMutability":"nonpayable","type":"function"},{"inputs":[{"internalType":"address","name":"beneficiary","type":"address"},{"internalType":"uint256","name":"amount","type":"uint256"},{"internalType":"uint256","name":"cliffDuration","type":"uint256"},{"internalType":"uint256","name":"vestingDuration","type":"uint256"},{"internalType":"uint256","name":"startTime","type":"uint256"}],"name":"createVesting","outputs":[],"stateMutability":"nonpayable","type":"function"},{"inputs":[{"internalType":"address","name":"beneficiary","type":"address"}],"name":"getClaimableAmount","outputs":[{"internalType":"uint256","name":"","type":"uint256"}],"stateMutability":"view","type":"function"},{"inputs":[{"internalType":"bytes32","name":"role","type":"bytes32"}],"name":"getRoleAdmin","outputs":[{"internalType":"bytes32","name":"","type":"bytes32"}],"stateMutability":"view","type":"function"},{"inputs":[{"internalType":"address","name":"beneficiary","type":"address"}],"name":"getVestedAmount","outputs":[{"internalType":"uint256","name":"","type":"uint256"}],"stateMutability":"view","type":"function"},{"inputs":[{"internalType":"address","name":"beneficiary","type":"address"},{"internalType":"uint256","name":"index","type":"uint256"}],"name":"getVestingSchedule","outputs":[{"components":[{"internalType":"uint256","name":"totalAmount","type":"uint256"},{"internalType":"uint256","name":"claimedAmount","type":"uint256"},{"internalType":"uint256","name":"startTime","type":"uint256"},{"internalType":"uint256","name":"cliffEnd","type":"uint256"},{"internalType":"uint256","name":"vestingEnd","type":"uint256"}],"internalType":"struct VestingVault.VestingSchedule","name":"schedule","type":"tuple"}],"stateMutability":"view","type":"function"},{"inputs":[{"internalType":"address","name":"beneficiary","type":"address"}],"name":"getVestingScheduleCount","outputs":[{"internalType":"uint256","name":"","type":"uint256"}],"stateMutability":"view","type":"function"},{"inputs":[{"internalType":"bytes32","name":"role","type":"bytes32"},{"internalType":"address","name":"account","type":"address"}],"name":"grantRole","outputs":[],"stateMutability":"nonpayable","type":"function"},{"inputs":[{"internalType":"bytes32","name":"role","type":"bytes32"},{"internalType":"address","name":"account","type":"address"}],"name":"hasRole","outputs":[{"internalType":"bool","name":"","type":"bool"}],"stateMutability":"view","type":"function"},{"inputs":[{"internalType":"address","name":"_saleManager","type":"address"}],"name":"initialize","outputs":[],"stateMutability":"nonpayable","type":"function"},{"inputs":[{"internalType":"bytes32","name":"role","type":"bytes32"},{"internalType":"address","name":"callerConfirmation","type":"address"}],"name":"renounceRole","outputs":[],"stateMutability":"nonpayable","type":"function"},{"inputs":[{"internalType":"bytes32","name":"role","type":"bytes32"},{"internalType":"address","name":"account","type":"address"}],"name":"revokeRole","outputs":[],"stateMutability":"nonpayable","type":"function"},{"inputs":[],"name":"saleManager","outputs":[{"internalType":"address","name":"","type":"address"}],"stateMutability":"view","type":"function"},{"inputs":[{"internalType":"bytes4","name":"interfaceId","type":"bytes4"}],"name":"supportsInterface","outputs":[{"internalType":"bool","name":"","type":"bool"}],"stateMutability":"view","type":"function"},{"inputs":[],"name":"token","outputs":[{"internalType":"contract IERC20","name":"","type":"address"}],"stateMutability":"view","type":"function"}],"evm":{"bytecode":{"linkReferences":{},"object":"60a0346100cb57601f61121d38819003918201601f19168301916001600160401b038311848410176100d0578084926020946040528339810103126100cb57516001600160a01b038116908190036100cb576001600055801561008757608052610068336100e6565b506040516110a59081610178823960805181818160f3015261068d0152f35b606460405162461bcd60e51b815260206004820152602060248201527f56657374696e675661756c743a207a65726f20746f6b656e20616464726573736044820152fd5b600080fd5b634e487b7160e01b600052604160045260246000fd5b6001600160a01b031660008181527fa6eef7e35abe7026729641147f7915573c7e97b47efa546f5f6e3230263bcb49602052604081205490919060ff166101735781805260016020526040822081835260205260408220600160ff1982541617905533917f2f8788117e7eff1d82e926ec794901d17c78024a50270940304540a733656f0d8180a4600190565b509056fe608060408181526004918236101561001657600080fd5b600092833560e01c91826301ffc9a714610bbf5750816307d0d91614610b875781630b90fca114610b4c578163248a9ca314610b225781632f2ff15d14610af857816336568abe14610ab2578163746e60b514610a8957816391d1485414610a42578163a217fddf14610a27578163bed9757e14610935578163c4d66de8146107de578163d01c44cd146105dd578163d547741f1461059e578163d5a73fdd1461049e578163e12f3a6114610471578163eab23abe14610126575063fc0c546a146100e057600080fd5b34610122578160031936011261012257517f00000000000000000000000000000000000000000000000000000000000000006001600160a01b03168152602090f35b5080fd5b9190503461046d5760a036600319011261046d57610142610c12565b6002546044926024803593608435936064803593928835926001600160a01b03919082163314801561042f575b156103ef57169788156103b0578715610371578415610332578483116102f3574287106102b55750506101a56101ac9186610d28565b9285610d28565b938351906101b982610c43565b86825260208201908a8252858301908152606083019085825260808401928884528a8d526003602052878d20805490680100000000000000008210156102a2579061020991600182018155610c97565b95909561029157908c9493929151865551600186015551600285015551600384015551910155858852600360205282882054966000198801978811610280575050815193845260208401528201527f0ef11fd80fff9cb633beabeab03e30cd8c01b8f7f20493f9644fc85b9cd5bc7890606090a380f35b634e487b7160e01b89526011905287fd5b634e487b7160e01b8e528d8d52868efd5b50634e487b7160e01b8e5260418d52868efd5b7f56657374696e675661756c743a20696e76616c69642073746172742074696d658a91602086818a519562461bcd60e51b8752860152840152820152fd5b7f56657374696e675661756c743a20636c696666203e206475726174696f6e00008a91601e8660208a519562461bcd60e51b8752860152840152820152fd5b7f56657374696e675661756c743a207a65726f206475726174696f6e00000000008a91601b8660208a519562461bcd60e51b8752860152840152820152fd5b7f56657374696e675661756c743a207a65726f20616d6f756e74000000000000008a9160198660208a519562461bcd60e51b8752860152840152820152fd5b7f56657374696e675661756c743a207a65726f20616464726573730000000000008a91601a8660208a519562461bcd60e51b8752860152840152820152fd5b865162461bcd60e51b81526020818d0152601c818701527f56657374696e675661756c743a206e6f7420617574686f72697a656400000000818c01528390fd5b507fdb9284895a7211bfd1c970298a1ed435786c5e0cd6ec4810e5f98b0ac05f46348c526001602052868c20338d5260205260ff878d20541661016f565b8280fd5b50503461012257602036600319011261012257602090610497610492610c12565b610d49565b9051908152f35b90503461046d576020928360031936011261059b576001600160a01b036104c3610c12565b168152600384528281209182549067ffffffffffffffff8211610588575060058451936104f5878460051b0186610c75565b82855283528583208390878087015b85841061056a5750878787805b82518110156105615760606105268285610d35565b510151421015610539575b600101610511565b9061055960019161055361054d8587610d35565b51610ffd565b90610d28565b919050610531565b84828551908152f35b600191859161057885610cc9565b8152019201920191908890610504565b634e487b7160e01b835260419052602482fd5b80fd5b9190503461046d578060031936011261046d576105d991356105d460016105c3610c2d565b938387528160205286200154610e31565b610f86565b5080f35b9050823461059b578060031936011261059b5760028154146107cf576002815561060633610d49565b90811561078c57338152600391600360205284822094825b8654811015610689578061063460019289610c97565b50868101544210610683578261065161064c83610cc9565b610ffd565b91019061066082548092610d05565b80610670575b5050505b0161061e565b61067991610d28565b9055888080610666565b5061066a565b50847f0000000000000000000000000000000000000000000000000000000000000000908251602081019063a9059cbb60e01b8252336024820152856044820152604481526080810181811067ffffffffffffffff8211176107795785525160209187919082865af11561076f5784513d61076657506001600160a01b0382163b155b610743575050519081527f896e034966eaaf1adc54acc0f257056febbd300c9e47182cf761982cf1f5e43060203392a26001815580f35b9151635274afe760e01b81526001600160a01b0390911691810191909152602490fd5b6001141561070c565b82513d86823e3d90fd5b634e487b7160e01b885260418452602488fd5b835162461bcd60e51b8152602081850152601e60248201527f56657374696e675661756c743a206e6f7468696e6720746f20636c61696d00006044820152606490fd5b509051633ee5aeb560e01b8152fd5b83915034610122576020366003190112610122576107fa610c12565b828052600160205283832033845260205260ff8484205416156109185760025460ff8160a01c166108cb576001600160a01b03821692831561087d57506001600160a81b0319168217600160a01b1760025561085590610e75565b507fadff7df86b8dc467f3929512ab26ba6a6ecc855ad5d5eacbce8ba5b5ff9be0a78280a280f35b608490602087519162461bcd60e51b8352820152602260248201527f56657374696e675661756c743a207a65726f206d616e61676572206164647265604482015261737360f01b6064820152fd5b845162461bcd60e51b8152602081850152602160248201527f56657374696e675661756c743a20616c726561647920696e697469616c697a656044820152601960fa1b6064820152608490fd5b5090604492519163e2517d3f60e01b835233908301526024820152fd5b83915034610122578260031936011261012257610950610c12565b916024359184519361096185610c43565b82855282608060209682888201528289820152826060820152015260018060a01b03169081835260038552858320548410156109e457506109b360809386846109b99460a09996526003885220610c97565b50610cc9565b9080519382518552808301519085015280820151908401526060810151606084015201516080820152f35b855162461bcd60e51b8152908101859052601b60248201527f56657374696e675661756c743a20696e76616c696420696e64657800000000006044820152606490fd5b50503461012257816003193601126101225751908152602090f35b90503461046d578160031936011261046d578160209360ff92610a63610c2d565b90358252600186528282206001600160a01b039091168252855220549151911615158152f35b50503461012257816003193601126101225760025490516001600160a01b039091168152602090f35b838334610122578060031936011261012257610acc610c2d565b90336001600160a01b03831603610ae957506105d9919235610f86565b5163334bd91960e11b81528390fd5b9190503461046d578060031936011261046d576105d99135610b1d60016105c3610c2d565b610f06565b90503461046d57602036600319011261046d57816020936001923581528285522001549051908152f35b505034610122578160031936011261012257602090517fdb9284895a7211bfd1c970298a1ed435786c5e0cd6ec4810e5f98b0ac05f46348152f35b5050346101225760203660031901126101225760209181906001600160a01b03610baf610c12565b1681526003845220549051908152f35b84913461046d57602036600319011261046d573563ffffffff60e01b811680910361046d5760209250637965db0b60e01b8114908115610c01575b5015158152f35b6301ffc9a760e01b14905083610bfa565b600435906001600160a01b0382168203610c2857565b600080fd5b602435906001600160a01b0382168203610c2857565b60a0810190811067ffffffffffffffff821117610c5f57604052565b634e487b7160e01b600052604160045260246000fd5b90601f8019910116810190811067ffffffffffffffff821117610c5f57604052565b8054821015610cb3576000526005602060002091020190600090565b634e487b7160e01b600052603260045260246000fd5b90604051610cd681610c43565b608060048294805484526001810154602085015260028101546040850152600381015460608501520154910152565b91908203918211610d1257565b634e487b7160e01b600052601160045260246000fd5b91908201809211610d1257565b8051821015610cb35760209160051b010190565b6001600160a01b03166000908152600360209081526040822080549093929067ffffffffffffffff8111610e1d57600560405195610d8c858460051b0188610c75565b82875283528383208390858089015b858410610dff57505050505050805b8451821015610df957610dbd8286610d35565b5160608101514210610def576001916105538286610ddd610de695610ffd565b91015190610d05565b915b0190610daa565b5090600190610de8565b93505050565b6001918591610e0d85610cc9565b8152019201920191908690610d9b565b634e487b7160e01b82526041600452602482fd5b80600052600160205260406000203360005260205260ff6040600020541615610e575750565b6044906040519063e2517d3f60e01b82523360048301526024820152fd5b6001600160a01b031660008181527fa6eef7e35abe7026729641147f7915573c7e97b47efa546f5f6e3230263bcb49602052604081205490919060ff16610f025781805260016020526040822081835260205260408220600160ff1982541617905533917f2f8788117e7eff1d82e926ec794901d17c78024a50270940304540a733656f0d8180a4600190565b5090565b906000918083526001602052604083209160018060a01b03169182845260205260ff60408420541615600014610f815780835260016020526040832082845260205260408320600160ff198254161790557f2f8788117e7eff1d82e926ec794901d17c78024a50270940304540a733656f0d339380a4600190565b505090565b906000918083526001602052604083209160018060a01b03169182845260205260ff604084205416600014610f81578083526001602052604083208284526020526040832060ff1981541690557ff6391f5c32d9c69d2a47ea670b442974b53935d1edc7fd64eb21e047a839171b339380a4600190565b606081015142106110695760808101519081421015611063576110316110296040830193845190610d05565b925142610d05565b9051818102918183041490151715610d1257811561104d570490565b634e487b7160e01b600052601260045260246000fd5b90505190565b5060009056fea264697066735822122039890c7e33cd7c8ec993357dcb337783f25549a307a31c64c7cf045c12b7d07c64736f6c63430008180033","opcodes":"PUSH1 0xA0 CALLVALUE PUSH2 0xCB JUMPI PUSH1 0x1F PUSH2 0x121D CODESIZE DUP2 SWAP1 SUB SWAP2 DUP3 ADD PUSH1 0x1F NOT AND DUP4 ADD SWAP2 PUSH1 0x1 PUSH1 0x1 PUSH1 0x40 SHL SUB DUP4 GT DUP5 DUP5 LT OR PUSH2 0xD0 JUMPI DUP1 DUP5 SWAP3 PUSH1 0x20 SWAP5 PUSH1 0x40 MSTORE DUP4 CODECOPY DUP2 ADD SUB SLT PUSH2 0xCB JUMPI MLOAD PUSH1 0x1 PUSH1 0x1 PUSH1 0xA0 SHL SUB DUP2 AND SWAP1 DUP2 SWAP1 SUB PUSH2 0xCB JUMPI PUSH1 0x1 PUSH1 0x0 SSTORE DUP1 ISZERO PUSH2 0x87 JUMPI PUSH1 0x80 MSTORE PUSH2 0x68 CALLER PUSH2 0xE6 JUMP JUMPDEST POP PUSH1 0x40 MLOAD PUSH2 0x10A5 SWAP1 DUP2 PUSH2 0x178 DUP3 CODECOPY PUSH1 0x80 MLOAD DUP2 DUP2 DUP2 PUSH1 0xF3 ADD MSTORE PUSH2 0x68D ADD MSTORE RETURN JUMPDEST PUSH1 0x64 PUSH1 0x40 MLOAD PUSH3 0x461BCD PUSH1 0xE5 SHL DUP2 MSTORE PUSH1 0x20 PUSH1 0x4 DUP3 ADD MSTORE PUSH1 0x20 PUSH1 0x24 DUP3 ADD MSTORE PUSH32 0x56657374696E675661756C743A207A65726F20746F6B656E2061646472657373 PUSH1 0x44 DUP3 ADD MSTORE REVERT JUMPDEST PUSH1 0x0 DUP1 REVERT JUMPDEST PUSH4 0x4E487B71 PUSH1 0xE0 SHL PUSH1 0x0 MSTORE PUSH1 0x41 PUSH1 0x4 MSTORE PUSH1 0x24 PUSH1 0x0 REVERT JUMPDEST PUSH1 0x1 PUSH1 0x1 PUSH1 0xA0 SHL SUB AND PUSH1 0x0 DUP2 DUP2 MSTORE PUSH32 0xA6EEF7E35ABE7026729641147F7915573C7E97B47EFA546F5F6E3230263BCB49 PUSH1 0x20 MSTORE PUSH1 0x40 DUP2 KECCAK256 SLOAD SWAP1 SWAP2 SWAP1 PUSH1 0xFF AND PUSH2 0x173 JUMPI DUP2 DUP1 MSTORE PUSH1 0x1 PUSH1 0x20 MSTORE PUSH1 0x40 DUP3 KECCAK256 DUP2 DUP4 MSTORE PUSH1 0x20 MSTORE PUSH1 0x40 DUP3 KECCAK256 PUSH1 0x1 PUSH1 0xFF NOT DUP3 SLOAD AND OR SWAP1 SSTORE CALLER SWAP2 PUSH32 0x2F8788117E7EFF1D82E926EC794901D17C78024A50270940304540A733656F0D DUP2 DUP1 LOG4 PUSH1 0x1 SWAP1 JUMP JUMPDEST POP SWAP1 JUMP INVALID PUSH1 0x80 PUSH1 0x40 DUP2 DUP2 MSTORE PUSH1 0x4 SWAP2 DUP3 CALLDATASIZE LT ISZERO PUSH2 0x16 JUMPI PUSH1 0x0 DUP1 REVERT JUMPDEST PUSH1 0x0 SWAP3 DUP4 CALLDATALOAD PUSH1 0xE0 SHR SWAP2 DUP3 PUSH4 0x1FFC9A7 EQ PUSH2 0xBBF JUMPI POP DUP2 PUSH4 0x7D0D916 EQ PUSH2 0xB87 JUMPI DUP2 PUSH4 0xB90FCA1 EQ PUSH2 0xB4C JUMPI DUP2 PUSH4 0x248A9CA3 EQ PUSH2 0xB22 JUMPI DUP2 PUSH4 0x2F2FF15D EQ PUSH2 0xAF8 JUMPI DUP2 PUSH4 0x36568ABE EQ PUSH2 0xAB2 JUMPI DUP2 PUSH4 0x746E60B5 EQ PUSH2 0xA89 JUMPI DUP2 PUSH4 0x91D14854 EQ PUSH2 0xA42 JUMPI DUP2 PUSH4 0xA217FDDF EQ PUSH2 0xA27 JUMPI DUP2 PUSH4 0xBED9757E EQ PUSH2 0x935 JUMPI DUP2 PUSH4 0xC4D66DE8 EQ PUSH2 0x7DE JUMPI DUP2 PUSH4 0xD01C44CD EQ PUSH2 0x5DD JUMPI DUP2 PUSH4 0xD547741F EQ PUSH2 0x59E JUMPI DUP2 PUSH4 0xD5A73FDD EQ PUSH2 0x49E JUMPI DUP2 PUSH4 0xE12F3A61 EQ PUSH2 0x471 JUMPI DUP2 PUSH4 0xEAB23ABE EQ PUSH2 0x126 JUMPI POP PUSH4 0xFC0C546A EQ PUSH2 0xE0 JUMPI PUSH1 0x0 DUP1 REVERT JUMPDEST CALLVALUE PUSH2 0x122 JUMPI DUP2 PUSH1 0x3 NOT CALLDATASIZE ADD SLT PUSH2 0x122 JUMPI MLOAD PUSH32 0x0 PUSH1 0x1 PUSH1 0x1 PUSH1 0xA0 SHL SUB AND DUP2 MSTORE PUSH1 0x20 SWAP1 RETURN JUMPDEST POP DUP1 REVERT JUMPDEST SWAP2 SWAP1 POP CALLVALUE PUSH2 0x46D JUMPI PUSH1 0xA0 CALLDATASIZE PUSH1 0x3 NOT ADD SLT PUSH2 0x46D JUMPI PUSH2 0x142 PUSH2 0xC12 JUMP JUMPDEST PUSH1 0x2 SLOAD PUSH1 0x44 SWAP3 PUSH1 0x24 DUP1 CALLDATALOAD SWAP4 PUSH1 0x84 CALLDATALOAD SWAP4 PUSH1 0x64 DUP1 CALLDATALOAD SWAP4 SWAP3 DUP9 CALLDATALOAD SWAP3 PUSH1 0x1 PUSH1 0x1 PUSH1 0xA0 SHL SUB SWAP2 SWAP1 DUP3 AND CALLER EQ DUP1 ISZERO PUSH2 0x42F JUMPI JUMPDEST ISZERO PUSH2 0x3EF JUMPI AND SWAP8 DUP9 ISZERO PUSH2 0x3B0 JUMPI DUP8 ISZERO PUSH2 0x371 JUMPI DUP5 ISZERO PUSH2 0x332 JUMPI DUP5 DUP4 GT PUSH2 0x2F3 JUMPI TIMESTAMP DUP8 LT PUSH2 0x2B5 JUMPI POP POP PUSH2 0x1A5 PUSH2 0x1AC SWAP2 DUP7 PUSH2 0xD28 JUMP JUMPDEST SWAP3 DUP6 PUSH2 0xD28 JUMP JUMPDEST SWAP4 DUP4 MLOAD SWAP1 PUSH2 0x1B9 DUP3 PUSH2 0xC43 JUMP JUMPDEST DUP7 DUP3 MSTORE PUSH1 0x20 DUP3 ADD SWAP1 DUP11 DUP3 MSTORE DUP6 DUP4 ADD SWAP1 DUP2 MSTORE PUSH1 0x60 DUP4 ADD SWAP1 DUP6 DUP3 MSTORE PUSH1 0x80 DUP5 ADD SWAP3 DUP9 DUP5 MSTORE DUP11 DUP14 MSTORE PUSH1 0x3 PUSH1 0x20 MSTORE DUP8 DUP14 KECCAK256 DUP1 SLOAD SWAP1 PUSH9 0x10000000000000000 DUP3 LT ISZERO PUSH2 0x2A2 JUMPI SWAP1 PUSH2 0x209 SWAP2 PUSH1 0x1 DUP3 ADD DUP2 SSTORE PUSH2 0xC97 JUMP JUMPDEST SWAP6 SWAP1 SWAP6 PUSH2 0x291 JUMPI SWAP1 DUP13 SWAP5 SWAP4 SWAP3 SWAP2 MLOAD DUP7 SSTORE MLOAD PUSH1 0x1 DUP7 ADD SSTORE MLOAD PUSH1 0x2 DUP6 ADD SSTORE MLOAD PUSH1 0x3 DUP5 ADD SSTORE MLOAD SWAP2 ADD SSTORE DUP6 DUP9 MSTORE PUSH1 0x3 PUSH1 0x20 MSTORE DUP3 DUP9 KECCAK256 SLOAD SWAP7 PUSH1 0x0 NOT DUP9 ADD SWAP8 DUP9 GT PUSH2 0x280 JUMPI POP POP DUP2 MLOAD SWAP4 DUP5 MSTORE PUSH1 0x20 DUP5 ADD MSTORE DUP3 ADD MSTORE PUSH32 0xEF11FD80FFF9CB633BEABEAB03E30CD8C01B8F7F20493F9644FC85B9CD5BC78 SWAP1 PUSH1 0x60 SWAP1 LOG3 DUP1 RETURN JUMPDEST PUSH4 0x4E487B71 PUSH1 0xE0 SHL DUP10 MSTORE PUSH1 0x11 SWAP1 MSTORE DUP8 REVERT JUMPDEST PUSH4 0x4E487B71 PUSH1 0xE0 SHL DUP15 MSTORE DUP14 DUP14 MSTORE DUP7 DUP15 REVERT JUMPDEST POP PUSH4 0x4E487B71 PUSH1 0xE0 SHL DUP15 MSTORE PUSH1 0x41 DUP14 MSTORE DUP7 DUP15 REVERT JUMPDEST PUSH32 0x56657374696E675661756C743A20696E76616C69642073746172742074696D65 DUP11 SWAP2 PUSH1 0x20 DUP7 DUP2 DUP11 MLOAD SWAP6 PUSH3 0x461BCD PUSH1 0xE5 SHL DUP8 MSTORE DUP7 ADD MSTORE DUP5 ADD MSTORE DUP3 ADD MSTORE REVERT JUMPDEST PUSH32 0x56657374696E675661756C743A20636C696666203E206475726174696F6E0000 DUP11 SWAP2 PUSH1 0x1E DUP7 PUSH1 0x20 DUP11 MLOAD SWAP6 PUSH3 0x461BCD PUSH1 0xE5 SHL DUP8 MSTORE DUP7 ADD MSTORE DUP5 ADD MSTORE DUP3 ADD MSTORE REVERT JUMPDEST PUSH32 0x56657374696E675661756C743A207A65726F206475726174696F6E0000000000 DUP11 SWAP2 PUSH1 0x1B DUP7 PUSH1 0x20 DUP11 MLOAD SWAP6 PUSH3 0x461BCD PUSH1 0xE5 SHL DUP8 MSTORE DUP7 ADD MSTORE DUP5 ADD MSTORE DUP3 ADD MSTORE REVERT JUMPDEST PUSH32 0x56657374696E675661756C743A207A65726F20616D6F756E7400000000000000 DUP11 SWAP2 PUSH1 0x19 DUP7 PUSH1 0x20 DUP11 MLOAD SWAP6 PUSH3 0x461BCD PUSH1 0xE5 SHL DUP8 MSTORE DUP7 ADD MSTORE DUP5 ADD MSTORE DUP3 ADD MSTORE REVERT JUMPDEST PUSH32 0x56657374696E675661756C743A207A65726F2061646472657373000000000000 DUP11 SWAP2 PUSH1 0x1A DUP7 PUSH1 0x20 DUP11 MLOAD SWAP6 PUSH3 0x461BCD PUSH1 0xE5 SHL DUP8 MSTORE DUP7 ADD MSTORE DUP5 ADD MSTORE DUP3 ADD MSTORE REVERT JUMPDEST DUP7 MLOAD PUSH3 0x461BCD PUSH1 0xE5 SHL DUP2 MSTORE PUSH1 0x20 DUP2 DUP14 ADD MSTORE PUSH1 0x1C DUP2 DUP8 ADD MSTORE PUSH32 0x56657374696E675661756C743A206E6F7420617574686F72697A656400000000 DUP2 DUP13 ADD MSTORE DUP4 SWAP1 REVERT JUMPDEST POP PUSH32 0xDB9284895A7211BFD1C970298A1ED435786C5E0CD6EC4810E5F98B0AC05F4634 DUP13 MSTORE PUSH1 0x1 PUSH1 0x20 MSTORE DUP7 DUP13 KECCAK256 CALLER DUP14 MSTORE PUSH1 0x20 MSTORE PUSH1 0xFF DUP8 DUP14 KECCAK256 SLOAD AND PUSH2 0x16F JUMP JUMPDEST DUP3 DUP1 REVERT JUMPDEST POP POP CALLVALUE PUSH2 0x122 JUMPI PUSH1 0x20 CALLDATASIZE PUSH1 0x3 NOT ADD SLT PUSH2 0x122 JUMPI PUSH1 0x20 SWAP1 PUSH2 0x497 PUSH2 0x492 PUSH2 0xC12 JUMP JUMPDEST PUSH2 0xD49 JUMP JUMPDEST SWAP1 MLOAD SWAP1 DUP2 MSTORE RETURN JUMPDEST SWAP1 POP CALLVALUE PUSH2 0x46D JUMPI PUSH1 0x20 SWAP3 DUP4 PUSH1 0x3 NOT CALLDATASIZE ADD SLT PUSH2 0x59B JUMPI PUSH1 0x1 PUSH1 0x1 PUSH1 0xA0 SHL SUB PUSH2 0x4C3 PUSH2 0xC12 JUMP JUMPDEST AND DUP2 MSTORE PUSH1 0x3 DUP5 MSTORE DUP3 DUP2 KECCAK256 SWAP2 DUP3 SLOAD SWAP1 PUSH8 0xFFFFFFFFFFFFFFFF DUP3 GT PUSH2 0x588 JUMPI POP PUSH1 0x5 DUP5 MLOAD SWAP4 PUSH2 0x4F5 DUP8 DUP5 PUSH1 0x5 SHL ADD DUP7 PUSH2 0xC75 JUMP JUMPDEST DUP3 DUP6 MSTORE DUP4 MSTORE DUP6 DUP4 KECCAK256 DUP4 SWAP1 DUP8 DUP1 DUP8 ADD JUMPDEST DUP6 DUP5 LT PUSH2 0x56A JUMPI POP DUP8 DUP8 DUP8 DUP1 JUMPDEST DUP3 MLOAD DUP2 LT ISZERO PUSH2 0x561 JUMPI PUSH1 0x60 PUSH2 0x526 DUP3 DUP6 PUSH2 0xD35 JUMP JUMPDEST MLOAD ADD MLOAD TIMESTAMP LT ISZERO PUSH2 0x539 JUMPI JUMPDEST PUSH1 0x1 ADD PUSH2 0x511 JUMP JUMPDEST SWAP1 PUSH2 0x559 PUSH1 0x1 SWAP2 PUSH2 0x553 PUSH2 0x54D DUP6 DUP8 PUSH2 0xD35 JUMP JUMPDEST MLOAD PUSH2 0xFFD JUMP JUMPDEST SWAP1 PUSH2 0xD28 JUMP JUMPDEST SWAP2 SWAP1 POP PUSH2 0x531 JUMP JUMPDEST DUP5 DUP3 DUP6 MLOAD SWAP1 DUP2 MSTORE RETURN JUMPDEST PUSH1 0x1 SWAP2 DUP6 SWAP2 PUSH2 0x578 DUP6 PUSH2 0xCC9 JUMP JUMPDEST DUP2 MSTORE ADD SWAP3 ADD SWAP3 ADD SWAP2 SWAP1 DUP9 SWAP1 PUSH2 0x504 JUMP JUMPDEST PUSH4 0x4E487B71 PUSH1 0xE0 SHL DUP4 MSTORE PUSH1 0x41 SWAP1 MSTORE PUSH1 0x24 DUP3 REVERT JUMPDEST DUP1 REVERT JUMPDEST SWAP2 SWAP1 POP CALLVALUE PUSH2 0x46D JUMPI DUP1 PUSH1 0x3 NOT CALLDATASIZE ADD SLT PUSH2 0x46D JUMPI PUSH2 0x5D9 SWAP2 CALLDATALOAD PUSH2 0x5D4 PUSH1 0x1 PUSH2 0x5C3 PUSH2 0xC2D JUMP JUMPDEST SWAP4 DUP4 DUP8 MSTORE DUP2 PUSH1 0x20 MSTORE DUP7 KECCAK256 ADD SLOAD PUSH2 0xE31 JUMP JUMPDEST PUSH2 0xF86 JUMP JUMPDEST POP DUP1 RETURN JUMPDEST SWAP1 POP DUP3 CALLVALUE PUSH2 0x59B JUMPI DUP1 PUSH1 0x3 NOT CALLDATASIZE ADD SLT PUSH2 0x59B JUMPI PUSH1 0x2 DUP2 SLOAD EQ PUSH2 0x7CF JUMPI PUSH1 0x2 DUP2 SSTORE PUSH2 0x606 CALLER PUSH2 0xD49 JUMP JUMPDEST SWAP1 DUP2 ISZERO PUSH2 0x78C JUMPI CALLER DUP2 MSTORE PUSH1 0x3 SWAP2 PUSH1 0x3 PUSH1 0x20 MSTORE DUP5 DUP3 KECCAK256 SWAP5 DUP3 JUMPDEST DUP7 SLOAD DUP2 LT ISZERO PUSH2 0x689 JUMPI DUP1 PUSH2 0x634 PUSH1 0x1 SWAP3 DUP10 PUSH2 0xC97 JUMP JUMPDEST POP DUP7 DUP2 ADD SLOAD TIMESTAMP LT PUSH2 0x683 JUMPI DUP3 PUSH2 0x651 PUSH2 0x64C DUP4 PUSH2 0xCC9 JUMP JUMPDEST PUSH2 0xFFD JUMP JUMPDEST SWAP2 ADD SWAP1 PUSH2 0x660 DUP3 SLOAD DUP1 SWAP3 PUSH2 0xD05 JUMP JUMPDEST DUP1 PUSH2 0x670 JUMPI JUMPDEST POP POP POP JUMPDEST ADD PUSH2 0x61E JUMP JUMPDEST PUSH2 0x679 SWAP2 PUSH2 0xD28 JUMP JUMPDEST SWAP1 SSTORE DUP9 DUP1 DUP1 PUSH2 0x666 JUMP JUMPDEST POP PUSH2 0x66A JUMP JUMPDEST POP DUP5 PUSH32 0x0 SWAP1 DUP3 MLOAD PUSH1 0x20 DUP2 ADD SWAP1 PUSH4 0xA9059CBB PUSH1 0xE0 SHL DUP3 MSTORE CALLER PUSH1 0x24 DUP3 ADD MSTORE DUP6 PUSH1 0x44 DUP3 ADD MSTORE PUSH1 0x44 DUP2 MSTORE PUSH1 0x80 DUP2 ADD DUP2 DUP2 LT PUSH8 0xFFFFFFFFFFFFFFFF DUP3 GT OR PUSH2 0x779 JUMPI DUP6 MSTORE MLOAD PUSH1 0x20 SWAP2 DUP8 SWAP2 SWAP1 DUP3 DUP7 GAS CALL ISZERO PUSH2 0x76F JUMPI DUP5 MLOAD RETURNDATASIZE PUSH2 0x766 JUMPI POP PUSH1 0x1 PUSH1 0x1 PUSH1 0xA0 SHL SUB DUP3 AND EXTCODESIZE ISZERO JUMPDEST PUSH2 0x743 JUMPI POP POP MLOAD SWAP1 DUP2 MSTORE PUSH32 0x896E034966EAAF1ADC54ACC0F257056FEBBD300C9E47182CF761982CF1F5E430 PUSH1 0x20 CALLER SWAP3 LOG2 PUSH1 0x1 DUP2 SSTORE DUP1 RETURN JUMPDEST SWAP2 MLOAD PUSH4 0x5274AFE7 PUSH1 0xE0 SHL DUP2 MSTORE PUSH1 0x1 PUSH1 0x1 PUSH1 0xA0 SHL SUB SWAP1 SWAP2 AND SWAP2 DUP2 ADD SWAP2 SWAP1 SWAP2 MSTORE PUSH1 0x24 SWAP1 REVERT JUMPDEST PUSH1 0x1 EQ ISZERO PUSH2 0x70C JUMP JUMPDEST DUP3 MLOAD RETURNDATASIZE DUP7 DUP3 RETURNDATACOPY RETURNDATASIZE SWAP1 REVERT JUMPDEST PUSH4 0x4E487B71 PUSH1 0xE0 SHL DUP9 MSTORE PUSH1 0x41 DUP5 MSTORE PUSH1 0x24 DUP9 REVERT JUMPDEST DUP4 MLOAD PUSH3 0x461BCD PUSH1 0xE5 SHL DUP2 MSTORE PUSH1 0x20 DUP2 DUP6 ADD MSTORE PUSH1 0x1E PUSH1 0x24 DUP3 ADD MSTORE PUSH32 0x56657374696E675661756C743A206E6F7468696E6720746F20636C61696D0000 PUSH1 0x44 DUP3 ADD MSTORE PUSH1 0x64 SWAP1 REVERT JUMPDEST POP SWAP1 MLOAD PUSH4 0x3EE5AEB5 PUSH1 0xE0 SHL DUP2 MSTORE REVERT JUMPDEST DUP4 SWAP2 POP CALLVALUE PUSH2 0x122 JUMPI PUSH1 0x20 CALLDATASIZE PUSH1 0x3 NOT ADD SLT PUSH2 0x122 JUMPI PUSH2 0x7FA PUSH2 0xC12 JUMP JUMPDEST DUP3 DUP1 MSTORE PUSH1 0x1 PUSH1 0x20 MSTORE DUP4 DUP4 KECCAK256 CALLER DUP5 MSTORE PUSH1 0x20 MSTORE PUSH1 0xFF DUP5 DUP5 KECCAK256 SLOAD AND ISZERO PUSH2 0x918 JUMPI PUSH1 0x2 SLOAD PUSH1 0xFF DUP2 PUSH1 0xA0 SHR AND PUSH2 0x8CB JUMPI PUSH1 0x1 PUSH1 0x1 PUSH1 0xA0 SHL SUB DUP3 AND SWAP3 DUP4 ISZERO PUSH2 0x87D JUMPI POP PUSH1 0x1 PUSH1 0x1 PUSH1 0xA8 SHL SUB NOT AND DUP3 OR PUSH1 0x1 PUSH1 0xA0 SHL OR PUSH1 0x2 SSTORE PUSH2 0x855 SWAP1 PUSH2 0xE75 JUMP JUMPDEST POP PUSH32 0xADFF7DF86B8DC467F3929512AB26BA6A6ECC855AD5D5EACBCE8BA5B5FF9BE0A7 DUP3 DUP1 LOG2 DUP1 RETURN JUMPDEST PUSH1 0x84 SWAP1 PUSH1 0x20 DUP8 MLOAD SWAP2 PUSH3 0x461BCD PUSH1 0xE5 SHL DUP4 MSTORE DUP3 ADD MSTORE PUSH1 0x22 PUSH1 0x24 DUP3 ADD MSTORE PUSH32 0x56657374696E675661756C743A207A65726F206D616E61676572206164647265 PUSH1 0x44 DUP3 ADD MSTORE PUSH2 0x7373 PUSH1 0xF0 SHL PUSH1 0x64 DUP3 ADD MSTORE REVERT JUMPDEST DUP5 MLOAD PUSH3 0x461BCD PUSH1 0xE5 SHL DUP2 MSTORE PUSH1 0x20 DUP2 DUP6 ADD MSTORE PUSH1 0x21 PUSH1 0x24 DUP3 ADD MSTORE PUSH32 0x56657374696E675661756C743A20616C726561647920696E697469616C697A65 PUSH1 0x44 DUP3 ADD MSTORE PUSH1 0x19 PUSH1 0xFA SHL PUSH1 0x64 DUP3 ADD MSTORE PUSH1 0x84 SWAP1 REVERT JUMPDEST POP SWAP1 PUSH1 0x44 SWAP3 MLOAD SWAP2 PUSH4 0xE2517D3F PUSH1 0xE0 SHL DUP4 MSTORE CALLER SWAP1 DUP4 ADD MSTORE PUSH1 0x24 DUP3 ADD MSTORE REVERT JUMPDEST DUP4 SWAP2 POP CALLVALUE PUSH2 0x122 JUMPI DUP3 PUSH1 0x3 NOT CALLDATASIZE ADD SLT PUSH2 0x122 JUMPI PUSH2 0x950 PUSH2 0xC12 JUMP JUMPDEST SWAP2 PUSH1 0x24 CALLDATALOAD SWAP2 DUP5 MLOAD SWAP4 PUSH2 0x961 DUP6 PUSH2 0xC43 JUMP JUMPDEST DUP3 DUP6 MSTORE DUP3 PUSH1 0x80 PUSH1 0x20 SWAP7 DUP3 DUP9 DUP3 ADD MSTORE DUP3 DUP10 DUP3 ADD MSTORE DUP3 PUSH1 0x60 DUP3 ADD MSTORE ADD MSTORE PUSH1 0x1 DUP1 PUSH1 0xA0 SHL SUB AND SWAP1 DUP2 DUP4 MSTORE PUSH1 0x3 DUP6 MSTORE DUP6 DUP4 KECCAK256 SLOAD DUP5 LT ISZERO PUSH2 0x9E4 JUMPI POP PUSH2 0x9B3 PUSH1 0x80 SWAP4 DUP7 DUP5 PUSH2 0x9B9 SWAP5 PUSH1 0xA0 SWAP10 SWAP7 MSTORE PUSH1 0x3 DUP9 MSTORE KECCAK256 PUSH2 0xC97 JUMP JUMPDEST POP PUSH2 0xCC9 JUMP JUMPDEST SWAP1 DUP1 MLOAD SWAP4 DUP3 MLOAD DUP6 MSTORE DUP1 DUP4 ADD MLOAD SWAP1 DUP6 ADD MSTORE DUP1 DUP3 ADD MLOAD SWAP1 DUP5 ADD MSTORE PUSH1 0x60 DUP2 ADD MLOAD PUSH1 0x60 DUP5 ADD MSTORE ADD MLOAD PUSH1 0x80 DUP3 ADD MSTORE RETURN JUMPDEST DUP6 MLOAD PUSH3 0x461BCD PUSH1 0xE5 SHL DUP2 MSTORE SWAP1 DUP2 ADD DUP6 SWAP1 MSTORE PUSH1 0x1B PUSH1 0x24 DUP3 ADD MSTORE PUSH32 0x56657374696E675661756C743A20696E76616C696420696E6465780000000000 PUSH1 0x44 DUP3 ADD MSTORE PUSH1 0x64 SWAP1 REVERT JUMPDEST POP POP CALLVALUE PUSH2 0x122 JUMPI DUP2 PUSH1 0x3 NOT CALLDATASIZE ADD SLT PUSH2 0x122 JUMPI MLOAD SWAP1 DUP2 MSTORE PUSH1 0x20 SWAP1 RETURN JUMPDEST SWAP1 POP CALLVALUE PUSH2 0x46D JUMPI DUP2 PUSH1 0x3 NOT CALLDATASIZE ADD SLT PUSH2 0x46D JUMPI DUP2 PUSH1 0x20 SWAP4 PUSH1 0xFF SWAP3 PUSH2 0xA63 PUSH2 0xC2D JUMP JUMPDEST SWAP1 CALLDATALOAD DUP3 MSTORE PUSH1 0x1 DUP7 MSTORE DUP3 DUP3 KECCAK256 PUSH1 0x1 PUSH1 0x1 PUSH1 0xA0 SHL SUB SWAP1 SWAP2 AND DUP3 MSTORE DUP6 MSTORE KECCAK256 SLOAD SWAP2 MLOAD SWAP2 AND ISZERO ISZERO DUP2 MSTORE RETURN JUMPDEST POP POP CALLVALUE PUSH2 0x122 JUMPI DUP2 PUSH1 0x3 NOT CALLDATASIZE ADD SLT PUSH2 0x122 JUMPI PUSH1 0x2 SLOAD SWAP1 MLOAD PUSH1 0x1 PUSH1 0x1 PUSH1 0xA0 SHL SUB SWAP1 SWAP2 AND DUP2 MSTORE PUSH1 0x20 SWAP1 RETURN JUMPDEST DUP4 DUP4 CALLVALUE PUSH2 0x122 JUMPI DUP1 PUSH1 0x3 NOT CALLDATASIZE ADD SLT PUSH2 0x122 JUMPI PUSH2 0xACC PUSH2 0xC2D JUMP JUMPDEST SWAP1 CALLER PUSH1 0x1 PUSH1 0x1 PUSH1 0xA0 SHL SUB DUP4 AND SUB PUSH2 0xAE9 JUMPI POP PUSH2 0x5D9 SWAP2 SWAP3 CALLDATALOAD PUSH2 0xF86 JUMP JUMPDEST MLOAD PUSH4 0x334BD919 PUSH1 0xE1 SHL DUP2 MSTORE DUP4 SWAP1 REVERT JUMPDEST SWAP2 SWAP1 POP CALLVALUE PUSH2 0x46D JUMPI DUP1 PUSH1 0x3 NOT CALLDATASIZE ADD SLT PUSH2 0x46D JUMPI PUSH2 0x5D9 SWAP2 CALLDATALOAD PUSH2 0xB1D PUSH1 0x1 PUSH2 0x5C3 PUSH2 0xC2D JUMP JUMPDEST PUSH2 0xF06 JUMP JUMPDEST SWAP1 POP CALLVALUE PUSH2 0x46D JUMPI PUSH1 0x20 CALLDATASIZE PUSH1 0x3 NOT ADD SLT PUSH2 0x46D JUMPI DUP2 PUSH1 0x20 SWAP4 PUSH1 0x1 SWAP3 CALLDATALOAD DUP2 MSTORE DUP3 DUP6 MSTORE KECCAK256 ADD SLOAD SWAP1 MLOAD SWAP1 DUP2 MSTORE RETURN JUMPDEST POP POP CALLVALUE PUSH2 0x122 JUMPI DUP2 PUSH1 0x3 NOT CALLDATASIZE ADD SLT PUSH2 0x122 JUMPI PUSH1 0x20 SWAP1 MLOAD PUSH32 0xDB9284895A7211BFD1C970298A1ED435786C5E0CD6EC4810E5F98B0AC05F4634 DUP2 MSTORE RETURN JUMPDEST POP POP CALLVALUE PUSH2 0x122 JUMPI PUSH1 0x20 CALLDATASIZE PUSH1 0x3 NOT ADD SLT PUSH2 0x122 JUMPI PUSH1 0x20 SWAP2 DUP2 SWAP1 PUSH1 0x1 PUSH1 0x1 PUSH1 0xA0 SHL SUB PUSH2 0xBAF PUSH2 0xC12 JUMP JUMPDEST AND DUP2 MSTORE PUSH1 0x3 DUP5 MSTORE KECCAK256 SLOAD SWAP1 MLOAD SWAP1 DUP2 MSTORE RETURN JUMPDEST DUP5 SWAP2 CALLVALUE PUSH2 0x46D JUMPI PUSH1 0x20 CALLDATASIZE PUSH1 0x3 NOT ADD SLT PUSH2 0x46D JUMPI CALLDATALOAD PUSH4 0xFFFFFFFF PUSH1 0xE0 SHL DUP2 AND DUP1 SWAP2 SUB PUSH2 0x46D JUMPI PUSH1 0x20 SWAP3 POP PUSH4 0x7965DB0B PUSH1 0xE0 SHL DUP2 EQ SWAP1 DUP2 ISZERO PUSH2 0xC01 JUMPI JUMPDEST POP ISZERO ISZERO DUP2 MSTORE RETURN JUMPDEST PUSH4 0x1FFC9A7 PUSH1 0xE0 SHL EQ SWAP1 POP DUP4 PUSH2 0xBFA JUMP JUMPDEST PUSH1 0x4 CALLDATALOAD SWAP1 PUSH1 0x1 PUSH1 0x1 PUSH1 0xA0 SHL SUB DUP3 AND DUP3 SUB PUSH2 0xC28 JUMPI JUMP JUMPDEST PUSH1 0x0 DUP1 REVERT JUMPDEST PUSH1 0x24 CALLDATALOAD SWAP1 PUSH1 0x1 PUSH1 0x1 PUSH1 0xA0 SHL SUB DUP3 AND DUP3 SUB PUSH2 0xC28 JUMPI JUMP JUMPDEST PUSH1 0xA0 DUP2 ADD SWAP1 DUP2 LT PUSH8 0xFFFFFFFFFFFFFFFF DUP3 GT OR PUSH2 0xC5F JUMPI PUSH1 0x40 MSTORE JUMP JUMPDEST PUSH4 0x4E487B71 PUSH1 0xE0 SHL PUSH1 0x0 MSTORE PUSH1 0x41 PUSH1 0x4 MSTORE PUSH1 0x24 PUSH1 0x0 REVERT JUMPDEST SWAP1 PUSH1 0x1F DUP1 NOT SWAP2 ADD AND DUP2 ADD SWAP1 DUP2 LT PUSH8 0xFFFFFFFFFFFFFFFF DUP3 GT OR PUSH2 0xC5F JUMPI PUSH1 0x40 MSTORE JUMP JUMPDEST DUP1 SLOAD DUP3 LT ISZERO PUSH2 0xCB3 JUMPI PUSH1 0x0 MSTORE PUSH1 0x5 PUSH1 0x20 PUSH1 0x0 KECCAK256 SWAP2 MUL ADD SWAP1 PUSH1 0x0 SWAP1 JUMP JUMPDEST PUSH4 0x4E487B71 PUSH1 0xE0 SHL PUSH1 0x0 MSTORE PUSH1 0x32 PUSH1 0x4 MSTORE PUSH1 0x24 PUSH1 0x0 REVERT JUMPDEST SWAP1 PUSH1 0x40 MLOAD PUSH2 0xCD6 DUP2 PUSH2 0xC43 JUMP JUMPDEST PUSH1 0x80 PUSH1 0x4 DUP3 SWAP5 DUP1 SLOAD DUP5 MSTORE PUSH1 0x1 DUP2 ADD SLOAD PUSH1 0x20 DUP6 ADD MSTORE PUSH1 0x2 DUP2 ADD SLOAD PUSH1 0x40 DUP6 ADD MSTORE PUSH1 0x3 DUP2 ADD SLOAD PUSH1 0x60 DUP6 ADD MSTORE ADD SLOAD SWAP2 ADD MSTORE JUMP JUMPDEST SWAP2 SWAP1 DUP3 SUB SWAP2 DUP3 GT PUSH2 0xD12 JUMPI JUMP JUMPDEST PUSH4 0x4E487B71 PUSH1 0xE0 SHL PUSH1 0x0 MSTORE PUSH1 0x11 PUSH1 0x4 MSTORE PUSH1 0x24 PUSH1 0x0 REVERT JUMPDEST SWAP2 SWAP1 DUP3 ADD DUP1 SWAP3 GT PUSH2 0xD12 JUMPI JUMP JUMPDEST DUP1 MLOAD DUP3 LT ISZERO PUSH2 0xCB3 JUMPI PUSH1 0x20 SWAP2 PUSH1 0x5 SHL ADD ADD SWAP1 JUMP JUMPDEST PUSH1 0x1 PUSH1 0x1 PUSH1 0xA0 SHL SUB AND PUSH1 0x0 SWAP1 DUP2 MSTORE PUSH1 0x3 PUSH1 0x20 SWAP1 DUP2 MSTORE PUSH1 0x40 DUP3 KECCAK256 DUP1 SLOAD SWAP1 SWAP4 SWAP3 SWAP1 PUSH8 0xFFFFFFFFFFFFFFFF DUP2 GT PUSH2 0xE1D JUMPI PUSH1 0x5 PUSH1 0x40 MLOAD SWAP6 PUSH2 0xD8C DUP6 DUP5 PUSH1 0x5 SHL ADD DUP9 PUSH2 0xC75 JUMP JUMPDEST DUP3 DUP8 MSTORE DUP4 MSTORE DUP4 DUP4 KECCAK256 DUP4 SWAP1 DUP6 DUP1 DUP10 ADD JUMPDEST DUP6 DUP5 LT PUSH2 0xDFF JUMPI POP POP POP POP POP POP DUP1 JUMPDEST DUP5 MLOAD DUP3 LT ISZERO PUSH2 0xDF9 JUMPI PUSH2 0xDBD DUP3 DUP7 PUSH2 0xD35 JUMP JUMPDEST MLOAD PUSH1 0x60 DUP2 ADD MLOAD TIMESTAMP LT PUSH2 0xDEF JUMPI PUSH1 0x1 SWAP2 PUSH2 0x553 DUP3 DUP7 PUSH2 0xDDD PUSH2 0xDE6 SWAP6 PUSH2 0xFFD JUMP JUMPDEST SWAP2 ADD MLOAD SWAP1 PUSH2 0xD05 JUMP JUMPDEST SWAP2 JUMPDEST ADD SWAP1 PUSH2 0xDAA JUMP JUMPDEST POP SWAP1 PUSH1 0x1 SWAP1 PUSH2 0xDE8 JUMP JUMPDEST SWAP4 POP POP POP JUMP JUMPDEST PUSH1 0x1 SWAP2 DUP6 SWAP2 PUSH2 0xE0D DUP6 PUSH2 0xCC9 JUMP JUMPDEST DUP2 MSTORE ADD SWAP3 ADD SWAP3 ADD SWAP2 SWAP1 DUP7 SWAP1 PUSH2 0xD9B JUMP JUMPDEST PUSH4 0x4E487B71 PUSH1 0xE0 SHL DUP3 MSTORE PUSH1 0x41 PUSH1 0x4 MSTORE PUSH1 0x24 DUP3 REVERT JUMPDEST DUP1 PUSH1 0x0 MSTORE PUSH1 0x1 PUSH1 0x20 MSTORE PUSH1 0x40 PUSH1 0x0 KECCAK256 CALLER PUSH1 0x0 MSTORE PUSH1 0x20 MSTORE PUSH1 0xFF PUSH1 0x40 PUSH1 0x0 KECCAK256 SLOAD AND ISZERO PUSH2 0xE57 JUMPI POP JUMP JUMPDEST PUSH1 0x44 SWAP1 PUSH1 0x40 MLOAD SWAP1 PUSH4 0xE2517D3F PUSH1 0xE0 SHL DUP3 MSTORE CALLER PUSH1 0x4 DUP4 ADD MSTORE PUSH1 0x24 DUP3 ADD MSTORE REVERT JUMPDEST PUSH1 0x1 PUSH1 0x1 PUSH1 0xA0 SHL SUB AND PUSH1 0x0 DUP2 DUP2 MSTORE PUSH32 0xA6EEF7E35ABE7026729641147F7915573C7E97B47EFA546F5F6E3230263BCB49 PUSH1 0x20 MSTORE PUSH1 0x40 DUP2 KECCAK256 SLOAD SWAP1 SWAP2 SWAP1 PUSH1 0xFF AND PUSH2 0xF02 JUMPI DUP2 DUP1 MSTORE PUSH1 0x1 PUSH1 0x20 MSTORE PUSH1 0x40 DUP3 KECCAK256 DUP2 DUP4 MSTORE PUSH1 0x20 MSTORE PUSH1 0x40 DUP3 KECCAK256 PUSH1 0x1 PUSH1 0xFF NOT DUP3 SLOAD AND OR SWAP1 SSTORE CALLER SWAP2 PUSH32 0x2F8788117E7EFF1D82E926EC794901D17C78024A50270940304540A733656F0D DUP2 DUP1 LOG4 PUSH1 0x1 SWAP1 JUMP JUMPDEST POP SWAP1 JUMP JUMPDEST SWAP1 PUSH1 0x0 SWAP2 DUP1 DUP4 MSTORE PUSH1 0x1 PUSH1 0x20 MSTORE PUSH1 0x40 DUP4 KECCAK256 SWAP2 PUSH1 0x1 DUP1 PUSH1 0xA0 SHL SUB AND SWAP2 DUP3 DUP5 MSTORE PUSH1 0x20 MSTORE PUSH1 0xFF PUSH1 0x40 DUP5 KECCAK256 SLOAD AND ISZERO PUSH1 0x0 EQ PUSH2 0xF81 JUMPI DUP1 DUP4 MSTORE PUSH1 0x1 PUSH1 0x20 MSTORE PUSH1 0x40 DUP4 KECCAK256 DUP3 DUP5 MSTORE PUSH1 0x20 MSTORE PUSH1 0x40 DUP4 KECCAK256 PUSH1 0x1 PUSH1 0xFF NOT DUP3 SLOAD AND OR SWAP1 SSTORE PUSH32 0x2F8788117E7EFF1D82E926EC794901D17C78024A50270940304540A733656F0D CALLER SWAP4 DUP1 LOG4 PUSH1 0x1 SWAP1 JUMP JUMPDEST POP POP SWAP1 JUMP JUMPDEST SWAP1 PUSH1 0x0 SWAP2 DUP1 DUP4 MSTORE PUSH1 0x1 PUSH1 0x20 MSTORE PUSH1 0x40 DUP4 KECCAK256 SWAP2 PUSH1 0x1 DUP1 PUSH1 0xA0 SHL SUB AND SWAP2 DUP3 DUP5 MSTORE PUSH1 0x20 MSTORE PUSH1 0xFF PUSH1 0x40 DUP5 KECCAK256 SLOAD AND PUSH1 0x0 EQ PUSH2 0xF81 JUMPI DUP1 DUP4 MSTORE PUSH1 0x1 PUSH1 0x20 MSTORE PUSH1 0x40 DUP4 KECCAK256 DUP3 DUP5 MSTORE PUSH1 0x20 MSTORE PUSH1 0x40 DUP4 KECCAK256 PUSH1 0xFF NOT DUP2 SLOAD AND SWAP1 SSTORE PUSH32 0xF6391F5C32D9C69D2A47EA670B442974B53935D1EDC7FD64EB21E047A839171B CALLER SWAP4 DUP1 LOG4 PUSH1 0x1 SWAP1 JUMP JUMPDEST PUSH1 0x60 DUP2 ADD MLOAD TIMESTAMP LT PUSH2 0x1069 JUMPI PUSH1 0x80 DUP2 ADD MLOAD SWAP1 DUP2 TIMESTAMP LT ISZERO PUSH2 0x1063 JUMPI PUSH2 0x1031 PUSH2 0x1029 PUSH1 0x40 DUP4 ADD SWAP4 DUP5 MLOAD SWAP1 PUSH2 0xD05 JUMP JUMPDEST SWAP3 MLOAD TIMESTAMP PUSH2 0xD05 JUMP JUMPDEST SWAP1 MLOAD DUP2 DUP2 MUL SWAP2 DUP2 DUP4 DIV EQ SWAP1 ISZERO OR ISZERO PUSH2 0xD12 JUMPI DUP2 ISZERO PUSH2 0x104D JUMPI DIV SWAP1 JUMP JUMPDEST PUSH4 0x4E487B71 PUSH1 0xE0 SHL PUSH1 0x0 MSTORE PUSH1 0x12 PUSH1 0x4 MSTORE PUSH1 0x24 PUSH1 0x0 REVERT JUMPDEST SWAP1 POP MLOAD SWAP1 JUMP JUMPDEST POP PUSH1 0x0 SWAP1 JUMP INVALID LOG2 PUSH5 0x6970667358 0x22 SLT KECCAK256 CODECOPY DUP10 0xC PUSH31 0x33CD7C8EC993357DCB337783F25549A307A31C64C7CF045C12B7D07C64736F PUSH13 0x63430008180033000000000000 "},"methodIdentifiers":{"DEFAULT_ADMIN_ROLE()":"a217fddf","SALE_ROUND_ROLE()":"0b90fca1","claimVested()":"d01c44cd","createVesting(address,uint256,uint256,uint256,uint256)":"eab23abe","getClaimableAmount(address)":"e12f3a61","getRoleAdmin(bytes32)":"248a9ca3","getVestedAmount(address)":"d5a73fdd","getVestingSchedule(address,uint256)":"bed9757e","getVestingScheduleCount(address)":"07d0d916","grantRole(bytes32,address)":"2f2ff15d","hasRole(bytes32,address)":"91d14854","initialize(address)":"c4d66de8","renounceRole(bytes32,address)":"36568abe","revokeRole(bytes32,address)":"d547741f","saleManager()":"746e60b5","supportsInterface(bytes4)":"01ffc9a7","token()":"fc0c546a"}}}}}