{"src/SaleManager.sol":{"SaleManager":{"abi":[{"inputs":[{"internalType":"address","name":"_nebaToken","type":"address"},{"internalType":"address","name":"_kycRegistry","type":"address"},{"internalType":"address","name":"_rateLimiter","type":"address"},{"internalType":"address","name":"_vestingVault","type":"address"},{"internalType":"address","name":"_fundsVault","type":"address"},{"internalType":"address","name":"_usdc","type":"address"},{"internalType":"address","name":"_usdt","type":"address"},{"internalType":"address","name":"_ethUSDOracle","type":"address"},{"internalType":"address","name":"initialOwner","type":"address"}],"stateMutability":"nonpayable","type":"constructor"},{"inputs":[{"internalType":"address","name":"owner","type":"address"}],"name":"OwnableInvalidOwner","type":"error"},{"inputs":[{"internalType":"address","name":"account","type":"address"}],"name":"OwnableUnauthorizedAccount","type":"error"},{"anonymous":false,"inputs":[{"indexed":true,"internalType":"bytes32","name":"operationId","type":"bytes32"}],"name":"OperationCancelled","type":"event"},{"anonymous":false,"inputs":[{"indexed":true,"internalType":"bytes32","name":"operationId","type":"bytes32"}],"name":"OperationExecuted","type":"event"},{"anonymous":false,"inputs":[{"indexed":true,"internalType":"bytes32","name":"operationId","type":"bytes32"},{"indexed":true,"internalType":"address","name":"target","type":"address"},{"indexed":false,"internalType":"uint256","name":"executeTime","type":"uint256"}],"name":"OperationScheduled","type":"event"},{"anonymous":false,"inputs":[{"indexed":true,"internalType":"address","name":"previousOwner","type":"address"},{"indexed":true,"internalType":"address","name":"newOwner","type":"address"}],"name":"OwnershipTransferred","type":"event"},{"anonymous":false,"inputs":[{"indexed":true,"internalType":"address","name":"roundAddress","type":"address"},{"indexed":true,"internalType":"uint256","name":"roundId","type":"uint256"},{"indexed":false,"internalType":"string","name":"name","type":"string"}],"name":"RoundCreated","type":"event"},{"anonymous":false,"inputs":[{"indexed":false,"internalType":"uint256","name":"newDelay","type":"uint256"}],"name":"TimelockDelayUpdated","type":"event"},{"inputs":[{"internalType":"uint256","name":"roundIndex","type":"uint256"}],"name":"authorizeSaleRound","outputs":[],"stateMutability":"nonpayable","type":"function"},{"inputs":[{"internalType":"bytes32","name":"operationId","type":"bytes32"}],"name":"cancelOperation","outputs":[],"stateMutability":"nonpayable","type":"function"},{"inputs":[{"components":[{"internalType":"string","name":"name","type":"string"},{"internalType":"uint256","name":"tokenPriceUSD","type":"uint256"},{"internalType":"uint256","name":"hardCapUSD","type":"uint256"},{"internalType":"uint256","name":"startTime","type":"uint256"},{"internalType":"uint256","name":"endTime","type":"uint256"},{"internalType":"uint256","name":"cliffDuration","type":"uint256"},{"internalType":"uint256","name":"vestingDuration","type":"uint256"},{"internalType":"bool","name":"isActive","type":"bool"}],"internalType":"struct SaleRound.RoundConfig","name":"config","type":"tuple"}],"name":"createRound","outputs":[{"internalType":"address","name":"","type":"address"}],"stateMutability":"nonpayable","type":"function"},{"inputs":[],"name":"ethUSDOracle","outputs":[{"internalType":"address","name":"","type":"address"}],"stateMutability":"view","type":"function"},{"inputs":[{"internalType":"bytes32","name":"operationId","type":"bytes32"}],"name":"executeOperation","outputs":[],"stateMutability":"nonpayable","type":"function"},{"inputs":[],"name":"fundsVault","outputs":[{"internalType":"address","name":"","type":"address"}],"stateMutability":"view","type":"function"},{"inputs":[],"name":"getAllRounds","outputs":[{"internalType":"address[]","name":"","type":"address[]"}],"stateMutability":"view","type":"function"},{"inputs":[{"internalType":"uint256","name":"index","type":"uint256"}],"name":"getRound","outputs":[{"internalType":"address","name":"","type":"address"}],"stateMutability":"view","type":"function"},{"inputs":[],"name":"getRoundCount","outputs":[{"internalType":"uint256","name":"","type":"uint256"}],"stateMutability":"view","type":"function"},{"inputs":[],"name":"kycRegistry","outputs":[{"internalType":"address","name":"","type":"address"}],"stateMutability":"view","type":"function"},{"inputs":[],"name":"nebaToken","outputs":[{"internalType":"contract IERC20","name":"","type":"address"}],"stateMutability":"view","type":"function"},{"inputs":[],"name":"owner","outputs":[{"internalType":"address","name":"","type":"address"}],"stateMutability":"view","type":"function"},{"inputs":[{"internalType":"uint256","name":"roundIndex","type":"uint256"}],"name":"pauseRound","outputs":[],"stateMutability":"nonpayable","type":"function"},{"inputs":[],"name":"rateLimiter","outputs":[{"internalType":"address","name":"","type":"address"}],"stateMutability":"view","type":"function"},{"inputs":[],"name":"referralSystem","outputs":[{"internalType":"contract ReferralSystem","name":"","type":"address"}],"stateMutability":"view","type":"function"},{"inputs":[],"name":"renounceOwnership","outputs":[],"stateMutability":"nonpayable","type":"function"},{"inputs":[{"internalType":"uint256","name":"","type":"uint256"}],"name":"rounds","outputs":[{"internalType":"contract SaleRound","name":"","type":"address"}],"stateMutability":"view","type":"function"},{"inputs":[{"internalType":"address","name":"target","type":"address"},{"internalType":"bytes","name":"data","type":"bytes"}],"name":"scheduleOperation","outputs":[{"internalType":"bytes32","name":"","type":"bytes32"}],"stateMutability":"nonpayable","type":"function"},{"inputs":[],"name":"timelockDelay","outputs":[{"internalType":"uint256","name":"","type":"uint256"}],"stateMutability":"view","type":"function"},{"inputs":[{"internalType":"bytes32","name":"","type":"bytes32"}],"name":"timelockOperations","outputs":[{"internalType":"bytes32","name":"operationId","type":"bytes32"},{"internalType":"address","name":"target","type":"address"},{"internalType":"bytes","name":"data","type":"bytes"},{"internalType":"uint256","name":"executeTime","type":"uint256"},{"internalType":"bool","name":"executed","type":"bool"}],"stateMutability":"view","type":"function"},{"inputs":[{"internalType":"address","name":"newOwner","type":"address"}],"name":"transferOwnership","outputs":[],"stateMutability":"nonpayable","type":"function"},{"inputs":[{"internalType":"uint256","name":"roundIndex","type":"uint256"}],"name":"unpauseRound","outputs":[],"stateMutability":"nonpayable","type":"function"},{"inputs":[{"internalType":"uint256","name":"newDelay","type":"uint256"}],"name":"updateTimelockDelay","outputs":[],"stateMutability":"nonpayable","type":"function"},{"inputs":[],"name":"usdc","outputs":[{"internalType":"address","name":"","type":"address"}],"stateMutability":"view","type":"function"},{"inputs":[],"name":"usdt","outputs":[{"internalType":"address","name":"","type":"address"}],"stateMutability":"view","type":"function"},{"inputs":[],"name":"vestingVault","outputs":[{"internalType":"address","name":"","type":"address"}],"stateMutability":"view","type":"function"}],"evm":{"bytecode":{"linkReferences":{},"object":"6101a06040818152346200038d578190600062005cb2803803809162000026828762000671565b8539610120938491810103126200034e57620000428462000695565b6020926200005284870162000695565b926200006082880162000695565b936200006f6060890162000695565b936200007e60808a0162000695565b6200008c60a08b0162000695565b906200009b60c08c0162000695565b96620000aa60e08d0162000695565b98620000bb610100809e0162000695565b956001600160a01b03958688169081156200062f5789546001600160a01b0319811683178b558b519289929183167f8be0079c531659141344cd1fd0a4f28419497f9722a3daafe3b4186f6b6457e08d80a36202a30060015516908115620005ed575086821615620005a95786831615620005655786841615620005215786851615620004dd57868616156200049957868b16156200045557868c1615620004115760805260a05260c05260e0528a528852610140948552610160958652835161105d808201906001600160401b03821183831017620003fd578991839162004c55833930815203019084f0968715620003f3578161018098808a52169185519263a217fddf60e01b84528284600481845afa9384156200039a578694620003be575b50803b15620003ba578651632f2ff15d60e01b80825260048201959095526001600160a01b03861660248201529086908290604490829084905af180156200039a57620003a4575b5088511691855163388e0a3760e21b81528281600481875afa9283156200039a5786936200035f575b5050823b156200035b57855190815260048101919091526001600160a01b0392909216602483015282908290604490829084905af18015620003515762000336575b505051936145aa9586620006ab8739608051868181610905015261133f015260a051868181610c770152611367015260c051868181610c30015261138f015260e0518681816102f70152818161094c01526113b70152518581816108be01526113df01525184818161118f015261142f0152518381816111d60152611457015251828181610bc9015261148401525181818161026e0152818161099301526114070152f35b62000342829162000647565b6200034e578062000291565b80fd5b83513d84823e3d90fd5b8480fd5b9080929350813d831162000392575b6200037a818362000671565b810103126200038d57519038806200024f565b600080fd5b503d6200036e565b87513d88823e3d90fd5b620003b29095919562000647565b933862000226565b8580fd5b9093508281813d8311620003eb575b620003d9818362000671565b81010312620003ba57519238620001de565b503d620003cd565b84513d85823e3d90fd5b634e487b7160e01b86526041600452602486fd5b895162461bcd60e51b8152600481018e9052601860248201527f53616c654d616e616765723a207a65726f206f7261636c6500000000000000006044820152606490fd5b895162461bcd60e51b8152600481018e9052601660248201527f53616c654d616e616765723a207a65726f2075736474000000000000000000006044820152606490fd5b895162461bcd60e51b8152600481018e9052601660248201527f53616c654d616e616765723a207a65726f2075736463000000000000000000006044820152606490fd5b895162461bcd60e51b8152600481018e9052601760248201527f53616c654d616e616765723a207a65726f2066756e64730000000000000000006044820152606490fd5b895162461bcd60e51b8152600481018e9052601960248201527f53616c654d616e616765723a207a65726f2076657374696e67000000000000006044820152606490fd5b895162461bcd60e51b8152600481018e9052601960248201527f53616c654d616e616765723a207a65726f206c696d69746572000000000000006044820152606490fd5b895162461bcd60e51b8152600481018e9052601560248201527f53616c654d616e616765723a207a65726f206b796300000000000000000000006044820152606490fd5b62461bcd60e51b8152600481018e9052601760248201527f53616c654d616e616765723a207a65726f20746f6b656e0000000000000000006044820152606490fd5b8a51631e4fbdf760e01b8152600481018b9052602490fd5b6001600160401b0381116200065b57604052565b634e487b7160e01b600052604160045260246000fd5b601f909101601f19168101906001600160401b038211908210176200065b57604052565b51906001600160a01b03821682036200038d5756fe608060405260043610156200001357600080fd5b6000803560e01c80631803237a14620016f7578063263f4d9514620012055780632f48ab7d14620011be5780633e413bee14620011775780634006d46a146200105857806347cd47b61462000ca65780634b155b971462000c5f57806353d4fe331462000c185780636de7da781462000bf8578063706eb3ab1462000bb1578063715018a61462000b535780638c65c81f1462000b235780638da5cb5b1462000afa5780638e52d9d31462000a075780638f1327c014620009c2578063a04e876c146200097b578063a5917baf1462000934578063ac76a90814620008ed578063b6cb7f4114620008a6578063beadf95714620007ac578063cbaf2fa714620005ac578063e3d0cc271462000545578063e5066bbf146200044a578063e700ea1c146200020a578063eef09bad14620001ea5763f2fde38b146200015657600080fd5b34620001e7576020366003190112620001e7576200017362001886565b6200017d62001a03565b6001600160a01b03908116908115620001ce57600054826001600160601b0360a01b821617600055167f8be0079c531659141344cd1fd0a4f28419497f9722a3daafe3b4186f6b6457e0600080a380f35b604051631e4fbdf760e01b815260048101849052602490fd5b80fd5b5034620001e75780600319360112620001e7576020600154604051908152f35b5034620001e757806020806003193601126200044757620002466004356200023162001a03565b620002406002548210620018eb565b6200189d565b9054604051630b90fca160e01b808252909260031b9190911c6001600160a01b0390811691907f000000000000000000000000000000000000000000000000000000000000000081168585600481845afa948515620004005787956200040f575b50803b156200040b57604051632f2ff15d60e01b80825260048201969096526001600160a01b03851660248201529087908290604490829084905af190811562000400578791620003e4575b50507f000000000000000000000000000000000000000000000000000000000000000016906040519081528481600481855afa948515620003d95786956200039b575b5050803b15620003975760405192835260048301939093526001600160a01b031660248201529082908290604490829084905af180156200038c57620003795750f35b62000384906200176c565b620001e75780f35b6040513d84823e3d90fd5b8480fd5b819650809295503d8311620003d1575b620003b7818362001781565b81010312620003cc5784935192388062000336565b600080fd5b503d620003ab565b6040513d88823e3d90fd5b620003ef906200176c565b620003fc578538620002f3565b8580fd5b6040513d89823e3d90fd5b8680fd5b965093508486813d81116200043f575b6200042b818362001781565b81010312620003cc578695519338620002a7565b503d6200041f565b50fd5b5034620001e75780600319360112620001e7576002546200046b81620019ea565b916200047b604051938462001781565b8183526200048982620019ea565b6020928484019291601f1901368437815b818110620004ed57505060405193838594850191818652518092526040850193925b828110620004cc57505050500390f35b83516001600160a01b031685528695509381019392810192600101620004bc565b620004fd8196949593966200189d565b90548551831015620005315760039190911b1c6001600160a01b0316600582901b850184015292949193926001016200049a565b634e487b7160e01b88526032600452602488fd5b5034620001e7576020366003190112620001e757806200056b6004356200023162001a03565b905460039190911b1c6001600160a01b0316803b156200044757818091600460405180948193631fa5d41d60e11b83525af180156200038c57620003795750f35b5034620001e757602080600319360112620007a85760043590620005cf62001a03565b8183526003815260408320600381015490620005ed82151562001951565b600481018054926200060360ff8516156200199d565b42106200075957908591600190600160ff19809616179055600260018060a01b0360018401541692019360405191849580546200064081620017fd565b93600182169182156200074257505060011462000707575b5050508281819503925af13d1562000701573d6200067681620017a4565b9062000686604051928362001781565b815284833d92013e5b15620006bd57507f1277662f4b42b8a4069e99fb5e41ce8919d3c621156090ac08fb11adbcec66f98280a280f35b6064906040519062461bcd60e51b82526004820152601d60248201527f53616c654d616e616765723a20657865637574696f6e206661696c65640000006044820152fd5b6200068f565b87965085528585209085915b8383106200072b575050508101935082818162000658565b80548386015288978b975090920191810162000713565b168552505050801515028101935082818162000658565b60405162461bcd60e51b815260048101859052602160248201527f53616c654d616e616765723a2074696d656c6f636b206e6f74206578706972656044820152601960fa1b6064820152608490fd5b5080fd5b5034620001e7576020366003190112620001e757600435620007cd62001a03565b8082526003602052620007fc60ff600460408520620007f26003820154151562001951565b015416156200199d565b808252600360205281600460408220600081558260018201558260028201620008268154620017fd565b8062000860575b5050506000600382015501557fcf0f63b97f3387253cbc0bde884f975df77e39184dc3280c2c81be495f58eef48280a280f35b601f81116001146200087c575060009150555b8238806200082d565b908060009184526200089e601f60208620940160051c84016001850162001938565b555562000873565b5034620001e75780600319360112620001e7576040517f00000000000000000000000000000000000000000000000000000000000000006001600160a01b03168152602090f35b5034620001e75780600319360112620001e7576040517f00000000000000000000000000000000000000000000000000000000000000006001600160a01b03168152602090f35b5034620001e75780600319360112620001e7576040517f00000000000000000000000000000000000000000000000000000000000000006001600160a01b03168152602090f35b5034620001e75780600319360112620001e7576040517f00000000000000000000000000000000000000000000000000000000000000006001600160a01b03168152602090f35b5034620001e7576020366003190112620001e7576020620009ee600435620002406002548210620018eb565b905460405160039290921b1c6001600160a01b03168152f35b5034620001e7576020366003190112620001e75760043562000a2862001a03565b62015180811062000ab55762093a80811162000a70576020817fedd2c15cb1225ce15cf67efa55cea2672bfea32d9d9cbf34716bd04b76194b5392600155604051908152a180f35b60405162461bcd60e51b815260206004820152601b60248201527f53616c654d616e616765723a2064656c617920746f6f206c6f6e6700000000006044820152606490fd5b60405162461bcd60e51b815260206004820152601c60248201527f53616c654d616e616765723a2064656c617920746f6f2073686f7274000000006044820152606490fd5b5034620001e75780600319360112620001e757546040516001600160a01b039091168152602090f35b5034620001e7576020366003190112620001e75760043590600254821015620001e7576020620009ee836200189d565b5034620001e75780600319360112620001e75762000b7062001a03565b600080546001600160a01b0319811682556001600160a01b03167f8be0079c531659141344cd1fd0a4f28419497f9722a3daafe3b4186f6b6457e08280a380f35b5034620001e75780600319360112620001e7576040517f00000000000000000000000000000000000000000000000000000000000000006001600160a01b03168152602090f35b5034620001e75780600319360112620001e7576020600254604051908152f35b5034620001e75780600319360112620001e7576040517f00000000000000000000000000000000000000000000000000000000000000006001600160a01b03168152602090f35b5034620001e75780600319360112620001e7576040517f00000000000000000000000000000000000000000000000000000000000000006001600160a01b03168152602090f35b5034620001e7576040366003190112620001e75762000cc462001886565b60249167ffffffffffffffff918335838111620010545736602382011215620010545762000cfc9036908681600401359101620017c1565b9362000d0762001a03565b6001600160a01b039482861615620010105760405160208101906001600160601b03198560601b16825262000d64605482855162000d4d816034840160208a016200183a565b810142603482015203603481018452018262001781565b51902094858552600390816020528160408720015462000fcc576001805442019687421162000fb9576040519560a087018781108582111762000fa45760405289875260208701958b89168752604088019081528960608901528260808901528a8352856020526040832096885188558c8589019151166001600160601b0360a01b8254161790555190815194851162000f9257509185939160209b97959362000e1460028d9b990154620017fd565b601f811162000f50575b508c91601f851160011462000eb3579380808f9a9894956004967f991e9b0e2f98c3989f4541ce66e9aca44e8bfb1c75bcf862d80f800369e6c6a39d9b99956080999462000ea7575b50501b9160001990841b1c19161760028301555b60608501519082015501910151151560ff801983541691161790556040519586521693a3604051908152f35b01519250388062000e67565b91906002879594950183528d8320925b601f198516811062000f37575093838e9997937f991e9b0e2f98c3989f4541ce66e9aca44e8bfb1c75bcf862d80f800369e6c6a39b999793608097600497601f1981161062000f1e575b505050811b01600283015562000e7b565b015160001983861b60f8161c1916905538808062000f0d565b8282015184558d9b5092850192918e01918e0162000ec3565b62000f80906002880184528e8420601f870160051c8101916020881062000f87575b601f0160051c019062001938565b3862000e1e565b909150819062000f72565b634e487b7160e01b8352604160045282fd5b50634e487b7160e01b60009081526041600452fd5b634e487b7160e01b815260116004528590fd5b60405162461bcd60e51b815260206004820152601d818601527f53616c654d616e616765723a206f7065726174696f6e206578697374730000006044820152606490fd5b60405162461bcd60e51b8152602060048201526018818401527f53616c654d616e616765723a207a65726f2074617267657400000000000000006044820152606490fd5b8280fd5b5034620001e75760209081600319360112620001e757600435815260038252604081208054916001808060a01b036001840154169185600285016040519383825492620010a584620017fd565b808852936001811690811562001150575060011462001113575b505050505090620010d7816200110293038262001781565b60ff600460038601549501541692604051968796875286015260a0604086015260a08501906200185f565b916060840152151560808301520390f35b9080949550528383205b8284106200113c57505050820101858262001102620010d738620010bf565b80548685018601529284019281016200111d565b60ff19168689015250505050151560051b8301019050858262001102620010d738620010bf565b5034620001e75780600319360112620001e7576040517f00000000000000000000000000000000000000000000000000000000000000006001600160a01b03168152602090f35b5034620001e75780600319360112620001e7576040517f00000000000000000000000000000000000000000000000000000000000000006001600160a01b03168152602090f35b5034620001e75760031990602036830112620001e7576004359167ffffffffffffffff908184116200105457610100908436030112620007a85760405192610100840184811083821117620016e1576040528060040135828111620016dd57810136602382011215620016dd57906200128b60e4923690602460048201359101620017c1565b85526024810135602086015260448101356040860152606481013560608601526084810135608086015260a481013560a086015260c481013560c086015201358015158103620010545760e0840152620012e462001a03565b602083015115620016985760408301511562001653576080830151606084015110156200160e576040519081612b4481011090612b4483011117620015ee57612b4462001a31823930612b4482019081526001600160a01b037f0000000000000000000000000000000000000000000000000000000000000000811660208301527f0000000000000000000000000000000000000000000000000000000000000000811660408301527f0000000000000000000000000000000000000000000000000000000000000000811660608301527f0000000000000000000000000000000000000000000000000000000000000000811660808301527f0000000000000000000000000000000000000000000000000000000000000000811660a08301527f0000000000000000000000000000000000000000000000000000000000000000811660c08301527f0000000000000000000000000000000000000000000000000000000000000000811660e08301527f00000000000000000000000000000000000000000000000000000000000000008116610100808401919091527f000000000000000000000000000000000000000000000000000000000000000090911661012083015261016061014083018190528551908301919091528291620014d491610260909101906200185f565b6020850151612b44830161018081019190915260408601516101a082015260608601516101c082015260808601516101e082015260a086015161020082015260c086015161022082015260e0860151151561024090910152039082f0908115620016025760025468010000000000000000811015620015ee578060016200155f92016002556200189d565b81546001600160a01b0394851660039290921b82811b95901b1916939093179055600254600019810191908211620015da5750817fa98bd13e2a1784a8b1fad5a350965eabeb5d68decd86b4c1bf8ec7c5bf3e0890620015cf60209551604051918291888352888301906200185f565b0390a3604051908152f35b634e487b7160e01b81526011600452602490fd5b634e487b7160e01b82526041600452602482fd5b604051903d90823e3d90fd5b60405162461bcd60e51b815260206004820152601f60248201527f53616c654d616e616765723a20696e76616c69642074696d652072616e6765006044820152606490fd5b60405162461bcd60e51b815260206004820152601d60248201527f53616c654d616e616765723a20696e76616c69642068617264206361700000006044820152606490fd5b60405162461bcd60e51b815260206004820152601a60248201527f53616c654d616e616765723a20696e76616c69642070726963650000000000006044820152606490fd5b8380fd5b634e487b7160e01b600052604160045260246000fd5b5034620001e7576020366003190112620001e757806200171d6004356200023162001a03565b905460039190911b1c6001600160a01b0316803b1562000447578190600460405180948193638456cb5960e01b83525af180156200038c576200175e575080f35b62001769906200176c565b80f35b67ffffffffffffffff8111620016e157604052565b90601f8019910116810190811067ffffffffffffffff821117620016e157604052565b67ffffffffffffffff8111620016e157601f01601f191660200190565b929192620017cf82620017a4565b91620017df604051938462001781565b829481845281830111620003cc578281602093846000960137010152565b90600182811c921680156200182f575b60208310146200181957565b634e487b7160e01b600052602260045260246000fd5b91607f16916200180d565b60005b8381106200184e5750506000910152565b81810151838201526020016200183d565b906020916200187a815180928185528580860191016200183a565b601f01601f1916010190565b600435906001600160a01b0382168203620003cc57565b600254811015620018d55760026000527f405787fa12a823e0f2b7631cc41b3ba8828b3321ca811111fa75cd3aa3bb5ace0190600090565b634e487b7160e01b600052603260045260246000fd5b15620018f357565b60405162461bcd60e51b815260206004820152601a60248201527f53616c654d616e616765723a20696e76616c696420696e6465780000000000006044820152606490fd5b81811062001944575050565b6000815560010162001938565b156200195957565b606460405162461bcd60e51b815260206004820152602060248201527f53616c654d616e616765723a206f7065726174696f6e206e6f7420666f756e646044820152fd5b15620019a557565b60405162461bcd60e51b815260206004820152601d60248201527f53616c654d616e616765723a20616c72656164792065786563757465640000006044820152606490fd5b67ffffffffffffffff8111620016e15760051b60200190565b6000546001600160a01b0316330362001a1857565b60405163118cdaa760e01b8152336004820152602490fdfe6101c0604052346200086c5762002b44803803806200001e816200088b565b9283396101608282810103126200086c576200003a82620008b1565b6200004860208401620008b1565b6200005660408501620008b1565b6200006460608601620008b1565b6200007260808701620008b1565b906200008160a08801620008b1565b926200009060c08901620008b1565b946200009f60e08a01620008b1565b96620000af6101008b01620008b1565b98620000bf6101208c01620008b1565b6101408c0151909b90916001600160401b0383116200086c5761010083830182840103126200086c576040516101a081905261010081019081106001600160401b03821117620005a457604052818301516001600160401b0381116200086c57818301601f82868601010112156200086c57828401810151906001600160401b038211620005a4576200015c601f8301601f19166020016200088b565b92828452840160208383888801010101116200086c5760005b82811062000871575050906000602060e0959493830101526101a051526020828201015160206101a05101526040828201015160406101a05101526060828201015160606101a05101526080828201015160806101a051015260a0828201015160a06101a051015260c0828201015160c06101a051015201015180151581036200086c576101a05160e0015260016000556001600160a01b0381161562000827576001600160a01b03821615620007e2576001600160a01b038316156200079d576001600160a01b0384161562000758576001600160a01b0385161562000713576001600160a01b03861615620006ce576001600160a01b0387161562000689576001600160a01b0388161562000644576001600160a01b03891615620005ff576001600160a01b038a1615620005ba576080526001600160a01b0390811660a05290811660c05290811660e0529081166101005290811661012052908116610140529081166101605290811661018052600a80546001600160a01b031916929091169190911790556101a0515180516001600160401b038111620005a457600254600181811c9116801562000599575b60208210146200058357601f811162000519575b50602091601f8211600114620004af57918192600092620004a3575b50508160011b916000199060031b1c1916176002555b60206101a051015160035560406101a051015160045560606101a051015160055560806101a051015160065560a06101a051015160075560c06101a051015160085560e06101a0510151151560ff80196009541691161760095560405161227d9081620008c782396080518181816106190152818161083901528181610f85015281816111d701526113cc015260a051816103c0015260c0518181816107f50152611b75015260e0518181816107b10152611baf01526101005181818161040401528181610a0201528181610c7101528181611d890152611f890152610120518181816102650152818161037c0152610ac401526101405181818161044801528181610b65015281816110ca0152611e6d0152610160518181816104f8015261101801526101805181818161020f015261105c0152f35b01519050388062000356565b601f19821692600260005260206000209160005b8581106200050057508360019510620004e6575b505050811b016002556200036c565b015160001960f88460031b161c19169055388080620004d7565b91926020600181928685015181550194019201620004c3565b60026000527f405787fa12a823e0f2b7631cc41b3ba8828b3321ca811111fa75cd3aa3bb5ace601f830160051c8101916020841062000578575b601f0160051c01905b8181106200056b57506200033a565b600081556001016200055c565b909150819062000553565b634e487b7160e01b600052602260045260246000fd5b90607f169062000326565b634e487b7160e01b600052604160045260246000fd5b60405162461bcd60e51b815260206004820152601660248201527f53616c65526f756e643a207a65726f206f7261636c65000000000000000000006044820152606490fd5b60405162461bcd60e51b815260206004820152601460248201527f53616c65526f756e643a207a65726f20757364740000000000000000000000006044820152606490fd5b60405162461bcd60e51b815260206004820152601460248201527f53616c65526f756e643a207a65726f20757364630000000000000000000000006044820152606490fd5b60405162461bcd60e51b815260206004820152601860248201527f53616c65526f756e643a207a65726f20726566657272616c00000000000000006044820152606490fd5b60405162461bcd60e51b815260206004820152601560248201527f53616c65526f756e643a207a65726f2066756e647300000000000000000000006044820152606490fd5b60405162461bcd60e51b815260206004820152601760248201527f53616c65526f756e643a207a65726f2076657374696e670000000000000000006044820152606490fd5b60405162461bcd60e51b815260206004820152601760248201527f53616c65526f756e643a207a65726f206c696d697465720000000000000000006044820152606490fd5b60405162461bcd60e51b815260206004820152601360248201527f53616c65526f756e643a207a65726f206b7963000000000000000000000000006044820152606490fd5b60405162461bcd60e51b815260206004820152601560248201527f53616c65526f756e643a207a65726f20746f6b656e00000000000000000000006044820152606490fd5b60405162461bcd60e51b815260206004820152601760248201527f53616c65526f756e643a207a65726f206d616e616765720000000000000000006044820152606490fd5b600080fd5b806020809284898901010101518282870101520162000175565b6040519190601f01601f191682016001600160401b03811183821017620005a457604052565b51906001600160a01b03821682036200086c5756fe60806040908082526004908136101561001757600080fd5b600091823560e01c91826307b6859a146112db575081630b6d621c146112a35781631252af75146112845781631cb44dfc146111ac57816321874ae21461108b5781632f48ab7d146110475781633e413bee146110035781633f4ba83a14610f6c57816342e94c9014610f34578163444aa92f1461086857918093928263481c6a75146108245782634b155b97146107e057826353d4fe331461079c5782635c975abb146107785782636386c1c71461072057826363b2011714610701578263706eb3ab146106d857826379502c55146106635782638456cb59146105dc57826384bc76a61461052f5782638c28c31a14610477578263a04e876c14610433578263a5917baf146103ef578263ac76a908146103ab578263b6cb7f4114610367578263d095362f1461018e57505063ff5bc5a61461015457600080fd5b3461018a57602036600319011261018a5760209181906001600160a01b0361017a611766565b168152600f845220549051908152f35b5080fd5b915091346103635780600319360112610363578135916101ac611781565b926101b5611b0e565b6101bd611b31565b6101cb60ff600954166119fa565b6101d9600554421015611a3e565b6101e7600654421115611a83565b6101f5600b54835411611ac2565b6101ff8133611b4f565b61020881611c8f565b9361024f827f000000000000000000000000000000000000000000000000000000000000000061024660018060a01b03948583169984808c33611cf0565b309033906121a8565b835163095ea7b360e01b81526001600160a01b037f0000000000000000000000000000000000000000000000000000000000000000929092169182168482019081526020818101859052908290819060400103818a8a5af180156103595761032a575b50803b156103265783516319c5aef560e11b81526001600160a01b039095169285019283526020830191909152849184919082908490829060400103925af190811561031d5750610306575b506001905580f35b61030f90611714565b61031a5780386102fe565b80fd5b513d84823e3d90fd5b8580fd5b61034b9060203d602011610352575b6103438183611728565b8101906119e2565b50386102b2565b503d610339565b85513d89823e3d90fd5b5050fd5b50823461018a578160031936011261018a57517f00000000000000000000000000000000000000000000000000000000000000006001600160a01b03168152602090f35b50823461018a578160031936011261018a57517f00000000000000000000000000000000000000000000000000000000000000006001600160a01b03168152602090f35b50823461018a578160031936011261018a57517f00000000000000000000000000000000000000000000000000000000000000006001600160a01b03168152602090f35b50823461018a578160031936011261018a57517f00000000000000000000000000000000000000000000000000000000000000006001600160a01b03168152602090f35b91509134610363578060031936011261036357813591610495611781565b9261049e611b0e565b6104a6611b31565b6104b460ff600954166119fa565b6104c2600554421015611a3e565b6104d0600654421115611a83565b6104de600b54835411611ac2565b6104e88133611b4f565b6104f181611c8f565b9361024f827f000000000000000000000000000000000000000000000000000000000000000061024660018060a01b03948583169984808c33611cf0565b83346105d857826003193601126105d8576105d49260e08251610551816116e1565b6060815282602082015282848201528260608201528260808201528260a08201528260c08201520152805191610586836116e1565b61058e6117d1565b8352600354602084015254818301526005546060830152600654608083015260075460a083015260085460c083015260ff60095416151560e083015251918291826118d7565b0390f35b8280fd5b50823461018a578160031936011261018a577f62e78cea01bee320cd4e420270b5ea74000d11b0c9f74754ebdbfc544b05a25890602090610647337f00000000000000000000000000000000000000000000000000000000000000006001600160a01b03161461193d565b61064f611b31565b600160ff198154161760015551338152a180f35b8390346105d857826003193601126105d8576106b092506106826117d1565b916003549154600554600654600754916008549360ff60095416958051998a99610100808c528b0190611897565b9760208a01528801526060870152608086015260a085015260c0840152151560e08301520390f35b50823461018a578160031936011261018a57600a5490516001600160a01b039091168152602090f35b50823461018a578160031936011261018a57602090600c549051908152f35b50823461018a57602036600319011261018a576001600160a01b03610743611766565b168252600d602090815281832054600e825282842054600f835293839020549251908152908101929092526040820152606090f35b50823461018a578160031936011261018a5760209060ff6001541690519015158152f35b50823461018a578160031936011261018a57517f00000000000000000000000000000000000000000000000000000000000000006001600160a01b03168152602090f35b50823461018a578160031936011261018a57517f00000000000000000000000000000000000000000000000000000000000000006001600160a01b03168152602090f35b50823461018a578160031936011261018a57517f00000000000000000000000000000000000000000000000000000000000000006001600160a01b03168152602090f35b9050602092836003193601126105d857610880611766565b93610889611b0e565b610891611b31565b61089f60ff600954166119fa565b6108ad600554421015611a3e565b6108bb600654421115611a83565b6108c9600b54845411611ac2565b3415610efd57600a5482516350d25bcd60e01b8184019081528582526001600160a01b03939284169180860167ffffffffffffffff811182821017610eea5786525187928392905afa3d15610ee2573d906109238261174a565b9161093086519384611728565b82523d878484013e5b15610e9f5781818051810103126103265781606491015161095b878213611982565b048034029034820403610e8c57670de0b6b3a7640000900461097d8133611b4f565b61098681611c8f565b869261099483600b54611ce3565b875410610e4a57338852600d81528588206109b0848254611ce3565b9055338852600e81528588206109c7838254611ce3565b90556109d583600b54611ce3565b600b556109e482600c54611ce3565b600c558482991680151580610e40575b610b52575b505060065497847f00000000000000000000000000000000000000000000000000000000000000001660075460085492823b15610b4e5788516375591d5f60e11b815233818c01908152602081019290925260408201929092526060810193909352608083019a909a5284918a919082908490829060a00103925af1978815610b4457879897959697610b24575b5085513481526020810192909252604082015233907f8f7a55179307cea51948432d653dbd53a23fedc388bcb3e04e311f8220d8786490606090a37f000000000000000000000000000000000000000000000000000000000000000016803b1561018a57825163f6326fb360e01b8152938491829034905af190811561031d5750610b15575b506001815580f35b610b1e90611714565b38610b0d565b83949550610b359093919293611714565b6105d857908693929138610a87565b85513d85823e3d90fd5b8680fd5b8651630308a59b60e31b815233898201527f0000000000000000000000000000000000000000000000000000000000000000871691908381602481865afa908115610e365790859392918c91610e19575b5015610db2575b50875163d8abfee560e01b815233818b019081526020810193909352929160609184918290899082906040015b03925af1918215610da857859286918791610d5d575b508784169283610c00575b5050506109f9565b90919280949c508752600e8152888720610c1b848254611ce3565b9055838752600f8152888720610c32848254611ce3565b9055338752600f8152888720610c49838254611ce3565b9055610c60610c588385611ce3565b600c54611ce3565b600c55610c6d8286611ce3565b9b887f0000000000000000000000000000000000000000000000000000000000000000166007549160085460065490833b15610d5957918b8f8f8296948b96610cf09251998a98899788966375591d5f60e11b885287019192608093969594919660a084019760018060a01b031684526020840152604083015260608201520152565b03925af18015610d4f57908891610d3b575b505088519283528201527f8a888a9ac1098c12b38ade27d5d5b51ce092d9271475e3024a084bfc73fd5798873392a33880808080610bf8565b610d4490611714565b610b4e578638610d02565b8a513d8a823e3d90fd5b8b80fd5b935050506060823d606011610da0575b81610d7a60609383611728565b81010312610d9c57610d8b826119ce565b878284015193015190929038610bed565b8480fd5b3d9150610d6d565b87513d87823e3d90fd5b908092503b15610e1557875190635603b9f960e01b8252338a8301526024820152898160448183865af18015610e0b57610def575b908391610baa565b610bd792919550610dff90611714565b88949091506060610de7565b88513d8c823e3d90fd5b8980fd5b610e309150853d8711610352576103438183611728565b38610ba3565b89513d8d823e3d90fd5b50338114156109f4565b8660649187519162461bcd60e51b8352820152601b60248201527f53616c65526f756e643a206578636565647320686172642063617000000000006044820152fd5b634e487b7160e01b865260118552602486fd5b835162461bcd60e51b8152808601839052601d60248201527f53616c65526f756e643a206f7261636c652063616c6c206661696c65640000006044820152606490fd5b606090610939565b634e487b7160e01b895260418852602489fd5b905162461bcd60e51b81529182015260136024820152720a6c2d8caa4deeadcc87440f4cae4de408aa89606b1b6044820152606490fd5b82843461018a57602036600319011261018a5760209181906001600160a01b03610f5c611766565b168152600d845220549051908152f35b839150346105d857826003193601126105d857610fb3337f00000000000000000000000000000000000000000000000000000000000000006001600160a01b03161461193d565b6001549060ff821615610ff5575060ff1916600155513381527f5db9ee0a495bf2e6ff9c91a7834c1ba4fdd244a5e8aa4e537bd38aeae4b073aa90602090a180f35b8251638dfc202b60e01b8152fd5b82843461018a578160031936011261018a57517f00000000000000000000000000000000000000000000000000000000000000006001600160a01b03168152602090f35b82843461018a578160031936011261018a57517f00000000000000000000000000000000000000000000000000000000000000006001600160a01b03168152602090f35b9190503461031a576020908160031936011261031a576110a9611766565b8451634a9fefc760e01b81526001600160a01b0391821681860181905290947f0000000000000000000000000000000000000000000000000000000000000000831691908587602481865afa9687156111a2578597611165575b50906024869289519485938492630308a59b60e31b84528301525afa92831561115a579261113b575b50845193168352151590820152f35b611153919250833d8511610352576103438183611728565b903861112c565b8651903d90823e3d90fd5b9096508581813d831161119b575b61117d8183611728565b81010312610d9c5790602461119287936119ce565b97919250611103565b503d611173565b88513d87823e3d90fd5b839150346105d85760203660031901126105d8576111c8611766565b6001600160a01b03906111fe337f000000000000000000000000000000000000000000000000000000000000000084161461193d565b16918215611241575050600a80546001600160a01b031916821790557f3df77beb5db05fcdd70a30fc8adf3f83f9501b68579455adbd100b81809403948280a280f35b906020606492519162461bcd60e51b8352820152601760248201527f53616c65526f756e643a207a65726f20616464726573730000000000000000006044820152fd5b82843461018a578160031936011261018a57602090600b549051908152f35b82843461018a57602036600319011261018a5760209181906001600160a01b036112cb611766565b168152600e845220549051908152f35b848492346116dd5760031990602036830181136103265781359267ffffffffffffffff908185116116d957610100908536030112610b4e5761131c866116e1565b838301358181116116d957840192366023850112156116d95780840135886024956113468361174a565b926113538a519485611728565b808452368882840101116105d857808888930183860137830101528752828701848601358152868801906044870135825260608901936064880135855260808a01956084890135875260a08b019760a48a0135895260e460c08d019a60c48101358c52013580151581036116d55760e08d01526113fa337f00000000000000000000000000000000000000000000000000000000000000006001600160a01b03161461193d565b61140684511515611982565b84511561169457875187511015611653578951895111611612578b519081519384116116015750611438600254611797565b8d601f821161159b575b9050508c82601f85116001146114e85750927fca5e88616919440603f1ae53082dab032daf45557362fafd80a4852bd6cdad859c9a9896949281926114d79d9b999795926114dd575b50508160011b916000199060031b1c1916176002555b516003555190555160055551600655516007555160085560e0820151151560ff80196009541691161760095551918291826118d7565b0390a180f35b015190508e8061148b565b600282527f405787fa12a823e0f2b7631cc41b3ba8828b3321ca811111fa75cd3aa3bb5ace939291601f198616915b8282106115835750509260019285927fca5e88616919440603f1ae53082dab032daf45557362fafd80a4852bd6cdad859f9d9b999795966114d79f9d9b99971061156a575b505050811b016002556114a1565b015160001960f88460031b161c191690558e808061155c565b80600186978294978701518155019601940190611517565b600290527f405787fa12a823e0f2b7631cc41b3ba8828b3321ca811111fa75cd3aa3bb5ace601f850160051c8101918486106115f7575b601f0160051c01908e905b8281106115ea5750611442565b6001918155018e906115dd565b90915081906115d2565b634e487b7160e01b8e52604187528dfd5b601a86916064938d519362461bcd60e51b85528401528201527f53616c65526f756e643a20696e76616c69642076657374696e670000000000006044820152fd5b601d86916064938d519362461bcd60e51b85528401528201527f53616c65526f756e643a20696e76616c69642074696d652072616e67650000006044820152fd5b601b86916064938d519362461bcd60e51b85528401528201527f53616c65526f756e643a20696e76616c696420686172642063617000000000006044820152fd5b8d80fd5b8780fd5b8380fd5b610100810190811067ffffffffffffffff8211176116fe57604052565b634e487b7160e01b600052604160045260246000fd5b67ffffffffffffffff81116116fe57604052565b90601f8019910116810190811067ffffffffffffffff8211176116fe57604052565b67ffffffffffffffff81116116fe57601f01601f191660200190565b600435906001600160a01b038216820361177c57565b600080fd5b602435906001600160a01b038216820361177c57565b90600182811c921680156117c7575b60208310146117b157565b634e487b7160e01b600052602260045260246000fd5b91607f16916117a6565b60405190600082600254916117e583611797565b808352926020906001908181169081156118735750600114611812575b505061181092500383611728565b565b91509260026000527f405787fa12a823e0f2b7631cc41b3ba8828b3321ca811111fa75cd3aa3bb5ace936000925b82841061185b57506118109450505081016020013880611802565b85548885018301529485019487945092810192611840565b9150506020925061181094915060ff191682840152151560051b8201013880611802565b919082519283825260005b8481106118c3575050826000602080949584010152601f8019910116010190565b6020818301810151848301820152016118a2565b60208152815160e06118f761010092836020860152610120850190611897565b93602081015160408501526040810151606085015260608101516080850152608081015160a085015260a081015160c085015260c0810151828501520151151591015290565b1561194457565b60405162461bcd60e51b815260206004820152601660248201527529b0b632a937bab7321d103737ba1036b0b730b3b2b960511b6044820152606490fd5b1561198957565b60405162461bcd60e51b815260206004820152601860248201527f53616c65526f756e643a20696e76616c696420707269636500000000000000006044820152606490fd5b51906001600160a01b038216820361177c57565b9081602091031261177c5751801515810361177c5790565b15611a0157565b60405162461bcd60e51b815260206004820152601560248201527453616c65526f756e643a206e6f742061637469766560581b6044820152606490fd5b15611a4557565b60405162461bcd60e51b815260206004820152601660248201527514d85b19549bdd5b990e881b9bdd081cdd185c9d195960521b6044820152606490fd5b15611a8a57565b60405162461bcd60e51b815260206004820152601060248201526f14d85b19549bdd5b990e88195b99195960821b6044820152606490fd5b15611ac957565b60405162461bcd60e51b815260206004820152601b60248201527f53616c65526f756e643a206861726420636170207265616368656400000000006044820152606490fd5b600260005414611b1f576002600055565b604051633ee5aeb560e01b8152600490fd5b60ff60015416611b3d57565b60405163d93c066560e01b8152600490fd5b6040516373bed91960e11b81526001600160a01b038281166004830152906020816024817f000000000000000000000000000000000000000000000000000000000000000086165afa908115611c1f57600091611c70575b5015611c2b577f00000000000000000000000000000000000000000000000000000000000000001691823b1561177c576040516338d7278960e21b81526001600160a01b039290921660048301526024820152906000908290604490829084905af18015611c1f57611c165750565b61181090611714565b6040513d6000823e3d90fd5b60405162461bcd60e51b815260206004820152601b60248201527f53616c65526f756e643a206e6f74204b594320617070726f76656400000000006044820152606490fd5b611c89915060203d602011610352576103438183611728565b38611ba7565b670de0b6b3a764000090818102918183041490151715611ccd57600354908115611cb7570490565b634e487b7160e01b600052601260045260246000fd5b634e487b7160e01b600052601160045260246000fd5b91908201809211611ccd57565b929493909194600b54611d0582600092611ce3565b906004918254106121645760018060a01b039586811697888352602093600d8552604094858520611d37888254611ce3565b90558a8552600e8152858520611d4e898254611ce3565b9055611d5c87600b54611ce3565b600b55611d6b88600c54611ce3565b600c55898893168015158061215a575b611e6a575b505060065492897f0000000000000000000000000000000000000000000000000000000000000000169160075494600854843b156116d95788516375591d5f60e11b81526001600160a01b039094169284019283526020830195909552604082019590955260608101939093526080830193909352839183919082908490829060a00103925af18015611e6057611e4c575b5050519586526020860152604085015216917f8f7a55179307cea51948432d653dbd53a23fedc388bcb3e04e311f8220d8786490606090a3565b611e568291611714565b61031a5780611e12565b83513d84823e3d90fd5b8a7f000000000000000000000000000000000000000000000000000000000000000016908751630308a59b60e31b81528d858201528381602481865afa908115612150579088949392918591612133575b50156120ce575b50875163d8abfee560e01b81526001600160a01b038716858201908152602081018c9052909360609285929091839182906040015b03925af19081156120c45786928790889361207c575b508c84169283611f20575b505050611d80565b909192809496508852600e8352888820611f3b838254611ce3565b9055838852600f8352888820611f52838254611ce3565b90558d8852600f8352888820611f69828254611ce3565b9055611f78610c588284611ce3565b600c55611f85818c611ce3565b958d7f0000000000000000000000000000000000000000000000000000000000000000166007549160085460065490833b15612078578d516375591d5f60e11b81526001600160a01b03909316838b0190815260208101889052604081019590955260608501526080840152918a91839182908490829060a00103925af1801561206e57918f93918a908c9461204e575b50507f8a888a9ac1098c12b38ade27d5d5b51ce092d9271475e3024a084bfc73fd579893948351928352820152a33880808080611f18565b909295935061205e919450611714565b6116d9579188908e928938612016565b8a513d8b823e3d90fd5b8c80fd5b93505090506060823d6060116120bc575b8161209a60609383611728565b81010312610326576120ab826119ce565b908781840151930151919238611f0d565b3d915061208d565b87513d88823e3d90fd5b90809293503b15610b4e57875190635603b9f960e01b82528d858301526024820152868160448183865af180156121295761210d575b90869291611ec2565b611ef79661211f606092949394611714565b9650919091612104565b88513d89823e3d90fd5b61214a9150843d8611610352576103438183611728565b38611ebb565b89513d8a823e3d90fd5b508b811415611d7b565b60405162461bcd60e51b8152602081840152601b60248201527f53616c65526f756e643a206578636565647320686172642063617000000000006044820152606490fd5b6040516323b872dd60e01b602082019081526001600160a01b039384166024830152938316604482015260648082019590955293845292909160a082019067ffffffffffffffff8211838310176116fe57602092600092604052519082865af115611c1f576000513d61223e57508082163b155b612224575050565b604051635274afe760e01b81529116600482015260249150fd5b6001141561221c56fea2646970667358221220df06262db16a5d02628287e5331fa480357dfa7f93480c569c22b9c9d64f9f7964736f6c63430008180033a264697066735822122036df6edbf832e72691293a974efd1b41ddcb5b720b041fd9055a75ef458f2c8564736f6c634300081800336080346100c757601f61105d38819003918201601f19168301916001600160401b038311848410176100cc578084926020946040528339810103126100c757516001600160a01b0381168082036100c7576101f48060015560025515610082578061006c610072926100e2565b50610160565b50604051610e3c90816102018239f35b60405162461bcd60e51b815260206004820152601c60248201527f526566657272616c53797374656d3a207a65726f2061646472657373000000006044820152606490fd5b600080fd5b634e487b7160e01b600052604160045260246000fd5b6001600160a01b031660008181527fad3228b676f7d3cd4284a5443f17f1962b36e491b30a40b2405849e597ba5fb5602052604081205490919060ff1661015c57818052816020526040822081835260205260408220600160ff19825416179055339160008051602061103d8339815191528180a4600190565b5090565b6001600160a01b031660008181527f610416528cfef961f6c8fc91bef56087ef3281212584daef4b7fa0e6036047c260205260408120549091907fe15a7dd79e49684a2a3fd5c689ae377eab58931a852ffed7fca24bd23555aa299060ff166101fb57808352826020526040832082845260205260408320600160ff1982541617905560008051602061103d833981519152339380a4600190565b50509056fe608060408181526004918236101561001657600080fd5b600090813560e01c90816301ffc9a714610a9c57508063067fda6b14610a7d5780630b90fca114610a4257806318452cd814610a01578063196f4914146109e257806321bade131461092c578063248a9ca31461090257806324acbd69146108cc5780632f2ff15d146108a257806332e5b6d8146107ca57806336568abe146107845780634a9fefc7146107495780635603b9f9146105215780638d736ed31461050257806391d14854146104bc578063a217fddf146104a1578063ab11417f14610482578063c9c6b55614610407578063d547741f146103c4578063d8abfee514610379578063deb3269f146101bc578063e23828dc1461017d5763e92820e61461012157600080fd5b3461017a578160031936011261017a57610139610af0565b6001600160a01b039081168252602093909352818120805460243594929085101561017a575060209361016b91610b21565b92905490519260031b1c168152f35b80fd5b5090346101b857816003193601126101b857602090517fe15a7dd79e49684a2a3fd5c689ae377eab58931a852ffed7fca24bd23555aa298152f35b5080fd5b5090346101b857806003193601126101b85782356024938435907fe15a7dd79e49684a2a3fd5c689ae377eab58931a852ffed7fca24bd23555aa2990818652602091868352858720338852835260ff86882054161561035d57506103e880851161030c5783116102bd576107d06102338486610b87565b1161027157507f2b0c09f5443bc5628e317c9e8ef97edc0667f2b69e9400cdc2eaae6c9b1de93d94955082600155816002558351928352820152a180f35b8660849286519262461bcd60e51b8452830152808201527f526566657272616c53797374656d3a20746f74616c20626f6e757320746f6f206044820152630d0d2ced60e31b6064820152fd5b60268760849387519362461bcd60e51b85528401528201527f526566657272616c53797374656d3a207265666572656520626f6e757320746f6044820152650de40d0d2ced60d31b6064820152fd5b5060278760849387519362461bcd60e51b85528401528201527f526566657272616c53797374656d3a20726566657272657220626f6e757320746044820152660dede40d0d2ced60cb1b6064820152fd5b604492508786519263e2517d3f60e01b84523390840152820152fd5b5090346101b857806003193601126101b8576060906103aa610399610af0565b6103a1610c73565b60243590610b94565b91929081519360018060a01b031684526020840152820152f35b509190346104035780600319360112610403576103ff91356103fa60016103e9610b0b565b938387528660205286200154610ced565b610d91565b5080f35b8280fd5b5090346101b85760203660031901126101b8576001600160a01b039161047e90829084610432610af0565b16815260036020818152929091208054600182015460028301549290930154955196166001600160a01b0316865291850152604084015260ff9091161515606083015281906080820190565b0390f35b5090346101b857816003193601126101b8576020906006549051908152f35b5090346101b857816003193601126101b85751908152602090f35b5091346104035781600319360112610403578160209360ff926104dd610b0b565b903582528186528282206001600160a01b039091168252855220549151911615158152f35b5090346101b857816003193601126101b8576020906002549051908152f35b50913461040357816003193601126104035761053b610af0565b610543610b0b565b9161054c610c73565b6001600160a01b039182169283156107065782169384156106c35784841461068057838652600360205260ff600382882001541661063d5783865260036020526003818720866bffffffffffffffffffffffff60a01b82541617815501600160ff198254161790558486528160205285208054916801000000000000000083101561062a5750906105e291600182018155610b21565b819291549060031b9184831b921b1916179055610600600554610b4f565b6005557f5f1ca2fcc108b751843a763e60d2201f593516109d7dbb1b700468f2d4190bb78380a380f35b634e487b7160e01b875260419052602486fd5b906020606492519162461bcd60e51b8352820152602060248201527f526566657272616c53797374656d3a20616c72656164792072656665727265646044820152fd5b906020606492519162461bcd60e51b8352820152601d60248201527f526566657272616c53797374656d3a2073656c662d726566657272616c0000006044820152fd5b906020606492519162461bcd60e51b8352820152601d60248201527f526566657272616c53797374656d3a207a65726f2072656665727265720000006044820152fd5b845162461bcd60e51b8152602081840152601c60248201527f526566657272616c53797374656d3a207a65726f2072656665726565000000006044820152606490fd5b5090346101b85760203660031901126101b8576020916001600160a01b0390829082610773610af0565b168152600385522054169051908152f35b5090346101b857806003193601126101b85761079e610b0b565b90336001600160a01b038316036107bb57506103ff919235610d91565b5163334bd91960e11b81528390fd5b5082903461017a57602092836003193601126101b8576001600160a01b0393846107f2610af0565b16835283815281832092825192838386549182815201908196845284842090845b8682821061088c5750505050849003601f01601f191684019567ffffffffffffffff87118588101761087957508581528286529251828601819052928501939291905b8281106108635785850386f35b8351871685529381019392810192600101610856565b634e487b7160e01b835260419052602482fd5b83548c1685529093019260019283019201610813565b509190346104035780600319360112610403576103ff91356108c760016103e9610b0b565b610d13565b5091346104035760203660031901126104035760209282916001600160a01b036108f4610af0565b168252845220549051908152f35b50913461040357602036600319011261040357816020936001923581528085522001549051908152f35b509134610403576020366003190112610403576001600160a01b0380610950610af0565b168452600360205282842091835194608086019186831067ffffffffffffffff8411176109cf575050835281541680845260018201546020808601829052600284015486860181905260039094015460ff161515606096870181905294516001600160a01b039093168352820152604081019190915291820152608090f35b634e487b7160e01b825260419052602490fd5b5090346101b857816003193601126101b8576020906005549051908152f35b5090346101b85760203660031901126101b85760209160ff9060039083906001600160a01b03610a2f610af0565b1681528286522001541690519015158152f35b5090346101b857816003193601126101b857602090517fdb9284895a7211bfd1c970298a1ed435786c5e0cd6ec4810e5f98b0ac05f46348152f35b5090346101b857816003193601126101b8576020906001549051908152f35b90508334610403576020366003190112610403573563ffffffff60e01b81168091036104035760209250637965db0b60e01b8114908115610adf575b5015158152f35b6301ffc9a760e01b14905083610ad8565b600435906001600160a01b0382168203610b0657565b600080fd5b602435906001600160a01b0382168203610b0657565b8054821015610b395760005260206000200190600090565b634e487b7160e01b600052603260045260246000fd5b6000198114610b5e5760010190565b634e487b7160e01b600052601160045260246000fd5b81810292918115918404141715610b5e57565b91908201809211610b5e57565b909160018060a01b0380921660009281845260036020526040842060ff60038201541615610c6857541680917f97a731ce2af675e0a2502525558d9bdb33cb114efcf7e9c0ae4c86a36058dd5a606061271097600260408a610bf860015485610b74565b049a610c05835485610b74565b04998781526003602052600182822001610c1f8154610b4f565b905587815260036020522001610c368a8254610b87565b9055610c4d610c45898b610b87565b600654610b87565b600655604051908152886020820152876040820152a3929190565b505050915080918190565b3360009081527f309885961c5c462e01d0f6cb432454eb474f04fa3318496f3172f0decfa9b43760205260409020547fdb9284895a7211bfd1c970298a1ed435786c5e0cd6ec4810e5f98b0ac05f46349060ff1615610ccf5750565b6044906040519063e2517d3f60e01b82523360048301526024820152fd5b80600052600060205260406000203360005260205260ff6040600020541615610ccf5750565b9060009180835282602052604083209160018060a01b03169182845260205260ff60408420541615600014610d8c57808352826020526040832082845260205260408320600160ff198254161790557f2f8788117e7eff1d82e926ec794901d17c78024a50270940304540a733656f0d339380a4600190565b505090565b9060009180835282602052604083209160018060a01b03169182845260205260ff604084205416600014610d8c5780835282602052604083208284526020526040832060ff1981541690557ff6391f5c32d9c69d2a47ea670b442974b53935d1edc7fd64eb21e047a839171b339380a460019056fea26469706673582212204a90bbf70114b6aeebd7d1c58a86709d035b0359633027604529471f6c92a0aa64736f6c634300081800332f8788117e7eff1d82e926ec794901d17c78024a50270940304540a733656f0d","opcodes":"PUSH2 0x1A0 PUSH1 0x40 DUP2 DUP2 MSTORE CALLVALUE PUSH3 0x38D JUMPI DUP2 SWAP1 PUSH1 0x0 PUSH3 0x5CB2 DUP1 CODESIZE SUB DUP1 SWAP2 PUSH3 0x26 DUP3 DUP8 PUSH3 0x671 JUMP JUMPDEST DUP6 CODECOPY PUSH2 0x120 SWAP4 DUP5 SWAP2 DUP2 ADD SUB SLT PUSH3 0x34E JUMPI PUSH3 0x42 DUP5 PUSH3 0x695 JUMP JUMPDEST PUSH1 0x20 SWAP3 PUSH3 0x52 DUP5 DUP8 ADD PUSH3 0x695 JUMP JUMPDEST SWAP3 PUSH3 0x60 DUP3 DUP9 ADD PUSH3 0x695 JUMP JUMPDEST SWAP4 PUSH3 0x6F PUSH1 0x60 DUP10 ADD PUSH3 0x695 JUMP JUMPDEST SWAP4 PUSH3 0x7E PUSH1 0x80 DUP11 ADD PUSH3 0x695 JUMP JUMPDEST PUSH3 0x8C PUSH1 0xA0 DUP12 ADD PUSH3 0x695 JUMP JUMPDEST SWAP1 PUSH3 0x9B PUSH1 0xC0 DUP13 ADD PUSH3 0x695 JUMP JUMPDEST SWAP7 PUSH3 0xAA PUSH1 0xE0 DUP14 ADD PUSH3 0x695 JUMP JUMPDEST SWAP9 PUSH3 0xBB PUSH2 0x100 DUP1 SWAP15 ADD PUSH3 0x695 JUMP JUMPDEST SWAP6 PUSH1 0x1 PUSH1 0x1 PUSH1 0xA0 SHL SUB SWAP6 DUP7 DUP9 AND SWAP1 DUP2 ISZERO PUSH3 0x62F JUMPI DUP10 SLOAD PUSH1 0x1 PUSH1 0x1 PUSH1 0xA0 SHL SUB NOT DUP2 AND DUP4 OR DUP12 SSTORE DUP12 MLOAD SWAP3 DUP10 SWAP3 SWAP2 DUP4 AND PUSH32 0x8BE0079C531659141344CD1FD0A4F28419497F9722A3DAAFE3B4186F6B6457E0 DUP14 DUP1 LOG3 PUSH3 0x2A300 PUSH1 0x1 SSTORE AND SWAP1 DUP2 ISZERO PUSH3 0x5ED JUMPI POP DUP7 DUP3 AND ISZERO PUSH3 0x5A9 JUMPI DUP7 DUP4 AND ISZERO PUSH3 0x565 JUMPI DUP7 DUP5 AND ISZERO PUSH3 0x521 JUMPI DUP7 DUP6 AND ISZERO PUSH3 0x4DD JUMPI DUP7 DUP7 AND ISZERO PUSH3 0x499 JUMPI DUP7 DUP12 AND ISZERO PUSH3 0x455 JUMPI DUP7 DUP13 AND ISZERO PUSH3 0x411 JUMPI PUSH1 0x80 MSTORE PUSH1 0xA0 MSTORE PUSH1 0xC0 MSTORE PUSH1 0xE0 MSTORE DUP11 MSTORE DUP9 MSTORE PUSH2 0x140 SWAP5 DUP6 MSTORE PUSH2 0x160 SWAP6 DUP7 MSTORE DUP4 MLOAD PUSH2 0x105D DUP1 DUP3 ADD SWAP1 PUSH1 0x1 PUSH1 0x1 PUSH1 0x40 SHL SUB DUP3 GT DUP4 DUP4 LT OR PUSH3 0x3FD JUMPI DUP10 SWAP2 DUP4 SWAP2 PUSH3 0x4C55 DUP4 CODECOPY ADDRESS DUP2 MSTORE SUB ADD SWAP1 DUP5 CREATE SWAP7 DUP8 ISZERO PUSH3 0x3F3 JUMPI DUP2 PUSH2 0x180 SWAP9 DUP1 DUP11 MSTORE AND SWAP2 DUP6 MLOAD SWAP3 PUSH4 0xA217FDDF PUSH1 0xE0 SHL DUP5 MSTORE DUP3 DUP5 PUSH1 0x4 DUP2 DUP5 GAS STATICCALL SWAP4 DUP5 ISZERO PUSH3 0x39A JUMPI DUP7 SWAP5 PUSH3 0x3BE JUMPI JUMPDEST POP DUP1 EXTCODESIZE ISZERO PUSH3 0x3BA JUMPI DUP7 MLOAD PUSH4 0x2F2FF15D PUSH1 0xE0 SHL DUP1 DUP3 MSTORE PUSH1 0x4 DUP3 ADD SWAP6 SWAP1 SWAP6 MSTORE PUSH1 0x1 PUSH1 0x1 PUSH1 0xA0 SHL SUB DUP7 AND PUSH1 0x24 DUP3 ADD MSTORE SWAP1 DUP7 SWAP1 DUP3 SWAP1 PUSH1 0x44 SWAP1 DUP3 SWAP1 DUP5 SWAP1 GAS CALL DUP1 ISZERO PUSH3 0x39A JUMPI PUSH3 0x3A4 JUMPI JUMPDEST POP DUP9 MLOAD AND SWAP2 DUP6 MLOAD PUSH4 0x388E0A37 PUSH1 0xE2 SHL DUP2 MSTORE DUP3 DUP2 PUSH1 0x4 DUP2 DUP8 GAS STATICCALL SWAP3 DUP4 ISZERO PUSH3 0x39A JUMPI DUP7 SWAP4 PUSH3 0x35F JUMPI JUMPDEST POP POP DUP3 EXTCODESIZE ISZERO PUSH3 0x35B JUMPI DUP6 MLOAD SWAP1 DUP2 MSTORE PUSH1 0x4 DUP2 ADD SWAP2 SWAP1 SWAP2 MSTORE PUSH1 0x1 PUSH1 0x1 PUSH1 0xA0 SHL SUB SWAP3 SWAP1 SWAP3 AND PUSH1 0x24 DUP4 ADD MSTORE DUP3 SWAP1 DUP3 SWAP1 PUSH1 0x44 SWAP1 DUP3 SWAP1 DUP5 SWAP1 GAS CALL DUP1 ISZERO PUSH3 0x351 JUMPI PUSH3 0x336 JUMPI JUMPDEST POP POP MLOAD SWAP4 PUSH2 0x45AA SWAP6 DUP7 PUSH3 0x6AB DUP8 CODECOPY PUSH1 0x80 MLOAD DUP7 DUP2 DUP2 PUSH2 0x905 ADD MSTORE PUSH2 0x133F ADD MSTORE PUSH1 0xA0 MLOAD DUP7 DUP2 DUP2 PUSH2 0xC77 ADD MSTORE PUSH2 0x1367 ADD MSTORE PUSH1 0xC0 MLOAD DUP7 DUP2 DUP2 PUSH2 0xC30 ADD MSTORE PUSH2 0x138F ADD MSTORE PUSH1 0xE0 MLOAD DUP7 DUP2 DUP2 PUSH2 0x2F7 ADD MSTORE DUP2 DUP2 PUSH2 0x94C ADD MSTORE PUSH2 0x13B7 ADD MSTORE MLOAD DUP6 DUP2 DUP2 PUSH2 0x8BE ADD MSTORE PUSH2 0x13DF ADD MSTORE MLOAD DUP5 DUP2 DUP2 PUSH2 0x118F ADD MSTORE PUSH2 0x142F ADD MSTORE MLOAD DUP4 DUP2 DUP2 PUSH2 0x11D6 ADD MSTORE PUSH2 0x1457 ADD MSTORE MLOAD DUP3 DUP2 DUP2 PUSH2 0xBC9 ADD MSTORE PUSH2 0x1484 ADD MSTORE MLOAD DUP2 DUP2 DUP2 PUSH2 0x26E ADD MSTORE DUP2 DUP2 PUSH2 0x993 ADD MSTORE PUSH2 0x1407 ADD MSTORE RETURN JUMPDEST PUSH3 0x342 DUP3 SWAP2 PUSH3 0x647 JUMP JUMPDEST PUSH3 0x34E JUMPI DUP1 PUSH3 0x291 JUMP JUMPDEST DUP1 REVERT JUMPDEST DUP4 MLOAD RETURNDATASIZE DUP5 DUP3 RETURNDATACOPY RETURNDATASIZE SWAP1 REVERT JUMPDEST DUP5 DUP1 REVERT JUMPDEST SWAP1 DUP1 SWAP3 SWAP4 POP DUP2 RETURNDATASIZE DUP4 GT PUSH3 0x392 JUMPI JUMPDEST PUSH3 0x37A DUP2 DUP4 PUSH3 0x671 JUMP JUMPDEST DUP2 ADD SUB SLT PUSH3 0x38D JUMPI MLOAD SWAP1 CODESIZE DUP1 PUSH3 0x24F JUMP JUMPDEST PUSH1 0x0 DUP1 REVERT JUMPDEST POP RETURNDATASIZE PUSH3 0x36E JUMP JUMPDEST DUP8 MLOAD RETURNDATASIZE DUP9 DUP3 RETURNDATACOPY RETURNDATASIZE SWAP1 REVERT JUMPDEST PUSH3 0x3B2 SWAP1 SWAP6 SWAP2 SWAP6 PUSH3 0x647 JUMP JUMPDEST SWAP4 CODESIZE PUSH3 0x226 JUMP JUMPDEST DUP6 DUP1 REVERT JUMPDEST SWAP1 SWAP4 POP DUP3 DUP2 DUP2 RETURNDATASIZE DUP4 GT PUSH3 0x3EB JUMPI JUMPDEST PUSH3 0x3D9 DUP2 DUP4 PUSH3 0x671 JUMP JUMPDEST DUP2 ADD SUB SLT PUSH3 0x3BA JUMPI MLOAD SWAP3 CODESIZE PUSH3 0x1DE JUMP JUMPDEST POP RETURNDATASIZE PUSH3 0x3CD JUMP JUMPDEST DUP5 MLOAD RETURNDATASIZE DUP6 DUP3 RETURNDATACOPY RETURNDATASIZE SWAP1 REVERT JUMPDEST PUSH4 0x4E487B71 PUSH1 0xE0 SHL DUP7 MSTORE PUSH1 0x41 PUSH1 0x4 MSTORE PUSH1 0x24 DUP7 REVERT JUMPDEST DUP10 MLOAD PUSH3 0x461BCD PUSH1 0xE5 SHL DUP2 MSTORE PUSH1 0x4 DUP2 ADD DUP15 SWAP1 MSTORE PUSH1 0x18 PUSH1 0x24 DUP3 ADD MSTORE PUSH32 0x53616C654D616E616765723A207A65726F206F7261636C650000000000000000 PUSH1 0x44 DUP3 ADD MSTORE PUSH1 0x64 SWAP1 REVERT JUMPDEST DUP10 MLOAD PUSH3 0x461BCD PUSH1 0xE5 SHL DUP2 MSTORE PUSH1 0x4 DUP2 ADD DUP15 SWAP1 MSTORE PUSH1 0x16 PUSH1 0x24 DUP3 ADD MSTORE PUSH32 0x53616C654D616E616765723A207A65726F207573647400000000000000000000 PUSH1 0x44 DUP3 ADD MSTORE PUSH1 0x64 SWAP1 REVERT JUMPDEST DUP10 MLOAD PUSH3 0x461BCD PUSH1 0xE5 SHL DUP2 MSTORE PUSH1 0x4 DUP2 ADD DUP15 SWAP1 MSTORE PUSH1 0x16 PUSH1 0x24 DUP3 ADD MSTORE PUSH32 0x53616C654D616E616765723A207A65726F207573646300000000000000000000 PUSH1 0x44 DUP3 ADD MSTORE PUSH1 0x64 SWAP1 REVERT JUMPDEST DUP10 MLOAD PUSH3 0x461BCD PUSH1 0xE5 SHL DUP2 MSTORE PUSH1 0x4 DUP2 ADD DUP15 SWAP1 MSTORE PUSH1 0x17 PUSH1 0x24 DUP3 ADD MSTORE PUSH32 0x53616C654D616E616765723A207A65726F2066756E6473000000000000000000 PUSH1 0x44 DUP3 ADD MSTORE PUSH1 0x64 SWAP1 REVERT JUMPDEST DUP10 MLOAD PUSH3 0x461BCD PUSH1 0xE5 SHL DUP2 MSTORE PUSH1 0x4 DUP2 ADD DUP15 SWAP1 MSTORE PUSH1 0x19 PUSH1 0x24 DUP3 ADD MSTORE PUSH32 0x53616C654D616E616765723A207A65726F2076657374696E6700000000000000 PUSH1 0x44 DUP3 ADD MSTORE PUSH1 0x64 SWAP1 REVERT JUMPDEST DUP10 MLOAD PUSH3 0x461BCD PUSH1 0xE5 SHL DUP2 MSTORE PUSH1 0x4 DUP2 ADD DUP15 SWAP1 MSTORE PUSH1 0x19 PUSH1 0x24 DUP3 ADD MSTORE PUSH32 0x53616C654D616E616765723A207A65726F206C696D6974657200000000000000 PUSH1 0x44 DUP3 ADD MSTORE PUSH1 0x64 SWAP1 REVERT JUMPDEST DUP10 MLOAD PUSH3 0x461BCD PUSH1 0xE5 SHL DUP2 MSTORE PUSH1 0x4 DUP2 ADD DUP15 SWAP1 MSTORE PUSH1 0x15 PUSH1 0x24 DUP3 ADD MSTORE PUSH32 0x53616C654D616E616765723A207A65726F206B79630000000000000000000000 PUSH1 0x44 DUP3 ADD MSTORE PUSH1 0x64 SWAP1 REVERT JUMPDEST PUSH3 0x461BCD PUSH1 0xE5 SHL DUP2 MSTORE PUSH1 0x4 DUP2 ADD DUP15 SWAP1 MSTORE PUSH1 0x17 PUSH1 0x24 DUP3 ADD MSTORE PUSH32 0x53616C654D616E616765723A207A65726F20746F6B656E000000000000000000 PUSH1 0x44 DUP3 ADD MSTORE PUSH1 0x64 SWAP1 REVERT JUMPDEST DUP11 MLOAD PUSH4 0x1E4FBDF7 PUSH1 0xE0 SHL DUP2 MSTORE PUSH1 0x4 DUP2 ADD DUP12 SWAP1 MSTORE PUSH1 0x24 SWAP1 REVERT JUMPDEST PUSH1 0x1 PUSH1 0x1 PUSH1 0x40 SHL SUB DUP2 GT PUSH3 0x65B JUMPI PUSH1 0x40 MSTORE JUMP JUMPDEST PUSH4 0x4E487B71 PUSH1 0xE0 SHL PUSH1 0x0 MSTORE PUSH1 0x41 PUSH1 0x4 MSTORE PUSH1 0x24 PUSH1 0x0 REVERT JUMPDEST PUSH1 0x1F SWAP1 SWAP2 ADD PUSH1 0x1F NOT AND DUP2 ADD SWAP1 PUSH1 0x1 PUSH1 0x1 PUSH1 0x40 SHL SUB DUP3 GT SWAP1 DUP3 LT OR PUSH3 0x65B JUMPI PUSH1 0x40 MSTORE JUMP JUMPDEST MLOAD SWAP1 PUSH1 0x1 PUSH1 0x1 PUSH1 0xA0 SHL SUB DUP3 AND DUP3 SUB PUSH3 0x38D JUMPI JUMP INVALID PUSH1 0x80 PUSH1 0x40 MSTORE PUSH1 0x4 CALLDATASIZE LT ISZERO PUSH3 0x13 JUMPI PUSH1 0x0 DUP1 REVERT JUMPDEST PUSH1 0x0 DUP1 CALLDATALOAD PUSH1 0xE0 SHR DUP1 PUSH4 0x1803237A EQ PUSH3 0x16F7 JUMPI DUP1 PUSH4 0x263F4D95 EQ PUSH3 0x1205 JUMPI DUP1 PUSH4 0x2F48AB7D EQ PUSH3 0x11BE JUMPI DUP1 PUSH4 0x3E413BEE EQ PUSH3 0x1177 JUMPI DUP1 PUSH4 0x4006D46A EQ PUSH3 0x1058 JUMPI DUP1 PUSH4 0x47CD47B6 EQ PUSH3 0xCA6 JUMPI DUP1 PUSH4 0x4B155B97 EQ PUSH3 0xC5F JUMPI DUP1 PUSH4 0x53D4FE33 EQ PUSH3 0xC18 JUMPI DUP1 PUSH4 0x6DE7DA78 EQ PUSH3 0xBF8 JUMPI DUP1 PUSH4 0x706EB3AB EQ PUSH3 0xBB1 JUMPI DUP1 PUSH4 0x715018A6 EQ PUSH3 0xB53 JUMPI DUP1 PUSH4 0x8C65C81F EQ PUSH3 0xB23 JUMPI DUP1 PUSH4 0x8DA5CB5B EQ PUSH3 0xAFA JUMPI DUP1 PUSH4 0x8E52D9D3 EQ PUSH3 0xA07 JUMPI DUP1 PUSH4 0x8F1327C0 EQ PUSH3 0x9C2 JUMPI DUP1 PUSH4 0xA04E876C EQ PUSH3 0x97B JUMPI DUP1 PUSH4 0xA5917BAF EQ PUSH3 0x934 JUMPI DUP1 PUSH4 0xAC76A908 EQ PUSH3 0x8ED JUMPI DUP1 PUSH4 0xB6CB7F41 EQ PUSH3 0x8A6 JUMPI DUP1 PUSH4 0xBEADF957 EQ PUSH3 0x7AC JUMPI DUP1 PUSH4 0xCBAF2FA7 EQ PUSH3 0x5AC JUMPI DUP1 PUSH4 0xE3D0CC27 EQ PUSH3 0x545 JUMPI DUP1 PUSH4 0xE5066BBF EQ PUSH3 0x44A JUMPI DUP1 PUSH4 0xE700EA1C EQ PUSH3 0x20A JUMPI DUP1 PUSH4 0xEEF09BAD EQ PUSH3 0x1EA JUMPI PUSH4 0xF2FDE38B EQ PUSH3 0x156 JUMPI PUSH1 0x0 DUP1 REVERT JUMPDEST CALLVALUE PUSH3 0x1E7 JUMPI PUSH1 0x20 CALLDATASIZE PUSH1 0x3 NOT ADD SLT PUSH3 0x1E7 JUMPI PUSH3 0x173 PUSH3 0x1886 JUMP JUMPDEST PUSH3 0x17D PUSH3 0x1A03 JUMP JUMPDEST PUSH1 0x1 PUSH1 0x1 PUSH1 0xA0 SHL SUB SWAP1 DUP2 AND SWAP1 DUP2 ISZERO PUSH3 0x1CE JUMPI PUSH1 0x0 SLOAD DUP3 PUSH1 0x1 PUSH1 0x1 PUSH1 0x60 SHL SUB PUSH1 0xA0 SHL DUP3 AND OR PUSH1 0x0 SSTORE AND PUSH32 0x8BE0079C531659141344CD1FD0A4F28419497F9722A3DAAFE3B4186F6B6457E0 PUSH1 0x0 DUP1 LOG3 DUP1 RETURN JUMPDEST PUSH1 0x40 MLOAD PUSH4 0x1E4FBDF7 PUSH1 0xE0 SHL DUP2 MSTORE PUSH1 0x4 DUP2 ADD DUP5 SWAP1 MSTORE PUSH1 0x24 SWAP1 REVERT JUMPDEST DUP1 REVERT JUMPDEST POP CALLVALUE PUSH3 0x1E7 JUMPI DUP1 PUSH1 0x3 NOT CALLDATASIZE ADD SLT PUSH3 0x1E7 JUMPI PUSH1 0x20 PUSH1 0x1 SLOAD PUSH1 0x40 MLOAD SWAP1 DUP2 MSTORE RETURN JUMPDEST POP CALLVALUE PUSH3 0x1E7 JUMPI DUP1 PUSH1 0x20 DUP1 PUSH1 0x3 NOT CALLDATASIZE ADD SLT PUSH3 0x447 JUMPI PUSH3 0x246 PUSH1 0x4 CALLDATALOAD PUSH3 0x231 PUSH3 0x1A03 JUMP JUMPDEST PUSH3 0x240 PUSH1 0x2 SLOAD DUP3 LT PUSH3 0x18EB JUMP JUMPDEST PUSH3 0x189D JUMP JUMPDEST SWAP1 SLOAD PUSH1 0x40 MLOAD PUSH4 0xB90FCA1 PUSH1 0xE0 SHL DUP1 DUP3 MSTORE SWAP1 SWAP3 PUSH1 0x3 SHL SWAP2 SWAP1 SWAP2 SHR PUSH1 0x1 PUSH1 0x1 PUSH1 0xA0 SHL SUB SWAP1 DUP2 AND SWAP2 SWAP1 PUSH32 0x0 DUP2 AND DUP6 DUP6 PUSH1 0x4 DUP2 DUP5 GAS STATICCALL SWAP5 DUP6 ISZERO PUSH3 0x400 JUMPI DUP8 SWAP6 PUSH3 0x40F JUMPI JUMPDEST POP DUP1 EXTCODESIZE ISZERO PUSH3 0x40B JUMPI PUSH1 0x40 MLOAD PUSH4 0x2F2FF15D PUSH1 0xE0 SHL DUP1 DUP3 MSTORE PUSH1 0x4 DUP3 ADD SWAP7 SWAP1 SWAP7 MSTORE PUSH1 0x1 PUSH1 0x1 PUSH1 0xA0 SHL SUB DUP6 AND PUSH1 0x24 DUP3 ADD MSTORE SWAP1 DUP8 SWAP1 DUP3 SWAP1 PUSH1 0x44 SWAP1 DUP3 SWAP1 DUP5 SWAP1 GAS CALL SWAP1 DUP2 ISZERO PUSH3 0x400 JUMPI DUP8 SWAP2 PUSH3 0x3E4 JUMPI JUMPDEST POP POP PUSH32 0x0 AND SWAP1 PUSH1 0x40 MLOAD SWAP1 DUP2 MSTORE DUP5 DUP2 PUSH1 0x4 DUP2 DUP6 GAS STATICCALL SWAP5 DUP6 ISZERO PUSH3 0x3D9 JUMPI DUP7 SWAP6 PUSH3 0x39B JUMPI JUMPDEST POP POP DUP1 EXTCODESIZE ISZERO PUSH3 0x397 JUMPI PUSH1 0x40 MLOAD SWAP3 DUP4 MSTORE PUSH1 0x4 DUP4 ADD SWAP4 SWAP1 SWAP4 MSTORE PUSH1 0x1 PUSH1 0x1 PUSH1 0xA0 SHL SUB AND PUSH1 0x24 DUP3 ADD MSTORE SWAP1 DUP3 SWAP1 DUP3 SWAP1 PUSH1 0x44 SWAP1 DUP3 SWAP1 DUP5 SWAP1 GAS CALL DUP1 ISZERO PUSH3 0x38C JUMPI PUSH3 0x379 JUMPI POP RETURN JUMPDEST PUSH3 0x384 SWAP1 PUSH3 0x176C JUMP JUMPDEST PUSH3 0x1E7 JUMPI DUP1 RETURN JUMPDEST PUSH1 0x40 MLOAD RETURNDATASIZE DUP5 DUP3 RETURNDATACOPY RETURNDATASIZE SWAP1 REVERT JUMPDEST DUP5 DUP1 REVERT JUMPDEST DUP2 SWAP7 POP DUP1 SWAP3 SWAP6 POP RETURNDATASIZE DUP4 GT PUSH3 0x3D1 JUMPI JUMPDEST PUSH3 0x3B7 DUP2 DUP4 PUSH3 0x1781 JUMP JUMPDEST DUP2 ADD SUB SLT PUSH3 0x3CC JUMPI DUP5 SWAP4 MLOAD SWAP3 CODESIZE DUP1 PUSH3 0x336 JUMP JUMPDEST PUSH1 0x0 DUP1 REVERT JUMPDEST POP RETURNDATASIZE PUSH3 0x3AB JUMP JUMPDEST PUSH1 0x40 MLOAD RETURNDATASIZE DUP9 DUP3 RETURNDATACOPY RETURNDATASIZE SWAP1 REVERT JUMPDEST PUSH3 0x3EF SWAP1 PUSH3 0x176C JUMP JUMPDEST PUSH3 0x3FC JUMPI DUP6 CODESIZE PUSH3 0x2F3 JUMP JUMPDEST DUP6 DUP1 REVERT JUMPDEST PUSH1 0x40 MLOAD RETURNDATASIZE DUP10 DUP3 RETURNDATACOPY RETURNDATASIZE SWAP1 REVERT JUMPDEST DUP7 DUP1 REVERT JUMPDEST SWAP7 POP SWAP4 POP DUP5 DUP7 DUP2 RETURNDATASIZE DUP2 GT PUSH3 0x43F JUMPI JUMPDEST PUSH3 0x42B DUP2 DUP4 PUSH3 0x1781 JUMP JUMPDEST DUP2 ADD SUB SLT PUSH3 0x3CC JUMPI DUP7 SWAP6 MLOAD SWAP4 CODESIZE PUSH3 0x2A7 JUMP JUMPDEST POP RETURNDATASIZE PUSH3 0x41F JUMP JUMPDEST POP REVERT JUMPDEST POP CALLVALUE PUSH3 0x1E7 JUMPI DUP1 PUSH1 0x3 NOT CALLDATASIZE ADD SLT PUSH3 0x1E7 JUMPI PUSH1 0x2 SLOAD PUSH3 0x46B DUP2 PUSH3 0x19EA JUMP JUMPDEST SWAP2 PUSH3 0x47B PUSH1 0x40 MLOAD SWAP4 DUP5 PUSH3 0x1781 JUMP JUMPDEST DUP2 DUP4 MSTORE PUSH3 0x489 DUP3 PUSH3 0x19EA JUMP JUMPDEST PUSH1 0x20 SWAP3 DUP5 DUP5 ADD SWAP3 SWAP2 PUSH1 0x1F NOT ADD CALLDATASIZE DUP5 CALLDATACOPY DUP2 JUMPDEST DUP2 DUP2 LT PUSH3 0x4ED JUMPI POP POP PUSH1 0x40 MLOAD SWAP4 DUP4 DUP6 SWAP5 DUP6 ADD SWAP2 DUP2 DUP7 MSTORE MLOAD DUP1 SWAP3 MSTORE PUSH1 0x40 DUP6 ADD SWAP4 SWAP3 JUMPDEST DUP3 DUP2 LT PUSH3 0x4CC JUMPI POP POP POP POP SUB SWAP1 RETURN JUMPDEST DUP4 MLOAD PUSH1 0x1 PUSH1 0x1 PUSH1 0xA0 SHL SUB AND DUP6 MSTORE DUP7 SWAP6 POP SWAP4 DUP2 ADD SWAP4 SWAP3 DUP2 ADD SWAP3 PUSH1 0x1 ADD PUSH3 0x4BC JUMP JUMPDEST PUSH3 0x4FD DUP2 SWAP7 SWAP5 SWAP6 SWAP4 SWAP7 PUSH3 0x189D JUMP JUMPDEST SWAP1 SLOAD DUP6 MLOAD DUP4 LT ISZERO PUSH3 0x531 JUMPI PUSH1 0x3 SWAP2 SWAP1 SWAP2 SHL SHR PUSH1 0x1 PUSH1 0x1 PUSH1 0xA0 SHL SUB AND PUSH1 0x5 DUP3 SWAP1 SHL DUP6 ADD DUP5 ADD MSTORE SWAP3 SWAP5 SWAP2 SWAP4 SWAP3 PUSH1 0x1 ADD PUSH3 0x49A JUMP JUMPDEST PUSH4 0x4E487B71 PUSH1 0xE0 SHL DUP9 MSTORE PUSH1 0x32 PUSH1 0x4 MSTORE PUSH1 0x24 DUP9 REVERT JUMPDEST POP CALLVALUE PUSH3 0x1E7 JUMPI PUSH1 0x20 CALLDATASIZE PUSH1 0x3 NOT ADD SLT PUSH3 0x1E7 JUMPI DUP1 PUSH3 0x56B PUSH1 0x4 CALLDATALOAD PUSH3 0x231 PUSH3 0x1A03 JUMP JUMPDEST SWAP1 SLOAD PUSH1 0x3 SWAP2 SWAP1 SWAP2 SHL SHR PUSH1 0x1 PUSH1 0x1 PUSH1 0xA0 SHL SUB AND DUP1 EXTCODESIZE ISZERO PUSH3 0x447 JUMPI DUP2 DUP1 SWAP2 PUSH1 0x4 PUSH1 0x40 MLOAD DUP1 SWAP5 DUP2 SWAP4 PUSH4 0x1FA5D41D PUSH1 0xE1 SHL DUP4 MSTORE GAS CALL DUP1 ISZERO PUSH3 0x38C JUMPI PUSH3 0x379 JUMPI POP RETURN JUMPDEST POP CALLVALUE PUSH3 0x1E7 JUMPI PUSH1 0x20 DUP1 PUSH1 0x3 NOT CALLDATASIZE ADD SLT PUSH3 0x7A8 JUMPI PUSH1 0x4 CALLDATALOAD SWAP1 PUSH3 0x5CF PUSH3 0x1A03 JUMP JUMPDEST DUP2 DUP4 MSTORE PUSH1 0x3 DUP2 MSTORE PUSH1 0x40 DUP4 KECCAK256 PUSH1 0x3 DUP2 ADD SLOAD SWAP1 PUSH3 0x5ED DUP3 ISZERO ISZERO PUSH3 0x1951 JUMP JUMPDEST PUSH1 0x4 DUP2 ADD DUP1 SLOAD SWAP3 PUSH3 0x603 PUSH1 0xFF DUP6 AND ISZERO PUSH3 0x199D JUMP JUMPDEST TIMESTAMP LT PUSH3 0x759 JUMPI SWAP1 DUP6 SWAP2 PUSH1 0x1 SWAP1 PUSH1 0x1 PUSH1 0xFF NOT DUP1 SWAP7 AND OR SWAP1 SSTORE PUSH1 0x2 PUSH1 0x1 DUP1 PUSH1 0xA0 SHL SUB PUSH1 0x1 DUP5 ADD SLOAD AND SWAP3 ADD SWAP4 PUSH1 0x40 MLOAD SWAP2 DUP5 SWAP6 DUP1 SLOAD PUSH3 0x640 DUP2 PUSH3 0x17FD JUMP JUMPDEST SWAP4 PUSH1 0x1 DUP3 AND SWAP2 DUP3 ISZERO PUSH3 0x742 JUMPI POP POP PUSH1 0x1 EQ PUSH3 0x707 JUMPI JUMPDEST POP POP POP DUP3 DUP2 DUP2 SWAP6 SUB SWAP3 GAS CALL RETURNDATASIZE ISZERO PUSH3 0x701 JUMPI RETURNDATASIZE PUSH3 0x676 DUP2 PUSH3 0x17A4 JUMP JUMPDEST SWAP1 PUSH3 0x686 PUSH1 0x40 MLOAD SWAP3 DUP4 PUSH3 0x1781 JUMP JUMPDEST DUP2 MSTORE DUP5 DUP4 RETURNDATASIZE SWAP3 ADD RETURNDATACOPY JUMPDEST ISZERO PUSH3 0x6BD JUMPI POP PUSH32 0x1277662F4B42B8A4069E99FB5E41CE8919D3C621156090AC08FB11ADBCEC66F9 DUP3 DUP1 LOG2 DUP1 RETURN JUMPDEST PUSH1 0x64 SWAP1 PUSH1 0x40 MLOAD SWAP1 PUSH3 0x461BCD PUSH1 0xE5 SHL DUP3 MSTORE PUSH1 0x4 DUP3 ADD MSTORE PUSH1 0x1D PUSH1 0x24 DUP3 ADD MSTORE PUSH32 0x53616C654D616E616765723A20657865637574696F6E206661696C6564000000 PUSH1 0x44 DUP3 ADD MSTORE REVERT JUMPDEST PUSH3 0x68F JUMP JUMPDEST DUP8 SWAP7 POP DUP6 MSTORE DUP6 DUP6 KECCAK256 SWAP1 DUP6 SWAP2 JUMPDEST DUP4 DUP4 LT PUSH3 0x72B JUMPI POP POP POP DUP2 ADD SWAP4 POP DUP3 DUP2 DUP2 PUSH3 0x658 JUMP JUMPDEST DUP1 SLOAD DUP4 DUP7 ADD MSTORE DUP9 SWAP8 DUP12 SWAP8 POP SWAP1 SWAP3 ADD SWAP2 DUP2 ADD PUSH3 0x713 JUMP JUMPDEST AND DUP6 MSTORE POP POP POP DUP1 ISZERO ISZERO MUL DUP2 ADD SWAP4 POP DUP3 DUP2 DUP2 PUSH3 0x658 JUMP JUMPDEST PUSH1 0x40 MLOAD PUSH3 0x461BCD PUSH1 0xE5 SHL DUP2 MSTORE PUSH1 0x4 DUP2 ADD DUP6 SWAP1 MSTORE PUSH1 0x21 PUSH1 0x24 DUP3 ADD MSTORE PUSH32 0x53616C654D616E616765723A2074696D656C6F636B206E6F7420657870697265 PUSH1 0x44 DUP3 ADD MSTORE PUSH1 0x19 PUSH1 0xFA SHL PUSH1 0x64 DUP3 ADD MSTORE PUSH1 0x84 SWAP1 REVERT JUMPDEST POP DUP1 REVERT JUMPDEST POP CALLVALUE PUSH3 0x1E7 JUMPI PUSH1 0x20 CALLDATASIZE PUSH1 0x3 NOT ADD SLT PUSH3 0x1E7 JUMPI PUSH1 0x4 CALLDATALOAD PUSH3 0x7CD PUSH3 0x1A03 JUMP JUMPDEST DUP1 DUP3 MSTORE PUSH1 0x3 PUSH1 0x20 MSTORE PUSH3 0x7FC PUSH1 0xFF PUSH1 0x4 PUSH1 0x40 DUP6 KECCAK256 PUSH3 0x7F2 PUSH1 0x3 DUP3 ADD SLOAD ISZERO ISZERO PUSH3 0x1951 JUMP JUMPDEST ADD SLOAD AND ISZERO PUSH3 0x199D JUMP JUMPDEST DUP1 DUP3 MSTORE PUSH1 0x3 PUSH1 0x20 MSTORE DUP2 PUSH1 0x4 PUSH1 0x40 DUP3 KECCAK256 PUSH1 0x0 DUP2 SSTORE DUP3 PUSH1 0x1 DUP3 ADD SSTORE DUP3 PUSH1 0x2 DUP3 ADD PUSH3 0x826 DUP2 SLOAD PUSH3 0x17FD JUMP JUMPDEST DUP1 PUSH3 0x860 JUMPI JUMPDEST POP POP POP PUSH1 0x0 PUSH1 0x3 DUP3 ADD SSTORE ADD SSTORE PUSH32 0xCF0F63B97F3387253CBC0BDE884F975DF77E39184DC3280C2C81BE495F58EEF4 DUP3 DUP1 LOG2 DUP1 RETURN JUMPDEST PUSH1 0x1F DUP2 GT PUSH1 0x1 EQ PUSH3 0x87C JUMPI POP PUSH1 0x0 SWAP2 POP SSTORE JUMPDEST DUP3 CODESIZE DUP1 PUSH3 0x82D JUMP JUMPDEST SWAP1 DUP1 PUSH1 0x0 SWAP2 DUP5 MSTORE PUSH3 0x89E PUSH1 0x1F PUSH1 0x20 DUP7 KECCAK256 SWAP5 ADD PUSH1 0x5 SHR DUP5 ADD PUSH1 0x1 DUP6 ADD PUSH3 0x1938 JUMP JUMPDEST SSTORE SSTORE PUSH3 0x873 JUMP JUMPDEST POP CALLVALUE PUSH3 0x1E7 JUMPI DUP1 PUSH1 0x3 NOT CALLDATASIZE ADD SLT PUSH3 0x1E7 JUMPI PUSH1 0x40 MLOAD PUSH32 0x0 PUSH1 0x1 PUSH1 0x1 PUSH1 0xA0 SHL SUB AND DUP2 MSTORE PUSH1 0x20 SWAP1 RETURN JUMPDEST POP CALLVALUE PUSH3 0x1E7 JUMPI DUP1 PUSH1 0x3 NOT CALLDATASIZE ADD SLT PUSH3 0x1E7 JUMPI PUSH1 0x40 MLOAD PUSH32 0x0 PUSH1 0x1 PUSH1 0x1 PUSH1 0xA0 SHL SUB AND DUP2 MSTORE PUSH1 0x20 SWAP1 RETURN JUMPDEST POP CALLVALUE PUSH3 0x1E7 JUMPI DUP1 PUSH1 0x3 NOT CALLDATASIZE ADD SLT PUSH3 0x1E7 JUMPI PUSH1 0x40 MLOAD PUSH32 0x0 PUSH1 0x1 PUSH1 0x1 PUSH1 0xA0 SHL SUB AND DUP2 MSTORE PUSH1 0x20 SWAP1 RETURN JUMPDEST POP CALLVALUE PUSH3 0x1E7 JUMPI DUP1 PUSH1 0x3 NOT CALLDATASIZE ADD SLT PUSH3 0x1E7 JUMPI PUSH1 0x40 MLOAD PUSH32 0x0 PUSH1 0x1 PUSH1 0x1 PUSH1 0xA0 SHL SUB AND DUP2 MSTORE PUSH1 0x20 SWAP1 RETURN JUMPDEST POP CALLVALUE PUSH3 0x1E7 JUMPI PUSH1 0x20 CALLDATASIZE PUSH1 0x3 NOT ADD SLT PUSH3 0x1E7 JUMPI PUSH1 0x20 PUSH3 0x9EE PUSH1 0x4 CALLDATALOAD PUSH3 0x240 PUSH1 0x2 SLOAD DUP3 LT PUSH3 0x18EB JUMP JUMPDEST SWAP1 SLOAD PUSH1 0x40 MLOAD PUSH1 0x3 SWAP3 SWAP1 SWAP3 SHL SHR PUSH1 0x1 PUSH1 0x1 PUSH1 0xA0 SHL SUB AND DUP2 MSTORE RETURN JUMPDEST POP CALLVALUE PUSH3 0x1E7 JUMPI PUSH1 0x20 CALLDATASIZE PUSH1 0x3 NOT ADD SLT PUSH3 0x1E7 JUMPI PUSH1 0x4 CALLDATALOAD PUSH3 0xA28 PUSH3 0x1A03 JUMP JUMPDEST PUSH3 0x15180 DUP2 LT PUSH3 0xAB5 JUMPI PUSH3 0x93A80 DUP2 GT PUSH3 0xA70 JUMPI PUSH1 0x20 DUP2 PUSH32 0xEDD2C15CB1225CE15CF67EFA55CEA2672BFEA32D9D9CBF34716BD04B76194B53 SWAP3 PUSH1 0x1 SSTORE PUSH1 0x40 MLOAD SWAP1 DUP2 MSTORE LOG1 DUP1 RETURN JUMPDEST PUSH1 0x40 MLOAD PUSH3 0x461BCD PUSH1 0xE5 SHL DUP2 MSTORE PUSH1 0x20 PUSH1 0x4 DUP3 ADD MSTORE PUSH1 0x1B PUSH1 0x24 DUP3 ADD MSTORE PUSH32 0x53616C654D616E616765723A2064656C617920746F6F206C6F6E670000000000 PUSH1 0x44 DUP3 ADD MSTORE PUSH1 0x64 SWAP1 REVERT JUMPDEST PUSH1 0x40 MLOAD PUSH3 0x461BCD PUSH1 0xE5 SHL DUP2 MSTORE PUSH1 0x20 PUSH1 0x4 DUP3 ADD MSTORE PUSH1 0x1C PUSH1 0x24 DUP3 ADD MSTORE PUSH32 0x53616C654D616E616765723A2064656C617920746F6F2073686F727400000000 PUSH1 0x44 DUP3 ADD MSTORE PUSH1 0x64 SWAP1 REVERT JUMPDEST POP CALLVALUE PUSH3 0x1E7 JUMPI DUP1 PUSH1 0x3 NOT CALLDATASIZE ADD SLT PUSH3 0x1E7 JUMPI SLOAD PUSH1 0x40 MLOAD PUSH1 0x1 PUSH1 0x1 PUSH1 0xA0 SHL SUB SWAP1 SWAP2 AND DUP2 MSTORE PUSH1 0x20 SWAP1 RETURN JUMPDEST POP CALLVALUE PUSH3 0x1E7 JUMPI PUSH1 0x20 CALLDATASIZE PUSH1 0x3 NOT ADD SLT PUSH3 0x1E7 JUMPI PUSH1 0x4 CALLDATALOAD SWAP1 PUSH1 0x2 SLOAD DUP3 LT ISZERO PUSH3 0x1E7 JUMPI PUSH1 0x20 PUSH3 0x9EE DUP4 PUSH3 0x189D JUMP JUMPDEST POP CALLVALUE PUSH3 0x1E7 JUMPI DUP1 PUSH1 0x3 NOT CALLDATASIZE ADD SLT PUSH3 0x1E7 JUMPI PUSH3 0xB70 PUSH3 0x1A03 JUMP JUMPDEST PUSH1 0x0 DUP1 SLOAD PUSH1 0x1 PUSH1 0x1 PUSH1 0xA0 SHL SUB NOT DUP2 AND DUP3 SSTORE PUSH1 0x1 PUSH1 0x1 PUSH1 0xA0 SHL SUB AND PUSH32 0x8BE0079C531659141344CD1FD0A4F28419497F9722A3DAAFE3B4186F6B6457E0 DUP3 DUP1 LOG3 DUP1 RETURN JUMPDEST POP CALLVALUE PUSH3 0x1E7 JUMPI DUP1 PUSH1 0x3 NOT CALLDATASIZE ADD SLT PUSH3 0x1E7 JUMPI PUSH1 0x40 MLOAD PUSH32 0x0 PUSH1 0x1 PUSH1 0x1 PUSH1 0xA0 SHL SUB AND DUP2 MSTORE PUSH1 0x20 SWAP1 RETURN JUMPDEST POP CALLVALUE PUSH3 0x1E7 JUMPI DUP1 PUSH1 0x3 NOT CALLDATASIZE ADD SLT PUSH3 0x1E7 JUMPI PUSH1 0x20 PUSH1 0x2 SLOAD PUSH1 0x40 MLOAD SWAP1 DUP2 MSTORE RETURN JUMPDEST POP CALLVALUE PUSH3 0x1E7 JUMPI DUP1 PUSH1 0x3 NOT CALLDATASIZE ADD SLT PUSH3 0x1E7 JUMPI PUSH1 0x40 MLOAD PUSH32 0x0 PUSH1 0x1 PUSH1 0x1 PUSH1 0xA0 SHL SUB AND DUP2 MSTORE PUSH1 0x20 SWAP1 RETURN JUMPDEST POP CALLVALUE PUSH3 0x1E7 JUMPI DUP1 PUSH1 0x3 NOT CALLDATASIZE ADD SLT PUSH3 0x1E7 JUMPI PUSH1 0x40 MLOAD PUSH32 0x0 PUSH1 0x1 PUSH1 0x1 PUSH1 0xA0 SHL SUB AND DUP2 MSTORE PUSH1 0x20 SWAP1 RETURN JUMPDEST POP CALLVALUE PUSH3 0x1E7 JUMPI PUSH1 0x40 CALLDATASIZE PUSH1 0x3 NOT ADD SLT PUSH3 0x1E7 JUMPI PUSH3 0xCC4 PUSH3 0x1886 JUMP JUMPDEST PUSH1 0x24 SWAP2 PUSH8 0xFFFFFFFFFFFFFFFF SWAP2 DUP4 CALLDATALOAD DUP4 DUP2 GT PUSH3 0x1054 JUMPI CALLDATASIZE PUSH1 0x23 DUP3 ADD SLT ISZERO PUSH3 0x1054 JUMPI PUSH3 0xCFC SWAP1 CALLDATASIZE SWAP1 DUP7 DUP2 PUSH1 0x4 ADD CALLDATALOAD SWAP2 ADD PUSH3 0x17C1 JUMP JUMPDEST SWAP4 PUSH3 0xD07 PUSH3 0x1A03 JUMP JUMPDEST PUSH1 0x1 PUSH1 0x1 PUSH1 0xA0 SHL SUB SWAP5 DUP3 DUP7 AND ISZERO PUSH3 0x1010 JUMPI PUSH1 0x40 MLOAD PUSH1 0x20 DUP2 ADD SWAP1 PUSH1 0x1 PUSH1 0x1 PUSH1 0x60 SHL SUB NOT DUP6 PUSH1 0x60 SHL AND DUP3 MSTORE PUSH3 0xD64 PUSH1 0x54 DUP3 DUP6 MLOAD PUSH3 0xD4D DUP2 PUSH1 0x34 DUP5 ADD PUSH1 0x20 DUP11 ADD PUSH3 0x183A JUMP JUMPDEST DUP2 ADD TIMESTAMP PUSH1 0x34 DUP3 ADD MSTORE SUB PUSH1 0x34 DUP2 ADD DUP5 MSTORE ADD DUP3 PUSH3 0x1781 JUMP JUMPDEST MLOAD SWAP1 KECCAK256 SWAP5 DUP6 DUP6 MSTORE PUSH1 0x3 SWAP1 DUP2 PUSH1 0x20 MSTORE DUP2 PUSH1 0x40 DUP8 KECCAK256 ADD SLOAD PUSH3 0xFCC JUMPI PUSH1 0x1 DUP1 SLOAD TIMESTAMP ADD SWAP7 DUP8 TIMESTAMP GT PUSH3 0xFB9 JUMPI PUSH1 0x40 MLOAD SWAP6 PUSH1 0xA0 DUP8 ADD DUP8 DUP2 LT DUP6 DUP3 GT OR PUSH3 0xFA4 JUMPI PUSH1 0x40 MSTORE DUP10 DUP8 MSTORE PUSH1 0x20 DUP8 ADD SWAP6 DUP12 DUP10 AND DUP8 MSTORE PUSH1 0x40 DUP9 ADD SWAP1 DUP2 MSTORE DUP10 PUSH1 0x60 DUP10 ADD MSTORE DUP3 PUSH1 0x80 DUP10 ADD MSTORE DUP11 DUP4 MSTORE DUP6 PUSH1 0x20 MSTORE PUSH1 0x40 DUP4 KECCAK256 SWAP7 DUP9 MLOAD DUP9 SSTORE DUP13 DUP6 DUP10 ADD SWAP2 MLOAD AND PUSH1 0x1 PUSH1 0x1 PUSH1 0x60 SHL SUB PUSH1 0xA0 SHL DUP3 SLOAD AND OR SWAP1 SSTORE MLOAD SWAP1 DUP2 MLOAD SWAP5 DUP6 GT PUSH3 0xF92 JUMPI POP SWAP2 DUP6 SWAP4 SWAP2 PUSH1 0x20 SWAP12 SWAP8 SWAP6 SWAP4 PUSH3 0xE14 PUSH1 0x2 DUP14 SWAP12 SWAP10 ADD SLOAD PUSH3 0x17FD JUMP JUMPDEST PUSH1 0x1F DUP2 GT PUSH3 0xF50 JUMPI JUMPDEST POP DUP13 SWAP2 PUSH1 0x1F DUP6 GT PUSH1 0x1 EQ PUSH3 0xEB3 JUMPI SWAP4 DUP1 DUP1 DUP16 SWAP11 SWAP9 SWAP5 SWAP6 PUSH1 0x4 SWAP7 PUSH32 0x991E9B0E2F98C3989F4541CE66E9ACA44E8BFB1C75BCF862D80F800369E6C6A3 SWAP14 SWAP12 SWAP10 SWAP6 PUSH1 0x80 SWAP10 SWAP5 PUSH3 0xEA7 JUMPI JUMPDEST POP POP SHL SWAP2 PUSH1 0x0 NOT SWAP1 DUP5 SHL SHR NOT AND OR PUSH1 0x2 DUP4 ADD SSTORE JUMPDEST PUSH1 0x60 DUP6 ADD MLOAD SWAP1 DUP3 ADD SSTORE ADD SWAP2 ADD MLOAD ISZERO ISZERO PUSH1 0xFF DUP1 NOT DUP4 SLOAD AND SWAP2 AND OR SWAP1 SSTORE PUSH1 0x40 MLOAD SWAP6 DUP7 MSTORE AND SWAP4 LOG3 PUSH1 0x40 MLOAD SWAP1 DUP2 MSTORE RETURN JUMPDEST ADD MLOAD SWAP3 POP CODESIZE DUP1 PUSH3 0xE67 JUMP JUMPDEST SWAP2 SWAP1 PUSH1 0x2 DUP8 SWAP6 SWAP5 SWAP6 ADD DUP4 MSTORE DUP14 DUP4 KECCAK256 SWAP3 JUMPDEST PUSH1 0x1F NOT DUP6 AND DUP2 LT PUSH3 0xF37 JUMPI POP SWAP4 DUP4 DUP15 SWAP10 SWAP8 SWAP4 PUSH32 0x991E9B0E2F98C3989F4541CE66E9ACA44E8BFB1C75BCF862D80F800369E6C6A3 SWAP12 SWAP10 SWAP8 SWAP4 PUSH1 0x80 SWAP8 PUSH1 0x4 SWAP8 PUSH1 0x1F NOT DUP2 AND LT PUSH3 0xF1E JUMPI JUMPDEST POP POP POP DUP2 SHL ADD PUSH1 0x2 DUP4 ADD SSTORE PUSH3 0xE7B JUMP JUMPDEST ADD MLOAD PUSH1 0x0 NOT DUP4 DUP7 SHL PUSH1 0xF8 AND SHR NOT AND SWAP1 SSTORE CODESIZE DUP1 DUP1 PUSH3 0xF0D JUMP JUMPDEST DUP3 DUP3 ADD MLOAD DUP5 SSTORE DUP14 SWAP12 POP SWAP3 DUP6 ADD SWAP3 SWAP2 DUP15 ADD SWAP2 DUP15 ADD PUSH3 0xEC3 JUMP JUMPDEST PUSH3 0xF80 SWAP1 PUSH1 0x2 DUP9 ADD DUP5 MSTORE DUP15 DUP5 KECCAK256 PUSH1 0x1F DUP8 ADD PUSH1 0x5 SHR DUP2 ADD SWAP2 PUSH1 0x20 DUP9 LT PUSH3 0xF87 JUMPI JUMPDEST PUSH1 0x1F ADD PUSH1 0x5 SHR ADD SWAP1 PUSH3 0x1938 JUMP JUMPDEST CODESIZE PUSH3 0xE1E JUMP JUMPDEST SWAP1 SWAP2 POP DUP2 SWAP1 PUSH3 0xF72 JUMP JUMPDEST PUSH4 0x4E487B71 PUSH1 0xE0 SHL DUP4 MSTORE PUSH1 0x41 PUSH1 0x4 MSTORE DUP3 REVERT JUMPDEST POP PUSH4 0x4E487B71 PUSH1 0xE0 SHL PUSH1 0x0 SWAP1 DUP2 MSTORE PUSH1 0x41 PUSH1 0x4 MSTORE REVERT JUMPDEST PUSH4 0x4E487B71 PUSH1 0xE0 SHL DUP2 MSTORE PUSH1 0x11 PUSH1 0x4 MSTORE DUP6 SWAP1 REVERT JUMPDEST PUSH1 0x40 MLOAD PUSH3 0x461BCD PUSH1 0xE5 SHL DUP2 MSTORE PUSH1 0x20 PUSH1 0x4 DUP3 ADD MSTORE PUSH1 0x1D DUP2 DUP7 ADD MSTORE PUSH32 0x53616C654D616E616765723A206F7065726174696F6E20657869737473000000 PUSH1 0x44 DUP3 ADD MSTORE PUSH1 0x64 SWAP1 REVERT JUMPDEST PUSH1 0x40 MLOAD PUSH3 0x461BCD PUSH1 0xE5 SHL DUP2 MSTORE PUSH1 0x20 PUSH1 0x4 DUP3 ADD MSTORE PUSH1 0x18 DUP2 DUP5 ADD MSTORE PUSH32 0x53616C654D616E616765723A207A65726F207461726765740000000000000000 PUSH1 0x44 DUP3 ADD MSTORE PUSH1 0x64 SWAP1 REVERT JUMPDEST DUP3 DUP1 REVERT JUMPDEST POP CALLVALUE PUSH3 0x1E7 JUMPI PUSH1 0x20 SWAP1 DUP2 PUSH1 0x3 NOT CALLDATASIZE ADD SLT PUSH3 0x1E7 JUMPI PUSH1 0x4 CALLDATALOAD DUP2 MSTORE PUSH1 0x3 DUP3 MSTORE PUSH1 0x40 DUP2 KECCAK256 DUP1 SLOAD SWAP2 PUSH1 0x1 DUP1 DUP1 PUSH1 0xA0 SHL SUB PUSH1 0x1 DUP5 ADD SLOAD AND SWAP2 DUP6 PUSH1 0x2 DUP6 ADD PUSH1 0x40 MLOAD SWAP4 DUP4 DUP3 SLOAD SWAP3 PUSH3 0x10A5 DUP5 PUSH3 0x17FD JUMP JUMPDEST DUP1 DUP9 MSTORE SWAP4 PUSH1 0x1 DUP2 AND SWAP1 DUP2 ISZERO PUSH3 0x1150 JUMPI POP PUSH1 0x1 EQ PUSH3 0x1113 JUMPI JUMPDEST POP POP POP POP POP SWAP1 PUSH3 0x10D7 DUP2 PUSH3 0x1102 SWAP4 SUB DUP3 PUSH3 0x1781 JUMP JUMPDEST PUSH1 0xFF PUSH1 0x4 PUSH1 0x3 DUP7 ADD SLOAD SWAP6 ADD SLOAD AND SWAP3 PUSH1 0x40 MLOAD SWAP7 DUP8 SWAP7 DUP8 MSTORE DUP7 ADD MSTORE PUSH1 0xA0 PUSH1 0x40 DUP7 ADD MSTORE PUSH1 0xA0 DUP6 ADD SWAP1 PUSH3 0x185F JUMP JUMPDEST SWAP2 PUSH1 0x60 DUP5 ADD MSTORE ISZERO ISZERO PUSH1 0x80 DUP4 ADD MSTORE SUB SWAP1 RETURN JUMPDEST SWAP1 DUP1 SWAP5 SWAP6 POP MSTORE DUP4 DUP4 KECCAK256 JUMPDEST DUP3 DUP5 LT PUSH3 0x113C JUMPI POP POP POP DUP3 ADD ADD DUP6 DUP3 PUSH3 0x1102 PUSH3 0x10D7 CODESIZE PUSH3 0x10BF JUMP JUMPDEST DUP1 SLOAD DUP7 DUP6 ADD DUP7 ADD MSTORE SWAP3 DUP5 ADD SWAP3 DUP2 ADD PUSH3 0x111D JUMP JUMPDEST PUSH1 0xFF NOT AND DUP7 DUP10 ADD MSTORE POP POP POP POP ISZERO ISZERO PUSH1 0x5 SHL DUP4 ADD ADD SWAP1 POP DUP6 DUP3 PUSH3 0x1102 PUSH3 0x10D7 CODESIZE PUSH3 0x10BF JUMP JUMPDEST POP CALLVALUE PUSH3 0x1E7 JUMPI DUP1 PUSH1 0x3 NOT CALLDATASIZE ADD SLT PUSH3 0x1E7 JUMPI PUSH1 0x40 MLOAD PUSH32 0x0 PUSH1 0x1 PUSH1 0x1 PUSH1 0xA0 SHL SUB AND DUP2 MSTORE PUSH1 0x20 SWAP1 RETURN JUMPDEST POP CALLVALUE PUSH3 0x1E7 JUMPI DUP1 PUSH1 0x3 NOT CALLDATASIZE ADD SLT PUSH3 0x1E7 JUMPI PUSH1 0x40 MLOAD PUSH32 0x0 PUSH1 0x1 PUSH1 0x1 PUSH1 0xA0 SHL SUB AND DUP2 MSTORE PUSH1 0x20 SWAP1 RETURN JUMPDEST POP CALLVALUE PUSH3 0x1E7 JUMPI PUSH1 0x3 NOT SWAP1 PUSH1 0x20 CALLDATASIZE DUP4 ADD SLT PUSH3 0x1E7 JUMPI PUSH1 0x4 CALLDATALOAD SWAP2 PUSH8 0xFFFFFFFFFFFFFFFF SWAP1 DUP2 DUP5 GT PUSH3 0x1054 JUMPI PUSH2 0x100 SWAP1 DUP5 CALLDATASIZE SUB ADD SLT PUSH3 0x7A8 JUMPI PUSH1 0x40 MLOAD SWAP3 PUSH2 0x100 DUP5 ADD DUP5 DUP2 LT DUP4 DUP3 GT OR PUSH3 0x16E1 JUMPI PUSH1 0x40 MSTORE DUP1 PUSH1 0x4 ADD CALLDATALOAD DUP3 DUP2 GT PUSH3 0x16DD JUMPI DUP2 ADD CALLDATASIZE PUSH1 0x23 DUP3 ADD SLT ISZERO PUSH3 0x16DD JUMPI SWAP1 PUSH3 0x128B PUSH1 0xE4 SWAP3 CALLDATASIZE SWAP1 PUSH1 0x24 PUSH1 0x4 DUP3 ADD CALLDATALOAD SWAP2 ADD PUSH3 0x17C1 JUMP JUMPDEST DUP6 MSTORE PUSH1 0x24 DUP2 ADD CALLDATALOAD PUSH1 0x20 DUP7 ADD MSTORE PUSH1 0x44 DUP2 ADD CALLDATALOAD PUSH1 0x40 DUP7 ADD MSTORE PUSH1 0x64 DUP2 ADD CALLDATALOAD PUSH1 0x60 DUP7 ADD MSTORE PUSH1 0x84 DUP2 ADD CALLDATALOAD PUSH1 0x80 DUP7 ADD MSTORE PUSH1 0xA4 DUP2 ADD CALLDATALOAD PUSH1 0xA0 DUP7 ADD MSTORE PUSH1 0xC4 DUP2 ADD CALLDATALOAD PUSH1 0xC0 DUP7 ADD MSTORE ADD CALLDATALOAD DUP1 ISZERO ISZERO DUP2 SUB PUSH3 0x1054 JUMPI PUSH1 0xE0 DUP5 ADD MSTORE PUSH3 0x12E4 PUSH3 0x1A03 JUMP JUMPDEST PUSH1 0x20 DUP4 ADD MLOAD ISZERO PUSH3 0x1698 JUMPI PUSH1 0x40 DUP4 ADD MLOAD ISZERO PUSH3 0x1653 JUMPI PUSH1 0x80 DUP4 ADD MLOAD PUSH1 0x60 DUP5 ADD MLOAD LT ISZERO PUSH3 0x160E JUMPI PUSH1 0x40 MLOAD SWAP1 DUP2 PUSH2 0x2B44 DUP2 ADD LT SWAP1 PUSH2 0x2B44 DUP4 ADD GT OR PUSH3 0x15EE JUMPI PUSH2 0x2B44 PUSH3 0x1A31 DUP3 CODECOPY ADDRESS PUSH2 0x2B44 DUP3 ADD SWAP1 DUP2 MSTORE PUSH1 0x1 PUSH1 0x1 PUSH1 0xA0 SHL SUB PUSH32 0x0 DUP2 AND PUSH1 0x20 DUP4 ADD MSTORE PUSH32 0x0 DUP2 AND PUSH1 0x40 DUP4 ADD MSTORE PUSH32 0x0 DUP2 AND PUSH1 0x60 DUP4 ADD MSTORE PUSH32 0x0 DUP2 AND PUSH1 0x80 DUP4 ADD MSTORE PUSH32 0x0 DUP2 AND PUSH1 0xA0 DUP4 ADD MSTORE PUSH32 0x0 DUP2 AND PUSH1 0xC0 DUP4 ADD MSTORE PUSH32 0x0 DUP2 AND PUSH1 0xE0 DUP4 ADD MSTORE PUSH32 0x0 DUP2 AND PUSH2 0x100 DUP1 DUP5 ADD SWAP2 SWAP1 SWAP2 MSTORE PUSH32 0x0 SWAP1 SWAP2 AND PUSH2 0x120 DUP4 ADD MSTORE PUSH2 0x160 PUSH2 0x140 DUP4 ADD DUP2 SWAP1 MSTORE DUP6 MLOAD SWAP1 DUP4 ADD SWAP2 SWAP1 SWAP2 MSTORE DUP3 SWAP2 PUSH3 0x14D4 SWAP2 PUSH2 0x260 SWAP1 SWAP2 ADD SWAP1 PUSH3 0x185F JUMP JUMPDEST PUSH1 0x20 DUP6 ADD MLOAD PUSH2 0x2B44 DUP4 ADD PUSH2 0x180 DUP2 ADD SWAP2 SWAP1 SWAP2 MSTORE PUSH1 0x40 DUP7 ADD MLOAD PUSH2 0x1A0 DUP3 ADD MSTORE PUSH1 0x60 DUP7 ADD MLOAD PUSH2 0x1C0 DUP3 ADD MSTORE PUSH1 0x80 DUP7 ADD MLOAD PUSH2 0x1E0 DUP3 ADD MSTORE PUSH1 0xA0 DUP7 ADD MLOAD PUSH2 0x200 DUP3 ADD MSTORE PUSH1 0xC0 DUP7 ADD MLOAD PUSH2 0x220 DUP3 ADD MSTORE PUSH1 0xE0 DUP7 ADD MLOAD ISZERO ISZERO PUSH2 0x240 SWAP1 SWAP2 ADD MSTORE SUB SWAP1 DUP3 CREATE SWAP1 DUP2 ISZERO PUSH3 0x1602 JUMPI PUSH1 0x2 SLOAD PUSH9 0x10000000000000000 DUP2 LT ISZERO PUSH3 0x15EE JUMPI DUP1 PUSH1 0x1 PUSH3 0x155F SWAP3 ADD PUSH1 0x2 SSTORE PUSH3 0x189D JUMP JUMPDEST DUP2 SLOAD PUSH1 0x1 PUSH1 0x1 PUSH1 0xA0 SHL SUB SWAP5 DUP6 AND PUSH1 0x3 SWAP3 SWAP1 SWAP3 SHL DUP3 DUP2 SHL SWAP6 SWAP1 SHL NOT AND SWAP4 SWAP1 SWAP4 OR SWAP1 SSTORE PUSH1 0x2 SLOAD PUSH1 0x0 NOT DUP2 ADD SWAP2 SWAP1 DUP3 GT PUSH3 0x15DA JUMPI POP DUP2 PUSH32 0xA98BD13E2A1784A8B1FAD5A350965EABEB5D68DECD86B4C1BF8EC7C5BF3E0890 PUSH3 0x15CF PUSH1 0x20 SWAP6 MLOAD PUSH1 0x40 MLOAD SWAP2 DUP3 SWAP2 DUP9 DUP4 MSTORE DUP9 DUP4 ADD SWAP1 PUSH3 0x185F JUMP JUMPDEST SUB SWAP1 LOG3 PUSH1 0x40 MLOAD SWAP1 DUP2 MSTORE RETURN JUMPDEST PUSH4 0x4E487B71 PUSH1 0xE0 SHL DUP2 MSTORE PUSH1 0x11 PUSH1 0x4 MSTORE PUSH1 0x24 SWAP1 REVERT JUMPDEST PUSH4 0x4E487B71 PUSH1 0xE0 SHL DUP3 MSTORE PUSH1 0x41 PUSH1 0x4 MSTORE PUSH1 0x24 DUP3 REVERT JUMPDEST PUSH1 0x40 MLOAD SWAP1 RETURNDATASIZE SWAP1 DUP3 RETURNDATACOPY RETURNDATASIZE SWAP1 REVERT JUMPDEST PUSH1 0x40 MLOAD PUSH3 0x461BCD PUSH1 0xE5 SHL DUP2 MSTORE PUSH1 0x20 PUSH1 0x4 DUP3 ADD MSTORE PUSH1 0x1F PUSH1 0x24 DUP3 ADD MSTORE PUSH32 0x53616C654D616E616765723A20696E76616C69642074696D652072616E676500 PUSH1 0x44 DUP3 ADD MSTORE PUSH1 0x64 SWAP1 REVERT JUMPDEST PUSH1 0x40 MLOAD PUSH3 0x461BCD PUSH1 0xE5 SHL DUP2 MSTORE PUSH1 0x20 PUSH1 0x4 DUP3 ADD MSTORE PUSH1 0x1D PUSH1 0x24 DUP3 ADD MSTORE PUSH32 0x53616C654D616E616765723A20696E76616C6964206861726420636170000000 PUSH1 0x44 DUP3 ADD MSTORE PUSH1 0x64 SWAP1 REVERT JUMPDEST PUSH1 0x40 MLOAD PUSH3 0x461BCD PUSH1 0xE5 SHL DUP2 MSTORE PUSH1 0x20 PUSH1 0x4 DUP3 ADD MSTORE PUSH1 0x1A PUSH1 0x24 DUP3 ADD MSTORE PUSH32 0x53616C654D616E616765723A20696E76616C6964207072696365000000000000 PUSH1 0x44 DUP3 ADD MSTORE PUSH1 0x64 SWAP1 REVERT JUMPDEST DUP4 DUP1 REVERT JUMPDEST PUSH4 0x4E487B71 PUSH1 0xE0 SHL PUSH1 0x0 MSTORE PUSH1 0x41 PUSH1 0x4 MSTORE PUSH1 0x24 PUSH1 0x0 REVERT JUMPDEST POP CALLVALUE PUSH3 0x1E7 JUMPI PUSH1 0x20 CALLDATASIZE PUSH1 0x3 NOT ADD SLT PUSH3 0x1E7 JUMPI DUP1 PUSH3 0x171D PUSH1 0x4 CALLDATALOAD PUSH3 0x231 PUSH3 0x1A03 JUMP JUMPDEST SWAP1 SLOAD PUSH1 0x3 SWAP2 SWAP1 SWAP2 SHL SHR PUSH1 0x1 PUSH1 0x1 PUSH1 0xA0 SHL SUB AND DUP1 EXTCODESIZE ISZERO PUSH3 0x447 JUMPI DUP2 SWAP1 PUSH1 0x4 PUSH1 0x40 MLOAD DUP1 SWAP5 DUP2 SWAP4 PUSH4 0x8456CB59 PUSH1 0xE0 SHL DUP4 MSTORE GAS CALL DUP1 ISZERO PUSH3 0x38C JUMPI PUSH3 0x175E JUMPI POP DUP1 RETURN JUMPDEST PUSH3 0x1769 SWAP1 PUSH3 0x176C JUMP JUMPDEST DUP1 RETURN JUMPDEST PUSH8 0xFFFFFFFFFFFFFFFF DUP2 GT PUSH3 0x16E1 JUMPI PUSH1 0x40 MSTORE JUMP JUMPDEST SWAP1 PUSH1 0x1F DUP1 NOT SWAP2 ADD AND DUP2 ADD SWAP1 DUP2 LT PUSH8 0xFFFFFFFFFFFFFFFF DUP3 GT OR PUSH3 0x16E1 JUMPI PUSH1 0x40 MSTORE JUMP JUMPDEST PUSH8 0xFFFFFFFFFFFFFFFF DUP2 GT PUSH3 0x16E1 JUMPI PUSH1 0x1F ADD PUSH1 0x1F NOT AND PUSH1 0x20 ADD SWAP1 JUMP JUMPDEST SWAP3 SWAP2 SWAP3 PUSH3 0x17CF DUP3 PUSH3 0x17A4 JUMP JUMPDEST SWAP2 PUSH3 0x17DF PUSH1 0x40 MLOAD SWAP4 DUP5 PUSH3 0x1781 JUMP JUMPDEST DUP3 SWAP5 DUP2 DUP5 MSTORE DUP2 DUP4 ADD GT PUSH3 0x3CC JUMPI DUP3 DUP2 PUSH1 0x20 SWAP4 DUP5 PUSH1 0x0 SWAP7 ADD CALLDATACOPY ADD ADD MSTORE JUMP JUMPDEST SWAP1 PUSH1 0x1 DUP3 DUP2 SHR SWAP3 AND DUP1 ISZERO PUSH3 0x182F JUMPI JUMPDEST PUSH1 0x20 DUP4 LT EQ PUSH3 0x1819 JUMPI JUMP JUMPDEST PUSH4 0x4E487B71 PUSH1 0xE0 SHL PUSH1 0x0 MSTORE PUSH1 0x22 PUSH1 0x4 MSTORE PUSH1 0x24 PUSH1 0x0 REVERT JUMPDEST SWAP2 PUSH1 0x7F AND SWAP2 PUSH3 0x180D JUMP JUMPDEST PUSH1 0x0 JUMPDEST DUP4 DUP2 LT PUSH3 0x184E JUMPI POP POP PUSH1 0x0 SWAP2 ADD MSTORE JUMP JUMPDEST DUP2 DUP2 ADD MLOAD DUP4 DUP3 ADD MSTORE PUSH1 0x20 ADD PUSH3 0x183D JUMP JUMPDEST SWAP1 PUSH1 0x20 SWAP2 PUSH3 0x187A DUP2 MLOAD DUP1 SWAP3 DUP2 DUP6 MSTORE DUP6 DUP1 DUP7 ADD SWAP2 ADD PUSH3 0x183A JUMP JUMPDEST PUSH1 0x1F ADD PUSH1 0x1F NOT AND ADD ADD SWAP1 JUMP JUMPDEST PUSH1 0x4 CALLDATALOAD SWAP1 PUSH1 0x1 PUSH1 0x1 PUSH1 0xA0 SHL SUB DUP3 AND DUP3 SUB PUSH3 0x3CC JUMPI JUMP JUMPDEST PUSH1 0x2 SLOAD DUP2 LT ISZERO PUSH3 0x18D5 JUMPI PUSH1 0x2 PUSH1 0x0 MSTORE PUSH32 0x405787FA12A823E0F2B7631CC41B3BA8828B3321CA811111FA75CD3AA3BB5ACE ADD SWAP1 PUSH1 0x0 SWAP1 JUMP JUMPDEST PUSH4 0x4E487B71 PUSH1 0xE0 SHL PUSH1 0x0 MSTORE PUSH1 0x32 PUSH1 0x4 MSTORE PUSH1 0x24 PUSH1 0x0 REVERT JUMPDEST ISZERO PUSH3 0x18F3 JUMPI JUMP JUMPDEST PUSH1 0x40 MLOAD PUSH3 0x461BCD PUSH1 0xE5 SHL DUP2 MSTORE PUSH1 0x20 PUSH1 0x4 DUP3 ADD MSTORE PUSH1 0x1A PUSH1 0x24 DUP3 ADD MSTORE PUSH32 0x53616C654D616E616765723A20696E76616C696420696E646578000000000000 PUSH1 0x44 DUP3 ADD MSTORE PUSH1 0x64 SWAP1 REVERT JUMPDEST DUP2 DUP2 LT PUSH3 0x1944 JUMPI POP POP JUMP JUMPDEST PUSH1 0x0 DUP2 SSTORE PUSH1 0x1 ADD PUSH3 0x1938 JUMP JUMPDEST ISZERO PUSH3 0x1959 JUMPI JUMP JUMPDEST PUSH1 0x64 PUSH1 0x40 MLOAD PUSH3 0x461BCD PUSH1 0xE5 SHL DUP2 MSTORE PUSH1 0x20 PUSH1 0x4 DUP3 ADD MSTORE PUSH1 0x20 PUSH1 0x24 DUP3 ADD MSTORE PUSH32 0x53616C654D616E616765723A206F7065726174696F6E206E6F7420666F756E64 PUSH1 0x44 DUP3 ADD MSTORE REVERT JUMPDEST ISZERO PUSH3 0x19A5 JUMPI JUMP JUMPDEST PUSH1 0x40 MLOAD PUSH3 0x461BCD PUSH1 0xE5 SHL DUP2 MSTORE PUSH1 0x20 PUSH1 0x4 DUP3 ADD MSTORE PUSH1 0x1D PUSH1 0x24 DUP3 ADD MSTORE PUSH32 0x53616C654D616E616765723A20616C7265616479206578656375746564000000 PUSH1 0x44 DUP3 ADD MSTORE PUSH1 0x64 SWAP1 REVERT JUMPDEST PUSH8 0xFFFFFFFFFFFFFFFF DUP2 GT PUSH3 0x16E1 JUMPI PUSH1 0x5 SHL PUSH1 0x20 ADD SWAP1 JUMP JUMPDEST PUSH1 0x0 SLOAD PUSH1 0x1 PUSH1 0x1 PUSH1 0xA0 SHL SUB AND CALLER SUB PUSH3 0x1A18 JUMPI JUMP JUMPDEST PUSH1 0x40 MLOAD PUSH4 0x118CDAA7 PUSH1 0xE0 SHL DUP2 MSTORE CALLER PUSH1 0x4 DUP3 ADD MSTORE PUSH1 0x24 SWAP1 REVERT INVALID PUSH2 0x1C0 PUSH1 0x40 MSTORE CALLVALUE PUSH3 0x86C JUMPI PUSH3 0x2B44 DUP1 CODESIZE SUB DUP1 PUSH3 0x1E DUP2 PUSH3 0x88B JUMP JUMPDEST SWAP3 DUP4 CODECOPY PUSH2 0x160 DUP3 DUP3 DUP2 ADD SUB SLT PUSH3 0x86C JUMPI PUSH3 0x3A DUP3 PUSH3 0x8B1 JUMP JUMPDEST PUSH3 0x48 PUSH1 0x20 DUP5 ADD PUSH3 0x8B1 JUMP JUMPDEST PUSH3 0x56 PUSH1 0x40 DUP6 ADD PUSH3 0x8B1 JUMP JUMPDEST PUSH3 0x64 PUSH1 0x60 DUP7 ADD PUSH3 0x8B1 JUMP JUMPDEST PUSH3 0x72 PUSH1 0x80 DUP8 ADD PUSH3 0x8B1 JUMP JUMPDEST SWAP1 PUSH3 0x81 PUSH1 0xA0 DUP9 ADD PUSH3 0x8B1 JUMP JUMPDEST SWAP3 PUSH3 0x90 PUSH1 0xC0 DUP10 ADD PUSH3 0x8B1 JUMP JUMPDEST SWAP5 PUSH3 0x9F PUSH1 0xE0 DUP11 ADD PUSH3 0x8B1 JUMP JUMPDEST SWAP7 PUSH3 0xAF PUSH2 0x100 DUP12 ADD PUSH3 0x8B1 JUMP JUMPDEST SWAP9 PUSH3 0xBF PUSH2 0x120 DUP13 ADD PUSH3 0x8B1 JUMP JUMPDEST PUSH2 0x140 DUP13 ADD MLOAD SWAP1 SWAP12 SWAP1 SWAP2 PUSH1 0x1 PUSH1 0x1 PUSH1 0x40 SHL SUB DUP4 GT PUSH3 0x86C JUMPI PUSH2 0x100 DUP4 DUP4 ADD DUP3 DUP5 ADD SUB SLT PUSH3 0x86C JUMPI PUSH1 0x40 MLOAD PUSH2 0x1A0 DUP2 SWAP1 MSTORE PUSH2 0x100 DUP2 ADD SWAP1 DUP2 LT PUSH1 0x1 PUSH1 0x1 PUSH1 0x40 SHL SUB DUP3 GT OR PUSH3 0x5A4 JUMPI PUSH1 0x40 MSTORE DUP2 DUP4 ADD MLOAD PUSH1 0x1 PUSH1 0x1 PUSH1 0x40 SHL SUB DUP2 GT PUSH3 0x86C JUMPI DUP2 DUP4 ADD PUSH1 0x1F DUP3 DUP7 DUP7 ADD ADD ADD SLT ISZERO PUSH3 0x86C JUMPI DUP3 DUP5 ADD DUP2 ADD MLOAD SWAP1 PUSH1 0x1 PUSH1 0x1 PUSH1 0x40 SHL SUB DUP3 GT PUSH3 0x5A4 JUMPI PUSH3 0x15C PUSH1 0x1F DUP4 ADD PUSH1 0x1F NOT AND PUSH1 0x20 ADD PUSH3 0x88B JUMP JUMPDEST SWAP3 DUP3 DUP5 MSTORE DUP5 ADD PUSH1 0x20 DUP4 DUP4 DUP9 DUP9 ADD ADD ADD ADD GT PUSH3 0x86C JUMPI PUSH1 0x0 JUMPDEST DUP3 DUP2 LT PUSH3 0x871 JUMPI POP POP SWAP1 PUSH1 0x0 PUSH1 0x20 PUSH1 0xE0 SWAP6 SWAP5 SWAP4 DUP4 ADD ADD MSTORE PUSH2 0x1A0 MLOAD MSTORE PUSH1 0x20 DUP3 DUP3 ADD ADD MLOAD PUSH1 0x20 PUSH2 0x1A0 MLOAD ADD MSTORE PUSH1 0x40 DUP3 DUP3 ADD ADD MLOAD PUSH1 0x40 PUSH2 0x1A0 MLOAD ADD MSTORE PUSH1 0x60 DUP3 DUP3 ADD ADD MLOAD PUSH1 0x60 PUSH2 0x1A0 MLOAD ADD MSTORE PUSH1 0x80 DUP3 DUP3 ADD ADD MLOAD PUSH1 0x80 PUSH2 0x1A0 MLOAD ADD MSTORE PUSH1 0xA0 DUP3 DUP3 ADD ADD MLOAD PUSH1 0xA0 PUSH2 0x1A0 MLOAD ADD MSTORE PUSH1 0xC0 DUP3 DUP3 ADD ADD MLOAD PUSH1 0xC0 PUSH2 0x1A0 MLOAD ADD MSTORE ADD ADD MLOAD DUP1 ISZERO ISZERO DUP2 SUB PUSH3 0x86C JUMPI PUSH2 0x1A0 MLOAD PUSH1 0xE0 ADD MSTORE PUSH1 0x1 PUSH1 0x0 SSTORE PUSH1 0x1 PUSH1 0x1 PUSH1 0xA0 SHL SUB DUP2 AND ISZERO PUSH3 0x827 JUMPI PUSH1 0x1 PUSH1 0x1 PUSH1 0xA0 SHL SUB DUP3 AND ISZERO PUSH3 0x7E2 JUMPI PUSH1 0x1 PUSH1 0x1 PUSH1 0xA0 SHL SUB DUP4 AND ISZERO PUSH3 0x79D JUMPI PUSH1 0x1 PUSH1 0x1 PUSH1 0xA0 SHL SUB DUP5 AND ISZERO PUSH3 0x758 JUMPI PUSH1 0x1 PUSH1 0x1 PUSH1 0xA0 SHL SUB DUP6 AND ISZERO PUSH3 0x713 JUMPI PUSH1 0x1 PUSH1 0x1 PUSH1 0xA0 SHL SUB DUP7 AND ISZERO PUSH3 0x6CE JUMPI PUSH1 0x1 PUSH1 0x1 PUSH1 0xA0 SHL SUB DUP8 AND ISZERO PUSH3 0x689 JUMPI PUSH1 0x1 PUSH1 0x1 PUSH1 0xA0 SHL SUB DUP9 AND ISZERO PUSH3 0x644 JUMPI PUSH1 0x1 PUSH1 0x1 PUSH1 0xA0 SHL SUB DUP10 AND ISZERO PUSH3 0x5FF JUMPI PUSH1 0x1 PUSH1 0x1 PUSH1 0xA0 SHL SUB DUP11 AND ISZERO PUSH3 0x5BA JUMPI PUSH1 0x80 MSTORE PUSH1 0x1 PUSH1 0x1 PUSH1 0xA0 SHL SUB SWAP1 DUP2 AND PUSH1 0xA0 MSTORE SWAP1 DUP2 AND PUSH1 0xC0 MSTORE SWAP1 DUP2 AND PUSH1 0xE0 MSTORE SWAP1 DUP2 AND PUSH2 0x100 MSTORE SWAP1 DUP2 AND PUSH2 0x120 MSTORE SWAP1 DUP2 AND PUSH2 0x140 MSTORE SWAP1 DUP2 AND PUSH2 0x160 MSTORE SWAP1 DUP2 AND PUSH2 0x180 MSTORE PUSH1 0xA DUP1 SLOAD PUSH1 0x1 PUSH1 0x1 PUSH1 0xA0 SHL SUB NOT AND SWAP3 SWAP1 SWAP2 AND SWAP2 SWAP1 SWAP2 OR SWAP1 SSTORE PUSH2 0x1A0 MLOAD MLOAD DUP1 MLOAD PUSH1 0x1 PUSH1 0x1 PUSH1 0x40 SHL SUB DUP2 GT PUSH3 0x5A4 JUMPI PUSH1 0x2 SLOAD PUSH1 0x1 DUP2 DUP2 SHR SWAP2 AND DUP1 ISZERO PUSH3 0x599 JUMPI JUMPDEST PUSH1 0x20 DUP3 LT EQ PUSH3 0x583 JUMPI PUSH1 0x1F DUP2 GT PUSH3 0x519 JUMPI JUMPDEST POP PUSH1 0x20 SWAP2 PUSH1 0x1F DUP3 GT PUSH1 0x1 EQ PUSH3 0x4AF JUMPI SWAP2 DUP2 SWAP3 PUSH1 0x0 SWAP3 PUSH3 0x4A3 JUMPI JUMPDEST POP POP DUP2 PUSH1 0x1 SHL SWAP2 PUSH1 0x0 NOT SWAP1 PUSH1 0x3 SHL SHR NOT AND OR PUSH1 0x2 SSTORE JUMPDEST PUSH1 0x20 PUSH2 0x1A0 MLOAD ADD MLOAD PUSH1 0x3 SSTORE PUSH1 0x40 PUSH2 0x1A0 MLOAD ADD MLOAD PUSH1 0x4 SSTORE PUSH1 0x60 PUSH2 0x1A0 MLOAD ADD MLOAD PUSH1 0x5 SSTORE PUSH1 0x80 PUSH2 0x1A0 MLOAD ADD MLOAD PUSH1 0x6 SSTORE PUSH1 0xA0 PUSH2 0x1A0 MLOAD ADD MLOAD PUSH1 0x7 SSTORE PUSH1 0xC0 PUSH2 0x1A0 MLOAD ADD MLOAD PUSH1 0x8 SSTORE PUSH1 0xE0 PUSH2 0x1A0 MLOAD ADD MLOAD ISZERO ISZERO PUSH1 0xFF DUP1 NOT PUSH1 0x9 SLOAD AND SWAP2 AND OR PUSH1 0x9 SSTORE PUSH1 0x40 MLOAD PUSH2 0x227D SWAP1 DUP2 PUSH3 0x8C7 DUP3 CODECOPY PUSH1 0x80 MLOAD DUP2 DUP2 DUP2 PUSH2 0x619 ADD MSTORE DUP2 DUP2 PUSH2 0x839 ADD MSTORE DUP2 DUP2 PUSH2 0xF85 ADD MSTORE DUP2 DUP2 PUSH2 0x11D7 ADD MSTORE PUSH2 0x13CC ADD MSTORE PUSH1 0xA0 MLOAD DUP2 PUSH2 0x3C0 ADD MSTORE PUSH1 0xC0 MLOAD DUP2 DUP2 DUP2 PUSH2 0x7F5 ADD MSTORE PUSH2 0x1B75 ADD MSTORE PUSH1 0xE0 MLOAD DUP2 DUP2 DUP2 PUSH2 0x7B1 ADD MSTORE PUSH2 0x1BAF ADD MSTORE PUSH2 0x100 MLOAD DUP2 DUP2 DUP2 PUSH2 0x404 ADD MSTORE DUP2 DUP2 PUSH2 0xA02 ADD MSTORE DUP2 DUP2 PUSH2 0xC71 ADD MSTORE DUP2 DUP2 PUSH2 0x1D89 ADD MSTORE PUSH2 0x1F89 ADD MSTORE PUSH2 0x120 MLOAD DUP2 DUP2 DUP2 PUSH2 0x265 ADD MSTORE DUP2 DUP2 PUSH2 0x37C ADD MSTORE PUSH2 0xAC4 ADD MSTORE PUSH2 0x140 MLOAD DUP2 DUP2 DUP2 PUSH2 0x448 ADD MSTORE DUP2 DUP2 PUSH2 0xB65 ADD MSTORE DUP2 DUP2 PUSH2 0x10CA ADD MSTORE PUSH2 0x1E6D ADD MSTORE PUSH2 0x160 MLOAD DUP2 DUP2 DUP2 PUSH2 0x4F8 ADD MSTORE PUSH2 0x1018 ADD MSTORE PUSH2 0x180 MLOAD DUP2 DUP2 DUP2 PUSH2 0x20F ADD MSTORE PUSH2 0x105C ADD MSTORE RETURN JUMPDEST ADD MLOAD SWAP1 POP CODESIZE DUP1 PUSH3 0x356 JUMP JUMPDEST PUSH1 0x1F NOT DUP3 AND SWAP3 PUSH1 0x2 PUSH1 0x0 MSTORE PUSH1 0x20 PUSH1 0x0 KECCAK256 SWAP2 PUSH1 0x0 JUMPDEST DUP6 DUP2 LT PUSH3 0x500 JUMPI POP DUP4 PUSH1 0x1 SWAP6 LT PUSH3 0x4E6 JUMPI JUMPDEST POP POP POP DUP2 SHL ADD PUSH1 0x2 SSTORE PUSH3 0x36C JUMP JUMPDEST ADD MLOAD PUSH1 0x0 NOT PUSH1 0xF8 DUP5 PUSH1 0x3 SHL AND SHR NOT AND SWAP1 SSTORE CODESIZE DUP1 DUP1 PUSH3 0x4D7 JUMP JUMPDEST SWAP2 SWAP3 PUSH1 0x20 PUSH1 0x1 DUP2 SWAP3 DUP7 DUP6 ADD MLOAD DUP2 SSTORE ADD SWAP5 ADD SWAP3 ADD PUSH3 0x4C3 JUMP JUMPDEST PUSH1 0x2 PUSH1 0x0 MSTORE PUSH32 0x405787FA12A823E0F2B7631CC41B3BA8828B3321CA811111FA75CD3AA3BB5ACE PUSH1 0x1F DUP4 ADD PUSH1 0x5 SHR DUP2 ADD SWAP2 PUSH1 0x20 DUP5 LT PUSH3 0x578 JUMPI JUMPDEST PUSH1 0x1F ADD PUSH1 0x5 SHR ADD SWAP1 JUMPDEST DUP2 DUP2 LT PUSH3 0x56B JUMPI POP PUSH3 0x33A JUMP JUMPDEST PUSH1 0x0 DUP2 SSTORE PUSH1 0x1 ADD PUSH3 0x55C JUMP JUMPDEST SWAP1 SWAP2 POP DUP2 SWAP1 PUSH3 0x553 JUMP JUMPDEST PUSH4 0x4E487B71 PUSH1 0xE0 SHL PUSH1 0x0 MSTORE PUSH1 0x22 PUSH1 0x4 MSTORE PUSH1 0x24 PUSH1 0x0 REVERT JUMPDEST SWAP1 PUSH1 0x7F AND SWAP1 PUSH3 0x326 JUMP JUMPDEST PUSH4 0x4E487B71 PUSH1 0xE0 SHL PUSH1 0x0 MSTORE PUSH1 0x41 PUSH1 0x4 MSTORE PUSH1 0x24 PUSH1 0x0 REVERT JUMPDEST PUSH1 0x40 MLOAD PUSH3 0x461BCD PUSH1 0xE5 SHL DUP2 MSTORE PUSH1 0x20 PUSH1 0x4 DUP3 ADD MSTORE PUSH1 0x16 PUSH1 0x24 DUP3 ADD MSTORE PUSH32 0x53616C65526F756E643A207A65726F206F7261636C6500000000000000000000 PUSH1 0x44 DUP3 ADD MSTORE PUSH1 0x64 SWAP1 REVERT JUMPDEST PUSH1 0x40 MLOAD PUSH3 0x461BCD PUSH1 0xE5 SHL DUP2 MSTORE PUSH1 0x20 PUSH1 0x4 DUP3 ADD MSTORE PUSH1 0x14 PUSH1 0x24 DUP3 ADD MSTORE PUSH32 0x53616C65526F756E643A207A65726F2075736474000000000000000000000000 PUSH1 0x44 DUP3 ADD MSTORE PUSH1 0x64 SWAP1 REVERT JUMPDEST PUSH1 0x40 MLOAD PUSH3 0x461BCD PUSH1 0xE5 SHL DUP2 MSTORE PUSH1 0x20 PUSH1 0x4 DUP3 ADD MSTORE PUSH1 0x14 PUSH1 0x24 DUP3 ADD MSTORE PUSH32 0x53616C65526F756E643A207A65726F2075736463000000000000000000000000 PUSH1 0x44 DUP3 ADD MSTORE PUSH1 0x64 SWAP1 REVERT JUMPDEST PUSH1 0x40 MLOAD PUSH3 0x461BCD PUSH1 0xE5 SHL DUP2 MSTORE PUSH1 0x20 PUSH1 0x4 DUP3 ADD MSTORE PUSH1 0x18 PUSH1 0x24 DUP3 ADD MSTORE PUSH32 0x53616C65526F756E643A207A65726F20726566657272616C0000000000000000 PUSH1 0x44 DUP3 ADD MSTORE PUSH1 0x64 SWAP1 REVERT JUMPDEST PUSH1 0x40 MLOAD PUSH3 0x461BCD PUSH1 0xE5 SHL DUP2 MSTORE PUSH1 0x20 PUSH1 0x4 DUP3 ADD MSTORE PUSH1 0x15 PUSH1 0x24 DUP3 ADD MSTORE PUSH32 0x53616C65526F756E643A207A65726F2066756E64730000000000000000000000 PUSH1 0x44 DUP3 ADD MSTORE PUSH1 0x64 SWAP1 REVERT JUMPDEST PUSH1 0x40 MLOAD PUSH3 0x461BCD PUSH1 0xE5 SHL DUP2 MSTORE PUSH1 0x20 PUSH1 0x4 DUP3 ADD MSTORE PUSH1 0x17 PUSH1 0x24 DUP3 ADD MSTORE PUSH32 0x53616C65526F756E643A207A65726F2076657374696E67000000000000000000 PUSH1 0x44 DUP3 ADD MSTORE PUSH1 0x64 SWAP1 REVERT JUMPDEST PUSH1 0x40 MLOAD PUSH3 0x461BCD PUSH1 0xE5 SHL DUP2 MSTORE PUSH1 0x20 PUSH1 0x4 DUP3 ADD MSTORE PUSH1 0x17 PUSH1 0x24 DUP3 ADD MSTORE PUSH32 0x53616C65526F756E643A207A65726F206C696D69746572000000000000000000 PUSH1 0x44 DUP3 ADD MSTORE PUSH1 0x64 SWAP1 REVERT JUMPDEST PUSH1 0x40 MLOAD PUSH3 0x461BCD PUSH1 0xE5 SHL DUP2 MSTORE PUSH1 0x20 PUSH1 0x4 DUP3 ADD MSTORE PUSH1 0x13 PUSH1 0x24 DUP3 ADD MSTORE PUSH32 0x53616C65526F756E643A207A65726F206B796300000000000000000000000000 PUSH1 0x44 DUP3 ADD MSTORE PUSH1 0x64 SWAP1 REVERT JUMPDEST PUSH1 0x40 MLOAD PUSH3 0x461BCD PUSH1 0xE5 SHL DUP2 MSTORE PUSH1 0x20 PUSH1 0x4 DUP3 ADD MSTORE PUSH1 0x15 PUSH1 0x24 DUP3 ADD MSTORE PUSH32 0x53616C65526F756E643A207A65726F20746F6B656E0000000000000000000000 PUSH1 0x44 DUP3 ADD MSTORE PUSH1 0x64 SWAP1 REVERT JUMPDEST PUSH1 0x40 MLOAD PUSH3 0x461BCD PUSH1 0xE5 SHL DUP2 MSTORE PUSH1 0x20 PUSH1 0x4 DUP3 ADD MSTORE PUSH1 0x17 PUSH1 0x24 DUP3 ADD MSTORE PUSH32 0x53616C65526F756E643A207A65726F206D616E61676572000000000000000000 PUSH1 0x44 DUP3 ADD MSTORE PUSH1 0x64 SWAP1 REVERT JUMPDEST PUSH1 0x0 DUP1 REVERT JUMPDEST DUP1 PUSH1 0x20 DUP1 SWAP3 DUP5 DUP10 DUP10 ADD ADD ADD ADD MLOAD DUP3 DUP3 DUP8 ADD ADD MSTORE ADD PUSH3 0x175 JUMP JUMPDEST PUSH1 0x40 MLOAD SWAP2 SWAP1 PUSH1 0x1F ADD PUSH1 0x1F NOT AND DUP3 ADD PUSH1 0x1 PUSH1 0x1 PUSH1 0x40 SHL SUB DUP2 GT DUP4 DUP3 LT OR PUSH3 0x5A4 JUMPI PUSH1 0x40 MSTORE JUMP JUMPDEST MLOAD SWAP1 PUSH1 0x1 PUSH1 0x1 PUSH1 0xA0 SHL SUB DUP3 AND DUP3 SUB PUSH3 0x86C JUMPI JUMP INVALID PUSH1 0x80 PUSH1 0x40 SWAP1 DUP1 DUP3 MSTORE PUSH1 0x4 SWAP1 DUP2 CALLDATASIZE LT ISZERO PUSH2 0x17 JUMPI PUSH1 0x0 DUP1 REVERT JUMPDEST PUSH1 0x0 SWAP2 DUP3 CALLDATALOAD PUSH1 0xE0 SHR SWAP2 DUP3 PUSH4 0x7B6859A EQ PUSH2 0x12DB JUMPI POP DUP2 PUSH4 0xB6D621C EQ PUSH2 0x12A3 JUMPI DUP2 PUSH4 0x1252AF75 EQ PUSH2 0x1284 JUMPI DUP2 PUSH4 0x1CB44DFC EQ PUSH2 0x11AC JUMPI DUP2 PUSH4 0x21874AE2 EQ PUSH2 0x108B JUMPI DUP2 PUSH4 0x2F48AB7D EQ PUSH2 0x1047 JUMPI DUP2 PUSH4 0x3E413BEE EQ PUSH2 0x1003 JUMPI DUP2 PUSH4 0x3F4BA83A EQ PUSH2 0xF6C JUMPI DUP2 PUSH4 0x42E94C90 EQ PUSH2 0xF34 JUMPI DUP2 PUSH4 0x444AA92F EQ PUSH2 0x868 JUMPI SWAP2 DUP1 SWAP4 SWAP3 DUP3 PUSH4 0x481C6A75 EQ PUSH2 0x824 JUMPI DUP3 PUSH4 0x4B155B97 EQ PUSH2 0x7E0 JUMPI DUP3 PUSH4 0x53D4FE33 EQ PUSH2 0x79C JUMPI DUP3 PUSH4 0x5C975ABB EQ PUSH2 0x778 JUMPI DUP3 PUSH4 0x6386C1C7 EQ PUSH2 0x720 JUMPI DUP3 PUSH4 0x63B20117 EQ PUSH2 0x701 JUMPI DUP3 PUSH4 0x706EB3AB EQ PUSH2 0x6D8 JUMPI DUP3 PUSH4 0x79502C55 EQ PUSH2 0x663 JUMPI DUP3 PUSH4 0x8456CB59 EQ PUSH2 0x5DC JUMPI DUP3 PUSH4 0x84BC76A6 EQ PUSH2 0x52F JUMPI DUP3 PUSH4 0x8C28C31A EQ PUSH2 0x477 JUMPI DUP3 PUSH4 0xA04E876C EQ PUSH2 0x433 JUMPI DUP3 PUSH4 0xA5917BAF EQ PUSH2 0x3EF JUMPI DUP3 PUSH4 0xAC76A908 EQ PUSH2 0x3AB JUMPI DUP3 PUSH4 0xB6CB7F41 EQ PUSH2 0x367 JUMPI DUP3 PUSH4 0xD095362F EQ PUSH2 0x18E JUMPI POP POP PUSH4 0xFF5BC5A6 EQ PUSH2 0x154 JUMPI PUSH1 0x0 DUP1 REVERT JUMPDEST CALLVALUE PUSH2 0x18A JUMPI PUSH1 0x20 CALLDATASIZE PUSH1 0x3 NOT ADD SLT PUSH2 0x18A JUMPI PUSH1 0x20 SWAP2 DUP2 SWAP1 PUSH1 0x1 PUSH1 0x1 PUSH1 0xA0 SHL SUB PUSH2 0x17A PUSH2 0x1766 JUMP JUMPDEST AND DUP2 MSTORE PUSH1 0xF DUP5 MSTORE KECCAK256 SLOAD SWAP1 MLOAD SWAP1 DUP2 MSTORE RETURN JUMPDEST POP DUP1 REVERT JUMPDEST SWAP2 POP SWAP2 CALLVALUE PUSH2 0x363 JUMPI DUP1 PUSH1 0x3 NOT CALLDATASIZE ADD SLT PUSH2 0x363 JUMPI DUP2 CALLDATALOAD SWAP2 PUSH2 0x1AC PUSH2 0x1781 JUMP JUMPDEST SWAP3 PUSH2 0x1B5 PUSH2 0x1B0E JUMP JUMPDEST PUSH2 0x1BD PUSH2 0x1B31 JUMP JUMPDEST PUSH2 0x1CB PUSH1 0xFF PUSH1 0x9 SLOAD AND PUSH2 0x19FA JUMP JUMPDEST PUSH2 0x1D9 PUSH1 0x5 SLOAD TIMESTAMP LT ISZERO PUSH2 0x1A3E JUMP JUMPDEST PUSH2 0x1E7 PUSH1 0x6 SLOAD TIMESTAMP GT ISZERO PUSH2 0x1A83 JUMP JUMPDEST PUSH2 0x1F5 PUSH1 0xB SLOAD DUP4 SLOAD GT PUSH2 0x1AC2 JUMP JUMPDEST PUSH2 0x1FF DUP2 CALLER PUSH2 0x1B4F JUMP JUMPDEST PUSH2 0x208 DUP2 PUSH2 0x1C8F JUMP JUMPDEST SWAP4 PUSH2 0x24F DUP3 PUSH32 0x0 PUSH2 0x246 PUSH1 0x1 DUP1 PUSH1 0xA0 SHL SUB SWAP5 DUP6 DUP4 AND SWAP10 DUP5 DUP1 DUP13 CALLER PUSH2 0x1CF0 JUMP JUMPDEST ADDRESS SWAP1 CALLER SWAP1 PUSH2 0x21A8 JUMP JUMPDEST DUP4 MLOAD PUSH4 0x95EA7B3 PUSH1 0xE0 SHL DUP2 MSTORE PUSH1 0x1 PUSH1 0x1 PUSH1 0xA0 SHL SUB PUSH32 0x0 SWAP3 SWAP1 SWAP3 AND SWAP2 DUP3 AND DUP5 DUP3 ADD SWAP1 DUP2 MSTORE PUSH1 0x20 DUP2 DUP2 ADD DUP6 SWAP1 MSTORE SWAP1 DUP3 SWAP1 DUP2 SWAP1 PUSH1 0x40 ADD SUB DUP2 DUP11 DUP11 GAS CALL DUP1 ISZERO PUSH2 0x359 JUMPI PUSH2 0x32A JUMPI JUMPDEST POP DUP1 EXTCODESIZE ISZERO PUSH2 0x326 JUMPI DUP4 MLOAD PUSH4 0x19C5AEF5 PUSH1 0xE1 SHL DUP2 MSTORE PUSH1 0x1 PUSH1 0x1 PUSH1 0xA0 SHL SUB SWAP1 SWAP6 AND SWAP3 DUP6 ADD SWAP3 DUP4 MSTORE PUSH1 0x20 DUP4 ADD SWAP2 SWAP1 SWAP2 MSTORE DUP5 SWAP2 DUP5 SWAP2 SWAP1 DUP3 SWAP1 DUP5 SWAP1 DUP3 SWAP1 PUSH1 0x40 ADD SUB SWAP3 GAS CALL SWAP1 DUP2 ISZERO PUSH2 0x31D JUMPI POP PUSH2 0x306 JUMPI JUMPDEST POP PUSH1 0x1 SWAP1 SSTORE DUP1 RETURN JUMPDEST PUSH2 0x30F SWAP1 PUSH2 0x1714 JUMP JUMPDEST PUSH2 0x31A JUMPI DUP1 CODESIZE PUSH2 0x2FE JUMP JUMPDEST DUP1 REVERT JUMPDEST MLOAD RETURNDATASIZE DUP5 DUP3 RETURNDATACOPY RETURNDATASIZE SWAP1 REVERT JUMPDEST DUP6 DUP1 REVERT JUMPDEST PUSH2 0x34B SWAP1 PUSH1 0x20 RETURNDATASIZE PUSH1 0x20 GT PUSH2 0x352 JUMPI JUMPDEST PUSH2 0x343 DUP2 DUP4 PUSH2 0x1728 JUMP JUMPDEST DUP2 ADD SWAP1 PUSH2 0x19E2 JUMP JUMPDEST POP CODESIZE PUSH2 0x2B2 JUMP JUMPDEST POP RETURNDATASIZE PUSH2 0x339 JUMP JUMPDEST DUP6 MLOAD RETURNDATASIZE DUP10 DUP3 RETURNDATACOPY RETURNDATASIZE SWAP1 REVERT JUMPDEST POP POP REVERT JUMPDEST POP DUP3 CALLVALUE PUSH2 0x18A JUMPI DUP2 PUSH1 0x3 NOT CALLDATASIZE ADD SLT PUSH2 0x18A JUMPI MLOAD PUSH32 0x0 PUSH1 0x1 PUSH1 0x1 PUSH1 0xA0 SHL SUB AND DUP2 MSTORE PUSH1 0x20 SWAP1 RETURN JUMPDEST POP DUP3 CALLVALUE PUSH2 0x18A JUMPI DUP2 PUSH1 0x3 NOT CALLDATASIZE ADD SLT PUSH2 0x18A JUMPI MLOAD PUSH32 0x0 PUSH1 0x1 PUSH1 0x1 PUSH1 0xA0 SHL SUB AND DUP2 MSTORE PUSH1 0x20 SWAP1 RETURN JUMPDEST POP DUP3 CALLVALUE PUSH2 0x18A JUMPI DUP2 PUSH1 0x3 NOT CALLDATASIZE ADD SLT PUSH2 0x18A JUMPI MLOAD PUSH32 0x0 PUSH1 0x1 PUSH1 0x1 PUSH1 0xA0 SHL SUB AND DUP2 MSTORE PUSH1 0x20 SWAP1 RETURN JUMPDEST POP DUP3 CALLVALUE PUSH2 0x18A JUMPI DUP2 PUSH1 0x3 NOT CALLDATASIZE ADD SLT PUSH2 0x18A JUMPI MLOAD PUSH32 0x0 PUSH1 0x1 PUSH1 0x1 PUSH1 0xA0 SHL SUB AND DUP2 MSTORE PUSH1 0x20 SWAP1 RETURN JUMPDEST SWAP2 POP SWAP2 CALLVALUE PUSH2 0x363 JUMPI DUP1 PUSH1 0x3 NOT CALLDATASIZE ADD SLT PUSH2 0x363 JUMPI DUP2 CALLDATALOAD SWAP2 PUSH2 0x495 PUSH2 0x1781 JUMP JUMPDEST SWAP3 PUSH2 0x49E PUSH2 0x1B0E JUMP JUMPDEST PUSH2 0x4A6 PUSH2 0x1B31 JUMP JUMPDEST PUSH2 0x4B4 PUSH1 0xFF PUSH1 0x9 SLOAD AND PUSH2 0x19FA JUMP JUMPDEST PUSH2 0x4C2 PUSH1 0x5 SLOAD TIMESTAMP LT ISZERO PUSH2 0x1A3E JUMP JUMPDEST PUSH2 0x4D0 PUSH1 0x6 SLOAD TIMESTAMP GT ISZERO PUSH2 0x1A83 JUMP JUMPDEST PUSH2 0x4DE PUSH1 0xB SLOAD DUP4 SLOAD GT PUSH2 0x1AC2 JUMP JUMPDEST PUSH2 0x4E8 DUP2 CALLER PUSH2 0x1B4F JUMP JUMPDEST PUSH2 0x4F1 DUP2 PUSH2 0x1C8F JUMP JUMPDEST SWAP4 PUSH2 0x24F DUP3 PUSH32 0x0 PUSH2 0x246 PUSH1 0x1 DUP1 PUSH1 0xA0 SHL SUB SWAP5 DUP6 DUP4 AND SWAP10 DUP5 DUP1 DUP13 CALLER PUSH2 0x1CF0 JUMP JUMPDEST DUP4 CALLVALUE PUSH2 0x5D8 JUMPI DUP3 PUSH1 0x3 NOT CALLDATASIZE ADD SLT PUSH2 0x5D8 JUMPI PUSH2 0x5D4 SWAP3 PUSH1 0xE0 DUP3 MLOAD PUSH2 0x551 DUP2 PUSH2 0x16E1 JUMP JUMPDEST PUSH1 0x60 DUP2 MSTORE DUP3 PUSH1 0x20 DUP3 ADD MSTORE DUP3 DUP5 DUP3 ADD MSTORE DUP3 PUSH1 0x60 DUP3 ADD MSTORE DUP3 PUSH1 0x80 DUP3 ADD MSTORE DUP3 PUSH1 0xA0 DUP3 ADD MSTORE DUP3 PUSH1 0xC0 DUP3 ADD MSTORE ADD MSTORE DUP1 MLOAD SWAP2 PUSH2 0x586 DUP4 PUSH2 0x16E1 JUMP JUMPDEST PUSH2 0x58E PUSH2 0x17D1 JUMP JUMPDEST DUP4 MSTORE PUSH1 0x3 SLOAD PUSH1 0x20 DUP5 ADD MSTORE SLOAD DUP2 DUP4 ADD MSTORE PUSH1 0x5 SLOAD PUSH1 0x60 DUP4 ADD MSTORE PUSH1 0x6 SLOAD PUSH1 0x80 DUP4 ADD MSTORE PUSH1 0x7 SLOAD PUSH1 0xA0 DUP4 ADD MSTORE PUSH1 0x8 SLOAD PUSH1 0xC0 DUP4 ADD MSTORE PUSH1 0xFF PUSH1 0x9 SLOAD AND ISZERO ISZERO PUSH1 0xE0 DUP4 ADD MSTORE MLOAD SWAP2 DUP3 SWAP2 DUP3 PUSH2 0x18D7 JUMP JUMPDEST SUB SWAP1 RETURN JUMPDEST DUP3 DUP1 REVERT JUMPDEST POP DUP3 CALLVALUE PUSH2 0x18A JUMPI DUP2 PUSH1 0x3 NOT CALLDATASIZE ADD SLT PUSH2 0x18A JUMPI PUSH32 0x62E78CEA01BEE320CD4E420270B5EA74000D11B0C9F74754EBDBFC544B05A258 SWAP1 PUSH1 0x20 SWAP1 PUSH2 0x647 CALLER PUSH32 0x0 PUSH1 0x1 PUSH1 0x1 PUSH1 0xA0 SHL SUB AND EQ PUSH2 0x193D JUMP JUMPDEST PUSH2 0x64F PUSH2 0x1B31 JUMP JUMPDEST PUSH1 0x1 PUSH1 0xFF NOT DUP2 SLOAD AND OR PUSH1 0x1 SSTORE MLOAD CALLER DUP2 MSTORE LOG1 DUP1 RETURN JUMPDEST DUP4 SWAP1 CALLVALUE PUSH2 0x5D8 JUMPI DUP3 PUSH1 0x3 NOT CALLDATASIZE ADD SLT PUSH2 0x5D8 JUMPI PUSH2 0x6B0 SWAP3 POP PUSH2 0x682 PUSH2 0x17D1 JUMP JUMPDEST SWAP2 PUSH1 0x3 SLOAD SWAP2 SLOAD PUSH1 0x5 SLOAD PUSH1 0x6 SLOAD PUSH1 0x7 SLOAD SWAP2 PUSH1 0x8 SLOAD SWAP4 PUSH1 0xFF PUSH1 0x9 SLOAD AND SWAP6 DUP1 MLOAD SWAP10 DUP11 SWAP10 PUSH2 0x100 DUP1 DUP13 MSTORE DUP12 ADD SWAP1 PUSH2 0x1897 JUMP JUMPDEST SWAP8 PUSH1 0x20 DUP11 ADD MSTORE DUP9 ADD MSTORE PUSH1 0x60 DUP8 ADD MSTORE PUSH1 0x80 DUP7 ADD MSTORE PUSH1 0xA0 DUP6 ADD MSTORE PUSH1 0xC0 DUP5 ADD MSTORE ISZERO ISZERO PUSH1 0xE0 DUP4 ADD MSTORE SUB SWAP1 RETURN JUMPDEST POP DUP3 CALLVALUE PUSH2 0x18A JUMPI DUP2 PUSH1 0x3 NOT CALLDATASIZE ADD SLT PUSH2 0x18A JUMPI PUSH1 0xA SLOAD SWAP1 MLOAD PUSH1 0x1 PUSH1 0x1 PUSH1 0xA0 SHL SUB SWAP1 SWAP2 AND DUP2 MSTORE PUSH1 0x20 SWAP1 RETURN JUMPDEST POP DUP3 CALLVALUE PUSH2 0x18A JUMPI DUP2 PUSH1 0x3 NOT CALLDATASIZE ADD SLT PUSH2 0x18A JUMPI PUSH1 0x20 SWAP1 PUSH1 0xC SLOAD SWAP1 MLOAD SWAP1 DUP2 MSTORE RETURN JUMPDEST POP DUP3 CALLVALUE PUSH2 0x18A JUMPI PUSH1 0x20 CALLDATASIZE PUSH1 0x3 NOT ADD SLT PUSH2 0x18A JUMPI PUSH1 0x1 PUSH1 0x1 PUSH1 0xA0 SHL SUB PUSH2 0x743 PUSH2 0x1766 JUMP JUMPDEST AND DUP3 MSTORE PUSH1 0xD PUSH1 0x20 SWAP1 DUP2 MSTORE DUP2 DUP4 KECCAK256 SLOAD PUSH1 0xE DUP3 MSTORE DUP3 DUP5 KECCAK256 SLOAD PUSH1 0xF DUP4 MSTORE SWAP4 DUP4 SWAP1 KECCAK256 SLOAD SWAP3 MLOAD SWAP1 DUP2 MSTORE SWAP1 DUP2 ADD SWAP3 SWAP1 SWAP3 MSTORE PUSH1 0x40 DUP3 ADD MSTORE PUSH1 0x60 SWAP1 RETURN JUMPDEST POP DUP3 CALLVALUE PUSH2 0x18A JUMPI DUP2 PUSH1 0x3 NOT CALLDATASIZE ADD SLT PUSH2 0x18A JUMPI PUSH1 0x20 SWAP1 PUSH1 0xFF PUSH1 0x1 SLOAD AND SWAP1 MLOAD SWAP1 ISZERO ISZERO DUP2 MSTORE RETURN JUMPDEST POP DUP3 CALLVALUE PUSH2 0x18A JUMPI DUP2 PUSH1 0x3 NOT CALLDATASIZE ADD SLT PUSH2 0x18A JUMPI MLOAD PUSH32 0x0 PUSH1 0x1 PUSH1 0x1 PUSH1 0xA0 SHL SUB AND DUP2 MSTORE PUSH1 0x20 SWAP1 RETURN JUMPDEST POP DUP3 CALLVALUE PUSH2 0x18A JUMPI DUP2 PUSH1 0x3 NOT CALLDATASIZE ADD SLT PUSH2 0x18A JUMPI MLOAD PUSH32 0x0 PUSH1 0x1 PUSH1 0x1 PUSH1 0xA0 SHL SUB AND DUP2 MSTORE PUSH1 0x20 SWAP1 RETURN JUMPDEST POP DUP3 CALLVALUE PUSH2 0x18A JUMPI DUP2 PUSH1 0x3 NOT CALLDATASIZE ADD SLT PUSH2 0x18A JUMPI MLOAD PUSH32 0x0 PUSH1 0x1 PUSH1 0x1 PUSH1 0xA0 SHL SUB AND DUP2 MSTORE PUSH1 0x20 SWAP1 RETURN JUMPDEST SWAP1 POP PUSH1 0x20 SWAP3 DUP4 PUSH1 0x3 NOT CALLDATASIZE ADD SLT PUSH2 0x5D8 JUMPI PUSH2 0x880 PUSH2 0x1766 JUMP JUMPDEST SWAP4 PUSH2 0x889 PUSH2 0x1B0E JUMP JUMPDEST PUSH2 0x891 PUSH2 0x1B31 JUMP JUMPDEST PUSH2 0x89F PUSH1 0xFF PUSH1 0x9 SLOAD AND PUSH2 0x19FA JUMP JUMPDEST PUSH2 0x8AD PUSH1 0x5 SLOAD TIMESTAMP LT ISZERO PUSH2 0x1A3E JUMP JUMPDEST PUSH2 0x8BB PUSH1 0x6 SLOAD TIMESTAMP GT ISZERO PUSH2 0x1A83 JUMP JUMPDEST PUSH2 0x8C9 PUSH1 0xB SLOAD DUP5 SLOAD GT PUSH2 0x1AC2 JUMP JUMPDEST CALLVALUE ISZERO PUSH2 0xEFD JUMPI PUSH1 0xA SLOAD DUP3 MLOAD PUSH4 0x50D25BCD PUSH1 0xE0 SHL DUP2 DUP5 ADD SWAP1 DUP2 MSTORE DUP6 DUP3 MSTORE PUSH1 0x1 PUSH1 0x1 PUSH1 0xA0 SHL SUB SWAP4 SWAP3 DUP5 AND SWAP2 DUP1 DUP7 ADD PUSH8 0xFFFFFFFFFFFFFFFF DUP2 GT DUP3 DUP3 LT OR PUSH2 0xEEA JUMPI DUP7 MSTORE MLOAD DUP8 SWAP3 DUP4 SWAP3 SWAP1 GAS STATICCALL RETURNDATASIZE ISZERO PUSH2 0xEE2 JUMPI RETURNDATASIZE SWAP1 PUSH2 0x923 DUP3 PUSH2 0x174A JUMP JUMPDEST SWAP2 PUSH2 0x930 DUP7 MLOAD SWAP4 DUP5 PUSH2 0x1728 JUMP JUMPDEST DUP3 MSTORE RETURNDATASIZE DUP8 DUP5 DUP5 ADD RETURNDATACOPY JUMPDEST ISZERO PUSH2 0xE9F JUMPI DUP2 DUP2 DUP1 MLOAD DUP2 ADD SUB SLT PUSH2 0x326 JUMPI DUP2 PUSH1 0x64 SWAP2 ADD MLOAD PUSH2 0x95B DUP8 DUP3 SGT PUSH2 0x1982 JUMP JUMPDEST DIV DUP1 CALLVALUE MUL SWAP1 CALLVALUE DUP3 DIV SUB PUSH2 0xE8C JUMPI PUSH8 0xDE0B6B3A7640000 SWAP1 DIV PUSH2 0x97D DUP2 CALLER PUSH2 0x1B4F JUMP JUMPDEST PUSH2 0x986 DUP2 PUSH2 0x1C8F JUMP JUMPDEST DUP7 SWAP3 PUSH2 0x994 DUP4 PUSH1 0xB SLOAD PUSH2 0x1CE3 JUMP JUMPDEST DUP8 SLOAD LT PUSH2 0xE4A JUMPI CALLER DUP9 MSTORE PUSH1 0xD DUP2 MSTORE DUP6 DUP9 KECCAK256 PUSH2 0x9B0 DUP5 DUP3 SLOAD PUSH2 0x1CE3 JUMP JUMPDEST SWAP1 SSTORE CALLER DUP9 MSTORE PUSH1 0xE DUP2 MSTORE DUP6 DUP9 KECCAK256 PUSH2 0x9C7 DUP4 DUP3 SLOAD PUSH2 0x1CE3 JUMP JUMPDEST SWAP1 SSTORE PUSH2 0x9D5 DUP4 PUSH1 0xB SLOAD PUSH2 0x1CE3 JUMP JUMPDEST PUSH1 0xB SSTORE PUSH2 0x9E4 DUP3 PUSH1 0xC SLOAD PUSH2 0x1CE3 JUMP JUMPDEST PUSH1 0xC SSTORE DUP5 DUP3 SWAP10 AND DUP1 ISZERO ISZERO DUP1 PUSH2 0xE40 JUMPI JUMPDEST PUSH2 0xB52 JUMPI JUMPDEST POP POP PUSH1 0x6 SLOAD SWAP8 DUP5 PUSH32 0x0 AND PUSH1 0x7 SLOAD PUSH1 0x8 SLOAD SWAP3 DUP3 EXTCODESIZE ISZERO PUSH2 0xB4E JUMPI DUP9 MLOAD PUSH4 0x75591D5F PUSH1 0xE1 SHL DUP2 MSTORE CALLER DUP2 DUP13 ADD SWAP1 DUP2 MSTORE PUSH1 0x20 DUP2 ADD SWAP3 SWAP1 SWAP3 MSTORE PUSH1 0x40 DUP3 ADD SWAP3 SWAP1 SWAP3 MSTORE PUSH1 0x60 DUP2 ADD SWAP4 SWAP1 SWAP4 MSTORE PUSH1 0x80 DUP4 ADD SWAP11 SWAP1 SWAP11 MSTORE DUP5 SWAP2 DUP11 SWAP2 SWAP1 DUP3 SWAP1 DUP5 SWAP1 DUP3 SWAP1 PUSH1 0xA0 ADD SUB SWAP3 GAS CALL SWAP8 DUP9 ISZERO PUSH2 0xB44 JUMPI DUP8 SWAP9 SWAP8 SWAP6 SWAP7 SWAP8 PUSH2 0xB24 JUMPI JUMPDEST POP DUP6 MLOAD CALLVALUE DUP2 MSTORE PUSH1 0x20 DUP2 ADD SWAP3 SWAP1 SWAP3 MSTORE PUSH1 0x40 DUP3 ADD MSTORE CALLER SWAP1 PUSH32 0x8F7A55179307CEA51948432D653DBD53A23FEDC388BCB3E04E311F8220D87864 SWAP1 PUSH1 0x60 SWAP1 LOG3 PUSH32 0x0 AND DUP1 EXTCODESIZE ISZERO PUSH2 0x18A JUMPI DUP3 MLOAD PUSH4 0xF6326FB3 PUSH1 0xE0 SHL DUP2 MSTORE SWAP4 DUP5 SWAP2 DUP3 SWAP1 CALLVALUE SWAP1 GAS CALL SWAP1 DUP2 ISZERO PUSH2 0x31D JUMPI POP PUSH2 0xB15 JUMPI JUMPDEST POP PUSH1 0x1 DUP2 SSTORE DUP1 RETURN JUMPDEST PUSH2 0xB1E SWAP1 PUSH2 0x1714 JUMP JUMPDEST CODESIZE PUSH2 0xB0D JUMP JUMPDEST DUP4 SWAP5 SWAP6 POP PUSH2 0xB35 SWAP1 SWAP4 SWAP2 SWAP3 SWAP4 PUSH2 0x1714 JUMP JUMPDEST PUSH2 0x5D8 JUMPI SWAP1 DUP7 SWAP4 SWAP3 SWAP2 CODESIZE PUSH2 0xA87 JUMP JUMPDEST DUP6 MLOAD RETURNDATASIZE DUP6 DUP3 RETURNDATACOPY RETURNDATASIZE SWAP1 REVERT JUMPDEST DUP7 DUP1 REVERT JUMPDEST DUP7 MLOAD PUSH4 0x308A59B PUSH1 0xE3 SHL DUP2 MSTORE CALLER DUP10 DUP3 ADD MSTORE PUSH32 0x0 DUP8 AND SWAP2 SWAP1 DUP4 DUP2 PUSH1 0x24 DUP2 DUP7 GAS STATICCALL SWAP1 DUP2 ISZERO PUSH2 0xE36 JUMPI SWAP1 DUP6 SWAP4 SWAP3 SWAP2 DUP13 SWAP2 PUSH2 0xE19 JUMPI JUMPDEST POP ISZERO PUSH2 0xDB2 JUMPI JUMPDEST POP DUP8 MLOAD PUSH4 0xD8ABFEE5 PUSH1 0xE0 SHL DUP2 MSTORE CALLER DUP2 DUP12 ADD SWAP1 DUP2 MSTORE PUSH1 0x20 DUP2 ADD SWAP4 SWAP1 SWAP4 MSTORE SWAP3 SWAP2 PUSH1 0x60 SWAP2 DUP5 SWAP2 DUP3 SWAP1 DUP10 SWAP1 DUP3 SWAP1 PUSH1 0x40 ADD JUMPDEST SUB SWAP3 GAS CALL SWAP2 DUP3 ISZERO PUSH2 0xDA8 JUMPI DUP6 SWAP3 DUP7 SWAP2 DUP8 SWAP2 PUSH2 0xD5D JUMPI JUMPDEST POP DUP8 DUP5 AND SWAP3 DUP4 PUSH2 0xC00 JUMPI JUMPDEST POP POP POP PUSH2 0x9F9 JUMP JUMPDEST SWAP1 SWAP2 SWAP3 DUP1 SWAP5 SWAP13 POP DUP8 MSTORE PUSH1 0xE DUP2 MSTORE DUP9 DUP8 KECCAK256 PUSH2 0xC1B DUP5 DUP3 SLOAD PUSH2 0x1CE3 JUMP JUMPDEST SWAP1 SSTORE DUP4 DUP8 MSTORE PUSH1 0xF DUP2 MSTORE DUP9 DUP8 KECCAK256 PUSH2 0xC32 DUP5 DUP3 SLOAD PUSH2 0x1CE3 JUMP JUMPDEST SWAP1 SSTORE CALLER DUP8 MSTORE PUSH1 0xF DUP2 MSTORE DUP9 DUP8 KECCAK256 PUSH2 0xC49 DUP4 DUP3 SLOAD PUSH2 0x1CE3 JUMP JUMPDEST SWAP1 SSTORE PUSH2 0xC60 PUSH2 0xC58 DUP4 DUP6 PUSH2 0x1CE3 JUMP JUMPDEST PUSH1 0xC SLOAD PUSH2 0x1CE3 JUMP JUMPDEST PUSH1 0xC SSTORE PUSH2 0xC6D DUP3 DUP7 PUSH2 0x1CE3 JUMP JUMPDEST SWAP12 DUP9 PUSH32 0x0 AND PUSH1 0x7 SLOAD SWAP2 PUSH1 0x8 SLOAD PUSH1 0x6 SLOAD SWAP1 DUP4 EXTCODESIZE ISZERO PUSH2 0xD59 JUMPI SWAP2 DUP12 DUP16 DUP16 DUP3 SWAP7 SWAP5 DUP12 SWAP7 PUSH2 0xCF0 SWAP3 MLOAD SWAP10 DUP11 SWAP9 DUP10 SWAP8 DUP9 SWAP7 PUSH4 0x75591D5F PUSH1 0xE1 SHL DUP9 MSTORE DUP8 ADD SWAP2 SWAP3 PUSH1 0x80 SWAP4 SWAP7 SWAP6 SWAP5 SWAP2 SWAP7 PUSH1 0xA0 DUP5 ADD SWAP8 PUSH1 0x1 DUP1 PUSH1 0xA0 SHL SUB AND DUP5 MSTORE PUSH1 0x20 DUP5 ADD MSTORE PUSH1 0x40 DUP4 ADD MSTORE PUSH1 0x60 DUP3 ADD MSTORE ADD MSTORE JUMP JUMPDEST SUB SWAP3 GAS CALL DUP1 ISZERO PUSH2 0xD4F JUMPI SWAP1 DUP9 SWAP2 PUSH2 0xD3B JUMPI JUMPDEST POP POP DUP9 MLOAD SWAP3 DUP4 MSTORE DUP3 ADD MSTORE PUSH32 0x8A888A9AC1098C12B38ADE27D5D5B51CE092D9271475E3024A084BFC73FD5798 DUP8 CALLER SWAP3 LOG3 CODESIZE DUP1 DUP1 DUP1 DUP1 PUSH2 0xBF8 JUMP JUMPDEST PUSH2 0xD44 SWAP1 PUSH2 0x1714 JUMP JUMPDEST PUSH2 0xB4E JUMPI DUP7 CODESIZE PUSH2 0xD02 JUMP JUMPDEST DUP11 MLOAD RETURNDATASIZE DUP11 DUP3 RETURNDATACOPY RETURNDATASIZE SWAP1 REVERT JUMPDEST DUP12 DUP1 REVERT JUMPDEST SWAP4 POP POP POP PUSH1 0x60 DUP3 RETURNDATASIZE PUSH1 0x60 GT PUSH2 0xDA0 JUMPI JUMPDEST DUP2 PUSH2 0xD7A PUSH1 0x60 SWAP4 DUP4 PUSH2 0x1728 JUMP JUMPDEST DUP2 ADD SUB SLT PUSH2 0xD9C JUMPI PUSH2 0xD8B DUP3 PUSH2 0x19CE JUMP JUMPDEST DUP8 DUP3 DUP5 ADD MLOAD SWAP4 ADD MLOAD SWAP1 SWAP3 SWAP1 CODESIZE PUSH2 0xBED JUMP JUMPDEST DUP5 DUP1 REVERT JUMPDEST RETURNDATASIZE SWAP2 POP PUSH2 0xD6D JUMP JUMPDEST DUP8 MLOAD RETURNDATASIZE DUP8 DUP3 RETURNDATACOPY RETURNDATASIZE SWAP1 REVERT JUMPDEST SWAP1 DUP1 SWAP3 POP EXTCODESIZE ISZERO PUSH2 0xE15 JUMPI DUP8 MLOAD SWAP1 PUSH4 0x5603B9F9 PUSH1 0xE0 SHL DUP3 MSTORE CALLER DUP11 DUP4 ADD MSTORE PUSH1 0x24 DUP3 ADD MSTORE DUP10 DUP2 PUSH1 0x44 DUP2 DUP4 DUP7 GAS CALL DUP1 ISZERO PUSH2 0xE0B JUMPI PUSH2 0xDEF JUMPI JUMPDEST SWAP1 DUP4 SWAP2 PUSH2 0xBAA JUMP JUMPDEST PUSH2 0xBD7 SWAP3 SWAP2 SWAP6 POP PUSH2 0xDFF SWAP1 PUSH2 0x1714 JUMP JUMPDEST DUP9 SWAP5 SWAP1 SWAP2 POP PUSH1 0x60 PUSH2 0xDE7 JUMP JUMPDEST DUP9 MLOAD RETURNDATASIZE DUP13 DUP3 RETURNDATACOPY RETURNDATASIZE SWAP1 REVERT JUMPDEST DUP10 DUP1 REVERT JUMPDEST PUSH2 0xE30 SWAP2 POP DUP6 RETURNDATASIZE DUP8 GT PUSH2 0x352 JUMPI PUSH2 0x343 DUP2 DUP4 PUSH2 0x1728 JUMP JUMPDEST CODESIZE PUSH2 0xBA3 JUMP JUMPDEST DUP10 MLOAD RETURNDATASIZE DUP14 DUP3 RETURNDATACOPY RETURNDATASIZE SWAP1 REVERT JUMPDEST POP CALLER DUP2 EQ ISZERO PUSH2 0x9F4 JUMP JUMPDEST DUP7 PUSH1 0x64 SWAP2 DUP8 MLOAD SWAP2 PUSH3 0x461BCD PUSH1 0xE5 SHL DUP4 MSTORE DUP3 ADD MSTORE PUSH1 0x1B PUSH1 0x24 DUP3 ADD MSTORE PUSH32 0x53616C65526F756E643A20657863656564732068617264206361700000000000 PUSH1 0x44 DUP3 ADD MSTORE REVERT JUMPDEST PUSH4 0x4E487B71 PUSH1 0xE0 SHL DUP7 MSTORE PUSH1 0x11 DUP6 MSTORE PUSH1 0x24 DUP7 REVERT JUMPDEST DUP4 MLOAD PUSH3 0x461BCD PUSH1 0xE5 SHL DUP2 MSTORE DUP1 DUP7 ADD DUP4 SWAP1 MSTORE PUSH1 0x1D PUSH1 0x24 DUP3 ADD MSTORE PUSH32 0x53616C65526F756E643A206F7261636C652063616C6C206661696C6564000000 PUSH1 0x44 DUP3 ADD MSTORE PUSH1 0x64 SWAP1 REVERT JUMPDEST PUSH1 0x60 SWAP1 PUSH2 0x939 JUMP JUMPDEST PUSH4 0x4E487B71 PUSH1 0xE0 SHL DUP10 MSTORE PUSH1 0x41 DUP9 MSTORE PUSH1 0x24 DUP10 REVERT JUMPDEST SWAP1 MLOAD PUSH3 0x461BCD PUSH1 0xE5 SHL DUP2 MSTORE SWAP2 DUP3 ADD MSTORE PUSH1 0x13 PUSH1 0x24 DUP3 ADD MSTORE PUSH19 0xA6C2D8CAA4DEEADCC87440F4CAE4DE408AA89 PUSH1 0x6B SHL PUSH1 0x44 DUP3 ADD MSTORE PUSH1 0x64 SWAP1 REVERT JUMPDEST DUP3 DUP5 CALLVALUE PUSH2 0x18A JUMPI PUSH1 0x20 CALLDATASIZE PUSH1 0x3 NOT ADD SLT PUSH2 0x18A JUMPI PUSH1 0x20 SWAP2 DUP2 SWAP1 PUSH1 0x1 PUSH1 0x1 PUSH1 0xA0 SHL SUB PUSH2 0xF5C PUSH2 0x1766 JUMP JUMPDEST AND DUP2 MSTORE PUSH1 0xD DUP5 MSTORE KECCAK256 SLOAD SWAP1 MLOAD SWAP1 DUP2 MSTORE RETURN JUMPDEST DUP4 SWAP2 POP CALLVALUE PUSH2 0x5D8 JUMPI DUP3 PUSH1 0x3 NOT CALLDATASIZE ADD SLT PUSH2 0x5D8 JUMPI PUSH2 0xFB3 CALLER PUSH32 0x0 PUSH1 0x1 PUSH1 0x1 PUSH1 0xA0 SHL SUB AND EQ PUSH2 0x193D JUMP JUMPDEST PUSH1 0x1 SLOAD SWAP1 PUSH1 0xFF DUP3 AND ISZERO PUSH2 0xFF5 JUMPI POP PUSH1 0xFF NOT AND PUSH1 0x1 SSTORE MLOAD CALLER DUP2 MSTORE PUSH32 0x5DB9EE0A495BF2E6FF9C91A7834C1BA4FDD244A5E8AA4E537BD38AEAE4B073AA SWAP1 PUSH1 0x20 SWAP1 LOG1 DUP1 RETURN JUMPDEST DUP3 MLOAD PUSH4 0x8DFC202B PUSH1 0xE0 SHL DUP2 MSTORE REVERT JUMPDEST DUP3 DUP5 CALLVALUE PUSH2 0x18A JUMPI DUP2 PUSH1 0x3 NOT CALLDATASIZE ADD SLT PUSH2 0x18A JUMPI MLOAD PUSH32 0x0 PUSH1 0x1 PUSH1 0x1 PUSH1 0xA0 SHL SUB AND DUP2 MSTORE PUSH1 0x20 SWAP1 RETURN JUMPDEST DUP3 DUP5 CALLVALUE PUSH2 0x18A JUMPI DUP2 PUSH1 0x3 NOT CALLDATASIZE ADD SLT PUSH2 0x18A JUMPI MLOAD PUSH32 0x0 PUSH1 0x1 PUSH1 0x1 PUSH1 0xA0 SHL SUB AND DUP2 MSTORE PUSH1 0x20 SWAP1 RETURN JUMPDEST SWAP2 SWAP1 POP CALLVALUE PUSH2 0x31A JUMPI PUSH1 0x20 SWAP1 DUP2 PUSH1 0x3 NOT CALLDATASIZE ADD SLT PUSH2 0x31A JUMPI PUSH2 0x10A9 PUSH2 0x1766 JUMP JUMPDEST DUP5 MLOAD PUSH4 0x4A9FEFC7 PUSH1 0xE0 SHL DUP2 MSTORE PUSH1 0x1 PUSH1 0x1 PUSH1 0xA0 SHL SUB SWAP2 DUP3 AND DUP2 DUP7 ADD DUP2 SWAP1 MSTORE SWAP1 SWAP5 PUSH32 0x0 DUP4 AND SWAP2 SWAP1 DUP6 DUP8 PUSH1 0x24 DUP2 DUP7 GAS STATICCALL SWAP7 DUP8 ISZERO PUSH2 0x11A2 JUMPI DUP6 SWAP8 PUSH2 0x1165 JUMPI JUMPDEST POP SWAP1 PUSH1 0x24 DUP7 SWAP3 DUP10 MLOAD SWAP5 DUP6 SWAP4 DUP5 SWAP3 PUSH4 0x308A59B PUSH1 0xE3 SHL DUP5 MSTORE DUP4 ADD MSTORE GAS STATICCALL SWAP3 DUP4 ISZERO PUSH2 0x115A JUMPI SWAP3 PUSH2 0x113B JUMPI JUMPDEST POP DUP5 MLOAD SWAP4 AND DUP4 MSTORE ISZERO ISZERO SWAP1 DUP3 ADD MSTORE RETURN JUMPDEST PUSH2 0x1153 SWAP2 SWAP3 POP DUP4 RETURNDATASIZE DUP6 GT PUSH2 0x352 JUMPI PUSH2 0x343 DUP2 DUP4 PUSH2 0x1728 JUMP JUMPDEST SWAP1 CODESIZE PUSH2 0x112C JUMP JUMPDEST DUP7 MLOAD SWAP1 RETURNDATASIZE SWAP1 DUP3 RETURNDATACOPY RETURNDATASIZE SWAP1 REVERT JUMPDEST SWAP1 SWAP7 POP DUP6 DUP2 DUP2 RETURNDATASIZE DUP4 GT PUSH2 0x119B JUMPI JUMPDEST PUSH2 0x117D DUP2 DUP4 PUSH2 0x1728 JUMP JUMPDEST DUP2 ADD SUB SLT PUSH2 0xD9C JUMPI SWAP1 PUSH1 0x24 PUSH2 0x1192 DUP8 SWAP4 PUSH2 0x19CE JUMP JUMPDEST SWAP8 SWAP2 SWAP3 POP PUSH2 0x1103 JUMP JUMPDEST POP RETURNDATASIZE PUSH2 0x1173 JUMP JUMPDEST DUP9 MLOAD RETURNDATASIZE DUP8 DUP3 RETURNDATACOPY RETURNDATASIZE SWAP1 REVERT JUMPDEST DUP4 SWAP2 POP CALLVALUE PUSH2 0x5D8 JUMPI PUSH1 0x20 CALLDATASIZE PUSH1 0x3 NOT ADD SLT PUSH2 0x5D8 JUMPI PUSH2 0x11C8 PUSH2 0x1766 JUMP JUMPDEST PUSH1 0x1 PUSH1 0x1 PUSH1 0xA0 SHL SUB SWAP1 PUSH2 0x11FE CALLER PUSH32 0x0 DUP5 AND EQ PUSH2 0x193D JUMP JUMPDEST AND SWAP2 DUP3 ISZERO PUSH2 0x1241 JUMPI POP POP PUSH1 0xA DUP1 SLOAD PUSH1 0x1 PUSH1 0x1 PUSH1 0xA0 SHL SUB NOT AND DUP3 OR SWAP1 SSTORE PUSH32 0x3DF77BEB5DB05FCDD70A30FC8ADF3F83F9501B68579455ADBD100B8180940394 DUP3 DUP1 LOG2 DUP1 RETURN JUMPDEST SWAP1 PUSH1 0x20 PUSH1 0x64 SWAP3 MLOAD SWAP2 PUSH3 0x461BCD PUSH1 0xE5 SHL DUP4 MSTORE DUP3 ADD MSTORE PUSH1 0x17 PUSH1 0x24 DUP3 ADD MSTORE PUSH32 0x53616C65526F756E643A207A65726F2061646472657373000000000000000000 PUSH1 0x44 DUP3 ADD MSTORE REVERT JUMPDEST DUP3 DUP5 CALLVALUE PUSH2 0x18A JUMPI DUP2 PUSH1 0x3 NOT CALLDATASIZE ADD SLT PUSH2 0x18A JUMPI PUSH1 0x20 SWAP1 PUSH1 0xB SLOAD SWAP1 MLOAD SWAP1 DUP2 MSTORE RETURN JUMPDEST DUP3 DUP5 CALLVALUE PUSH2 0x18A JUMPI PUSH1 0x20 CALLDATASIZE PUSH1 0x3 NOT ADD SLT PUSH2 0x18A JUMPI PUSH1 0x20 SWAP2 DUP2 SWAP1 PUSH1 0x1 PUSH1 0x1 PUSH1 0xA0 SHL SUB PUSH2 0x12CB PUSH2 0x1766 JUMP JUMPDEST AND DUP2 MSTORE PUSH1 0xE DUP5 MSTORE KECCAK256 SLOAD SWAP1 MLOAD SWAP1 DUP2 MSTORE RETURN JUMPDEST DUP5 DUP5 SWAP3 CALLVALUE PUSH2 0x16DD JUMPI PUSH1 0x3 NOT SWAP1 PUSH1 0x20 CALLDATASIZE DUP4 ADD DUP2 SGT PUSH2 0x326 JUMPI DUP2 CALLDATALOAD SWAP3 PUSH8 0xFFFFFFFFFFFFFFFF SWAP1 DUP2 DUP6 GT PUSH2 0x16D9 JUMPI PUSH2 0x100 SWAP1 DUP6 CALLDATASIZE SUB ADD SLT PUSH2 0xB4E JUMPI PUSH2 0x131C DUP7 PUSH2 0x16E1 JUMP JUMPDEST DUP4 DUP4 ADD CALLDATALOAD DUP2 DUP2 GT PUSH2 0x16D9 JUMPI DUP5 ADD SWAP3 CALLDATASIZE PUSH1 0x23 DUP6 ADD SLT ISZERO PUSH2 0x16D9 JUMPI DUP1 DUP5 ADD CALLDATALOAD DUP9 PUSH1 0x24 SWAP6 PUSH2 0x1346 DUP4 PUSH2 0x174A JUMP JUMPDEST SWAP3 PUSH2 0x1353 DUP11 MLOAD SWAP5 DUP6 PUSH2 0x1728 JUMP JUMPDEST DUP1 DUP5 MSTORE CALLDATASIZE DUP9 DUP3 DUP5 ADD ADD GT PUSH2 0x5D8 JUMPI DUP1 DUP9 DUP9 SWAP4 ADD DUP4 DUP7 ADD CALLDATACOPY DUP4 ADD ADD MSTORE DUP8 MSTORE DUP3 DUP8 ADD DUP5 DUP7 ADD CALLDATALOAD DUP2 MSTORE DUP7 DUP9 ADD SWAP1 PUSH1 0x44 DUP8 ADD CALLDATALOAD DUP3 MSTORE PUSH1 0x60 DUP10 ADD SWAP4 PUSH1 0x64 DUP9 ADD CALLDATALOAD DUP6 MSTORE PUSH1 0x80 DUP11 ADD SWAP6 PUSH1 0x84 DUP10 ADD CALLDATALOAD DUP8 MSTORE PUSH1 0xA0 DUP12 ADD SWAP8 PUSH1 0xA4 DUP11 ADD CALLDATALOAD DUP10 MSTORE PUSH1 0xE4 PUSH1 0xC0 DUP14 ADD SWAP11 PUSH1 0xC4 DUP2 ADD CALLDATALOAD DUP13 MSTORE ADD CALLDATALOAD DUP1 ISZERO ISZERO DUP2 SUB PUSH2 0x16D5 JUMPI PUSH1 0xE0 DUP14 ADD MSTORE PUSH2 0x13FA CALLER PUSH32 0x0 PUSH1 0x1 PUSH1 0x1 PUSH1 0xA0 SHL SUB AND EQ PUSH2 0x193D JUMP JUMPDEST PUSH2 0x1406 DUP5 MLOAD ISZERO ISZERO PUSH2 0x1982 JUMP JUMPDEST DUP5 MLOAD ISZERO PUSH2 0x1694 JUMPI DUP8 MLOAD DUP8 MLOAD LT ISZERO PUSH2 0x1653 JUMPI DUP10 MLOAD DUP10 MLOAD GT PUSH2 0x1612 JUMPI DUP12 MLOAD SWAP1 DUP2 MLOAD SWAP4 DUP5 GT PUSH2 0x1601 JUMPI POP PUSH2 0x1438 PUSH1 0x2 SLOAD PUSH2 0x1797 JUMP JUMPDEST DUP14 PUSH1 0x1F DUP3 GT PUSH2 0x159B JUMPI JUMPDEST SWAP1 POP POP DUP13 DUP3 PUSH1 0x1F DUP6 GT PUSH1 0x1 EQ PUSH2 0x14E8 JUMPI POP SWAP3 PUSH32 0xCA5E88616919440603F1AE53082DAB032DAF45557362FAFD80A4852BD6CDAD85 SWAP13 SWAP11 SWAP9 SWAP7 SWAP5 SWAP3 DUP2 SWAP3 PUSH2 0x14D7 SWAP14 SWAP12 SWAP10 SWAP8 SWAP6 SWAP3 PUSH2 0x14DD JUMPI JUMPDEST POP POP DUP2 PUSH1 0x1 SHL SWAP2 PUSH1 0x0 NOT SWAP1 PUSH1 0x3 SHL SHR NOT AND OR PUSH1 0x2 SSTORE JUMPDEST MLOAD PUSH1 0x3 SSTORE MLOAD SWAP1 SSTORE MLOAD PUSH1 0x5 SSTORE MLOAD PUSH1 0x6 SSTORE MLOAD PUSH1 0x7 SSTORE MLOAD PUSH1 0x8 SSTORE PUSH1 0xE0 DUP3 ADD MLOAD ISZERO ISZERO PUSH1 0xFF DUP1 NOT PUSH1 0x9 SLOAD AND SWAP2 AND OR PUSH1 0x9 SSTORE MLOAD SWAP2 DUP3 SWAP2 DUP3 PUSH2 0x18D7 JUMP JUMPDEST SUB SWAP1 LOG1 DUP1 RETURN JUMPDEST ADD MLOAD SWAP1 POP DUP15 DUP1 PUSH2 0x148B JUMP JUMPDEST PUSH1 0x2 DUP3 MSTORE PUSH32 0x405787FA12A823E0F2B7631CC41B3BA8828B3321CA811111FA75CD3AA3BB5ACE SWAP4 SWAP3 SWAP2 PUSH1 0x1F NOT DUP7 AND SWAP2 JUMPDEST DUP3 DUP3 LT PUSH2 0x1583 JUMPI POP POP SWAP3 PUSH1 0x1 SWAP3 DUP6 SWAP3 PUSH32 0xCA5E88616919440603F1AE53082DAB032DAF45557362FAFD80A4852BD6CDAD85 SWAP16 SWAP14 SWAP12 SWAP10 SWAP8 SWAP6 SWAP7 PUSH2 0x14D7 SWAP16 SWAP14 SWAP12 SWAP10 SWAP8 LT PUSH2 0x156A JUMPI JUMPDEST POP POP POP DUP2 SHL ADD PUSH1 0x2 SSTORE PUSH2 0x14A1 JUMP JUMPDEST ADD MLOAD PUSH1 0x0 NOT PUSH1 0xF8 DUP5 PUSH1 0x3 SHL AND SHR NOT AND SWAP1 SSTORE DUP15 DUP1 DUP1 PUSH2 0x155C JUMP JUMPDEST DUP1 PUSH1 0x1 DUP7 SWAP8 DUP3 SWAP5 SWAP8 DUP8 ADD MLOAD DUP2 SSTORE ADD SWAP7 ADD SWAP5 ADD SWAP1 PUSH2 0x1517 JUMP JUMPDEST PUSH1 0x2 SWAP1 MSTORE PUSH32 0x405787FA12A823E0F2B7631CC41B3BA8828B3321CA811111FA75CD3AA3BB5ACE PUSH1 0x1F DUP6 ADD PUSH1 0x5 SHR DUP2 ADD SWAP2 DUP5 DUP7 LT PUSH2 0x15F7 JUMPI JUMPDEST PUSH1 0x1F ADD PUSH1 0x5 SHR ADD SWAP1 DUP15 SWAP1 JUMPDEST DUP3 DUP2 LT PUSH2 0x15EA JUMPI POP PUSH2 0x1442 JUMP JUMPDEST PUSH1 0x1 SWAP2 DUP2 SSTORE ADD DUP15 SWAP1 PUSH2 0x15DD JUMP JUMPDEST SWAP1 SWAP2 POP DUP2 SWAP1 PUSH2 0x15D2 JUMP JUMPDEST PUSH4 0x4E487B71 PUSH1 0xE0 SHL DUP15 MSTORE PUSH1 0x41 DUP8 MSTORE DUP14 REVERT JUMPDEST PUSH1 0x1A DUP7 SWAP2 PUSH1 0x64 SWAP4 DUP14 MLOAD SWAP4 PUSH3 0x461BCD PUSH1 0xE5 SHL DUP6 MSTORE DUP5 ADD MSTORE DUP3 ADD MSTORE PUSH32 0x53616C65526F756E643A20696E76616C69642076657374696E67000000000000 PUSH1 0x44 DUP3 ADD MSTORE REVERT JUMPDEST PUSH1 0x1D DUP7 SWAP2 PUSH1 0x64 SWAP4 DUP14 MLOAD SWAP4 PUSH3 0x461BCD PUSH1 0xE5 SHL DUP6 MSTORE DUP5 ADD MSTORE DUP3 ADD MSTORE PUSH32 0x53616C65526F756E643A20696E76616C69642074696D652072616E6765000000 PUSH1 0x44 DUP3 ADD MSTORE REVERT JUMPDEST PUSH1 0x1B DUP7 SWAP2 PUSH1 0x64 SWAP4 DUP14 MLOAD SWAP4 PUSH3 0x461BCD PUSH1 0xE5 SHL DUP6 MSTORE DUP5 ADD MSTORE DUP3 ADD MSTORE PUSH32 0x53616C65526F756E643A20696E76616C69642068617264206361700000000000 PUSH1 0x44 DUP3 ADD MSTORE REVERT JUMPDEST DUP14 DUP1 REVERT JUMPDEST DUP8 DUP1 REVERT JUMPDEST DUP4 DUP1 REVERT JUMPDEST PUSH2 0x100 DUP2 ADD SWAP1 DUP2 LT PUSH8 0xFFFFFFFFFFFFFFFF DUP3 GT OR PUSH2 0x16FE JUMPI PUSH1 0x40 MSTORE JUMP JUMPDEST PUSH4 0x4E487B71 PUSH1 0xE0 SHL PUSH1 0x0 MSTORE PUSH1 0x41 PUSH1 0x4 MSTORE PUSH1 0x24 PUSH1 0x0 REVERT JUMPDEST PUSH8 0xFFFFFFFFFFFFFFFF DUP2 GT PUSH2 0x16FE JUMPI PUSH1 0x40 MSTORE JUMP JUMPDEST SWAP1 PUSH1 0x1F DUP1 NOT SWAP2 ADD AND DUP2 ADD SWAP1 DUP2 LT PUSH8 0xFFFFFFFFFFFFFFFF DUP3 GT OR PUSH2 0x16FE JUMPI PUSH1 0x40 MSTORE JUMP JUMPDEST PUSH8 0xFFFFFFFFFFFFFFFF DUP2 GT PUSH2 0x16FE JUMPI PUSH1 0x1F ADD PUSH1 0x1F NOT AND PUSH1 0x20 ADD SWAP1 JUMP JUMPDEST PUSH1 0x4 CALLDATALOAD SWAP1 PUSH1 0x1 PUSH1 0x1 PUSH1 0xA0 SHL SUB DUP3 AND DUP3 SUB PUSH2 0x177C JUMPI JUMP JUMPDEST PUSH1 0x0 DUP1 REVERT JUMPDEST PUSH1 0x24 CALLDATALOAD SWAP1 PUSH1 0x1 PUSH1 0x1 PUSH1 0xA0 SHL SUB DUP3 AND DUP3 SUB PUSH2 0x177C JUMPI JUMP JUMPDEST SWAP1 PUSH1 0x1 DUP3 DUP2 SHR SWAP3 AND DUP1 ISZERO PUSH2 0x17C7 JUMPI JUMPDEST PUSH1 0x20 DUP4 LT EQ PUSH2 0x17B1 JUMPI JUMP JUMPDEST PUSH4 0x4E487B71 PUSH1 0xE0 SHL PUSH1 0x0 MSTORE PUSH1 0x22 PUSH1 0x4 MSTORE PUSH1 0x24 PUSH1 0x0 REVERT JUMPDEST SWAP2 PUSH1 0x7F AND SWAP2 PUSH2 0x17A6 JUMP JUMPDEST PUSH1 0x40 MLOAD SWAP1 PUSH1 0x0 DUP3 PUSH1 0x2 SLOAD SWAP2 PUSH2 0x17E5 DUP4 PUSH2 0x1797 JUMP JUMPDEST DUP1 DUP4 MSTORE SWAP3 PUSH1 0x20 SWAP1 PUSH1 0x1 SWAP1 DUP2 DUP2 AND SWAP1 DUP2 ISZERO PUSH2 0x1873 JUMPI POP PUSH1 0x1 EQ PUSH2 0x1812 JUMPI JUMPDEST POP POP PUSH2 0x1810 SWAP3 POP SUB DUP4 PUSH2 0x1728 JUMP JUMPDEST JUMP JUMPDEST SWAP2 POP SWAP3 PUSH1 0x2 PUSH1 0x0 MSTORE PUSH32 0x405787FA12A823E0F2B7631CC41B3BA8828B3321CA811111FA75CD3AA3BB5ACE SWAP4 PUSH1 0x0 SWAP3 JUMPDEST DUP3 DUP5 LT PUSH2 0x185B JUMPI POP PUSH2 0x1810 SWAP5 POP POP POP DUP2 ADD PUSH1 0x20 ADD CODESIZE DUP1 PUSH2 0x1802 JUMP JUMPDEST DUP6 SLOAD DUP9 DUP6 ADD DUP4 ADD MSTORE SWAP5 DUP6 ADD SWAP5 DUP8 SWAP5 POP SWAP3 DUP2 ADD SWAP3 PUSH2 0x1840 JUMP JUMPDEST SWAP2 POP POP PUSH1 0x20 SWAP3 POP PUSH2 0x1810 SWAP5 SWAP2 POP PUSH1 0xFF NOT AND DUP3 DUP5 ADD MSTORE ISZERO ISZERO PUSH1 0x5 SHL DUP3 ADD ADD CODESIZE DUP1 PUSH2 0x1802 JUMP JUMPDEST SWAP2 SWAP1 DUP3 MLOAD SWAP3 DUP4 DUP3 MSTORE PUSH1 0x0 JUMPDEST DUP5 DUP2 LT PUSH2 0x18C3 JUMPI POP POP DUP3 PUSH1 0x0 PUSH1 0x20 DUP1 SWAP5 SWAP6 DUP5 ADD ADD MSTORE PUSH1 0x1F DUP1 NOT SWAP2 ADD AND ADD ADD SWAP1 JUMP JUMPDEST PUSH1 0x20 DUP2 DUP4 ADD DUP2 ADD MLOAD DUP5 DUP4 ADD DUP3 ADD MSTORE ADD PUSH2 0x18A2 JUMP JUMPDEST PUSH1 0x20 DUP2 MSTORE DUP2 MLOAD PUSH1 0xE0 PUSH2 0x18F7 PUSH2 0x100 SWAP3 DUP4 PUSH1 0x20 DUP7 ADD MSTORE PUSH2 0x120 DUP6 ADD SWAP1 PUSH2 0x1897 JUMP JUMPDEST SWAP4 PUSH1 0x20 DUP2 ADD MLOAD PUSH1 0x40 DUP6 ADD MSTORE PUSH1 0x40 DUP2 ADD MLOAD PUSH1 0x60 DUP6 ADD MSTORE PUSH1 0x60 DUP2 ADD MLOAD PUSH1 0x80 DUP6 ADD MSTORE PUSH1 0x80 DUP2 ADD MLOAD PUSH1 0xA0 DUP6 ADD MSTORE PUSH1 0xA0 DUP2 ADD MLOAD PUSH1 0xC0 DUP6 ADD MSTORE PUSH1 0xC0 DUP2 ADD MLOAD DUP3 DUP6 ADD MSTORE ADD MLOAD ISZERO ISZERO SWAP2 ADD MSTORE SWAP1 JUMP JUMPDEST ISZERO PUSH2 0x1944 JUMPI JUMP JUMPDEST PUSH1 0x40 MLOAD PUSH3 0x461BCD PUSH1 0xE5 SHL DUP2 MSTORE PUSH1 0x20 PUSH1 0x4 DUP3 ADD MSTORE PUSH1 0x16 PUSH1 0x24 DUP3 ADD MSTORE PUSH22 0x29B0B632A937BAB7321D103737BA1036B0B730B3B2B9 PUSH1 0x51 SHL PUSH1 0x44 DUP3 ADD MSTORE PUSH1 0x64 SWAP1 REVERT JUMPDEST ISZERO PUSH2 0x1989 JUMPI JUMP JUMPDEST PUSH1 0x40 MLOAD PUSH3 0x461BCD PUSH1 0xE5 SHL DUP2 MSTORE PUSH1 0x20 PUSH1 0x4 DUP3 ADD MSTORE PUSH1 0x18 PUSH1 0x24 DUP3 ADD MSTORE PUSH32 0x53616C65526F756E643A20696E76616C69642070726963650000000000000000 PUSH1 0x44 DUP3 ADD MSTORE PUSH1 0x64 SWAP1 REVERT JUMPDEST MLOAD SWAP1 PUSH1 0x1 PUSH1 0x1 PUSH1 0xA0 SHL SUB DUP3 AND DUP3 SUB PUSH2 0x177C JUMPI JUMP JUMPDEST SWAP1 DUP2 PUSH1 0x20 SWAP2 SUB SLT PUSH2 0x177C JUMPI MLOAD DUP1 ISZERO ISZERO DUP2 SUB PUSH2 0x177C JUMPI SWAP1 JUMP JUMPDEST ISZERO PUSH2 0x1A01 JUMPI JUMP JUMPDEST PUSH1 0x40 MLOAD PUSH3 0x461BCD PUSH1 0xE5 SHL DUP2 MSTORE PUSH1 0x20 PUSH1 0x4 DUP3 ADD MSTORE PUSH1 0x15 PUSH1 0x24 DUP3 ADD MSTORE PUSH21 0x53616C65526F756E643A206E6F7420616374697665 PUSH1 0x58 SHL PUSH1 0x44 DUP3 ADD MSTORE PUSH1 0x64 SWAP1 REVERT JUMPDEST ISZERO PUSH2 0x1A45 JUMPI JUMP JUMPDEST PUSH1 0x40 MLOAD PUSH3 0x461BCD PUSH1 0xE5 SHL DUP2 MSTORE PUSH1 0x20 PUSH1 0x4 DUP3 ADD MSTORE PUSH1 0x16 PUSH1 0x24 DUP3 ADD MSTORE PUSH22 0x14D85B19549BDD5B990E881B9BDD081CDD185C9D1959 PUSH1 0x52 SHL PUSH1 0x44 DUP3 ADD MSTORE PUSH1 0x64 SWAP1 REVERT JUMPDEST ISZERO PUSH2 0x1A8A JUMPI JUMP JUMPDEST PUSH1 0x40 MLOAD PUSH3 0x461BCD PUSH1 0xE5 SHL DUP2 MSTORE PUSH1 0x20 PUSH1 0x4 DUP3 ADD MSTORE PUSH1 0x10 PUSH1 0x24 DUP3 ADD MSTORE PUSH16 0x14D85B19549BDD5B990E88195B991959 PUSH1 0x82 SHL PUSH1 0x44 DUP3 ADD MSTORE PUSH1 0x64 SWAP1 REVERT JUMPDEST ISZERO PUSH2 0x1AC9 JUMPI JUMP JUMPDEST PUSH1 0x40 MLOAD PUSH3 0x461BCD PUSH1 0xE5 SHL DUP2 MSTORE PUSH1 0x20 PUSH1 0x4 DUP3 ADD MSTORE PUSH1 0x1B PUSH1 0x24 DUP3 ADD MSTORE PUSH32 0x53616C65526F756E643A20686172642063617020726561636865640000000000 PUSH1 0x44 DUP3 ADD MSTORE PUSH1 0x64 SWAP1 REVERT JUMPDEST PUSH1 0x2 PUSH1 0x0 SLOAD EQ PUSH2 0x1B1F JUMPI PUSH1 0x2 PUSH1 0x0 SSTORE JUMP JUMPDEST PUSH1 0x40 MLOAD PUSH4 0x3EE5AEB5 PUSH1 0xE0 SHL DUP2 MSTORE PUSH1 0x4 SWAP1 REVERT JUMPDEST PUSH1 0xFF PUSH1 0x1 SLOAD AND PUSH2 0x1B3D JUMPI JUMP JUMPDEST PUSH1 0x40 MLOAD PUSH4 0xD93C0665 PUSH1 0xE0 SHL DUP2 MSTORE PUSH1 0x4 SWAP1 REVERT JUMPDEST PUSH1 0x40 MLOAD PUSH4 0x73BED919 PUSH1 0xE1 SHL DUP2 MSTORE PUSH1 0x1 PUSH1 0x1 PUSH1 0xA0 SHL SUB DUP3 DUP2 AND PUSH1 0x4 DUP4 ADD MSTORE SWAP1 PUSH1 0x20 DUP2 PUSH1 0x24 DUP2 PUSH32 0x0 DUP7 AND GAS STATICCALL SWAP1 DUP2 ISZERO PUSH2 0x1C1F JUMPI PUSH1 0x0 SWAP2 PUSH2 0x1C70 JUMPI JUMPDEST POP ISZERO PUSH2 0x1C2B JUMPI PUSH32 0x0 AND SWAP2 DUP3 EXTCODESIZE ISZERO PUSH2 0x177C JUMPI PUSH1 0x40 MLOAD PUSH4 0x38D72789 PUSH1 0xE2 SHL DUP2 MSTORE PUSH1 0x1 PUSH1 0x1 PUSH1 0xA0 SHL SUB SWAP3 SWAP1 SWAP3 AND PUSH1 0x4 DUP4 ADD MSTORE PUSH1 0x24 DUP3 ADD MSTORE SWAP1 PUSH1 0x0 SWAP1 DUP3 SWAP1 PUSH1 0x44 SWAP1 DUP3 SWAP1 DUP5 SWAP1 GAS CALL DUP1 ISZERO PUSH2 0x1C1F JUMPI PUSH2 0x1C16 JUMPI POP JUMP JUMPDEST PUSH2 0x1810 SWAP1 PUSH2 0x1714 JUMP JUMPDEST PUSH1 0x40 MLOAD RETURNDATASIZE PUSH1 0x0 DUP3 RETURNDATACOPY RETURNDATASIZE SWAP1 REVERT JUMPDEST PUSH1 0x40 MLOAD PUSH3 0x461BCD PUSH1 0xE5 SHL DUP2 MSTORE PUSH1 0x20 PUSH1 0x4 DUP3 ADD MSTORE PUSH1 0x1B PUSH1 0x24 DUP3 ADD MSTORE PUSH32 0x53616C65526F756E643A206E6F74204B594320617070726F7665640000000000 PUSH1 0x44 DUP3 ADD MSTORE PUSH1 0x64 SWAP1 REVERT JUMPDEST PUSH2 0x1C89 SWAP2 POP PUSH1 0x20 RETURNDATASIZE PUSH1 0x20 GT PUSH2 0x352 JUMPI PUSH2 0x343 DUP2 DUP4 PUSH2 0x1728 JUMP JUMPDEST CODESIZE PUSH2 0x1BA7 JUMP JUMPDEST PUSH8 0xDE0B6B3A7640000 SWAP1 DUP2 DUP2 MUL SWAP2 DUP2 DUP4 DIV EQ SWAP1 ISZERO OR ISZERO PUSH2 0x1CCD JUMPI PUSH1 0x3 SLOAD SWAP1 DUP2 ISZERO PUSH2 0x1CB7 JUMPI DIV SWAP1 JUMP JUMPDEST PUSH4 0x4E487B71 PUSH1 0xE0 SHL PUSH1 0x0 MSTORE PUSH1 0x12 PUSH1 0x4 MSTORE PUSH1 0x24 PUSH1 0x0 REVERT JUMPDEST PUSH4 0x4E487B71 PUSH1 0xE0 SHL PUSH1 0x0 MSTORE PUSH1 0x11 PUSH1 0x4 MSTORE PUSH1 0x24 PUSH1 0x0 REVERT JUMPDEST SWAP2 SWAP1 DUP3 ADD DUP1 SWAP3 GT PUSH2 0x1CCD JUMPI JUMP JUMPDEST SWAP3 SWAP5 SWAP4 SWAP1 SWAP2 SWAP5 PUSH1 0xB SLOAD PUSH2 0x1D05 DUP3 PUSH1 0x0 SWAP3 PUSH2 0x1CE3 JUMP JUMPDEST SWAP1 PUSH1 0x4 SWAP2 DUP3 SLOAD LT PUSH2 0x2164 JUMPI PUSH1 0x1 DUP1 PUSH1 0xA0 SHL SUB SWAP6 DUP7 DUP2 AND SWAP8 DUP9 DUP4 MSTORE PUSH1 0x20 SWAP4 PUSH1 0xD DUP6 MSTORE PUSH1 0x40 SWAP5 DUP6 DUP6 KECCAK256 PUSH2 0x1D37 DUP9 DUP3 SLOAD PUSH2 0x1CE3 JUMP JUMPDEST SWAP1 SSTORE DUP11 DUP6 MSTORE PUSH1 0xE DUP2 MSTORE DUP6 DUP6 KECCAK256 PUSH2 0x1D4E DUP10 DUP3 SLOAD PUSH2 0x1CE3 JUMP JUMPDEST SWAP1 SSTORE PUSH2 0x1D5C DUP8 PUSH1 0xB SLOAD PUSH2 0x1CE3 JUMP JUMPDEST PUSH1 0xB SSTORE PUSH2 0x1D6B DUP9 PUSH1 0xC SLOAD PUSH2 0x1CE3 JUMP JUMPDEST PUSH1 0xC SSTORE DUP10 DUP9 SWAP4 AND DUP1 ISZERO ISZERO DUP1 PUSH2 0x215A JUMPI JUMPDEST PUSH2 0x1E6A JUMPI JUMPDEST POP POP PUSH1 0x6 SLOAD SWAP3 DUP10 PUSH32 0x0 AND SWAP2 PUSH1 0x7 SLOAD SWAP5 PUSH1 0x8 SLOAD DUP5 EXTCODESIZE ISZERO PUSH2 0x16D9 JUMPI DUP9 MLOAD PUSH4 0x75591D5F PUSH1 0xE1 SHL DUP2 MSTORE PUSH1 0x1 PUSH1 0x1 PUSH1 0xA0 SHL SUB SWAP1 SWAP5 AND SWAP3 DUP5 ADD SWAP3 DUP4 MSTORE PUSH1 0x20 DUP4 ADD SWAP6 SWAP1 SWAP6 MSTORE PUSH1 0x40 DUP3 ADD SWAP6 SWAP1 SWAP6 MSTORE PUSH1 0x60 DUP2 ADD SWAP4 SWAP1 SWAP4 MSTORE PUSH1 0x80 DUP4 ADD SWAP4 SWAP1 SWAP4 MSTORE DUP4 SWAP2 DUP4 SWAP2 SWAP1 DUP3 SWAP1 DUP5 SWAP1 DUP3 SWAP1 PUSH1 0xA0 ADD SUB SWAP3 GAS CALL DUP1 ISZERO PUSH2 0x1E60 JUMPI PUSH2 0x1E4C JUMPI JUMPDEST POP POP MLOAD SWAP6 DUP7 MSTORE PUSH1 0x20 DUP7 ADD MSTORE PUSH1 0x40 DUP6 ADD MSTORE AND SWAP2 PUSH32 0x8F7A55179307CEA51948432D653DBD53A23FEDC388BCB3E04E311F8220D87864 SWAP1 PUSH1 0x60 SWAP1 LOG3 JUMP JUMPDEST PUSH2 0x1E56 DUP3 SWAP2 PUSH2 0x1714 JUMP JUMPDEST PUSH2 0x31A JUMPI DUP1 PUSH2 0x1E12 JUMP JUMPDEST DUP4 MLOAD RETURNDATASIZE DUP5 DUP3 RETURNDATACOPY RETURNDATASIZE SWAP1 REVERT JUMPDEST DUP11 PUSH32 0x0 AND SWAP1 DUP8 MLOAD PUSH4 0x308A59B PUSH1 0xE3 SHL DUP2 MSTORE DUP14 DUP6 DUP3 ADD MSTORE DUP4 DUP2 PUSH1 0x24 DUP2 DUP7 GAS STATICCALL SWAP1 DUP2 ISZERO PUSH2 0x2150 JUMPI SWAP1 DUP9 SWAP5 SWAP4 SWAP3 SWAP2 DUP6 SWAP2 PUSH2 0x2133 JUMPI JUMPDEST POP ISZERO PUSH2 0x20CE JUMPI JUMPDEST POP DUP8 MLOAD PUSH4 0xD8ABFEE5 PUSH1 0xE0 SHL DUP2 MSTORE PUSH1 0x1 PUSH1 0x1 PUSH1 0xA0 SHL SUB DUP8 AND DUP6 DUP3 ADD SWAP1 DUP2 MSTORE PUSH1 0x20 DUP2 ADD DUP13 SWAP1 MSTORE SWAP1 SWAP4 PUSH1 0x60 SWAP3 DUP6 SWAP3 SWAP1 SWAP2 DUP4 SWAP2 DUP3 SWAP1 PUSH1 0x40 ADD JUMPDEST SUB SWAP3 GAS CALL SWAP1 DUP2 ISZERO PUSH2 0x20C4 JUMPI DUP7 SWAP3 DUP8 SWAP1 DUP9 SWAP4 PUSH2 0x207C JUMPI JUMPDEST POP DUP13 DUP5 AND SWAP3 DUP4 PUSH2 0x1F20 JUMPI JUMPDEST POP POP POP PUSH2 0x1D80 JUMP JUMPDEST SWAP1 SWAP2 SWAP3 DUP1 SWAP5 SWAP7 POP DUP9 MSTORE PUSH1 0xE DUP4 MSTORE DUP9 DUP9 KECCAK256 PUSH2 0x1F3B DUP4 DUP3 SLOAD PUSH2 0x1CE3 JUMP JUMPDEST SWAP1 SSTORE DUP4 DUP9 MSTORE PUSH1 0xF DUP4 MSTORE DUP9 DUP9 KECCAK256 PUSH2 0x1F52 DUP4 DUP3 SLOAD PUSH2 0x1CE3 JUMP JUMPDEST SWAP1 SSTORE DUP14 DUP9 MSTORE PUSH1 0xF DUP4 MSTORE DUP9 DUP9 KECCAK256 PUSH2 0x1F69 DUP3 DUP3 SLOAD PUSH2 0x1CE3 JUMP JUMPDEST SWAP1 SSTORE PUSH2 0x1F78 PUSH2 0xC58 DUP3 DUP5 PUSH2 0x1CE3 JUMP JUMPDEST PUSH1 0xC SSTORE PUSH2 0x1F85 DUP2 DUP13 PUSH2 0x1CE3 JUMP JUMPDEST SWAP6 DUP14 PUSH32 0x0 AND PUSH1 0x7 SLOAD SWAP2 PUSH1 0x8 SLOAD PUSH1 0x6 SLOAD SWAP1 DUP4 EXTCODESIZE ISZERO PUSH2 0x2078 JUMPI DUP14 MLOAD PUSH4 0x75591D5F PUSH1 0xE1 SHL DUP2 MSTORE PUSH1 0x1 PUSH1 0x1 PUSH1 0xA0 SHL SUB SWAP1 SWAP4 AND DUP4 DUP12 ADD SWAP1 DUP2 MSTORE PUSH1 0x20 DUP2 ADD DUP9 SWAP1 MSTORE PUSH1 0x40 DUP2 ADD SWAP6 SWAP1 SWAP6 MSTORE PUSH1 0x60 DUP6 ADD MSTORE PUSH1 0x80 DUP5 ADD MSTORE SWAP2 DUP11 SWAP2 DUP4 SWAP2 DUP3 SWAP1 DUP5 SWAP1 DUP3 SWAP1 PUSH1 0xA0 ADD SUB SWAP3 GAS CALL DUP1 ISZERO PUSH2 0x206E JUMPI SWAP2 DUP16 SWAP4 SWAP2 DUP11 SWAP1 DUP13 SWAP5 PUSH2 0x204E JUMPI JUMPDEST POP POP PUSH32 0x8A888A9AC1098C12B38ADE27D5D5B51CE092D9271475E3024A084BFC73FD5798 SWAP4 SWAP5 DUP4 MLOAD SWAP3 DUP4 MSTORE DUP3 ADD MSTORE LOG3 CODESIZE DUP1 DUP1 DUP1 DUP1 PUSH2 0x1F18 JUMP JUMPDEST SWAP1 SWAP3 SWAP6 SWAP4 POP PUSH2 0x205E SWAP2 SWAP5 POP PUSH2 0x1714 JUMP JUMPDEST PUSH2 0x16D9 JUMPI SWAP2 DUP9 SWAP1 DUP15 SWAP3 DUP10 CODESIZE PUSH2 0x2016 JUMP JUMPDEST DUP11 MLOAD RETURNDATASIZE DUP12 DUP3 RETURNDATACOPY RETURNDATASIZE SWAP1 REVERT JUMPDEST DUP13 DUP1 REVERT JUMPDEST SWAP4 POP POP SWAP1 POP PUSH1 0x60 DUP3 RETURNDATASIZE PUSH1 0x60 GT PUSH2 0x20BC JUMPI JUMPDEST DUP2 PUSH2 0x209A PUSH1 0x60 SWAP4 DUP4 PUSH2 0x1728 JUMP JUMPDEST DUP2 ADD SUB SLT PUSH2 0x326 JUMPI PUSH2 0x20AB DUP3 PUSH2 0x19CE JUMP JUMPDEST SWAP1 DUP8 DUP2 DUP5 ADD MLOAD SWAP4 ADD MLOAD SWAP2 SWAP3 CODESIZE PUSH2 0x1F0D JUMP JUMPDEST RETURNDATASIZE SWAP2 POP PUSH2 0x208D JUMP JUMPDEST DUP8 MLOAD RETURNDATASIZE DUP9 DUP3 RETURNDATACOPY RETURNDATASIZE SWAP1 REVERT JUMPDEST SWAP1 DUP1 SWAP3 SWAP4 POP EXTCODESIZE ISZERO PUSH2 0xB4E JUMPI DUP8 MLOAD SWAP1 PUSH4 0x5603B9F9 PUSH1 0xE0 SHL DUP3 MSTORE DUP14 DUP6 DUP4 ADD MSTORE PUSH1 0x24 DUP3 ADD MSTORE DUP7 DUP2 PUSH1 0x44 DUP2 DUP4 DUP7 GAS CALL DUP1 ISZERO PUSH2 0x2129 JUMPI PUSH2 0x210D JUMPI JUMPDEST SWAP1 DUP7 SWAP3 SWAP2 PUSH2 0x1EC2 JUMP JUMPDEST PUSH2 0x1EF7 SWAP7 PUSH2 0x211F PUSH1 0x60 SWAP3 SWAP5 SWAP4 SWAP5 PUSH2 0x1714 JUMP JUMPDEST SWAP7 POP SWAP2 SWAP1 SWAP2 PUSH2 0x2104 JUMP JUMPDEST DUP9 MLOAD RETURNDATASIZE DUP10 DUP3 RETURNDATACOPY RETURNDATASIZE SWAP1 REVERT JUMPDEST PUSH2 0x214A SWAP2 POP DUP5 RETURNDATASIZE DUP7 GT PUSH2 0x352 JUMPI PUSH2 0x343 DUP2 DUP4 PUSH2 0x1728 JUMP JUMPDEST CODESIZE PUSH2 0x1EBB JUMP JUMPDEST DUP10 MLOAD RETURNDATASIZE DUP11 DUP3 RETURNDATACOPY RETURNDATASIZE SWAP1 REVERT JUMPDEST POP DUP12 DUP2 EQ ISZERO PUSH2 0x1D7B JUMP JUMPDEST PUSH1 0x40 MLOAD PUSH3 0x461BCD PUSH1 0xE5 SHL DUP2 MSTORE PUSH1 0x20 DUP2 DUP5 ADD MSTORE PUSH1 0x1B PUSH1 0x24 DUP3 ADD MSTORE PUSH32 0x53616C65526F756E643A20657863656564732068617264206361700000000000 PUSH1 0x44 DUP3 ADD MSTORE PUSH1 0x64 SWAP1 REVERT JUMPDEST PUSH1 0x40 MLOAD PUSH4 0x23B872DD PUSH1 0xE0 SHL PUSH1 0x20 DUP3 ADD SWAP1 DUP2 MSTORE PUSH1 0x1 PUSH1 0x1 PUSH1 0xA0 SHL SUB SWAP4 DUP5 AND PUSH1 0x24 DUP4 ADD MSTORE SWAP4 DUP4 AND PUSH1 0x44 DUP3 ADD MSTORE PUSH1 0x64 DUP1 DUP3 ADD SWAP6 SWAP1 SWAP6 MSTORE SWAP4 DUP5 MSTORE SWAP3 SWAP1 SWAP2 PUSH1 0xA0 DUP3 ADD SWAP1 PUSH8 0xFFFFFFFFFFFFFFFF DUP3 GT DUP4 DUP4 LT OR PUSH2 0x16FE JUMPI PUSH1 0x20 SWAP3 PUSH1 0x0 SWAP3 PUSH1 0x40 MSTORE MLOAD SWAP1 DUP3 DUP7 GAS CALL ISZERO PUSH2 0x1C1F JUMPI PUSH1 0x0 MLOAD RETURNDATASIZE PUSH2 0x223E JUMPI POP DUP1 DUP3 AND EXTCODESIZE ISZERO JUMPDEST PUSH2 0x2224 JUMPI POP POP JUMP JUMPDEST PUSH1 0x40 MLOAD PUSH4 0x5274AFE7 PUSH1 0xE0 SHL DUP2 MSTORE SWAP2 AND PUSH1 0x4 DUP3 ADD MSTORE PUSH1 0x24 SWAP2 POP REVERT JUMPDEST PUSH1 0x1 EQ ISZERO PUSH2 0x221C JUMP INVALID LOG2 PUSH5 0x6970667358 0x22 SLT KECCAK256 0xDF MOD 0x26 0x2D 0xB1 PUSH11 0x5D02628287E5331FA48035 PUSH30 0xFA7F93480C569C22B9C9D64F9F7964736F6C63430008180033A264697066 PUSH20 0x5822122036DF6EDBF832E72691293A974EFD1B41 0xDD 0xCB JUMPDEST PUSH19 0xB041FD9055A75EF458F2C8564736F6C634300 ADDMOD XOR STOP CALLER PUSH1 0x80 CALLVALUE PUSH2 0xC7 JUMPI PUSH1 0x1F PUSH2 0x105D CODESIZE DUP2 SWAP1 SUB SWAP2 DUP3 ADD PUSH1 0x1F NOT AND DUP4 ADD SWAP2 PUSH1 0x1 PUSH1 0x1 PUSH1 0x40 SHL SUB DUP4 GT DUP5 DUP5 LT OR PUSH2 0xCC JUMPI DUP1 DUP5 SWAP3 PUSH1 0x20 SWAP5 PUSH1 0x40 MSTORE DUP4 CODECOPY DUP2 ADD SUB SLT PUSH2 0xC7 JUMPI MLOAD PUSH1 0x1 PUSH1 0x1 PUSH1 0xA0 SHL SUB DUP2 AND DUP1 DUP3 SUB PUSH2 0xC7 JUMPI PUSH2 0x1F4 DUP1 PUSH1 0x1 SSTORE PUSH1 0x2 SSTORE ISZERO PUSH2 0x82 JUMPI DUP1 PUSH2 0x6C PUSH2 0x72 SWAP3 PUSH2 0xE2 JUMP JUMPDEST POP PUSH2 0x160 JUMP JUMPDEST POP PUSH1 0x40 MLOAD PUSH2 0xE3C SWAP1 DUP2 PUSH2 0x201 DUP3 CODECOPY RETURN JUMPDEST PUSH1 0x40 MLOAD PUSH3 0x461BCD PUSH1 0xE5 SHL DUP2 MSTORE PUSH1 0x20 PUSH1 0x4 DUP3 ADD MSTORE PUSH1 0x1C PUSH1 0x24 DUP3 ADD MSTORE PUSH32 0x526566657272616C53797374656D3A207A65726F206164647265737300000000 PUSH1 0x44 DUP3 ADD MSTORE PUSH1 0x64 SWAP1 REVERT JUMPDEST PUSH1 0x0 DUP1 REVERT JUMPDEST PUSH4 0x4E487B71 PUSH1 0xE0 SHL PUSH1 0x0 MSTORE PUSH1 0x41 PUSH1 0x4 MSTORE PUSH1 0x24 PUSH1 0x0 REVERT JUMPDEST PUSH1 0x1 PUSH1 0x1 PUSH1 0xA0 SHL SUB AND PUSH1 0x0 DUP2 DUP2 MSTORE PUSH32 0xAD3228B676F7D3CD4284A5443F17F1962B36E491B30A40B2405849E597BA5FB5 PUSH1 0x20 MSTORE PUSH1 0x40 DUP2 KECCAK256 SLOAD SWAP1 SWAP2 SWAP1 PUSH1 0xFF AND PUSH2 0x15C JUMPI DUP2 DUP1 MSTORE DUP2 PUSH1 0x20 MSTORE PUSH1 0x40 DUP3 KECCAK256 DUP2 DUP4 MSTORE PUSH1 0x20 MSTORE PUSH1 0x40 DUP3 KECCAK256 PUSH1 0x1 PUSH1 0xFF NOT DUP3 SLOAD AND OR SWAP1 SSTORE CALLER SWAP2 PUSH1 0x0 DUP1 MLOAD PUSH1 0x20 PUSH2 0x103D DUP4 CODECOPY DUP2 MLOAD SWAP2 MSTORE DUP2 DUP1 LOG4 PUSH1 0x1 SWAP1 JUMP JUMPDEST POP SWAP1 JUMP JUMPDEST PUSH1 0x1 PUSH1 0x1 PUSH1 0xA0 SHL SUB AND PUSH1 0x0 DUP2 DUP2 MSTORE PUSH32 0x610416528CFEF961F6C8FC91BEF56087EF3281212584DAEF4B7FA0E6036047C2 PUSH1 0x20 MSTORE PUSH1 0x40 DUP2 KECCAK256 SLOAD SWAP1 SWAP2 SWAP1 PUSH32 0xE15A7DD79E49684A2A3FD5C689AE377EAB58931A852FFED7FCA24BD23555AA29 SWAP1 PUSH1 0xFF AND PUSH2 0x1FB JUMPI DUP1 DUP4 MSTORE DUP3 PUSH1 0x20 MSTORE PUSH1 0x40 DUP4 KECCAK256 DUP3 DUP5 MSTORE PUSH1 0x20 MSTORE PUSH1 0x40 DUP4 KECCAK256 PUSH1 0x1 PUSH1 0xFF NOT DUP3 SLOAD AND OR SWAP1 SSTORE PUSH1 0x0 DUP1 MLOAD PUSH1 0x20 PUSH2 0x103D DUP4 CODECOPY DUP2 MLOAD SWAP2 MSTORE CALLER SWAP4 DUP1 LOG4 PUSH1 0x1 SWAP1 JUMP JUMPDEST POP POP SWAP1 JUMP INVALID PUSH1 0x80 PUSH1 0x40 DUP2 DUP2 MSTORE PUSH1 0x4 SWAP2 DUP3 CALLDATASIZE LT ISZERO PUSH2 0x16 JUMPI PUSH1 0x0 DUP1 REVERT JUMPDEST PUSH1 0x0 SWAP1 DUP2 CALLDATALOAD PUSH1 0xE0 SHR SWAP1 DUP2 PUSH4 0x1FFC9A7 EQ PUSH2 0xA9C JUMPI POP DUP1 PUSH4 0x67FDA6B EQ PUSH2 0xA7D JUMPI DUP1 PUSH4 0xB90FCA1 EQ PUSH2 0xA42 JUMPI DUP1 PUSH4 0x18452CD8 EQ PUSH2 0xA01 JUMPI DUP1 PUSH4 0x196F4914 EQ PUSH2 0x9E2 JUMPI DUP1 PUSH4 0x21BADE13 EQ PUSH2 0x92C JUMPI DUP1 PUSH4 0x248A9CA3 EQ PUSH2 0x902 JUMPI DUP1 PUSH4 0x24ACBD69 EQ PUSH2 0x8CC JUMPI DUP1 PUSH4 0x2F2FF15D EQ PUSH2 0x8A2 JUMPI DUP1 PUSH4 0x32E5B6D8 EQ PUSH2 0x7CA JUMPI DUP1 PUSH4 0x36568ABE EQ PUSH2 0x784 JUMPI DUP1 PUSH4 0x4A9FEFC7 EQ PUSH2 0x749 JUMPI DUP1 PUSH4 0x5603B9F9 EQ PUSH2 0x521 JUMPI DUP1 PUSH4 0x8D736ED3 EQ PUSH2 0x502 JUMPI DUP1 PUSH4 0x91D14854 EQ PUSH2 0x4BC JUMPI DUP1 PUSH4 0xA217FDDF EQ PUSH2 0x4A1 JUMPI DUP1 PUSH4 0xAB11417F EQ PUSH2 0x482 JUMPI DUP1 PUSH4 0xC9C6B556 EQ PUSH2 0x407 JUMPI DUP1 PUSH4 0xD547741F EQ PUSH2 0x3C4 JUMPI DUP1 PUSH4 0xD8ABFEE5 EQ PUSH2 0x379 JUMPI DUP1 PUSH4 0xDEB3269F EQ PUSH2 0x1BC JUMPI DUP1 PUSH4 0xE23828DC EQ PUSH2 0x17D JUMPI PUSH4 0xE92820E6 EQ PUSH2 0x121 JUMPI PUSH1 0x0 DUP1 REVERT JUMPDEST CALLVALUE PUSH2 0x17A JUMPI DUP2 PUSH1 0x3 NOT CALLDATASIZE ADD SLT PUSH2 0x17A JUMPI PUSH2 0x139 PUSH2 0xAF0 JUMP JUMPDEST PUSH1 0x1 PUSH1 0x1 PUSH1 0xA0 SHL SUB SWAP1 DUP2 AND DUP3 MSTORE PUSH1 0x20 SWAP4 SWAP1 SWAP4 MSTORE DUP2 DUP2 KECCAK256 DUP1 SLOAD PUSH1 0x24 CALLDATALOAD SWAP5 SWAP3 SWAP1 DUP6 LT ISZERO PUSH2 0x17A JUMPI POP PUSH1 0x20 SWAP4 PUSH2 0x16B SWAP2 PUSH2 0xB21 JUMP JUMPDEST SWAP3 SWAP1 SLOAD SWAP1 MLOAD SWAP3 PUSH1 0x3 SHL SHR AND DUP2 MSTORE RETURN JUMPDEST DUP1 REVERT JUMPDEST POP SWAP1 CALLVALUE PUSH2 0x1B8 JUMPI DUP2 PUSH1 0x3 NOT CALLDATASIZE ADD SLT PUSH2 0x1B8 JUMPI PUSH1 0x20 SWAP1 MLOAD PUSH32 0xE15A7DD79E49684A2A3FD5C689AE377EAB58931A852FFED7FCA24BD23555AA29 DUP2 MSTORE RETURN JUMPDEST POP DUP1 REVERT JUMPDEST POP SWAP1 CALLVALUE PUSH2 0x1B8 JUMPI DUP1 PUSH1 0x3 NOT CALLDATASIZE ADD SLT PUSH2 0x1B8 JUMPI DUP3 CALLDATALOAD PUSH1 0x24 SWAP4 DUP5 CALLDATALOAD SWAP1 PUSH32 0xE15A7DD79E49684A2A3FD5C689AE377EAB58931A852FFED7FCA24BD23555AA29 SWAP1 DUP2 DUP7 MSTORE PUSH1 0x20 SWAP2 DUP7 DUP4 MSTORE DUP6 DUP8 KECCAK256 CALLER DUP9 MSTORE DUP4 MSTORE PUSH1 0xFF DUP7 DUP9 KECCAK256 SLOAD AND ISZERO PUSH2 0x35D JUMPI POP PUSH2 0x3E8 DUP1 DUP6 GT PUSH2 0x30C JUMPI DUP4 GT PUSH2 0x2BD JUMPI PUSH2 0x7D0 PUSH2 0x233 DUP5 DUP7 PUSH2 0xB87 JUMP JUMPDEST GT PUSH2 0x271 JUMPI POP PUSH32 0x2B0C09F5443BC5628E317C9E8EF97EDC0667F2B69E9400CDC2EAAE6C9B1DE93D SWAP5 SWAP6 POP DUP3 PUSH1 0x1 SSTORE DUP2 PUSH1 0x2 SSTORE DUP4 MLOAD SWAP3 DUP4 MSTORE DUP3 ADD MSTORE LOG1 DUP1 RETURN JUMPDEST DUP7 PUSH1 0x84 SWAP3 DUP7 MLOAD SWAP3 PUSH3 0x461BCD PUSH1 0xE5 SHL DUP5 MSTORE DUP4 ADD MSTORE DUP1 DUP3 ADD MSTORE PUSH32 0x526566657272616C53797374656D3A20746F74616C20626F6E757320746F6F20 PUSH1 0x44 DUP3 ADD MSTORE PUSH4 0xD0D2CED PUSH1 0xE3 SHL PUSH1 0x64 DUP3 ADD MSTORE REVERT JUMPDEST PUSH1 0x26 DUP8 PUSH1 0x84 SWAP4 DUP8 MLOAD SWAP4 PUSH3 0x461BCD PUSH1 0xE5 SHL DUP6 MSTORE DUP5 ADD MSTORE DUP3 ADD MSTORE PUSH32 0x526566657272616C53797374656D3A207265666572656520626F6E757320746F PUSH1 0x44 DUP3 ADD MSTORE PUSH6 0xDE40D0D2CED PUSH1 0xD3 SHL PUSH1 0x64 DUP3 ADD MSTORE REVERT JUMPDEST POP PUSH1 0x27 DUP8 PUSH1 0x84 SWAP4 DUP8 MLOAD SWAP4 PUSH3 0x461BCD PUSH1 0xE5 SHL DUP6 MSTORE DUP5 ADD MSTORE DUP3 ADD MSTORE PUSH32 0x526566657272616C53797374656D3A20726566657272657220626F6E75732074 PUSH1 0x44 DUP3 ADD MSTORE PUSH7 0xDEDE40D0D2CED PUSH1 0xCB SHL PUSH1 0x64 DUP3 ADD MSTORE REVERT JUMPDEST PUSH1 0x44 SWAP3 POP DUP8 DUP7 MLOAD SWAP3 PUSH4 0xE2517D3F PUSH1 0xE0 SHL DUP5 MSTORE CALLER SWAP1 DUP5 ADD MSTORE DUP3 ADD MSTORE REVERT JUMPDEST POP SWAP1 CALLVALUE PUSH2 0x1B8 JUMPI DUP1 PUSH1 0x3 NOT CALLDATASIZE ADD SLT PUSH2 0x1B8 JUMPI PUSH1 0x60 SWAP1 PUSH2 0x3AA PUSH2 0x399 PUSH2 0xAF0 JUMP JUMPDEST PUSH2 0x3A1 PUSH2 0xC73 JUMP JUMPDEST PUSH1 0x24 CALLDATALOAD SWAP1 PUSH2 0xB94 JUMP JUMPDEST SWAP2 SWAP3 SWAP1 DUP2 MLOAD SWAP4 PUSH1 0x1 DUP1 PUSH1 0xA0 SHL SUB AND DUP5 MSTORE PUSH1 0x20 DUP5 ADD MSTORE DUP3 ADD MSTORE RETURN JUMPDEST POP SWAP2 SWAP1 CALLVALUE PUSH2 0x403 JUMPI DUP1 PUSH1 0x3 NOT CALLDATASIZE ADD SLT PUSH2 0x403 JUMPI PUSH2 0x3FF SWAP2 CALLDATALOAD PUSH2 0x3FA PUSH1 0x1 PUSH2 0x3E9 PUSH2 0xB0B JUMP JUMPDEST SWAP4 DUP4 DUP8 MSTORE DUP7 PUSH1 0x20 MSTORE DUP7 KECCAK256 ADD SLOAD PUSH2 0xCED JUMP JUMPDEST PUSH2 0xD91 JUMP JUMPDEST POP DUP1 RETURN JUMPDEST DUP3 DUP1 REVERT JUMPDEST POP SWAP1 CALLVALUE PUSH2 0x1B8 JUMPI PUSH1 0x20 CALLDATASIZE PUSH1 0x3 NOT ADD SLT PUSH2 0x1B8 JUMPI PUSH1 0x1 PUSH1 0x1 PUSH1 0xA0 SHL SUB SWAP2 PUSH2 0x47E SWAP1 DUP3 SWAP1 DUP5 PUSH2 0x432 PUSH2 0xAF0 JUMP JUMPDEST AND DUP2 MSTORE PUSH1 0x3 PUSH1 0x20 DUP2 DUP2 MSTORE SWAP3 SWAP1 SWAP2 KECCAK256 DUP1 SLOAD PUSH1 0x1 DUP3 ADD SLOAD PUSH1 0x2 DUP4 ADD SLOAD SWAP3 SWAP1 SWAP4 ADD SLOAD SWAP6 MLOAD SWAP7 AND PUSH1 0x1 PUSH1 0x1 PUSH1 0xA0 SHL SUB AND DUP7 MSTORE SWAP2 DUP6 ADD MSTORE PUSH1 0x40 DUP5 ADD MSTORE PUSH1 0xFF SWAP1 SWAP2 AND ISZERO ISZERO PUSH1 0x60 DUP4 ADD MSTORE DUP2 SWAP1 PUSH1 0x80 DUP3 ADD SWAP1 JUMP JUMPDEST SUB SWAP1 RETURN JUMPDEST POP SWAP1 CALLVALUE PUSH2 0x1B8 JUMPI DUP2 PUSH1 0x3 NOT CALLDATASIZE ADD SLT PUSH2 0x1B8 JUMPI PUSH1 0x20 SWAP1 PUSH1 0x6 SLOAD SWAP1 MLOAD SWAP1 DUP2 MSTORE RETURN JUMPDEST POP SWAP1 CALLVALUE PUSH2 0x1B8 JUMPI DUP2 PUSH1 0x3 NOT CALLDATASIZE ADD SLT PUSH2 0x1B8 JUMPI MLOAD SWAP1 DUP2 MSTORE PUSH1 0x20 SWAP1 RETURN JUMPDEST POP SWAP2 CALLVALUE PUSH2 0x403 JUMPI DUP2 PUSH1 0x3 NOT CALLDATASIZE ADD SLT PUSH2 0x403 JUMPI DUP2 PUSH1 0x20 SWAP4 PUSH1 0xFF SWAP3 PUSH2 0x4DD PUSH2 0xB0B JUMP JUMPDEST SWAP1 CALLDATALOAD DUP3 MSTORE DUP2 DUP7 MSTORE DUP3 DUP3 KECCAK256 PUSH1 0x1 PUSH1 0x1 PUSH1 0xA0 SHL SUB SWAP1 SWAP2 AND DUP3 MSTORE DUP6 MSTORE KECCAK256 SLOAD SWAP2 MLOAD SWAP2 AND ISZERO ISZERO DUP2 MSTORE RETURN JUMPDEST POP SWAP1 CALLVALUE PUSH2 0x1B8 JUMPI DUP2 PUSH1 0x3 NOT CALLDATASIZE ADD SLT PUSH2 0x1B8 JUMPI PUSH1 0x20 SWAP1 PUSH1 0x2 SLOAD SWAP1 MLOAD SWAP1 DUP2 MSTORE RETURN JUMPDEST POP SWAP2 CALLVALUE PUSH2 0x403 JUMPI DUP2 PUSH1 0x3 NOT CALLDATASIZE ADD SLT PUSH2 0x403 JUMPI PUSH2 0x53B PUSH2 0xAF0 JUMP JUMPDEST PUSH2 0x543 PUSH2 0xB0B JUMP JUMPDEST SWAP2 PUSH2 0x54C PUSH2 0xC73 JUMP JUMPDEST PUSH1 0x1 PUSH1 0x1 PUSH1 0xA0 SHL SUB SWAP2 DUP3 AND SWAP3 DUP4 ISZERO PUSH2 0x706 JUMPI DUP3 AND SWAP4 DUP5 ISZERO PUSH2 0x6C3 JUMPI DUP5 DUP5 EQ PUSH2 0x680 JUMPI DUP4 DUP7 MSTORE PUSH1 0x3 PUSH1 0x20 MSTORE PUSH1 0xFF PUSH1 0x3 DUP3 DUP9 KECCAK256 ADD SLOAD AND PUSH2 0x63D JUMPI DUP4 DUP7 MSTORE PUSH1 0x3 PUSH1 0x20 MSTORE PUSH1 0x3 DUP2 DUP8 KECCAK256 DUP7 PUSH12 0xFFFFFFFFFFFFFFFFFFFFFFFF PUSH1 0xA0 SHL DUP3 SLOAD AND OR DUP2 SSTORE ADD PUSH1 0x1 PUSH1 0xFF NOT DUP3 SLOAD AND OR SWAP1 SSTORE DUP5 DUP7 MSTORE DUP2 PUSH1 0x20 MSTORE DUP6 KECCAK256 DUP1 SLOAD SWAP2 PUSH9 0x10000000000000000 DUP4 LT ISZERO PUSH2 0x62A JUMPI POP SWAP1 PUSH2 0x5E2 SWAP2 PUSH1 0x1 DUP3 ADD DUP2 SSTORE PUSH2 0xB21 JUMP JUMPDEST DUP2 SWAP3 SWAP2 SLOAD SWAP1 PUSH1 0x3 SHL SWAP2 DUP5 DUP4 SHL SWAP3 SHL NOT AND OR SWAP1 SSTORE PUSH2 0x600 PUSH1 0x5 SLOAD PUSH2 0xB4F JUMP JUMPDEST PUSH1 0x5 SSTORE PUSH32 0x5F1CA2FCC108B751843A763E60D2201F593516109D7DBB1B700468F2D4190BB7 DUP4 DUP1 LOG3 DUP1 RETURN JUMPDEST PUSH4 0x4E487B71 PUSH1 0xE0 SHL DUP8 MSTORE PUSH1 0x41 SWAP1 MSTORE PUSH1 0x24 DUP7 REVERT JUMPDEST SWAP1 PUSH1 0x20 PUSH1 0x64 SWAP3 MLOAD SWAP2 PUSH3 0x461BCD PUSH1 0xE5 SHL DUP4 MSTORE DUP3 ADD MSTORE PUSH1 0x20 PUSH1 0x24 DUP3 ADD MSTORE PUSH32 0x526566657272616C53797374656D3A20616C7265616479207265666572726564 PUSH1 0x44 DUP3 ADD MSTORE REVERT JUMPDEST SWAP1 PUSH1 0x20 PUSH1 0x64 SWAP3 MLOAD SWAP2 PUSH3 0x461BCD PUSH1 0xE5 SHL DUP4 MSTORE DUP3 ADD MSTORE PUSH1 0x1D PUSH1 0x24 DUP3 ADD MSTORE PUSH32 0x526566657272616C53797374656D3A2073656C662D726566657272616C000000 PUSH1 0x44 DUP3 ADD MSTORE REVERT JUMPDEST SWAP1 PUSH1 0x20 PUSH1 0x64 SWAP3 MLOAD SWAP2 PUSH3 0x461BCD PUSH1 0xE5 SHL DUP4 MSTORE DUP3 ADD MSTORE PUSH1 0x1D PUSH1 0x24 DUP3 ADD MSTORE PUSH32 0x526566657272616C53797374656D3A207A65726F207265666572726572000000 PUSH1 0x44 DUP3 ADD MSTORE REVERT JUMPDEST DUP5 MLOAD PUSH3 0x461BCD PUSH1 0xE5 SHL DUP2 MSTORE PUSH1 0x20 DUP2 DUP5 ADD MSTORE PUSH1 0x1C PUSH1 0x24 DUP3 ADD MSTORE PUSH32 0x526566657272616C53797374656D3A207A65726F207265666572656500000000 PUSH1 0x44 DUP3 ADD MSTORE PUSH1 0x64 SWAP1 REVERT JUMPDEST POP SWAP1 CALLVALUE PUSH2 0x1B8 JUMPI PUSH1 0x20 CALLDATASIZE PUSH1 0x3 NOT ADD SLT PUSH2 0x1B8 JUMPI PUSH1 0x20 SWAP2 PUSH1 0x1 PUSH1 0x1 PUSH1 0xA0 SHL SUB SWAP1 DUP3 SWAP1 DUP3 PUSH2 0x773 PUSH2 0xAF0 JUMP JUMPDEST AND DUP2 MSTORE PUSH1 0x3 DUP6 MSTORE KECCAK256 SLOAD AND SWAP1 MLOAD SWAP1 DUP2 MSTORE RETURN JUMPDEST POP SWAP1 CALLVALUE PUSH2 0x1B8 JUMPI DUP1 PUSH1 0x3 NOT CALLDATASIZE ADD SLT PUSH2 0x1B8 JUMPI PUSH2 0x79E PUSH2 0xB0B JUMP JUMPDEST SWAP1 CALLER PUSH1 0x1 PUSH1 0x1 PUSH1 0xA0 SHL SUB DUP4 AND SUB PUSH2 0x7BB JUMPI POP PUSH2 0x3FF SWAP2 SWAP3 CALLDATALOAD PUSH2 0xD91 JUMP JUMPDEST MLOAD PUSH4 0x334BD919 PUSH1 0xE1 SHL DUP2 MSTORE DUP4 SWAP1 REVERT JUMPDEST POP DUP3 SWAP1 CALLVALUE PUSH2 0x17A JUMPI PUSH1 0x20 SWAP3 DUP4 PUSH1 0x3 NOT CALLDATASIZE ADD SLT PUSH2 0x1B8 JUMPI PUSH1 0x1 PUSH1 0x1 PUSH1 0xA0 SHL SUB SWAP4 DUP5 PUSH2 0x7F2 PUSH2 0xAF0 JUMP JUMPDEST AND DUP4 MSTORE DUP4 DUP2 MSTORE DUP2 DUP4 KECCAK256 SWAP3 DUP3 MLOAD SWAP3 DUP4 DUP4 DUP7 SLOAD SWAP2 DUP3 DUP2 MSTORE ADD SWAP1 DUP2 SWAP7 DUP5 MSTORE DUP5 DUP5 KECCAK256 SWAP1 DUP5 JUMPDEST DUP7 DUP3 DUP3 LT PUSH2 0x88C JUMPI POP POP POP POP DUP5 SWAP1 SUB PUSH1 0x1F ADD PUSH1 0x1F NOT AND DUP5 ADD SWAP6 PUSH8 0xFFFFFFFFFFFFFFFF DUP8 GT DUP6 DUP9 LT OR PUSH2 0x879 JUMPI POP DUP6 DUP2 MSTORE DUP3 DUP7 MSTORE SWAP3 MLOAD DUP3 DUP7 ADD DUP2 SWAP1 MSTORE SWAP3 DUP6 ADD SWAP4 SWAP3 SWAP2 SWAP1 JUMPDEST DUP3 DUP2 LT PUSH2 0x863 JUMPI DUP6 DUP6 SUB DUP7 RETURN JUMPDEST DUP4 MLOAD DUP8 AND DUP6 MSTORE SWAP4 DUP2 ADD SWAP4 SWAP3 DUP2 ADD SWAP3 PUSH1 0x1 ADD PUSH2 0x856 JUMP JUMPDEST PUSH4 0x4E487B71 PUSH1 0xE0 SHL DUP4 MSTORE PUSH1 0x41 SWAP1 MSTORE PUSH1 0x24 DUP3 REVERT JUMPDEST DUP4 SLOAD DUP13 AND DUP6 MSTORE SWAP1 SWAP4 ADD SWAP3 PUSH1 0x1 SWAP3 DUP4 ADD SWAP3 ADD PUSH2 0x813 JUMP JUMPDEST POP SWAP2 SWAP1 CALLVALUE PUSH2 0x403 JUMPI DUP1 PUSH1 0x3 NOT CALLDATASIZE ADD SLT PUSH2 0x403 JUMPI PUSH2 0x3FF SWAP2 CALLDATALOAD PUSH2 0x8C7 PUSH1 0x1 PUSH2 0x3E9 PUSH2 0xB0B JUMP JUMPDEST PUSH2 0xD13 JUMP JUMPDEST POP SWAP2 CALLVALUE PUSH2 0x403 JUMPI PUSH1 0x20 CALLDATASIZE PUSH1 0x3 NOT ADD SLT PUSH2 0x403 JUMPI PUSH1 0x20 SWAP3 DUP3 SWAP2 PUSH1 0x1 PUSH1 0x1 PUSH1 0xA0 SHL SUB PUSH2 0x8F4 PUSH2 0xAF0 JUMP JUMPDEST AND DUP3 MSTORE DUP5 MSTORE KECCAK256 SLOAD SWAP1 MLOAD SWAP1 DUP2 MSTORE RETURN JUMPDEST POP SWAP2 CALLVALUE PUSH2 0x403 JUMPI PUSH1 0x20 CALLDATASIZE PUSH1 0x3 NOT ADD SLT PUSH2 0x403 JUMPI DUP2 PUSH1 0x20 SWAP4 PUSH1 0x1 SWAP3 CALLDATALOAD DUP2 MSTORE DUP1 DUP6 MSTORE KECCAK256 ADD SLOAD SWAP1 MLOAD SWAP1 DUP2 MSTORE RETURN JUMPDEST POP SWAP2 CALLVALUE PUSH2 0x403 JUMPI PUSH1 0x20 CALLDATASIZE PUSH1 0x3 NOT ADD SLT PUSH2 0x403 JUMPI PUSH1 0x1 PUSH1 0x1 PUSH1 0xA0 SHL SUB DUP1 PUSH2 0x950 PUSH2 0xAF0 JUMP JUMPDEST AND DUP5 MSTORE PUSH1 0x3 PUSH1 0x20 MSTORE DUP3 DUP5 KECCAK256 SWAP2 DUP4 MLOAD SWAP5 PUSH1 0x80 DUP7 ADD SWAP2 DUP7 DUP4 LT PUSH8 0xFFFFFFFFFFFFFFFF DUP5 GT OR PUSH2 0x9CF JUMPI POP POP DUP4 MSTORE DUP2 SLOAD AND DUP1 DUP5 MSTORE PUSH1 0x1 DUP3 ADD SLOAD PUSH1 0x20 DUP1 DUP7 ADD DUP3 SWAP1 MSTORE PUSH1 0x2 DUP5 ADD SLOAD DUP7 DUP7 ADD DUP2 SWAP1 MSTORE PUSH1 0x3 SWAP1 SWAP5 ADD SLOAD PUSH1 0xFF AND ISZERO ISZERO PUSH1 0x60 SWAP7 DUP8 ADD DUP2 SWAP1 MSTORE SWAP5 MLOAD PUSH1 0x1 PUSH1 0x1 PUSH1 0xA0 SHL SUB SWAP1 SWAP4 AND DUP4 MSTORE DUP3 ADD MSTORE PUSH1 0x40 DUP2 ADD SWAP2 SWAP1 SWAP2 MSTORE SWAP2 DUP3 ADD MSTORE PUSH1 0x80 SWAP1 RETURN JUMPDEST PUSH4 0x4E487B71 PUSH1 0xE0 SHL DUP3 MSTORE PUSH1 0x41 SWAP1 MSTORE PUSH1 0x24 SWAP1 REVERT JUMPDEST POP SWAP1 CALLVALUE PUSH2 0x1B8 JUMPI DUP2 PUSH1 0x3 NOT CALLDATASIZE ADD SLT PUSH2 0x1B8 JUMPI PUSH1 0x20 SWAP1 PUSH1 0x5 SLOAD SWAP1 MLOAD SWAP1 DUP2 MSTORE RETURN JUMPDEST POP SWAP1 CALLVALUE PUSH2 0x1B8 JUMPI PUSH1 0x20 CALLDATASIZE PUSH1 0x3 NOT ADD SLT PUSH2 0x1B8 JUMPI PUSH1 0x20 SWAP2 PUSH1 0xFF SWAP1 PUSH1 0x3 SWAP1 DUP4 SWAP1 PUSH1 0x1 PUSH1 0x1 PUSH1 0xA0 SHL SUB PUSH2 0xA2F PUSH2 0xAF0 JUMP JUMPDEST AND DUP2 MSTORE DUP3 DUP7 MSTORE KECCAK256 ADD SLOAD AND SWAP1 MLOAD SWAP1 ISZERO ISZERO DUP2 MSTORE RETURN JUMPDEST POP SWAP1 CALLVALUE PUSH2 0x1B8 JUMPI DUP2 PUSH1 0x3 NOT CALLDATASIZE ADD SLT PUSH2 0x1B8 JUMPI PUSH1 0x20 SWAP1 MLOAD PUSH32 0xDB9284895A7211BFD1C970298A1ED435786C5E0CD6EC4810E5F98B0AC05F4634 DUP2 MSTORE RETURN JUMPDEST POP SWAP1 CALLVALUE PUSH2 0x1B8 JUMPI DUP2 PUSH1 0x3 NOT CALLDATASIZE ADD SLT PUSH2 0x1B8 JUMPI PUSH1 0x20 SWAP1 PUSH1 0x1 SLOAD SWAP1 MLOAD SWAP1 DUP2 MSTORE RETURN JUMPDEST SWAP1 POP DUP4 CALLVALUE PUSH2 0x403 JUMPI PUSH1 0x20 CALLDATASIZE PUSH1 0x3 NOT ADD SLT PUSH2 0x403 JUMPI CALLDATALOAD PUSH4 0xFFFFFFFF PUSH1 0xE0 SHL DUP2 AND DUP1 SWAP2 SUB PUSH2 0x403 JUMPI PUSH1 0x20 SWAP3 POP PUSH4 0x7965DB0B PUSH1 0xE0 SHL DUP2 EQ SWAP1 DUP2 ISZERO PUSH2 0xADF JUMPI JUMPDEST POP ISZERO ISZERO DUP2 MSTORE RETURN JUMPDEST PUSH4 0x1FFC9A7 PUSH1 0xE0 SHL EQ SWAP1 POP DUP4 PUSH2 0xAD8 JUMP JUMPDEST PUSH1 0x4 CALLDATALOAD SWAP1 PUSH1 0x1 PUSH1 0x1 PUSH1 0xA0 SHL SUB DUP3 AND DUP3 SUB PUSH2 0xB06 JUMPI JUMP JUMPDEST PUSH1 0x0 DUP1 REVERT JUMPDEST PUSH1 0x24 CALLDATALOAD SWAP1 PUSH1 0x1 PUSH1 0x1 PUSH1 0xA0 SHL SUB DUP3 AND DUP3 SUB PUSH2 0xB06 JUMPI JUMP JUMPDEST DUP1 SLOAD DUP3 LT ISZERO PUSH2 0xB39 JUMPI PUSH1 0x0 MSTORE PUSH1 0x20 PUSH1 0x0 KECCAK256 ADD SWAP1 PUSH1 0x0 SWAP1 JUMP JUMPDEST PUSH4 0x4E487B71 PUSH1 0xE0 SHL PUSH1 0x0 MSTORE PUSH1 0x32 PUSH1 0x4 MSTORE PUSH1 0x24 PUSH1 0x0 REVERT JUMPDEST PUSH1 0x0 NOT DUP2 EQ PUSH2 0xB5E JUMPI PUSH1 0x1 ADD SWAP1 JUMP JUMPDEST PUSH4 0x4E487B71 PUSH1 0xE0 SHL PUSH1 0x0 MSTORE PUSH1 0x11 PUSH1 0x4 MSTORE PUSH1 0x24 PUSH1 0x0 REVERT JUMPDEST DUP2 DUP2 MUL SWAP3 SWAP2 DUP2 ISZERO SWAP2 DUP5 DIV EQ OR ISZERO PUSH2 0xB5E JUMPI JUMP JUMPDEST SWAP2 SWAP1 DUP3 ADD DUP1 SWAP3 GT PUSH2 0xB5E JUMPI JUMP JUMPDEST SWAP1 SWAP2 PUSH1 0x1 DUP1 PUSH1 0xA0 SHL SUB DUP1 SWAP3 AND PUSH1 0x0 SWAP3 DUP2 DUP5 MSTORE PUSH1 0x3 PUSH1 0x20 MSTORE PUSH1 0x40 DUP5 KECCAK256 PUSH1 0xFF PUSH1 0x3 DUP3 ADD SLOAD AND ISZERO PUSH2 0xC68 JUMPI SLOAD AND DUP1 SWAP2 PUSH32 0x97A731CE2AF675E0A2502525558D9BDB33CB114EFCF7E9C0AE4C86A36058DD5A PUSH1 0x60 PUSH2 0x2710 SWAP8 PUSH1 0x2 PUSH1 0x40 DUP11 PUSH2 0xBF8 PUSH1 0x1 SLOAD DUP6 PUSH2 0xB74 JUMP JUMPDEST DIV SWAP11 PUSH2 0xC05 DUP4 SLOAD DUP6 PUSH2 0xB74 JUMP JUMPDEST DIV SWAP10 DUP8 DUP2 MSTORE PUSH1 0x3 PUSH1 0x20 MSTORE PUSH1 0x1 DUP3 DUP3 KECCAK256 ADD PUSH2 0xC1F DUP2 SLOAD PUSH2 0xB4F JUMP JUMPDEST SWAP1 SSTORE DUP8 DUP2 MSTORE PUSH1 0x3 PUSH1 0x20 MSTORE KECCAK256 ADD PUSH2 0xC36 DUP11 DUP3 SLOAD PUSH2 0xB87 JUMP JUMPDEST SWAP1 SSTORE PUSH2 0xC4D PUSH2 0xC45 DUP10 DUP12 PUSH2 0xB87 JUMP JUMPDEST PUSH1 0x6 SLOAD PUSH2 0xB87 JUMP JUMPDEST PUSH1 0x6 SSTORE PUSH1 0x40 MLOAD SWAP1 DUP2 MSTORE DUP9 PUSH1 0x20 DUP3 ADD MSTORE DUP8 PUSH1 0x40 DUP3 ADD MSTORE LOG3 SWAP3 SWAP2 SWAP1 JUMP JUMPDEST POP POP POP SWAP2 POP DUP1 SWAP2 DUP2 SWAP1 JUMP JUMPDEST CALLER PUSH1 0x0 SWAP1 DUP2 MSTORE PUSH32 0x309885961C5C462E01D0F6CB432454EB474F04FA3318496F3172F0DECFA9B437 PUSH1 0x20 MSTORE PUSH1 0x40 SWAP1 KECCAK256 SLOAD PUSH32 0xDB9284895A7211BFD1C970298A1ED435786C5E0CD6EC4810E5F98B0AC05F4634 SWAP1 PUSH1 0xFF AND ISZERO PUSH2 0xCCF JUMPI POP JUMP JUMPDEST PUSH1 0x44 SWAP1 PUSH1 0x40 MLOAD SWAP1 PUSH4 0xE2517D3F PUSH1 0xE0 SHL DUP3 MSTORE CALLER PUSH1 0x4 DUP4 ADD MSTORE PUSH1 0x24 DUP3 ADD MSTORE REVERT JUMPDEST DUP1 PUSH1 0x0 MSTORE PUSH1 0x0 PUSH1 0x20 MSTORE PUSH1 0x40 PUSH1 0x0 KECCAK256 CALLER PUSH1 0x0 MSTORE PUSH1 0x20 MSTORE PUSH1 0xFF PUSH1 0x40 PUSH1 0x0 KECCAK256 SLOAD AND ISZERO PUSH2 0xCCF JUMPI POP JUMP JUMPDEST SWAP1 PUSH1 0x0 SWAP2 DUP1 DUP4 MSTORE DUP3 PUSH1 0x20 MSTORE PUSH1 0x40 DUP4 KECCAK256 SWAP2 PUSH1 0x1 DUP1 PUSH1 0xA0 SHL SUB AND SWAP2 DUP3 DUP5 MSTORE PUSH1 0x20 MSTORE PUSH1 0xFF PUSH1 0x40 DUP5 KECCAK256 SLOAD AND ISZERO PUSH1 0x0 EQ PUSH2 0xD8C JUMPI DUP1 DUP4 MSTORE DUP3 PUSH1 0x20 MSTORE PUSH1 0x40 DUP4 KECCAK256 DUP3 DUP5 MSTORE PUSH1 0x20 MSTORE PUSH1 0x40 DUP4 KECCAK256 PUSH1 0x1 PUSH1 0xFF NOT DUP3 SLOAD AND OR SWAP1 SSTORE PUSH32 0x2F8788117E7EFF1D82E926EC794901D17C78024A50270940304540A733656F0D CALLER SWAP4 DUP1 LOG4 PUSH1 0x1 SWAP1 JUMP JUMPDEST POP POP SWAP1 JUMP JUMPDEST SWAP1 PUSH1 0x0 SWAP2 DUP1 DUP4 MSTORE DUP3 PUSH1 0x20 MSTORE PUSH1 0x40 DUP4 KECCAK256 SWAP2 PUSH1 0x1 DUP1 PUSH1 0xA0 SHL SUB AND SWAP2 DUP3 DUP5 MSTORE PUSH1 0x20 MSTORE PUSH1 0xFF PUSH1 0x40 DUP5 KECCAK256 SLOAD AND PUSH1 0x0 EQ PUSH2 0xD8C JUMPI DUP1 DUP4 MSTORE DUP3 PUSH1 0x20 MSTORE PUSH1 0x40 DUP4 KECCAK256 DUP3 DUP5 MSTORE PUSH1 0x20 MSTORE PUSH1 0x40 DUP4 KECCAK256 PUSH1 0xFF NOT DUP2 SLOAD AND SWAP1 SSTORE PUSH32 0xF6391F5C32D9C69D2A47EA670B442974B53935D1EDC7FD64EB21E047A839171B CALLER SWAP4 DUP1 LOG4 PUSH1 0x1 SWAP1 JUMP INVALID LOG2 PUSH5 0x6970667358 0x22 SLT KECCAK256 BLOBBASEFEE SWAP1 0xBB 0xF7 ADD EQ 0xB6 0xAE 0xEB 0xD7 0xD1 0xC5 DUP11 DUP7 PUSH17 0x9D035B0359633027604529471F6C92A0AA PUSH5 0x736F6C6343 STOP ADDMOD XOR STOP CALLER 0x2F DUP8 DUP9 GT PUSH31 0x7EFF1D82E926EC794901D17C78024A50270940304540A733656F0D00000000 "},"methodIdentifiers":{"authorizeSaleRound(uint256)":"e700ea1c","cancelOperation(bytes32)":"beadf957","createRound((string,uint256,uint256,uint256,uint256,uint256,uint256,bool))":"263f4d95","ethUSDOracle()":"706eb3ab","executeOperation(bytes32)":"cbaf2fa7","fundsVault()":"b6cb7f41","getAllRounds()":"e5066bbf","getRound(uint256)":"8f1327c0","getRoundCount()":"6de7da78","kycRegistry()":"4b155b97","nebaToken()":"ac76a908","owner()":"8da5cb5b","pauseRound(uint256)":"1803237a","rateLimiter()":"53d4fe33","referralSystem()":"a04e876c","renounceOwnership()":"715018a6","rounds(uint256)":"8c65c81f","scheduleOperation(address,bytes)":"47cd47b6","timelockDelay()":"eef09bad","timelockOperations(bytes32)":"4006d46a","transferOwnership(address)":"f2fde38b","unpauseRound(uint256)":"e3d0cc27","updateTimelockDelay(uint256)":"8e52d9d3","usdc()":"3e413bee","usdt()":"2f48ab7d","vestingVault()":"a5917baf"}}}}}