{"src/ReferralSystem.sol":{"ReferralSystem":{"abi":[{"inputs":[{"internalType":"address","name":"admin","type":"address"}],"stateMutability":"nonpayable","type":"constructor"},{"inputs":[],"name":"AccessControlBadConfirmation","type":"error"},{"inputs":[{"internalType":"address","name":"account","type":"address"},{"internalType":"bytes32","name":"neededRole","type":"bytes32"}],"name":"AccessControlUnauthorizedAccount","type":"error"},{"anonymous":false,"inputs":[{"indexed":false,"internalType":"uint256","name":"referrerBps","type":"uint256"},{"indexed":false,"internalType":"uint256","name":"refereeBps","type":"uint256"}],"name":"BonusPercentagesUpdated","type":"event"},{"anonymous":false,"inputs":[{"indexed":true,"internalType":"address","name":"referee","type":"address"},{"indexed":true,"internalType":"address","name":"referrer","type":"address"},{"indexed":false,"internalType":"uint256","name":"purchaseAmount","type":"uint256"},{"indexed":false,"internalType":"uint256","name":"referrerBonus","type":"uint256"},{"indexed":false,"internalType":"uint256","name":"refereeBonus","type":"uint256"}],"name":"ReferralBonusCalculated","type":"event"},{"anonymous":false,"inputs":[{"indexed":true,"internalType":"address","name":"referee","type":"address"},{"indexed":true,"internalType":"address","name":"referrer","type":"address"}],"name":"ReferralRegistered","type":"event"},{"anonymous":false,"inputs":[{"indexed":true,"internalType":"bytes32","name":"role","type":"bytes32"},{"indexed":true,"internalType":"bytes32","name":"previousAdminRole","type":"bytes32"},{"indexed":true,"internalType":"bytes32","name":"newAdminRole","type":"bytes32"}],"name":"RoleAdminChanged","type":"event"},{"anonymous":false,"inputs":[{"indexed":true,"internalType":"bytes32","name":"role","type":"bytes32"},{"indexed":true,"internalType":"address","name":"account","type":"address"},{"indexed":true,"internalType":"address","name":"sender","type":"address"}],"name":"RoleGranted","type":"event"},{"anonymous":false,"inputs":[{"indexed":true,"internalType":"bytes32","name":"role","type":"bytes32"},{"indexed":true,"internalType":"address","name":"account","type":"address"},{"indexed":true,"internalType":"address","name":"sender","type":"address"}],"name":"RoleRevoked","type":"event"},{"inputs":[],"name":"DEFAULT_ADMIN_ROLE","outputs":[{"internalType":"bytes32","name":"","type":"bytes32"}],"stateMutability":"view","type":"function"},{"inputs":[],"name":"REFERRAL_ADMIN_ROLE","outputs":[{"internalType":"bytes32","name":"","type":"bytes32"}],"stateMutability":"view","type":"function"},{"inputs":[],"name":"SALE_ROUND_ROLE","outputs":[{"internalType":"bytes32","name":"","type":"bytes32"}],"stateMutability":"view","type":"function"},{"inputs":[{"internalType":"address","name":"referee","type":"address"},{"internalType":"uint256","name":"tokenAmount","type":"uint256"}],"name":"calculateReferralBonus","outputs":[{"internalType":"address","name":"referrer","type":"address"},{"internalType":"uint256","name":"referrerBonus","type":"uint256"},{"internalType":"uint256","name":"refereeBonus","type":"uint256"}],"stateMutability":"nonpayable","type":"function"},{"inputs":[{"internalType":"address","name":"referrer","type":"address"}],"name":"getReferralCount","outputs":[{"internalType":"uint256","name":"","type":"uint256"}],"stateMutability":"view","type":"function"},{"inputs":[{"internalType":"address","name":"user","type":"address"}],"name":"getReferralStats","outputs":[{"internalType":"address","name":"referrer","type":"address"},{"internalType":"uint256","name":"totalReferred","type":"uint256"},{"internalType":"uint256","name":"totalBonusEarned","type":"uint256"},{"internalType":"bool","name":"hasReferred","type":"bool"}],"stateMutability":"view","type":"function"},{"inputs":[{"internalType":"address","name":"referrer","type":"address"}],"name":"getReferredUsers","outputs":[{"internalType":"address[]","name":"","type":"address[]"}],"stateMutability":"view","type":"function"},{"inputs":[{"internalType":"address","name":"referee","type":"address"}],"name":"getReferrer","outputs":[{"internalType":"address","name":"","type":"address"}],"stateMutability":"view","type":"function"},{"inputs":[{"internalType":"bytes32","name":"role","type":"bytes32"}],"name":"getRoleAdmin","outputs":[{"internalType":"bytes32","name":"","type":"bytes32"}],"stateMutability":"view","type":"function"},{"inputs":[{"internalType":"bytes32","name":"role","type":"bytes32"},{"internalType":"address","name":"account","type":"address"}],"name":"grantRole","outputs":[],"stateMutability":"nonpayable","type":"function"},{"inputs":[{"internalType":"address","name":"referee","type":"address"}],"name":"hasReferrer","outputs":[{"internalType":"bool","name":"","type":"bool"}],"stateMutability":"view","type":"function"},{"inputs":[{"internalType":"bytes32","name":"role","type":"bytes32"},{"internalType":"address","name":"account","type":"address"}],"name":"hasRole","outputs":[{"internalType":"bool","name":"","type":"bool"}],"stateMutability":"view","type":"function"},{"inputs":[],"name":"refereeBonusBps","outputs":[{"internalType":"uint256","name":"","type":"uint256"}],"stateMutability":"view","type":"function"},{"inputs":[{"internalType":"address","name":"","type":"address"}],"name":"referralData","outputs":[{"internalType":"address","name":"referrer","type":"address"},{"internalType":"uint256","name":"totalReferred","type":"uint256"},{"internalType":"uint256","name":"totalBonusEarned","type":"uint256"},{"internalType":"bool","name":"hasReferred","type":"bool"}],"stateMutability":"view","type":"function"},{"inputs":[{"internalType":"address","name":"","type":"address"},{"internalType":"uint256","name":"","type":"uint256"}],"name":"referredUsers","outputs":[{"internalType":"address","name":"","type":"address"}],"stateMutability":"view","type":"function"},{"inputs":[],"name":"referrerBonusBps","outputs":[{"internalType":"uint256","name":"","type":"uint256"}],"stateMutability":"view","type":"function"},{"inputs":[{"internalType":"address","name":"referee","type":"address"},{"internalType":"address","name":"referrer","type":"address"}],"name":"registerReferral","outputs":[],"stateMutability":"nonpayable","type":"function"},{"inputs":[{"internalType":"bytes32","name":"role","type":"bytes32"},{"internalType":"address","name":"callerConfirmation","type":"address"}],"name":"renounceRole","outputs":[],"stateMutability":"nonpayable","type":"function"},{"inputs":[{"internalType":"bytes32","name":"role","type":"bytes32"},{"internalType":"address","name":"account","type":"address"}],"name":"revokeRole","outputs":[],"stateMutability":"nonpayable","type":"function"},{"inputs":[{"internalType":"bytes4","name":"interfaceId","type":"bytes4"}],"name":"supportsInterface","outputs":[{"internalType":"bool","name":"","type":"bool"}],"stateMutability":"view","type":"function"},{"inputs":[],"name":"totalBonusDistributed","outputs":[{"internalType":"uint256","name":"","type":"uint256"}],"stateMutability":"view","type":"function"},{"inputs":[],"name":"totalReferrals","outputs":[{"internalType":"uint256","name":"","type":"uint256"}],"stateMutability":"view","type":"function"},{"inputs":[{"internalType":"uint256","name":"_referrerBps","type":"uint256"},{"internalType":"uint256","name":"_refereeBps","type":"uint256"}],"name":"updateBonusPercentages","outputs":[],"stateMutability":"nonpayable","type":"function"}],"evm":{"bytecode":{"linkReferences":{},"object":"6080346100c757601f61105d38819003918201601f19168301916001600160401b038311848410176100cc578084926020946040528339810103126100c757516001600160a01b0381168082036100c7576101f48060015560025515610082578061006c610072926100e2565b50610160565b50604051610e3c90816102018239f35b60405162461bcd60e51b815260206004820152601c60248201527f526566657272616c53797374656d3a207a65726f2061646472657373000000006044820152606490fd5b600080fd5b634e487b7160e01b600052604160045260246000fd5b6001600160a01b031660008181527fad3228b676f7d3cd4284a5443f17f1962b36e491b30a40b2405849e597ba5fb5602052604081205490919060ff1661015c57818052816020526040822081835260205260408220600160ff19825416179055339160008051602061103d8339815191528180a4600190565b5090565b6001600160a01b031660008181527f610416528cfef961f6c8fc91bef56087ef3281212584daef4b7fa0e6036047c260205260408120549091907fe15a7dd79e49684a2a3fd5c689ae377eab58931a852ffed7fca24bd23555aa299060ff166101fb57808352826020526040832082845260205260408320600160ff1982541617905560008051602061103d833981519152339380a4600190565b50509056fe608060408181526004918236101561001657600080fd5b600090813560e01c90816301ffc9a714610a9c57508063067fda6b14610a7d5780630b90fca114610a4257806318452cd814610a01578063196f4914146109e257806321bade131461092c578063248a9ca31461090257806324acbd69146108cc5780632f2ff15d146108a257806332e5b6d8146107ca57806336568abe146107845780634a9fefc7146107495780635603b9f9146105215780638d736ed31461050257806391d14854146104bc578063a217fddf146104a1578063ab11417f14610482578063c9c6b55614610407578063d547741f146103c4578063d8abfee514610379578063deb3269f146101bc578063e23828dc1461017d5763e92820e61461012157600080fd5b3461017a578160031936011261017a57610139610af0565b6001600160a01b039081168252602093909352818120805460243594929085101561017a575060209361016b91610b21565b92905490519260031b1c168152f35b80fd5b5090346101b857816003193601126101b857602090517fe15a7dd79e49684a2a3fd5c689ae377eab58931a852ffed7fca24bd23555aa298152f35b5080fd5b5090346101b857806003193601126101b85782356024938435907fe15a7dd79e49684a2a3fd5c689ae377eab58931a852ffed7fca24bd23555aa2990818652602091868352858720338852835260ff86882054161561035d57506103e880851161030c5783116102bd576107d06102338486610b87565b1161027157507f2b0c09f5443bc5628e317c9e8ef97edc0667f2b69e9400cdc2eaae6c9b1de93d94955082600155816002558351928352820152a180f35b8660849286519262461bcd60e51b8452830152808201527f526566657272616c53797374656d3a20746f74616c20626f6e757320746f6f206044820152630d0d2ced60e31b6064820152fd5b60268760849387519362461bcd60e51b85528401528201527f526566657272616c53797374656d3a207265666572656520626f6e757320746f6044820152650de40d0d2ced60d31b6064820152fd5b5060278760849387519362461bcd60e51b85528401528201527f526566657272616c53797374656d3a20726566657272657220626f6e757320746044820152660dede40d0d2ced60cb1b6064820152fd5b604492508786519263e2517d3f60e01b84523390840152820152fd5b5090346101b857806003193601126101b8576060906103aa610399610af0565b6103a1610c73565b60243590610b94565b91929081519360018060a01b031684526020840152820152f35b509190346104035780600319360112610403576103ff91356103fa60016103e9610b0b565b938387528660205286200154610ced565b610d91565b5080f35b8280fd5b5090346101b85760203660031901126101b8576001600160a01b039161047e90829084610432610af0565b16815260036020818152929091208054600182015460028301549290930154955196166001600160a01b0316865291850152604084015260ff9091161515606083015281906080820190565b0390f35b5090346101b857816003193601126101b8576020906006549051908152f35b5090346101b857816003193601126101b85751908152602090f35b5091346104035781600319360112610403578160209360ff926104dd610b0b565b903582528186528282206001600160a01b039091168252855220549151911615158152f35b5090346101b857816003193601126101b8576020906002549051908152f35b50913461040357816003193601126104035761053b610af0565b610543610b0b565b9161054c610c73565b6001600160a01b039182169283156107065782169384156106c35784841461068057838652600360205260ff600382882001541661063d5783865260036020526003818720866bffffffffffffffffffffffff60a01b82541617815501600160ff198254161790558486528160205285208054916801000000000000000083101561062a5750906105e291600182018155610b21565b819291549060031b9184831b921b1916179055610600600554610b4f565b6005557f5f1ca2fcc108b751843a763e60d2201f593516109d7dbb1b700468f2d4190bb78380a380f35b634e487b7160e01b875260419052602486fd5b906020606492519162461bcd60e51b8352820152602060248201527f526566657272616c53797374656d3a20616c72656164792072656665727265646044820152fd5b906020606492519162461bcd60e51b8352820152601d60248201527f526566657272616c53797374656d3a2073656c662d726566657272616c0000006044820152fd5b906020606492519162461bcd60e51b8352820152601d60248201527f526566657272616c53797374656d3a207a65726f2072656665727265720000006044820152fd5b845162461bcd60e51b8152602081840152601c60248201527f526566657272616c53797374656d3a207a65726f2072656665726565000000006044820152606490fd5b5090346101b85760203660031901126101b8576020916001600160a01b0390829082610773610af0565b168152600385522054169051908152f35b5090346101b857806003193601126101b85761079e610b0b565b90336001600160a01b038316036107bb57506103ff919235610d91565b5163334bd91960e11b81528390fd5b5082903461017a57602092836003193601126101b8576001600160a01b0393846107f2610af0565b16835283815281832092825192838386549182815201908196845284842090845b8682821061088c5750505050849003601f01601f191684019567ffffffffffffffff87118588101761087957508581528286529251828601819052928501939291905b8281106108635785850386f35b8351871685529381019392810192600101610856565b634e487b7160e01b835260419052602482fd5b83548c1685529093019260019283019201610813565b509190346104035780600319360112610403576103ff91356108c760016103e9610b0b565b610d13565b5091346104035760203660031901126104035760209282916001600160a01b036108f4610af0565b168252845220549051908152f35b50913461040357602036600319011261040357816020936001923581528085522001549051908152f35b509134610403576020366003190112610403576001600160a01b0380610950610af0565b168452600360205282842091835194608086019186831067ffffffffffffffff8411176109cf575050835281541680845260018201546020808601829052600284015486860181905260039094015460ff161515606096870181905294516001600160a01b039093168352820152604081019190915291820152608090f35b634e487b7160e01b825260419052602490fd5b5090346101b857816003193601126101b8576020906005549051908152f35b5090346101b85760203660031901126101b85760209160ff9060039083906001600160a01b03610a2f610af0565b1681528286522001541690519015158152f35b5090346101b857816003193601126101b857602090517fdb9284895a7211bfd1c970298a1ed435786c5e0cd6ec4810e5f98b0ac05f46348152f35b5090346101b857816003193601126101b8576020906001549051908152f35b90508334610403576020366003190112610403573563ffffffff60e01b81168091036104035760209250637965db0b60e01b8114908115610adf575b5015158152f35b6301ffc9a760e01b14905083610ad8565b600435906001600160a01b0382168203610b0657565b600080fd5b602435906001600160a01b0382168203610b0657565b8054821015610b395760005260206000200190600090565b634e487b7160e01b600052603260045260246000fd5b6000198114610b5e5760010190565b634e487b7160e01b600052601160045260246000fd5b81810292918115918404141715610b5e57565b91908201809211610b5e57565b909160018060a01b0380921660009281845260036020526040842060ff60038201541615610c6857541680917f97a731ce2af675e0a2502525558d9bdb33cb114efcf7e9c0ae4c86a36058dd5a606061271097600260408a610bf860015485610b74565b049a610c05835485610b74565b04998781526003602052600182822001610c1f8154610b4f565b905587815260036020522001610c368a8254610b87565b9055610c4d610c45898b610b87565b600654610b87565b600655604051908152886020820152876040820152a3929190565b505050915080918190565b3360009081527f309885961c5c462e01d0f6cb432454eb474f04fa3318496f3172f0decfa9b43760205260409020547fdb9284895a7211bfd1c970298a1ed435786c5e0cd6ec4810e5f98b0ac05f46349060ff1615610ccf5750565b6044906040519063e2517d3f60e01b82523360048301526024820152fd5b80600052600060205260406000203360005260205260ff6040600020541615610ccf5750565b9060009180835282602052604083209160018060a01b03169182845260205260ff60408420541615600014610d8c57808352826020526040832082845260205260408320600160ff198254161790557f2f8788117e7eff1d82e926ec794901d17c78024a50270940304540a733656f0d339380a4600190565b505090565b9060009180835282602052604083209160018060a01b03169182845260205260ff604084205416600014610d8c5780835282602052604083208284526020526040832060ff1981541690557ff6391f5c32d9c69d2a47ea670b442974b53935d1edc7fd64eb21e047a839171b339380a460019056fea26469706673582212204a90bbf70114b6aeebd7d1c58a86709d035b0359633027604529471f6c92a0aa64736f6c634300081800332f8788117e7eff1d82e926ec794901d17c78024a50270940304540a733656f0d","opcodes":"PUSH1 0x80 CALLVALUE PUSH2 0xC7 JUMPI PUSH1 0x1F PUSH2 0x105D CODESIZE DUP2 SWAP1 SUB SWAP2 DUP3 ADD PUSH1 0x1F NOT AND DUP4 ADD SWAP2 PUSH1 0x1 PUSH1 0x1 PUSH1 0x40 SHL SUB DUP4 GT DUP5 DUP5 LT OR PUSH2 0xCC JUMPI DUP1 DUP5 SWAP3 PUSH1 0x20 SWAP5 PUSH1 0x40 MSTORE DUP4 CODECOPY DUP2 ADD SUB SLT PUSH2 0xC7 JUMPI MLOAD PUSH1 0x1 PUSH1 0x1 PUSH1 0xA0 SHL SUB DUP2 AND DUP1 DUP3 SUB PUSH2 0xC7 JUMPI PUSH2 0x1F4 DUP1 PUSH1 0x1 SSTORE PUSH1 0x2 SSTORE ISZERO PUSH2 0x82 JUMPI DUP1 PUSH2 0x6C PUSH2 0x72 SWAP3 PUSH2 0xE2 JUMP JUMPDEST POP PUSH2 0x160 JUMP JUMPDEST POP PUSH1 0x40 MLOAD PUSH2 0xE3C SWAP1 DUP2 PUSH2 0x201 DUP3 CODECOPY RETURN JUMPDEST PUSH1 0x40 MLOAD PUSH3 0x461BCD PUSH1 0xE5 SHL DUP2 MSTORE PUSH1 0x20 PUSH1 0x4 DUP3 ADD MSTORE PUSH1 0x1C PUSH1 0x24 DUP3 ADD MSTORE PUSH32 0x526566657272616C53797374656D3A207A65726F206164647265737300000000 PUSH1 0x44 DUP3 ADD MSTORE PUSH1 0x64 SWAP1 REVERT JUMPDEST PUSH1 0x0 DUP1 REVERT JUMPDEST PUSH4 0x4E487B71 PUSH1 0xE0 SHL PUSH1 0x0 MSTORE PUSH1 0x41 PUSH1 0x4 MSTORE PUSH1 0x24 PUSH1 0x0 REVERT JUMPDEST PUSH1 0x1 PUSH1 0x1 PUSH1 0xA0 SHL SUB AND PUSH1 0x0 DUP2 DUP2 MSTORE PUSH32 0xAD3228B676F7D3CD4284A5443F17F1962B36E491B30A40B2405849E597BA5FB5 PUSH1 0x20 MSTORE PUSH1 0x40 DUP2 KECCAK256 SLOAD SWAP1 SWAP2 SWAP1 PUSH1 0xFF AND PUSH2 0x15C JUMPI DUP2 DUP1 MSTORE DUP2 PUSH1 0x20 MSTORE PUSH1 0x40 DUP3 KECCAK256 DUP2 DUP4 MSTORE PUSH1 0x20 MSTORE PUSH1 0x40 DUP3 KECCAK256 PUSH1 0x1 PUSH1 0xFF NOT DUP3 SLOAD AND OR SWAP1 SSTORE CALLER SWAP2 PUSH1 0x0 DUP1 MLOAD PUSH1 0x20 PUSH2 0x103D DUP4 CODECOPY DUP2 MLOAD SWAP2 MSTORE DUP2 DUP1 LOG4 PUSH1 0x1 SWAP1 JUMP JUMPDEST POP SWAP1 JUMP JUMPDEST PUSH1 0x1 PUSH1 0x1 PUSH1 0xA0 SHL SUB AND PUSH1 0x0 DUP2 DUP2 MSTORE PUSH32 0x610416528CFEF961F6C8FC91BEF56087EF3281212584DAEF4B7FA0E6036047C2 PUSH1 0x20 MSTORE PUSH1 0x40 DUP2 KECCAK256 SLOAD SWAP1 SWAP2 SWAP1 PUSH32 0xE15A7DD79E49684A2A3FD5C689AE377EAB58931A852FFED7FCA24BD23555AA29 SWAP1 PUSH1 0xFF AND PUSH2 0x1FB JUMPI DUP1 DUP4 MSTORE DUP3 PUSH1 0x20 MSTORE PUSH1 0x40 DUP4 KECCAK256 DUP3 DUP5 MSTORE PUSH1 0x20 MSTORE PUSH1 0x40 DUP4 KECCAK256 PUSH1 0x1 PUSH1 0xFF NOT DUP3 SLOAD AND OR SWAP1 SSTORE PUSH1 0x0 DUP1 MLOAD PUSH1 0x20 PUSH2 0x103D DUP4 CODECOPY DUP2 MLOAD SWAP2 MSTORE CALLER SWAP4 DUP1 LOG4 PUSH1 0x1 SWAP1 JUMP JUMPDEST POP POP SWAP1 JUMP INVALID PUSH1 0x80 PUSH1 0x40 DUP2 DUP2 MSTORE PUSH1 0x4 SWAP2 DUP3 CALLDATASIZE LT ISZERO PUSH2 0x16 JUMPI PUSH1 0x0 DUP1 REVERT JUMPDEST PUSH1 0x0 SWAP1 DUP2 CALLDATALOAD PUSH1 0xE0 SHR SWAP1 DUP2 PUSH4 0x1FFC9A7 EQ PUSH2 0xA9C JUMPI POP DUP1 PUSH4 0x67FDA6B EQ PUSH2 0xA7D JUMPI DUP1 PUSH4 0xB90FCA1 EQ PUSH2 0xA42 JUMPI DUP1 PUSH4 0x18452CD8 EQ PUSH2 0xA01 JUMPI DUP1 PUSH4 0x196F4914 EQ PUSH2 0x9E2 JUMPI DUP1 PUSH4 0x21BADE13 EQ PUSH2 0x92C JUMPI DUP1 PUSH4 0x248A9CA3 EQ PUSH2 0x902 JUMPI DUP1 PUSH4 0x24ACBD69 EQ PUSH2 0x8CC JUMPI DUP1 PUSH4 0x2F2FF15D EQ PUSH2 0x8A2 JUMPI DUP1 PUSH4 0x32E5B6D8 EQ PUSH2 0x7CA JUMPI DUP1 PUSH4 0x36568ABE EQ PUSH2 0x784 JUMPI DUP1 PUSH4 0x4A9FEFC7 EQ PUSH2 0x749 JUMPI DUP1 PUSH4 0x5603B9F9 EQ PUSH2 0x521 JUMPI DUP1 PUSH4 0x8D736ED3 EQ PUSH2 0x502 JUMPI DUP1 PUSH4 0x91D14854 EQ PUSH2 0x4BC JUMPI DUP1 PUSH4 0xA217FDDF EQ PUSH2 0x4A1 JUMPI DUP1 PUSH4 0xAB11417F EQ PUSH2 0x482 JUMPI DUP1 PUSH4 0xC9C6B556 EQ PUSH2 0x407 JUMPI DUP1 PUSH4 0xD547741F EQ PUSH2 0x3C4 JUMPI DUP1 PUSH4 0xD8ABFEE5 EQ PUSH2 0x379 JUMPI DUP1 PUSH4 0xDEB3269F EQ PUSH2 0x1BC JUMPI DUP1 PUSH4 0xE23828DC EQ PUSH2 0x17D JUMPI PUSH4 0xE92820E6 EQ PUSH2 0x121 JUMPI PUSH1 0x0 DUP1 REVERT JUMPDEST CALLVALUE PUSH2 0x17A JUMPI DUP2 PUSH1 0x3 NOT CALLDATASIZE ADD SLT PUSH2 0x17A JUMPI PUSH2 0x139 PUSH2 0xAF0 JUMP JUMPDEST PUSH1 0x1 PUSH1 0x1 PUSH1 0xA0 SHL SUB SWAP1 DUP2 AND DUP3 MSTORE PUSH1 0x20 SWAP4 SWAP1 SWAP4 MSTORE DUP2 DUP2 KECCAK256 DUP1 SLOAD PUSH1 0x24 CALLDATALOAD SWAP5 SWAP3 SWAP1 DUP6 LT ISZERO PUSH2 0x17A JUMPI POP PUSH1 0x20 SWAP4 PUSH2 0x16B SWAP2 PUSH2 0xB21 JUMP JUMPDEST SWAP3 SWAP1 SLOAD SWAP1 MLOAD SWAP3 PUSH1 0x3 SHL SHR AND DUP2 MSTORE RETURN JUMPDEST DUP1 REVERT JUMPDEST POP SWAP1 CALLVALUE PUSH2 0x1B8 JUMPI DUP2 PUSH1 0x3 NOT CALLDATASIZE ADD SLT PUSH2 0x1B8 JUMPI PUSH1 0x20 SWAP1 MLOAD PUSH32 0xE15A7DD79E49684A2A3FD5C689AE377EAB58931A852FFED7FCA24BD23555AA29 DUP2 MSTORE RETURN JUMPDEST POP DUP1 REVERT JUMPDEST POP SWAP1 CALLVALUE PUSH2 0x1B8 JUMPI DUP1 PUSH1 0x3 NOT CALLDATASIZE ADD SLT PUSH2 0x1B8 JUMPI DUP3 CALLDATALOAD PUSH1 0x24 SWAP4 DUP5 CALLDATALOAD SWAP1 PUSH32 0xE15A7DD79E49684A2A3FD5C689AE377EAB58931A852FFED7FCA24BD23555AA29 SWAP1 DUP2 DUP7 MSTORE PUSH1 0x20 SWAP2 DUP7 DUP4 MSTORE DUP6 DUP8 KECCAK256 CALLER DUP9 MSTORE DUP4 MSTORE PUSH1 0xFF DUP7 DUP9 KECCAK256 SLOAD AND ISZERO PUSH2 0x35D JUMPI POP PUSH2 0x3E8 DUP1 DUP6 GT PUSH2 0x30C JUMPI DUP4 GT PUSH2 0x2BD JUMPI PUSH2 0x7D0 PUSH2 0x233 DUP5 DUP7 PUSH2 0xB87 JUMP JUMPDEST GT PUSH2 0x271 JUMPI POP PUSH32 0x2B0C09F5443BC5628E317C9E8EF97EDC0667F2B69E9400CDC2EAAE6C9B1DE93D SWAP5 SWAP6 POP DUP3 PUSH1 0x1 SSTORE DUP2 PUSH1 0x2 SSTORE DUP4 MLOAD SWAP3 DUP4 MSTORE DUP3 ADD MSTORE LOG1 DUP1 RETURN JUMPDEST DUP7 PUSH1 0x84 SWAP3 DUP7 MLOAD SWAP3 PUSH3 0x461BCD PUSH1 0xE5 SHL DUP5 MSTORE DUP4 ADD MSTORE DUP1 DUP3 ADD MSTORE PUSH32 0x526566657272616C53797374656D3A20746F74616C20626F6E757320746F6F20 PUSH1 0x44 DUP3 ADD MSTORE PUSH4 0xD0D2CED PUSH1 0xE3 SHL PUSH1 0x64 DUP3 ADD MSTORE REVERT JUMPDEST PUSH1 0x26 DUP8 PUSH1 0x84 SWAP4 DUP8 MLOAD SWAP4 PUSH3 0x461BCD PUSH1 0xE5 SHL DUP6 MSTORE DUP5 ADD MSTORE DUP3 ADD MSTORE PUSH32 0x526566657272616C53797374656D3A207265666572656520626F6E757320746F PUSH1 0x44 DUP3 ADD MSTORE PUSH6 0xDE40D0D2CED PUSH1 0xD3 SHL PUSH1 0x64 DUP3 ADD MSTORE REVERT JUMPDEST POP PUSH1 0x27 DUP8 PUSH1 0x84 SWAP4 DUP8 MLOAD SWAP4 PUSH3 0x461BCD PUSH1 0xE5 SHL DUP6 MSTORE DUP5 ADD MSTORE DUP3 ADD MSTORE PUSH32 0x526566657272616C53797374656D3A20726566657272657220626F6E75732074 PUSH1 0x44 DUP3 ADD MSTORE PUSH7 0xDEDE40D0D2CED PUSH1 0xCB SHL PUSH1 0x64 DUP3 ADD MSTORE REVERT JUMPDEST PUSH1 0x44 SWAP3 POP DUP8 DUP7 MLOAD SWAP3 PUSH4 0xE2517D3F PUSH1 0xE0 SHL DUP5 MSTORE CALLER SWAP1 DUP5 ADD MSTORE DUP3 ADD MSTORE REVERT JUMPDEST POP SWAP1 CALLVALUE PUSH2 0x1B8 JUMPI DUP1 PUSH1 0x3 NOT CALLDATASIZE ADD SLT PUSH2 0x1B8 JUMPI PUSH1 0x60 SWAP1 PUSH2 0x3AA PUSH2 0x399 PUSH2 0xAF0 JUMP JUMPDEST PUSH2 0x3A1 PUSH2 0xC73 JUMP JUMPDEST PUSH1 0x24 CALLDATALOAD SWAP1 PUSH2 0xB94 JUMP JUMPDEST SWAP2 SWAP3 SWAP1 DUP2 MLOAD SWAP4 PUSH1 0x1 DUP1 PUSH1 0xA0 SHL SUB AND DUP5 MSTORE PUSH1 0x20 DUP5 ADD MSTORE DUP3 ADD MSTORE RETURN JUMPDEST POP SWAP2 SWAP1 CALLVALUE PUSH2 0x403 JUMPI DUP1 PUSH1 0x3 NOT CALLDATASIZE ADD SLT PUSH2 0x403 JUMPI PUSH2 0x3FF SWAP2 CALLDATALOAD PUSH2 0x3FA PUSH1 0x1 PUSH2 0x3E9 PUSH2 0xB0B JUMP JUMPDEST SWAP4 DUP4 DUP8 MSTORE DUP7 PUSH1 0x20 MSTORE DUP7 KECCAK256 ADD SLOAD PUSH2 0xCED JUMP JUMPDEST PUSH2 0xD91 JUMP JUMPDEST POP DUP1 RETURN JUMPDEST DUP3 DUP1 REVERT JUMPDEST POP SWAP1 CALLVALUE PUSH2 0x1B8 JUMPI PUSH1 0x20 CALLDATASIZE PUSH1 0x3 NOT ADD SLT PUSH2 0x1B8 JUMPI PUSH1 0x1 PUSH1 0x1 PUSH1 0xA0 SHL SUB SWAP2 PUSH2 0x47E SWAP1 DUP3 SWAP1 DUP5 PUSH2 0x432 PUSH2 0xAF0 JUMP JUMPDEST AND DUP2 MSTORE PUSH1 0x3 PUSH1 0x20 DUP2 DUP2 MSTORE SWAP3 SWAP1 SWAP2 KECCAK256 DUP1 SLOAD PUSH1 0x1 DUP3 ADD SLOAD PUSH1 0x2 DUP4 ADD SLOAD SWAP3 SWAP1 SWAP4 ADD SLOAD SWAP6 MLOAD SWAP7 AND PUSH1 0x1 PUSH1 0x1 PUSH1 0xA0 SHL SUB AND DUP7 MSTORE SWAP2 DUP6 ADD MSTORE PUSH1 0x40 DUP5 ADD MSTORE PUSH1 0xFF SWAP1 SWAP2 AND ISZERO ISZERO PUSH1 0x60 DUP4 ADD MSTORE DUP2 SWAP1 PUSH1 0x80 DUP3 ADD SWAP1 JUMP JUMPDEST SUB SWAP1 RETURN JUMPDEST POP SWAP1 CALLVALUE PUSH2 0x1B8 JUMPI DUP2 PUSH1 0x3 NOT CALLDATASIZE ADD SLT PUSH2 0x1B8 JUMPI PUSH1 0x20 SWAP1 PUSH1 0x6 SLOAD SWAP1 MLOAD SWAP1 DUP2 MSTORE RETURN JUMPDEST POP SWAP1 CALLVALUE PUSH2 0x1B8 JUMPI DUP2 PUSH1 0x3 NOT CALLDATASIZE ADD SLT PUSH2 0x1B8 JUMPI MLOAD SWAP1 DUP2 MSTORE PUSH1 0x20 SWAP1 RETURN JUMPDEST POP SWAP2 CALLVALUE PUSH2 0x403 JUMPI DUP2 PUSH1 0x3 NOT CALLDATASIZE ADD SLT PUSH2 0x403 JUMPI DUP2 PUSH1 0x20 SWAP4 PUSH1 0xFF SWAP3 PUSH2 0x4DD PUSH2 0xB0B JUMP JUMPDEST SWAP1 CALLDATALOAD DUP3 MSTORE DUP2 DUP7 MSTORE DUP3 DUP3 KECCAK256 PUSH1 0x1 PUSH1 0x1 PUSH1 0xA0 SHL SUB SWAP1 SWAP2 AND DUP3 MSTORE DUP6 MSTORE KECCAK256 SLOAD SWAP2 MLOAD SWAP2 AND ISZERO ISZERO DUP2 MSTORE RETURN JUMPDEST POP SWAP1 CALLVALUE PUSH2 0x1B8 JUMPI DUP2 PUSH1 0x3 NOT CALLDATASIZE ADD SLT PUSH2 0x1B8 JUMPI PUSH1 0x20 SWAP1 PUSH1 0x2 SLOAD SWAP1 MLOAD SWAP1 DUP2 MSTORE RETURN JUMPDEST POP SWAP2 CALLVALUE PUSH2 0x403 JUMPI DUP2 PUSH1 0x3 NOT CALLDATASIZE ADD SLT PUSH2 0x403 JUMPI PUSH2 0x53B PUSH2 0xAF0 JUMP JUMPDEST PUSH2 0x543 PUSH2 0xB0B JUMP JUMPDEST SWAP2 PUSH2 0x54C PUSH2 0xC73 JUMP JUMPDEST PUSH1 0x1 PUSH1 0x1 PUSH1 0xA0 SHL SUB SWAP2 DUP3 AND SWAP3 DUP4 ISZERO PUSH2 0x706 JUMPI DUP3 AND SWAP4 DUP5 ISZERO PUSH2 0x6C3 JUMPI DUP5 DUP5 EQ PUSH2 0x680 JUMPI DUP4 DUP7 MSTORE PUSH1 0x3 PUSH1 0x20 MSTORE PUSH1 0xFF PUSH1 0x3 DUP3 DUP9 KECCAK256 ADD SLOAD AND PUSH2 0x63D JUMPI DUP4 DUP7 MSTORE PUSH1 0x3 PUSH1 0x20 MSTORE PUSH1 0x3 DUP2 DUP8 KECCAK256 DUP7 PUSH12 0xFFFFFFFFFFFFFFFFFFFFFFFF PUSH1 0xA0 SHL DUP3 SLOAD AND OR DUP2 SSTORE ADD PUSH1 0x1 PUSH1 0xFF NOT DUP3 SLOAD AND OR SWAP1 SSTORE DUP5 DUP7 MSTORE DUP2 PUSH1 0x20 MSTORE DUP6 KECCAK256 DUP1 SLOAD SWAP2 PUSH9 0x10000000000000000 DUP4 LT ISZERO PUSH2 0x62A JUMPI POP SWAP1 PUSH2 0x5E2 SWAP2 PUSH1 0x1 DUP3 ADD DUP2 SSTORE PUSH2 0xB21 JUMP JUMPDEST DUP2 SWAP3 SWAP2 SLOAD SWAP1 PUSH1 0x3 SHL SWAP2 DUP5 DUP4 SHL SWAP3 SHL NOT AND OR SWAP1 SSTORE PUSH2 0x600 PUSH1 0x5 SLOAD PUSH2 0xB4F JUMP JUMPDEST PUSH1 0x5 SSTORE PUSH32 0x5F1CA2FCC108B751843A763E60D2201F593516109D7DBB1B700468F2D4190BB7 DUP4 DUP1 LOG3 DUP1 RETURN JUMPDEST PUSH4 0x4E487B71 PUSH1 0xE0 SHL DUP8 MSTORE PUSH1 0x41 SWAP1 MSTORE PUSH1 0x24 DUP7 REVERT JUMPDEST SWAP1 PUSH1 0x20 PUSH1 0x64 SWAP3 MLOAD SWAP2 PUSH3 0x461BCD PUSH1 0xE5 SHL DUP4 MSTORE DUP3 ADD MSTORE PUSH1 0x20 PUSH1 0x24 DUP3 ADD MSTORE PUSH32 0x526566657272616C53797374656D3A20616C7265616479207265666572726564 PUSH1 0x44 DUP3 ADD MSTORE REVERT JUMPDEST SWAP1 PUSH1 0x20 PUSH1 0x64 SWAP3 MLOAD SWAP2 PUSH3 0x461BCD PUSH1 0xE5 SHL DUP4 MSTORE DUP3 ADD MSTORE PUSH1 0x1D PUSH1 0x24 DUP3 ADD MSTORE PUSH32 0x526566657272616C53797374656D3A2073656C662D726566657272616C000000 PUSH1 0x44 DUP3 ADD MSTORE REVERT JUMPDEST SWAP1 PUSH1 0x20 PUSH1 0x64 SWAP3 MLOAD SWAP2 PUSH3 0x461BCD PUSH1 0xE5 SHL DUP4 MSTORE DUP3 ADD MSTORE PUSH1 0x1D PUSH1 0x24 DUP3 ADD MSTORE PUSH32 0x526566657272616C53797374656D3A207A65726F207265666572726572000000 PUSH1 0x44 DUP3 ADD MSTORE REVERT JUMPDEST DUP5 MLOAD PUSH3 0x461BCD PUSH1 0xE5 SHL DUP2 MSTORE PUSH1 0x20 DUP2 DUP5 ADD MSTORE PUSH1 0x1C PUSH1 0x24 DUP3 ADD MSTORE PUSH32 0x526566657272616C53797374656D3A207A65726F207265666572656500000000 PUSH1 0x44 DUP3 ADD MSTORE PUSH1 0x64 SWAP1 REVERT JUMPDEST POP SWAP1 CALLVALUE PUSH2 0x1B8 JUMPI PUSH1 0x20 CALLDATASIZE PUSH1 0x3 NOT ADD SLT PUSH2 0x1B8 JUMPI PUSH1 0x20 SWAP2 PUSH1 0x1 PUSH1 0x1 PUSH1 0xA0 SHL SUB SWAP1 DUP3 SWAP1 DUP3 PUSH2 0x773 PUSH2 0xAF0 JUMP JUMPDEST AND DUP2 MSTORE PUSH1 0x3 DUP6 MSTORE KECCAK256 SLOAD AND SWAP1 MLOAD SWAP1 DUP2 MSTORE RETURN JUMPDEST POP SWAP1 CALLVALUE PUSH2 0x1B8 JUMPI DUP1 PUSH1 0x3 NOT CALLDATASIZE ADD SLT PUSH2 0x1B8 JUMPI PUSH2 0x79E PUSH2 0xB0B JUMP JUMPDEST SWAP1 CALLER PUSH1 0x1 PUSH1 0x1 PUSH1 0xA0 SHL SUB DUP4 AND SUB PUSH2 0x7BB JUMPI POP PUSH2 0x3FF SWAP2 SWAP3 CALLDATALOAD PUSH2 0xD91 JUMP JUMPDEST MLOAD PUSH4 0x334BD919 PUSH1 0xE1 SHL DUP2 MSTORE DUP4 SWAP1 REVERT JUMPDEST POP DUP3 SWAP1 CALLVALUE PUSH2 0x17A JUMPI PUSH1 0x20 SWAP3 DUP4 PUSH1 0x3 NOT CALLDATASIZE ADD SLT PUSH2 0x1B8 JUMPI PUSH1 0x1 PUSH1 0x1 PUSH1 0xA0 SHL SUB SWAP4 DUP5 PUSH2 0x7F2 PUSH2 0xAF0 JUMP JUMPDEST AND DUP4 MSTORE DUP4 DUP2 MSTORE DUP2 DUP4 KECCAK256 SWAP3 DUP3 MLOAD SWAP3 DUP4 DUP4 DUP7 SLOAD SWAP2 DUP3 DUP2 MSTORE ADD SWAP1 DUP2 SWAP7 DUP5 MSTORE DUP5 DUP5 KECCAK256 SWAP1 DUP5 JUMPDEST DUP7 DUP3 DUP3 LT PUSH2 0x88C JUMPI POP POP POP POP DUP5 SWAP1 SUB PUSH1 0x1F ADD PUSH1 0x1F NOT AND DUP5 ADD SWAP6 PUSH8 0xFFFFFFFFFFFFFFFF DUP8 GT DUP6 DUP9 LT OR PUSH2 0x879 JUMPI POP DUP6 DUP2 MSTORE DUP3 DUP7 MSTORE SWAP3 MLOAD DUP3 DUP7 ADD DUP2 SWAP1 MSTORE SWAP3 DUP6 ADD SWAP4 SWAP3 SWAP2 SWAP1 JUMPDEST DUP3 DUP2 LT PUSH2 0x863 JUMPI DUP6 DUP6 SUB DUP7 RETURN JUMPDEST DUP4 MLOAD DUP8 AND DUP6 MSTORE SWAP4 DUP2 ADD SWAP4 SWAP3 DUP2 ADD SWAP3 PUSH1 0x1 ADD PUSH2 0x856 JUMP JUMPDEST PUSH4 0x4E487B71 PUSH1 0xE0 SHL DUP4 MSTORE PUSH1 0x41 SWAP1 MSTORE PUSH1 0x24 DUP3 REVERT JUMPDEST DUP4 SLOAD DUP13 AND DUP6 MSTORE SWAP1 SWAP4 ADD SWAP3 PUSH1 0x1 SWAP3 DUP4 ADD SWAP3 ADD PUSH2 0x813 JUMP JUMPDEST POP SWAP2 SWAP1 CALLVALUE PUSH2 0x403 JUMPI DUP1 PUSH1 0x3 NOT CALLDATASIZE ADD SLT PUSH2 0x403 JUMPI PUSH2 0x3FF SWAP2 CALLDATALOAD PUSH2 0x8C7 PUSH1 0x1 PUSH2 0x3E9 PUSH2 0xB0B JUMP JUMPDEST PUSH2 0xD13 JUMP JUMPDEST POP SWAP2 CALLVALUE PUSH2 0x403 JUMPI PUSH1 0x20 CALLDATASIZE PUSH1 0x3 NOT ADD SLT PUSH2 0x403 JUMPI PUSH1 0x20 SWAP3 DUP3 SWAP2 PUSH1 0x1 PUSH1 0x1 PUSH1 0xA0 SHL SUB PUSH2 0x8F4 PUSH2 0xAF0 JUMP JUMPDEST AND DUP3 MSTORE DUP5 MSTORE KECCAK256 SLOAD SWAP1 MLOAD SWAP1 DUP2 MSTORE RETURN JUMPDEST POP SWAP2 CALLVALUE PUSH2 0x403 JUMPI PUSH1 0x20 CALLDATASIZE PUSH1 0x3 NOT ADD SLT PUSH2 0x403 JUMPI DUP2 PUSH1 0x20 SWAP4 PUSH1 0x1 SWAP3 CALLDATALOAD DUP2 MSTORE DUP1 DUP6 MSTORE KECCAK256 ADD SLOAD SWAP1 MLOAD SWAP1 DUP2 MSTORE RETURN JUMPDEST POP SWAP2 CALLVALUE PUSH2 0x403 JUMPI PUSH1 0x20 CALLDATASIZE PUSH1 0x3 NOT ADD SLT PUSH2 0x403 JUMPI PUSH1 0x1 PUSH1 0x1 PUSH1 0xA0 SHL SUB DUP1 PUSH2 0x950 PUSH2 0xAF0 JUMP JUMPDEST AND DUP5 MSTORE PUSH1 0x3 PUSH1 0x20 MSTORE DUP3 DUP5 KECCAK256 SWAP2 DUP4 MLOAD SWAP5 PUSH1 0x80 DUP7 ADD SWAP2 DUP7 DUP4 LT PUSH8 0xFFFFFFFFFFFFFFFF DUP5 GT OR PUSH2 0x9CF JUMPI POP POP DUP4 MSTORE DUP2 SLOAD AND DUP1 DUP5 MSTORE PUSH1 0x1 DUP3 ADD SLOAD PUSH1 0x20 DUP1 DUP7 ADD DUP3 SWAP1 MSTORE PUSH1 0x2 DUP5 ADD SLOAD DUP7 DUP7 ADD DUP2 SWAP1 MSTORE PUSH1 0x3 SWAP1 SWAP5 ADD SLOAD PUSH1 0xFF AND ISZERO ISZERO PUSH1 0x60 SWAP7 DUP8 ADD DUP2 SWAP1 MSTORE SWAP5 MLOAD PUSH1 0x1 PUSH1 0x1 PUSH1 0xA0 SHL SUB SWAP1 SWAP4 AND DUP4 MSTORE DUP3 ADD MSTORE PUSH1 0x40 DUP2 ADD SWAP2 SWAP1 SWAP2 MSTORE SWAP2 DUP3 ADD MSTORE PUSH1 0x80 SWAP1 RETURN JUMPDEST PUSH4 0x4E487B71 PUSH1 0xE0 SHL DUP3 MSTORE PUSH1 0x41 SWAP1 MSTORE PUSH1 0x24 SWAP1 REVERT JUMPDEST POP SWAP1 CALLVALUE PUSH2 0x1B8 JUMPI DUP2 PUSH1 0x3 NOT CALLDATASIZE ADD SLT PUSH2 0x1B8 JUMPI PUSH1 0x20 SWAP1 PUSH1 0x5 SLOAD SWAP1 MLOAD SWAP1 DUP2 MSTORE RETURN JUMPDEST POP SWAP1 CALLVALUE PUSH2 0x1B8 JUMPI PUSH1 0x20 CALLDATASIZE PUSH1 0x3 NOT ADD SLT PUSH2 0x1B8 JUMPI PUSH1 0x20 SWAP2 PUSH1 0xFF SWAP1 PUSH1 0x3 SWAP1 DUP4 SWAP1 PUSH1 0x1 PUSH1 0x1 PUSH1 0xA0 SHL SUB PUSH2 0xA2F PUSH2 0xAF0 JUMP JUMPDEST AND DUP2 MSTORE DUP3 DUP7 MSTORE KECCAK256 ADD SLOAD AND SWAP1 MLOAD SWAP1 ISZERO ISZERO DUP2 MSTORE RETURN JUMPDEST POP SWAP1 CALLVALUE PUSH2 0x1B8 JUMPI DUP2 PUSH1 0x3 NOT CALLDATASIZE ADD SLT PUSH2 0x1B8 JUMPI PUSH1 0x20 SWAP1 MLOAD PUSH32 0xDB9284895A7211BFD1C970298A1ED435786C5E0CD6EC4810E5F98B0AC05F4634 DUP2 MSTORE RETURN JUMPDEST POP SWAP1 CALLVALUE PUSH2 0x1B8 JUMPI DUP2 PUSH1 0x3 NOT CALLDATASIZE ADD SLT PUSH2 0x1B8 JUMPI PUSH1 0x20 SWAP1 PUSH1 0x1 SLOAD SWAP1 MLOAD SWAP1 DUP2 MSTORE RETURN JUMPDEST SWAP1 POP DUP4 CALLVALUE PUSH2 0x403 JUMPI PUSH1 0x20 CALLDATASIZE PUSH1 0x3 NOT ADD SLT PUSH2 0x403 JUMPI CALLDATALOAD PUSH4 0xFFFFFFFF PUSH1 0xE0 SHL DUP2 AND DUP1 SWAP2 SUB PUSH2 0x403 JUMPI PUSH1 0x20 SWAP3 POP PUSH4 0x7965DB0B PUSH1 0xE0 SHL DUP2 EQ SWAP1 DUP2 ISZERO PUSH2 0xADF JUMPI JUMPDEST POP ISZERO ISZERO DUP2 MSTORE RETURN JUMPDEST PUSH4 0x1FFC9A7 PUSH1 0xE0 SHL EQ SWAP1 POP DUP4 PUSH2 0xAD8 JUMP JUMPDEST PUSH1 0x4 CALLDATALOAD SWAP1 PUSH1 0x1 PUSH1 0x1 PUSH1 0xA0 SHL SUB DUP3 AND DUP3 SUB PUSH2 0xB06 JUMPI JUMP JUMPDEST PUSH1 0x0 DUP1 REVERT JUMPDEST PUSH1 0x24 CALLDATALOAD SWAP1 PUSH1 0x1 PUSH1 0x1 PUSH1 0xA0 SHL SUB DUP3 AND DUP3 SUB PUSH2 0xB06 JUMPI JUMP JUMPDEST DUP1 SLOAD DUP3 LT ISZERO PUSH2 0xB39 JUMPI PUSH1 0x0 MSTORE PUSH1 0x20 PUSH1 0x0 KECCAK256 ADD SWAP1 PUSH1 0x0 SWAP1 JUMP JUMPDEST PUSH4 0x4E487B71 PUSH1 0xE0 SHL PUSH1 0x0 MSTORE PUSH1 0x32 PUSH1 0x4 MSTORE PUSH1 0x24 PUSH1 0x0 REVERT JUMPDEST PUSH1 0x0 NOT DUP2 EQ PUSH2 0xB5E JUMPI PUSH1 0x1 ADD SWAP1 JUMP JUMPDEST PUSH4 0x4E487B71 PUSH1 0xE0 SHL PUSH1 0x0 MSTORE PUSH1 0x11 PUSH1 0x4 MSTORE PUSH1 0x24 PUSH1 0x0 REVERT JUMPDEST DUP2 DUP2 MUL SWAP3 SWAP2 DUP2 ISZERO SWAP2 DUP5 DIV EQ OR ISZERO PUSH2 0xB5E JUMPI JUMP JUMPDEST SWAP2 SWAP1 DUP3 ADD DUP1 SWAP3 GT PUSH2 0xB5E JUMPI JUMP JUMPDEST SWAP1 SWAP2 PUSH1 0x1 DUP1 PUSH1 0xA0 SHL SUB DUP1 SWAP3 AND PUSH1 0x0 SWAP3 DUP2 DUP5 MSTORE PUSH1 0x3 PUSH1 0x20 MSTORE PUSH1 0x40 DUP5 KECCAK256 PUSH1 0xFF PUSH1 0x3 DUP3 ADD SLOAD AND ISZERO PUSH2 0xC68 JUMPI SLOAD AND DUP1 SWAP2 PUSH32 0x97A731CE2AF675E0A2502525558D9BDB33CB114EFCF7E9C0AE4C86A36058DD5A PUSH1 0x60 PUSH2 0x2710 SWAP8 PUSH1 0x2 PUSH1 0x40 DUP11 PUSH2 0xBF8 PUSH1 0x1 SLOAD DUP6 PUSH2 0xB74 JUMP JUMPDEST DIV SWAP11 PUSH2 0xC05 DUP4 SLOAD DUP6 PUSH2 0xB74 JUMP JUMPDEST DIV SWAP10 DUP8 DUP2 MSTORE PUSH1 0x3 PUSH1 0x20 MSTORE PUSH1 0x1 DUP3 DUP3 KECCAK256 ADD PUSH2 0xC1F DUP2 SLOAD PUSH2 0xB4F JUMP JUMPDEST SWAP1 SSTORE DUP8 DUP2 MSTORE PUSH1 0x3 PUSH1 0x20 MSTORE KECCAK256 ADD PUSH2 0xC36 DUP11 DUP3 SLOAD PUSH2 0xB87 JUMP JUMPDEST SWAP1 SSTORE PUSH2 0xC4D PUSH2 0xC45 DUP10 DUP12 PUSH2 0xB87 JUMP JUMPDEST PUSH1 0x6 SLOAD PUSH2 0xB87 JUMP JUMPDEST PUSH1 0x6 SSTORE PUSH1 0x40 MLOAD SWAP1 DUP2 MSTORE DUP9 PUSH1 0x20 DUP3 ADD MSTORE DUP8 PUSH1 0x40 DUP3 ADD MSTORE LOG3 SWAP3 SWAP2 SWAP1 JUMP JUMPDEST POP POP POP SWAP2 POP DUP1 SWAP2 DUP2 SWAP1 JUMP JUMPDEST CALLER PUSH1 0x0 SWAP1 DUP2 MSTORE PUSH32 0x309885961C5C462E01D0F6CB432454EB474F04FA3318496F3172F0DECFA9B437 PUSH1 0x20 MSTORE PUSH1 0x40 SWAP1 KECCAK256 SLOAD PUSH32 0xDB9284895A7211BFD1C970298A1ED435786C5E0CD6EC4810E5F98B0AC05F4634 SWAP1 PUSH1 0xFF AND ISZERO PUSH2 0xCCF JUMPI POP JUMP JUMPDEST PUSH1 0x44 SWAP1 PUSH1 0x40 MLOAD SWAP1 PUSH4 0xE2517D3F PUSH1 0xE0 SHL DUP3 MSTORE CALLER PUSH1 0x4 DUP4 ADD MSTORE PUSH1 0x24 DUP3 ADD MSTORE REVERT JUMPDEST DUP1 PUSH1 0x0 MSTORE PUSH1 0x0 PUSH1 0x20 MSTORE PUSH1 0x40 PUSH1 0x0 KECCAK256 CALLER PUSH1 0x0 MSTORE PUSH1 0x20 MSTORE PUSH1 0xFF PUSH1 0x40 PUSH1 0x0 KECCAK256 SLOAD AND ISZERO PUSH2 0xCCF JUMPI POP JUMP JUMPDEST SWAP1 PUSH1 0x0 SWAP2 DUP1 DUP4 MSTORE DUP3 PUSH1 0x20 MSTORE PUSH1 0x40 DUP4 KECCAK256 SWAP2 PUSH1 0x1 DUP1 PUSH1 0xA0 SHL SUB AND SWAP2 DUP3 DUP5 MSTORE PUSH1 0x20 MSTORE PUSH1 0xFF PUSH1 0x40 DUP5 KECCAK256 SLOAD AND ISZERO PUSH1 0x0 EQ PUSH2 0xD8C JUMPI DUP1 DUP4 MSTORE DUP3 PUSH1 0x20 MSTORE PUSH1 0x40 DUP4 KECCAK256 DUP3 DUP5 MSTORE PUSH1 0x20 MSTORE PUSH1 0x40 DUP4 KECCAK256 PUSH1 0x1 PUSH1 0xFF NOT DUP3 SLOAD AND OR SWAP1 SSTORE PUSH32 0x2F8788117E7EFF1D82E926EC794901D17C78024A50270940304540A733656F0D CALLER SWAP4 DUP1 LOG4 PUSH1 0x1 SWAP1 JUMP JUMPDEST POP POP SWAP1 JUMP JUMPDEST SWAP1 PUSH1 0x0 SWAP2 DUP1 DUP4 MSTORE DUP3 PUSH1 0x20 MSTORE PUSH1 0x40 DUP4 KECCAK256 SWAP2 PUSH1 0x1 DUP1 PUSH1 0xA0 SHL SUB AND SWAP2 DUP3 DUP5 MSTORE PUSH1 0x20 MSTORE PUSH1 0xFF PUSH1 0x40 DUP5 KECCAK256 SLOAD AND PUSH1 0x0 EQ PUSH2 0xD8C JUMPI DUP1 DUP4 MSTORE DUP3 PUSH1 0x20 MSTORE PUSH1 0x40 DUP4 KECCAK256 DUP3 DUP5 MSTORE PUSH1 0x20 MSTORE PUSH1 0x40 DUP4 KECCAK256 PUSH1 0xFF NOT DUP2 SLOAD AND SWAP1 SSTORE PUSH32 0xF6391F5C32D9C69D2A47EA670B442974B53935D1EDC7FD64EB21E047A839171B CALLER SWAP4 DUP1 LOG4 PUSH1 0x1 SWAP1 JUMP INVALID LOG2 PUSH5 0x6970667358 0x22 SLT KECCAK256 BLOBBASEFEE SWAP1 0xBB 0xF7 ADD EQ 0xB6 0xAE 0xEB 0xD7 0xD1 0xC5 DUP11 DUP7 PUSH17 0x9D035B0359633027604529471F6C92A0AA PUSH5 0x736F6C6343 STOP ADDMOD XOR STOP CALLER 0x2F DUP8 DUP9 GT PUSH31 0x7EFF1D82E926EC794901D17C78024A50270940304540A733656F0D00000000 "},"methodIdentifiers":{"DEFAULT_ADMIN_ROLE()":"a217fddf","REFERRAL_ADMIN_ROLE()":"e23828dc","SALE_ROUND_ROLE()":"0b90fca1","calculateReferralBonus(address,uint256)":"d8abfee5","getReferralCount(address)":"24acbd69","getReferralStats(address)":"21bade13","getReferredUsers(address)":"32e5b6d8","getReferrer(address)":"4a9fefc7","getRoleAdmin(bytes32)":"248a9ca3","grantRole(bytes32,address)":"2f2ff15d","hasReferrer(address)":"18452cd8","hasRole(bytes32,address)":"91d14854","refereeBonusBps()":"8d736ed3","referralData(address)":"c9c6b556","referredUsers(address,uint256)":"e92820e6","referrerBonusBps()":"067fda6b","registerReferral(address,address)":"5603b9f9","renounceRole(bytes32,address)":"36568abe","revokeRole(bytes32,address)":"d547741f","supportsInterface(bytes4)":"01ffc9a7","totalBonusDistributed()":"ab11417f","totalReferrals()":"196f4914","updateBonusPercentages(uint256,uint256)":"deb3269f"}}}}}