{"src/RateLimiter.sol":{"RateLimiter":{"abi":[{"inputs":[{"internalType":"address","name":"admin","type":"address"}],"stateMutability":"nonpayable","type":"constructor"},{"inputs":[],"name":"AccessControlBadConfirmation","type":"error"},{"inputs":[{"internalType":"address","name":"account","type":"address"},{"internalType":"bytes32","name":"neededRole","type":"bytes32"}],"name":"AccessControlUnauthorizedAccount","type":"error"},{"anonymous":false,"inputs":[{"indexed":false,"internalType":"uint256","name":"maxDailySpendingUSD","type":"uint256"}],"name":"DailySpendingLimitUpdated","type":"event"},{"anonymous":false,"inputs":[{"indexed":true,"internalType":"address","name":"account","type":"address"}],"name":"LimitReset","type":"event"},{"anonymous":false,"inputs":[{"indexed":true,"internalType":"address","name":"account","type":"address"},{"indexed":false,"internalType":"string","name":"reason","type":"string"}],"name":"RateLimitExceeded","type":"event"},{"anonymous":false,"inputs":[{"indexed":false,"internalType":"uint256","name":"minTimeBetweenTx","type":"uint256"},{"indexed":false,"internalType":"uint256","name":"maxTxPerPeriod","type":"uint256"},{"indexed":false,"internalType":"uint256","name":"period","type":"uint256"}],"name":"RateLimitUpdated","type":"event"},{"anonymous":false,"inputs":[{"indexed":true,"internalType":"bytes32","name":"role","type":"bytes32"},{"indexed":true,"internalType":"bytes32","name":"previousAdminRole","type":"bytes32"},{"indexed":true,"internalType":"bytes32","name":"newAdminRole","type":"bytes32"}],"name":"RoleAdminChanged","type":"event"},{"anonymous":false,"inputs":[{"indexed":true,"internalType":"bytes32","name":"role","type":"bytes32"},{"indexed":true,"internalType":"address","name":"account","type":"address"},{"indexed":true,"internalType":"address","name":"sender","type":"address"}],"name":"RoleGranted","type":"event"},{"anonymous":false,"inputs":[{"indexed":true,"internalType":"bytes32","name":"role","type":"bytes32"},{"indexed":true,"internalType":"address","name":"account","type":"address"},{"indexed":true,"internalType":"address","name":"sender","type":"address"}],"name":"RoleRevoked","type":"event"},{"inputs":[],"name":"DEFAULT_ADMIN_ROLE","outputs":[{"internalType":"bytes32","name":"","type":"bytes32"}],"stateMutability":"view","type":"function"},{"inputs":[],"name":"RATE_ADMIN_ROLE","outputs":[{"internalType":"bytes32","name":"","type":"bytes32"}],"stateMutability":"view","type":"function"},{"inputs":[],"name":"SALE_ROUND_ROLE","outputs":[{"internalType":"bytes32","name":"","type":"bytes32"}],"stateMutability":"view","type":"function"},{"inputs":[{"internalType":"address","name":"account","type":"address"},{"internalType":"uint256","name":"usdAmount","type":"uint256"}],"name":"checkAndUpdateLimit","outputs":[],"stateMutability":"nonpayable","type":"function"},{"inputs":[{"internalType":"address","name":"account","type":"address"}],"name":"getRateLimitInfo","outputs":[{"internalType":"uint256","name":"lastTxTime","type":"uint256"},{"internalType":"uint256","name":"txCount","type":"uint256"},{"internalType":"uint256","name":"periodStart","type":"uint256"},{"internalType":"uint256","name":"dailySpentUSD","type":"uint256"},{"internalType":"uint256","name":"dailyPeriodStart","type":"uint256"}],"stateMutability":"view","type":"function"},{"inputs":[{"internalType":"bytes32","name":"role","type":"bytes32"}],"name":"getRoleAdmin","outputs":[{"internalType":"bytes32","name":"","type":"bytes32"}],"stateMutability":"view","type":"function"},{"inputs":[{"internalType":"bytes32","name":"role","type":"bytes32"},{"internalType":"address","name":"account","type":"address"}],"name":"grantRole","outputs":[],"stateMutability":"nonpayable","type":"function"},{"inputs":[{"internalType":"bytes32","name":"role","type":"bytes32"},{"internalType":"address","name":"account","type":"address"}],"name":"hasRole","outputs":[{"internalType":"bool","name":"","type":"bool"}],"stateMutability":"view","type":"function"},{"inputs":[],"name":"maxDailySpendingUSD","outputs":[{"internalType":"uint256","name":"","type":"uint256"}],"stateMutability":"view","type":"function"},{"inputs":[],"name":"maxTxPerPeriod","outputs":[{"internalType":"uint256","name":"","type":"uint256"}],"stateMutability":"view","type":"function"},{"inputs":[],"name":"minTimeBetweenTx","outputs":[{"internalType":"uint256","name":"","type":"uint256"}],"stateMutability":"view","type":"function"},{"inputs":[],"name":"period","outputs":[{"internalType":"uint256","name":"","type":"uint256"}],"stateMutability":"view","type":"function"},{"inputs":[{"internalType":"bytes32","name":"role","type":"bytes32"},{"internalType":"address","name":"callerConfirmation","type":"address"}],"name":"renounceRole","outputs":[],"stateMutability":"nonpayable","type":"function"},{"inputs":[{"internalType":"address","name":"account","type":"address"}],"name":"resetLimit","outputs":[],"stateMutability":"nonpayable","type":"function"},{"inputs":[{"internalType":"bytes32","name":"role","type":"bytes32"},{"internalType":"address","name":"account","type":"address"}],"name":"revokeRole","outputs":[],"stateMutability":"nonpayable","type":"function"},{"inputs":[{"internalType":"bytes4","name":"interfaceId","type":"bytes4"}],"name":"supportsInterface","outputs":[{"internalType":"bool","name":"","type":"bool"}],"stateMutability":"view","type":"function"},{"inputs":[{"internalType":"uint256","name":"_maxDailySpendingUSD","type":"uint256"}],"name":"updateDailySpendingLimit","outputs":[],"stateMutability":"nonpayable","type":"function"},{"inputs":[{"internalType":"uint256","name":"_minTimeBetweenTx","type":"uint256"},{"internalType":"uint256","name":"_maxTxPerPeriod","type":"uint256"},{"internalType":"uint256","name":"_period","type":"uint256"}],"name":"updateRateLimitConfig","outputs":[],"stateMutability":"nonpayable","type":"function"}],"evm":{"bytecode":{"linkReferences":{},"object":"6080346100d657601f610e0038819003918201601f19168301916001600160401b038311848410176100db578084926020946040528339810103126100d657516001600160a01b0381168082036100d657601e600255600a60035562015180600455631dcd650060055515610091578061007b610081926100f1565b5061016f565b50604051610bd090816102108239f35b60405162461bcd60e51b815260206004820152601960248201527f526174654c696d697465723a207a65726f2061646472657373000000000000006044820152606490fd5b600080fd5b634e487b7160e01b600052604160045260246000fd5b6001600160a01b031660008181527fad3228b676f7d3cd4284a5443f17f1962b36e491b30a40b2405849e597ba5fb5602052604081205490919060ff1661016b57818052816020526040822081835260205260408220600160ff198254161790553391600080516020610de08339815191528180a4600190565b5090565b6001600160a01b031660008181527fd1cffbcb8677e3b29c52070b4a0633f7d94697ecef1ed61fbb165c4a58c54bd360205260408120549091907faf977a80e23262c8ff5f86cefbb6a4f6250c151974ee28fb039b0005ddf0d2cd9060ff1661020a57808352826020526040832082845260205260408320600160ff19825416179055600080516020610de0833981519152339380a4600190565b50509056fe6080604081815260048036101561001557600080fd5b600092833560e01c90816301ffc9a71461095f575080630b90fca1146109245780631372380114610905578063248a9ca3146108dc5780632f2ff15d146108b357806336568abe1461086c5780636222f79b1461072a5780638d64007c1461068057806391d148541461063b578063a217fddf14610620578063b3ad5c9c1461056e57838163ccc51804146104f957508063d547741f146104bb578063dfe444b014610480578063e35c9e241461014d578063ebefce0c1461012e578063ee48d6ef1461010b5763ef78d4fd146100eb57600080fd5b3461010757826003193601126101075760209250549051908152f35b8280fd5b50503461012a578160031936011261012a576020906005549051908152f35b5080fd5b50503461012a578160031936011261012a576020906002549051908152f35b5091903461012a578060031936011261012a576101686109ce565b9260248035917fdb9284895a7211bfd1c970298a1ed435786c5e0cd6ec4810e5f98b0ac05f463495868652602096868852858720338852885260ff868820541615610464575060018060a01b03169182865260018752848620916101d08354600254906109e4565b42106103e057600283016101e781548354906109e4565b4210156103d1575b5060018301928354986003548a101561033857828201805462015180810180911161032657421015610317575b50600382019788549661022f89896109e4565b6005541061026e57505050429055600019881461025d57505060016102589495960190556109e4565b905580f35b634e487b7160e01b87526011905285fd5b8560849383602a937fc639947fc836d7df88156de7f9ab8656c56065a1d73969fd9f657cf51b73305460608a9751858152601d868201527f4461696c79207370656e64696e67206c696d697420657863656564656400000085820152a25162461bcd60e51b8152938401528201527f526174654c696d697465723a206461696c79207370656e64696e67206c696d696044820152691d08195e18d95959195960b21b6064820152fd5b4290558860038301553861021c565b634e487b7160e01b8b5260118552858bfd5b826022856084938b8a7fc639947fc836d7df88156de7f9ab8656c56065a1d73969fd9f657cf51b733054606083518581526015868201527414195c9a5bd9081b1a5b5a5d08195e18d959591959605a1b85820152a25162461bcd60e51b8152938401528201527f526174654c696d697465723a20706572696f64206c696d697420657863656564604482015261195960f21b6064820152fd5b429055866001840155386101ef565b60196064928988877fc639947fc836d7df88156de7f9ab8656c56065a1d73969fd9f657cf51b73305460608351858152600c868201526b151bdbc8199c995c5d595b9d60a21b85820152a25162461bcd60e51b8152938401528201527f526174654c696d697465723a20746f6f206672657175656e74000000000000006044820152fd5b905060449285519263e2517d3f60e01b84523390840152820152fd5b50503461012a578160031936011261012a57602090517faf977a80e23262c8ff5f86cefbb6a4f6250c151974ee28fb039b0005ddf0d2cd8152f35b5090346101075780600319360112610107576104f591356104f060016104df6109b3565b938387528660205286200154610a81565b610b25565b5080f35b9190503461012a57602036600319011261012a576105156109ce565b61051d610a07565b60018060a01b0316928383526001602052822082815582600182015582600282015582600382015501557fe8f74cba1bb73341afa43a5e5822294322161afaddee159514d739235577da828280a280f35b5091903461012a57602036600319011261012a576001600160a01b036105926109ce565b16825260016020528082209080519260a084019084821067ffffffffffffffff83111761060d5750938160a09560809493528254948581526001840154908160208201526002850154938484830152600386015495866060840152015495869101528151958652602086015284015260608301526080820152f35b634e487b7160e01b815260418652602490fd5b50503461012a578160031936011261012a5751908152602090f35b50346101075781600319360112610107578160209360ff9261065b6109b3565b903582528186528282206001600160a01b039091168252855220549151911615158152f35b5090346101075760203660031901126101075781359161069e610a07565b82156106d65750816020917f88228e4213dc2d7be193321e06c08c2567de9b96589dc06c0da614cecf2cbea59360055551908152a180f35b6020608492519162461bcd60e51b8352820152602960248201527f526174654c696d697465723a20696e76616c6964206461696c79207370656e646044820152681a5b99c81b1a5b5a5d60ba1b6064820152fd5b5034610107576060366003190112610107578035916024356044359261074e610a07565b84156108295781156107e65783156107a35791839160609486947fb08dc25d6f70fb9b42325a265866d58941c3c44ce9a15af6977c63f048c03edc97600255826003555581519384526020840152820152a180f35b606490602084519162461bcd60e51b8352820152601b60248201527f526174654c696d697465723a20696e76616c696420706572696f6400000000006044820152fd5b606490602084519162461bcd60e51b8352820152601b60248201527f526174654c696d697465723a20696e76616c6964206d617820747800000000006044820152fd5b606490602084519162461bcd60e51b8352820152601d60248201527f526174654c696d697465723a20696e76616c6964206d696e2074696d650000006044820152fd5b5091903461012a578060031936011261012a576108876109b3565b90336001600160a01b038316036108a457506104f5919235610b25565b5163334bd91960e11b81528390fd5b5090346101075780600319360112610107576104f591356108d760016104df6109b3565b610aa7565b503461010757602036600319011261010757816020936001923581528085522001549051908152f35b50503461012a578160031936011261012a576020906003549051908152f35b50503461012a578160031936011261012a57602090517fdb9284895a7211bfd1c970298a1ed435786c5e0cd6ec4810e5f98b0ac05f46348152f35b92505034610107576020366003190112610107573563ffffffff60e01b81168091036101075760209250637965db0b60e01b81149081156109a2575b5015158152f35b6301ffc9a760e01b1490503861099b565b602435906001600160a01b03821682036109c957565b600080fd5b600435906001600160a01b03821682036109c957565b919082018092116109f157565b634e487b7160e01b600052601160045260246000fd5b3360009081527fd1cffbcb8677e3b29c52070b4a0633f7d94697ecef1ed61fbb165c4a58c54bd360205260409020547faf977a80e23262c8ff5f86cefbb6a4f6250c151974ee28fb039b0005ddf0d2cd9060ff1615610a635750565b6044906040519063e2517d3f60e01b82523360048301526024820152fd5b80600052600060205260406000203360005260205260ff6040600020541615610a635750565b9060009180835282602052604083209160018060a01b03169182845260205260ff60408420541615600014610b2057808352826020526040832082845260205260408320600160ff198254161790557f2f8788117e7eff1d82e926ec794901d17c78024a50270940304540a733656f0d339380a4600190565b505090565b9060009180835282602052604083209160018060a01b03169182845260205260ff604084205416600014610b205780835282602052604083208284526020526040832060ff1981541690557ff6391f5c32d9c69d2a47ea670b442974b53935d1edc7fd64eb21e047a839171b339380a460019056fea26469706673582212205a208caffc1dfb5e80ddb2058346fc5e01f3194942b1b9ee3ff53fbf1b94225c64736f6c634300081800332f8788117e7eff1d82e926ec794901d17c78024a50270940304540a733656f0d","opcodes":"PUSH1 0x80 CALLVALUE PUSH2 0xD6 JUMPI PUSH1 0x1F PUSH2 0xE00 CODESIZE DUP2 SWAP1 SUB SWAP2 DUP3 ADD PUSH1 0x1F NOT AND DUP4 ADD SWAP2 PUSH1 0x1 PUSH1 0x1 PUSH1 0x40 SHL SUB DUP4 GT DUP5 DUP5 LT OR PUSH2 0xDB JUMPI DUP1 DUP5 SWAP3 PUSH1 0x20 SWAP5 PUSH1 0x40 MSTORE DUP4 CODECOPY DUP2 ADD SUB SLT PUSH2 0xD6 JUMPI MLOAD PUSH1 0x1 PUSH1 0x1 PUSH1 0xA0 SHL SUB DUP2 AND DUP1 DUP3 SUB PUSH2 0xD6 JUMPI PUSH1 0x1E PUSH1 0x2 SSTORE PUSH1 0xA PUSH1 0x3 SSTORE PUSH3 0x15180 PUSH1 0x4 SSTORE PUSH4 0x1DCD6500 PUSH1 0x5 SSTORE ISZERO PUSH2 0x91 JUMPI DUP1 PUSH2 0x7B PUSH2 0x81 SWAP3 PUSH2 0xF1 JUMP JUMPDEST POP PUSH2 0x16F JUMP JUMPDEST POP PUSH1 0x40 MLOAD PUSH2 0xBD0 SWAP1 DUP2 PUSH2 0x210 DUP3 CODECOPY RETURN JUMPDEST PUSH1 0x40 MLOAD PUSH3 0x461BCD PUSH1 0xE5 SHL DUP2 MSTORE PUSH1 0x20 PUSH1 0x4 DUP3 ADD MSTORE PUSH1 0x19 PUSH1 0x24 DUP3 ADD MSTORE PUSH32 0x526174654C696D697465723A207A65726F206164647265737300000000000000 PUSH1 0x44 DUP3 ADD MSTORE PUSH1 0x64 SWAP1 REVERT JUMPDEST PUSH1 0x0 DUP1 REVERT JUMPDEST PUSH4 0x4E487B71 PUSH1 0xE0 SHL PUSH1 0x0 MSTORE PUSH1 0x41 PUSH1 0x4 MSTORE PUSH1 0x24 PUSH1 0x0 REVERT JUMPDEST PUSH1 0x1 PUSH1 0x1 PUSH1 0xA0 SHL SUB AND PUSH1 0x0 DUP2 DUP2 MSTORE PUSH32 0xAD3228B676F7D3CD4284A5443F17F1962B36E491B30A40B2405849E597BA5FB5 PUSH1 0x20 MSTORE PUSH1 0x40 DUP2 KECCAK256 SLOAD SWAP1 SWAP2 SWAP1 PUSH1 0xFF AND PUSH2 0x16B JUMPI DUP2 DUP1 MSTORE DUP2 PUSH1 0x20 MSTORE PUSH1 0x40 DUP3 KECCAK256 DUP2 DUP4 MSTORE PUSH1 0x20 MSTORE PUSH1 0x40 DUP3 KECCAK256 PUSH1 0x1 PUSH1 0xFF NOT DUP3 SLOAD AND OR SWAP1 SSTORE CALLER SWAP2 PUSH1 0x0 DUP1 MLOAD PUSH1 0x20 PUSH2 0xDE0 DUP4 CODECOPY DUP2 MLOAD SWAP2 MSTORE DUP2 DUP1 LOG4 PUSH1 0x1 SWAP1 JUMP JUMPDEST POP SWAP1 JUMP JUMPDEST PUSH1 0x1 PUSH1 0x1 PUSH1 0xA0 SHL SUB AND PUSH1 0x0 DUP2 DUP2 MSTORE PUSH32 0xD1CFFBCB8677E3B29C52070B4A0633F7D94697ECEF1ED61FBB165C4A58C54BD3 PUSH1 0x20 MSTORE PUSH1 0x40 DUP2 KECCAK256 SLOAD SWAP1 SWAP2 SWAP1 PUSH32 0xAF977A80E23262C8FF5F86CEFBB6A4F6250C151974EE28FB039B0005DDF0D2CD SWAP1 PUSH1 0xFF AND PUSH2 0x20A JUMPI DUP1 DUP4 MSTORE DUP3 PUSH1 0x20 MSTORE PUSH1 0x40 DUP4 KECCAK256 DUP3 DUP5 MSTORE PUSH1 0x20 MSTORE PUSH1 0x40 DUP4 KECCAK256 PUSH1 0x1 PUSH1 0xFF NOT DUP3 SLOAD AND OR SWAP1 SSTORE PUSH1 0x0 DUP1 MLOAD PUSH1 0x20 PUSH2 0xDE0 DUP4 CODECOPY DUP2 MLOAD SWAP2 MSTORE CALLER SWAP4 DUP1 LOG4 PUSH1 0x1 SWAP1 JUMP JUMPDEST POP POP SWAP1 JUMP INVALID PUSH1 0x80 PUSH1 0x40 DUP2 DUP2 MSTORE PUSH1 0x4 DUP1 CALLDATASIZE LT ISZERO PUSH2 0x15 JUMPI PUSH1 0x0 DUP1 REVERT JUMPDEST PUSH1 0x0 SWAP3 DUP4 CALLDATALOAD PUSH1 0xE0 SHR SWAP1 DUP2 PUSH4 0x1FFC9A7 EQ PUSH2 0x95F JUMPI POP DUP1 PUSH4 0xB90FCA1 EQ PUSH2 0x924 JUMPI DUP1 PUSH4 0x13723801 EQ PUSH2 0x905 JUMPI DUP1 PUSH4 0x248A9CA3 EQ PUSH2 0x8DC JUMPI DUP1 PUSH4 0x2F2FF15D EQ PUSH2 0x8B3 JUMPI DUP1 PUSH4 0x36568ABE EQ PUSH2 0x86C JUMPI DUP1 PUSH4 0x6222F79B EQ PUSH2 0x72A JUMPI DUP1 PUSH4 0x8D64007C EQ PUSH2 0x680 JUMPI DUP1 PUSH4 0x91D14854 EQ PUSH2 0x63B JUMPI DUP1 PUSH4 0xA217FDDF EQ PUSH2 0x620 JUMPI DUP1 PUSH4 0xB3AD5C9C EQ PUSH2 0x56E JUMPI DUP4 DUP2 PUSH4 0xCCC51804 EQ PUSH2 0x4F9 JUMPI POP DUP1 PUSH4 0xD547741F EQ PUSH2 0x4BB JUMPI DUP1 PUSH4 0xDFE444B0 EQ PUSH2 0x480 JUMPI DUP1 PUSH4 0xE35C9E24 EQ PUSH2 0x14D JUMPI DUP1 PUSH4 0xEBEFCE0C EQ PUSH2 0x12E JUMPI DUP1 PUSH4 0xEE48D6EF EQ PUSH2 0x10B JUMPI PUSH4 0xEF78D4FD EQ PUSH2 0xEB JUMPI PUSH1 0x0 DUP1 REVERT JUMPDEST CALLVALUE PUSH2 0x107 JUMPI DUP3 PUSH1 0x3 NOT CALLDATASIZE ADD SLT PUSH2 0x107 JUMPI PUSH1 0x20 SWAP3 POP SLOAD SWAP1 MLOAD SWAP1 DUP2 MSTORE RETURN JUMPDEST DUP3 DUP1 REVERT JUMPDEST POP POP CALLVALUE PUSH2 0x12A JUMPI DUP2 PUSH1 0x3 NOT CALLDATASIZE ADD SLT PUSH2 0x12A JUMPI PUSH1 0x20 SWAP1 PUSH1 0x5 SLOAD SWAP1 MLOAD SWAP1 DUP2 MSTORE RETURN JUMPDEST POP DUP1 REVERT JUMPDEST POP POP CALLVALUE PUSH2 0x12A JUMPI DUP2 PUSH1 0x3 NOT CALLDATASIZE ADD SLT PUSH2 0x12A JUMPI PUSH1 0x20 SWAP1 PUSH1 0x2 SLOAD SWAP1 MLOAD SWAP1 DUP2 MSTORE RETURN JUMPDEST POP SWAP2 SWAP1 CALLVALUE PUSH2 0x12A JUMPI DUP1 PUSH1 0x3 NOT CALLDATASIZE ADD SLT PUSH2 0x12A JUMPI PUSH2 0x168 PUSH2 0x9CE JUMP JUMPDEST SWAP3 PUSH1 0x24 DUP1 CALLDATALOAD SWAP2 PUSH32 0xDB9284895A7211BFD1C970298A1ED435786C5E0CD6EC4810E5F98B0AC05F4634 SWAP6 DUP7 DUP7 MSTORE PUSH1 0x20 SWAP7 DUP7 DUP9 MSTORE DUP6 DUP8 KECCAK256 CALLER DUP9 MSTORE DUP9 MSTORE PUSH1 0xFF DUP7 DUP9 KECCAK256 SLOAD AND ISZERO PUSH2 0x464 JUMPI POP PUSH1 0x1 DUP1 PUSH1 0xA0 SHL SUB AND SWAP2 DUP3 DUP7 MSTORE PUSH1 0x1 DUP8 MSTORE DUP5 DUP7 KECCAK256 SWAP2 PUSH2 0x1D0 DUP4 SLOAD PUSH1 0x2 SLOAD SWAP1 PUSH2 0x9E4 JUMP JUMPDEST TIMESTAMP LT PUSH2 0x3E0 JUMPI PUSH1 0x2 DUP4 ADD PUSH2 0x1E7 DUP2 SLOAD DUP4 SLOAD SWAP1 PUSH2 0x9E4 JUMP JUMPDEST TIMESTAMP LT ISZERO PUSH2 0x3D1 JUMPI JUMPDEST POP PUSH1 0x1 DUP4 ADD SWAP3 DUP4 SLOAD SWAP9 PUSH1 0x3 SLOAD DUP11 LT ISZERO PUSH2 0x338 JUMPI DUP3 DUP3 ADD DUP1 SLOAD PUSH3 0x15180 DUP2 ADD DUP1 SWAP2 GT PUSH2 0x326 JUMPI TIMESTAMP LT ISZERO PUSH2 0x317 JUMPI JUMPDEST POP PUSH1 0x3 DUP3 ADD SWAP8 DUP9 SLOAD SWAP7 PUSH2 0x22F DUP10 DUP10 PUSH2 0x9E4 JUMP JUMPDEST PUSH1 0x5 SLOAD LT PUSH2 0x26E JUMPI POP POP POP TIMESTAMP SWAP1 SSTORE PUSH1 0x0 NOT DUP9 EQ PUSH2 0x25D JUMPI POP POP PUSH1 0x1 PUSH2 0x258 SWAP5 SWAP6 SWAP7 ADD SWAP1 SSTORE PUSH2 0x9E4 JUMP JUMPDEST SWAP1 SSTORE DUP1 RETURN JUMPDEST PUSH4 0x4E487B71 PUSH1 0xE0 SHL DUP8 MSTORE PUSH1 0x11 SWAP1 MSTORE DUP6 REVERT JUMPDEST DUP6 PUSH1 0x84 SWAP4 DUP4 PUSH1 0x2A SWAP4 PUSH32 0xC639947FC836D7DF88156DE7F9AB8656C56065A1D73969FD9F657CF51B733054 PUSH1 0x60 DUP11 SWAP8 MLOAD DUP6 DUP2 MSTORE PUSH1 0x1D DUP7 DUP3 ADD MSTORE PUSH32 0x4461696C79207370656E64696E67206C696D6974206578636565646564000000 DUP6 DUP3 ADD MSTORE LOG2 MLOAD PUSH3 0x461BCD PUSH1 0xE5 SHL DUP2 MSTORE SWAP4 DUP5 ADD MSTORE DUP3 ADD MSTORE PUSH32 0x526174654C696D697465723A206461696C79207370656E64696E67206C696D69 PUSH1 0x44 DUP3 ADD MSTORE PUSH10 0x1D08195E18D959591959 PUSH1 0xB2 SHL PUSH1 0x64 DUP3 ADD MSTORE REVERT JUMPDEST TIMESTAMP SWAP1 SSTORE DUP9 PUSH1 0x3 DUP4 ADD SSTORE CODESIZE PUSH2 0x21C JUMP JUMPDEST PUSH4 0x4E487B71 PUSH1 0xE0 SHL DUP12 MSTORE PUSH1 0x11 DUP6 MSTORE DUP6 DUP12 REVERT JUMPDEST DUP3 PUSH1 0x22 DUP6 PUSH1 0x84 SWAP4 DUP12 DUP11 PUSH32 0xC639947FC836D7DF88156DE7F9AB8656C56065A1D73969FD9F657CF51B733054 PUSH1 0x60 DUP4 MLOAD DUP6 DUP2 MSTORE PUSH1 0x15 DUP7 DUP3 ADD MSTORE PUSH21 0x14195C9A5BD9081B1A5B5A5D08195E18D959591959 PUSH1 0x5A SHL DUP6 DUP3 ADD MSTORE LOG2 MLOAD PUSH3 0x461BCD PUSH1 0xE5 SHL DUP2 MSTORE SWAP4 DUP5 ADD MSTORE DUP3 ADD MSTORE PUSH32 0x526174654C696D697465723A20706572696F64206C696D697420657863656564 PUSH1 0x44 DUP3 ADD MSTORE PUSH2 0x1959 PUSH1 0xF2 SHL PUSH1 0x64 DUP3 ADD MSTORE REVERT JUMPDEST TIMESTAMP SWAP1 SSTORE DUP7 PUSH1 0x1 DUP5 ADD SSTORE CODESIZE PUSH2 0x1EF JUMP JUMPDEST PUSH1 0x19 PUSH1 0x64 SWAP3 DUP10 DUP9 DUP8 PUSH32 0xC639947FC836D7DF88156DE7F9AB8656C56065A1D73969FD9F657CF51B733054 PUSH1 0x60 DUP4 MLOAD DUP6 DUP2 MSTORE PUSH1 0xC DUP7 DUP3 ADD MSTORE PUSH12 0x151BDBC8199C995C5D595B9D PUSH1 0xA2 SHL DUP6 DUP3 ADD MSTORE LOG2 MLOAD PUSH3 0x461BCD PUSH1 0xE5 SHL DUP2 MSTORE SWAP4 DUP5 ADD MSTORE DUP3 ADD MSTORE PUSH32 0x526174654C696D697465723A20746F6F206672657175656E7400000000000000 PUSH1 0x44 DUP3 ADD MSTORE REVERT JUMPDEST SWAP1 POP PUSH1 0x44 SWAP3 DUP6 MLOAD SWAP3 PUSH4 0xE2517D3F PUSH1 0xE0 SHL DUP5 MSTORE CALLER SWAP1 DUP5 ADD MSTORE DUP3 ADD MSTORE REVERT JUMPDEST POP POP CALLVALUE PUSH2 0x12A JUMPI DUP2 PUSH1 0x3 NOT CALLDATASIZE ADD SLT PUSH2 0x12A JUMPI PUSH1 0x20 SWAP1 MLOAD PUSH32 0xAF977A80E23262C8FF5F86CEFBB6A4F6250C151974EE28FB039B0005DDF0D2CD DUP2 MSTORE RETURN JUMPDEST POP SWAP1 CALLVALUE PUSH2 0x107 JUMPI DUP1 PUSH1 0x3 NOT CALLDATASIZE ADD SLT PUSH2 0x107 JUMPI PUSH2 0x4F5 SWAP2 CALLDATALOAD PUSH2 0x4F0 PUSH1 0x1 PUSH2 0x4DF PUSH2 0x9B3 JUMP JUMPDEST SWAP4 DUP4 DUP8 MSTORE DUP7 PUSH1 0x20 MSTORE DUP7 KECCAK256 ADD SLOAD PUSH2 0xA81 JUMP JUMPDEST PUSH2 0xB25 JUMP JUMPDEST POP DUP1 RETURN JUMPDEST SWAP2 SWAP1 POP CALLVALUE PUSH2 0x12A JUMPI PUSH1 0x20 CALLDATASIZE PUSH1 0x3 NOT ADD SLT PUSH2 0x12A JUMPI PUSH2 0x515 PUSH2 0x9CE JUMP JUMPDEST PUSH2 0x51D PUSH2 0xA07 JUMP JUMPDEST PUSH1 0x1 DUP1 PUSH1 0xA0 SHL SUB AND SWAP3 DUP4 DUP4 MSTORE PUSH1 0x1 PUSH1 0x20 MSTORE DUP3 KECCAK256 DUP3 DUP2 SSTORE DUP3 PUSH1 0x1 DUP3 ADD SSTORE DUP3 PUSH1 0x2 DUP3 ADD SSTORE DUP3 PUSH1 0x3 DUP3 ADD SSTORE ADD SSTORE PUSH32 0xE8F74CBA1BB73341AFA43A5E5822294322161AFADDEE159514D739235577DA82 DUP3 DUP1 LOG2 DUP1 RETURN JUMPDEST POP SWAP2 SWAP1 CALLVALUE PUSH2 0x12A JUMPI PUSH1 0x20 CALLDATASIZE PUSH1 0x3 NOT ADD SLT PUSH2 0x12A JUMPI PUSH1 0x1 PUSH1 0x1 PUSH1 0xA0 SHL SUB PUSH2 0x592 PUSH2 0x9CE JUMP JUMPDEST AND DUP3 MSTORE PUSH1 0x1 PUSH1 0x20 MSTORE DUP1 DUP3 KECCAK256 SWAP1 DUP1 MLOAD SWAP3 PUSH1 0xA0 DUP5 ADD SWAP1 DUP5 DUP3 LT PUSH8 0xFFFFFFFFFFFFFFFF DUP4 GT OR PUSH2 0x60D JUMPI POP SWAP4 DUP2 PUSH1 0xA0 SWAP6 PUSH1 0x80 SWAP5 SWAP4 MSTORE DUP3 SLOAD SWAP5 DUP6 DUP2 MSTORE PUSH1 0x1 DUP5 ADD SLOAD SWAP1 DUP2 PUSH1 0x20 DUP3 ADD MSTORE PUSH1 0x2 DUP6 ADD SLOAD SWAP4 DUP5 DUP5 DUP4 ADD MSTORE PUSH1 0x3 DUP7 ADD SLOAD SWAP6 DUP7 PUSH1 0x60 DUP5 ADD MSTORE ADD SLOAD SWAP6 DUP7 SWAP2 ADD MSTORE DUP2 MLOAD SWAP6 DUP7 MSTORE PUSH1 0x20 DUP7 ADD MSTORE DUP5 ADD MSTORE PUSH1 0x60 DUP4 ADD MSTORE PUSH1 0x80 DUP3 ADD MSTORE RETURN JUMPDEST PUSH4 0x4E487B71 PUSH1 0xE0 SHL DUP2 MSTORE PUSH1 0x41 DUP7 MSTORE PUSH1 0x24 SWAP1 REVERT JUMPDEST POP POP CALLVALUE PUSH2 0x12A JUMPI DUP2 PUSH1 0x3 NOT CALLDATASIZE ADD SLT PUSH2 0x12A JUMPI MLOAD SWAP1 DUP2 MSTORE PUSH1 0x20 SWAP1 RETURN JUMPDEST POP CALLVALUE PUSH2 0x107 JUMPI DUP2 PUSH1 0x3 NOT CALLDATASIZE ADD SLT PUSH2 0x107 JUMPI DUP2 PUSH1 0x20 SWAP4 PUSH1 0xFF SWAP3 PUSH2 0x65B PUSH2 0x9B3 JUMP JUMPDEST SWAP1 CALLDATALOAD DUP3 MSTORE DUP2 DUP7 MSTORE DUP3 DUP3 KECCAK256 PUSH1 0x1 PUSH1 0x1 PUSH1 0xA0 SHL SUB SWAP1 SWAP2 AND DUP3 MSTORE DUP6 MSTORE KECCAK256 SLOAD SWAP2 MLOAD SWAP2 AND ISZERO ISZERO DUP2 MSTORE RETURN JUMPDEST POP SWAP1 CALLVALUE PUSH2 0x107 JUMPI PUSH1 0x20 CALLDATASIZE PUSH1 0x3 NOT ADD SLT PUSH2 0x107 JUMPI DUP2 CALLDATALOAD SWAP2 PUSH2 0x69E PUSH2 0xA07 JUMP JUMPDEST DUP3 ISZERO PUSH2 0x6D6 JUMPI POP DUP2 PUSH1 0x20 SWAP2 PUSH32 0x88228E4213DC2D7BE193321E06C08C2567DE9B96589DC06C0DA614CECF2CBEA5 SWAP4 PUSH1 0x5 SSTORE MLOAD SWAP1 DUP2 MSTORE LOG1 DUP1 RETURN JUMPDEST PUSH1 0x20 PUSH1 0x84 SWAP3 MLOAD SWAP2 PUSH3 0x461BCD PUSH1 0xE5 SHL DUP4 MSTORE DUP3 ADD MSTORE PUSH1 0x29 PUSH1 0x24 DUP3 ADD MSTORE PUSH32 0x526174654C696D697465723A20696E76616C6964206461696C79207370656E64 PUSH1 0x44 DUP3 ADD MSTORE PUSH9 0x1A5B99C81B1A5B5A5D PUSH1 0xBA SHL PUSH1 0x64 DUP3 ADD MSTORE REVERT JUMPDEST POP CALLVALUE PUSH2 0x107 JUMPI PUSH1 0x60 CALLDATASIZE PUSH1 0x3 NOT ADD SLT PUSH2 0x107 JUMPI DUP1 CALLDATALOAD SWAP2 PUSH1 0x24 CALLDATALOAD PUSH1 0x44 CALLDATALOAD SWAP3 PUSH2 0x74E PUSH2 0xA07 JUMP JUMPDEST DUP5 ISZERO PUSH2 0x829 JUMPI DUP2 ISZERO PUSH2 0x7E6 JUMPI DUP4 ISZERO PUSH2 0x7A3 JUMPI SWAP2 DUP4 SWAP2 PUSH1 0x60 SWAP5 DUP7 SWAP5 PUSH32 0xB08DC25D6F70FB9B42325A265866D58941C3C44CE9A15AF6977C63F048C03EDC SWAP8 PUSH1 0x2 SSTORE DUP3 PUSH1 0x3 SSTORE SSTORE DUP2 MLOAD SWAP4 DUP5 MSTORE PUSH1 0x20 DUP5 ADD MSTORE DUP3 ADD MSTORE LOG1 DUP1 RETURN JUMPDEST PUSH1 0x64 SWAP1 PUSH1 0x20 DUP5 MLOAD SWAP2 PUSH3 0x461BCD PUSH1 0xE5 SHL DUP4 MSTORE DUP3 ADD MSTORE PUSH1 0x1B PUSH1 0x24 DUP3 ADD MSTORE PUSH32 0x526174654C696D697465723A20696E76616C696420706572696F640000000000 PUSH1 0x44 DUP3 ADD MSTORE REVERT JUMPDEST PUSH1 0x64 SWAP1 PUSH1 0x20 DUP5 MLOAD SWAP2 PUSH3 0x461BCD PUSH1 0xE5 SHL DUP4 MSTORE DUP3 ADD MSTORE PUSH1 0x1B PUSH1 0x24 DUP3 ADD MSTORE PUSH32 0x526174654C696D697465723A20696E76616C6964206D61782074780000000000 PUSH1 0x44 DUP3 ADD MSTORE REVERT JUMPDEST PUSH1 0x64 SWAP1 PUSH1 0x20 DUP5 MLOAD SWAP2 PUSH3 0x461BCD PUSH1 0xE5 SHL DUP4 MSTORE DUP3 ADD MSTORE PUSH1 0x1D PUSH1 0x24 DUP3 ADD MSTORE PUSH32 0x526174654C696D697465723A20696E76616C6964206D696E2074696D65000000 PUSH1 0x44 DUP3 ADD MSTORE REVERT JUMPDEST POP SWAP2 SWAP1 CALLVALUE PUSH2 0x12A JUMPI DUP1 PUSH1 0x3 NOT CALLDATASIZE ADD SLT PUSH2 0x12A JUMPI PUSH2 0x887 PUSH2 0x9B3 JUMP JUMPDEST SWAP1 CALLER PUSH1 0x1 PUSH1 0x1 PUSH1 0xA0 SHL SUB DUP4 AND SUB PUSH2 0x8A4 JUMPI POP PUSH2 0x4F5 SWAP2 SWAP3 CALLDATALOAD PUSH2 0xB25 JUMP JUMPDEST MLOAD PUSH4 0x334BD919 PUSH1 0xE1 SHL DUP2 MSTORE DUP4 SWAP1 REVERT JUMPDEST POP SWAP1 CALLVALUE PUSH2 0x107 JUMPI DUP1 PUSH1 0x3 NOT CALLDATASIZE ADD SLT PUSH2 0x107 JUMPI PUSH2 0x4F5 SWAP2 CALLDATALOAD PUSH2 0x8D7 PUSH1 0x1 PUSH2 0x4DF PUSH2 0x9B3 JUMP JUMPDEST PUSH2 0xAA7 JUMP JUMPDEST POP CALLVALUE PUSH2 0x107 JUMPI PUSH1 0x20 CALLDATASIZE PUSH1 0x3 NOT ADD SLT PUSH2 0x107 JUMPI DUP2 PUSH1 0x20 SWAP4 PUSH1 0x1 SWAP3 CALLDATALOAD DUP2 MSTORE DUP1 DUP6 MSTORE KECCAK256 ADD SLOAD SWAP1 MLOAD SWAP1 DUP2 MSTORE RETURN JUMPDEST POP POP CALLVALUE PUSH2 0x12A JUMPI DUP2 PUSH1 0x3 NOT CALLDATASIZE ADD SLT PUSH2 0x12A JUMPI PUSH1 0x20 SWAP1 PUSH1 0x3 SLOAD SWAP1 MLOAD SWAP1 DUP2 MSTORE RETURN JUMPDEST POP POP CALLVALUE PUSH2 0x12A JUMPI DUP2 PUSH1 0x3 NOT CALLDATASIZE ADD SLT PUSH2 0x12A JUMPI PUSH1 0x20 SWAP1 MLOAD PUSH32 0xDB9284895A7211BFD1C970298A1ED435786C5E0CD6EC4810E5F98B0AC05F4634 DUP2 MSTORE RETURN JUMPDEST SWAP3 POP POP CALLVALUE PUSH2 0x107 JUMPI PUSH1 0x20 CALLDATASIZE PUSH1 0x3 NOT ADD SLT PUSH2 0x107 JUMPI CALLDATALOAD PUSH4 0xFFFFFFFF PUSH1 0xE0 SHL DUP2 AND DUP1 SWAP2 SUB PUSH2 0x107 JUMPI PUSH1 0x20 SWAP3 POP PUSH4 0x7965DB0B PUSH1 0xE0 SHL DUP2 EQ SWAP1 DUP2 ISZERO PUSH2 0x9A2 JUMPI JUMPDEST POP ISZERO ISZERO DUP2 MSTORE RETURN JUMPDEST PUSH4 0x1FFC9A7 PUSH1 0xE0 SHL EQ SWAP1 POP CODESIZE PUSH2 0x99B JUMP JUMPDEST PUSH1 0x24 CALLDATALOAD SWAP1 PUSH1 0x1 PUSH1 0x1 PUSH1 0xA0 SHL SUB DUP3 AND DUP3 SUB PUSH2 0x9C9 JUMPI JUMP JUMPDEST PUSH1 0x0 DUP1 REVERT JUMPDEST PUSH1 0x4 CALLDATALOAD SWAP1 PUSH1 0x1 PUSH1 0x1 PUSH1 0xA0 SHL SUB DUP3 AND DUP3 SUB PUSH2 0x9C9 JUMPI JUMP JUMPDEST SWAP2 SWAP1 DUP3 ADD DUP1 SWAP3 GT PUSH2 0x9F1 JUMPI JUMP JUMPDEST PUSH4 0x4E487B71 PUSH1 0xE0 SHL PUSH1 0x0 MSTORE PUSH1 0x11 PUSH1 0x4 MSTORE PUSH1 0x24 PUSH1 0x0 REVERT JUMPDEST CALLER PUSH1 0x0 SWAP1 DUP2 MSTORE PUSH32 0xD1CFFBCB8677E3B29C52070B4A0633F7D94697ECEF1ED61FBB165C4A58C54BD3 PUSH1 0x20 MSTORE PUSH1 0x40 SWAP1 KECCAK256 SLOAD PUSH32 0xAF977A80E23262C8FF5F86CEFBB6A4F6250C151974EE28FB039B0005DDF0D2CD SWAP1 PUSH1 0xFF AND ISZERO PUSH2 0xA63 JUMPI POP JUMP JUMPDEST PUSH1 0x44 SWAP1 PUSH1 0x40 MLOAD SWAP1 PUSH4 0xE2517D3F PUSH1 0xE0 SHL DUP3 MSTORE CALLER PUSH1 0x4 DUP4 ADD MSTORE PUSH1 0x24 DUP3 ADD MSTORE REVERT JUMPDEST DUP1 PUSH1 0x0 MSTORE PUSH1 0x0 PUSH1 0x20 MSTORE PUSH1 0x40 PUSH1 0x0 KECCAK256 CALLER PUSH1 0x0 MSTORE PUSH1 0x20 MSTORE PUSH1 0xFF PUSH1 0x40 PUSH1 0x0 KECCAK256 SLOAD AND ISZERO PUSH2 0xA63 JUMPI POP JUMP JUMPDEST SWAP1 PUSH1 0x0 SWAP2 DUP1 DUP4 MSTORE DUP3 PUSH1 0x20 MSTORE PUSH1 0x40 DUP4 KECCAK256 SWAP2 PUSH1 0x1 DUP1 PUSH1 0xA0 SHL SUB AND SWAP2 DUP3 DUP5 MSTORE PUSH1 0x20 MSTORE PUSH1 0xFF PUSH1 0x40 DUP5 KECCAK256 SLOAD AND ISZERO PUSH1 0x0 EQ PUSH2 0xB20 JUMPI DUP1 DUP4 MSTORE DUP3 PUSH1 0x20 MSTORE PUSH1 0x40 DUP4 KECCAK256 DUP3 DUP5 MSTORE PUSH1 0x20 MSTORE PUSH1 0x40 DUP4 KECCAK256 PUSH1 0x1 PUSH1 0xFF NOT DUP3 SLOAD AND OR SWAP1 SSTORE PUSH32 0x2F8788117E7EFF1D82E926EC794901D17C78024A50270940304540A733656F0D CALLER SWAP4 DUP1 LOG4 PUSH1 0x1 SWAP1 JUMP JUMPDEST POP POP SWAP1 JUMP JUMPDEST SWAP1 PUSH1 0x0 SWAP2 DUP1 DUP4 MSTORE DUP3 PUSH1 0x20 MSTORE PUSH1 0x40 DUP4 KECCAK256 SWAP2 PUSH1 0x1 DUP1 PUSH1 0xA0 SHL SUB AND SWAP2 DUP3 DUP5 MSTORE PUSH1 0x20 MSTORE PUSH1 0xFF PUSH1 0x40 DUP5 KECCAK256 SLOAD AND PUSH1 0x0 EQ PUSH2 0xB20 JUMPI DUP1 DUP4 MSTORE DUP3 PUSH1 0x20 MSTORE PUSH1 0x40 DUP4 KECCAK256 DUP3 DUP5 MSTORE PUSH1 0x20 MSTORE PUSH1 0x40 DUP4 KECCAK256 PUSH1 0xFF NOT DUP2 SLOAD AND SWAP1 SSTORE PUSH32 0xF6391F5C32D9C69D2A47EA670B442974B53935D1EDC7FD64EB21E047A839171B CALLER SWAP4 DUP1 LOG4 PUSH1 0x1 SWAP1 JUMP INVALID LOG2 PUSH5 0x6970667358 0x22 SLT KECCAK256 GAS KECCAK256 DUP13 0xAF 0xFC SAR 0xFB MCOPY DUP1 0xDD 0xB2 SDIV DUP4 CHAINID 0xFC MCOPY ADD RETURN NOT BLOBHASH TIMESTAMP 0xB1 0xB9 0xEE EXTCODEHASH CREATE2 EXTCODEHASH 0xBF SHL SWAP5 0x22 TLOAD PUSH5 0x736F6C6343 STOP ADDMOD XOR STOP CALLER 0x2F DUP8 DUP9 GT PUSH31 0x7EFF1D82E926EC794901D17C78024A50270940304540A733656F0D00000000 "},"methodIdentifiers":{"DEFAULT_ADMIN_ROLE()":"a217fddf","RATE_ADMIN_ROLE()":"dfe444b0","SALE_ROUND_ROLE()":"0b90fca1","checkAndUpdateLimit(address,uint256)":"e35c9e24","getRateLimitInfo(address)":"b3ad5c9c","getRoleAdmin(bytes32)":"248a9ca3","grantRole(bytes32,address)":"2f2ff15d","hasRole(bytes32,address)":"91d14854","maxDailySpendingUSD()":"ee48d6ef","maxTxPerPeriod()":"13723801","minTimeBetweenTx()":"ebefce0c","period()":"ef78d4fd","renounceRole(bytes32,address)":"36568abe","resetLimit(address)":"ccc51804","revokeRole(bytes32,address)":"d547741f","supportsInterface(bytes4)":"01ffc9a7","updateDailySpendingLimit(uint256)":"8d64007c","updateRateLimitConfig(uint256,uint256,uint256)":"6222f79b"}}}}}