{
  "_format": "hh-sol-artifact-1",
  "contractName": "FundsVault",
  "sourceName": "src/FundsVault.sol",
  "abi": [
    {
      "inputs": [
        {
          "internalType": "address",
          "name": "_multisig",
          "type": "address"
        }
      ],
      "stateMutability": "nonpayable",
      "type": "constructor"
    },
    {
      "inputs": [],
      "name": "ReentrancyGuardReentrantCall",
      "type": "error"
    },
    {
      "inputs": [
        {
          "internalType": "address",
          "name": "token",
          "type": "address"
        }
      ],
      "name": "SafeERC20FailedOperation",
      "type": "error"
    },
    {
      "anonymous": false,
      "inputs": [
        {
          "indexed": true,
          "internalType": "address",
          "name": "depositor",
          "type": "address"
        }
      ],
      "name": "DepositorAuthorized",
      "type": "event"
    },
    {
      "anonymous": false,
      "inputs": [
        {
          "indexed": true,
          "internalType": "address",
          "name": "depositor",
          "type": "address"
        }
      ],
      "name": "DepositorRevoked",
      "type": "event"
    },
    {
      "anonymous": false,
      "inputs": [
        {
          "indexed": true,
          "internalType": "address",
          "name": "from",
          "type": "address"
        },
        {
          "indexed": false,
          "internalType": "uint256",
          "name": "amount",
          "type": "uint256"
        }
      ],
      "name": "ETHDeposited",
      "type": "event"
    },
    {
      "anonymous": false,
      "inputs": [
        {
          "indexed": true,
          "internalType": "address",
          "name": "to",
          "type": "address"
        },
        {
          "indexed": false,
          "internalType": "uint256",
          "name": "amount",
          "type": "uint256"
        }
      ],
      "name": "ETHWithdrawn",
      "type": "event"
    },
    {
      "anonymous": false,
      "inputs": [
        {
          "indexed": true,
          "internalType": "address",
          "name": "token",
          "type": "address"
        },
        {
          "indexed": true,
          "internalType": "address",
          "name": "from",
          "type": "address"
        },
        {
          "indexed": false,
          "internalType": "uint256",
          "name": "amount",
          "type": "uint256"
        }
      ],
      "name": "TokenDeposited",
      "type": "event"
    },
    {
      "anonymous": false,
      "inputs": [
        {
          "indexed": true,
          "internalType": "address",
          "name": "token",
          "type": "address"
        },
        {
          "indexed": true,
          "internalType": "address",
          "name": "to",
          "type": "address"
        },
        {
          "indexed": false,
          "internalType": "uint256",
          "name": "amount",
          "type": "uint256"
        }
      ],
      "name": "TokenWithdrawn",
      "type": "event"
    },
    {
      "inputs": [
        {
          "internalType": "address",
          "name": "depositor",
          "type": "address"
        }
      ],
      "name": "authorizeDepositor",
      "outputs": [],
      "stateMutability": "nonpayable",
      "type": "function"
    },
    {
      "inputs": [
        {
          "internalType": "address",
          "name": "",
          "type": "address"
        }
      ],
      "name": "authorizedDepositors",
      "outputs": [
        {
          "internalType": "bool",
          "name": "",
          "type": "bool"
        }
      ],
      "stateMutability": "view",
      "type": "function"
    },
    {
      "inputs": [],
      "name": "depositETH",
      "outputs": [],
      "stateMutability": "payable",
      "type": "function"
    },
    {
      "inputs": [
        {
          "internalType": "address",
          "name": "token",
          "type": "address"
        },
        {
          "internalType": "uint256",
          "name": "amount",
          "type": "uint256"
        }
      ],
      "name": "depositToken",
      "outputs": [],
      "stateMutability": "nonpayable",
      "type": "function"
    },
    {
      "inputs": [],
      "name": "getETHBalance",
      "outputs": [
        {
          "internalType": "uint256",
          "name": "",
          "type": "uint256"
        }
      ],
      "stateMutability": "view",
      "type": "function"
    },
    {
      "inputs": [
        {
          "internalType": "address",
          "name": "token",
          "type": "address"
        }
      ],
      "name": "getTokenBalance",
      "outputs": [
        {
          "internalType": "uint256",
          "name": "",
          "type": "uint256"
        }
      ],
      "stateMutability": "view",
      "type": "function"
    },
    {
      "inputs": [],
      "name": "multisig",
      "outputs": [
        {
          "internalType": "address",
          "name": "",
          "type": "address"
        }
      ],
      "stateMutability": "view",
      "type": "function"
    },
    {
      "inputs": [
        {
          "internalType": "address",
          "name": "depositor",
          "type": "address"
        }
      ],
      "name": "revokeDepositor",
      "outputs": [],
      "stateMutability": "nonpayable",
      "type": "function"
    },
    {
      "inputs": [
        {
          "internalType": "address",
          "name": "to",
          "type": "address"
        },
        {
          "internalType": "uint256",
          "name": "amount",
          "type": "uint256"
        }
      ],
      "name": "withdrawETH",
      "outputs": [],
      "stateMutability": "nonpayable",
      "type": "function"
    },
    {
      "inputs": [
        {
          "internalType": "address",
          "name": "token",
          "type": "address"
        },
        {
          "internalType": "address",
          "name": "to",
          "type": "address"
        },
        {
          "internalType": "uint256",
          "name": "amount",
          "type": "uint256"
        }
      ],
      "name": "withdrawToken",
      "outputs": [],
      "stateMutability": "nonpayable",
      "type": "function"
    },
    {
      "stateMutability": "payable",
      "type": "receive"
    }
  ],
  "bytecode": "0x60a0346100d657601f610b4b38819003918201601f19168301916001600160401b038311848410176100db578084926020946040528339810103126100d657516001600160a01b0381168082036100d65760016000551561009157608052604051610a5990816100f28239608051818181610160015281816102ad0152818161033b0152818161039801526106b00152f35b60405162461bcd60e51b815260206004820152601860248201527f46756e64735661756c743a207a65726f206164647265737300000000000000006044820152606490fd5b600080fd5b634e487b7160e01b600052604160045260246000fdfe60406080815260048036101561005d575b361561001b57600080fd5b6020606492519162461bcd60e51b8352820152601a60248201527f46756e64735661756c743a20757365206465706f7369744554480000000000006044820152fd5b6000803560e01c806301e3366714610673578063338b5dea146105915780633aecd0e3146104fa5780634782f7791461036a5780634783c35b1461032657806365698573146102835780636e9472981461026857806372402e001461022a578063d9fd42cf146101365763f6326fb3146100d75750610010565b82816003193601126101325733825260016020526100fa60ff82842054166108c8565b61010534151561087c565b513481527f6c703791f399558807424f489ccd811c72b4ff0b74af547264fad7c646776df060203392a280f35b5080fd5b50913461022657602036600319011261022657610151610815565b6001600160a01b0390610187337f0000000000000000000000000000000000000000000000000000000000000000841614610830565b1691610194831515610914565b828452600160205260ff82852054166101e4575081835260016020528220600160ff198254161790557fbb9ef4f0ee2ff5375c566f2669824d1fb9e65a225185d7c060c5ff5576b499918280a280f35b6020606492519162461bcd60e51b8352820152601e60248201527f46756e64735661756c743a20616c726561647920617574686f72697a656400006044820152fd5b8280fd5b5082346101325760203660031901126101325760209160ff9082906001600160a01b03610255610815565b1681526001855220541690519015158152f35b50823461013257816003193601126101325751478152602090f35b5082346101325760203660031901126101325761029e610815565b6001600160a01b03906102d4337f0000000000000000000000000000000000000000000000000000000000000000841614610830565b169081835260016020526102ed60ff82852054166108c8565b81835260016020528220805460ff191690557f81b1f5b021742e2c18738c490e740cc533e459c7e0084d33ca75860e677a21e18280a280f35b508234610132578160031936011261013257517f00000000000000000000000000000000000000000000000000000000000000006001600160a01b03168152602090f35b50919034610226578160031936011261022657610385610815565b91602435916001600160a01b036103bf337f0000000000000000000000000000000000000000000000000000000000000000831614610830565b6103c7610998565b8416936103d5851515610914565b6103e084151561087c565b8347106104b7578580808681945af13d156104b2573d67ffffffffffffffff811161049f5783519061041c601f8201601f191660200183610960565b81528660203d92013e5b1561045d57507f94b2de810873337ed265c5f8cf98c9cffefa06b8607f9a2f1fbaebdfbcfbef1c9160209151908152a26001815580f35b6020606492519162461bcd60e51b8352820152601f60248201527f46756e64735661756c743a20455448207472616e73666572206661696c6564006044820152fd5b634e487b7160e01b875260418352602487fd5b610426565b506020606492519162461bcd60e51b8352820152602060248201527f46756e64735661756c743a20696e73756666696369656e742062616c616e63656044820152fd5b508234610132576020928360031936011261022657836001600160a01b03610520610815565b169160248451809481936370a0823160e01b835230908301525afa928315610586578093610551575b505051908152f35b909192508382813d831161057f575b61056a8183610960565b8101031261057c575051908380610549565b80fd5b503d610560565b8251903d90823e3d90fd5b509190346102265781600319360112610226576105ac610815565b916024359233855260016020526105c860ff83872054166108c8565b6001600160a01b0316916105dd831515610914565b6105e884151561087c565b81516323b872dd60e01b6020820152336024820152306044820152606480820186905281529060a082019067ffffffffffffffff8211838310176106605750825261063390836109bb565b519182527ff1444b5cad7ce70cb018d1b8edc8618fe303f3c7f034d8d572a6e27facbf2bef60203393a380f35b634e487b7160e01b875260419052602486fd5b509190346102265760603660031901126102265761068f610815565b6024356001600160a01b03818116949185900361081157604435926106d7827f0000000000000000000000000000000000000000000000000000000000000000163314610830565b6106df610998565b169283156107cf578415610782576106f883151561087c565b81519063a9059cbb60e01b602083015285602483015283604483015260448252608082019082821067ffffffffffffffff83111761076f5750916107637f8210728e7c071f615b840ee026032693858fbcd5e5359e67e438c890f59e562094926020948352866109bb565b51908152a36001815580f35b634e487b7160e01b885260419052602487fd5b6020608492519162461bcd60e51b8352820152602260248201527f46756e64735661756c743a207a65726f20726563697069656e74206164647265604482015261737360f01b6064820152fd5b6020606492519162461bcd60e51b8352820152601e60248201527f46756e64735661756c743a207a65726f20746f6b656e206164647265737300006044820152fd5b8580fd5b600435906001600160a01b038216820361082b57565b600080fd5b1561083757565b60405162461bcd60e51b815260206004820152601860248201527f46756e64735661756c743a206e6f74206d756c746973696700000000000000006044820152606490fd5b1561088357565b60405162461bcd60e51b815260206004820152601760248201527f46756e64735661756c743a207a65726f20616d6f756e740000000000000000006044820152606490fd5b156108cf57565b60405162461bcd60e51b815260206004820152601a60248201527f46756e64735661756c743a206e6f7420617574686f72697a65640000000000006044820152606490fd5b1561091b57565b60405162461bcd60e51b815260206004820152601860248201527f46756e64735661756c743a207a65726f206164647265737300000000000000006044820152606490fd5b90601f8019910116810190811067ffffffffffffffff82111761098257604052565b634e487b7160e01b600052604160045260246000fd5b6002600054146109a9576002600055565b604051633ee5aeb560e01b8152600490fd5b906000602091828151910182855af115610a17576000513d610a0e57506001600160a01b0381163b155b6109ec5750565b604051635274afe760e01b81526001600160a01b039091166004820152602490fd5b600114156109e5565b6040513d6000823e3d90fdfea26469706673582212203b79ccf2d2bbb90389d6e80c18bd2f5a609ee4c467a5d37b1b382c88eb3e2c7a64736f6c63430008180033",
  "linkReferences": {},
  "deployedLinkReferences": {}
}