{
  "_format": "hh-sol-artifact-1",
  "contractName": "SaleRound",
  "sourceName": "src/SaleRound.sol",
  "abi": [
    {
      "inputs": [
        {
          "internalType": "address",
          "name": "_manager",
          "type": "address"
        },
        {
          "internalType": "address",
          "name": "_nebaToken",
          "type": "address"
        },
        {
          "internalType": "address",
          "name": "_kycRegistry",
          "type": "address"
        },
        {
          "internalType": "address",
          "name": "_rateLimiter",
          "type": "address"
        },
        {
          "internalType": "address",
          "name": "_vestingVault",
          "type": "address"
        },
        {
          "internalType": "address",
          "name": "_fundsVault",
          "type": "address"
        },
        {
          "internalType": "address",
          "name": "_referralSystem",
          "type": "address"
        },
        {
          "internalType": "address",
          "name": "_usdc",
          "type": "address"
        },
        {
          "internalType": "address",
          "name": "_usdt",
          "type": "address"
        },
        {
          "internalType": "address",
          "name": "_ethUSDOracle",
          "type": "address"
        },
        {
          "components": [
            {
              "internalType": "string",
              "name": "name",
              "type": "string"
            },
            {
              "internalType": "uint256",
              "name": "tokenPriceUSD",
              "type": "uint256"
            },
            {
              "internalType": "uint256",
              "name": "hardCapUSD",
              "type": "uint256"
            },
            {
              "internalType": "uint256",
              "name": "startTime",
              "type": "uint256"
            },
            {
              "internalType": "uint256",
              "name": "endTime",
              "type": "uint256"
            },
            {
              "internalType": "uint256",
              "name": "cliffDuration",
              "type": "uint256"
            },
            {
              "internalType": "uint256",
              "name": "vestingDuration",
              "type": "uint256"
            },
            {
              "internalType": "bool",
              "name": "isActive",
              "type": "bool"
            }
          ],
          "internalType": "struct SaleRound.RoundConfig",
          "name": "_config",
          "type": "tuple"
        }
      ],
      "stateMutability": "nonpayable",
      "type": "constructor"
    },
    {
      "inputs": [],
      "name": "EnforcedPause",
      "type": "error"
    },
    {
      "inputs": [],
      "name": "ExpectedPause",
      "type": "error"
    },
    {
      "inputs": [],
      "name": "ReentrancyGuardReentrantCall",
      "type": "error"
    },
    {
      "inputs": [
        {
          "internalType": "address",
          "name": "token",
          "type": "address"
        }
      ],
      "name": "SafeERC20FailedOperation",
      "type": "error"
    },
    {
      "anonymous": false,
      "inputs": [
        {
          "components": [
            {
              "internalType": "string",
              "name": "name",
              "type": "string"
            },
            {
              "internalType": "uint256",
              "name": "tokenPriceUSD",
              "type": "uint256"
            },
            {
              "internalType": "uint256",
              "name": "hardCapUSD",
              "type": "uint256"
            },
            {
              "internalType": "uint256",
              "name": "startTime",
              "type": "uint256"
            },
            {
              "internalType": "uint256",
              "name": "endTime",
              "type": "uint256"
            },
            {
              "internalType": "uint256",
              "name": "cliffDuration",
              "type": "uint256"
            },
            {
              "internalType": "uint256",
              "name": "vestingDuration",
              "type": "uint256"
            },
            {
              "internalType": "bool",
              "name": "isActive",
              "type": "bool"
            }
          ],
          "indexed": false,
          "internalType": "struct SaleRound.RoundConfig",
          "name": "config",
          "type": "tuple"
        }
      ],
      "name": "ConfigUpdated",
      "type": "event"
    },
    {
      "anonymous": false,
      "inputs": [
        {
          "indexed": true,
          "internalType": "address",
          "name": "oracle",
          "type": "address"
        }
      ],
      "name": "OracleUpdated",
      "type": "event"
    },
    {
      "anonymous": false,
      "inputs": [
        {
          "indexed": false,
          "internalType": "address",
          "name": "account",
          "type": "address"
        }
      ],
      "name": "Paused",
      "type": "event"
    },
    {
      "anonymous": false,
      "inputs": [
        {
          "indexed": true,
          "internalType": "address",
          "name": "buyer",
          "type": "address"
        },
        {
          "indexed": true,
          "internalType": "address",
          "name": "paymentToken",
          "type": "address"
        },
        {
          "indexed": false,
          "internalType": "uint256",
          "name": "paymentAmount",
          "type": "uint256"
        },
        {
          "indexed": false,
          "internalType": "uint256",
          "name": "usdValue",
          "type": "uint256"
        },
        {
          "indexed": false,
          "internalType": "uint256",
          "name": "tokenAmount",
          "type": "uint256"
        }
      ],
      "name": "Purchase",
      "type": "event"
    },
    {
      "anonymous": false,
      "inputs": [
        {
          "indexed": true,
          "internalType": "address",
          "name": "referee",
          "type": "address"
        },
        {
          "indexed": true,
          "internalType": "address",
          "name": "referrer",
          "type": "address"
        },
        {
          "indexed": false,
          "internalType": "uint256",
          "name": "referrerBonus",
          "type": "uint256"
        },
        {
          "indexed": false,
          "internalType": "uint256",
          "name": "refereeBonus",
          "type": "uint256"
        }
      ],
      "name": "ReferralBonusDistributed",
      "type": "event"
    },
    {
      "anonymous": false,
      "inputs": [
        {
          "indexed": false,
          "internalType": "address",
          "name": "account",
          "type": "address"
        }
      ],
      "name": "Unpaused",
      "type": "event"
    },
    {
      "inputs": [
        {
          "internalType": "address",
          "name": "",
          "type": "address"
        }
      ],
      "name": "bonusTokens",
      "outputs": [
        {
          "internalType": "uint256",
          "name": "",
          "type": "uint256"
        }
      ],
      "stateMutability": "view",
      "type": "function"
    },
    {
      "inputs": [
        {
          "internalType": "address",
          "name": "referrer",
          "type": "address"
        }
      ],
      "name": "buyWithETH",
      "outputs": [],
      "stateMutability": "payable",
      "type": "function"
    },
    {
      "inputs": [
        {
          "internalType": "uint256",
          "name": "usdcAmount",
          "type": "uint256"
        },
        {
          "internalType": "address",
          "name": "referrer",
          "type": "address"
        }
      ],
      "name": "buyWithUSDC",
      "outputs": [],
      "stateMutability": "nonpayable",
      "type": "function"
    },
    {
      "inputs": [
        {
          "internalType": "uint256",
          "name": "usdtAmount",
          "type": "uint256"
        },
        {
          "internalType": "address",
          "name": "referrer",
          "type": "address"
        }
      ],
      "name": "buyWithUSDT",
      "outputs": [],
      "stateMutability": "nonpayable",
      "type": "function"
    },
    {
      "inputs": [],
      "name": "config",
      "outputs": [
        {
          "internalType": "string",
          "name": "name",
          "type": "string"
        },
        {
          "internalType": "uint256",
          "name": "tokenPriceUSD",
          "type": "uint256"
        },
        {
          "internalType": "uint256",
          "name": "hardCapUSD",
          "type": "uint256"
        },
        {
          "internalType": "uint256",
          "name": "startTime",
          "type": "uint256"
        },
        {
          "internalType": "uint256",
          "name": "endTime",
          "type": "uint256"
        },
        {
          "internalType": "uint256",
          "name": "cliffDuration",
          "type": "uint256"
        },
        {
          "internalType": "uint256",
          "name": "vestingDuration",
          "type": "uint256"
        },
        {
          "internalType": "bool",
          "name": "isActive",
          "type": "bool"
        }
      ],
      "stateMutability": "view",
      "type": "function"
    },
    {
      "inputs": [
        {
          "internalType": "address",
          "name": "",
          "type": "address"
        }
      ],
      "name": "contributions",
      "outputs": [
        {
          "internalType": "uint256",
          "name": "",
          "type": "uint256"
        }
      ],
      "stateMutability": "view",
      "type": "function"
    },
    {
      "inputs": [],
      "name": "ethUSDOracle",
      "outputs": [
        {
          "internalType": "address",
          "name": "",
          "type": "address"
        }
      ],
      "stateMutability": "view",
      "type": "function"
    },
    {
      "inputs": [],
      "name": "fundsVault",
      "outputs": [
        {
          "internalType": "contract IFundsVault",
          "name": "",
          "type": "address"
        }
      ],
      "stateMutability": "view",
      "type": "function"
    },
    {
      "inputs": [
        {
          "internalType": "address",
          "name": "user",
          "type": "address"
        }
      ],
      "name": "getReferralInfo",
      "outputs": [
        {
          "internalType": "address",
          "name": "referrer",
          "type": "address"
        },
        {
          "internalType": "bool",
          "name": "hasReferrer",
          "type": "bool"
        }
      ],
      "stateMutability": "view",
      "type": "function"
    },
    {
      "inputs": [],
      "name": "getRoundInfo",
      "outputs": [
        {
          "components": [
            {
              "internalType": "string",
              "name": "name",
              "type": "string"
            },
            {
              "internalType": "uint256",
              "name": "tokenPriceUSD",
              "type": "uint256"
            },
            {
              "internalType": "uint256",
              "name": "hardCapUSD",
              "type": "uint256"
            },
            {
              "internalType": "uint256",
              "name": "startTime",
              "type": "uint256"
            },
            {
              "internalType": "uint256",
              "name": "endTime",
              "type": "uint256"
            },
            {
              "internalType": "uint256",
              "name": "cliffDuration",
              "type": "uint256"
            },
            {
              "internalType": "uint256",
              "name": "vestingDuration",
              "type": "uint256"
            },
            {
              "internalType": "bool",
              "name": "isActive",
              "type": "bool"
            }
          ],
          "internalType": "struct SaleRound.RoundConfig",
          "name": "",
          "type": "tuple"
        }
      ],
      "stateMutability": "view",
      "type": "function"
    },
    {
      "inputs": [
        {
          "internalType": "address",
          "name": "user",
          "type": "address"
        }
      ],
      "name": "getUserInfo",
      "outputs": [
        {
          "internalType": "uint256",
          "name": "contribution",
          "type": "uint256"
        },
        {
          "internalType": "uint256",
          "name": "allocation",
          "type": "uint256"
        },
        {
          "internalType": "uint256",
          "name": "bonus",
          "type": "uint256"
        }
      ],
      "stateMutability": "view",
      "type": "function"
    },
    {
      "inputs": [],
      "name": "kycRegistry",
      "outputs": [
        {
          "internalType": "contract IKYCRegistry",
          "name": "",
          "type": "address"
        }
      ],
      "stateMutability": "view",
      "type": "function"
    },
    {
      "inputs": [],
      "name": "manager",
      "outputs": [
        {
          "internalType": "address",
          "name": "",
          "type": "address"
        }
      ],
      "stateMutability": "view",
      "type": "function"
    },
    {
      "inputs": [],
      "name": "nebaToken",
      "outputs": [
        {
          "internalType": "contract IERC20",
          "name": "",
          "type": "address"
        }
      ],
      "stateMutability": "view",
      "type": "function"
    },
    {
      "inputs": [],
      "name": "pause",
      "outputs": [],
      "stateMutability": "nonpayable",
      "type": "function"
    },
    {
      "inputs": [],
      "name": "paused",
      "outputs": [
        {
          "internalType": "bool",
          "name": "",
          "type": "bool"
        }
      ],
      "stateMutability": "view",
      "type": "function"
    },
    {
      "inputs": [],
      "name": "rateLimiter",
      "outputs": [
        {
          "internalType": "contract IRateLimiter",
          "name": "",
          "type": "address"
        }
      ],
      "stateMutability": "view",
      "type": "function"
    },
    {
      "inputs": [],
      "name": "referralSystem",
      "outputs": [
        {
          "internalType": "contract ReferralSystem",
          "name": "",
          "type": "address"
        }
      ],
      "stateMutability": "view",
      "type": "function"
    },
    {
      "inputs": [
        {
          "internalType": "address",
          "name": "",
          "type": "address"
        }
      ],
      "name": "tokenAllocations",
      "outputs": [
        {
          "internalType": "uint256",
          "name": "",
          "type": "uint256"
        }
      ],
      "stateMutability": "view",
      "type": "function"
    },
    {
      "inputs": [],
      "name": "totalRaisedUSD",
      "outputs": [
        {
          "internalType": "uint256",
          "name": "",
          "type": "uint256"
        }
      ],
      "stateMutability": "view",
      "type": "function"
    },
    {
      "inputs": [],
      "name": "totalTokensSold",
      "outputs": [
        {
          "internalType": "uint256",
          "name": "",
          "type": "uint256"
        }
      ],
      "stateMutability": "view",
      "type": "function"
    },
    {
      "inputs": [],
      "name": "unpause",
      "outputs": [],
      "stateMutability": "nonpayable",
      "type": "function"
    },
    {
      "inputs": [
        {
          "components": [
            {
              "internalType": "string",
              "name": "name",
              "type": "string"
            },
            {
              "internalType": "uint256",
              "name": "tokenPriceUSD",
              "type": "uint256"
            },
            {
              "internalType": "uint256",
              "name": "hardCapUSD",
              "type": "uint256"
            },
            {
              "internalType": "uint256",
              "name": "startTime",
              "type": "uint256"
            },
            {
              "internalType": "uint256",
              "name": "endTime",
              "type": "uint256"
            },
            {
              "internalType": "uint256",
              "name": "cliffDuration",
              "type": "uint256"
            },
            {
              "internalType": "uint256",
              "name": "vestingDuration",
              "type": "uint256"
            },
            {
              "internalType": "bool",
              "name": "isActive",
              "type": "bool"
            }
          ],
          "internalType": "struct SaleRound.RoundConfig",
          "name": "_config",
          "type": "tuple"
        }
      ],
      "name": "updateConfig",
      "outputs": [],
      "stateMutability": "nonpayable",
      "type": "function"
    },
    {
      "inputs": [
        {
          "internalType": "address",
          "name": "_oracle",
          "type": "address"
        }
      ],
      "name": "updateOracle",
      "outputs": [],
      "stateMutability": "nonpayable",
      "type": "function"
    },
    {
      "inputs": [],
      "name": "usdc",
      "outputs": [
        {
          "internalType": "contract IERC20",
          "name": "",
          "type": "address"
        }
      ],
      "stateMutability": "view",
      "type": "function"
    },
    {
      "inputs": [],
      "name": "usdt",
      "outputs": [
        {
          "internalType": "contract IERC20",
          "name": "",
          "type": "address"
        }
      ],
      "stateMutability": "view",
      "type": "function"
    },
    {
      "inputs": [],
      "name": "vestingVault",
      "outputs": [
        {
          "internalType": "contract IVestingVault",
          "name": "",
          "type": "address"
        }
      ],
      "stateMutability": "view",
      "type": "function"
    }
  ],
  "bytecode": "0x6101c0604052346200086c5762002cea803803806200001e816200088b565b9283396101608282810103126200086c576200003a82620008b1565b6200004860208401620008b1565b6200005660408501620008b1565b6200006460608601620008b1565b6200007260808701620008b1565b906200008160a08801620008b1565b926200009060c08901620008b1565b946200009f60e08a01620008b1565b96620000af6101008b01620008b1565b98620000bf6101208c01620008b1565b6101408c0151909b90916001600160401b0383116200086c5761010083830182840103126200086c576040516101a081905261010081019081106001600160401b03821117620005a457604052818301516001600160401b0381116200086c57818301601f82868601010112156200086c57828401810151906001600160401b038211620005a4576200015c601f8301601f19166020016200088b565b92828452840160208383888801010101116200086c5760005b82811062000871575050906000602060e0959493830101526101a051526020828201015160206101a05101526040828201015160406101a05101526060828201015160606101a05101526080828201015160806101a051015260a0828201015160a06101a051015260c0828201015160c06101a051015201015180151581036200086c576101a05160e0015260016000556001600160a01b0381161562000827576001600160a01b03821615620007e2576001600160a01b038316156200079d576001600160a01b0384161562000758576001600160a01b0385161562000713576001600160a01b03861615620006ce576001600160a01b0387161562000689576001600160a01b0388161562000644576001600160a01b03891615620005ff576001600160a01b038a1615620005ba576080526001600160a01b0390811660a05290811660c05290811660e0529081166101005290811661012052908116610140529081166101605290811661018052600a80546001600160a01b031916929091169190911790556101a0515180516001600160401b038111620005a457600254600181811c9116801562000599575b60208210146200058357601f811162000519575b50602091601f8211600114620004af57918192600092620004a3575b50508160011b916000199060031b1c1916176002555b60206101a051015160035560406101a051015160045560606101a051015160055560806101a051015160065560a06101a051015160075560c06101a051015160085560e06101a0510151151560ff8019600954169116176009556040516124239081620008c78239608051818181610619015281816108390152818161111401528181611366015261155b015260a051816103c0015260c0518181816107f50152611d1b015260e0518181816107b10152611d5501526101005181818161040401528181610a6301528181610cd201528181611f2f015261212f0152610120518181816102650152818161037c0152610b2501526101405181818161044801528181610bc60152818161125901526120130152610160518181816104f801526111a701526101805181818161020f01526111eb0152f35b01519050388062000356565b601f19821692600260005260206000209160005b8581106200050057508360019510620004e6575b505050811b016002556200036c565b015160001960f88460031b161c19169055388080620004d7565b91926020600181928685015181550194019201620004c3565b60026000527f405787fa12a823e0f2b7631cc41b3ba8828b3321ca811111fa75cd3aa3bb5ace601f830160051c8101916020841062000578575b601f0160051c01905b8181106200056b57506200033a565b600081556001016200055c565b909150819062000553565b634e487b7160e01b600052602260045260246000fd5b90607f169062000326565b634e487b7160e01b600052604160045260246000fd5b60405162461bcd60e51b815260206004820152601660248201527f53616c65526f756e643a207a65726f206f7261636c65000000000000000000006044820152606490fd5b60405162461bcd60e51b815260206004820152601460248201527f53616c65526f756e643a207a65726f20757364740000000000000000000000006044820152606490fd5b60405162461bcd60e51b815260206004820152601460248201527f53616c65526f756e643a207a65726f20757364630000000000000000000000006044820152606490fd5b60405162461bcd60e51b815260206004820152601860248201527f53616c65526f756e643a207a65726f20726566657272616c00000000000000006044820152606490fd5b60405162461bcd60e51b815260206004820152601560248201527f53616c65526f756e643a207a65726f2066756e647300000000000000000000006044820152606490fd5b60405162461bcd60e51b815260206004820152601760248201527f53616c65526f756e643a207a65726f2076657374696e670000000000000000006044820152606490fd5b60405162461bcd60e51b815260206004820152601760248201527f53616c65526f756e643a207a65726f206c696d697465720000000000000000006044820152606490fd5b60405162461bcd60e51b815260206004820152601360248201527f53616c65526f756e643a207a65726f206b7963000000000000000000000000006044820152606490fd5b60405162461bcd60e51b815260206004820152601560248201527f53616c65526f756e643a207a65726f20746f6b656e00000000000000000000006044820152606490fd5b60405162461bcd60e51b815260206004820152601760248201527f53616c65526f756e643a207a65726f206d616e616765720000000000000000006044820152606490fd5b600080fd5b806020809284898901010101518282870101520162000175565b6040519190601f01601f191682016001600160401b03811183821017620005a457604052565b51906001600160a01b03821682036200086c5756fe60806040908082526004908136101561001757600080fd5b600091823560e01c91826307b6859a1461146a575081630b6d621c146114325781631252af75146114135781631cb44dfc1461133b57816321874ae21461121a5781632f48ab7d146111d65781633e413bee146111925781633f4ba83a146110fb57816342e94c90146110c3578163444aa92f1461086857918093928263481c6a75146108245782634b155b97146107e057826353d4fe331461079c5782635c975abb146107785782636386c1c71461072057826363b2011714610701578263706eb3ab146106d857826379502c55146106635782638456cb59146105dc57826384bc76a61461052f5782638c28c31a14610477578263a04e876c14610433578263a5917baf146103ef578263ac76a908146103ab578263b6cb7f4114610367578263d095362f1461018e57505063ff5bc5a61461015457600080fd5b3461018a57602036600319011261018a5760209181906001600160a01b0361017a6118f5565b168152600f845220549051908152f35b5080fd5b915091346103635780600319360112610363578135916101ac611910565b926101b5611c9d565b6101bd611cc0565b6101cb60ff60095416611b89565b6101d9600554421015611bcd565b6101e7600654421115611c12565b6101f5600b54835411611c51565b6101ff8133611cf5565b61020881611e35565b9361024f827f000000000000000000000000000000000000000000000000000000000000000061024660018060a01b03948583169984808c33611e96565b3090339061234e565b835163095ea7b360e01b81526001600160a01b037f0000000000000000000000000000000000000000000000000000000000000000929092169182168482019081526020818101859052908290819060400103818a8a5af180156103595761032a575b50803b156103265783516319c5aef560e11b81526001600160a01b039095169285019283526020830191909152849184919082908490829060400103925af190811561031d5750610306575b506001905580f35b61030f906118a3565b61031a5780386102fe565b80fd5b513d84823e3d90fd5b8580fd5b61034b9060203d602011610352575b61034381836118b7565b810190611b71565b50386102b2565b503d610339565b85513d89823e3d90fd5b5050fd5b50823461018a578160031936011261018a57517f00000000000000000000000000000000000000000000000000000000000000006001600160a01b03168152602090f35b50823461018a578160031936011261018a57517f00000000000000000000000000000000000000000000000000000000000000006001600160a01b03168152602090f35b50823461018a578160031936011261018a57517f00000000000000000000000000000000000000000000000000000000000000006001600160a01b03168152602090f35b50823461018a578160031936011261018a57517f00000000000000000000000000000000000000000000000000000000000000006001600160a01b03168152602090f35b91509134610363578060031936011261036357813591610495611910565b9261049e611c9d565b6104a6611cc0565b6104b460ff60095416611b89565b6104c2600554421015611bcd565b6104d0600654421115611c12565b6104de600b54835411611c51565b6104e88133611cf5565b6104f181611e35565b9361024f827f000000000000000000000000000000000000000000000000000000000000000061024660018060a01b03948583169984808c33611e96565b83346105d857826003193601126105d8576105d49260e0825161055181611870565b6060815282602082015282848201528260608201528260808201528260a08201528260c0820152015280519161058683611870565b61058e611960565b8352600354602084015254818301526005546060830152600654608083015260075460a083015260085460c083015260ff60095416151560e08301525191829182611a66565b0390f35b8280fd5b50823461018a578160031936011261018a577f62e78cea01bee320cd4e420270b5ea74000d11b0c9f74754ebdbfc544b05a25890602090610647337f00000000000000000000000000000000000000000000000000000000000000006001600160a01b031614611acc565b61064f611cc0565b600160ff198154161760015551338152a180f35b8390346105d857826003193601126105d8576106b09250610682611960565b916003549154600554600654600754916008549360ff60095416958051998a99610100808c528b0190611a26565b9760208a01528801526060870152608086015260a085015260c0840152151560e08301520390f35b50823461018a578160031936011261018a57600a5490516001600160a01b039091168152602090f35b50823461018a578160031936011261018a57602090600c549051908152f35b50823461018a57602036600319011261018a576001600160a01b036107436118f5565b168252600d602090815281832054600e825282842054600f835293839020549251908152908101929092526040820152606090f35b50823461018a578160031936011261018a5760209060ff6001541690519015158152f35b50823461018a578160031936011261018a57517f00000000000000000000000000000000000000000000000000000000000000006001600160a01b03168152602090f35b50823461018a578160031936011261018a57517f00000000000000000000000000000000000000000000000000000000000000006001600160a01b03168152602090f35b50823461018a578160031936011261018a57517f00000000000000000000000000000000000000000000000000000000000000006001600160a01b03168152602090f35b9050602092836003193601126105d8576108806118f5565b93610889611c9d565b610891611cc0565b61089f60ff60095416611b89565b6108ad600554421015611bcd565b6108bb600654421115611c12565b6108c9600b54845411611c51565b341561108c57600a548251633fabe5a360e21b8184019081528582526001600160a01b03939284169180860167ffffffffffffffff8111828210176110795786525187928392905afa3d15611071573d90610923826118d9565b91610930865193846118b7565b82523d878484013e5b1561102e5760a08180518101031261032657610956828201611cde565b90848101519161096d60a060808401519301611cde565b91610979898513611b11565b8015610feb574203428111610fd857610e1010610f955769ffffffffffffffffffff809116911610610f525764174876e80081101580610f43575b15610f0057606490048034029034820403610eed57670de0b6b3a764000090046109de8133611cf5565b6109e781611e35565b86926109f583600b54611e89565b875410610eab57338852600d8152858820610a11848254611e89565b9055338852600e8152858820610a28838254611e89565b9055610a3683600b54611e89565b600b55610a4582600c54611e89565b600c558482991680151580610ea1575b610bb3575b505060065497847f00000000000000000000000000000000000000000000000000000000000000001660075460085492823b15610baf5788516375591d5f60e11b815233818c01908152602081019290925260408201929092526060810193909352608083019a909a5284918a919082908490829060a00103925af1978815610ba557879897959697610b85575b5085513481526020810192909252604082015233907f8f7a55179307cea51948432d653dbd53a23fedc388bcb3e04e311f8220d8786490606090a37f000000000000000000000000000000000000000000000000000000000000000016803b1561018a57825163f6326fb360e01b8152938491829034905af190811561031d5750610b76575b506001815580f35b610b7f906118a3565b38610b6e565b83949550610b9690939192936118a3565b6105d857908693929138610ae8565b85513d85823e3d90fd5b8680fd5b8651630308a59b60e31b815233898201527f0000000000000000000000000000000000000000000000000000000000000000871691908381602481865afa908115610e975790859392918c91610e7a575b5015610e13575b50875163d8abfee560e01b815233818b019081526020810193909352929160609184918290899082906040015b03925af1918215610e0957859286918791610dbe575b508784169283610c61575b505050610a5a565b90919280949c508752600e8152888720610c7c848254611e89565b9055838752600f8152888720610c93848254611e89565b9055338752600f8152888720610caa838254611e89565b9055610cc1610cb98385611e89565b600c54611e89565b600c55610cce8286611e89565b9b887f0000000000000000000000000000000000000000000000000000000000000000166007549160085460065490833b15610dba57918b8f8f8296948b96610d519251998a98899788966375591d5f60e11b885287019192608093969594919660a084019760018060a01b031684526020840152604083015260608201520152565b03925af18015610db057908891610d9c575b505088519283528201527f8a888a9ac1098c12b38ade27d5d5b51ce092d9271475e3024a084bfc73fd5798873392a33880808080610c59565b610da5906118a3565b610baf578638610d63565b8a513d8a823e3d90fd5b8b80fd5b935050506060823d606011610e01575b81610ddb606093836118b7565b81010312610dfd57610dec82611b5d565b878284015193015190929038610c4e565b8480fd5b3d9150610dce565b87513d87823e3d90fd5b908092503b15610e7657875190635603b9f960e01b8252338a8301526024820152898160448183865af18015610e6c57610e50575b908391610c0b565b610c3892919550610e60906118a3565b88949091506060610e48565b88513d8c823e3d90fd5b8980fd5b610e919150853d87116103525761034381836118b7565b38610c04565b89513d8d823e3d90fd5b5033811415610a55565b8660649187519162461bcd60e51b8352820152601b60248201527f53616c65526f756e643a206578636565647320686172642063617000000000006044820152fd5b634e487b7160e01b865260118552602486fd5b835162461bcd60e51b8152808601839052601e60248201527f53616c65526f756e643a207072696365206f7574206f6620626f756e647300006044820152606490fd5b5064e8d4a510008111156109b4565b835162461bcd60e51b8152808601839052601b60248201527f53616c65526f756e643a207374616c6520726f756e64206461746100000000006044820152606490fd5b855162461bcd60e51b8152808801859052601b60248201527f53616c65526f756e643a207374616c65207072696365206461746100000000006044820152606490fd5b634e487b7160e01b895260118852602489fd5b865162461bcd60e51b8152808901869052601c60248201527f53616c65526f756e643a20696e76616c69642074696d657374616d70000000006044820152606490fd5b835162461bcd60e51b8152808601839052601d60248201527f53616c65526f756e643a206f7261636c652063616c6c206661696c65640000006044820152606490fd5b606090610939565b634e487b7160e01b895260418852602489fd5b905162461bcd60e51b81529182015260136024820152720a6c2d8caa4deeadcc87440f4cae4de408aa89606b1b6044820152606490fd5b82843461018a57602036600319011261018a5760209181906001600160a01b036110eb6118f5565b168152600d845220549051908152f35b839150346105d857826003193601126105d857611142337f00000000000000000000000000000000000000000000000000000000000000006001600160a01b031614611acc565b6001549060ff821615611184575060ff1916600155513381527f5db9ee0a495bf2e6ff9c91a7834c1ba4fdd244a5e8aa4e537bd38aeae4b073aa90602090a180f35b8251638dfc202b60e01b8152fd5b82843461018a578160031936011261018a57517f00000000000000000000000000000000000000000000000000000000000000006001600160a01b03168152602090f35b82843461018a578160031936011261018a57517f00000000000000000000000000000000000000000000000000000000000000006001600160a01b03168152602090f35b9190503461031a576020908160031936011261031a576112386118f5565b8451634a9fefc760e01b81526001600160a01b0391821681860181905290947f0000000000000000000000000000000000000000000000000000000000000000831691908587602481865afa9687156113315785976112f4575b50906024869289519485938492630308a59b60e31b84528301525afa9283156112e957926112ca575b50845193168352151590820152f35b6112e2919250833d85116103525761034381836118b7565b90386112bb565b8651903d90823e3d90fd5b9096508581813d831161132a575b61130c81836118b7565b81010312610dfd579060246113218793611b5d565b97919250611292565b503d611302565b88513d87823e3d90fd5b839150346105d85760203660031901126105d8576113576118f5565b6001600160a01b039061138d337f0000000000000000000000000000000000000000000000000000000000000000841614611acc565b169182156113d0575050600a80546001600160a01b031916821790557f3df77beb5db05fcdd70a30fc8adf3f83f9501b68579455adbd100b81809403948280a280f35b906020606492519162461bcd60e51b8352820152601760248201527f53616c65526f756e643a207a65726f20616464726573730000000000000000006044820152fd5b82843461018a578160031936011261018a57602090600b549051908152f35b82843461018a57602036600319011261018a5760209181906001600160a01b0361145a6118f5565b168152600e845220549051908152f35b8484923461186c5760031990602036830181136103265781359267ffffffffffffffff9081851161186857610100908536030112610baf576114ab86611870565b8383013581811161186857840192366023850112156118685780840135886024956114d5836118d9565b926114e28a5194856118b7565b808452368882840101116105d857808888930183860137830101528752828701848601358152868801906044870135825260608901936064880135855260808a01956084890135875260a08b019760a48a0135895260e460c08d019a60c48101358c52013580151581036118645760e08d0152611589337f00000000000000000000000000000000000000000000000000000000000000006001600160a01b031614611acc565b61159584511515611b11565b845115611823578751875110156117e25789518951116117a1578b5190815193841161179057506115c7600254611926565b8d601f821161172a575b9050508c82601f85116001146116775750927fca5e88616919440603f1ae53082dab032daf45557362fafd80a4852bd6cdad859c9a9896949281926116669d9b9997959261166c575b50508160011b916000199060031b1c1916176002555b516003555190555160055551600655516007555160085560e0820151151560ff8019600954169116176009555191829182611a66565b0390a180f35b015190508e8061161a565b600282527f405787fa12a823e0f2b7631cc41b3ba8828b3321ca811111fa75cd3aa3bb5ace939291601f198616915b8282106117125750509260019285927fca5e88616919440603f1ae53082dab032daf45557362fafd80a4852bd6cdad859f9d9b999795966116669f9d9b9997106116f9575b505050811b01600255611630565b015160001960f88460031b161c191690558e80806116eb565b806001869782949787015181550196019401906116a6565b600290527f405787fa12a823e0f2b7631cc41b3ba8828b3321ca811111fa75cd3aa3bb5ace601f850160051c810191848610611786575b601f0160051c01908e905b82811061177957506115d1565b6001918155018e9061176c565b9091508190611761565b634e487b7160e01b8e52604187528dfd5b601a86916064938d519362461bcd60e51b85528401528201527f53616c65526f756e643a20696e76616c69642076657374696e670000000000006044820152fd5b601d86916064938d519362461bcd60e51b85528401528201527f53616c65526f756e643a20696e76616c69642074696d652072616e67650000006044820152fd5b601b86916064938d519362461bcd60e51b85528401528201527f53616c65526f756e643a20696e76616c696420686172642063617000000000006044820152fd5b8d80fd5b8780fd5b8380fd5b610100810190811067ffffffffffffffff82111761188d57604052565b634e487b7160e01b600052604160045260246000fd5b67ffffffffffffffff811161188d57604052565b90601f8019910116810190811067ffffffffffffffff82111761188d57604052565b67ffffffffffffffff811161188d57601f01601f191660200190565b600435906001600160a01b038216820361190b57565b600080fd5b602435906001600160a01b038216820361190b57565b90600182811c92168015611956575b602083101461194057565b634e487b7160e01b600052602260045260246000fd5b91607f1691611935565b604051906000826002549161197483611926565b80835292602090600190818116908115611a0257506001146119a1575b505061199f925003836118b7565b565b91509260026000527f405787fa12a823e0f2b7631cc41b3ba8828b3321ca811111fa75cd3aa3bb5ace936000925b8284106119ea575061199f9450505081016020013880611991565b855488850183015294850194879450928101926119cf565b9150506020925061199f94915060ff191682840152151560051b8201013880611991565b919082519283825260005b848110611a52575050826000602080949584010152601f8019910116010190565b602081830181015184830182015201611a31565b60208152815160e0611a8661010092836020860152610120850190611a26565b93602081015160408501526040810151606085015260608101516080850152608081015160a085015260a081015160c085015260c0810151828501520151151591015290565b15611ad357565b60405162461bcd60e51b815260206004820152601660248201527529b0b632a937bab7321d103737ba1036b0b730b3b2b960511b6044820152606490fd5b15611b1857565b60405162461bcd60e51b815260206004820152601860248201527f53616c65526f756e643a20696e76616c696420707269636500000000000000006044820152606490fd5b51906001600160a01b038216820361190b57565b9081602091031261190b5751801515810361190b5790565b15611b9057565b60405162461bcd60e51b815260206004820152601560248201527453616c65526f756e643a206e6f742061637469766560581b6044820152606490fd5b15611bd457565b60405162461bcd60e51b815260206004820152601660248201527514d85b19549bdd5b990e881b9bdd081cdd185c9d195960521b6044820152606490fd5b15611c1957565b60405162461bcd60e51b815260206004820152601060248201526f14d85b19549bdd5b990e88195b99195960821b6044820152606490fd5b15611c5857565b60405162461bcd60e51b815260206004820152601b60248201527f53616c65526f756e643a206861726420636170207265616368656400000000006044820152606490fd5b600260005414611cae576002600055565b604051633ee5aeb560e01b8152600490fd5b60ff60015416611ccc57565b60405163d93c066560e01b8152600490fd5b519069ffffffffffffffffffff8216820361190b57565b6040516373bed91960e11b81526001600160a01b038281166004830152906020816024817f000000000000000000000000000000000000000000000000000000000000000086165afa908115611dc557600091611e16575b5015611dd1577f00000000000000000000000000000000000000000000000000000000000000001691823b1561190b576040516338d7278960e21b81526001600160a01b039290921660048301526024820152906000908290604490829084905af18015611dc557611dbc5750565b61199f906118a3565b6040513d6000823e3d90fd5b60405162461bcd60e51b815260206004820152601b60248201527f53616c65526f756e643a206e6f74204b594320617070726f76656400000000006044820152606490fd5b611e2f915060203d6020116103525761034381836118b7565b38611d4d565b670de0b6b3a764000090818102918183041490151715611e7357600354908115611e5d570490565b634e487b7160e01b600052601260045260246000fd5b634e487b7160e01b600052601160045260246000fd5b91908201809211611e7357565b929493909194600b54611eab82600092611e89565b9060049182541061230a5760018060a01b039586811697888352602093600d8552604094858520611edd888254611e89565b90558a8552600e8152858520611ef4898254611e89565b9055611f0287600b54611e89565b600b55611f1188600c54611e89565b600c558988931680151580612300575b612010575b505060065492897f0000000000000000000000000000000000000000000000000000000000000000169160075494600854843b156118685788516375591d5f60e11b81526001600160a01b039094169284019283526020830195909552604082019590955260608101939093526080830193909352839183919082908490829060a00103925af1801561200657611ff2575b5050519586526020860152604085015216917f8f7a55179307cea51948432d653dbd53a23fedc388bcb3e04e311f8220d8786490606090a3565b611ffc82916118a3565b61031a5780611fb8565b83513d84823e3d90fd5b8a7f000000000000000000000000000000000000000000000000000000000000000016908751630308a59b60e31b81528d858201528381602481865afa9081156122f65790889493929185916122d9575b5015612274575b50875163d8abfee560e01b81526001600160a01b038716858201908152602081018c9052909360609285929091839182906040015b03925af190811561226a57869287908893612222575b508c841692836120c6575b505050611f26565b909192809496508852600e83528888206120e1838254611e89565b9055838852600f83528888206120f8838254611e89565b90558d8852600f835288882061210f828254611e89565b905561211e610cb98284611e89565b600c5561212b818c611e89565b958d7f0000000000000000000000000000000000000000000000000000000000000000166007549160085460065490833b1561221e578d516375591d5f60e11b81526001600160a01b03909316838b0190815260208101889052604081019590955260608501526080840152918a91839182908490829060a00103925af1801561221457918f93918a908c946121f4575b50507f8a888a9ac1098c12b38ade27d5d5b51ce092d9271475e3024a084bfc73fd579893948351928352820152a338808080806120be565b90929593506122049194506118a3565b611868579188908e9289386121bc565b8a513d8b823e3d90fd5b8c80fd5b93505090506060823d606011612262575b81612240606093836118b7565b810103126103265761225182611b5d565b9087818401519301519192386120b3565b3d9150612233565b87513d88823e3d90fd5b90809293503b15610baf57875190635603b9f960e01b82528d858301526024820152868160448183865af180156122cf576122b3575b90869291612068565b61209d966122c56060929493946118a3565b96509190916122aa565b88513d89823e3d90fd5b6122f09150843d86116103525761034381836118b7565b38612061565b89513d8a823e3d90fd5b508b811415611f21565b60405162461bcd60e51b8152602081840152601b60248201527f53616c65526f756e643a206578636565647320686172642063617000000000006044820152606490fd5b6040516323b872dd60e01b602082019081526001600160a01b039384166024830152938316604482015260648082019590955293845292909160a082019067ffffffffffffffff82118383101761188d57602092600092604052519082865af115611dc5576000513d6123e457508082163b155b6123ca575050565b604051635274afe760e01b81529116600482015260249150fd5b600114156123c256fea264697066735822122046f52b2a82b3fb3428d39b7f10add121ecb54aaeb7163bce28d7274e3d2c391764736f6c63430008180033",
  "linkReferences": {},
  "deployedLinkReferences": {}
}