{
  "_format": "hh-sol-artifact-1",
  "contractName": "KYCRegistry",
  "sourceName": "src/KYCRegistry.sol",
  "abi": [
    {
      "inputs": [
        {
          "internalType": "address",
          "name": "admin",
          "type": "address"
        }
      ],
      "stateMutability": "nonpayable",
      "type": "constructor"
    },
    {
      "inputs": [],
      "name": "AccessControlBadConfirmation",
      "type": "error"
    },
    {
      "inputs": [
        {
          "internalType": "address",
          "name": "account",
          "type": "address"
        },
        {
          "internalType": "bytes32",
          "name": "neededRole",
          "type": "bytes32"
        }
      ],
      "name": "AccessControlUnauthorizedAccount",
      "type": "error"
    },
    {
      "anonymous": false,
      "inputs": [
        {
          "indexed": true,
          "internalType": "address",
          "name": "account",
          "type": "address"
        }
      ],
      "name": "AddressRemovedFromWhitelist",
      "type": "event"
    },
    {
      "anonymous": false,
      "inputs": [
        {
          "indexed": true,
          "internalType": "address",
          "name": "account",
          "type": "address"
        }
      ],
      "name": "AddressWhitelisted",
      "type": "event"
    },
    {
      "anonymous": false,
      "inputs": [
        {
          "indexed": true,
          "internalType": "bytes32",
          "name": "role",
          "type": "bytes32"
        },
        {
          "indexed": true,
          "internalType": "bytes32",
          "name": "previousAdminRole",
          "type": "bytes32"
        },
        {
          "indexed": true,
          "internalType": "bytes32",
          "name": "newAdminRole",
          "type": "bytes32"
        }
      ],
      "name": "RoleAdminChanged",
      "type": "event"
    },
    {
      "anonymous": false,
      "inputs": [
        {
          "indexed": true,
          "internalType": "bytes32",
          "name": "role",
          "type": "bytes32"
        },
        {
          "indexed": true,
          "internalType": "address",
          "name": "account",
          "type": "address"
        },
        {
          "indexed": true,
          "internalType": "address",
          "name": "sender",
          "type": "address"
        }
      ],
      "name": "RoleGranted",
      "type": "event"
    },
    {
      "anonymous": false,
      "inputs": [
        {
          "indexed": true,
          "internalType": "bytes32",
          "name": "role",
          "type": "bytes32"
        },
        {
          "indexed": true,
          "internalType": "address",
          "name": "account",
          "type": "address"
        },
        {
          "indexed": true,
          "internalType": "address",
          "name": "sender",
          "type": "address"
        }
      ],
      "name": "RoleRevoked",
      "type": "event"
    },
    {
      "inputs": [],
      "name": "DEFAULT_ADMIN_ROLE",
      "outputs": [
        {
          "internalType": "bytes32",
          "name": "",
          "type": "bytes32"
        }
      ],
      "stateMutability": "view",
      "type": "function"
    },
    {
      "inputs": [],
      "name": "KYC_MANAGER_ROLE",
      "outputs": [
        {
          "internalType": "bytes32",
          "name": "",
          "type": "bytes32"
        }
      ],
      "stateMutability": "view",
      "type": "function"
    },
    {
      "inputs": [
        {
          "internalType": "address",
          "name": "account",
          "type": "address"
        }
      ],
      "name": "addToWhitelist",
      "outputs": [],
      "stateMutability": "nonpayable",
      "type": "function"
    },
    {
      "inputs": [
        {
          "internalType": "address[]",
          "name": "accounts",
          "type": "address[]"
        }
      ],
      "name": "batchAddToWhitelist",
      "outputs": [],
      "stateMutability": "nonpayable",
      "type": "function"
    },
    {
      "inputs": [
        {
          "internalType": "address[]",
          "name": "accounts",
          "type": "address[]"
        }
      ],
      "name": "batchRemoveFromWhitelist",
      "outputs": [],
      "stateMutability": "nonpayable",
      "type": "function"
    },
    {
      "inputs": [
        {
          "internalType": "bytes32",
          "name": "role",
          "type": "bytes32"
        }
      ],
      "name": "getRoleAdmin",
      "outputs": [
        {
          "internalType": "bytes32",
          "name": "",
          "type": "bytes32"
        }
      ],
      "stateMutability": "view",
      "type": "function"
    },
    {
      "inputs": [
        {
          "internalType": "bytes32",
          "name": "role",
          "type": "bytes32"
        },
        {
          "internalType": "address",
          "name": "account",
          "type": "address"
        }
      ],
      "name": "grantRole",
      "outputs": [],
      "stateMutability": "nonpayable",
      "type": "function"
    },
    {
      "inputs": [
        {
          "internalType": "bytes32",
          "name": "role",
          "type": "bytes32"
        },
        {
          "internalType": "address",
          "name": "account",
          "type": "address"
        }
      ],
      "name": "hasRole",
      "outputs": [
        {
          "internalType": "bool",
          "name": "",
          "type": "bool"
        }
      ],
      "stateMutability": "view",
      "type": "function"
    },
    {
      "inputs": [
        {
          "internalType": "address",
          "name": "account",
          "type": "address"
        }
      ],
      "name": "isKYCApproved",
      "outputs": [
        {
          "internalType": "bool",
          "name": "",
          "type": "bool"
        }
      ],
      "stateMutability": "view",
      "type": "function"
    },
    {
      "inputs": [
        {
          "internalType": "address",
          "name": "account",
          "type": "address"
        }
      ],
      "name": "removeFromWhitelist",
      "outputs": [],
      "stateMutability": "nonpayable",
      "type": "function"
    },
    {
      "inputs": [
        {
          "internalType": "bytes32",
          "name": "role",
          "type": "bytes32"
        },
        {
          "internalType": "address",
          "name": "callerConfirmation",
          "type": "address"
        }
      ],
      "name": "renounceRole",
      "outputs": [],
      "stateMutability": "nonpayable",
      "type": "function"
    },
    {
      "inputs": [
        {
          "internalType": "bytes32",
          "name": "role",
          "type": "bytes32"
        },
        {
          "internalType": "address",
          "name": "account",
          "type": "address"
        }
      ],
      "name": "revokeRole",
      "outputs": [],
      "stateMutability": "nonpayable",
      "type": "function"
    },
    {
      "inputs": [
        {
          "internalType": "bytes4",
          "name": "interfaceId",
          "type": "bytes4"
        }
      ],
      "name": "supportsInterface",
      "outputs": [
        {
          "internalType": "bool",
          "name": "",
          "type": "bool"
        }
      ],
      "stateMutability": "view",
      "type": "function"
    }
  ],
  "bytecode": "0x6080346100bd57601f610a6738819003918201601f19168301916001600160401b038311848410176100c2578084926020946040528339810103126100bd57516001600160a01b0381168082036100bd57156100785780610062610068926100d8565b50610156565b5060405161085090816101f78239f35b60405162461bcd60e51b815260206004820152601960248201527f4b594352656769737472793a207a65726f2061646472657373000000000000006044820152606490fd5b600080fd5b634e487b7160e01b600052604160045260246000fd5b6001600160a01b031660008181527fad3228b676f7d3cd4284a5443f17f1962b36e491b30a40b2405849e597ba5fb5602052604081205490919060ff1661015257818052816020526040822081835260205260408220600160ff198254161790553391600080516020610a478339815191528180a4600190565b5090565b6001600160a01b031660008181527f92110696db8815002c2ab1980ec25c7cd9b4c1016069daf7e45af599aca9bb9a60205260408120549091907f6f35daacd116f0f629c42d5459fd6842d505964e6828899d889573dc5bc51cf89060ff166101f157808352826020526040832082845260205260408320600160ff19825416179055600080516020610a47833981519152339380a4600190565b50509056fe608060408181526004918236101561001657600080fd5b600092833560e01c91826301ffc9a71461053057508163045fb8881461049f578163248a9ca3146104755781632db6fa36146103ce5781632f2ff15d146103a457816336568abe1461035e57816373a7d93e146103235781638ab1d6811461026357816391d148541461021d578163a217fddf14610202578163d547741f146101c3578163e43252d7146100f4575063e77db232146100b457600080fd5b346100f05760203660031901126100f05760209160ff9082906001600160a01b036100dd6105eb565b1681526001855220541690519015158152f35b5080fd5b919050346101bf5760203660031901126101bf576101106105eb565b610118610687565b6001600160a01b03169161012d83151561063b565b828452600160205260ff828520541661017d575081835260016020528220600160ff198254161790557f4f783c179409b4127238bc9c990bc99b9a651666a0d20b51d6c42849eb88466d8280a280f35b6020606492519162461bcd60e51b8352820152602060248201527f4b594352656769737472793a20616c72656164792077686974656c69737465646044820152fd5b8280fd5b919050346101bf57806003193601126101bf576101fe91356101f960016101e86105d5565b938387528660205286200154610701565b6107a5565b5080f35b5050346100f057816003193601126100f05751908152602090f35b9050346101bf57816003193601126101bf578160209360ff9261023e6105d5565b903582528186528282206001600160a01b039091168252855220549151911615158152f35b919050346101bf5760203660031901126101bf5761027f6105eb565b610287610687565b6001600160a01b031680845260016020528184205490929060ff16156102e1575081835260016020528220805460ff191690557f535611fb62fa2a833988f283b779e417e996813e44046f521d76c17b5943b08c8280a280f35b6020606492519162461bcd60e51b8352820152601c60248201527f4b594352656769737472793a206e6f742077686974656c6973746564000000006044820152fd5b5050346100f057816003193601126100f057602090517f6f35daacd116f0f629c42d5459fd6842d505964e6828899d889573dc5bc51cf88152f35b8383346100f057806003193601126100f0576103786105d5565b90336001600160a01b0383160361039557506101fe9192356107a5565b5163334bd91960e11b81528390fd5b919050346101bf57806003193601126101bf576101fe91356103c960016101e86105d5565b610727565b5050346100f0576103de36610583565b91906103e8610687565b835b8381106103f5578480f35b6001906001600160a01b0361041361040e838887610601565b610627565b1661041f81151561063b565b808752828060205285882090815460ff811615610441575b50505050016103ea565b60ff19161790557f4f783c179409b4127238bc9c990bc99b9a651666a0d20b51d6c42849eb88466d8780a238808080610437565b9050346101bf5760203660031901126101bf57816020936001923581528085522001549051908152f35b5050346100f0576104af36610583565b91906104b9610687565b835b8381106104c6578480f35b6001906001600160a01b036104df61040e838887610601565b1680875282602052848720805460ff81166104fe575b505050016104bb565b60ff191690557f535611fb62fa2a833988f283b779e417e996813e44046f521d76c17b5943b08c8780a23880806104f5565b8491346101bf5760203660031901126101bf573563ffffffff60e01b81168091036101bf5760209250637965db0b60e01b8114908115610572575b5015158152f35b6301ffc9a760e01b1490508361056b565b9060206003198301126105d05760043567ffffffffffffffff928382116105d057806023830112156105d05781600401359384116105d05760248460051b830101116105d0576024019190565b600080fd5b602435906001600160a01b03821682036105d057565b600435906001600160a01b03821682036105d057565b91908110156106115760051b0190565b634e487b7160e01b600052603260045260246000fd5b356001600160a01b03811681036105d05790565b1561064257565b60405162461bcd60e51b815260206004820152601960248201527f4b594352656769737472793a207a65726f2061646472657373000000000000006044820152606490fd5b3360009081527f92110696db8815002c2ab1980ec25c7cd9b4c1016069daf7e45af599aca9bb9a60205260409020547f6f35daacd116f0f629c42d5459fd6842d505964e6828899d889573dc5bc51cf89060ff16156106e35750565b6044906040519063e2517d3f60e01b82523360048301526024820152fd5b80600052600060205260406000203360005260205260ff60406000205416156106e35750565b9060009180835282602052604083209160018060a01b03169182845260205260ff604084205416156000146107a057808352826020526040832082845260205260408320600160ff198254161790557f2f8788117e7eff1d82e926ec794901d17c78024a50270940304540a733656f0d339380a4600190565b505090565b9060009180835282602052604083209160018060a01b03169182845260205260ff6040842054166000146107a05780835282602052604083208284526020526040832060ff1981541690557ff6391f5c32d9c69d2a47ea670b442974b53935d1edc7fd64eb21e047a839171b339380a460019056fea2646970667358221220b3e8717edeebf3c27549cec64f4d8c1f74a9e7bca51f627634bec963e2cec4ac64736f6c634300081800332f8788117e7eff1d82e926ec794901d17c78024a50270940304540a733656f0d",
  "linkReferences": {},
  "deployedLinkReferences": {}
}