{
  "_format": "hh-sol-artifact-1",
  "contractName": "VestingVault",
  "sourceName": "src/VestingVault.sol",
  "abi": [
    {
      "inputs": [
        {
          "internalType": "address",
          "name": "_token",
          "type": "address"
        }
      ],
      "stateMutability": "nonpayable",
      "type": "constructor"
    },
    {
      "inputs": [],
      "name": "AccessControlBadConfirmation",
      "type": "error"
    },
    {
      "inputs": [
        {
          "internalType": "address",
          "name": "account",
          "type": "address"
        },
        {
          "internalType": "bytes32",
          "name": "neededRole",
          "type": "bytes32"
        }
      ],
      "name": "AccessControlUnauthorizedAccount",
      "type": "error"
    },
    {
      "inputs": [],
      "name": "ReentrancyGuardReentrantCall",
      "type": "error"
    },
    {
      "inputs": [
        {
          "internalType": "address",
          "name": "token",
          "type": "address"
        }
      ],
      "name": "SafeERC20FailedOperation",
      "type": "error"
    },
    {
      "anonymous": false,
      "inputs": [
        {
          "indexed": true,
          "internalType": "bytes32",
          "name": "role",
          "type": "bytes32"
        },
        {
          "indexed": true,
          "internalType": "bytes32",
          "name": "previousAdminRole",
          "type": "bytes32"
        },
        {
          "indexed": true,
          "internalType": "bytes32",
          "name": "newAdminRole",
          "type": "bytes32"
        }
      ],
      "name": "RoleAdminChanged",
      "type": "event"
    },
    {
      "anonymous": false,
      "inputs": [
        {
          "indexed": true,
          "internalType": "bytes32",
          "name": "role",
          "type": "bytes32"
        },
        {
          "indexed": true,
          "internalType": "address",
          "name": "account",
          "type": "address"
        },
        {
          "indexed": true,
          "internalType": "address",
          "name": "sender",
          "type": "address"
        }
      ],
      "name": "RoleGranted",
      "type": "event"
    },
    {
      "anonymous": false,
      "inputs": [
        {
          "indexed": true,
          "internalType": "bytes32",
          "name": "role",
          "type": "bytes32"
        },
        {
          "indexed": true,
          "internalType": "address",
          "name": "account",
          "type": "address"
        },
        {
          "indexed": true,
          "internalType": "address",
          "name": "sender",
          "type": "address"
        }
      ],
      "name": "RoleRevoked",
      "type": "event"
    },
    {
      "anonymous": false,
      "inputs": [
        {
          "indexed": true,
          "internalType": "address",
          "name": "saleRound",
          "type": "address"
        }
      ],
      "name": "SaleRoundAuthorized",
      "type": "event"
    },
    {
      "anonymous": false,
      "inputs": [
        {
          "indexed": true,
          "internalType": "address",
          "name": "beneficiary",
          "type": "address"
        },
        {
          "indexed": false,
          "internalType": "uint256",
          "name": "amount",
          "type": "uint256"
        }
      ],
      "name": "TokensClaimed",
      "type": "event"
    },
    {
      "anonymous": false,
      "inputs": [
        {
          "indexed": true,
          "internalType": "address",
          "name": "beneficiary",
          "type": "address"
        },
        {
          "indexed": true,
          "internalType": "uint256",
          "name": "scheduleId",
          "type": "uint256"
        },
        {
          "indexed": false,
          "internalType": "uint256",
          "name": "amount",
          "type": "uint256"
        },
        {
          "indexed": false,
          "internalType": "uint256",
          "name": "cliffEnd",
          "type": "uint256"
        },
        {
          "indexed": false,
          "internalType": "uint256",
          "name": "vestingEnd",
          "type": "uint256"
        }
      ],
      "name": "VestingCreated",
      "type": "event"
    },
    {
      "inputs": [],
      "name": "DEFAULT_ADMIN_ROLE",
      "outputs": [
        {
          "internalType": "bytes32",
          "name": "",
          "type": "bytes32"
        }
      ],
      "stateMutability": "view",
      "type": "function"
    },
    {
      "inputs": [],
      "name": "SALE_ROUND_ROLE",
      "outputs": [
        {
          "internalType": "bytes32",
          "name": "",
          "type": "bytes32"
        }
      ],
      "stateMutability": "view",
      "type": "function"
    },
    {
      "inputs": [],
      "name": "claimVested",
      "outputs": [],
      "stateMutability": "nonpayable",
      "type": "function"
    },
    {
      "inputs": [
        {
          "internalType": "address",
          "name": "beneficiary",
          "type": "address"
        },
        {
          "internalType": "uint256",
          "name": "amount",
          "type": "uint256"
        },
        {
          "internalType": "uint256",
          "name": "cliffDuration",
          "type": "uint256"
        },
        {
          "internalType": "uint256",
          "name": "vestingDuration",
          "type": "uint256"
        },
        {
          "internalType": "uint256",
          "name": "startTime",
          "type": "uint256"
        }
      ],
      "name": "createVesting",
      "outputs": [],
      "stateMutability": "nonpayable",
      "type": "function"
    },
    {
      "inputs": [
        {
          "internalType": "address",
          "name": "beneficiary",
          "type": "address"
        }
      ],
      "name": "getClaimableAmount",
      "outputs": [
        {
          "internalType": "uint256",
          "name": "",
          "type": "uint256"
        }
      ],
      "stateMutability": "view",
      "type": "function"
    },
    {
      "inputs": [
        {
          "internalType": "bytes32",
          "name": "role",
          "type": "bytes32"
        }
      ],
      "name": "getRoleAdmin",
      "outputs": [
        {
          "internalType": "bytes32",
          "name": "",
          "type": "bytes32"
        }
      ],
      "stateMutability": "view",
      "type": "function"
    },
    {
      "inputs": [
        {
          "internalType": "address",
          "name": "beneficiary",
          "type": "address"
        }
      ],
      "name": "getVestedAmount",
      "outputs": [
        {
          "internalType": "uint256",
          "name": "",
          "type": "uint256"
        }
      ],
      "stateMutability": "view",
      "type": "function"
    },
    {
      "inputs": [
        {
          "internalType": "address",
          "name": "beneficiary",
          "type": "address"
        },
        {
          "internalType": "uint256",
          "name": "index",
          "type": "uint256"
        }
      ],
      "name": "getVestingSchedule",
      "outputs": [
        {
          "components": [
            {
              "internalType": "uint256",
              "name": "totalAmount",
              "type": "uint256"
            },
            {
              "internalType": "uint256",
              "name": "claimedAmount",
              "type": "uint256"
            },
            {
              "internalType": "uint256",
              "name": "startTime",
              "type": "uint256"
            },
            {
              "internalType": "uint256",
              "name": "cliffEnd",
              "type": "uint256"
            },
            {
              "internalType": "uint256",
              "name": "vestingEnd",
              "type": "uint256"
            }
          ],
          "internalType": "struct VestingVault.VestingSchedule",
          "name": "schedule",
          "type": "tuple"
        }
      ],
      "stateMutability": "view",
      "type": "function"
    },
    {
      "inputs": [
        {
          "internalType": "address",
          "name": "beneficiary",
          "type": "address"
        }
      ],
      "name": "getVestingScheduleCount",
      "outputs": [
        {
          "internalType": "uint256",
          "name": "",
          "type": "uint256"
        }
      ],
      "stateMutability": "view",
      "type": "function"
    },
    {
      "inputs": [
        {
          "internalType": "bytes32",
          "name": "role",
          "type": "bytes32"
        },
        {
          "internalType": "address",
          "name": "account",
          "type": "address"
        }
      ],
      "name": "grantRole",
      "outputs": [],
      "stateMutability": "nonpayable",
      "type": "function"
    },
    {
      "inputs": [
        {
          "internalType": "bytes32",
          "name": "role",
          "type": "bytes32"
        },
        {
          "internalType": "address",
          "name": "account",
          "type": "address"
        }
      ],
      "name": "hasRole",
      "outputs": [
        {
          "internalType": "bool",
          "name": "",
          "type": "bool"
        }
      ],
      "stateMutability": "view",
      "type": "function"
    },
    {
      "inputs": [
        {
          "internalType": "address",
          "name": "_saleManager",
          "type": "address"
        }
      ],
      "name": "initialize",
      "outputs": [],
      "stateMutability": "nonpayable",
      "type": "function"
    },
    {
      "inputs": [
        {
          "internalType": "bytes32",
          "name": "role",
          "type": "bytes32"
        },
        {
          "internalType": "address",
          "name": "callerConfirmation",
          "type": "address"
        }
      ],
      "name": "renounceRole",
      "outputs": [],
      "stateMutability": "nonpayable",
      "type": "function"
    },
    {
      "inputs": [
        {
          "internalType": "bytes32",
          "name": "role",
          "type": "bytes32"
        },
        {
          "internalType": "address",
          "name": "account",
          "type": "address"
        }
      ],
      "name": "revokeRole",
      "outputs": [],
      "stateMutability": "nonpayable",
      "type": "function"
    },
    {
      "inputs": [],
      "name": "saleManager",
      "outputs": [
        {
          "internalType": "address",
          "name": "",
          "type": "address"
        }
      ],
      "stateMutability": "view",
      "type": "function"
    },
    {
      "inputs": [
        {
          "internalType": "bytes4",
          "name": "interfaceId",
          "type": "bytes4"
        }
      ],
      "name": "supportsInterface",
      "outputs": [
        {
          "internalType": "bool",
          "name": "",
          "type": "bool"
        }
      ],
      "stateMutability": "view",
      "type": "function"
    },
    {
      "inputs": [],
      "name": "token",
      "outputs": [
        {
          "internalType": "contract IERC20",
          "name": "",
          "type": "address"
        }
      ],
      "stateMutability": "view",
      "type": "function"
    }
  ],
  "bytecode": "0x60a0346100cb57601f61121d38819003918201601f19168301916001600160401b038311848410176100d0578084926020946040528339810103126100cb57516001600160a01b038116908190036100cb576001600055801561008757608052610068336100e6565b506040516110a59081610178823960805181818160f3015261068d0152f35b606460405162461bcd60e51b815260206004820152602060248201527f56657374696e675661756c743a207a65726f20746f6b656e20616464726573736044820152fd5b600080fd5b634e487b7160e01b600052604160045260246000fd5b6001600160a01b031660008181527fa6eef7e35abe7026729641147f7915573c7e97b47efa546f5f6e3230263bcb49602052604081205490919060ff166101735781805260016020526040822081835260205260408220600160ff1982541617905533917f2f8788117e7eff1d82e926ec794901d17c78024a50270940304540a733656f0d8180a4600190565b509056fe608060408181526004918236101561001657600080fd5b600092833560e01c91826301ffc9a714610bbf5750816307d0d91614610b875781630b90fca114610b4c578163248a9ca314610b225781632f2ff15d14610af857816336568abe14610ab2578163746e60b514610a8957816391d1485414610a42578163a217fddf14610a27578163bed9757e14610935578163c4d66de8146107de578163d01c44cd146105dd578163d547741f1461059e578163d5a73fdd1461049e578163e12f3a6114610471578163eab23abe14610126575063fc0c546a146100e057600080fd5b34610122578160031936011261012257517f00000000000000000000000000000000000000000000000000000000000000006001600160a01b03168152602090f35b5080fd5b9190503461046d5760a036600319011261046d57610142610c12565b6002546044926024803593608435936064803593928835926001600160a01b03919082163314801561042f575b156103ef57169788156103b0578715610371578415610332578483116102f3574287106102b55750506101a56101ac9186610d28565b9285610d28565b938351906101b982610c43565b86825260208201908a8252858301908152606083019085825260808401928884528a8d526003602052878d20805490680100000000000000008210156102a2579061020991600182018155610c97565b95909561029157908c9493929151865551600186015551600285015551600384015551910155858852600360205282882054966000198801978811610280575050815193845260208401528201527f0ef11fd80fff9cb633beabeab03e30cd8c01b8f7f20493f9644fc85b9cd5bc7890606090a380f35b634e487b7160e01b89526011905287fd5b634e487b7160e01b8e528d8d52868efd5b50634e487b7160e01b8e5260418d52868efd5b7f56657374696e675661756c743a20696e76616c69642073746172742074696d658a91602086818a519562461bcd60e51b8752860152840152820152fd5b7f56657374696e675661756c743a20636c696666203e206475726174696f6e00008a91601e8660208a519562461bcd60e51b8752860152840152820152fd5b7f56657374696e675661756c743a207a65726f206475726174696f6e00000000008a91601b8660208a519562461bcd60e51b8752860152840152820152fd5b7f56657374696e675661756c743a207a65726f20616d6f756e74000000000000008a9160198660208a519562461bcd60e51b8752860152840152820152fd5b7f56657374696e675661756c743a207a65726f20616464726573730000000000008a91601a8660208a519562461bcd60e51b8752860152840152820152fd5b865162461bcd60e51b81526020818d0152601c818701527f56657374696e675661756c743a206e6f7420617574686f72697a656400000000818c01528390fd5b507fdb9284895a7211bfd1c970298a1ed435786c5e0cd6ec4810e5f98b0ac05f46348c526001602052868c20338d5260205260ff878d20541661016f565b8280fd5b50503461012257602036600319011261012257602090610497610492610c12565b610d49565b9051908152f35b90503461046d576020928360031936011261059b576001600160a01b036104c3610c12565b168152600384528281209182549067ffffffffffffffff8211610588575060058451936104f5878460051b0186610c75565b82855283528583208390878087015b85841061056a5750878787805b82518110156105615760606105268285610d35565b510151421015610539575b600101610511565b9061055960019161055361054d8587610d35565b51610ffd565b90610d28565b919050610531565b84828551908152f35b600191859161057885610cc9565b8152019201920191908890610504565b634e487b7160e01b835260419052602482fd5b80fd5b9190503461046d578060031936011261046d576105d991356105d460016105c3610c2d565b938387528160205286200154610e31565b610f86565b5080f35b9050823461059b578060031936011261059b5760028154146107cf576002815561060633610d49565b90811561078c57338152600391600360205284822094825b8654811015610689578061063460019289610c97565b50868101544210610683578261065161064c83610cc9565b610ffd565b91019061066082548092610d05565b80610670575b5050505b0161061e565b61067991610d28565b9055888080610666565b5061066a565b50847f0000000000000000000000000000000000000000000000000000000000000000908251602081019063a9059cbb60e01b8252336024820152856044820152604481526080810181811067ffffffffffffffff8211176107795785525160209187919082865af11561076f5784513d61076657506001600160a01b0382163b155b610743575050519081527f896e034966eaaf1adc54acc0f257056febbd300c9e47182cf761982cf1f5e43060203392a26001815580f35b9151635274afe760e01b81526001600160a01b0390911691810191909152602490fd5b6001141561070c565b82513d86823e3d90fd5b634e487b7160e01b885260418452602488fd5b835162461bcd60e51b8152602081850152601e60248201527f56657374696e675661756c743a206e6f7468696e6720746f20636c61696d00006044820152606490fd5b509051633ee5aeb560e01b8152fd5b83915034610122576020366003190112610122576107fa610c12565b828052600160205283832033845260205260ff8484205416156109185760025460ff8160a01c166108cb576001600160a01b03821692831561087d57506001600160a81b0319168217600160a01b1760025561085590610e75565b507fadff7df86b8dc467f3929512ab26ba6a6ecc855ad5d5eacbce8ba5b5ff9be0a78280a280f35b608490602087519162461bcd60e51b8352820152602260248201527f56657374696e675661756c743a207a65726f206d616e61676572206164647265604482015261737360f01b6064820152fd5b845162461bcd60e51b8152602081850152602160248201527f56657374696e675661756c743a20616c726561647920696e697469616c697a656044820152601960fa1b6064820152608490fd5b5090604492519163e2517d3f60e01b835233908301526024820152fd5b83915034610122578260031936011261012257610950610c12565b916024359184519361096185610c43565b82855282608060209682888201528289820152826060820152015260018060a01b03169081835260038552858320548410156109e457506109b360809386846109b99460a09996526003885220610c97565b50610cc9565b9080519382518552808301519085015280820151908401526060810151606084015201516080820152f35b855162461bcd60e51b8152908101859052601b60248201527f56657374696e675661756c743a20696e76616c696420696e64657800000000006044820152606490fd5b50503461012257816003193601126101225751908152602090f35b90503461046d578160031936011261046d578160209360ff92610a63610c2d565b90358252600186528282206001600160a01b039091168252855220549151911615158152f35b50503461012257816003193601126101225760025490516001600160a01b039091168152602090f35b838334610122578060031936011261012257610acc610c2d565b90336001600160a01b03831603610ae957506105d9919235610f86565b5163334bd91960e11b81528390fd5b9190503461046d578060031936011261046d576105d99135610b1d60016105c3610c2d565b610f06565b90503461046d57602036600319011261046d57816020936001923581528285522001549051908152f35b505034610122578160031936011261012257602090517fdb9284895a7211bfd1c970298a1ed435786c5e0cd6ec4810e5f98b0ac05f46348152f35b5050346101225760203660031901126101225760209181906001600160a01b03610baf610c12565b1681526003845220549051908152f35b84913461046d57602036600319011261046d573563ffffffff60e01b811680910361046d5760209250637965db0b60e01b8114908115610c01575b5015158152f35b6301ffc9a760e01b14905083610bfa565b600435906001600160a01b0382168203610c2857565b600080fd5b602435906001600160a01b0382168203610c2857565b60a0810190811067ffffffffffffffff821117610c5f57604052565b634e487b7160e01b600052604160045260246000fd5b90601f8019910116810190811067ffffffffffffffff821117610c5f57604052565b8054821015610cb3576000526005602060002091020190600090565b634e487b7160e01b600052603260045260246000fd5b90604051610cd681610c43565b608060048294805484526001810154602085015260028101546040850152600381015460608501520154910152565b91908203918211610d1257565b634e487b7160e01b600052601160045260246000fd5b91908201809211610d1257565b8051821015610cb35760209160051b010190565b6001600160a01b03166000908152600360209081526040822080549093929067ffffffffffffffff8111610e1d57600560405195610d8c858460051b0188610c75565b82875283528383208390858089015b858410610dff57505050505050805b8451821015610df957610dbd8286610d35565b5160608101514210610def576001916105538286610ddd610de695610ffd565b91015190610d05565b915b0190610daa565b5090600190610de8565b93505050565b6001918591610e0d85610cc9565b8152019201920191908690610d9b565b634e487b7160e01b82526041600452602482fd5b80600052600160205260406000203360005260205260ff6040600020541615610e575750565b6044906040519063e2517d3f60e01b82523360048301526024820152fd5b6001600160a01b031660008181527fa6eef7e35abe7026729641147f7915573c7e97b47efa546f5f6e3230263bcb49602052604081205490919060ff16610f025781805260016020526040822081835260205260408220600160ff1982541617905533917f2f8788117e7eff1d82e926ec794901d17c78024a50270940304540a733656f0d8180a4600190565b5090565b906000918083526001602052604083209160018060a01b03169182845260205260ff60408420541615600014610f815780835260016020526040832082845260205260408320600160ff198254161790557f2f8788117e7eff1d82e926ec794901d17c78024a50270940304540a733656f0d339380a4600190565b505090565b906000918083526001602052604083209160018060a01b03169182845260205260ff604084205416600014610f81578083526001602052604083208284526020526040832060ff1981541690557ff6391f5c32d9c69d2a47ea670b442974b53935d1edc7fd64eb21e047a839171b339380a4600190565b606081015142106110695760808101519081421015611063576110316110296040830193845190610d05565b925142610d05565b9051818102918183041490151715610d1257811561104d570490565b634e487b7160e01b600052601260045260246000fd5b90505190565b5060009056fea264697066735822122039890c7e33cd7c8ec993357dcb337783f25549a307a31c64c7cf045c12b7d07c64736f6c63430008180033",
  "linkReferences": {},
  "deployedLinkReferences": {}
}