{
  "_format": "hh-sol-artifact-1",
  "contractName": "RateLimiter",
  "sourceName": "src/RateLimiter.sol",
  "abi": [
    {
      "inputs": [
        {
          "internalType": "address",
          "name": "admin",
          "type": "address"
        }
      ],
      "stateMutability": "nonpayable",
      "type": "constructor"
    },
    {
      "inputs": [],
      "name": "AccessControlBadConfirmation",
      "type": "error"
    },
    {
      "inputs": [
        {
          "internalType": "address",
          "name": "account",
          "type": "address"
        },
        {
          "internalType": "bytes32",
          "name": "neededRole",
          "type": "bytes32"
        }
      ],
      "name": "AccessControlUnauthorizedAccount",
      "type": "error"
    },
    {
      "anonymous": false,
      "inputs": [
        {
          "indexed": true,
          "internalType": "address",
          "name": "account",
          "type": "address"
        }
      ],
      "name": "LimitReset",
      "type": "event"
    },
    {
      "anonymous": false,
      "inputs": [
        {
          "indexed": true,
          "internalType": "address",
          "name": "user",
          "type": "address"
        },
        {
          "indexed": false,
          "internalType": "uint256",
          "name": "amountUSD",
          "type": "uint256"
        },
        {
          "indexed": false,
          "internalType": "uint256",
          "name": "txCount",
          "type": "uint256"
        }
      ],
      "name": "RateLimitCheck",
      "type": "event"
    },
    {
      "anonymous": false,
      "inputs": [
        {
          "indexed": true,
          "internalType": "address",
          "name": "account",
          "type": "address"
        },
        {
          "indexed": false,
          "internalType": "string",
          "name": "reason",
          "type": "string"
        }
      ],
      "name": "RateLimitExceeded",
      "type": "event"
    },
    {
      "anonymous": false,
      "inputs": [
        {
          "indexed": false,
          "internalType": "uint256",
          "name": "minTimeBetweenTx",
          "type": "uint256"
        },
        {
          "indexed": false,
          "internalType": "uint256",
          "name": "maxTxPerPeriod",
          "type": "uint256"
        },
        {
          "indexed": false,
          "internalType": "uint256",
          "name": "period",
          "type": "uint256"
        }
      ],
      "name": "RateLimitUpdated",
      "type": "event"
    },
    {
      "anonymous": false,
      "inputs": [
        {
          "indexed": true,
          "internalType": "bytes32",
          "name": "role",
          "type": "bytes32"
        },
        {
          "indexed": true,
          "internalType": "bytes32",
          "name": "previousAdminRole",
          "type": "bytes32"
        },
        {
          "indexed": true,
          "internalType": "bytes32",
          "name": "newAdminRole",
          "type": "bytes32"
        }
      ],
      "name": "RoleAdminChanged",
      "type": "event"
    },
    {
      "anonymous": false,
      "inputs": [
        {
          "indexed": true,
          "internalType": "bytes32",
          "name": "role",
          "type": "bytes32"
        },
        {
          "indexed": true,
          "internalType": "address",
          "name": "account",
          "type": "address"
        },
        {
          "indexed": true,
          "internalType": "address",
          "name": "sender",
          "type": "address"
        }
      ],
      "name": "RoleGranted",
      "type": "event"
    },
    {
      "anonymous": false,
      "inputs": [
        {
          "indexed": true,
          "internalType": "bytes32",
          "name": "role",
          "type": "bytes32"
        },
        {
          "indexed": true,
          "internalType": "address",
          "name": "account",
          "type": "address"
        },
        {
          "indexed": true,
          "internalType": "address",
          "name": "sender",
          "type": "address"
        }
      ],
      "name": "RoleRevoked",
      "type": "event"
    },
    {
      "inputs": [],
      "name": "DEFAULT_ADMIN_ROLE",
      "outputs": [
        {
          "internalType": "bytes32",
          "name": "",
          "type": "bytes32"
        }
      ],
      "stateMutability": "view",
      "type": "function"
    },
    {
      "inputs": [],
      "name": "RATE_ADMIN_ROLE",
      "outputs": [
        {
          "internalType": "bytes32",
          "name": "",
          "type": "bytes32"
        }
      ],
      "stateMutability": "view",
      "type": "function"
    },
    {
      "inputs": [],
      "name": "SALE_ROUND_ROLE",
      "outputs": [
        {
          "internalType": "bytes32",
          "name": "",
          "type": "bytes32"
        }
      ],
      "stateMutability": "view",
      "type": "function"
    },
    {
      "inputs": [
        {
          "internalType": "address",
          "name": "account",
          "type": "address"
        },
        {
          "internalType": "uint256",
          "name": "usdAmount",
          "type": "uint256"
        }
      ],
      "name": "checkAndUpdateLimit",
      "outputs": [],
      "stateMutability": "nonpayable",
      "type": "function"
    },
    {
      "inputs": [
        {
          "internalType": "address",
          "name": "account",
          "type": "address"
        }
      ],
      "name": "getRateLimitInfo",
      "outputs": [
        {
          "internalType": "uint256",
          "name": "lastTxTime",
          "type": "uint256"
        },
        {
          "internalType": "uint256",
          "name": "txCount",
          "type": "uint256"
        },
        {
          "internalType": "uint256",
          "name": "periodStart",
          "type": "uint256"
        },
        {
          "internalType": "uint256",
          "name": "dailySpentUSD",
          "type": "uint256"
        },
        {
          "internalType": "uint256",
          "name": "dailyPeriodStart",
          "type": "uint256"
        },
        {
          "internalType": "uint256",
          "name": "totalVolume",
          "type": "uint256"
        }
      ],
      "stateMutability": "view",
      "type": "function"
    },
    {
      "inputs": [
        {
          "internalType": "bytes32",
          "name": "role",
          "type": "bytes32"
        }
      ],
      "name": "getRoleAdmin",
      "outputs": [
        {
          "internalType": "bytes32",
          "name": "",
          "type": "bytes32"
        }
      ],
      "stateMutability": "view",
      "type": "function"
    },
    {
      "inputs": [
        {
          "internalType": "bytes32",
          "name": "role",
          "type": "bytes32"
        },
        {
          "internalType": "address",
          "name": "account",
          "type": "address"
        }
      ],
      "name": "grantRole",
      "outputs": [],
      "stateMutability": "nonpayable",
      "type": "function"
    },
    {
      "inputs": [
        {
          "internalType": "bytes32",
          "name": "role",
          "type": "bytes32"
        },
        {
          "internalType": "address",
          "name": "account",
          "type": "address"
        }
      ],
      "name": "hasRole",
      "outputs": [
        {
          "internalType": "bool",
          "name": "",
          "type": "bool"
        }
      ],
      "stateMutability": "view",
      "type": "function"
    },
    {
      "inputs": [],
      "name": "maxPurchaseAmount",
      "outputs": [
        {
          "internalType": "uint256",
          "name": "",
          "type": "uint256"
        }
      ],
      "stateMutability": "view",
      "type": "function"
    },
    {
      "inputs": [],
      "name": "maxTxPerPeriod",
      "outputs": [
        {
          "internalType": "uint256",
          "name": "",
          "type": "uint256"
        }
      ],
      "stateMutability": "view",
      "type": "function"
    },
    {
      "inputs": [],
      "name": "minPurchaseAmount",
      "outputs": [
        {
          "internalType": "uint256",
          "name": "",
          "type": "uint256"
        }
      ],
      "stateMutability": "view",
      "type": "function"
    },
    {
      "inputs": [],
      "name": "minTimeBetweenTx",
      "outputs": [
        {
          "internalType": "uint256",
          "name": "",
          "type": "uint256"
        }
      ],
      "stateMutability": "view",
      "type": "function"
    },
    {
      "inputs": [],
      "name": "period",
      "outputs": [
        {
          "internalType": "uint256",
          "name": "",
          "type": "uint256"
        }
      ],
      "stateMutability": "view",
      "type": "function"
    },
    {
      "inputs": [
        {
          "internalType": "bytes32",
          "name": "role",
          "type": "bytes32"
        },
        {
          "internalType": "address",
          "name": "callerConfirmation",
          "type": "address"
        }
      ],
      "name": "renounceRole",
      "outputs": [],
      "stateMutability": "nonpayable",
      "type": "function"
    },
    {
      "inputs": [
        {
          "internalType": "address",
          "name": "account",
          "type": "address"
        }
      ],
      "name": "resetLimit",
      "outputs": [],
      "stateMutability": "nonpayable",
      "type": "function"
    },
    {
      "inputs": [
        {
          "internalType": "bytes32",
          "name": "role",
          "type": "bytes32"
        },
        {
          "internalType": "address",
          "name": "account",
          "type": "address"
        }
      ],
      "name": "revokeRole",
      "outputs": [],
      "stateMutability": "nonpayable",
      "type": "function"
    },
    {
      "inputs": [
        {
          "internalType": "bytes4",
          "name": "interfaceId",
          "type": "bytes4"
        }
      ],
      "name": "supportsInterface",
      "outputs": [
        {
          "internalType": "bool",
          "name": "",
          "type": "bool"
        }
      ],
      "stateMutability": "view",
      "type": "function"
    },
    {
      "inputs": [
        {
          "internalType": "uint256",
          "name": "_minTimeBetweenTx",
          "type": "uint256"
        },
        {
          "internalType": "uint256",
          "name": "_maxTxPerPeriod",
          "type": "uint256"
        },
        {
          "internalType": "uint256",
          "name": "_period",
          "type": "uint256"
        }
      ],
      "name": "updateRateLimitConfig",
      "outputs": [],
      "stateMutability": "nonpayable",
      "type": "function"
    }
  ],
  "bytecode": "0x6080346100df57601f610cb538819003918201601f19168301916001600160401b038311848410176100e4578084926020946040528339810103126100df57516001600160a01b0381168082036100df57603c6002556005600355620151806004556305f5e100600555640ba43b74006006551561009a578061008461008a926100fa565b50610178565b50604051610a7c90816102198239f35b60405162461bcd60e51b815260206004820152601960248201527f526174654c696d697465723a207a65726f2061646472657373000000000000006044820152606490fd5b600080fd5b634e487b7160e01b600052604160045260246000fd5b6001600160a01b031660008181527fad3228b676f7d3cd4284a5443f17f1962b36e491b30a40b2405849e597ba5fb5602052604081205490919060ff1661017457818052816020526040822081835260205260408220600160ff198254161790553391600080516020610c958339815191528180a4600190565b5090565b6001600160a01b031660008181527fd1cffbcb8677e3b29c52070b4a0633f7d94697ecef1ed61fbb165c4a58c54bd360205260408120549091907faf977a80e23262c8ff5f86cefbb6a4f6250c151974ee28fb039b0005ddf0d2cd9060ff1661021357808352826020526040832082845260205260408320600160ff19825416179055600080516020610c95833981519152339380a4600190565b50509056fe608060408181526004918236101561001657600080fd5b600092833560e01c91826301ffc9a71461080c575081630b90fca1146107d157816313723801146107b2578163248a9ca3146107885781632f2ff15d1461075e57816336568abe146107185781636222f79b146105d557816391d148541461058f578163a217fddf14610574578163b3ad5c9c146104b0578163b47dbf221461049157838263ccc518041461041557508163d547741f146103d6578163dfe444b01461039b578163e35c9e241461014f578163ebefce0c14610130578163ef78d4fd1461010e575063f952fcad146100ed57600080fd5b3461010a578160031936011261010a576020906006549051908152f35b5080fd5b90503461012c578260031936011261012c5760209250549051908152f35b8280fd5b50503461010a578160031936011261010a576020906002549051908152f35b83833461010a578060031936011261010a5761016961087a565b9060248035907fdb9284895a7211bfd1c970298a1ed435786c5e0cd6ec4810e5f98b0ac05f463493848652602094868652848720338852865260ff85882054161561037e575060018060a01b03169384865260018152838620966101d1885460025490610890565b42106103305760055484101580610324575b156102da57600288016101f98154835490610890565b4210156102c5575b50600188019283549160035483101561027a57428a5560001983146102695750507f6a9138abbe87cba22f7b50815bc865cbd6468f4282dc23e491c1d1ec957cf7ed9596976001600592018094550161025b848254610890565b90558351928352820152a280f35b634e487b7160e01b89526011905287fd5b60226084928589519362461bcd60e51b85528401528201527f526174654c696d697465723a20746f6f206d616e79207472616e73616374696f6044820152616e7360f01b6064820152fd5b42905586600189015586600589015588610201565b60218360849387519362461bcd60e51b85528401528201527f526174654c696d697465723a20616d6f756e74206f7574206f6620626f756e646044820152607360f81b6064820152fd5b506006548411156101e3565b60258360849387519362461bcd60e51b85528401528201527f526174654c696d697465723a207472616e73616374696f6e20746f6f206672656044820152641c5d595b9d60da1b6064820152fd5b845163e2517d3f60e01b815233818a015280840191909152604490fd5b50503461010a578160031936011261010a57602090517faf977a80e23262c8ff5f86cefbb6a4f6250c151974ee28fb039b0005ddf0d2cd8152f35b9190503461012c578060031936011261012c57610411913561040c60016103fb61085f565b93838752866020528620015461092d565b6109d1565b5080f35b91503461010a57602036600319011261010a576005908261043461087a565b61043c6108b3565b60018060a01b031694858252600160205281209181835581600184015581600284015581600384015582015501557fe8f74cba1bb73341afa43a5e5822294322161afaddee159514d739235577da828280a280f35b50503461010a578160031936011261010a576020906005549051908152f35b828434610571576020366003190112610571576001600160a01b036104d361087a565b16815260016020528181209082519060c082019082821067ffffffffffffffff83111761055e57509360a0929160c09585528254948582526001840154806020840152600285015492838382015260056003870154958660608401528701549687608084015201549687910152815196875260208701528501526060840152608083015260a0820152f35b634e487b7160e01b815260418652602490fd5b80fd5b50503461010a578160031936011261010a5751908152602090f35b90503461012c578160031936011261012c578160209360ff926105b061085f565b903582528186528282206001600160a01b039091168252855220549151911615158152f35b90503461012c57606036600319011261012c57803591602435604435926105fa6108b3565b84156106d557811561069257831561064f5791839160609486947fb08dc25d6f70fb9b42325a265866d58941c3c44ce9a15af6977c63f048c03edc97600255826003555581519384526020840152820152a180f35b606490602084519162461bcd60e51b8352820152601b60248201527f526174654c696d697465723a20696e76616c696420706572696f6400000000006044820152fd5b606490602084519162461bcd60e51b8352820152601b60248201527f526174654c696d697465723a20696e76616c6964206d617820747800000000006044820152fd5b606490602084519162461bcd60e51b8352820152601d60248201527f526174654c696d697465723a20696e76616c6964206d696e2074696d650000006044820152fd5b83833461010a578060031936011261010a5761073261085f565b90336001600160a01b0383160361074f57506104119192356109d1565b5163334bd91960e11b81528390fd5b9190503461012c578060031936011261012c57610411913561078360016103fb61085f565b610953565b90503461012c57602036600319011261012c57816020936001923581528085522001549051908152f35b50503461010a578160031936011261010a576020906003549051908152f35b50503461010a578160031936011261010a57602090517fdb9284895a7211bfd1c970298a1ed435786c5e0cd6ec4810e5f98b0ac05f46348152f35b84913461012c57602036600319011261012c573563ffffffff60e01b811680910361012c5760209250637965db0b60e01b811490811561084e575b5015158152f35b6301ffc9a760e01b14905083610847565b602435906001600160a01b038216820361087557565b600080fd5b600435906001600160a01b038216820361087557565b9190820180921161089d57565b634e487b7160e01b600052601160045260246000fd5b3360009081527fd1cffbcb8677e3b29c52070b4a0633f7d94697ecef1ed61fbb165c4a58c54bd360205260409020547faf977a80e23262c8ff5f86cefbb6a4f6250c151974ee28fb039b0005ddf0d2cd9060ff161561090f5750565b6044906040519063e2517d3f60e01b82523360048301526024820152fd5b80600052600060205260406000203360005260205260ff604060002054161561090f5750565b9060009180835282602052604083209160018060a01b03169182845260205260ff604084205416156000146109cc57808352826020526040832082845260205260408320600160ff198254161790557f2f8788117e7eff1d82e926ec794901d17c78024a50270940304540a733656f0d339380a4600190565b505090565b9060009180835282602052604083209160018060a01b03169182845260205260ff6040842054166000146109cc5780835282602052604083208284526020526040832060ff1981541690557ff6391f5c32d9c69d2a47ea670b442974b53935d1edc7fd64eb21e047a839171b339380a460019056fea2646970667358221220cba3f65fe6f6f35f22f5b4f5d35c6a15685c1715c5453514a4217cffd6ad374964736f6c634300081800332f8788117e7eff1d82e926ec794901d17c78024a50270940304540a733656f0d",
  "linkReferences": {},
  "deployedLinkReferences": {}
}