{
  "_format": "hh-sol-artifact-1",
  "contractName": "ReferralSystem",
  "sourceName": "src/ReferralSystem.sol",
  "abi": [
    {
      "inputs": [
        {
          "internalType": "address",
          "name": "admin",
          "type": "address"
        }
      ],
      "stateMutability": "nonpayable",
      "type": "constructor"
    },
    {
      "inputs": [],
      "name": "AccessControlBadConfirmation",
      "type": "error"
    },
    {
      "inputs": [
        {
          "internalType": "address",
          "name": "account",
          "type": "address"
        },
        {
          "internalType": "bytes32",
          "name": "neededRole",
          "type": "bytes32"
        }
      ],
      "name": "AccessControlUnauthorizedAccount",
      "type": "error"
    },
    {
      "anonymous": false,
      "inputs": [
        {
          "indexed": false,
          "internalType": "uint256",
          "name": "referrerBps",
          "type": "uint256"
        },
        {
          "indexed": false,
          "internalType": "uint256",
          "name": "refereeBps",
          "type": "uint256"
        }
      ],
      "name": "BonusPercentagesUpdated",
      "type": "event"
    },
    {
      "anonymous": false,
      "inputs": [
        {
          "indexed": true,
          "internalType": "address",
          "name": "referee",
          "type": "address"
        },
        {
          "indexed": true,
          "internalType": "address",
          "name": "referrer",
          "type": "address"
        },
        {
          "indexed": false,
          "internalType": "uint256",
          "name": "purchaseAmount",
          "type": "uint256"
        },
        {
          "indexed": false,
          "internalType": "uint256",
          "name": "referrerBonus",
          "type": "uint256"
        },
        {
          "indexed": false,
          "internalType": "uint256",
          "name": "refereeBonus",
          "type": "uint256"
        }
      ],
      "name": "ReferralBonusCalculated",
      "type": "event"
    },
    {
      "anonymous": false,
      "inputs": [
        {
          "indexed": true,
          "internalType": "address",
          "name": "referee",
          "type": "address"
        },
        {
          "indexed": true,
          "internalType": "address",
          "name": "referrer",
          "type": "address"
        }
      ],
      "name": "ReferralRegistered",
      "type": "event"
    },
    {
      "anonymous": false,
      "inputs": [
        {
          "indexed": true,
          "internalType": "bytes32",
          "name": "role",
          "type": "bytes32"
        },
        {
          "indexed": true,
          "internalType": "bytes32",
          "name": "previousAdminRole",
          "type": "bytes32"
        },
        {
          "indexed": true,
          "internalType": "bytes32",
          "name": "newAdminRole",
          "type": "bytes32"
        }
      ],
      "name": "RoleAdminChanged",
      "type": "event"
    },
    {
      "anonymous": false,
      "inputs": [
        {
          "indexed": true,
          "internalType": "bytes32",
          "name": "role",
          "type": "bytes32"
        },
        {
          "indexed": true,
          "internalType": "address",
          "name": "account",
          "type": "address"
        },
        {
          "indexed": true,
          "internalType": "address",
          "name": "sender",
          "type": "address"
        }
      ],
      "name": "RoleGranted",
      "type": "event"
    },
    {
      "anonymous": false,
      "inputs": [
        {
          "indexed": true,
          "internalType": "bytes32",
          "name": "role",
          "type": "bytes32"
        },
        {
          "indexed": true,
          "internalType": "address",
          "name": "account",
          "type": "address"
        },
        {
          "indexed": true,
          "internalType": "address",
          "name": "sender",
          "type": "address"
        }
      ],
      "name": "RoleRevoked",
      "type": "event"
    },
    {
      "inputs": [],
      "name": "DEFAULT_ADMIN_ROLE",
      "outputs": [
        {
          "internalType": "bytes32",
          "name": "",
          "type": "bytes32"
        }
      ],
      "stateMutability": "view",
      "type": "function"
    },
    {
      "inputs": [],
      "name": "REFERRAL_ADMIN_ROLE",
      "outputs": [
        {
          "internalType": "bytes32",
          "name": "",
          "type": "bytes32"
        }
      ],
      "stateMutability": "view",
      "type": "function"
    },
    {
      "inputs": [],
      "name": "SALE_ROUND_ROLE",
      "outputs": [
        {
          "internalType": "bytes32",
          "name": "",
          "type": "bytes32"
        }
      ],
      "stateMutability": "view",
      "type": "function"
    },
    {
      "inputs": [
        {
          "internalType": "address",
          "name": "referee",
          "type": "address"
        },
        {
          "internalType": "uint256",
          "name": "tokenAmount",
          "type": "uint256"
        }
      ],
      "name": "calculateReferralBonus",
      "outputs": [
        {
          "internalType": "address",
          "name": "referrer",
          "type": "address"
        },
        {
          "internalType": "uint256",
          "name": "referrerBonus",
          "type": "uint256"
        },
        {
          "internalType": "uint256",
          "name": "refereeBonus",
          "type": "uint256"
        }
      ],
      "stateMutability": "nonpayable",
      "type": "function"
    },
    {
      "inputs": [
        {
          "internalType": "address",
          "name": "referrer",
          "type": "address"
        }
      ],
      "name": "getReferralCount",
      "outputs": [
        {
          "internalType": "uint256",
          "name": "",
          "type": "uint256"
        }
      ],
      "stateMutability": "view",
      "type": "function"
    },
    {
      "inputs": [
        {
          "internalType": "address",
          "name": "user",
          "type": "address"
        }
      ],
      "name": "getReferralStats",
      "outputs": [
        {
          "internalType": "address",
          "name": "referrer",
          "type": "address"
        },
        {
          "internalType": "uint256",
          "name": "totalReferred",
          "type": "uint256"
        },
        {
          "internalType": "uint256",
          "name": "totalBonusEarned",
          "type": "uint256"
        },
        {
          "internalType": "bool",
          "name": "hasReferred",
          "type": "bool"
        }
      ],
      "stateMutability": "view",
      "type": "function"
    },
    {
      "inputs": [
        {
          "internalType": "address",
          "name": "referrer",
          "type": "address"
        }
      ],
      "name": "getReferredUsers",
      "outputs": [
        {
          "internalType": "address[]",
          "name": "",
          "type": "address[]"
        }
      ],
      "stateMutability": "view",
      "type": "function"
    },
    {
      "inputs": [
        {
          "internalType": "address",
          "name": "referee",
          "type": "address"
        }
      ],
      "name": "getReferrer",
      "outputs": [
        {
          "internalType": "address",
          "name": "",
          "type": "address"
        }
      ],
      "stateMutability": "view",
      "type": "function"
    },
    {
      "inputs": [
        {
          "internalType": "bytes32",
          "name": "role",
          "type": "bytes32"
        }
      ],
      "name": "getRoleAdmin",
      "outputs": [
        {
          "internalType": "bytes32",
          "name": "",
          "type": "bytes32"
        }
      ],
      "stateMutability": "view",
      "type": "function"
    },
    {
      "inputs": [
        {
          "internalType": "bytes32",
          "name": "role",
          "type": "bytes32"
        },
        {
          "internalType": "address",
          "name": "account",
          "type": "address"
        }
      ],
      "name": "grantRole",
      "outputs": [],
      "stateMutability": "nonpayable",
      "type": "function"
    },
    {
      "inputs": [
        {
          "internalType": "address",
          "name": "referee",
          "type": "address"
        }
      ],
      "name": "hasReferrer",
      "outputs": [
        {
          "internalType": "bool",
          "name": "",
          "type": "bool"
        }
      ],
      "stateMutability": "view",
      "type": "function"
    },
    {
      "inputs": [
        {
          "internalType": "bytes32",
          "name": "role",
          "type": "bytes32"
        },
        {
          "internalType": "address",
          "name": "account",
          "type": "address"
        }
      ],
      "name": "hasRole",
      "outputs": [
        {
          "internalType": "bool",
          "name": "",
          "type": "bool"
        }
      ],
      "stateMutability": "view",
      "type": "function"
    },
    {
      "inputs": [],
      "name": "refereeBonusBps",
      "outputs": [
        {
          "internalType": "uint256",
          "name": "",
          "type": "uint256"
        }
      ],
      "stateMutability": "view",
      "type": "function"
    },
    {
      "inputs": [
        {
          "internalType": "address",
          "name": "",
          "type": "address"
        }
      ],
      "name": "referralData",
      "outputs": [
        {
          "internalType": "address",
          "name": "referrer",
          "type": "address"
        },
        {
          "internalType": "uint256",
          "name": "totalReferred",
          "type": "uint256"
        },
        {
          "internalType": "uint256",
          "name": "totalBonusEarned",
          "type": "uint256"
        },
        {
          "internalType": "bool",
          "name": "hasReferred",
          "type": "bool"
        }
      ],
      "stateMutability": "view",
      "type": "function"
    },
    {
      "inputs": [
        {
          "internalType": "address",
          "name": "",
          "type": "address"
        },
        {
          "internalType": "uint256",
          "name": "",
          "type": "uint256"
        }
      ],
      "name": "referredUsers",
      "outputs": [
        {
          "internalType": "address",
          "name": "",
          "type": "address"
        }
      ],
      "stateMutability": "view",
      "type": "function"
    },
    {
      "inputs": [],
      "name": "referrerBonusBps",
      "outputs": [
        {
          "internalType": "uint256",
          "name": "",
          "type": "uint256"
        }
      ],
      "stateMutability": "view",
      "type": "function"
    },
    {
      "inputs": [
        {
          "internalType": "address",
          "name": "referee",
          "type": "address"
        },
        {
          "internalType": "address",
          "name": "referrer",
          "type": "address"
        }
      ],
      "name": "registerReferral",
      "outputs": [],
      "stateMutability": "nonpayable",
      "type": "function"
    },
    {
      "inputs": [
        {
          "internalType": "bytes32",
          "name": "role",
          "type": "bytes32"
        },
        {
          "internalType": "address",
          "name": "callerConfirmation",
          "type": "address"
        }
      ],
      "name": "renounceRole",
      "outputs": [],
      "stateMutability": "nonpayable",
      "type": "function"
    },
    {
      "inputs": [
        {
          "internalType": "bytes32",
          "name": "role",
          "type": "bytes32"
        },
        {
          "internalType": "address",
          "name": "account",
          "type": "address"
        }
      ],
      "name": "revokeRole",
      "outputs": [],
      "stateMutability": "nonpayable",
      "type": "function"
    },
    {
      "inputs": [
        {
          "internalType": "bytes4",
          "name": "interfaceId",
          "type": "bytes4"
        }
      ],
      "name": "supportsInterface",
      "outputs": [
        {
          "internalType": "bool",
          "name": "",
          "type": "bool"
        }
      ],
      "stateMutability": "view",
      "type": "function"
    },
    {
      "inputs": [],
      "name": "totalBonusDistributed",
      "outputs": [
        {
          "internalType": "uint256",
          "name": "",
          "type": "uint256"
        }
      ],
      "stateMutability": "view",
      "type": "function"
    },
    {
      "inputs": [],
      "name": "totalReferrals",
      "outputs": [
        {
          "internalType": "uint256",
          "name": "",
          "type": "uint256"
        }
      ],
      "stateMutability": "view",
      "type": "function"
    },
    {
      "inputs": [
        {
          "internalType": "uint256",
          "name": "_referrerBps",
          "type": "uint256"
        },
        {
          "internalType": "uint256",
          "name": "_refereeBps",
          "type": "uint256"
        }
      ],
      "name": "updateBonusPercentages",
      "outputs": [],
      "stateMutability": "nonpayable",
      "type": "function"
    }
  ],
  "bytecode": "0x6080346100c757601f61105d38819003918201601f19168301916001600160401b038311848410176100cc578084926020946040528339810103126100c757516001600160a01b0381168082036100c7576101f48060015560025515610082578061006c610072926100e2565b50610160565b50604051610e3c90816102018239f35b60405162461bcd60e51b815260206004820152601c60248201527f526566657272616c53797374656d3a207a65726f2061646472657373000000006044820152606490fd5b600080fd5b634e487b7160e01b600052604160045260246000fd5b6001600160a01b031660008181527fad3228b676f7d3cd4284a5443f17f1962b36e491b30a40b2405849e597ba5fb5602052604081205490919060ff1661015c57818052816020526040822081835260205260408220600160ff19825416179055339160008051602061103d8339815191528180a4600190565b5090565b6001600160a01b031660008181527f610416528cfef961f6c8fc91bef56087ef3281212584daef4b7fa0e6036047c260205260408120549091907fe15a7dd79e49684a2a3fd5c689ae377eab58931a852ffed7fca24bd23555aa299060ff166101fb57808352826020526040832082845260205260408320600160ff1982541617905560008051602061103d833981519152339380a4600190565b50509056fe608060408181526004918236101561001657600080fd5b600090813560e01c90816301ffc9a714610a9c57508063067fda6b14610a7d5780630b90fca114610a4257806318452cd814610a01578063196f4914146109e257806321bade131461092c578063248a9ca31461090257806324acbd69146108cc5780632f2ff15d146108a257806332e5b6d8146107ca57806336568abe146107845780634a9fefc7146107495780635603b9f9146105215780638d736ed31461050257806391d14854146104bc578063a217fddf146104a1578063ab11417f14610482578063c9c6b55614610407578063d547741f146103c4578063d8abfee514610379578063deb3269f146101bc578063e23828dc1461017d5763e92820e61461012157600080fd5b3461017a578160031936011261017a57610139610af0565b6001600160a01b039081168252602093909352818120805460243594929085101561017a575060209361016b91610b21565b92905490519260031b1c168152f35b80fd5b5090346101b857816003193601126101b857602090517fe15a7dd79e49684a2a3fd5c689ae377eab58931a852ffed7fca24bd23555aa298152f35b5080fd5b5090346101b857806003193601126101b85782356024938435907fe15a7dd79e49684a2a3fd5c689ae377eab58931a852ffed7fca24bd23555aa2990818652602091868352858720338852835260ff86882054161561035d57506103e880851161030c5783116102bd576107d06102338486610b87565b1161027157507f2b0c09f5443bc5628e317c9e8ef97edc0667f2b69e9400cdc2eaae6c9b1de93d94955082600155816002558351928352820152a180f35b8660849286519262461bcd60e51b8452830152808201527f526566657272616c53797374656d3a20746f74616c20626f6e757320746f6f206044820152630d0d2ced60e31b6064820152fd5b60268760849387519362461bcd60e51b85528401528201527f526566657272616c53797374656d3a207265666572656520626f6e757320746f6044820152650de40d0d2ced60d31b6064820152fd5b5060278760849387519362461bcd60e51b85528401528201527f526566657272616c53797374656d3a20726566657272657220626f6e757320746044820152660dede40d0d2ced60cb1b6064820152fd5b604492508786519263e2517d3f60e01b84523390840152820152fd5b5090346101b857806003193601126101b8576060906103aa610399610af0565b6103a1610c73565b60243590610b94565b91929081519360018060a01b031684526020840152820152f35b509190346104035780600319360112610403576103ff91356103fa60016103e9610b0b565b938387528660205286200154610ced565b610d91565b5080f35b8280fd5b5090346101b85760203660031901126101b8576001600160a01b039161047e90829084610432610af0565b16815260036020818152929091208054600182015460028301549290930154955196166001600160a01b0316865291850152604084015260ff9091161515606083015281906080820190565b0390f35b5090346101b857816003193601126101b8576020906006549051908152f35b5090346101b857816003193601126101b85751908152602090f35b5091346104035781600319360112610403578160209360ff926104dd610b0b565b903582528186528282206001600160a01b039091168252855220549151911615158152f35b5090346101b857816003193601126101b8576020906002549051908152f35b50913461040357816003193601126104035761053b610af0565b610543610b0b565b9161054c610c73565b6001600160a01b039182169283156107065782169384156106c35784841461068057838652600360205260ff600382882001541661063d5783865260036020526003818720866bffffffffffffffffffffffff60a01b82541617815501600160ff198254161790558486528160205285208054916801000000000000000083101561062a5750906105e291600182018155610b21565b819291549060031b9184831b921b1916179055610600600554610b4f565b6005557f5f1ca2fcc108b751843a763e60d2201f593516109d7dbb1b700468f2d4190bb78380a380f35b634e487b7160e01b875260419052602486fd5b906020606492519162461bcd60e51b8352820152602060248201527f526566657272616c53797374656d3a20616c72656164792072656665727265646044820152fd5b906020606492519162461bcd60e51b8352820152601d60248201527f526566657272616c53797374656d3a2073656c662d726566657272616c0000006044820152fd5b906020606492519162461bcd60e51b8352820152601d60248201527f526566657272616c53797374656d3a207a65726f2072656665727265720000006044820152fd5b845162461bcd60e51b8152602081840152601c60248201527f526566657272616c53797374656d3a207a65726f2072656665726565000000006044820152606490fd5b5090346101b85760203660031901126101b8576020916001600160a01b0390829082610773610af0565b168152600385522054169051908152f35b5090346101b857806003193601126101b85761079e610b0b565b90336001600160a01b038316036107bb57506103ff919235610d91565b5163334bd91960e11b81528390fd5b5082903461017a57602092836003193601126101b8576001600160a01b0393846107f2610af0565b16835283815281832092825192838386549182815201908196845284842090845b8682821061088c5750505050849003601f01601f191684019567ffffffffffffffff87118588101761087957508581528286529251828601819052928501939291905b8281106108635785850386f35b8351871685529381019392810192600101610856565b634e487b7160e01b835260419052602482fd5b83548c1685529093019260019283019201610813565b509190346104035780600319360112610403576103ff91356108c760016103e9610b0b565b610d13565b5091346104035760203660031901126104035760209282916001600160a01b036108f4610af0565b168252845220549051908152f35b50913461040357602036600319011261040357816020936001923581528085522001549051908152f35b509134610403576020366003190112610403576001600160a01b0380610950610af0565b168452600360205282842091835194608086019186831067ffffffffffffffff8411176109cf575050835281541680845260018201546020808601829052600284015486860181905260039094015460ff161515606096870181905294516001600160a01b039093168352820152604081019190915291820152608090f35b634e487b7160e01b825260419052602490fd5b5090346101b857816003193601126101b8576020906005549051908152f35b5090346101b85760203660031901126101b85760209160ff9060039083906001600160a01b03610a2f610af0565b1681528286522001541690519015158152f35b5090346101b857816003193601126101b857602090517fdb9284895a7211bfd1c970298a1ed435786c5e0cd6ec4810e5f98b0ac05f46348152f35b5090346101b857816003193601126101b8576020906001549051908152f35b90508334610403576020366003190112610403573563ffffffff60e01b81168091036104035760209250637965db0b60e01b8114908115610adf575b5015158152f35b6301ffc9a760e01b14905083610ad8565b600435906001600160a01b0382168203610b0657565b600080fd5b602435906001600160a01b0382168203610b0657565b8054821015610b395760005260206000200190600090565b634e487b7160e01b600052603260045260246000fd5b6000198114610b5e5760010190565b634e487b7160e01b600052601160045260246000fd5b81810292918115918404141715610b5e57565b91908201809211610b5e57565b909160018060a01b0380921660009281845260036020526040842060ff60038201541615610c6857541680917f97a731ce2af675e0a2502525558d9bdb33cb114efcf7e9c0ae4c86a36058dd5a606061271097600260408a610bf860015485610b74565b049a610c05835485610b74565b04998781526003602052600182822001610c1f8154610b4f565b905587815260036020522001610c368a8254610b87565b9055610c4d610c45898b610b87565b600654610b87565b600655604051908152886020820152876040820152a3929190565b505050915080918190565b3360009081527f309885961c5c462e01d0f6cb432454eb474f04fa3318496f3172f0decfa9b43760205260409020547fdb9284895a7211bfd1c970298a1ed435786c5e0cd6ec4810e5f98b0ac05f46349060ff1615610ccf5750565b6044906040519063e2517d3f60e01b82523360048301526024820152fd5b80600052600060205260406000203360005260205260ff6040600020541615610ccf5750565b9060009180835282602052604083209160018060a01b03169182845260205260ff60408420541615600014610d8c57808352826020526040832082845260205260408320600160ff198254161790557f2f8788117e7eff1d82e926ec794901d17c78024a50270940304540a733656f0d339380a4600190565b505090565b9060009180835282602052604083209160018060a01b03169182845260205260ff604084205416600014610d8c5780835282602052604083208284526020526040832060ff1981541690557ff6391f5c32d9c69d2a47ea670b442974b53935d1edc7fd64eb21e047a839171b339380a460019056fea26469706673582212204a90bbf70114b6aeebd7d1c58a86709d035b0359633027604529471f6c92a0aa64736f6c634300081800332f8788117e7eff1d82e926ec794901d17c78024a50270940304540a733656f0d",
  "linkReferences": {},
  "deployedLinkReferences": {}
}